:100000000C9480010C949F010C949F010C949F010F
:100010000C949F010C949F010C949F010C949F01E0
:100020000C949F010C945E020C949F010C949F0110
:100030000C949F010C949F010C949F010C949F01C0
:100040000C949F010C949F010C949F010C949F01B0
:100050000C949F010C949F010C949F010C949F01A0
:100060000C949F010C949F010C949F010C949F0190
:100070000C949F010C948B130C949F010C949F0182
:100080000C949F010C949F010C949F010C949F0170
:100090000C94363B0C949F010C949F010C94A04D42
:1000A0000C949F010C949F010C9466570C94775705
:1000B0000C949F010C949F010C949F010C941C0ABA
:1000C0000C949F010C949F010C949F010C949F0130
:1000D0000C949F010C949F010C949F010C949F0120
:1000E0000C949F010C949F010C949F010C949F0110
:1000F0000C949F580C949F010C949F010C9473587E
:100100000C949F010C949F010C949F010C949F01EF
:100110000C949F010C949F010C949F010C949F01DF
:10012000E043F63CB443D5431F4360436E439143E1
:10013000493E6C3E8A3EC23EFE3E9842E14200434A
:100140005E3F203D353D523D843DB13DC13DC63D04
:100150005E3CCC3DD53DEA3DFF3D203E2A3E2C3E57
:100160003C3E124527455E3C32455545AF45104162
:1001700028413D414A415541E9456441F93C463FEA
:10018000B43FB93F07442544E83C434464447144C8
:1001900080449D44A044B344D844D245D9455E3CF4
:1001A0005E3C5E3C5E3C5E3C5E3C5E3CDB44F5445B
:1001B0000345D841DB41FB41874251426742C13F81
:1001C0001F40C040973C5E3CCE3CEC43EC400B41B2
:1001D0003D40A6406E4182419D41B6417D3F923FE8
:1001E00005A84CCDB2D44EB93836A9020C50B991FD
:1001F0008688083CA6AAAA2ABE000000803F6E613D
:100200006E00696E660000407A10F35A00A0724ECC
:1002100018090010A5D4E80000E87648170000E4AB
:100220000B54020000CA9A3B000000E1F5050000F3
:1002300080969800000040420F000000A086010058
:100240000000102700000000E80300000000640028
:10025000000000000A000000000001000000000093
:100260002C76D888DC674F0823DFC1DFAE59E1B1B7
:10027000B796E5E3E453C63AE651997696E8E6C2C6
:100280008426EB898C9B62ED407C6FFCEFBC9C9FCD
:1002900040F2BAA56FA5F490055A2AF75C936B6CEF
:1002A000F9676DC11BFCE0E40D47FEF520E6B500E3
:1002B000D0ED902E0300943577050080841E080051
:1002C00000204E0A000000C80C333333330F986E01
:1002D00012831141EF8D2114893BE65516CFFEE6BE
:1002E000DB18D1844B381BF77C1D901DA4BBE42484
:1002F000203284725E228100C9F124ECA1E53D2701
:1003000011241FBECFEFD1E4DEBFCDBF13E0A0E0CC
:10031000B2E0EEE7F5ED00E00BBF02C007900D92F2
:10032000A833B107D9F716E3A8E3B3E001C01D92E3
:10033000A435B107E1F70E94CB0F0C94BD6A0C9471
:10034000000081E080930B028091B00A86FF04C018
:100350008091B00A87FDADC08091B00A86FF28C0A9
:100360008091AC029091AD02892B19F18091A90284
:10037000811129C00E9468291092AD021092AC022E
:100380001092AB021092AA021092A90281E00E9480
:10039000A90B1092C3021092C2021092C1021092D5
:1003A000C0021092BF024FEF60E080E00C94420A5E
:1003B000089583E00E94A90B0E94170A892B09F473
:1003C00076C00C949A070E94413880ED8093612B8F
:1003D0008EE08093622B8091AC029091AD0290935D
:1003E000632B8091AC029091AD028093642B1092AC
:1003F000652B86E78093662B88E08093672B1092AD
:10040000682B1092692B10926A2B10926B2B8FEF36
:1004100080936C2B10926D2B82E180936E2B6091F8
:10042000622B20E04FEF5FEF81E69BE20E945A4C87
:100430006091622B20E04FEF5FEF81E69BE20E942C
:100440005A4C6091622B20E04FEF5FEF81E69BE218
:100450000E945A4C6091622B20E04FEF5FEF81E6E3
:100460009BE20E945A4C6091622B20E04FEF5FEFBD
:1004700081E69BE20E945A4C6091622B20E04FEF94
:100480005FEF81E69BE20E945A4C1092B0111092ED
:10049000AE0280E090E0FC01EE0FFF1FEF51F54D42
:1004A00011821082019680349105A9F763CF0C94D4
:1004B000EA060E942C2A83E00C94A90B1F920F924B
:1004C0000FB60F9211240F900FBE0F901F9018952A
:1004D0000E94FC058091AC029091AD02892B31F015
:1004E0008091C2029091C3020E94FF380C9472382E
:1004F000CF93DF93CDB7DEB729970FB6F894DEBF61
:100500000FBECDBF0E94FC058091AC029091AD0260
:10051000892B21F08091A90281111EC08091BF0218
:10052000813009F443C0833009F440C08091AC02AB
:100530009091AD02892B29F08091A902882309F4BA
:1005400065C00E940B3A29960FB6F894DEBF0FBE25
:10055000CDBFDF91CF9108958091C2029091C302E7
:10056000892B09F04DC08091AE0290E0019663E0C6
:1005700070E00E9427678093AE028091AE028130C6
:1005800009F455C008F045C08091C2029091C302A1
:10059000892B21F60E9468290E9441384FEF60E0C4
:1005A00080E00E94420A1092B011CDCF82E0809389
:1005B000BF028091AC029091AD02892BF1F080EDE9
:1005C000898389E08A838091AC029091AD029B83FC
:1005D0008091AC029091AD028C831D828DE48E835C
:1005E00083E08F83188682E1898720E04FEF5FEFF9
:1005F00069E0CE0101960E945A4C0E946829A3CF5F
:100600008091AE02882309F489CFADCF0E944A3A87
:100610009ACF823009F082CF0E9468294FEF6FEFA6
:1006200080E00E94420A89E08093B0118CCF0E9442
:10063000413840E06FEF80E00E94420A87E08093FB
:10064000B01181CF80ED97E0A0E0B0E08093B60AD2
:100650009093B70AA093B80AB093B90A81E0809347
:10066000B50A81EA91E09093BB0A8093BA0A85EBC0
:100670009AE00C94DF4C85EB9AE00C94AB4C8F9293
:100680009F92AF92BF92CF92DF92EF92FF920F9321
:100690001F93CF93DF93CDB7DEB72C970FB6F894A7
:1006A000DEBF0FBECDBFE62EE82690915F029923F4
:1006B000E1F1E6FA442740F9E7FC62C0E5FC44605A
:1006C00066FD55C030E021E067FD55C0226065FF42
:1006D00055C0346080E289838AE08A838091650214
:1006E00090916602A0916702B09168028B839C830F
:1006F000AD83BE834F83388729871A86CE01019642
:100700000E94F5102C960FB6F894DEBF0FBECDBF39
:10071000DF91CF911F910F91FF90EF90DF90CF90DD
:10072000BF90AF909F908F9008956623B9F09091FD
:100730000B029111E7CFE6FC27C020E030E0E7FC98
:1007400039C0E5FE2CC065FD2AC086FD2CC085FDA4
:100750005BC087FFD7CF0E947802D4CF90910B0265
:10076000992329F310920B0210920A02CBCF31E0A9
:1007700020E067FFABCF326065FDABCF2460AACF2E
:100780004260E5FE9DCF9BCF6C878B8766FF19C0CB
:100790000E94220320E030E06C858B85D0CF232B94
:1007A00009F4B0CFD2CF87FD49C085FD2DC00E948E
:1007B0006802A8CF67FD0CC010920A0221E030E069
:1007C000C0CF0E943B0321E030E06C858B85B7CF22
:1007D00091E090930A028090650290906602A0904A
:1007E0006702B09068028092B10A9092B20AA09219
:1007F000B30AB092B40A9091B0119150923008F0BF
:10080000A0CF1092B0119DCF0E94FC05809169028B
:1008100090916A02892B49F04FEF60E080E00E94DE
:10082000420A10926A02109269021092C302109258
:10083000C2021092C1021092C00264CF81E06C87A4
:100840000E94A90B0E947C3A6C85662319F081E016
:1008500080930B028091B50F811126C080912E10DC
:10086000811122C08091A71081111EC03FEEC32EBE
:100870003FE0D32EE12CF12CF60111821082FFEF24
:10088000EF1AFF0A0BED1FE029EC3FE340E050E0D8
:10089000BA01C7010E942A1D89E7C80ED11CE3E0F6
:1008A000EE16F10449F72ECF0E9468292BCFCF9383
:1008B0008091650290916602A0916702B0916802F2
:1008C00040910C0250910D0260910E0270910F0246
:1008D000841B950BA60BB70B4997A105B105F0F04A
:1008E000C9B1C095C07EC093B00A809110028C1728
:1008F000A9F06C2F0E943F038091650290916602DF
:10090000A0916702B091680280930C0290930D024F
:10091000A0930E02B0930F02C0931002CF910895DE
:100920001092B100249808950C949004CF93DF9313
:1009300082E48093B000A3EBB0E082EB8C93E1EB18
:10094000F0E085E080832FEF32E597E021503040E2
:100950009040E1F700C000001082CFE1DEE4219773
:10096000F1F700C0000095E89C938083DFEF22E55B
:1009700037E0D15020403040E1F700C00000108245
:10098000249881E08093440E84E690E0A0E0B0E0FB
:100990008093450E9093460EA093470EB093480E59
:1009A00084E994E090934A0E8093490EDF91CF91B1
:1009B00008959C01009709F18A3F910578F085E040
:1009C0008093B10064E274EF80E090E0249A40E00C
:1009D00050E00E945D672093B300089587E0809304
:1009E000B10064E87EE180E090E0249A40E050E0CD
:1009F0000E945D672093B30008950C949004CF93F8
:100A0000DF93C82FCF7082958F7009F161E090E07D
:100A1000660F9F5F9813FCCF70E0D0E0CC0FDD1F16
:100A2000CC0FDD1FCF5EDD4F882777FD8095982F97
:100A30000E942961288139814A815B810E9472620A
:100A40000E94FB60CB01DF91CF910C94D90461E04F
:100A500070E0E3CF0F931F93CF93DF9300D0CDB718
:100A6000DEB70E94900400914202109143020115EA
:100A7000110509F480C080914402909145028017CD
:100A800091070CF05EC03091530E20E0880F991F43
:100A9000820F931F45960E942E130E94FF043091EF
:100AA000530E20E08091440290914502880F991FD7
:100AB000820F931F44960E942E1380933D03409112
:100AC0004402509145024F5F5F4F5093450240935F
:100AD000440260914202709143026417750794F4D6
:100AE0000E9408698A830E94086989830E940869B4
:100AF0004A8169810F900F90DF91CF911F910F91E3
:100B00000C94420A1092540E282F30E040E050E03E
:100B10006091390370913A0380913B0390913C03BB
:100B20000E943B672093550E3093560E4093570E0C
:100B30005093580E8AE295E090935A0E8093590E86
:100B4000CFCF81E08093540E109245021092440260
:100B500010924302109242020E94900410924102AD
:100B60004FEF60E080E00F900F90DF91CF911F91E9
:100B70000F910C94420A9091530E80E042960E948D
:100B80002E13809338039091530E80E043960E9479
:100B90002E13082F10E0109343020093420220917D
:100BA000380330E040E050E060E879EA83E090E02C
:100BB0000E943B672093390330933A0340933B03F1
:100BC00050933C0358CF91E0909341029093540E80
:100BD0001092550E1092560E1092570E1092580EFB
:100BE0002AE235E030935A0E2093590E8093530E2B
:100BF00084E59EE00C94DF4C86EE90E00E94D904E0
:100C000084E49EE00C94DF4C0F931F938091650267
:100C100090916602A0916702B09168028093720E73
:100C20009093730EA093740EB093750E1092630E92
:100C300084EF91E0A0E0B0E08093640E9093650EA5
:100C4000A093660EB093670E89ED97E09093690EBE
:100C50008093680E83E69EE00E94DF4C0BED1FE060
:100C600029EC3FE340E050E0BA0181E090E00E94CF
:100C70002A1D0BED1FE029EC3FE340E050E0BA01F4
:100C800082E090E00E942A1D0BED1FE029EC3FE37B
:100C900040E050E0BA0183E090E00E942A1D81E02C
:100CA00090E090934A02809349021F910F9108951A
:100CB00080918B0E8230B9F18091C60F9091C70F51
:100CC000892BB9F180913F1090914010892B89F1C7
:100CD0000E94682941E05FEF6FEF7FEF81E090E0D5
:100CE0000E94CD2041E05FEF6FEF7FEF82E090E068
:100CF0000E94CD2081E08093630E88E893E1A0E01C
:100D0000B0E08093640E9093650EA093660EB0934E
:100D1000670E85EC98E09093690E8093680E83E6E9
:100D20009EE00C94DF4C8091C60F9091C70F892BE9
:100D300009F408958091B8109091B910892B41F66B
:100D4000089580918B0E8230B9F18091C60F9091F9
:100D5000C70F892BB9F180913F1090914010892BDA
:100D600089F10E9468294FEF50E060E070E081E077
:100D700090E00E94CD204FEF50E060E070E082E014
:100D800090E00E94CD2081E08093630E88E893E19B
:100D9000A0E0B0E08093640E9093650EA093660E81
:100DA000B093670E88E599E09093690E8093680E82
:100DB00083E69EE00C94DF4C8091C60F9091C70FA4
:100DC000892B09F408958091B8109091B910892B5E
:100DD00041F608950F931F9381E090E090934802AD
:100DE0008093470290934A02809349028091650262
:100DF00090916602A0916702B09168028093720E92
:100E00009093730EA093740EB093750E1092F00F22
:100E10001092EF0F10926910109268101092E21069
:100E20001092E1100BED1FE029EC3FE340E050E0B1
:100E3000BA0181E090E00E942A1D0BED1FE029EC31
:100E40003FE340E050E0BA0182E090E00E942A1DBA
:100E50000BED1FE029EC3FE340E050E0BA0183E0F6
:100E600090E00E942A1D1092630E84EF91E0A0E0B2
:100E7000B0E08093640E9093650EA093660EB093DD
:100E8000670E89ED97E09093690E8093680E83E674
:100E90009EE01F910F910C94DF4C0F931F9381E004
:100EA00090E090934802809347021092F00F1092C6
:100EB000EF0F10926910109268101092E2101092C9
:100EC000E1100BED1FE029EC3FE340E050E0BA01F8
:100ED0000E942A1D0BED1FE029EC3FE340E050E0AB
:100EE000BA0182E090E00E942A1D0BED1FE029EC80
:100EF0003FE340E050E0BA0183E090E00E942A1D09
:100F00001092630E84EF91E0A0E0B0E08093640E55
:100F10009093650EA093660EB093670E81EA96E0FB
:100F20009093690E8093680E83E69EE01F910F9167
:100F30000C94DF4C109248021092470283E69EE028
:100F40000E94AB4C0E9468294FEF60E080E00E9455
:100F5000420A83EC98EBA2EBBEE380938802909365
:100F60008902A0938A02B0938B0284E690E090936A
:100F7000870280938602089540E060E08FEF0E9430
:100F8000420A2FEF81EE94E0215080409040E1F73B
:100F900000C0000040E060E080E00E94420A2FEFC5
:100FA00081EE94E0215080409040E1F700C00000C5
:100FB000E3CF0F931F93CF93DF93809165029091BE
:100FC0006602A0916702B09168024091720E509142
:100FD000730E6091740E7091750E841B950BA60BA9
:100FE000B70B81349747AB41B10508F091C08091B0
:100FF0008B0E823009F472C08091C60F9091C70F9A
:10100000892B09F453C080913F1090914010892B97
:1010100009F450C080914602813009F48CC00BED78
:101020001FE029EC3FE34BED5FE069E471E481E010
:1010300090E00E942A1D0BED1FE029EC3FE34BEDF1
:101040005FE069E471E482E090E00E942A1D0BED0C
:101050001FE029EC3FE34BED5FE069E471E483E0DE
:1010600090E00E942A1D81E0809346020E94086958
:101070008C010E940869EC010E940869FC012FEFB5
:1010800030E0C801B9010E942767482FCE01B9019D
:101090000E942767C82FCF01B9010E9427676C2FD4
:1010A000DF91CF911F910F910C94420A8091B50F5F
:1010B000882351F080912E108111D8CF80913F105C
:1010C00090914010892B91F68091490290914A02AB
:1010D000892B61F60E9468290E94BC078091C60F87
:1010E0009091C70F892B09F44AC08091B810909154
:1010F000B910892B09F08ECF8091A7108111B6CF3E
:101100008091B8109091B910892B09F0AFCFDCCF46
:1011100081E08093630E40E06FEF80E00E94420A1E
:101120000E9468291092480210924702DF91CF91E5
:101130001F910F9108950BED1FE029EC3FE340E074
:1011400050E0BA0181E090E00E942A1D0BED1FE003
:1011500029EC3FE340E050E0BA0182E090E00E94D9
:101160002A1D0BED1FE029EC3FE340E050E0BA01FF
:1011700083E090E00E942A1D1092460277CF809172
:10118000B50F882309F4A0CFB7CFEF92FF920F934A
:101190001F93CF93DF93CDB7DEB72C970FB6F8949C
:1011A000DEBF0FBECDBF0E9468290BEE1FE0EE240C
:1011B000E394F12CEC0EFD1EF80164817581882703
:1011C00077FD8095982F0E9429612BED3FE049EC37
:1011D00050E40E9472629B01AC01F8016081718150
:1011E000828193810E942360F701619371938193BF
:1011F00091937F0107581F4FF1E106351F07E1F674
:1012000080918B0E28E530EA4BE851EC8230D1F129
:1012100069817A818B819C810E946E6218160CF420
:1012200045C028E530EA4BE851EC6D817E818F8125
:1012300098850E946E621816CCF181E08093630E4F
:1012400088EE93E0A0E0B0E08093640E9093650E8A
:10125000A093660EB093670E84E096E09093690EBB
:101260008093680E83E69EE02C960FB6F894DEBF5E
:101270000FBECDBFDF91CF911F910F91FF90EF90E7
:101280000C94DF4C69817A818B819C810E946E6213
:10129000181664F028E530EA4BE851EC69857A8548
:1012A0008B859C850E946E6218163CF60E94BC07D6
:1012B000EF92FF920F931F93CF93DF93CDB7DEB7DB
:1012C0002C970FB6F894DEBF0FBECDBF0E946829E1
:1012D0000BEE1FE0EE24E394F12CEC0EFD1EF80162
:1012E00064817581882777FD8095982F0E942961F8
:1012F0002BED3FE049EC50E40E9472629B01AC018F
:10130000F80160817181828193810E942360F701DD
:1013100061937193819391937F0107581F4FF1E17E
:1013200006351F07E1F680918B0E28E530EA4BE881
:1013300051E4823009F465C069817A818B819C8196
:101340000E94876087FD71C028E530EA4BE851E4D0
:101350006D817E818F8198850E94876087FD65C041
:101360001092F00F1092EF0F109269101092681007
:101370001092E2101092E1100BED1FE029EC3FE318
:1013800040E050E0BA0181E090E00E942A1D0BEDA0
:101390001FE029EC3FE340E050E0BA0182E090E03A
:1013A0000E942A1D0BED1FE029EC3FE340E050E0D6
:1013B000BA0183E090E00E942A1D1092630E84EF30
:1013C00091E0A0E0B0E08093640E9093650EA0934E
:1013D000660EB093670E88E596E09093690E809351
:1013E000680E83E69EE02C960FB6F894DEBF0FBE23
:1013F000CDBFDF91CF911F910F91FF90EF900C9493
:10140000DF4C69817A818B819C810E94876087FD96
:101410000CC028E530EA4BE851E469857A858B8574
:101420009C850E94876087FF9BCF0E94BC078091AC
:1014300047029091480208951F920F920FB60F92A3
:1014400011248F939F93AF93BF93809165029091E6
:101450006602A0916702B09168020196A11DB11DBC
:101460008093650290936602A0936702B09368022E
:10147000BF91AF919F918F910F900FBE0F901F90D2
:101480001895089590E1899F900111243093990057
:101490002093980090E1699F9001112430939D0062
:1014A00020939C0090E1499F9001112430939B0070
:1014B00020939A008093880E6093890E40938A0E41
:1014C00008958091760E9091770E01979093770E04
:1014D0008093760E181619061CF081E08093950F04
:1014E00040918A0E40586091890E60588091880E14
:1014F00080580C94420A20E1829FC00111249093ED
:1015000099008093980080E1689FB0011124709346
:101510009D0060939C0020E1429FA0011124509304
:101520009B0040939A000895CF93DF938091AC0283
:101530009091AD02892B59F18091A902882339F14C
:10154000C0916F02D09170029E01A9E8B8E80E9494
:1015500007679695879596958795969587954FE019
:10156000489F9001499F300D1124CE01821B930B9F
:10157000039780F44091AB116091AA118091A91159
:101580000E947B0A2196D0937002C0936F02DF9174
:10159000CF91089540918A0E6091890E8091880EB6
:1015A0000E947B0AEFCF40918A0E6091890E809154
:1015B000880E0C947B0A0F93CF93DF9300D01F9279
:1015C000CDB7DEB781E08B8302E09E012F5F3F4FF6
:1015D00041E0BE016D5F7F4F8CE10E94914F0E9400
:1015E000BF4F998180E09093850E8093840E809107
:1015F000840E9091850E2A81822B9093850E809384
:10160000840E83E08B839E012F5F3F4F41E0BE013C
:101610006D5F7F4F8CE10E94914F0E94BF4F998177
:1016200080E090938D0F80938C0F80918C0F909120
:101630008D0F2A81822B90938D0F80938C0F85E0E4
:101640008B839E012F5F3F4F41E0BE016D5F7F4F57
:101650008CE10E94914F0E94BF4F998180E090934E
:10166000B30F8093B20F8091B20F9091B30F2A8184
:10167000822B9093B30F8093B20F80E00F900F9066
:101680000F90DF91CF910F910895CF93C82F8823AA
:10169000F1F040E06FEF80E00E94420A2FEF81EE10
:1016A00094E0215080409040E1F700C0000040E00D
:1016B00060E08FEF0E94420A2FEF81EE94E021500C
:1016C00080409040E1F700C00000C15011F7CF9179
:1016D000089585E00C94450B0F93CF93DF9300D0D2
:1016E00000D0CDB7DEB78DE08C8301E09E012D5F89
:1016F0003F4F41E0BE016C5F7F4F8CE10E94914FF4
:101700000E94BF4F892B09F58B818A3219F084E141
:101710000E94450B8AE2898389E18A8342E0BE0107
:101720006F5F7F4F8CE10E94554F0E94BF4F892B06
:1017300019F084E10E94450B80E00F900F900F900C
:101740000F90DF91CF910F91089584E10E94450B96
:10175000DBCF2091760E3091770E121613060CF423
:10176000089590E0880F991F9093770E8093760EDE
:101770001092950F84E690E0A0E0B0E08093960F81
:101780009093970FA093980FB093990F81E69AE0EA
:1017900090939B0F80939A0F85E99FE00C94DF4C08
:1017A0002091760E3091770E121613060CF40895E0
:1017B00090E0880F991F9093770E8093760E109289
:1017C000950F4093960F5093970F6093980F7093D7
:1017D000990F81E69AE090939B0F80939A0F85E989
:1017E0009FE00C94DF4C0E947B0A81E080933E03D3
:1017F00084E690E0A0E0B0E080933F039093400344
:10180000A0934103B093420383ED9AE09093440385
:10181000809343038EE393E00C94DF4C9AE0909323
:10182000770090918E0F923021F190917C00907C06
:1018300090937C0090917C00906C90937C009091B0
:101840007C00982B90937C0080917A00876C809329
:101850007A0080917A0086FDFCCF2091780030914B
:101860007900932F937080E0AC01422B9A01C9015B
:10187000089510927C0090917C00982B90937C00AE
:10188000E3CFCF93DF9380E294E00E942E13809306
:101890008E0F81E294E00E942E1380938F0F82E2DC
:1018A00094E00E942E138093900F20918E0F22308F
:1018B00009F45BC08DEC9CECACECBFE38093AD0F06
:1018C0009093AE0FA093AF0FB093B00F819A899809
:1018D0002FEF31EE84E0215030408040E1F700C02E
:1018E000000082E00E940E0CEC018198829A8A9896
:1018F0009FEF21EE34E0915020403040E1F700C0EE
:10190000000081E00E940E0C8298C436D105ACF034
:1019100082E080938B0E83E08093870E82E090E0DC
:101920009093920F8093910F81E090E09093940FA9
:101930008093930FDF91CF9108958436910544F7FA
:1019400083E080938B0E82E08093870E84E090E0AA
:101950009093920F8093910F83E090E09093940F77
:101960008093930FDF91CF91089580E090E0A0EAFB
:10197000BFE38093AD0F9093AE0FA093AF0FB093E2
:10198000B00F6A98729A3FEF80E792E03150804042
:101990009040E1F700C00000629B03C020938B0ED3
:1019A000BACF83E080938B0E2093870E84E090E083
:1019B0009093920F8093910F83E090E09093940F17
:1019C0008093930FDF91CF910895E1E6F0E080E8F6
:1019D00080831082F89480EF84B98BB1806E8BB9CC
:1019E000E8E6F0E0808181608083EBE6F0E08081D2
:1019F000826080838081846080838081886080832E
:101A00008FB780688FBF88E18AB98BB183608BB94B
:101A10008FE78DB98FE383BB0E94410C3AEA309384
:101A2000800029E1209381008FEF9FE09093870051
:101A300080938600309390002093910090939700BC
:101A4000809396001092250110922401E3E7F0E0C4
:101A5000808182608083E1E2F1E080818C6080831C
:101A60008EE390E0909329018093280190932701C1
:101A70008093260184B7877F84BFE0E6F0E0808111
:101A800088618083108280EC80937C0010927B00C0
:101A90008FEE80937A000E941F1778940895E82FA4
:101AA000F0E0EE0FFF1FE756FE4E20813181C901A5
:101AB00008950E944F0DBC0180E090E00E942761D4
:101AC0002091AD0F3091AE0F4091AF0F5091B00FFC
:101AD0000E94726220E030E040E85AE30E947262A5
:101AE000089580E00E944F0DBC0180E090E00E94CC
:101AF00027612091AD0F3091AE0F4091AF0F509103
:101B0000B00F0E94726220E030E040E85AE30E9489
:101B100072622EE63BED46EB5EE30E948E60089516
:101B2000CF93DF93CDB7DEB72C970FB6F894DEBF17
:101B30000FBECDBF69877A878B879C8780916502AE
:101B400090916602A0916702B091680289839A839E
:101B5000AB83BC8329813A814B815C8189859A85DD
:101B6000AB85BC85820F931FA41FB51F8D839E83F9
:101B7000AF83B887000020916502309166024091E2
:101B80006702509168028D819E81AF81B88582176E
:101B90009307A407B50778F72C960FB6F894DEBF25
:101BA0000FBECDBFDF91CF91089580916000886115
:101BB00080936000809160008D6080936000FFCF13
:101BC0004F925F926F927F92AF92BF92CF92DF92CD
:101BD000EF92FF920F931F93CF93DF93CDB7DEB7B2
:101BE0006E970FB6F894DEBF0FBECDBF0E94DB0A22
:101BF0006091840E7091850E882777FD8095982FCF
:101C00000E94296120E030E040E858E30E947262BF
:101C10002B013C0160918C0F70918D0F882777FD0F
:101C20008095982F0E94296120E030E040E858E339
:101C30000E9472626B017C016091B20F7091B30FD0
:101C4000882777FD8095982F0E94296120E030E059
:101C500040E858E30E9472625B018C01242D352D0F
:101C6000462D572D642D752D862D972D0E9472625D
:101C70002B013C012C2D3D2D4E2D5F2D6C2D7D2DEE
:101C80008E2D9F2D0E9472629B01AC01C301B20197
:101C90000E9423606B017C012A2D3B2D402F512F88
:101CA0006A2D7B2D802F912F0E9472629B01AC01C7
:101CB000C701B6010E9423600E94DF627B018C0194
:101CC0008091650290916602A0916702B0916802CE
:101CD00040914D0350914E0360914F03709150031A
:101CE000841B950BA60BB70B8B3F9105A105B10586
:101CF00008F0C7C0A0905103B0905203C0905303A6
:101D0000D09054032E2D3F2D402F512F6A2D7B2D27
:101D10008C2D9D2D0E9422605B016C0120E030E043
:101D2000A9017B2D9D2D0E94876087FD27C12AE98F
:101D300039E949E15FE36A2D7B2D8C2D9D2D0E94B1
:101D40006E6218160CF06CC010920A0240E06FEF41
:101D500080E00E94F30BBB24B394B0920B028091FD
:101D6000AC029091AD02892B09F0AAC08091B0110C
:101D70008111A6C08091650290916602A0916702D0
:101D8000B09168028093B1119093B211A093B311F6
:101D9000B093B4118091650290916602A0916702A0
:101DA000B09168020E940C694090650250906602F2
:101DB00060906702709068020E9408696C01C3011C
:101DC000B2010E9427612B013C01B601882777FDF3
:101DD0008095982F0E94296120E03EEF4FEF56E456
:101DE0000E948E6020E030E44CE954E40E9472626C
:101DF0009B01AC01C301B2010E94236020E030E0EE
:101E00004AE753E40E9423600E94FB606093B5118F
:101E10007093B6118093B7119093B811B092B0112E
:101E20008E2D9F2DA02FB12F80935103909352039D
:101E3000A0935303B093540380916502909166027E
:101E4000A0916702B091680280934D0390934E0376
:101E5000A0934F03B09350036E960FB6F894DEBF75
:101E60000FBECDBFDF91CF911F910F91FF90EF90EB
:101E7000DF90CF90BF90AF907F906F905F904F902A
:101E800008958E2D9F2DA02FB12F809351039093F5
:101E90005203A0935303B093540380916502909131
:101EA0006602A0916702B091680280934D039093FF
:101EB0004E03A0934F03B09350035701680122CF04
:101EC0008091B0118111ACCF809165029091660232
:101ED000A0916702B091680240916B0250916C0230
:101EE00060916D0270916E02841B950BA60BB70B6F
:101EF000843F9140A105B10508F4AECF83ED8983FD
:101F00008EE08A831B821C821D821E828091AC021D
:101F10009091AD029F838091AC029091AD02888731
:101F20008091A91189878091AA118A878091AB112C
:101F30008B878091AA029091AB029C878091AA0224
:101F40009091AB028D8782E18E8720E04FEF5FEFAB
:101F50006EE0CE0101960E945A4C809165029091EC
:101F60006602A0916702B091680280936B02909321
:101F70006C02A0936D02B0936E0252CF2AE939E948
:101F800049E15FEB6A2D7B2D8C2D9D2D0E94876092
:101F900087FF46CFD9CECF93DF93CDB7DEB7AD97CE
:101FA0000FB6F894DEBF0FBECDBF0E94083B0E9463
:101FB000E50C0E94494F0E946C0B882321F08AE0B7
:101FC0000E94450BFCCF0E9496040E94DC480E94B0
:101FD000772F8091600290916102A0916202B0918E
:101FE00063028A279B270E940C690E948E291F8EFC
:101FF0008FE090E0A0E0B0E088A399A3AAA3BBA3E0
:1020000085EB91E29DA38CA3CE014F960E94DF4CFD
:10201000188A84E690E0A0E0B0E0898B9A8BAB8BC5
:10202000BC8B84E99AE09E8B8D8BCE0140960E94FA
:10203000DF4C198280E091E0A0E0B0E08A839B83CE
:10204000AC83BD8389EB9AE39F838E83CE01019697
:102050000E94DF4C4FEF60E080E00E94420A4E9BFE
:102060000E944D070E941D560E94674D0E941D56FA
:102070000E948E3B0E94CB4F0E941D560E943F49FA
:102080000E9457040E941D560E94333180910A021B
:1020900081117EC08091490290914A02892B11F3EF
:1020A0008091470290914802892BE1F2809165026C
:1020B00090916602A0916702B09168024091720E01
:1020C0005091730E6091740E7091750E841B950B78
:1020D000A60BB70B81339547A105B10518F20E94F5
:1020E000FC0510924A021092490280918E0F8230B4
:1020F00009F4B8CF20E030E04AEA53E460917A0274
:1021000070917B0280917C0290917D020E947262AC
:1021100020E030E044EB53E40E948E606093820242
:1021200070938302809384029093850220E030E0D4
:102130004AEA53E4609176027091770280917802C6
:10214000909179020E94726220E030E044EB53E407
:102150000E948E6060937E0270937F028093800263
:102160009093810244E050E062E872E087E194E0FD
:102170000E943F1344E050E06EE772E08BE194E090
:102180000E943F1361EA86E194E00E9400136ACF47
:102190000E94E00D7FCFCF92DF92EF92FF926B0112
:1021A0007C0120E030E0A9010E94876087FD1AC011
:1021B00020E030E0A901C701B6010E946E62181646
:1021C00074F490E88FE350E040E09C01652F742F99
:1021D000832F922FFF90EF90DF90CF90089590E0A3
:1021E00080E0F1CF90E88FEBEECF20916902309143
:1021F0006A02232B59F04091AB0F5091AC0F209104
:10220000690230916A024217530721F52091D902E1
:102210004091AB0F5091AC0FFC01618121110EC0B8
:1022200021E070E00E94E03BFC01418120E030E0D1
:1022300050E0BC018AE493E10C94985F21E070E0E7
:102240000E94E03BFC014181BC0182E00E94554FAD
:102250000C94BF4F4091690250916A0221E0FC0149
:1022600061810C945A4C3F924F925F926F927F9291
:102270008F929F92AF92BF92CF92DF92EF92FF9296
:102280000F931F93CF93DF93CDB7DEB760970FB651
:10229000F894DEBF0FBECDBF0BEE1FE0EE24E3943B
:1022A000F12CEC0EFD1E6701F80164817581882711
:1022B00077FD8095982F0E9429612BED3FE049EC36
:1022C00050E40E9472629B01AC01F801608171814F
:1022D000828193810E942360F601619371938193BF
:1022E00091936F0107581F4FF1E10F3C1F07E1F673
:1022F0008091870E882309F4D6C0312C00E010E0CD
:1023000088248394912C80915D0290E0002E02C07D
:10231000959587950A94E2F780FF4BC0F7014080BE
:102320005180628073806801CC0CDD1CCC0CDD1CFC
:1023300088E7A82E8EE0B82EAC0CBD1CF5012081DC
:10234000318142815381C301B2010E94226020E0A9
:1023500030E0A9010E948760F5012081318142812E
:10236000538187FD9AC0C301B2010E942260472FAA
:10237000382F292F862F942FA32FB22FBC01CD01E8
:10238000F601E35BFD4F20813181428153810E9440
:102390006E62181674F4C401002E01C0880F0A94EE
:1023A000EAF7382AF601E858F14F408251826282FA
:1023B00073820F5F1F4F8091870EF4E0EF0EF11CC8
:1023C00090E0081719070CF49ECF332009F46BC076
:1023D00084E28093612B88E18093622B8091650277
:1023E00090916602A0916702B09168028093632B7E
:1023F0009093642BA093652BB093662B89819A816F
:10240000AB81BC818093672B9093682BA093692B41
:10241000B0936A2B8D819E81AF81B88580936B2BA1
:1024200090936C2BA0936D2BB0936E2B89859A851E
:10243000AB85BC8580936F2B9093702BA093712BF1
:10244000B093722B8D859E85AF85B8898093732B51
:102450009093742BA093752BB093762B3092772B9F
:102460001092782B81E69BE260960FB6F894DEBF5F
:102470000FBECDBFDF91CF911F910F91FF90EF90D5
:10248000DF90CF90BF90AF909F908F907F906F9094
:102490005F904F903F900C94F510C301B2010E94E1
:1024A000226090586DCF60960FB6F894DEBF0FBED5
:1024B000CDBFDF91CF911F910F91FF90EF90DF90F3
:1024C000CF90BF90AF909F908F907F906F905F90D4
:1024D0004F903F900895EF92FF920F931F93CF93E9
:1024E000DF9300D000D000D0CDB7DEB70E94DB0A6A
:1024F0000091840E1091850E1A83098360918C0FD0
:1025000070918D0F7C836B834091B20F5091B30F0C
:102510005E834D83FE01319680E090E020915E0263
:1025200030E0082E02C0359527950A94E2F720FF87
:1025300015C0DC01AA0FBB1FAB55B04F2D913C91CC
:102540001197ED90FC90A0914B02B0914C0220812C
:1025500031812E193F09A217B30790F001963296E8
:1025600083309105D9F626960FB6F894DEBF0FBEDC
:10257000CDBFDF91CF911F910F91FF90EF90089504
:102580001093A60F0093A50F7093A80F6093A70F49
:102590005093AA0F4093A90F85E28093612B8DE0A1
:1025A0008093622B8091650290916602A0916702F0
:1025B000B09168028093632B9093642BA093652B5A
:1025C000B093662B1093672B0093682B7093692B45
:1025D00060936A2B50936B2B40936C2B10926D2B56
:1025E00081E69BE226960FB6F894DEBF0FBECDBF04
:1025F000DF91CF911F910F91FF90EF900C94F51008
:10260000E0917102E11103C0F894E09171027FEF53
:1026100054E144E2F999FECF2AE030E00000215075
:102620003109E1F792BD81BD70BD5FBBF99AF9999F
:10263000FECF2AE030E0000021503109E1F760BD13
:102640004FBBF99AF999FECF92BD81BDF89A20B59A
:102650006213E0CFE11101C07894089520917102D6
:10266000211103C0F89420917102F999FECF92BD17
:1026700081BDF89A211101C0789480B50895EF9238
:10268000FF920F931F93CF93DF938C01F89481E017
:1026900080937102141615066CF4EB017B01E40EB5
:1026A000F51E6991C8010E9400130F5F1F4FCE15E0
:1026B000DF05B9F7109271027894DF91CF911F91E5
:1026C0000F91FF90EF900895EF92FF920F931F9359
:1026D000CF93DF93F89421E020937102141615062E
:1026E00084F4EB017B01E40EF51E8C01061B170B35
:1026F000C8018C0F9D1F0E942E138993CE15DF05F4
:10270000B9F7109271027894DF91CF911F910F91D8
:10271000FF90EF9008951F920F920FB60F92112421
:102720000BB60F922F923F924F925F926F927F92D1
:102730008F929F92AF92BF92CF92DF92EF92FF92D1
:102740000F931F932F933F934F935F936F937F93B9
:102750008F939F93AF93BF93EF93FF93CF93DF93A9
:1027600000D000D0CDB7DEB780918C028F5F809310
:102770008C02833008F463C010928C0240918D0269
:10278000E42FF0E08091780090E0EE0FFF1FE75615
:10279000FE4E918380838081918150917900352F05
:1027A000337020E0822B932B9183808380914902A8
:1027B00090914A02892B41F0809147029091480202
:1027C000892B11F04730F1F14F5F40938D02483073
:1027D00008F08CC280917C00807E80937C00809188
:1027E0007C0090918D02892B80937C000F900F903C
:1027F0000F900F90DF91CF91FF91EF91BF91AF912B
:102800009F918F917F916F915F914F913F912F9108
:102810001F910F91FF90EF90DF90CF90BF90AF90FE
:102820009F908F907F906F905F904F903F902F90F0
:102830000F900BBE0F900FBE0F901F901895811137
:10284000D5CF9CCF6091A5117091A6118090AD0F4E
:102850009090AE0FA090AF0FB090B00F882777FD8B
:102860008095982F0E942961A50194010E947262AF
:1028700020E030E040E85AE30E94726223E333E351
:1028800043E35FE30E9422608B017C0120E030E0A3
:10289000A901712F9F2D0E94876087FD2AC22DEC10
:1028A0003CEC4CE45EE3602F712F8E2D9F2D0E9437
:1028B000876087FDEBC06091A3117091A4118827F8
:1028C00077FD8095982F0E9429619B01AC01C5017D
:1028D000B4010E94726220E030E040E85AE30E94B6
:1028E000726223E333E343E35FE30E942260F62E48
:1028F000E72E182F092F20E030E0A901D701F801B9
:102900006B2F7A2F8F2F9E2F0E94876087FD1BC20F
:102910002DEC3CEC4CE45EE3D701F8016B2F7E2DEF
:102920008F2F902F0E94876087FDB0C02090740287
:1029300030907502B101882777FD8095982F0E940D
:10294000296120917A0230917B0240917C02509162
:102950007D020E947262F62EE72ED82EC92E60915B
:10296000A5117091A6110091A3111091A4118827AF
:1029700077FD8095982F0E942961A50194010E94FE
:10298000726220E030E040E85AE30E9472622B015C
:102990003C01B801882777FD8095982F0E94296116
:1029A000A50194010E94726220E030E040E85AE301
:1029B0000E9472629B01AC01C301B2010E942260BD
:1029C00020E030E0A9010E94876087FD01C260918C
:1029D000A5117091A6110091A3111091A41188273F
:1029E00077FD8095982F0E942961A50194010E948E
:1029F000726220E030E040E85AE30E9472622B01EC
:102A00003C01B801882777FD8095982F0E942961A5
:102A1000A50194010E94726220E030E040E85AE390
:102A20000E9472629B01AC01C301B2010E9422604C
:102A30009B01AC010E9423602FEF221A320A262F3D
:102A4000372F482F592FD701F6016B2F7E2D8F2F4F
:102A50009C2D0E9423606B017C01B101882777FDCA
:102A60008095982F0E9429619B01AC01C701B60196
:102A70000E948E6060937A0270937B0280937C0246
:102A800090937D0230927502209274020091910F12
:102A90001091920F000F111FF801E756FE4E608152
:102AA0007181882777FD8095982F0E9429619B016D
:102AB000AC01C501B4010E94726220E030E040E840
:102AC0005AE30E94726223E333E343E35FE30E942D
:102AD00022607B016C0120E030E0A9017F2D9D2D5B
:102AE0000E94876087FD13C12DEC3CEC4CE45EE353
:102AF0006E2D7F2D8C2D9D2D0E94876087FDF6C049
:102B0000E090930FF090940FEE0CFF1CF701E75646
:102B1000FE4E60817181882777FD8095982F0E94F5
:102B200029619B01AC01C501B4010E94726220E0E1
:102B300030E040E85AE30E94726223E333E343E368
:102B40005FE30E942260762E672ED82EC92E20E0E9
:102B500030E0A901D301F6016B2F7A2F8F2F9E2F22
:102B60000E94876087FDE0C02DEC3CEC4CE45EE306
:102B7000D301F6016B2F762D8F2F9C2D0E9487603D
:102B800087FDB4C020917202309173023C832B8385
:102B9000B901882777FD8095982F0E94296120919F
:102BA00076023091770240917802509179020E942A
:102BB000726269837A833C0107561E4EF801608178
:102BC000718129E931E1E20EF31EF701C080D18065
:102BD000882777FD8095982F0E942961A50194018F
:102BE0000E94726220E030E040E85AE30E94726284
:102BF0001B012C01B601882777FD8095982F0E9434
:102C00002961A50194010E94726220E030E040E851
:102C10005AE30E9472629B01AC01C201B1010E94A1
:102C2000226020E030E0A9010E94876087FD9BC000
:102C3000F80160817181F70100811181882777FD9A
:102C40008095982F0E942961A50194010E947262CB
:102C500020E030E040E85AE30E9472626B017C01A0
:102C6000B801882777FD8095982F0E942961A501DA
:102C700094010E94726220E030E040E85AE30E9432
:102C800072629B01AC01C701B6010E9422609B01E8
:102C9000AC010E9423600B811C810F5F1F4F262F08
:102CA000372F482F592FB981AA816B2F7A2F862D64
:102CB000972D0E9423606B017C01B801882777FD66
:102CC0008095982F0E9429619B01AC01C701B60134
:102CD0000E948E60609376027093770280937802F0
:102CE00090937902109373020093720210928D02F6
:102CF00071CD2DEC3CEC4CE45EEB602F712F8E2DF2
:102D00009F2D0E946E6218160CF4C0CED4CD2DEC0F
:102D10003CEC4CE45EEB6E2D7F2D8C2D9D2D0E94A6
:102D20006E6218161CF3ECCE2DEC3CEC4CE45EEB22
:102D3000D301F6016B2F762D8F2F9C2D0E946E6292
:102D40001816A4F21FCF2DEC3CEC4CE45EEBD7013F
:102D5000F8016B2F7E2D8F2F902F0E946E62181618
:102D60000CF494CEE3CDF80160817181F70100810C
:102D70001181882777FD8095982F0E942961A501F0
:102D800094010E94726220E030E040E85AE30E9421
:102D900072626B017C01B801882777FD8095982FBE
:102DA0000E942961A50194010E94726220E030E036
:102DB00040E85AE30E9472629B01AC01C701B60170
:102DC0000E94226090589B01AC010E94236063CF57
:102DD0006091A5117091A6110091A3111091A411F9
:102DE000882777FD8095982F0E942961A50194017D
:102DF0000E94726220E030E040E85AE30E94726272
:102E00002B013C01B801882777FD8095982F0E94FF
:102E10002961A50194010E94726220E030E040E83F
:102E20005AE30E9472629B01AC01C301B2010E948D
:102E3000226090589B01AC010E942360FDCD8F92CF
:102E40009F92AF92BF92CF92DF92EF92FF920F9339
:102E50001F93CF93DF9384EE91E0E5EBFFE0DF017A
:102E60009C011D9221503040E1F720E030E009E75D
:102E700041E2842E41E3942E48E9A42E44E4B42E8A
:102E800050E5C52E57E7D52E56EDE52E5DE3F52E20
:102E90004FEF5FEFBA01CFEFDFEF10E883EF96E679
:102EA000AFEDBFE3029FF001039FF00D1124EB543F
:102EB000F04F1082118212821382148285829682D0
:102EC000A782B086C186D286E386F48615861686EA
:102ED0001786108A128A118A148A138A158A168A0A
:102EE000178A108E118E138E128E448F558F668F17
:102EF000778FD1A3C0A312A386A397A3A0A7B1A73E
:102F000012AA13AA14AA15AA13AE12AEEF59FF4FB4
:102F100010821182128213822F5F3F4F23303105BE
:102F200009F680918E0F823039F185EA9FE9AFEC86
:102F3000BFE38093820290938302A0938402B093B4
:102F4000850280937E0290937F02A0938002B093CB
:102F5000810286E194E00E942E13813A11F1DF9103
:102F6000CF911F910F91FF90EF90DF90CF90BF9086
:102F7000AF909F908F90089582E79CE6ACE9BFE305
:102F80008093820290938302A0938402B09385027F
:102F900080937E0290937F02A0938002B09381027F
:102FA000DECF44E050E062E872E087E194E00E9406
:102FB000641344E050E06EE772E08BE194E0DF914F
:102FC000CF911F910F91FF90EF90DF90CF90BF9026
:102FD000AF909F908F900C9464130F931F93CF9397
:102FE000DF932BED3FE049EC50E40E946B618B01D5
:102FF000D82FC92F2BED3FE049E450E4FE01712F9B
:103000008F2F9E2F0E946E62181674F42BED3FE0F6
:1030100049EC50E4FE01602F712F8F2F9E2F0E94EC
:1030200022608B01D82FC92F2BED3FE049E450ECF3
:10303000FE01602F712F8F2F9C2F0E94876087FFCA
:103040000EC02BED3FE049EC50E4FE01602F712FE4
:103050008F2F9C2F0E9423608B01D82FC92F9E0198
:10306000602F712F832F9C2FDF91CF911F910F9194
:1030700008952F923F924F925F926F927F928F921C
:103080009F92AF92BF92CF92DF92EF92FF920F93F7
:103090001F93CF93DF93CDB7DEB728970FB6F89481
:1030A000DEBF0FBECDBF9C838B838091A002909129
:1030B000A102892B09F40DC18B819C81813091057E
:1030C00009F4A6C00CF481C004970CF07EC0809176
:1030D000910F0E94590D4B015C018091930F0E944A
:1030E000590D2B013C01C0907E02D0907F02E090F0
:1030F0008002F090810220E030E040E05FE3C70111
:10310000B6010E94726268877F831C01762F6F81EF
:10311000272F362F422D532DC501B4010E94226066
:1031200069837A838C014B015C018091A2029091AA
:10313000A3028130910509F491C1029709F467C295
:1031400020E030E04AEA53E4C501B4010E94726213
:10315000A70196010E948E60382F292F862F972F66
:10316000A32FB22FBC01CD0190582BED3FE049E4D5
:1031700050E40E94726220E030E044E353E40E9495
:103180008E6020916A1030916B1040916C105091BC
:103190006D100E94236028960FB6F894DEBF0FBE14
:1031A000CDBFDF91CF911F910F91FF90EF90DF90F6
:1031B000CF90BF90AF909F908F907F906F905F90D7
:1031C0004F903F902F900C94ED170E94690B50E0A8
:1031D00040E030E82FEB652F742F832F922F289635
:1031E0000FB6F894DEBF0FBECDBFDF91CF911F9118
:1031F0000F91FF90EF90DF90CF90BF90AF909F9096
:103200008F907F906F905F904F903F902F90089598
:1032100086E00E94590D4B015C0185E00E94590D2A
:103220002B013C01C0908202D0908302E090840286
:10323000F090850220E030E040E05FE3C701B60196
:103240000E94726268877F831C01762F6F81272F0F
:10325000362F422D532DC501B4010E94226069838F
:103260007A838C014B015C018091A0029091A102B4
:103270008130910509F455C1029709F4D9C120E0C4
:1032800030E04AEA53E4C501B4010E947262A7012A
:1032900096010E948E60382F292F862F972FA32FFB
:1032A000B22FBC01CD0190582BED3FE049E450E432
:1032B0000E94726220E030E044E353E40E948E609A
:1032C0002091F10F3091F20F4091F30F5091F40FD4
:1032D00060CF86E00E94590D6B017C0120E030E058
:1032E00040E05FE3609182027091830280918402EA
:1032F000909185020E9472629B01AC01C701B601E8
:103300000E9422601B018C012B013C0185E00E9480
:10331000590D6B017C0120E030E040E05FE36091FB
:1033200082027091830280918402909185020E94B2
:1033300072629B01AC01C701B6010E942260862E19
:10334000972EA82EB92E20E030E0A901B101C801C6
:103350000E94876087FD56C120E030E0A901C501C9
:10336000B4010E94876087FD48C1A5019401C30193
:10337000B2010E94876087FD63C082E090E0909375
:10338000A1028093A0028091910F0E94590D6B01C0
:103390007C0120E030E040E05FE360917E027091CC
:1033A0007F0280918002909181020E9472629B0153
:1033B000AC01C701B6010E9422601B018C012B01E8
:1033C0003C018091930F0E94590D6B017C0120E01C
:1033D00030E040E05FE360917E0270917F02809177
:1033E0008002909181020E9472629B01AC01C70130
:1033F000B6010E942260862E972EA82EB92E20E0BC
:1034000030E0A901B101C8010E94876087FDF0C0CA
:1034100020E030E0A901C501B4010E94876087FD6A
:10342000E2C0A5019401C301B2010E94876087FF39
:103430000EC081E090E09093A3028093A2023CCE64
:1034400081E090E09093A1028093A0029CCF82E063
:1034500090E09093A3028093A2022ECE20E030E071
:10346000A901C8010E94876087FD29C189819A81CD
:10347000D8018B839C83AD83BE832DEC3CEC4CE464
:103480005FE3B885AF816B2F7A2F822D932D0E9439
:10349000726269837A83182F092F762F6A81C80197
:1034A000272F362F492F582F6B817C818D819E814C
:1034B0000E946E6218160CF043CE82E090E090936A
:1034C000A3028093A20278856F81272F362F422D89
:1034D000532DC301B2010E9422601B018F839B8385
:1034E0002B013C0120E030E0A9010E94876087FDAC
:1034F000DAC0C101AF81BB81BC01CD01B981AA8114
:10350000F8012B2F3A2F4F2F502F0E946E62181662
:103510000CF0B2C081E090E09093A3028093A202ED
:103520000FCE20E030E0A901C8010E94876087FD2E
:10353000BEC089819A81D8018B839C83AD83BE8371
:103540002DEC3CEC4CE45FE3B885AF816B2F7A2F18
:10355000822D932D0E94726269837A83182F092F1E
:10356000762F6A81C801272F362F492F582F6B815C
:103570007C818D819E810E946E6218160CF07FCE38
:1035800082E090E09093A1028093A00278856F8101
:10359000272F362F422D532DC301B2010E942260E6
:1035A0001B018F839B832B013C0120E030E0A901AC
:1035B0000E94876087FD73C0C101AF81BB81BC01E0
:1035C000CD01B981AA81F8012B2F3A2F4F2F502F0F
:1035D0000E946E621816ECF581E090E09093A102D3
:1035E0008093A0024CCEB7FAB094B7F8B09419CF3C
:1035F00077FA709477F870940BCFB7FAB094B7F865
:10360000B094B3CE77FA709477F87094A5CE2DEC81
:103610003CEC4CE45FE3B885AF816B2F7A2F822DB1
:10362000932D0E94726269837A83182F092F4BCFE2
:103630002DEC3CEC4CE45FE3B885AF816B2F7A2F27
:10364000822D932D0E94726269837A83182F092F2D
:103650009DCF20E030E04AEA53E4C301B2010E946A
:103660007262A70196010E948E6020E030E044E380
:1036700053E40E9423600FCE20E030E04AEA53E496
:10368000C301B2010E947262A70196010E948E607E
:1036900020E030E044E353E40E9423605DCDC301A9
:1036A000B20190588ECFC301B201905827CFD501F7
:1036B000C401B0588B839C83AD83BE8341CFD501B9
:1036C000C401B0588B839C83AD83BE83D6CE20913A
:1036D0008B0E2230F9F0233019F1019729E7289F4A
:1036E000F001299FF00D1124EB54F04F82E080830C
:1036F0004183528363837483128A118A8DE491E03B
:10370000A0E0B0E0848F958FA68FB78F20E030E0E7
:10371000C90108958230910501F72FEF3FEFF8CFEF
:1037200083309105D1F6F9CF2F923F924F925F925D
:103730006F927F928F929F92AF92BF92CF92DF92C1
:10374000EF92FF920F931F93CF93DF93CDB7DEB726
:103750002C970FB6F894DEBF0FBECDBF5C012A01D7
:103760003B01680179011C0121E0221A310889E737
:10377000829DF001839DF00D1124EB54F04F8CE2FB
:103780009CEEAAECB3E485839683A783B087118669
:1037900012861386148610918B0E123009F406C11E
:1037A000133009F40BC120E030E0A901C701B601D4
:1037B0000E948760882309F4CEC089E7829DD001EA
:1037C000839DB00D1124AB54B04FBC87AB87D69608
:1037D0008D919D910D90BC91A02D8A839B83AC838C
:1037E000BD839C01AD01C301B2010E9422606983C7
:1037F000872E982E092F20E030E0A9010E948760D3
:1038000087FDACC023EC38EB42E35EE3B9816B2F5C
:10381000782D892D902F0E94876087FDADC020E014
:1038200030E0A901C701B6010E94876087FDD6C0BC
:10383000A7019601B9816B2F782D892D902F0E94B9
:103840008E6020E030E04AE754E40E9472626E83AA
:10385000A72EB82E192F20E030E0A901B9816B2FD7
:10386000782D892D902F0E946E6218160CF0E7C0FB
:10387000AB85BC85D296CD92DD92ED92FC92D59728
:1038800089E7829DF001839DF00D1124EB54F04FE8
:1038900082A993A9A4A9B5A986A797A7A0ABB1AB04
:1038A0008A819B81AC81BD81EB85FC85818392837C
:1038B000A383B483158616861786108A20E030E02D
:1038C00040E751E4BE816B2F7A2D8B2D912F0E9402
:1038D0008E605B018C016B017C0120E030E0A9016E
:1038E0000E94876087FDA5C0B501C8010E94F660EF
:1038F000CB01AA2797FDA095BA2FEB85FC85848F75
:10390000958FA68FB78F128A118A468A578A608E42
:10391000718E81E090E0938F828F83E0808320E03E
:1039200030E0C9012C960FB6F894DEBF0FBECDBFB4
:10393000DF91CF911F910F91FF90EF90DF90CF908B
:10394000BF90AF909F908F907F906F905F904F90BF
:103950003F902F90089520E030E0E3CF23EC38EB48
:1039600042E35EEBB9816B2F782D892D902F0E9459
:103970006E6218160CF053CF123059F1133021F14A
:1039800082E0AB85BC858C93FD01418252826382CB
:103990007482128A118A8DE491E0A0E0B0E0848FF5
:1039A000958FA68FB78F20E030E0BBCF32E0A31613
:1039B000B10409F0F8CE2FEF3FEFB3CF83E0A816A4
:1039C000B10409F0F0CEF7CFE3E0AE16B104C1F6D2
:1039D000F2CFB2E0AB16B10499F6EDCFD701C60134
:1039E000B0588F839887A987BA879C01AD01B981A8
:1039F0006B2F782D892D902F0E948E6020E030E073
:103A00004AE754E40E9472626E83A72EB82E192FE3
:103A100020E030E0A901B9816B2F782D892D902FFE
:103A20000E946E6218167CF4CF80D884E984FA84F0
:103A30001FCFC701B60190580E94F66059CFF7FA20
:103A4000F094F7F8F094EB85FC85C2AAD3AAE4AA17
:103A5000F5AA16CF2F923F924F925F926F927F926C
:103A60008F929F92AF92BF92CF92DF92EF92FF928E
:103A70000F931F93CF93DF93CDB7DEB72C970FB67D
:103A8000F894DEBF0FBECDBF5C012A013B01680187
:103A900079011C0121E0221A310889E7829DF00199
:103AA000839DF00D1124EB54F04F8CE29CEEAAECB8
:103AB000B3E485839683A783B08711861286138625
:103AC000148610918B0E123009F41EC1133009F4C4
:103AD00023C120E030E0A901C701B6010E94876040
:103AE000882309F4E6C089E7829DD001839DB00D4B
:103AF0001124AB54B04FBC87AB87D6968D919D9166
:103B00000D90BC91A02D8A839B83AC83BD83EB85F4
:103B1000FC8562AD73AD882777FD8095982F0E9454
:103B200029612BED3FE049EC50E40E9472629B0159
:103B3000AC016A817B818C819D810E9423609B0105
:103B4000AC01C301B2010E9422606983872E982EC6
:103B5000092F20E030E0A9010E94876087FDACC0FA
:103B600023EC38EB42E35EE3B9816B2F782D892D8E
:103B7000902F0E94876087FDADC020E030E0A90152
:103B8000C701B6010E94876087FDD6C0A7019601D4
:103B9000B9816B2F782D892D902F0E948E6020E0A7
:103BA00030E04AE754E40E9472626E83A72EB82E7A
:103BB000192F20E030E0A901B9816B2F782D892DD4
:103BC000902F0E946E6218160CF0E7C0AB85BC8582
:103BD000D296CD92DD92ED92FC92D59789E7829DA7
:103BE000F001839DF00D1124EB54F04F82A993A9AD
:103BF000A4A9B5A986A797A7A0ABB1AB8A819B81E1
:103C0000AC81BD81EB85FC8581839283A383B483E2
:103C1000158616861786108A20E030E040E751E4CA
:103C2000BE816B2F7A2D8B2D912F0E948E605B01B0
:103C30008C016B017C0120E030E0A9010E948760CB
:103C400087FDA5C0B501C8010E94F660CB01AA2777
:103C500097FDA095BA2FEB85FC85848F958FA68F55
:103C6000B78F128A118A468A578A608E718E81E0D8
:103C700090E0938F828F83E0808320E030E0C90161
:103C80002C960FB6F894DEBF0FBECDBFDF91CF915B
:103C90001F910F91FF90EF90DF90CF90BF90AF906A
:103CA0009F908F907F906F905F904F903F902F905C
:103CB000089520E030E0E3CF23EC38EB42E35EEB05
:103CC000B9816B2F782D892D902F0E946E62181666
:103CD0000CF053CF123059F1133021F182E0AB8553
:103CE000BC858C93FD014182528263827482128A68
:103CF000118A8DE491E0A0E0B0E0848F958FA68FCB
:103D0000B78F20E030E0BBCF32E0A316B10409F05A
:103D1000E0CE2FEF3FEFB3CF83E0A816B10409F058
:103D2000D8CEF7CF23E0A216B104C1F6F2CFF2E06D
:103D3000AF16B10499F6EDCFD701C601B0588F8305
:103D40009887A987BA879C01AD01B9816B2F782D1F
:103D5000892D902F0E948E6020E030E04AE754E4E5
:103D60000E9472626E83A72EB82E192F20E030E0D9
:103D7000A901B9816B2F782D892D902F0E946E6239
:103D800018167CF4CF80D884E984FA841FCFC70149
:103D9000B60190580E94F66059CFF7FAF094F7F800
:103DA000F094EB85FC85C2AAD3AAE4AAF5AA16CFA3
:103DB0002F923F924F925F926F927F928F929F923B
:103DC000AF92BF92CF92DF92EF92FF920F931F9329
:103DD000CF93DF93CDB7DEB72C970FB6F894DEBF45
:103DE0000FBECDBF5C0149835A836B837C8328015E
:103DF00039014C0181E0881A910889E7889DF0011A
:103E0000899DF00D1124EB54F04F8CE29CEEAAEC4E
:103E1000B3E485839683A783B087118612861386C1
:103E2000148610918B0E123009F4F5C0133009F48A
:103E3000FAC089E7889D1001899D300C1124E5EBBB
:103E4000FFE02E0E3F1ED101D6968D919D910D90D3
:103E5000BC91A02D8D839E83AF83B8879C01AD015B
:103E600069817A818B819C810E9422600E94ED177A
:103E70006B017C0120E030E0A9010E94876087FD92
:103E8000A0C023EC38EB42E35EE3C701B6010E9419
:103E9000876087FDA1C020E030E0A901C301B20125
:103EA0000E94876087FDC5C0A3019201C701B601CA
:103EB0000E948E6020E030E04AE754E40E94726283
:103EC000062FA72EB82E192F20E030E0A901C70138
:103ED000B6010E946E6218160CF0DDC0D101D296B8
:103EE0004D925D926D927C92D59789E7889DF00105
:103EF000899DF00D1124EB54F04F82A993A9A4A938
:103F0000B5A986A797A7A0ABB1AB8D819E81AF81E4
:103F1000B885F10181839283A383B48315861686C5
:103F20001786108A20E030E040E751E4602F7A2DB8
:103F30008B2D912F0E948E605B018C016B017C01A7
:103F400020E030E0A9010E94876087FD9DC0B50197
:103F5000C8010E94F660CB01AA2797FDA095BA2F51
:103F6000F101848F958FA68FB78F128A118A89816C
:103F70009A81AB81BC81868B978BA08FB18F81E0BA
:103F800090E0938F828F83E0808320E030E0C9014E
:103F90002C960FB6F894DEBF0FBECDBFDF91CF9148
:103FA0001F910F91FF90EF90DF90CF90BF90AF9057
:103FB0009F908F907F906F905F904F903F902F9049
:103FC000089523EC38EB42E35EEBC701B6010E9493
:103FD0006E6218160CF05FCF123009F44FC0133028
:103FE00009F463C082E0D1018C9389819A81AB810D
:103FF000BC81F10181839283A383B483128A118AE5
:104000008DE491E0A0E0B0E0848F958FA68FB78F0C
:1040100020E030E0BCCF92E0A916B10409F009CF4E
:104020002FEF3FEFB4CFA3E0AA16B10409F001CF00
:10403000F7CFD301C201B05889879A87AB87BC8775
:104040009C01AD01C701B6010E948E6020E030E006
:104050004AE754E40E947262062FA72EB82E192F49
:1040600020E030E0A901C701B6010E946E62181677
:10407000B4F449845A846B847C8430CFB2E0AB16AC
:10408000B10409F0AFCFCCCFC701B60190580E9460
:10409000F660CB0161CF77FA709477F87094F101F4
:1040A00042AA53AA64AA75AA20CFE3E0AE16B104CF
:1040B00009F098CFB5CF20918B0E223049F12330F3
:1040C00091F1019729E7289FF001299FF00D112414
:1040D000EB54F04F2081223001F1233021F02130C8
:1040E00011F080E0089529E7289FF001299FF00D45
:1040F0001124EB54F04F20E030E0A90162A973A92C
:1041000084A995A90E946E6218168CF481E0089526
:1041100082309105B1F68FEF089581899289892BBC
:10412000A9F383E008958330910559F6F4CF82E036
:1041300008956235A9F0633581F0663459F0A0988E
:10414000A19820E1829FC00111249093890080935F
:1041500088000895A09AA198F4CFA09AA19AF1CFCF
:10416000A098A19AEECF6235A9F0633581F066344C
:1041700059F0A298A59820E1829FC0011124909344
:104180008B0080938A000895A29AA598F4CFA29AF2
:10419000A59AF1CFA298A59AEECF0F931F938A010B
:1041A0009B0177FD28C0F8010F3F110519F010F0B1
:1041B000EFEFF0E08130910591F074F0049764F432
:1041C00077FD33C0452B462B472BE9F066E48E2F55
:1041D0001F910F910C94B3201F910F91089577FDBB
:1041E0001EC0452B462B472BA1F066E48E2F1F9156
:1041F0000F910C949920002711279801041B150B8F
:10420000260B370BD0CF6EE48E2F1F910F910C949D
:10421000B3206EE48E2F1F910F910C94992062E5CC
:104220008E2F1F910F910C94992062E58E2F1F9174
:104230000F910C94B320CF93DF939C01215031094F
:1042400049E7429FE001439FD00D1124CB54D04F4A
:104250001EA61FA618AA19AA4D89413061F1423045
:10426000E1F0442309F471C0433011F54881423034
:1042700009F463C0433009F470C049E7429FF0017C
:10428000439FF00D1124EB54F04F46A957A960ADA0
:1042900071ADDF91CF910C94671B20E030E0A90154
:1042A0006EA17FA188A599A50E94876081112AC06F
:1042B000DF91CF91089520E030E0A9016EA17FA1A8
:1042C00088A599A50E948760882391F383E088835D
:1042D0008FEF9FEFDC018C8F9D8FAE8FBF8F8EA9EC
:1042E0009FA9A8ADB9AD89839A83AB83BC838EA106
:1042F0009FA1A8A5B9A58AAB9BABACABBDABDF9129
:10430000CF91089583E088838FEF9FEFDC018C8F3E
:104310009D8FAE8FBF8F8EA99FA9A8ADB9AD8983A0
:104320009A83AB83BC838EA19FA1A8A5B9A5B058E1
:104330008AAB9BABACABBDABBBCF49895A89452B94
:1043400009F49BCF1C8A1B8AB3CF188240E050E04F
:10435000BA01DF91CF910C94CD2049815A816B81B4
:104360007C81DF91CF910C94671B2F923F924F92EB
:104370005F926F927F928F929F92AF92BF92CF92F5
:10438000DF92EF92FF920F931F93CF93DF93CDB7FE
:10439000DEB7AC970FB6F894DEBF0FBECDBF87EE89
:1043A0009FE09E838D8375EB472E7FE0572EE0E9DB
:1043B0006E2EE2E07E2EA7EDBFE0B88BAF87E5EF73
:1043C000FFE0F887EF83FBEE2F2EFFE03F2E85ED19
:1043D0009FE09E878D87AAECBFE0BC87AB87E2E2B7
:1043E000F0E1FC8BEB8B8AE190E19E8B8D8BA0E062
:1043F000B0E1BA87A987E3EEFFE0FA8BE98B8FEE95
:104400009FE09C838B83A2E0B0E0BA83A983812CD8
:10441000912C830138A62FA212012401BFEF4B1A61
:104420005B0A0E941D5680918B0E823009F4E9C10F
:10443000D1011596CD90DD90ED90FC90189721E27A
:1044400031E348E954E4C701B6010E94876087FF61
:104450000DC02FE33EEC42E451E4C701B6010E94D7
:104460002360F1016583768387839087D101199654
:10447000CD90DD90ED90FC901C9720E537E746ED60
:104480005DE3C701B6010E94876087FF0DC02FE181
:1044900032E449E85AE3C701B6010E942360F10102
:1044A0006187728783879487C2010E9439183B0114
:1044B0005C01862F972DAA2DBB2DEFA1F8A5808337
:1044C0009183A283B383188F0F8B8F011DC08091BE
:1044D0008E0290918F020B977CF5C2010E943918D1
:1044E0003B015C01862F972DAA2DBB2DF8018083FF
:1044F0009183A283B38380918E0290918F02019663
:1045000090938F0280938E02AF89B88DCD90DD900D
:10451000ED90FC90A7019601662D772D8A2D9B2D9D
:104520000E9422600E94ED1723EC38EB42E35EE329
:104530000E946E6218165CF2C8010F89188D98A748
:104540008FA310928F0210928E0220E030E040E2A2
:1045500050EC662D772D8A2D9B2D0E94876087FF5A
:104560000EC120E030E040E250E4C701B6010E94F5
:104570006E6218160CF003C1EB81FC818081918181
:10458000019691838083AFA1B8A56C9011967C9021
:1045900011971296AC9012971396BC90862D972D7A
:1045A000AA2DBB2DF80180839183A283B383D1010F
:1045B0008C91833009F459C308F0FEC0813009F4AE
:1045C0003CC308F067C0F101848D958DA68DB78D31
:1045D0000097A105B10509F4A6C40CF4F4C0019735
:1045E000A109B109F101848F958FA68FB78FE98159
:1045F000FA81349709F4ECC0E981FA813196FA83A3
:10460000E9838D819E8187589F4F9E838D8399E793
:10461000290E311C0C5F1F4FAF85B889A758BF4FBB
:10462000B88BAF87EF81F885E758FF4FF887EF83A6
:104630008FA198A587589F4F98A78FA3AD85BE855A
:10464000A758BF4FBE87AD87EB85FC85E758FF4F66
:10465000FC87EB878B899C8987589F4F9C8B8B8B22
:10466000AD89BE89A758BF4FBE8BAD8BE985FA8552
:10467000E758FF4FFA87E98789899A8987589F4FBA
:104680009A8B898BAB81BC81A758BF4FBC83AB830E
:104690004201C3CEF101848D958DA68DB78D009713
:1046A000A105B10509F493C19CF00197A109B109D5
:1046B000F101848F958FA68FB78FAFA1B8A56C90AD
:1046C00011967C9011971296AC9012971396BC900D
:1046D000262D372D4A2D5B2DF10161817281838159
:1046E00094810E9422600E94ED176B017C0120E002
:1046F00030E0A9010E94876087FDEBC323EC38EB13
:1047000042EB5DE3C701B6010E94876087FDECC301
:10471000D10151968D919C915297892B09F465C1D5
:1047200020E030E0A901C701B6010E94876087FD43
:10473000DEC4C701B6012091880230918902409100
:104740008A0250918B020E946E6218160CF04DC1C5
:10475000EF81F88520812F5F208330E080918602F1
:10476000909187028217930708F042C1D1011C92F1
:1047700040E050E0BA01C2010E94CD2024C020E0F8
:1047800030E040E250E4662D772D8A2D9B2D0E946B
:104790006E6218160CF002CF20E030E040E250ECE0
:1047A000C701B6010E94876087FFF8CEEB81FC81CC
:1047B000808191810197E5CE853009F482C138F17D
:1047C000863009F453C1E981FA81349709F014CF96
:1047D000AC960FB6F894DEBF0FBECDBFDF91CF9180
:1047E0001F910F91FF90EF90DF90CF90BF90AF900F
:1047F0009F908F907F906F905F904F903F902F9001
:104800000895E2E04E16510409F012CEF5CE609103
:1048100065027091660280916702909168020E9421
:10482000276120E030E04AE754E40E948E606F8BFD
:104830007B8F8F8F98A3F101EF5BFF4F608177270C
:1048400067FD7095872F972F0E94296120E030E047
:1048500040E05CE30E94726220E030E040EA50E415
:104860000E94726220E030E040E05FE30E947262EA
:104870007B01D82EC92EF9E7F89D3001F99D700C07
:1048800011248CEF9FE0680E791EAA24A394B12C0A
:104890003CA22BA21EA30DA35AA649A647017CA6A3
:1048A0006BA6B501882777FD8095982F0E94296116
:1048B0002BED3FE049EC50E40E947262BF89AB8D62
:1048C000EF8D18A12B2F3A2F4E2F512F0E9472627D
:1048D00020E030E040E251E40E948E607B018C01D8
:1048E0007F2D802F912F0E94D5621B012C01F30197
:1048F00035976081772767FD7095872F972F0E94E6
:10490000296120E030E040E05CE30E94726220E038
:1049100030E040EA50E40E947262A20191010E94DC
:104920007262F601282D392D4F2F5C2D0E942360D5
:104930001B014C019FEF691A790A6E2D7F2D802F84
:10494000912F0E948B606B017C01ABA5BCA56C9183
:10495000772767FD7095872F972F0E94296120E0A8
:1049600030E040E05CE30E94726220E030E040EA28
:1049700050E40E947262A70196010E947262222D89
:10498000332D482D592D0E9423604B01D82EC92E5E
:10499000BFEFAB1ABB0AE5E0AE16B10409F07FCF5A
:1049A0002BA03CA00DA11EA149A45AA47B019601F5
:1049B000862F9F2DA32FB22FF10181839283A38392
:1049C000B483128A118A8FEF9FEFDC0172CE818946
:1049D0009289892B09F49FC28FEF9FEFDC01F101CF
:1049E000848F958FA68FB78FEECEEF81F8851082DA
:1049F000D10115962D913D914D915C911897C7016C
:104A0000B6010E9472624B015C01F1012585368579
:104A10004785508961857285838594850E9472627D
:104A20009B01AC01C501B4010E9423600E94F660A5
:104A3000AB01BC01C2010E94CD202FE832EC45E75A
:104A40005CE3C701B6010E9472629B01AC01D10117
:104A50001D966D917D918D919C9150970E94236040
:104A6000F101658776878787908BADCEA985BA855A
:104A70002C91213009F469C2223009F40BC22111B2
:104A8000A2CE8091650290916602A0916702B091DA
:104A90006802EB89FC8940815181628173818417AE
:104AA0009507A607B70708F4AAC3F101E45BFF4F17
:104AB0008081882309F416C3E2E0A985BA85EC93C6
:104AC00082CEF101848D958DA68DB78D0097A105BD
:104AD000B10509F4D5C1181619061A061B0644F4C7
:104AE0000197A109B109F101848F958FA68FB78F26
:104AF0002FE832EC45E75CE3AD81BE816D917D919D
:104B00008D919C910E947262F101218132814381D9
:104B100054810E942360C62ED72EE82EF92ED10193
:104B20001196CD92DD92ED92FC921497EFA1F8A52B
:104B300020813181428153810E9422600E94ED17C1
:104B40006B017C01D10115962D913D914D915C91A8
:104B500018970E9472624B015C01F1012585368530
:104B60004785508961857285838594850E9472622C
:104B70009B01AC01C501B4010E9423600E94F66054
:104B8000AB01BC01C2010E94CD202FE832EC45E709
:104B90005CE3C701B6010E9472629B01AC01D101C6
:104BA0001D966D917D918D919C9150970E942360EF
:104BB000F101658776878787908B2FE832EC45E790
:104BC0005CE362A573A584A595A50E947262AD8180
:104BD000BE812D913D914D915C910E9423606B01AE
:104BE0007C0122E93AE046E850E47D2D9F2D0E94A9
:104BF0006E6218160CF439C18C2D9D2DAE2DBF2D73
:104C0000ED81FE8180839183A283B38322E93AE020
:104C100046E850EC6C2D7D2D8E2D9F2D0E948760D7
:104C200087FFD1CD82E99AE0A6E8B0ECED81FE8164
:104C300080839183A283B383C6CDAB85BC858C91E1
:104C4000882309F40FC1813009F442C2EF85F88945
:104C5000408150E0519541955109662757FD609577
:104C6000762FC2010E94CD20AECDF101848D958DAD
:104C7000A68DB78D0097A105B10509F4B5C044F024
:104C80000197A109B109F101848F958FA68FB78F84
:104C9000F101EF59FF4F80809180A280B38020E026
:104CA00030E0A901C501B4010E948760882309F49E
:104CB000E1C1A989BA898D919D910D90BC91A02DDA
:104CC0008F8B988FA98FBA8F20E030E0A901BC01AB
:104CD000CD010E94876087FDF1C28F89988DA98DD3
:104CE000BA8D8B8F9C8FAD8FBE8FAD81BE81CD90E5
:104CF000DD90ED90FC9020E030E0A901C701B60105
:104D00000E948760A701960187FDD6C26B8D7C8DBE
:104D10008D8D9E8D0E946E6218160CF046C2E98938
:104D2000FA89C082D182E282F3822FE832EC45E731
:104D30005CE3C701B6010E947262F10121813281F8
:104D4000438154810E942360C62ED72EE82EF92E6F
:104D5000D1011196CD92DD92ED92FC921497AFA104
:104D6000B8A52D913D914D915C910E9422600E94C9
:104D7000ED176B017C0120E030E0A9010E94876003
:104D80004601570187FD9FC1609188027091890299
:104D900080918A0290918B029B01AC010E9423605A
:104DA0009B01AC01C501B4010E946E62EF81F885E0
:104DB00018160CF086C120812F5F208330E080918F
:104DC0008602909187028217930708F0FCCCD101EC
:104DD0001C925B961C921E925A9740E050E0BA01DA
:104DE000C2010E94CD20EFCC81E090E0928B818BBC
:104DF000D101158616861786108AED85FE8580817D
:104E00009181892B09F455C1E2E0D101EC935A96C6
:104E10008D919C915B97892B69F056968D919D9110
:104E20000D90BC91A02DF10181839283A383B48363
:104E3000138E128EEFEFFFEFAD85BE85ED93FC93E1
:104E4000D10153968D919C915497892B09F4C4CD2F
:104E500082E490E0A0E0B0E0F101848F958FA68F0E
:104E6000B78FB1CCF1011082AECC82E99AE0A6E80E
:104E7000B0E4ED81FE8180839183A283B383A3CCD0
:104E80008FEF9FEFDC01848F958FA68FB78F23E084
:104E9000208321CE8091650290916602A0916702E5
:104EA000B0916802F101EB58FF4F4081518162815E
:104EB000738184179507A607B70708F41CC1F10191
:104EC00020838FEF9FEFDC01848F958FA68FB78FA4
:104ED0007ACC23EC38EB42EB5DEBC701B6010E94C4
:104EE0006E6218160CF014CCE1E0F0E0D10152969D
:104EF000FC93EE93519753968D919C915497892BE7
:104F000009F035CC8FEF9FEFDC01F101848F958F95
:104F1000A68FB78FFDCB108240E050E0BA01C201EE
:104F20000E94CD2050CCAD85BE858C91EB85FC8553
:104F30008083C2010E941B218FEF9FEFDC01F101F2
:104F4000848F958FA68FB78F3ECC8091650290910C
:104F50006602A0916702B0916802F101EF58FF4F1D
:104F6000408151816281738184179507A607B70735
:104F700008F0A2CD6091650270916602809167028F
:104F8000909168027101F1E5EF0EF11CAB89BC89CB
:104F90008D909D90AD90BC90681979098A099B0904
:104FA0000E94276120E030E04AE754E40E948E60CE
:104FB000ED89FE8920813181428153810E94726294
:104FC000D7012D913D914D915C910E942360C62E99
:104FD000D72EE82EF92EF101C182D282E382F4822B
:104FE000AFA1B8A52D913D914D915C910E94226099
:104FF0000E94ED176B017C01F1012581368147810B
:1050000050850E9472624B015C01D1011D962D9169
:105010003D914D915C91509719966D917D918D9137
:105020009C911C970E9472629B01AC01C501B40166
:105030000E9423600E94F660AB01BC01C2010E9485
:10504000CD202FE832EC45E75CE3C701B6010E94B2
:1050500072629B01AC01F101658576858785908937
:105060000E942360D1011D966D937D938D939C9337
:105070005097A9CB2FE832EC45E75CE3ED81FE8148
:1050800060817181828193810E947262D101119647
:105090002D913D914D915C9114970E942360C62EF5
:1050A000D72EE82EF92EF101C182D282E382F4825A
:1050B00056CE1C9240E050E0BA01C2010E94CD20C1
:1050C000B9CE108295CCB7FAB094B7F8B0945CCE54
:1050D000AF85B8894C9150E060E070E0C2010E9459
:1050E000CD2071CBE1E0A985BA85EC936CCBC701EB
:1050F000B601905820CB6091650270916602809154
:10510000670290916802F101EF58FF4FC080D18093
:10511000E280F3806C197D098E099F090E94276146
:1051200020E030E04AE754E40E948E60B62EA72EBD
:10513000982E892EF101E35AFF4F2081318142815F
:105140005381D501F4016B2F7A2F8F2F9E2F0E9450
:105150007262D501F4012B2F3A2F4F2F5E2F0E9440
:10516000726220E030E040E05FE30E9472626B0117
:105170007C01AD89BE892D913D914D915C91D50108
:10518000F4016B2F7A2F8F2F9E2F0E9472629B014A
:10519000AC01C701B6010E942360F101EB5AFF4F39
:1051A000208131814281538110CFC701B6010E9415
:1051B000CB106B017C012FE832EC45E75CE3C501C5
:1051C000B4010E947262A70196010E9472629B0163
:1051D000AC016F89788D898D9A8D0E942360C62ECF
:1051E000D72EE82EF92E462F572F682F792FA98911
:1051F000BA894D935D936D937C93139796CD60918F
:105200006502709166028091670290916802F101D7
:10521000E759FF4FC080D180E280F3806C197D098F
:105220008E099F090E94276120E030E04AE754E49C
:105230000E948E60F62EE72ED82EC92EF101E75A75
:10524000FF4F2081318142815381D701F6016B2FBD
:105250007A2F8F2F9E2F0E947262D701F6012B2F7B
:105260003A2F4F2F5E2F0E94726220E030E040E024
:105270005FE30E947262F101E35BFF4F20813181A5
:10528000428153810E942360C62ED72EE82EF92E2C
:10529000D1011196CD92DD92ED92FC921497EFA17F
:1052A000F8A520813181428153810E9422600E94B1
:1052B000ED176B017C019CCB505828CD8F89988DC0
:1052C000A98DBA8DB0588B8F9C8FAD8FBE8F0DCDB1
:1052D0001092BF021092B50F10922E101092A710CC
:1052E0006EE480E00E9499206EE480E00C94B3208C
:1052F000019729E7289FF001299FF00D1124EB5415
:10530000F04F8CE29CEEAAECB3E485839683A783EE
:10531000B087118612861386148608957F928F9225
:105320009F92AF92BF92CF92DF92EF92FF920F9334
:105330001F93CF93DF9300D000D0CDB7DEB780E1CD
:1053400090E00E942E13813A09F444C0A1EFCA2EC6
:10535000AFE0DA2EE12CF12C01E010E0C8010E9450
:105360003918DC01CB01B05889839A83AB83BC83A5
:10537000F60180839183A283B38344E050E0BE01B1
:105380006F5F7F4FC7010E943F130F5F1F4FF9E709
:10539000CF0ED11C84E0E80EF11C04301105F1F6AB
:1053A00061EA80E190E00E94001321E030E0C90151
:1053B0000F900F900F900F90DF91CF911F910F9151
:1053C000FF90EF90DF90CF90BF90AF909F908F9025
:1053D0007F900895B1EFAB2EBFE0BB2E812C912CB6
:1053E00000E010E089E7782E709EB001719E700D8C
:1053F00011246F50704F44E050E0C4010E946413C8
:10540000F501C080D180E280F38020E030E040E40C
:1054100050E4C701B6010E94876087FF0AC020E000
:1054200030E040E450ECC701B6010E946E621816ED
:105430002CF0F50110821182128213820F5F1F4F30
:10544000F4E08F0E911C89E7A80EB11C0430110501
:1054500059F620E030E0ABCF1092F10F1092F20F2E
:105460001092F30F1092F40F10926A1010926B10BA
:1054700010926C1010926D101092E3101092E410C4
:105480001092E5101092E61060EA80E190E00E9430
:1054900000130E948E2980E090E0089560918B0EA9
:1054A000E5EBFFE081E090E020E030E0623099F051
:1054B0006330A9F04081442321F041895289452B72
:1054C000A9F08330910571F02F5F3F4F0196E758A7
:1054D000FF4F623069F72130310561F7F5CF223097
:1054E000310541F720E030E0C901089521E030E0C6
:1054F000FBCF2F923F924F925F926F927F928F924B
:105500009F92AF92BF92CF92DF92EF92FF920F9352
:105510001F93CF93DF93CDB7DEB76C970FB6F89498
:10552000DEBF0FBECDBF3C011A012B0109831A83D8
:105530002B833C8320E030E0A901C201B1010E942D
:10554000876087FDEBC320E030E0A90169817A81A3
:105550008B819C810E94876087FDD6C320E030E06C
:10556000A901C701B6010E94876087FDC8C3C301B6
:1055700001979A87898789E7A985BA858A9F8001DB
:105580008B9F100D11240B54104FF80126A937A939
:1055900040AD51ADC501B4010E942260862EB72EE8
:1055A000982EA92E862F9B2DA92DBA2D8D839E83F3
:1055B000AF83B887A2019101C701B6010E948E6036
:1055C0006B877C878D879E8729813A814B815C819F
:1055D000C701B6010E948E606D8B7E8B8F8B988F7A
:1055E000D80152961C921E92519720E030E0A901FA
:1055F000682D7B2D892D9A2D0E94876087FD8FC194
:105600007B856C859D858E85272F362F492F582FBA
:10561000C701B6010E94726220E030E040E05FE323
:105620000E9472626F87788B682E998B7D896E8954
:105630009F89888D272F362F492F582FC701B601F4
:105640000E94726220E030E040E05FE30E947262FC
:105650006A8B772E8B8B9C8B762F982F8C89272F9C
:10566000372D492F582FBF85A889E9896B2F7A2FAD
:10567000862D9E2F0E9423609B01AC01682D7B2DFF
:10568000892D9A2D0E94876087FF98C1882D9B2DB8
:10569000A92DBA2D898F9A8FAB8FBC8FA201910152
:1056A000C201B1010E9423609B01AC0160E070E087
:1056B00080E89FE30E948E604B015C0129813A8162
:1056C0004B815C81CA01B9010E9423609B01AC013E
:1056D00060E070E080E89FE30E948E609B01AC0177
:1056E000C501B4010E9423609B01AC01698D7A8DD4
:1056F0008B8D9C8D0E948E600E94DF626B017C010D
:10570000A20191010E948E60B62EA72E982E892E9E
:1057100029813A814B815C81C701B6010E948E606C
:10572000762E672E8B879C8789E7A985BA858A9F05
:1057300080018B9F100D11240B54104FF80112AAF9
:1057400013AA14AA15AAE55BFF4F10826D817E8112
:105750008F8198850E94CB1098012B593F4F3A8733
:105760002987A70196010E947262A985BA856D9367
:105770007D938D939C9313976D817E818F81988506
:105780000E94CB109B01AC017801B9E5EB0EF11C36
:10579000C201B1010E947262F7016083718382834A
:1057A00093836D817E818F8198850E94CB109B01B0
:1057B000AC017801FDE5EF0EF11C69817A818B81E6
:1057C0009C810E947262DC01CB01B058F70180839A
:1057D0009183A283B38386E0D8018C938FEF9FEFF0
:1057E000DC01F801848F958FA68FB78FE45BFF4FA4
:1057F00081E08083F80186A997A9A0ADB1AD81832E
:105800009283A383B483E35BFF4F80839183A2835E
:10581000B3838091650290916602A0916702B09176
:105820006802F801E759FF4F80839183A283B38315
:1058300020E030E04AE754E4D501F4016B2F7A2FE1
:105840008F2F9E2F0E9472625B016C016091650236
:105850007091660280916702909168027801FDE67E
:10586000EF0EF11C0E9427619B01AC016A2D7B2D7C
:105870008C2D9D2D0E9423600E94FB60D7016D93AB
:105880007D938D939C9313972090650230906602D0
:1058900040906702509068020B581F4F20E030E0A4
:1058A0004AE754E4D301FB85EC856B2F7A2F8F2FC9
:1058B0009E2F0E9472629B01AC016A2D7B2D8C2D64
:1058C0009D2D0E9423606B017C01C201B1010E94E9
:1058D00027619B01AC01C701B6010E9423600E94B1
:1058E000FB60F80160837183828393836C960FB6AB
:1058F000F894DEBF0FBECDBFDF91CF911F910F9106
:10590000FF90EF90DF90CF90BF90AF909F908F90DF
:105910007F906F905F904F903F902F9008956D8192
:105920007E818F8198859058698F7A8F8B8F9C8F1D
:105930007B856C859D858E85272F362F492F582F87
:10594000C701B6010E94726220E030E040E05FE3F0
:105950000E9472626F87788B682E998B7D896E8921
:105960009F89888D272F362F492F582FC701B601C1
:105970000E94726220E030E040E05FE30E947262C9
:105980006A8B772E8B8B9C8B762F982F8C89272F69
:10599000372D492F582FBF85A889E9896B2F7A2F7A
:1059A000862D9E2F0E9423609B01AC01698D7A8D0C
:1059B0008B8D9C8D0E94876087FD70CE89E729853D
:1059C0003A85829F5001839FB00C112465EB7FE0E4
:1059D000A60EB71ED501D2961D921D921D921C9245
:1059E000D597F501E55BFF4F10826D817E818F8138
:1059F00098850E94CB109B01AC0185010B591F4F6C
:105A0000C701B6010E947262F801608371838283CC
:105A100093836D817E818F8198850E94CB109B013D
:105A2000AC018501075A1F4FC201B1010E94726289
:105A3000D8016D937D938D939C9313976D817E8197
:105A40008F8198850E94CB109B01AC018501035A80
:105A50001F4F69817A818B819C810E947262DC0177
:105A6000CB01B058F80180839183A283B38386E091
:105A7000D5018C938FEF9FEFDC01F501848F958F1B
:105A8000A68FB78FE45BFF4F1082F50186A997A917
:105A9000A0ADB1AD81839283A383B4838501035B01
:105AA0001F4FF80180839183A283B3836D817E8130
:105AB0008F8198850E94CB109B01AC01F1E5AF0E60
:105AC000B11CC201B1010E947262BB85AC85FD852B
:105AD000EE852B2F3A2F4F2F5E2F0E947262BB85CF
