:100000000C9482010C94A1010C94A1010C94A10107
:100010000C94A1010C94A1010C94A1010C94A101D8
:100020000C94A1010C9460020C94A1010C94A10108
:100030000C94A1010C94A1010C94A1010C94A101B8
:100040000C94A1010C94A1010C94A1010C94A101A8
:100050000C94A1010C94A1010C94A1010C94A10198
:100060000C94A1010C94A1010C94A1010C94A10188
:100070000C94A1010C948D130C94A1010C94A1017A
:100080000C94A1010C94A1010C94A1010C94A10168
:100090000C94473E0C94A1010C94A1010C9426529F
:1000A0000C94A1010C94A1010C94EC5B0C94FD5BED
:1000B0000C94A1010C94A1010C94A1010C941E0AB2
:1000C0000C94A1010C94A1010C94A1010C94A10128
:1000D0000C94A1010C94A1010C94A1010C94A10118
:1000E0000C94A1010C94A1010C94A1010C94A10108
:1000F0000C94255D0C94A1010C94A1010C94F95C65
:100100000C94A1010C94A1010C94A1010C94A101E7
:100110000C94A1010C94A1010C94A1010C94A101D7
:1001200014483F40E747094852479347A147C4470F
:10013000D441FE411E4256428B42D3421C433B43B4
:100140005A43794385439343B643E343EA43EF433A
:10015000A73F3941514166418A41AB41B541B74161
:10016000C74126493B49A73F46496849C249E44936
:10017000FD49134A4F454347FF46394742406940CE
:10018000C646CB463D485C4831407A48214A2E4A13
:100190003D4A5B4A9B48AE48D348D748DE48A73F14
:1001A000A73FA73FA73FA73FA73FA73FEF48094962
:1001B00017495A455D457D45FC450D462346434656
:1001C000A846D346E03FA73F174021488140A140C1
:1001D000AF401F41F543094424443D445F442D454D
:1001E0007444074505A84CCDB2D44EB93836A9029F
:1001F0000C50B9918688083CA6AAAA2ABE00000025
:10020000803F6E616E00696E660000407A10F35A9E
:1002100000A0724E18090010A5D4E80000E8764846
:10022000170000E40B54020000CA9A3B000000E1F2
:10023000F505000080969800000040420F00000085
:10024000A08601000000102700000000E803000065
:1002500000006400000000000A000000000001002F
:10026000000000002C76D888DC674F0823DFC1DF50
:10027000AE59E1B1B796E5E3E453C63AE651997653
:1002800096E8E6C28426EB898C9B62ED407C6FFC8D
:10029000EFBC9C9F40F2BAA56FA5F490055A2AF7CF
:1002A0005C936B6CF9676DC11BFCE0E40D47FEF5D8
:1002B00020E6B500D0ED902E030094357705008040
:1002C000841E080000204E0A000000C80C3333339F
:1002D000330F986E12831141EF8D2114893BE6553F
:1002E00016CFFEE6DB18D1844B381BF77C1D901D22
:1002F000A4BBE424203284725E228100C9F124EC84
:10030000A1E53D2711241FBECFEFD1E4DEBFCDBF55
:1003100013E0A0E0B2E0ECEFFEED00E00BBF02C0A6
:1003200007900D92A039B107D9F716E3A0E9B3E021
:1003300001C01D92A43DB107E1F70E94CD0F0C94BE
:100340007C6F0C94000081E080930B028091080B7D
:1003500086FF04C08091080B87FDADC08091080B1B
:1003600086FF28C08091B0029091B102892B19F1CB
:100370008091AD02811129C00E941D2C1092B10202
:100380001092B0021092AF021092AE021092AD0223
:1003900081E00E94AB0B1092C7021092C60210922D
:1003A000C5021092C4021092C3024FEF60E080E0D9
:1003B0000C94440A089583E00E94AB0B0E94190A32
:1003C000892B09F476C00C949C070E94523B80ED67
:1003D0008093E12B8EE08093E22B8091B00290918C
:1003E000B1029093E32B8091B0029091B10280937F
:1003F000E42B1092E52B86E78093E62B88E0809330
:10040000E72B1092E82B1092E92B1092EA2B109216
:10041000EB2B8FEF8093EC2B1092ED2B82E18093EE
:10042000EE2B6091E22B20E04FEF5FEF81EE9BE23D
:100430000E94E0506091E22B20E04FEF5FEF81EEF1
:100440009BE20E94E0506091E22B20E04FEF5FEFD3
:1004500081EE9BE20E94E0506091E22B20E04FEFA2
:100460005FEF81EE9BE20E94E0506091E22B20E082
:100470004FEF5FEF81EE9BE20E94E0506091E22B34
:1004800020E04FEF5FEF81EE9BE20E94E050109280
:1004900030121092B20280E090E0FC01EE0FFF1FDC
:1004A000EF59F44D11821082019680349105A9F71D
:1004B00063CF0C94EC060E94E12C83E00C94AB0B10
:1004C0001F920F920FB60F9211240F900FBE0F9034
:1004D0001F9018950E94FE058091B0029091B10284
:1004E000892B31F08091C6029091C7020E94103C86
:1004F0000C94833BCF93DF93CDB7DEB729970FB62C
:10050000F894DEBF0FBECDBF0E94FE058091B00201
:100510009091B102892B21F08091AD0281111EC012
:100520008091C302813009F443C0833009F440C094
:100530008091B0029091B102892B29F08091AD0297
:10054000882309F465C00E941C3D29960FB6F894D3
:10055000DEBF0FBECDBFDF91CF9108958091C6025F
:100560009091C702892B09F04DC08091B20290E0B2
:10057000019663E070E00E94AD6B8093B2028091BF
:10058000B202813009F455C008F045C08091C6021E
:100590009091C702892B21F60E941D2C0E94523B8C
:1005A0004FEF60E080E00E94440A10923012CDCFFD
:1005B00082E08093C3028091B0029091B102892BB6
:1005C000F1F080ED898389E08A838091B002909177
:1005D000B1029B838091B0029091B1028C831D8205
:1005E0008DE48E8383E08F83188682E1898720E003
:1005F0004FEF5FEF69E0CE0101960E94E0500E944C
:100600001D2CA3CF8091B202882309F489CFADCFEE
:100610000E945B3D9ACF823009F082CF0E941D2C50
:100620004FEF6FEF80E00E94440A89E08093301220
:100630008CCF0E94523B40E06FEF80E00E94440A62
:1006400087E08093301281CF80ED97E0A0E0B0E0AA
:1006500080930E0B90930F0BA093100BB093110B84
:1006600081E080930D0B83EA91E09093130B8093CC
:10067000120B8DE09BE00C9465518DE09BE00C9497
:1006800031518F929F92AF92BF92CF92DF92EF92B1
:10069000FF920F931F93CF93DF93CDB7DEB72C97C5
:1006A0000FB6F894DEBF0FBECDBFE62EE8269091C0
:1006B0005F029923E1F1E6FA442740F9E7FC62C0C2
:1006C000E5FC446066FD55C030E021E067FD55C0A3
:1006D000226065FF55C0346080E289838AE08A83A6
:1006E0008091650290916602A0916702B0916802C4
:1006F0008B839C83AD83BE834F83388729871A867B
:10070000CE0101960E94F7102C960FB6F894DEBF2A
:100710000FBECDBFDF91CF911F910F91FF90EF9052
:10072000DF90CF90BF90AF909F908F9008956623F9
:10073000B9F090910B029111E7CFE6FC27C020E0C1
:1007400030E0E7FC39C0E5FE2CC065FD2AC086FD1F
:100750002CC085FD5BC087FFD7CF0E947A02D4CF23
:1007600090910B02992329F310920B0210920A0226
:10077000CBCF31E020E067FFABCF326065FDABCF80
:100780002460AACF4260E5FE9DCF9BCF6C878B870C
:1007900066FF19C00E94240320E030E06C858B8541
:1007A000D0CF232B09F4B0CFD2CF87FD49C085FD30
:1007B0002DC00E946A02A8CF67FD0CC010920A02E9
:1007C00021E030E0C0CF0E943D0321E030E06C85A5
:1007D0008B85B7CF91E090930A028090650290904C
:1007E0006602A0906702B09068028092090B909216
:1007F0000A0BA0920B0BB0920C0B909130129150FF
:10080000923008F0A0CF109230129DCF0E94FE05CA
:100810008091690290916A02892B49F04FEF60E064
:1008200080E00E94440A10926A02109269021092BB
:10083000C7021092C6021092C5021092C40264CF81
:1008400081E06C870E94AB0B0E948D3D6C85662316
:1008500019F081E080930B0280910D10811126C068
:1008600080919010811122C08091131181111EC0BE
:1008700037E4C32E30E1D32EE12CF12CF6011182A6
:100880001082FFEFEF1AFF0A0BED1FE029EC3FE3A8
:1008900040E050E0BA01C7010E942C1D83E8C80E59
:1008A000D11CE3E0EE16F10449F72ECF0E941D2C77
:1008B0002BCFCF938091650290916602A091670241
:1008C000B091680240910C0250910D0260910E02AD
:1008D00070910F02841B950BA60BB70B4997A105CE
:1008E000B105F0F0C9B1C095C07EC093080B8091EE
:1008F00010028C17A9F06C2F0E94410380916502B1
:1009000090916602A0916702B091680280930C02F8
:1009100090930D02A0930E02B0930F02C0931002A9
:10092000CF9108951092B100249808950C949204E8
:10093000CF93DF9382E48093B000A3EBB0E082EB2F
:100940008C93E1EBF0E085E080832FEF32E597E0D8
:10095000215030409040E1F700C000001082CFE10C
:10096000DEE42197F1F700C0000095E89C938083B6
:10097000DFEF22E537E0D15020403040E1F700C002
:1009800000001082249881E080939C0E84E690E021
:10099000A0E0B0E080939D0E90939E0EA0939F0EDA
:1009A000B093A00E86E994E09093A20E8093A10EDE
:1009B000DF91CF9108959C01009709F18A3F91053D
:1009C00078F085E08093B10064E274EF80E090E01D
:1009D000249A40E050E00E94E36B2093B300089516
:1009E00087E08093B10064E87EE180E090E0249AA3
:1009F00040E050E00E94E36B2093B30008950C9414
:100A00009204CF93DF93C82FCF7082958F7009F136
:100A100061E090E0660F9F5F9813FCCF70E0D0E03C
:100A2000CC0FDD1FCC0FDD1FCF5EDD4F882777FD9C
:100A30008095982F0E94AF65288139814A815B811A
:100A40000E94F8660E948165CB01DF91CF910C94E2
:100A5000DB0461E070E0E3CF0F931F93CF93DF934C
:100A600000D0CDB7DEB70E949204009142021091EF
:100A700043020115110509F480C080914402909150
:100A80004502801791070CF05EC03091AB0E20E05C
:100A9000880F991F820F931F45960E9430130E9462
:100AA00001053091AB0E20E0809144029091450207
:100AB000880F991F820F931F44960E9430138093D2
:100AC000950340914402509145024F5F5F4F509310
:100AD00045024093440260914202709143026417C0
:100AE000750794F40E948E6D8A830E948E6D8983AF
:100AF0000E948E6D4A8169810F900F90DF91CF9196
:100B00001F910F910C94440A1092AC0E282F30E0E4
:100B100040E050E0609191037091920380919303C3
:100B2000909194030E94C16B2093AD0E3093AE0E52
:100B30004093AF0E5093B00E8CE295E09093B20EBE
:100B40008093B10ECFCF81E08093AC0E109245021E
:100B50001092440210924302109242020E949204A8
:100B6000109241024FEF60E080E00F900F90DF9114
:100B7000CF911F910F910C94440A9091AB0E80E09D
:100B800042960E943013809390039091AB0E80E0C8
:100B900043960E943013082F10E0109343020093F5
:100BA00042022091900330E040E050E060E879EAB2
:100BB00083E090E00E94C16B2093910330939203F5
:100BC000409393035093940358CF91E09093410244
:100BD0009093AC0E1092AD0E1092AE0E1092AF0E1E
:100BE0001092B00E2CE235E03093B20E2093B10E8D
:100BF0008093AB0E8CEA9EE00C94655186EE90E0FB
:100C00000E94DB048CE99EE00C9465510F931F93C6
:100C10008091650290916602A0916702B09168028E
:100C20008093CA0E9093CB0EA093CC0EB093CD0EB2
:100C30001092BB0E84EF91E0A0E0B0E08093BC0E78
:100C40009093BD0EA093BE0EB093BF0E8BED97E0B8
:100C50009093C10E8093C00E8BEB9EE00E94655175
:100C60000BED1FE029EC3FE340E050E0BA0181E0EA
:100C700090E00E942C1D0BED1FE029EC3FE340E0CB
:100C800050E0BA0182E090E00E942C1D0BED1FE0C5
:100C900029EC3FE340E050E0BA0183E090E00E949D
:100CA0002C1D81E090E090934A02809349021F91AD
:100CB0000F9108958091E30E8230B9F180911E105A
:100CC00090911F10892BB9F18091A1109091A210E1
:100CD000892B89F10E941D2C41E05FEF6FEF7FEFC0
:100CE00081E090E00E94D52041E05FEF6FEF7FEF61
:100CF00082E090E00E94D52081E08093BB0E88E8DE
:100D000093E1A0E0B0E08093BC0E9093BD0EA09361
:100D1000BE0EB093BF0E87EC98E09093C10E809307
:100D2000C00E8BEB9EE00C94655180911E1090914B
:100D30001F10892B09F40895809124119091251199
:100D4000892B41F608958091E30E8230B9F18091AC
:100D50001E1090911F10892BB9F18091A1109091D4
:100D6000A210892B89F10E941D2C4FEF50E060E00A
:100D700070E081E090E00E94D5204FEF50E060E00D
:100D800070E082E090E00E94D52081E08093BB0E6D
:100D900088E893E1A0E0B0E08093BC0E9093BD0E94
:100DA000A093BE0EB093BF0E8AE599E09093C10E5A
:100DB0008093C00E8BEB9EE00C94655180911E10C9
:100DC00090911F10892B09F408958091241190911E
:100DD0002511892B41F608950F931F9381E090E030
:100DE000909348028093470290934A02809349026D
:100DF0008091650290916602A0916702B0916802AD
:100E00008093CA0E9093CB0EA093CC0EB093CD0ED0
:100E100010924810109247101092CB101092CA10E6
:100E200010924E1110924D110BED1FE029EC3FE393
:100E300040E050E0BA0181E090E00E942C1D0BEDF3
:100E40001FE029EC3FE340E050E0BA0182E090E08F
:100E50000E942C1D0BED1FE029EC3FE340E050E029
:100E6000BA0183E090E00E942C1D1092BB0E84EF2B
:100E700091E0A0E0B0E08093BC0E9093BD0EA093F3
:100E8000BE0EB093BF0E8BED97E09093C10E809392
:100E9000C00E8BEB9EE01F910F910C9465510F9348
:100EA0001F9381E090E09093480280934702109254
:100EB0004810109247101092CB101092CA10109246
:100EC0004E1110924D110BED1FE029EC3FE340E075
:100ED00050E0BA010E942C1D0BED1FE029EC3FE30E
:100EE00040E050E0BA0182E090E00E942C1D0BED42
:100EF0001FE029EC3FE340E050E0BA0183E090E0DE
:100F00000E942C1D1092BB0E84EF91E0A0E0B0E097
:100F10008093BC0E9093BD0EA093BE0EB093BF0EF7
:100F200083EA96E09093C10E8093C00E8BEB9EE017
:100F30001F910F910C946551109248021092470234
:100F40008BEB9EE00E9431510E941D2C4FEF60E020
:100F500080E00E94440A83EC98EBA2EBBEE380930E
:100F6000880290938902A0938A02B0938B0284E650
:100F700090E09093870280938602089540E060E0BD
:100F80008FEF0E94440A2FEF81EE94E021508040C1
:100F90009040E1F700C0000040E060E080E00E9487
:100FA000440A2FEF81EE94E0215080409040E1F719
:100FB00000C00000E3CF0F931F93CF93DF93809186
:100FC000650290916602A0916702B091680240911B
:100FD000CA0E5091CB0E6091CC0E7091CD0E841B39
:100FE000950BA60BB70B81349747AB41B10508F0C1
:100FF00091C08091E30E823009F472C080911E107E
:1010000090911F10892B09F453C08091A1109091E9
:10101000A210892B09F450C080914602813009F456
:101020008CC00BED1FE029EC3FE34BED5FE069E482
:1010300071E481E090E00E942C1D0BED1FE029EC93
:101040003FE34BED5FE069E471E482E090E00E94F1
:101050002C1D0BED1FE029EC3FE34BED5FE069E455
:1010600071E483E090E00E942C1D81E080934602B1
:101070000E948E6D8C010E948E6DEC010E948E6D1F
:10108000FC012FEF30E0C801B9010E94AD6B482F81
:10109000CE01B9010E94AD6BC82FCF01B9010E94EA
:1010A000AD6B6C2FDF91CF911F910F910C94440A7F
:1010B00080910D10882351F0809190108111D8CF2C
:1010C0008091A1109091A210892B91F680914902F4
:1010D00090914A02892B61F60E941D2C0E94BE0746
:1010E00080911E1090911F10892B09F44AC08091A5
:1010F000241190912511892B09F08ECF8091131125
:101100008111B6CF8091241190912511892B09F07E
:10111000AFCFDCCF81E08093BB0E40E06FEF80E08B
:101120000E94440A0E941D2C10924802109247020D
:10113000DF91CF911F910F9108950BED1FE029ECE6
:101140003FE340E050E0BA0181E090E00E942C1DB6
:101150000BED1FE029EC3FE340E050E0BA0182E0F4
:1011600090E00E942C1D0BED1FE029EC3FE340E0D6
:1011700050E0BA0183E090E00E942C1D10924602DC
:1011800077CF80910D10882309F4A0CFB7CFEF92CD
:10119000FF920F931F93CF93DF93CDB7DEB72C97BA
:1011A0000FB6F894DEBF0FBECDBF0E941D2C03E426
:1011B00010E1EE24E394F12CEC0EFD1EF8016481A5
:1011C0007581882777FD8095982F0E94AF652BED5C
:1011D0003FE049EC50E40E94F8669B01AC01F80145
:1011E00060817181828193810E94A964F70161937A
:1011F0007193819391937F010D571F4FF1E10C3C47
:101200001F07E1F68091E30E28E530EA4BE851EC48
:101210008230D1F169817A818B819C810E94F46650
:1012200018160CF445C028E530EA4BE851EC6D8106
:101230007E818F8198850E94F4661816CCF181E03A
:101240008093BB0E88EE93E0A0E0B0E08093BC0EEC
:101250009093BD0EA093BE0EB093BF0E86E096E0B5
:101260009093C10E8093C00E8BEB9EE02C960FB630
:10127000F894DEBF0FBECDBFDF91CF911F910F91CC
:10128000FF90EF900C94655169817A818B819C81EC
:101290000E94F466181664F028E530EA4BE851EC39
:1012A00069857A858B859C850E94F46618163CF6C4
:1012B0000E94BE07EF92FF920F931F93CF93DF938D
:1012C000CDB7DEB72C970FB6F894DEBF0FBECDBFFB
:1012D0000E941D2C03E410E1EE24E394F12CEC0EAB
:1012E000FD1EF80164817581882777FD8095982F10
:1012F0000E94AF652BED3FE049EC50E40E94F86698
:101300009B01AC01F80160817181828193810E940F
:10131000A964F70161937193819391937F010D57B4
:101320001F4FF1E10C3C1F07E1F68091E30E28E529
:1013300030EA4BE851E4823009F465C069817A8172
:101340008B819C810E940D6587FD71C028E530EA84
:101350004BE851E46D817E818F8198850E940D65F7
:1013600087FD65C010924810109247101092CB1064
:101370001092CA1010924E1110924D110BED1FE0F9
:1013800029EC3FE340E050E0BA0181E090E00E94A8
:101390002C1D0BED1FE029EC3FE340E050E0BA01CB
:1013A00082E090E00E942C1D0BED1FE029EC3FE352
:1013B00040E050E0BA0183E090E00E942C1D1092C2
:1013C000BB0E84EF91E0A0E0B0E08093BC0E909360
:1013D000BD0EA093BE0EB093BF0E8AE596E090932B
:1013E000C10E8093C00E8BEB9EE02C960FB6F89446
:1013F000DEBF0FBECDBFDF91CF911F910F91FF9048
:10140000EF900C94655169817A818B819C810E9457
:101410000D6587FD0CC028E530EA4BE851E469858D
:101420007A858B859C850E940D6587FF9BCF0E94E6
:10143000BE07809147029091480208951F920F9233
:101440000FB60F9211248F939F93AF93BF93809108
:10145000650290916602A0916702B09168020196C0
:10146000A11DB11D8093650290936602A09367024F
:10147000B0936802BF91AF919F918F910F900FBE73
:101480000F901F901895089590E1899F9001112465
:10149000309399002093980090E1699F9001112466
:1014A00030939D0020939C0090E1499F900111246E
:1014B00030939B0020939A008093E00E6093E10E9E
:1014C0004093E20E08958091CE0E9091CF0E019739
:1014D0009093CF0E8093CE0E181619061CF081E063
:1014E0008093ED0F4091E20E40586091E10E6058FC
:1014F0008091E00E80580C94440A20E1829FC00144
:101500001124909399008093980080E1689FB00126
:10151000112470939D0060939C0020E1429FA001E4
:10152000112450939B0040939A000895CF93DF932A
:101530008091B0029091B102892B59F18091AD0256
:10154000882339F1C0916F02D09170029E01A9E801
:10155000B8E80E948D6B9695879596958795969598
:1015600087954FE0489F9001499F300D1124CE018F
:10157000821B930B039780F440912B1260912A12E7
:10158000809129120E947D0A2196D0937002C09307
:101590006F02DF91CF9108954091E20E6091E10ECC
:1015A0008091E00E0E947D0AEFCF4091E20E6091A3
:1015B000E10E8091E00E0C947D0A0F93CF93DF93A0
:1015C00000D01F92CDB7DEB781E08B8302E09E0191
:1015D0002F5F3F4F41E0BE016D5F7F4F8CE10E9466
:1015E00017540E944554998180E09093DD0E8093BA
:1015F000DC0E8091DC0E9091DD0E2A81822B90937F
:10160000DD0E8093DC0E83E08B839E012F5F3F4FC6
:1016100041E0BE016D5F7F4F8CE10E9417540E9434
:101620004554998180E09093E50F8093E40F809179
:10163000E40F9091E50F2A81822B9093E50F809320
:10164000E40F85E08B839E012F5F3F4F41E0BE0199
:101650006D5F7F4F8CE10E9417540E944554998121
:1016600080E090930B1080930A1080910A10909163
:101670000B102A81822B90930B1080930A1080E02C
:101680000F900F900F90DF91CF910F910895CF930E
:10169000C82F8823F1F040E06FEF80E00E94440AF9
:1016A0002FEF81EE94E0215080409040E1F700C0A0
:1016B000000040E060E08FEF0E94440A2FEF81EECF
:1016C00094E0215080409040E1F700C00000C150FC
:1016D00011F7CF91089585E00C94470B0F93CF93AA
:1016E000DF9300D000D0CDB7DEB78DE08C8301E072
:1016F0009E012D5F3F4F41E0BE016C5F7F4F8CE14B
:101700000E9417540E944554892B09F58B818A3217
:1017100019F084E10E94470B8AE2898389E18A8378
:1017200042E0BE016F5F7F4F8CE10E94DB530E945D
:101730004554892B19F084E10E94470B80E00F90FB
:101740000F900F900F90DF91CF910F91089584E14A
:101750000E94470BDBCF2091CE0E3091CF0E121698
:1017600013060CF4089590E0880F991F9093CF0E04
:101770008093CE0E1092ED0F84E690E0A0E0B0E0F2
:101780008093EE0F9093EF0FA093F00FB093F10FB3
:1017900083E69AE09093F30F8093F20F8DEE9FE033
:1017A0000C9465512091CE0E3091CF0E1216130677
:1017B0000CF4089590E0880F991F9093CF0E8093BA
:1017C000CE0E1092ED0F4093EE0F5093EF0F6093FB
:1017D000F00F7093F10F83E69AE09093F30F8093EC
:1017E000F20F8DEE9FE00C9465510E947D0A81E01E
:1017F0008093960384E690E0A0E0B0E080939703A6
:1018000090939803A0939903B0939A0385ED9AE07F
:1018100090939C0380939B0386E993E00C9465511D
:101820009AE0909377009091E60F923021F1909199
:101830007C00907C90937C0090917C00906C9093C5
:101840007C0090917C00982B90937C0080917A0092
:10185000876C80937A0080917A0086FDFCCF20917E
:10186000780030917900932F937080E0AC01422B87
:101870009A01C901089510927C0090917C00982BE8
:1018800090937C00E3CFCF93DF9380E294E00E94BB
:1018900030138093E60F81E294E00E94301380932E
:1018A000E70F82E294E00E9430138093E80F2091CA
:1018B000E60F223009F45BC08DEC9CECACECBFE38E
:1018C0008093051090930610A0930710B093081012
:1018D000819A89982FEF31EE84E02150304080408A
:1018E000E1F700C0000082E00E94100CEC0181983A
:1018F000829A8A989FEF21EE34E091502040304048
:10190000E1F700C0000081E00E94100C8298C4360C
:10191000D105ACF082E08093E30E83E08093DF0E8C
:1019200082E090E09093EA0F8093E90F81E090E0ED
:101930009093EC0F8093EB0FDF91CF910895843655
:10194000910544F783E08093E30E82E08093DF0EFD
:1019500084E090E09093EA0F8093E90F83E090E0B9
:101960009093EC0F8093EB0FDF91CF91089580E07F
:1019700090E0A0EABFE38093051090930610A09337
:101980000710B09308106A98729A3FEF80E792E0D0
:10199000315080409040E1F700C00000629B03C0DE
:1019A0002093E30EBACF83E08093E30E2093DF0E03
:1019B00084E090E09093EA0F8093E90F83E090E059
:1019C0009093EC0F8093EB0FDF91CF910895E1E6B8
:1019D000F0E080E880831082F89480EF84B98BB1C6
:1019E000806E8BB9E8E6F0E0808181608083EBE671
:1019F000F0E0808182608083808184608083808148
:101A0000886080838FB780688FBF88E18AB98BB187
:101A100083608BB98FE78DB98FE383BB0E94430C42
:101A20003AEA3093800029E1209381008FEF9FE014
:101A300090938700809386003093900020939100CC
:101A400090939700809396001092250110922401A4
:101A5000E3E7F0E0808182608083E1E2F1E0808171
:101A60008C6080838EE390E090932901809328011D
:101A7000909327018093260184B7877F84BFE0E697
:101A8000F0E0808188618083108280EC80937C000C
:101A900010927B008FEE80937A000E942117789439
:101AA0000895E82FF0E0EE0FFF1FE75EFD4E208166
:101AB0003181C90108950E94510DBC0180E090E080
:101AC0000E94AD65209105103091061040910710DD
:101AD000509108100E94F86620E030E040E85AE398
:101AE0000E94F866089580E00E94510DBC0180E0DC
:101AF00090E00E94AD652091051030910610409154
:101B00000710509108100E94F86620E030E040E88D
:101B10005AE30E94F8662EE63BED46EB5EE30E9438
:101B200014650895CF93DF93CDB7DEB72C970FB62A
:101B3000F894DEBF0FBECDBF69877A878B879C87FD
:101B40008091650290916602A0916702B09168024F
:101B500089839A83AB83BC8329813A814B815C81E1
:101B600089859A85AB85BC85820F931FA41FB51FFD
:101B70008D839E83AF83B8870000209165023091EA
:101B8000660240916702509168028D819E81AF810B
:101B9000B88582179307A407B50778F72C960FB678
:101BA000F894DEBF0FBECDBFDF91CF910895809135
:101BB0006000886180936000809160008D608093F8
:101BC0006000FFCF4F925F926F927F92AF92BF9271
:101BD000CF92DF92EF92FF920F931F93CF93DF93F9
:101BE000CDB7DEB76E970FB6F894DEBF0FBECDBF90
:101BF0000E94DD0A6091DC0E7091DD0E882777FD72
:101C00008095982F0E94AF6520E030E040E858E3CF
:101C10000E94F8662B013C016091E40F7091E50F82
:101C2000882777FD8095982F0E94AF6520E030E0EF
:101C300040E858E30E94F8666B017C0160910A104D
:101C400070910B10882777FD8095982F0E94AF65C3
:101C500020E030E040E858E30E94F8665B018C0128
:101C6000242D352D462D572D642D752D862D972D20
:101C70000E94F8662B013C012C2D3D2D4E2D5F2D31
:101C80006C2D7D2D8E2D9F2D0E94F8669B01AC0141
:101C9000C301B2010E94A9646B017C012A2D3B2D76
:101CA000402F512F6A2D7B2D802F912F0E94F86697
:101CB0009B01AC01C701B6010E94A9640E9465673F
:101CC0007B018C018091650290916602A091670270
:101CD000B09168024091A5035091A6036091A703BB
:101CE0007091A803841B950BA60BB70B8B3F910536
:101CF000A105B10508F0C7C0A090A903B090AA0340
:101D0000C090AB03D090AC032E2D3F2D402F512F10
:101D10006A2D7B2D8C2D9D2D0E94A8645B016C018A
:101D200020E030E0A9017B2D9D2D0E940D6587FDEF
:101D300027C12AE939E949E15FE36A2D7B2D8C2D22
:101D40009D2D0E94F46618160CF06CC010920A02C9
:101D500040E06FEF80E00E94F50BBB24B394B0929B
:101D60000B028091B0029091B102892B09F0AAC0B8
:101D7000809130128111A6C0809165029091660217
:101D8000A0916702B0916802809331129093321251
:101D9000A0933312B0933412809165029091660241
:101DA000A0916702B09168020E94926D4090650216
:101DB0005090660260906702709068020E948E6D7B
:101DC0006C01C301B2010E94AD652B013C01B6015B
:101DD000882777FD8095982F0E94AF6520E03EEF21
:101DE0004FEF56E40E94146520E030E44CE954E4DF
:101DF0000E94F8669B01AC01C301B2010E94A96474
:101E000020E030E04AE753E40E94A9640E94816523
:101E10006093351270933612809337129093381274
:101E2000B09230128E2D9F2DA02FB12F8093A90339
:101E30009093AA03A093AB03B093AC038091650287
:101E400090916602A0916702B09168028093A50309
:101E50009093A603A093A703B093A8036E960FB622
:101E6000F894DEBF0FBECDBFDF91CF911F910F91D0
:101E7000FF90EF90DF90CF90BF90AF907F906F90EA
:101E80005F904F9008958E2D9F2DA02FB12F80939E
:101E9000A9039093AA03A093AB03B093AC038091E2
:101EA000650290916602A0916702B09168028093EA
:101EB000A5039093A603A093A703B093A80357018B
:101EC000680122CF809130128111ACCF80916502E0
:101ED00090916602A0916702B091680240916B02F6
:101EE00050916C0260916D0270916E02841B950B93
:101EF000A60BB70B843F9140A105B10508F4AECF06
:101F000083ED89838EE08A831B821C821D821E8260
:101F10008091B0029091B1029F838091B002909124
:101F2000B102888780912912898780912A128A8735
:101F300080912B128B878091AE029091AF029C878B
:101F40008091AE029091AF028D8782E18E8720E072
:101F50004FEF5FEF6EE0CE0101960E94E05080915E
:101F6000650290916602A0916702B0916802809329
:101F70006B0290936C02A0936D02B0936E0252CFED
:101F80002AE939E949E15FEB6A2D7B2D8C2D9D2DE6
:101F90000E940D6587FF46CFD9CECF93DF93CDB793
:101FA000DEB7AD970FB6F894DEBF0FBECDBF0E946F
:101FB000193E0E94E70C0E94CF530E946E0B8823AB
:101FC00021F08AE00E94470BFCCF0E9498040E94F7
:101FD000624D0E9488328091600290916102A091CE
:101FE0006202B09163028A279B270E94926D0E9431
:101FF000432C1F8E8FE090E0A0E0B0E088A399A36F
:10200000AAA3BBA381EC91E29DA38CA3CE014F9622
:102010000E946551188A84E690E0A0E0B0E0898BC8
:102020009A8BAB8BBC8B86E99AE09E8B8D8BCE0115
:1020300040960E946551198280E091E0A0E0B0E0F6
:102040008A839B83AC83BD838AEC9DE39F838E83CD
:10205000CE0101960E9465514FEF60E080E00E9442
:10206000440A4E9B0E944F070E94A35A0E94ED51C2
:102070000E94A35A0E94D73E0E9451540E94A35A24
:102080000E94C54D0E9459040E94A35A0E944434E4
:1020900080910A0281117EC08091490290914A028A
:1020A000892B11F38091470290914802892BE1F22C
:1020B0008091650290916602A0916702B0916802DA
:1020C0004091CA0E5091CB0E6091CC0E7091CD0E06
:1020D000841B950BA60BB70B81339547A105B10562
:1020E00018F20E94FE0510924A0210924902809155
:1020F000E60F823009F4B8CF20E030E04AEA53E43A
:1021000060917A0270917B0280917C0290917D02B5
:102110000E94F86620E030E044EB53E40E9414652E
:10212000609382027093830280938402909385026D
:1021300020E030E04AEA53E4609176027091770241
:1021400080917802909179020E94F86620E030E058
:1021500044EB53E40E94146560937E0270937F0207
:10216000809380029093810244E050E062E872E044
:1021700087E194E00E94411344E050E06EE772E092
:102180008BE194E00E94411361EA86E194E00E94B1
:1021900002136ACF0E94E20D7FCFCF92DF92EF92BF
:1021A000FF926B017C0120E030E0A9010E940D65E7
:1021B00087FD1AC020E030E0A901C701B6010E94E6
:1021C000F466181674F490E88FE350E040E09C0148
:1021D000652F742F832F922FFF90EF90DF90CF9079
:1021E000089590E080E0F1CF90E88FEBEECF209162
:1021F000690230916A02232B59F0409103105091EB
:1022000004102091690230916A024217530721F5A8
:102210002091DD024091031050910410FC01618176
:1022200021110EC021E070E00E94293FFC01418194
:1022300020E030E050E0BC018AEC93E10C941E6495
:1022400021E070E00E94293FFC014181BC0182E055
:102250000E94DB530C9445544091690250916A02EC
:1022600021E0FC0161810C94E0503F924F925F921B
:102270006F927F928F929F92AF92BF92CF92DF9296
:10228000EF92FF920F931F93CF93DF93CDB7DEB7FB
:1022900060970FB6F894DEBF0FBECDBF03E410E128
:1022A000EE24E394F12CEC0EFD1E6701F80164812D
:1022B0007581882777FD8095982F0E94AF652BED5B
:1022C0003FE049EC50E40E94F8669B01AC01F80144
:1022D00060817181828193810E94A964F60161937A
:1022E0007193819391936F010D571F4FF2E10F345A
:1022F0001F07E1F68091DF0E882309F4D6C0312C48
:1023000000E010E088248394912C80915D0290E09D
:10231000002E02C0959587950A94E2F780FF4BC086
:10232000F70140805180628073806801CC0CDD1C15
:10233000CC0CDD1C80EDA82E8EE0B82EAC0CBD1CA4
:10234000F5012081318142815381C301B2010E9494
:10235000A86420E030E0A9010E940D65F50120810C
:1023600031814281538187FD9AC0C301B2010E942D
:10237000A864472F382F292F862F942FA32FB22FF1
:10238000BC01CD01F601E35BFD4F2081318142812B
:1023900053810E94F466181674F4C401002E01C023
:1023A000880F0A94EAF7382AF601E053F14F408289
:1023B0005182628273820F5F1F4F8091DF0EF4E0C3
:1023C000EF0EF11C90E0081719070CF49ECF332094
:1023D00009F46BC084E28093E12B88E18093E22BC7
:1023E0008091650290916602A0916702B0916802A7
:1023F0008093E32B9093E42BA093E52BB093E62BF3
:1024000089819A81AB81BC818093E72B9093E82BE3
:10241000A093E92BB093EA2B8D819E81AF81B88583
:102420008093EB2B9093EC2BA093ED2BB093EE2BA2
:1024300089859A85AB85BC858093EF2B9093F02B93
:10244000A093F12BB093F22B8D859E85AF85B88933
:102450008093F32B9093F42BA093F52BB093F62B52
:102460003092F72B1092F82B81EE9BE260960FB61C
:10247000F894DEBF0FBECDBFDF91CF911F910F91BA
:10248000FF90EF90DF90CF90BF90AF909F908F9094
:102490007F906F905F904F903F900C94F710C30126
:1024A000B2010E94A86490586DCF60960FB6F89460
:1024B000DEBF0FBECDBFDF91CF911F910F91FF9077
:1024C000EF90DF90CF90BF90AF909F908F907F90D4
:1024D0006F905F904F903F900895EF92FF920F930F
:1024E0001F93CF93DF9300D000D000D0CDB7DEB7DD
:1024F0000E94DD0A0091DC0E1091DD0E1A83098323
:102500006091E40F7091E50F7C836B8340910A101A
:1025100050910B105E834D83FE01319680E090E078
:1025200020915E0230E0082E02C0359527950A946E
:10253000E2F720FF15C0DC01AA0FBB1FA350B04F6C
:102540002D913C911197ED90FC90A0914B02B09190
:102550004C02208131812E193F09A217B30790F058
:102560000196329683309105D9F626960FB6F894E7
:10257000DEBF0FBECDBFDF91CF911F910F91FF90B6
:10258000EF9008951093FE0F0093FD0F70930010CD
:102590006093FF0F509302104093011085E28093E7
:1025A000E12B8DE08093E22B809165029091660291
:1025B000A0916702B09168028093E32B9093E42B83
:1025C000A093E52BB093E62B1093E72B0093E82B19
:1025D0007093E92B6093EA2B5093EB2B4093EC2BF9
:1025E0001092ED2B81EE9BE226960FB6F894DEBF9B
:1025F0000FBECDBFDF91CF911F910F91FF90EF9054
:102600000C94F710E0917102E11103C0F894E0918D
:1026100071027FEF54E144E2F999FECF2AE030E005
:10262000000021503109E1F792BD81BD70BD5FBB53
:10263000F99AF999FECF2AE030E0000021503109E3
:10264000E1F760BD4FBBF99AF999FECF92BD81BD0C
:10265000F89A20B56213E0CFE11101C07894089593
:1026600020917102211103C0F89420917102F9990F
:10267000FECF92BD81BDF89A211101C0789480B53A
:102680000895EF92FF920F931F93CF93DF938C01E6
:10269000F89481E080937102141615066CF4EB0136
:1026A0007B01E40EF51E6991C8010E9402130F5FC1
:1026B0001F4FCE15DF05B9F7109271027894DF91A4
:1026C000CF911F910F91FF90EF900895EF92FF929D
:1026D0000F931F93CF93DF93F89421E0209371021F
:1026E0001416150684F4EB017B01E40EF51E8C0133
:1026F000061B170BC8018C0F9D1F0E943013899376
:10270000CE15DF05B9F7109271027894DF91CF9161
:102710001F910F91FF90EF9008951F920F920FB6A7
:102720000F9211240BB60F922F923F924F925F920D
:102730006F927F928F929F92AF92BF92CF92DF92D1
:10274000EF92FF920F931F932F933F934F935F93BB
:102750006F937F938F939F93AF93BF93EF93FF9369
:10276000CF93DF9300D000D0CDB7DEB780918C023D
:102770008F5F80938C02833008F463C010928C02C8
:1027800040918D02E42FF0E08091780090E0EE0F10
:10279000FF1FE75EFD4E9183808380819181509180
:1027A0007900352F337020E0822B932B9183808327
:1027B0008091490290914A02892B41F08091470211
:1027C00090914802892B11F04730F1F14F5F40930F
:1027D0008D02483008F08CC280917C00807E80930E
:1027E0007C0080917C0090918D02892B80937C00ED
:1027F0000F900F900F900F90DF91CF91FF91EF917D
:10280000BF91AF919F918F917F916F915F914F9108
:102810003F912F911F910F91FF90EF90DF90CF90FC
:10282000BF90AF909F908F907F906F905F904F90F0
:102830003F902F900F900BBE0F900FBE0F901F90E8
:1028400018958111D5CF9CCF6091251270912612D9
:102850008090051090900610A0900710B09008107E
:10286000882777FD8095982F0E94AF65A501940178
:102870000E94F86620E030E040E85AE30E94F866E3
:1028800023E333E343E35FE30E94A8648B017C010D
:1028900020E030E0A901712F9F2D0E940D6587FD7A
:1028A0002AC22DEC3CEC4CE45EE3602F712F8E2DA0
:1028B0009F2D0E940D6587FDEBC0609123127091E2
:1028C0002412882777FD8095982F0E94AF659B0181
:1028D000AC01C501B4010E94F86620E030E040E898
:1028E0005AE30E94F86623E333E343E35FE30E9485
:1028F000A864F62EE72E182F092F20E030E0A9015A
:10290000D701F8016B2F7A2F8F2F9E2F0E940D6514
:1029100087FD1BC22DEC3CEC4CE45EE3D701F801D3
:102920006B2F7E2D8F2F902F0E940D6587FDB0C0DD
:102930002090740230907502B101882777FD809550
:10294000982F0E94AF6520917A0230917B024091CE
:102950007C0250917D020E94F866F62EE72ED82E5A
:10296000C92E6091251270912612009123121091A8
:102970002412882777FD8095982F0E94AF65A501C6
:1029800094010E94F86620E030E040E85AE30E949B
:10299000F8662B013C01B801882777FD8095982FB8
:1029A0000E94AF65A50194010E94F86620E030E026
:1029B00040E85AE30E94F8669B01AC01C301B201F2
:1029C0000E94A86420E030E0A9010E940D6587FD07
:1029D00001C260912512709126120091231210916C
:1029E0002412882777FD8095982F0E94AF65A50156
:1029F00094010E94F86620E030E040E85AE30E942B
:102A0000F8662B013C01B801882777FD8095982F47
:102A10000E94AF65A50194010E94F86620E030E0B5
:102A200040E85AE30E94F8669B01AC01C301B20181
:102A30000E94A8649B01AC010E94A9642FEF221A96
:102A4000320A262F372F482F592FD701F6016B2F27
:102A50007E2D8F2F9C2D0E94A9646B017C01B101FA
:102A6000882777FD8095982F0E94AF659B01AC0168
:102A7000C701B6010E94146560937A0270937B02CD
:102A800080937C0290937D023092750220927402B2
:102A90000091E90F1091EA0F000F111FF801E75E96
:102AA000FD4E60817181882777FD8095982F0E9467
:102AB000AF659B01AC01C501B4010E94F86620E03E
:102AC00030E040E85AE30E94F86623E333E343E34F
:102AD0005FE30E94A8647B016C0120E030E0A90163
:102AE0007F2D9D2D0E940D6587FD13C12DEC3CECC3
:102AF0004CE45EE36E2D7F2D8C2D9D2D0E940D6587
:102B000087FDF6C0E090EB0FF090EC0FEE0CFF1C91
:102B1000F701E75EFD4E60817181882777FD809522
:102B2000982F0E94AF659B01AC01C501B4010E94C2
:102B3000F86620E030E040E85AE30E94F86623E3BC
:102B400033E343E35FE30E94A864762E672ED82E1A
:102B5000C92E20E030E0A901D301F6016B2F7A2FB6
:102B60008F2F9E2F0E940D6587FDE0C02DEC3CEC61
:102B70004CE45EE3D301F6016B2F762D8F2F9C2D55
:102B80000E940D6587FDB4C02091720230917302DE
:102B90003C832B83B901882777FD8095982F0E946D
:102BA000AF65209176023091770240917802509182
:102BB00079020E94F86669837A833C01075E1D4EA4
:102BC000F8016081718129E132E1E20EF31EF70123
:102BD000C080D180882777FD8095982F0E94AF65AF
:102BE000A50194010E94F86620E030E040E85AE335
:102BF0000E94F8661B012C01B601882777FD80959D
:102C0000982F0E94AF65A50194010E94F86620E00C
:102C100030E040E85AE30E94F8669B01AC01C20133
:102C2000B1010E94A86420E030E0A9010E940D6576
:102C300087FD9BC0F80160817181F70100811181DE
:102C4000882777FD8095982F0E94AF65A501940194
:102C50000E94F86620E030E040E85AE30E94F866FF
:102C60006B017C01B801882777FD8095982F0E9421
:102C7000AF65A50194010E94F86620E030E040E8CD
:102C80005AE30E94F8669B01AC01C701B6010E949D
:102C9000A8649B01AC010E94A9640B811C810F5F99
:102CA0001F4F262F372F482F592FB981AA816B2FFD
:102CB0007A2F862D972D0E94A9646B017C01B801A3
:102CC000882777FD8095982F0E94AF659B01AC0106
:102CD000C701B6010E941465609376027093770273
:102CE000809378029093790210937302009372029A
:102CF00010928D0271CD2DEC3CEC4CE45EEB602F1C
:102D0000712F8E2D9F2D0E94F46618160CF4C0CEE4
:102D1000D4CD2DEC3CEC4CE45EEB6E2D7F2D8C2D58
:102D20009D2D0E94F46618161CF3ECCE2DEC3CECA5
:102D30004CE45EEBD301F6016B2F762D8F2F9C2D8B
:102D40000E94F4661816A4F21FCF2DEC3CEC4CE464
:102D50005EEBD701F8016B2F7E2D8F2F902F0E94F5
:102D6000F46618160CF494CEE3CDF80160817181FD
:102D7000F70100811181882777FD8095982F0E94A7
:102D8000AF65A50194010E94F86620E030E040E8BC
:102D90005AE30E94F8666B017C01B801882777FD31
:102DA0008095982F0E94AF65A50194010E94F86656
:102DB00020E030E040E85AE30E94F8669B01AC0155
:102DC000C701B6010E94A86490589B01AC010E9403
:102DD000A96463CF6091251270912612009123128D
:102DE00010912412882777FD8095982F0E94AF6557
:102DF000A50194010E94F86620E030E040E85AE323
:102E00000E94F8662B013C01B801882777FD809568
:102E1000982F0E94AF65A50194010E94F86620E0FA
:102E200030E040E85AE30E94F8669B01AC01C30120
:102E3000B2010E94A86490589B01AC010E94A96451
:102E4000FDCD8F929F92AF92BF92CF92DF92EF9281
:102E5000FF920F931F93CF93DF938CE092E0EDE00E
:102E6000F0E1DF019C011D9221503040E1F720E0AC
:102E700030E003E841E2842E41E3942E48E9A42E99
:102E800044E4B42E50E5C52E57E7D52E56EDE52E79
:102E90005DE3F52E4FEF5FEFBA01CFEFDFEF10E804
:102EA00083EF96E6AFEDBFE3029FF001039FF00DC5
:102EB0001124E35FFF4E108211821282138214826A
:102EC00085829682A782B086C186D286E386F48602
:102ED000158616861786108A128A118A148A138A12
:102EE000158A168A178A108E118E138E128E448FB1
:102EF000558F668F778FD1A3C0A312A386A397A304
:102F0000A0A7B1A712AA13AA14AA15AA13AE12AEAB
:102F1000EF59FF4F10821182128213822F5F3F4FB1
:102F20002330310509F68091E60F823039F185EAC8
:102F30009FE9AFECBFE38093820290938302A0935A
:102F40008402B093850280937E0290937F02A093C7
:102F50008002B093810286E194E00E943013813AAE
:102F600011F1DF91CF911F910F91FF90EF90DF90C2
:102F7000CF90BF90AF909F908F90089582E79CE68E
:102F8000ACE9BFE38093820290938302A093840212
:102F9000B093850280937E0290937F02A09380027B
:102FA000B0938102DECF44E050E062E872E087E156
:102FB00094E00E94661344E050E06EE772E08BE11B
:102FC00094E0DF91CF911F910F91FF90EF90DF90F0
:102FD000CF90BF90AF909F908F900C9466130F93FB
:102FE0001F93CF93DF932BED3FE049EC50E40E9419
:102FF000F1658B01D82FC92F2BED3FE049E450E458
:10300000FE01712F8F2F9E2F0E94F466181674F404
:103010002BED3FE049EC50E4FE01602F712F8F2F24
:103020009E2F0E94A8648B01D82FC92F2BED3FE063
:1030300049E450ECFE01602F712F8F2F9C2F0E94CE
:103040000D6587FF0EC02BED3FE049EC50E4FE011B
:10305000602F712F8F2F9C2F0E94A9648B01D82F76
:10306000C92F9E01602F712F832F9C2FDF91CF914D
:103070001F910F9108952F923F924F925F926F92FE
:103080007F928F929F92AF92BF92CF92DF92EF92F8
:10309000FF920F931F93CF93DF93CDB7DEB728979F
:1030A0000FB6F894DEBF0FBECDBF9C838B8380919B
:1030B000A4029091A502892B09F40DC18B819C81FA
:1030C0008130910509F4A6C00CF481C004970CF07E
:1030D0007EC08091E90F0E945B0D4B015C018091E5
:1030E000EB0F0E945B0D2B013C01C0907E02D09043
:1030F0007F02E0908002F090810220E030E040E02A
:103100005FE3C701B6010E94F86668877F831C01F0
:10311000762F6F81272F362F422D532DC501B401F5
:103120000E94A86469837A838C014B015C018091C1
:10313000A6029091A7028130910509F491C10297EE
:1031400009F467C220E030E04AEA53E4C501B40163
:103150000E94F866A70196010E941465382F292F56
:10316000862F972FA32FB22FBC01CD0190582BEDA6
:103170003FE049E450E40E94F86620E030E044E398
:1031800053E40E9414652091CC103091CD104091F1
:10319000CE105091CF100E94A96428960FB6F894D3
:1031A000DEBF0FBECDBFDF91CF911F910F91FF907A
:1031B000EF90DF90CF90BF90AF909F908F907F90D7
:1031C0006F905F904F903F902F900C94EF170E945C
:1031D0006B0B50E040E030E82FEB652F742F832F0E
:1031E000922F28960FB6F894DEBF0FBECDBFDF91A9
:1031F000CF911F910F91FF90EF90DF90CF90BF90F4
:10320000AF909F908F907F906F905F904F903F9086
:103210002F90089586E00E945B0D4B015C0185E0D4
:103220000E945B0D2B013C01C0908202D090830272
:10323000E0908402F090850220E030E040E05FE31F
:10324000C701B6010E94F86668877F831C01762F4C
:103250006F81272F362F422D532DC501B4010E94B7
:10326000A86469837A838C014B015C018091A4027C
:103270009091A5028130910509F455C1029709F496
:10328000D9C120E030E04AEA53E4C501B4010E940C
:10329000F866A70196010E941465382F292F862F02
:1032A000972FA32FB22FBC01CD0190582BED3FE0FB
:1032B00049E450E40E94F86620E030E044E353E43F
:1032C0000E9414652091491030914A1040914B1092
:1032D00050914C1060CF86E00E945B0D6B017C0129
:1032E00020E030E040E05FE3609182027091830271
:1032F00080918402909185020E94F8669B01AC0146
:10330000C701B6010E94A8641B018C012B013C017E
:1033100085E00E945B0D6B017C0120E030E040E025
:103320005FE36091820270918302809184029091A8
:1033300085020E94F8669B01AC01C701B6010E949C
:10334000A864862E972EA82EB92E20E030E0A90181
:10335000B101C8010E940D6587FD56C120E030E033
:10336000A901C501B4010E940D6587FD48C1A501F1
:103370009401C301B2010E940D6587FD63C082E024
:1033800090E09093A5028093A4028091E90F0E949F
:103390005B0D6B017C0120E030E040E05FE3609179
:1033A0007E0270917F0280918002909181020E9442
:1033B000F8669B01AC01C701B6010E94A8641B011D
:1033C0008C012B013C018091EB0F0E945B0D6B0186
:1033D0007C0120E030E040E05FE360917E0270918C
:1033E0007F0280918002909181020E94F8669B0189
:1033F000AC01C701B6010E94A864862E972EA82EA4
:10340000B92E20E030E0A901B101C8010E940D658C
:1034100087FDF0C020E030E0A901C501B4010E94A1
:103420000D6587FDE2C0A5019401C301B2010E94B0
:103430000D6587FF0EC081E090E09093A702809316
:10344000A6023CCE81E090E09093A5028093A40276
:103450009CCF82E090E09093A7028093A6022ECEAC
:1034600020E030E0A901C8010E940D6587FD29C157
:1034700089819A81D8018B839C83AD83BE832DEC97
:103480003CEC4CE45FE3B885AF816B2F7A2F822D43
:10349000932D0E94F86669837A83182F092F762F5F
:1034A0006A81C801272F362F492F582F6B817C81C5
:1034B0008D819E810E94F46618160CF043CE82E046
:1034C00090E09093A7028093A60278856F81272FC2
:1034D000362F422D532DC301B2010E94A8641B0157
:1034E0008F839B832B013C0120E030E0A9010E94E7
:1034F0000D6587FDDAC0C101AF81BB81BC01CD0183
:10350000B981AA81F8012B2F3A2F4F2F502F0E94FB
:10351000F46618160CF0B2C081E090E09093A70218
:103520008093A6020FCE20E030E0A901C8010E94DE
:103530000D6587FDBEC089819A81D8018B839C83EC
:10354000AD83BE832DEC3CEC4CE45FE3B885AF81EA
:103550006B2F7A2F822D932D0E94F86669837A83D0
:10356000182F092F762F6A81C801272F362F492F50
:10357000582F6B817C818D819E810E94F466181684
:103580000CF07FCE82E090E09093A5028093A4029D
:1035900078856F81272F362F422D532DC301B2011D
:1035A0000E94A8641B018F839B832B013C0120E0B8
:1035B00030E0A9010E940D6587FD73C0C101AF8194
:1035C000BB81BC01CD01B981AA81F8012B2F3A2F13
:1035D0004F2F502F0E94F4661816ECF581E090E012
:1035E0009093A5028093A4024CCEB7FAB094B7F89A
:1035F000B09419CF77FA709477F870940BCFB7FA2C
:10360000B094B7F8B094B3CE77FA709477F870941A
:10361000A5CE2DEC3CEC4CE45FE3B885AF816B2F7D
:103620007A2F822D932D0E94F86669837A83182F52
:10363000092F4BCF2DEC3CEC4CE45FE3B885AF8118
:103640006B2F7A2F822D932D0E94F86669837A83DF
:10365000182F092F9DCF20E030E04AEA53E4C30140
:10366000B2010E94F866A70196010E94146520E04D
:1036700030E044E353E40E94A9640FCE20E030E040
:103680004AEA53E4C301B2010E94F866A701960119
:103690000E94146520E030E044E353E40E94A964F2
:1036A0005DCDC301B20190588ECFC301B2019058D5
:1036B00027CFD501C401B0588B839C83AD83BE83D3
:1036C00041CFD501C401B0588B839C83AD83BE83A9
:1036D000D6CE2091E30E2230F9F0233019F1019774
:1036E00023E8289FF001299FF00D1124E35FFF4E8E
:1036F00082E080834183528363837483128A118AB8
:103700008DE491E0A0E0B0E0848F958FA68FB78F15
:1037100020E030E0C90108958230910501F72FEFD4
:103720003FEFF8CF83309105D1F6F9CF2F923F923A
:103730004F925F926F927F928F929F92AF92BF92C1
:10374000CF92DF92EF92FF920F931F93CF93DF936D
:10375000CDB7DEB72C970FB6F894DEBF0FBECDBF46
:103760005C012A013B01680179011C0121E0221A58
:10377000310883E8829DF001839DF00D1124E35F01
:10378000FF4E8CE29CEEAAECB3E485839683A7837C
:10379000B08711861286138614861091E30E1230BC
:1037A00009F406C1133009F40BC120E030E0A9018F
:1037B000C701B6010E940D65882309F4CEC083E8D5
:1037C000829DD001839DB00D1124A35FBF4EBC87A5
:1037D000AB87D6968D919D910D90BC91A02D8A833B
:1037E0009B83AC83BD839C01AD01C301B2010E94E8
:1037F000A8646983872E982E092F20E030E0A90164
:103800000E940D6587FDACC023EC38EB42E35EE31C
:10381000B9816B2F782D892D902F0E940D6587FD22
:10382000ADC020E030E0A901C701B6010E940D65DE
:1038300087FDD6C0A7019601B9816B2F782D892D00
:10384000902F0E94146520E030E04AE754E40E9483
:10385000F8666E83A72EB82E192F20E030E0A9015C
:10386000B9816B2F782D892D902F0E94F466181640
:103870000CF0E7C0AB85BC85D296CD92DD92ED927F
:10388000FC92D59783E8829DF001839DF00D112471
:10389000E35FFF4E82A993A9A4A9B5A986A797A71C
:1038A000A0ABB1AB8A819B81AC81BD81EB85FC85EE
:1038B00081839283A383B483158616861786108A24
:1038C00020E030E040E751E4BE816B2F7A2D8B2D54
:1038D000912F0E9414655B018C016B017C0120E03B
:1038E00030E0A9010E940D6587FDA5C0B501C801A2
:1038F0000E947C65CB01AA2797FDA095BA2FEB8586
:10390000FC85848F958FA68FB78F128A118A468A7D
:10391000578A608E718E81E090E0938F828F83E072
:10392000808320E030E0C9012C960FB6F894DEBF0A
:103930000FBECDBFDF91CF911F910F91FF90EF9000
:10394000DF90CF90BF90AF909F908F907F906F90BF
:103950005F904F903F902F90089520E030E0E3CFAC
:1039600023EC38EB42E35EEBB9816B2F782D892D88
:10397000902F0E94F46618160CF053CF123059F1B4
:10398000133021F182E0AB85BC858C93FD0141822F
:10399000528263827482128A118A8DE491E0A0E0DF
:1039A000B0E0848F958FA68FB78F20E030E0BBCF3B
:1039B00032E0A316B10409F0F8CE2FEF3FEFB3CFFA
:1039C00083E0A816B10409F0F0CEF7CFE3E0AE161D
:1039D000B104C1F6F2CFB2E0AB16B10499F6EDCF67
:1039E000D701C601B0588F839887A987BA879C01F1
:1039F000AD01B9816B2F782D892D902F0E94146510
:103A000020E030E04AE754E40E94F8666E83A72E77
:103A1000B82E192F20E030E0A901B9816B2F782D45
:103A2000892D902F0E94F46618167CF4CF80D884DC
:103A3000E984FA841FCFC701B60190580E947C65C3
:103A400059CFF7FAF094F7F8F094EB85FC85C2AA09
:103A5000D3AAE4AAF5AA16CF2F923F924F925F9273
:103A60006F927F928F929F92AF92BF92CF92DF928E
:103A7000EF92FF920F931F93CF93DF93CDB7DEB7F3
:103A80002C970FB6F894DEBF0FBECDBF5C012A01A4
:103A90003B01680179011C0121E0221A310883E809
:103AA000829DF001839DF00D1124E35FFF4E8CE2B7
:103AB0009CEEAAECB3E485839683A783B087118636
:103AC0001286138614861091E30E123009F41EC17B
:103AD000133009F423C120E030E0A901C701B60189
:103AE0000E940D65882309F4E6C083E8829DD00119
:103AF000839DB00D1124A35FBF4EBC87AB87D696C4
:103B00008D919D910D90BC91A02D8A839B83AC8358
:103B1000BD83EB85FC8562AD73AD882777FD80950D
:103B2000982F0E94AF652BED3FE049EC50E40E94D6
:103B3000F8669B01AC016A817B818C819D810E942A
:103B4000A9649B01AC01C301B2010E94A86469830E
:103B5000872E982E092F20E030E0A9010E940D65E4
:103B600087FDACC023EC38EB42E35EE3B9816B2FF9
:103B7000782D892D902F0E940D6587FDADC020E026
:103B800030E0A901C701B6010E940D6587FDD6C0CE
:103B9000A7019601B9816B2F782D892D902F0E9456
:103BA000146520E030E04AE754E40E94F8666E8332
:103BB000A72EB82E192F20E030E0A901B9816B2F74
:103BC000782D892D902F0E94F46618160CF0E7C00E
:103BD000AB85BC85D296CD92DD92ED92FC92D597C5
:103BE00083E8829DF001839DF00D1124E35FFF4E79
:103BF00082A993A9A4A9B5A986A797A7A0ABB1ABA1
:103C00008A819B81AC81BD81EB85FC858183928318
:103C1000A383B483158616861786108A20E030E0C9
:103C200040E751E4BE816B2F7A2D8B2D912F0E949E
:103C300014655B018C016B017C0120E030E0A9017F
:103C40000E940D6587FDA5C0B501C8010E947C6575
:103C5000CB01AA2797FDA095BA2FEB85FC85848F11
:103C6000958FA68FB78F128A118A468A578A608EDF
:103C7000718E81E090E0938F828F83E0808320E0DB
:103C800030E0C9012C960FB6F894DEBF0FBECDBF51
:103C9000DF91CF911F910F91FF90EF90DF90CF9028
:103CA000BF90AF909F908F907F906F905F904F905C
:103CB0003F902F90089520E030E0E3CF23EC38EBE5
:103CC00042E35EEBB9816B2F782D892D902F0E94F6
:103CD000F46618160CF053CF123059F1133021F15D
:103CE00082E0AB85BC858C93FD0141825282638268
:103CF0007482128A118A8DE491E0A0E0B0E0848F92
:103D0000958FA68FB78F20E030E0BBCF32E0A316AF
:103D1000B10409F0E0CE2FEF3FEFB3CF83E0A81658
:103D2000B10409F0D8CEF7CF23E0A216B104C1F652
:103D3000F2CFF2E0AF16B10499F6EDCFD701C6018C
:103D4000B0588F839887A987BA879C01AD01B98144
:103D50006B2F782D892D902F0E94146520E030E084
:103D60004AE754E40E94F8666E83A72EB82E192FF6
:103D700020E030E0A901B9816B2F782D892D902F9B
:103D80000E94F46618167CF4CF80D884E984FA8403
:103D90001FCFC701B60190580E947C6559CFF7FA32
:103DA000F094F7F8F094EB85FC85C2AAD3AAE4AAB4
:103DB000F5AA16CF2F923F924F925F926F927F9209
:103DC0008F929F92AF92BF92CF92DF92EF92FF922B
:103DD0000F931F93CF93DF93CDB7DEB72C970FB61A
:103DE000F894DEBF0FBECDBF5C0149835A836B835D
:103DF0007C83280139014C0181E0881A910883E80D
:103E0000889DF001899DF00D1124E35FFF4E8CE247
:103E10009CEEAAECB3E485839683A783B0871186D2
:103E20001286138614861091E30E123009F4F5C041
:103E3000133009F4FAC083E8889D1001899D300C85
:103E40001124EDE0F0E12E0E3F1ED101D6968D91AA
:103E50009D910D90BC91A02D8D839E83AF83B887DB
:103E60009C01AD0169817A818B819C810E94A8644B
:103E70000E94EF176B017C0120E030E0A9010E9455
:103E80000D6587FDA0C023EC38EB42E35EE3C7017C
:103E9000B6010E940D6587FDA1C020E030E0A901B8
:103EA000C301B2010E940D6587FDC5C0A301920147
:103EB000C701B6010E94146520E030E04AE754E4EF
:103EC0000E94F866062FA72EB82E192F20E030E0AA
:103ED000A901C701B6010E94F46618160CF0DDC0F6
:103EE000D101D2964D925D926D927C92D59783E8E6
:103EF000889DF001899DF00D1124E35FFF4E82A99A
:103F000093A9A4A9B5A986A797A7A0ABB1AB8D81AA
:103F10009E81AF81B885F10181839283A383B483AD
:103F2000158616861786108A20E030E040E751E4B7
:103F3000602F7A2D8B2D912F0E9414655B018C01CF
:103F40006B017C0120E030E0A9010E940D6587FD36
:103F50009DC0B501C8010E947C65CB01AA2797FDD1
:103F6000A095BA2FF101848F958FA68FB78F128AF3
:103F7000118A89819A81AB81BC81868B978BA08FB6
:103F8000B18F81E090E0938F828F83E0808320E087
:103F900030E0C9012C960FB6F894DEBF0FBECDBF3E
:103FA000DF91CF911F910F91FF90EF90DF90CF9015
:103FB000BF90AF909F908F907F906F905F904F9049
:103FC0003F902F90089523EC38EB42E35EEBC7015E
:103FD000B6010E94F46618160CF05FCF123009F497
:103FE0004FC0133009F463C082E0D1018C93898102
:103FF0009A81AB81BC81F10181839283A383B483D5
:10400000128A118A8DE491E0A0E0B0E0848F958F50
:10401000A68FB78F20E030E0BCCF92E0A916B104A4
:1040200009F009CF2FEF3FEFB4CFA3E0AA16B104F8
:1040300009F001CFF7CFD301C201B05889879A8721
:10404000AB87BC879C01AD01C701B6010E94146516
:1040500020E030E04AE754E40E94F866062FA72EDD
:10406000B82E192F20E030E0A901C701B6010E9447
:10407000F4661816B4F449845A846B847C8430CF77
:10408000B2E0AB16B10409F0AFCFCCCFC701B60197
:1040900090580E947C65CB0161CF77FA709477F8D5
:1040A0007094F10142AA53AA64AA75AA20CFE3E052
:1040B000AE16B10409F098CFB5CF2091E30E2230AF
:1040C000D1F02330E9F0019723E8289FF001299FE0
:1040D000F00D1124E35FFF4E20812330A9F028F07A
:1040E0002550223030F486E00895213069F02230E6
:1040F00001F180E008958230910529F78FEF08954E
:104100008330910501F7FACF23E8289FF001299F1A
:10411000F00D1124E35FFF4E20E030E0A90162A919
:1041200073A984A995A90E94F466181644F481E045
:10413000089581899289892BD1F383E0089582E0E3
:1041400008956235A9F0633581F0663459F0A0987E
:10415000A19820E1829FC00111249093890080934F
:1041600088000895A09AA198F4CFA09AA19AF1CFBF
:10417000A098A19AEECF6235A9F0633581F066343C
:1041800059F0A298A59820E1829FC0011124909334
:104190008B0080938A000895A29AA598F4CFA29AE2
:1041A000A59AF1CFA298A59AEECF0F931F938A01FB
:1041B0009B0177FD28C0F8010F3F110519F010F0A1
:1041C000EFEFF0E08130910591F074F0049764F422
:1041D00077FD33C0452B462B472BE9F066E48E2F45
:1041E0001F910F910C94BB201F910F91089577FDA3
:1041F0001EC0452B462B472BA1F066E48E2F1F9146
:104200000F910C94A120002711279801041B150B76
:10421000260B370BD0CF6EE48E2F1F910F910C948D
:10422000BB206EE48E2F1F910F910C94A12062E5AC
:104230008E2F1F910F910C94A12062E58E2F1F915C
:104240000F910C94BB20CF93DF939C012150310937
:1042500043E8429FE001439FD00D1124C35FDF4E2E
:104260001EA61FA618AA19AA4D89413061F1423035
:10427000E1F0442309F475C0433011F54881423020
:1042800009F467C0433009F474C043E8429FF00169
:10429000439FF00D1124E35FFF4E46A957A960AD7F
:1042A00071ADDF91CF910C94691B20E030E0A90142
:1042B0006EA17FA188A599A50E940D6581112CC0D2
:1042C000DF91CF91089520E030E0A9016EA17FA198
:1042D00088A599A50E940D65882391F383E08883C2
:1042E0008FEF9FEFDC018C8F9D8FAE8FBF8F8EA9DC
:1042F0009FA9A8ADB9AD89839A83AB83BC838EA1F6
:104300009FA1A8A5B9A58AAB9BABACABBDAB1A8AE4
:10431000198ADF91CF91089583E088838FEF9FEF13
:10432000DC018C8F9D8FAE8FBF8F8EA99FA9A8AD0A
:10433000B9AD89839A83AB83BC838EA19FA1A8A5C5
:10434000B9A5B0588AAB9BABACABBDAB1A8A198A86
:10435000B7CF49895A89452B09F497CF1C8A1B8A04
:10436000AFCF188240E050E0BA01DF91CF910C94BA
:10437000D52049815A816B817C81DF91CF910C944A
:10438000691B2F923F924F925F926F927F928F9212
:104390009F92AF92BF92CF92DF92EF92FF920F93D4
:1043A0001F93CF93DF93CDB7DEB7AE970FB6F894D8
:1043B000DEBF0FBECDBF8DE290E19A8B898B3DE0D1
:1043C000632E30E1732EA2E2B0E1BC8BAB8B40E9EF
:1043D000442E42E0542EEFE2F0E1FE8BED8B8DE4B3
:1043E00090E19E878D87A3E3B0E1BC87AB87EEE8C1
:1043F000F0E1FE83ED8353E4252E50E1352E8AE86B
:1044000090E198878F83A8E5B0E1B88BAF87E6E8A5
:10441000F0E1FA87E9878FE390E19C838B8367E47F
:10442000E62E60E1F62E1A821982820138A62FA2AA
:10443000270129803A802FEF221A320A0E94A35ABC
:104440008091E30E823009F46EC2D3011596CD90AF
:10445000DD90ED90FC90189721E231E348E954E4B7
:10446000C701B6010E940D6587FF0DC02FE33EEC2A
:1044700042E451E4C701B6010E94A964F3016583D7
:10448000768387839087D3011996CD90DD90ED9048
:10449000FC901C9720E537E746ED5DE3C701B601C8
:1044A0000E940D6587FF0DC02FE132E449E85AE311
:1044B000C701B6010E94A964F301618772878387EF
:1044C0009487C1010E943B184B015C01862F992DF6
:1044D000AA2DBB2DEFA1F8A580839183A283B3837E
:1044E000188F0F8B8F011DC080918E0290918F02CB
:1044F0000B977CF5C1010E943B184B015C01862F94
:10450000992DAA2DBB2DF80180839183A283B383BB
:1045100080918E0290918F02019690938F028093EA
:104520008E02AF89B88DCD90DD90ED90FC90A70103
:104530009601682D792D8A2D9B2D0E94A8640E94DA
:10454000EF1723EC38EB42E35EE30E94F4661816A3
:104550005CF2C8010F89188D98A78FA310928F0263
:1045600010928E0220E030E040E250EC682D792D70
:104570008A2D9B2D0E940D6587FF55C020E030E0FD
:1045800040E250E4C701B6010E94F46618160CF030
:104590004AC0F20180819181019691838083AFA10D
:1045A000B8A58C9011969C9011971296AC9012978A
:1045B0001396BC90882D992DAA2DBB2DF8018083D0
:1045C0009183A283B383D3018C91843009F459C5BC
:1045D00008F045C0813009F43CC508F4C4C28230FB
:1045E00009F494C3833009F4D3C289819A81029774
:1045F00009F04CC1AE960FB6F894DEBF0FBECDBF2A
:10460000DF91CF911F910F91FF90EF90DF90CF90AE
:10461000BF90AF909F908F907F906F905F904F90E2
:104620003F902F90089520E030E040E250E4682D64
:10463000792D8A2D9B2D0E94F46618160CF0BACFA6
:1046400020E030E040E250ECC701B6010E940D6569
:1046500087FFB0CFF2018081918101979ECF863094
:1046600009F4DAC308F465C1873009F401C488305D
:1046700009F0BBCFAD81BE818D919C91892B09F44E
:1046800027C6D090A002C090A102F090A202E090B4
:10469000A302609165027091660280916702909119
:1046A00068020E94AD6520E030E04AE754E40E94D1
:1046B0001465D601F7012B2F3C2D4F2F5E2D0E9444
:1046C000A8642BED3FE049E450E40E94F8666F8B4C
:1046D0007B8F8F8F98A3AF81B8852D913D914D91A0
:1046E0005C910E9414650E9411654B015C0120E001
:1046F00030E040E05FE3F30166897789808D918D3A
:104700000E94F8666B017C01A501940160E070E0F5
:1047100080E89FE30E94A8649B01AC01C701B60139
:104720000E94F866A985BA852D913D914D915C91C5
:104730000E94A9640E94EF17F3016183728383834F
:104740009483C48CD58CE68CF78C1C141D041E0439
:104750001F040CF0E2C6AFA1B8A52D913D914D917B
:104760005C910E94A8640E94EF174B015C01F30169
:1047700025813681478150850E94F8666B017C0156
:10478000D3011D962D913D914D915C9150971996B5
:104790006D917D918D919C911C970E94F8669B0173
:1047A000AC01C701B6010E94A9640E947C65AB01FF
:1047B000BC01C1010E94D520EF81F885C080D18065
:1047C000E280F380A7019601BF89AB8DEF8DF8A140
:1047D0006B2F7A2FCF010E9414650E945B676F8B4D
:1047E000788F898F9A8F2BED3FE049E450E4D30115
:1047F00056966D917D918D919C9159970E94F86686
:104800006B8F7C8F8D8F9E8FA7019601C701B6019C
:104810000E94A9649B01AC016B8D7C8D8D8D9E8D5A
:104820000E9414652F89388D498D5A8D0E94F86633
:10483000EB85FC8560837183828393832FE832EC60
:1048400045E75CE3C501B4010E94F8669B01AC0139
:10485000D3011D966D917D918D919C9150970E94F1
:10486000A964F301658776878787908B848D958D02
:10487000A68DB78D0197A109B109848F958FA68F59
:10488000B78F89819A81029709F4B4CEA989BA8930
:10489000AD57BF4FBA8BA98BB3E86B0E711CEB8978
:1048A000FC89ED57FF4FFC8BEB8B0C5F1F4F8D8905
:1048B0009E898D579F4F9E8B8D8BAD85BE85AD5745
:1048C000BF4FBE87AD87EB85FC85ED57FF4FFC875B
:1048D000EB878D819E818D579F4F9E838D83AFA1E6
:1048E000B8A5AD57BF4FB8A7AFA3EF81F885ED5777
:1048F000FF4FF887EF838F8598898D579F4F988B4F
:104900008F87A985BA85AD57BF4FBA87A987EB8135
:10491000FC81ED57FF4FFC83EB83F3E84F0E511CF6
:104920003A82298286CD82E02816310409F08DCDA5
:10493000ADCFF301848D958DA68DB78D0097A10520
:10494000B10509F42EC5181619061A061B0644F4FB
:104950000197A109B109F301848F958FA68FB78FB5
:104960002FE832EC45E75CE3AB81BC816D917D9132
:104970008D919C910E94F866F301218132814381DF
:1049800054810E94A964D62EC72EF82EE92EA601C6
:104990009701852F942FA32FB22FF3018183928348
:1049A000A383B48322E93AE046E850E4AB81BC81BA
:1049B0006D917D918D919C910E940D65181684F1E9
:1049C0002FE832EC45E75CE3F30162A573A584A50B
:1049D00095A50E94F8662FE832EC45E75CE30E945B
:1049E000F86620E030E040E05FE30E94F8669B015B
:1049F000AC01D601F7016B2F7A2F8F2F9E2F0E94CB
:104A0000A964D62EC72EF82EE92EA6019701852F70
:104A1000942FA32FB22FF30181839283A383B483B6
:104A2000AFA1B8A52D913D914D915C91D601F701B3
:104A30006B2F7C2D8F2F9E2D0E94A8640E94EF1754
:104A40006B017C01F30125813681478150850E94ED
:104A5000F8664B015C01D3011D962D913D914D915E
:104A60005C91509719966D917D918D919C911C97B9
:104A70000E94F8669B01AC01C501B4010E94A964C3
:104A80000E947C65AB01BC01C1010E94D5202FE8CA
:104A900032EC45E75CE3C701B6010E94F8669B0172
:104AA000AC01F30165857685878590890E94A964AC
:104AB000D3011D966D937D938D939C9350972FE812
:104AC00032EC45E75CE39A966D917D918D919C91D6
:104AD0009D970E94F866EB81FC81208131814281A3
:104AE00053810E94A964D62EC72EF82EE92E22E902
:104AF0003AE046E850E4D601F7016B2F7A2F8F2F6A
:104B00009E2F0E94F46618160CF455C422E93AE070
:104B100046E850ECD601F7016B2F7A2F8F2F9E2F8E
:104B20000E940D6587FF7CC682E99AE0A6E8B0EC9A
:104B3000EB81FC8180839183A283B38362E9D62ECB
:104B40007AE0C72EE6E8FE2EF0ECEF2EA6019701E4
:104B5000852F9C2DA32FBE2DEB85FC858083918313
:104B6000A283B38342CDF301848D958DA68DB78D3D
:104B70000097A105B10509F472C40CF436CD019774
:104B8000A109B109F301848F958FA68FB78F2DCD21
:104B9000F301848D958DA68DB78D0097A105B10584
:104BA00009F458C344F00197A109B109F301848FB6
:104BB000958FA68FB78FF301EF59FF4F80809180BB
:104BC000A280B38020E030E0A901C501B4010E94B9
:104BD0000D65882309F4CCC4D3019E968D919D91D7
:104BE0000D90BC91A02D8F8B988FA98FBA8F20E04C
:104BF00030E0A901BC01CD010E940D6587FD06C60C
:104C00008F89988DA98DBA8D8B8F9C8FAD8FBE8F1C
:104C1000AB81BC81CD90DD90ED90FC9020E030E048
:104C2000A901C701B6010E940D65A701960187FD84
:104C3000EBC56B8D7C8D8D8D9E8D0E94F466181654
:104C40000CF0B8C5F301C6A6D7A6E0AAF1AA2FE8D2
:104C500032EC45E75CE3C701B6010E94F866F30158
:104C600021813281438154810E94A964C62ED72EAE
:104C7000E82EF92ED3011196CD92DD92ED92FC92A1
:104C80001497AFA1B8A52D913D914D915C910E94D3
:104C9000A8640E94EF176B017C0120E030E0A901BD
:104CA0000E940D654601570187FD9BC460918802F3
:104CB0007091890280918A0290918B029B01AC01D4
:104CC0000E94A9649B01AC01C501B4010E94F46675
:104CD000ED85FE8518160CF06FC420812F5F2083B0
:104CE00030E080918602909187028217930708F046
:104CF0007CCCD3011C925B961C921E925A9740E08A
:104D000050E0BA01C1010E94D5206FCCF301848D1F
:104D1000958DA68DB78D0097A105B10571F4818998
:104D20009289892B09F4ADC38FEF9FEFDC01F3016A
:104D3000848F958FA68FB78F58CC181619061A0630
:104D40001B069CF40197A109B109F301848F958F8B
:104D5000A68FB78FAFA1B8A58C9011969C90119794
:104D60001296AC9012971396BC90282D392D4A2D8F
:104D70005B2DF30161817281838194810E94A8641B
:104D80000E94EF176B017C0120E030E0A9010E9436
:104D90000D6587FD98C323EC38EB42EB5DE3C7015B
:104DA000B6010E940D6587FD99C3D30151968D917F
:104DB0009C915297892B09F411C320E030E0A9019E
:104DC000C701B6010E940D6587FD10C4C701B60179
:104DD000209188023091890240918A0250918B0281
:104DE0000E94F46618160CF0F9C2ED85FE8520814C
:104DF0002F5F208330E08091860290918702821796
:104E0000930708F0EEC2D3011C9240E050E0BA01D3
:104E1000C1010E94D520E9CBAF85B8892C91213002
:104E200009F437C3223009F48BC32111DECB809102
:104E3000650290916602A0916702B0916802F30149
:104E4000E359FF4F40815181628173818417950737
:104E5000A607B70708F4CEC3F301E45BFF4F8081D8
:104E6000882309F4A4C322E0EF85F8892083BDCB11
:104E7000AD81BE818D919C91892B09F45FC2D09048
:104E8000A002C090A102F090A202E090A302609163
:104E900065027091660280916702909168020E949B
:104EA000AD6520E030E04AE754E40E941465D60185
:104EB000F7012B2F3C2D4F2F5E2D0E94A8646F8B86
:104EC0007B8F8F8F98A3AF81B885CD90DD90ED90CB
:104ED000FC902BED3FE049EC50E40E94F86669A39A
:104EE0007AA38BA39DA3A70196010E9414650E943B
:104EF0005B674B015C01A7019601BF89AB8DFF8CFD
:104F0000E8A06B2F7A2F8F2D9E2D0E9414656B01C8
:104F10007C0123E839EF42E25EE3C501B4010E945F
:104F2000F8669B01AC01C701B6010E94A864F301B9
:104F300026893789408D518D0E94F866A985BA85EA
:104F40002D913D914D915C910E94A9640E94EF17B3
:104F5000F3016183728383839483C48CD58CE68C44
:104F6000F78C1C141D041E041F040CF0D6C2AFA144
:104F7000B8A52D913D914D915C910E94A8640E942D
:104F8000EF176B017C01F301258136814781508544
:104F90000E94F8664B015C01D3011D962D913D9155
:104FA0004D915C91509719966D917D918D919C9149
:104FB0001C970E94F8669B01AC01C501B4010E94D8
:104FC000A9640E947C65AB01BC01C1010E94D5208F
:104FD000EF81F88580809180A280B380A501940143
:104FE000B9A1AAA1EBA1FDA16B2F7A2FCF010E943D
:104FF00014650E9411656F8B788F898F9A8FA50138
:105000009401D30156966D917D918D919C91599704
:105010000E9414654B015C012F89388D498D5A8D92
:1050200060E070E080E89FE30E94A8649B01AC010F
:10503000C501B4010E94F866EB85FC85608371832D
:10504000828393832FE832EC45E75CE3C701B60126
:10505000FBCBAB89BC898C91882309F46CC181306E
:1050600009F4B4C2ED89FE89408150E05195419523
:105070005109662757FD6095762FC1010E94D52002
:10508000B4CA609165027091660280916702909146
:1050900068020E94AD6520E030E04AE754E40E94D7
:1050A00014656F8B7B8F8F8F98A3F301EF5BFF4F9E
:1050B0006081772767FD7095872F972F0E94AF65D6
:1050C00020E030E040E05CE30E94F86620E030E061
:1050D00040EA50E40E94F86620E030E040E05FE300
:1050E0000E94F8665B01982E892EA3E889819A8137
:1050F000A89F6001A99FD00C1124E4E5F0E1CE0E39
:10510000DF1EEE24E394F12C7CA26BA21EA30DA360
:105110005AA649A63CA62BA63A2C2B2CDEA6CDA639
:10512000B701882777FD8095982F0E94AF652BEDFA
:105130003FE049EC50E40E94F866BF89AB8DEF8DEB
:1051400018A12B2F3A2F4E2F512F0E94F86620E0E6
:1051500030E040E251E40E9414655B018C017B2D3C
:10516000802F912F0E945B672B013C01F601359740
:105170006081772767FD7095872F972F0E94AF6515
:1051800020E030E040E05CE30E94F86620E030E0A0
:1051900040EA50E40E94F866A30192010E94F8667A
:1051A000D101F4012B2F322D4F2F582D0E94A964CD
:1051B0002B013C01FFEFCF1ADF0A6A2D7B2D802FD8
:1051C000912F0E9411654B015C01ADA5BEA56C91AC
:1051D000772767FD7095872F972F0E94AF6520E096
:1051E00030E040E05CE30E94F86620E030E040EA16
:1051F00050E40E94F866A50194010E94F866242DEF
:10520000352D462D572D0E94A964362E272E982E17
:10521000892EBFEFEB1AFB0AE5E0EE16F10409F068
:105220007DCF6BA07CA00DA11EA149A45AA4B72ECE
:105230002BA43CA49401862F9B2DA32FB22FF30106
:1052400081839283A383B483128A118A8FEF9FEFA5
:10525000DC017CCD81E090E0928B818BD3011586BF
:1052600016861786108AE989FA8980819181892BAF
:1052700009F4A4C1E2E0D301EC935A968D919C917C
:105280005B97892B69F056968D919D910D90BC91FD
:10529000A02DF30181839283A383B483138E128E96
:1052A000EFEFFFEFA989BA89ED93FC93D3015396F1
:1052B0008D919C915497892B09F436CD82E490E02E
:1052C000A0E0B0E0F301848F958FA68FB78F8DC9D2
:1052D000882D992DAA2DBB2DE985FA858083918390
:1052E000A283B38360916502709166028091670228
:1052F000909168020E94AD6520E030E04AE754E4F6
:105300000E941465D62EC72EF82EE92EA60197010D
:10531000852F942FA32FB22F8093A0029093A102E8
:10532000A093A202B093A302E1E0F0E0AD81BE81C0
:10533000ED93FC93AEC9F301108257C9882D992DC6
:10534000AA2DBB2DE985FA8580839183A283B3833F
:105350006091650270916602809167029091680287
:105360000E94AD6520E030E04AE754E40E941465F5
:10537000D62EC72EF82EE92EA6019701852F942F41
:10538000A32FB22F8093A0029093A102A093A20218
:10539000B093A302E1E0F0E0AD81BE81ED93FC9318
:1053A00076CD8FEF9FEFDC01848F958FA68FB78F1F
:1053B00023E02083C8CA82E99AE0A6E8B0E4EB8142
:1053C000FC8180839183A283B383A2E9DA2EBAE0C1
:1053D000CB2E86E8F82E90E4E92EB8CBED85FE853D
:1053E0001082D30115962D913D914D915C911897A6
:1053F000C701B6010E94F8664B015C01F3012585E7
:1054000036854785508961857285838594850E949C
:10541000F8669B01AC01C501B4010E94A9640E9419
:105420007C65AB01BC01C1010E94D5202FE832ECA4
:1054300045E75CE3C701B6010E94F8669B01AC0139
:10544000D3011D966D917D918D919C9150970E94F5
:10545000A964F301658776878787908BC6C8A98979
:10546000BA898C91EB89FC898083C1010E94232138
:105470008FEF9FEFDC01F301848F958FA68FB78F9D
:10548000B4C8108240E050E0BA01C1010E94D520AA
:10549000ACC88091650290916602A0916702B091BC
:1054A0006802F301EF58FF4F40815181628173819F
:1054B00084179507A607B70708F450C1E2E0AF8547
:1054C000B889EC9392C823EC38EB42EB5DEBC70153
:1054D000B6010E94F46618160CF067CCE1E0F0E02B
:1054E000D3015296FC93EE93519753968D919C91D4
:1054F0005497892B09F088CC8FEF9FEFDC01F301E3
:10550000848F958FA68FB78FD30151968D919C91E3
:105510005297892B09F462CF50CC40E050E0BA0199
:10552000C1010E94D520AD81BE811D921C928FEFDA
:105530009FEFDC01F301848F958FA68FB78F55C83D
:105540008091650290916602A0916702B091680215
:10555000F301EB58FF4F40815181628173818417C1
:105560009507A607B70708F4A2C0D3012C93DCCB9C
:105570002FE832EC45E75CE3EB81FC8160817181CF
:10558000828193810E94F866D30111962D913D91FD
:105590004D915C9114970E94A964C62ED72EE82ED7
:1055A000F92EF301C182D282E382F4826ACBE1E078
:1055B000AF85B889EC9319C8108213CF1C9240E0D4
:1055C00050E0BA01C1010E94D5206ACEAD89BE89E2
:1055D0004C9150E060E070E0C1010E94D5200C9435
:1055E000F522B7FAB094B7F8B09460CBC701B60112
:1055F0009058EECB609165027091660280916702CF
:1056000090916802F301E759FF4FC080D180E2809A
:10561000F3806C197D098E099F090E94AD6520E019
:1056200030E04AE754E40E941465F62EE72ED82EA7
:10563000C92EF301E75AFF4F208131814281538106
:10564000D701F6016B2F7A2F8F2F9E2F0E94F866BD
:10565000D701F6012B2F3A2F4F2F5E2F0E94F866AD
:1056600020E030E040E05FE30E94F866F301E35B96
:10567000FF4F20813181428153810E94A964C62E4F
:10568000D72EE82EF92ED3011196CD92DD92ED9210
:10569000FC921497EFA1F8A52081318142815381BA
:1056A0000E94A8640E94EF176B017C019ACE609162
:1056B0006502709166028091670290916802F30121
:1056C000EF58FF4FC080D180E280F3806C197D09D4
:1056D0008E099F090E94AD6520E030E04AE754E45E
:1056E0000E941465B62EA72E982E892EF301E35A38
:1056F000FF4F2081318142815381D501F4016B2F0D
:105700007A2F8F2F9E2F0E94F866D501F4012B2F40
:105710003A2F4F2F5E2F0E94F86620E030E040E0E5
:105720005FE30E94F8666B017C01F301EB59FF4FC8
:105730002081318142815381D501F4016B2F7A2F71
:105740008F2F9E2F0E94F8669B01AC01C701B60106
:105750000E94A964F301EB5AFF4F8BCF6091650261
:105760007091660280916702909168026301F1E591
:10577000CF0ED11C730125E6E20EF11CF301E359B3
:10578000FF4F80809180A280B380681979098A09CF
:105790009B090E94AD6520E030E04AE754E40E9496
:1057A0001465D7012D913D914D915C910E94F86651
:1057B000F6015FCFC701B6010E94CD106B017C01DD
:1057C0002FE832EC45E75CE3C501B4010E94F866BE
:1057D000A70196010E94F8669B01AC016F89788D44
:1057E000898D9A8D0E94A964C62ED72EE82EF92E97
:1057F000462F572F682F792FD3019E964D935D9397
:105800006D937C93D19723CA505813CA8F89988D72
:10581000A98DBA8DB0588B8F9C8FAD8FBE8FF8C974
:10582000A6019701852F942FA32FB22FEB81FC8126
:1058300080839183A283B38389C91092C30210929B
:105840000D1010929010109213116EE480E00E94DF
:10585000A1206EE480E00C94BB20019723E8289FF0
:10586000F001299FF00D1124E35FFF4E8CE29CEEC6
:10587000AAECB3E485839683A783B087118612864A
:105880001386148608957F928F929F92AF92BF9253
:10589000CF92DF92EF92FF920F931F93CF93DF93FC
:1058A00000D000D0CDB7DEB780E190E00E94301389
:1058B000813A09F444C079E4C72E70E1D72EE12C77
:1058C000F12C01E010E0C8010E943B18DC01CB0183
:1058D000B05889839A83AB83BC83F601808391831C
:1058E000A283B38344E050E0BE016F5F7F4FC701E6
:1058F0000E9441130F5F1F4FF3E8CF0ED11C84E0CD
:10590000E80EF11C04301105F1F661EA80E190E047
:105910000E94021321E030E0C9010F900F900F9018
:105920000F90DF91CF911F910F91FF90EF90DF903B
:10593000CF90BF90AF909F908F907F900895E9E4B3
:10594000AE2EE0E1BE2E812C912C00E010E0F3E8B9
:105950007F2E709EB001719E700D1124675B7F4E8B
:1059600044E050E0C4010E946613F501C080D1807C
:10597000E280F38020E030E040E450E4C701B6016B
:105980000E940D6587FF0AC020E030E040E450EC43
:10599000C701B6010E94F46618162CF0F5011082BA
:1059A0001182128213820F5F1F4FF4E08F0E911C41
:1059B00083E8A80EB11C0430110559F620E030E050
:1059C000ABCF1092491010924A1010924B101092C7
:1059D0004C101092CC101092CD101092CE1010924C
:1059E000CF1010924F11109250111092511110922D
:1059F000521160EA80E190E00E9402130E94432C61
:105A000080E090E008956091E30EEDE0F0E181E048
:105A100090E020E030E0623099F06330A9F04081FE
:105A2000442321F041895289452BA9F08330910507
:105A300071F02F5F3F4F0196ED57FF4F623069F7CE
:105A40002130310561F7F5CF2230310541F720E0F3
:105A500030E0C901089521E030E0FBCF2F923F9262
:105A60004F925F926F927F928F929F92AF92BF926E
:105A7000CF92DF92EF92FF920F931F93CF93DF931A
:105A8000CDB7DEB76C970FB6F894DEBF0FBECDBFB3
:105A90003C011A012B0109831A832B833C8320E0EC
:105AA00030E0A901C201B1010E940D6587FD47C424
:105AB00020E030E0A90169817A818B819C810E947C
:105AC0000D6587FD32C420E030E0A901C701B601B1
:105AD0000E940D6587FD24C4C30101979E878D87B1
