:100000000C9476010C9495010C9495010C94950137
:100010000C9495010C9495010C9495010C94950108
:100020000C9495010C94C00A0C9495010C949501C4
:100030000C9495010C94E3030C9495010C94950198
:100040000C9495010C9495010C9495010C949501D8
:100050000C9495010C9495010C9495010C949501C8
:100060000C9495010C9495010C9495010C949501B8
:100070000C9495010C94BB140C9495010C9495016F
:100080000C9495010C9495010C9495010C94950198
:100090000C9463270C9495010C9495010C940044E6
:1000A0000C9495010C9495010C94EF010C940002B2
:1000B0000C9495010C9495010C9495010C948F0E61
:1000C0000C9495010C9495010C9495010C94950158
:1000D0000C9495010C9495010C9495010C94950148
:1000E0000C9495010C9495010C9495010C94950138
:1000F0000C9428030C9495010C9495010C94FC022B
:100100000C9495010C9495010C9495010C94950117
:100110000C9495010C9495010C9495010C94950107
:100120008C282E288D2E802E49280A2E202E402EF7
:10013000602EB82CD52C062D382D7B2DBF2DD82D1B
:10014000F12D672975298B29B529DB29E529F429A2
:100150002128022A3F2C502C6F2C8A2C912C972C72
:100160009F2CA72CFF2A2128042B2A2BF42BDE2BD3
:100170002E2C142C1F2C0F29CF281B29A62822290E
:10018000452948294D29052F232F342F512F5D2F25
:10019000672F822F8F2FD92AF82AB62B21282128C2
:1001A000212821282128212821282128C52B7B2B03
:1001B000842B8D2B942B152A542A612A6F2A2128EF
:1001C0002128872A9B2AB12AD02AA02E05A84CCD07
:1001D000B2D44EB93836A9020C50B9918688083C81
:1001E000A6AAAA2ABE000000803F6E616E00696E5A
:1001F000660000407A10F35A00A0724E18090010F1
:10020000A5D4E80000E87648170000E40B5402008B
:1002100000CA9A3B000000E1F505000080969800B6
:10022000000040420F000000A086010000001027DF
:1002300000000000E803000000006400000000006F
:100240000A00000000000100000000002C76D888A1
:10025000DC674F0823DFC1DFAE59E1B1B796E5E3B4
:10026000E453C63AE651997696E8E6C28426EB89CD
:100270008C9B62ED407C6FFCEFBC9C9F40F2BAA56A
:100280006FA5F490055A2AF75C936B6CF9676DC102
:100290001BFCE0E40D47FEF520E6B500D0ED902E06
:1002A0000300943577050080841E080000204E0A64
:1002B000000000C80C333333330F986E12831141A2
:1002C000EF8D2114893BE65516CFFEE6DB18D1846D
:1002D0004B381BF77C1D901DA4BBE4242032847294
:1002E0005E228100C9F124ECA1E53D2711241FBE47
:1002F000CFEFD1E4DEBFCDBF13E0A0E0B2E0E4E198
:10030000F4EA00E00BBF02C007900D92A632B107DD
:10031000D9F710E2A6E2B3E001C01D92AF36B107F3
:10032000E1F70E9487130C9408520C94000014BE4D
:1003300088E10FB6F89480936000109260000FBEC1
:1003400078940C94A60190E00C94BB0110923D0AA5
:1003500080E29EE49093A9008093A800E1EAF0E097
:1003600088E08083808182608083E2E7F0E08081A2
:100370008260808308952091A4003091A500280F09
:10038000391F3093AB002093AA002091AA0030912E
:10039000AB008091A8009091A9008217930770F498
:1003A0008091AA009091AB002091A8003091A90003
:1003B000821B930B9093AB008093AA0010922603AC
:1003C000809172008460809372008091260388235C
:1003D000E1F3809172008B7F8093720008951F92E9
:1003E0000F920FB60F9211248F9380913D0A8F5F69
:1003F00080933D0A8F910F900FBE0F901F9018951C
:100400001F920F920FB60F9211248F9381E0809369
:1004100026038F910F900FBE0F901F9018950F938A
:100420001F93CF93DF9310924E0183E0809342019C
:1004300086E080934201809141018F718630D9F727
:10044000C0E0D0E000E010E081E00E94A301209134
:10045000460122952695237030E00C2E02C0220F13
:10046000331F0A94E2F7022B132B2296C031D105D9
:1004700059F783E08093420188E0809342018091A4
:1004800041018F718830D9F78FEF80934F018091B0
:100490004E01886080934E0180914E01806480936C
:1004A0004E01C801DF91CF911F910F910895809166
:1004B0003003882361F083E08093420186E18093DA
:1004C0004201809141018F718631D9F7089583E00F
:1004D0008093420188E080934201809141018F71B5
:1004E0008830D9F70895809139018160809339016E
:1004F00083E08093420188E0809342018091410132
:100500008F718830D9F780916E01806280936E017F
:1005100080916E018F7E80936E018FEF80934F01EB
:1005200080914E01886080934E0180914E018064DD
:1005300080934E0180914C01806880934C010E9411
:100540000F0280936D0110922A031092300381E014
:1005500080930A020895EAE2F3E090819860908324
:10056000809330030895EAE2F3E0908191609083F4
:1005700080932B030895EAE2F3E020812260208338
:1005800090932D0380932C030895EAE2F3E02081F9
:100590002460208390932F0380932E0308958091ED
:1005A0000A02813011F081E0089590912A0391119F
:1005B000FBCF80E0089523E02093420129E12093BE
:1005C0004201209141012F712931D9F7262F2E5F49
:1005D00020938001662349F0FC01A1E8B1E09191EC
:1005E0009D939E2F981B9617D0F382E08093420133
:1005F00083E080930A0208951F920F920FB60F9224
:1006000011248F93809141018F71893131F08F9145
:100610000F900FBE0F901F90189583E080934201BA
:1006200089E080934201809141018F718930D9F72F
:1006300084E080930A0280914201829586958770BA
:10064000809329038F910F900FBE0F901F901895E4
:100650001F920F920FB60F9211248F9389E080930F
:100660004201809147018093280380917B01809310
:10067000270385E080930A028F910F900FBE0F90A1
:100680001F901895CF93DF9300D000D01F92CDB765
:10069000DEB780910A02843009F481C0853009F404
:1006A0003FC0813041F00F900F900F900F900F904E
:1006B000DF91CF91089590912A039923A1F383E0CC
:1006C0008093420188E080934201809141018F71C3
:1006D0008830D9F790FF09C020912B032F718091AA
:1006E0004801807E822B8093480191FF08C0809151
:1006F0002C038093620180912D038093630192FF0C
:1007000008C080912E038093600180912F03809315
:10071000610194FD53C00E94570210922A03C3CF77
:100720008091270380E090E040E0FC01E058FE4F1C
:100730002081FC01EF5CFC4F20834F5F2091270359
:10074000842F90E030E0281739077CF781E393E0AD
:100750009A8389838091270382508B83E0912703BA
:10076000F0E0EF5CFC4F80818C83809128038A55F8
:100770008D83CE0101960E949E05809141018F716B
:100780008930D9F781E080930A020E9457020F90C6
:100790000F900F900F900F90DF91CF91089580915F
:1007A00029030E948808809141018F718930D9F70F
:1007B00081E080930A020E945702E9CF0E940F0253
:1007C0000E94B40EA8CF1F920F920FB60F92112461
:1007D0008F9381E08093B1038F910F900FBE0F90A4
:1007E0001F9018951092420A1092430A10923F0AE5
:1007F00010923E0A1092450A1092440A1092470A3B
:100800001092460A1092490A1092480A0E94C107A3
:100810000E947A050E94F8040C94480490933F0AC1
:1008200080933E0A0C94C5029093410A8093400A3B
:100830000C94BB02E82FF0E0EE0FFF1FEC5BF54FCE
:100840007183608308950E94D2050E94A4080C94CD
:100850006604E091B203F091B303309731F416C00F
:100860000190F081E02D309789F0228133812817A3
:100870003907B1F7DC01A158BF4F2C912787DC0164
:10088000AE57BF4F2C91208B22E024830C9424057B
:100890001092B3031092B2030895FC0114821786DC
:1008A000138212828091B2039091B303009739F0C2
:1008B00091838083F093B303E093B2030895118290
:1008C0001082F093B303E093B20308950F931F9344
:1008D000CF93DF93E091B203F091B303309709F423
:1008E0007BC0EF018C81811155C08C850E94FF0473
:1008F0008C01009709F46DC09B838A8381E08C830F
:10090000F801ED57FF4F89E294E091838083F8016D
:10091000EE57FF4F898582FB882780F98083998570
:10092000F801838590FB80F98387998593FB99274C
:1009300090F990FB82F9877083878091420A8F5FDC
:100940008093420A848780913E0A90913F0A96875D
:1009500085878D819E81908B878798859F708189FF
:10096000807F892B818B9F819295907F8F70892BBF
:10097000818B98012E5E3F4F4C856A857B8550E0C8
:10098000C9010E942651C801DF91CF911F910F919B
:100990000C94DC07823039F00990D881C02D209763
:1009A00009F0A0CF19C0EC17FD0711F41AC0FC0123
:1009B000808191818C179D07D1F7888199819183DE
:1009C0008083ED85FE85CE01DF91CF911F910F9140
:1009D000099482E08C838F87DF91CF911F910F91D3
:1009E0000895888199819093B3038093B203E9CFEE
:1009F0001092B403109239041092BE04089590919D
:100A0000B403992361F0909139049923B9F090913E
:100A1000BE049923B1F020E030E0C901089540E020
:100A200050E095E8949FF001959FF00D1124EC544F
:100A3000FC4F805F81839F01C901089541E050E030
:100A4000F0CF42E050E0EDCFFC011082089595E830
:100A5000899F900111242C543C4FC9010895FC0139
:100A6000DC01A158BF4F1C92DC01A058BF4F1D9262
:100A70001C92DC01AE57BF4F1C92DC01AD57BF4F3B
:100A80001D921C921386A2E4BAE08C918F5F8C9326
:100A9000848780913E0A90913F0A96878587108AC5
:100AA0001786118A08950C942405E7E4F5E040E0E8
:100AB000208131812115310529F0215031093183FF
:100AC000208341E0359625E0E937F20789F74111A7
:100AD00001C008950C948509DC011596ED91FC91F7
:100AE00016972081222311F080E008950E94640867
:100AF00081E00895E7E4F5E011821082359685E003
:100B0000E937F807C9F71092760584E190E0A0E094
:100B1000B0E080937D0590937E05A0937F05B09310
:100B200080051092810585E595E09093830580937B
:100B300082056CE675E080E00C941A04CF93DF9395
:100B4000EC01E881F9818181883819F0DF91CF913A
:100B500008958081813611F08134C1F78A81803116
:100B6000A8F380510E94FF04009781F320E2FC016A
:100B700020832B81E158FF4F20832C81FC01E0581A
:100B8000FF4F20839C012E5F3F4F4A81688179810E
:100B900050E0C9010E942651809176058F5F8093B5
:100BA0007605D4CF4F925F926F927F928F929F92F1
:100BB000AF92BF92CF92DF92EF92FF920F931F936B
:100BC000CF93DF93CDB7DEB72A970FB6F894DEBF89
:100BD0000FBECDBF809176058823F1F0A12C54E2A1
:100BE000B52E63E5E62E65E0F62E72E2772EE7E994
:100BF000CE2ED12C8A2D0E9427058C01DC018C91F0
:100C0000823209F1843209F421C1803209F4B3C07F
:100C1000A394B3E0AB12EECF2A960FB6F894DEBFE2
:100C20000FBECDBFDF91CF911F910F91FF90EF903D
:100C3000DF90CF90BF90AF909F908F907F906F90FC
:100C40005F904F90089510924305D80151962C91D2
:100C5000519722952F70822F90E0843091050CF0EF
:100C6000FEC0FC01EE0FFF1FEC5BF54F0190F08121
:100C7000E02D309709F4F3C01D968D919C911E973D
:100C80009A83898351963C9151973F703B832C8383
:100C900098012E5E3F4F3F832E8311962C91119722
:100CA00020512887A158BF4F2C912987D801A058DF
:100CB000BF4F2C912A87D8011B962C91322F33706D
:100CC00022FDE9C040E0432BD8011F962D913C91B5
:100CD00050972F3F3F4F09F4E9C030E0432BD80134
:100CE00019962D913C911A978217930709F4DCC04D
:100CF00090E0242F292BD80115968D919C91169761
:100D0000019609F4CFC090E0822F892B8D83CE010C
:100D100001960995F801278130852F3F3F4F09F44F
:100D2000A6C060E0F801938590FFB0C0882309F465
:100D3000ADC083E00E94FF044C010097C9F00E94FF
:100D40002F05F401ED57FF4FF182E082D8011D9687
:100D50008D919C911E97F401908B8787128A8091C8
:100D60004305848B1C968C91838BC4010E94DC0705
:100D7000D801BC924DCFF801B08287859089019649
:100D800009F48BC060913E0A70913F0AF8014584D6
:100D900056846415750509F43BCF838581FD38CFF2
:100DA000C8010D96E4E4F5E020E030E066246A94A2
:100DB0000FC0DC018D909C90408151818416950676
:100DC00009F476C02F5F3F4F35962A30310559F030
:100DD00043815481452B69F7622E2F5F3F4F359633
:100DE0002A303105A9F73FEF631609F411CF862D9C
:100DF000992787FD9095FC01EE0FFF1FEE0FFF1F57
:100E0000E80FF91FEC5BFA4F51824082D8011C9623
:100E10008C918283D482C38287E795E00E94850902
:100E200060913E0A70913F0AF80187819085019692
:100E300009F453C0F801878590898617970719F040
:100E4000019609F0E5CED8017C92E2CEC8010E945D
:100E5000240580917605815080937605D9CE80E077
:100E6000F801278130852F3F3F4F09F05ACF61E0CD
:100E700040913E0A50913F0AD8011F962D913C9116
:100E800050974217530709F04CCF4CCF611151CF07
:100E9000D801BC92BDCE40E216CF1B968C9180FF4C
:100EA00071CFB6CE90E130CF98E023CF34E016CFAB
:100EB000F8018485F901EE0FFF1FEE0FFF1FE20F0F
:100EC000F31FEC5BFA4F9281282F291B12160CF0AE
:100ED0009FCE8283D482C382A7CFF8018785908971
:100EE0008617970709F4AFCFF801258136812F3F88
:100EF0003F4F09F4A5CFD8011B962C9122FDA0CF1E
:100F0000C8010E941A0860913E0A70913F0A92CF70
:100F10000C942405FF920F931F93CF93DF93EC0162
:100F200080918605882339F110E085E1F82E00E1F3
:100F3000812F0E942705FC018081843159F01F5FB9
:100F40001330B1F7CE01DF91CF911F910F91FF9038
:100F50000C948509DF01A058BF4F2D913C9111974A
:100F6000215031092D933C93232B49F7F082E1580E
:100F7000FF4F0083E4CFDF91CF911F910F91FF903E
:100F8000089510928505109284051092860582E3DB
:100F900090E0A0E0B0E080938D0590938E05A09343
:100FA0008F05B0939005109291058AE897E0909391
:100FB0009305809392050895FC01DC01AE57BF4F65
:100FC0008C9191E19083DF01A158BF4F1C9280FF6B
:100FD00020C08FEF9FEF96838583878590899087C8
:100FE000878320913E0A30913F0A328721872091E2
:100FF000430A2F5F2093430A2483019689F081E6F8
:1010000098E893838283809186058F5F809386051D
:1010100008958091400A9091410A96838583DDCF9F
:1010200081E498E893838283809186058F5F809323
:10103000860508950F931F93CF93DF938C01FC01D6
:10104000818180510E94FF04EC010097C1F1FC01F5
:10105000ED57FF4F88E897E0918380839E012E5FD4
:101060003F4FF80141810E5F1F4F50E0B801C901A9
:101070000E94265181E18883FE01E158FF4F1082D2
:1010800081E498E89B838A838FEF9FEF98878F8313
:101090008091400A9091410A9E838D8380913E0AFF
:1010A00090913F0A9A8789878091430A8F5F809346
:1010B000430A8C83809186058F5F80938605DF913C
:1010C000CF911F910F9108951F93CF93DF93FC0150
:1010D000C581D68180918605882359F010E0812F43
:1010E0000E942705FC018081843139F01F5F133095
:1010F000B1F7DF91CF911F9108959485898198135D
:10110000F5CF85E180838A81EE57FF4F8083F1CF51
:10111000E0918405F0918505833080F0833081F083
:10112000853081F081E0DF01A158BF4F8C9383E1CE
:1011300080831092850510928405089580E0F3CF96
:1011400080E2F1CF81E2EFCFAF92BF92DF92EF92D8
:10115000FF921F93CF93DF93809186058823C1F080
:1011600010E095E1F92E24E1D22E37E0A32EB12C28
:1011700042E1E42E812F0E942705EC018881833112
:1011800081F0853171F18131E9F01F5F133091F702
:10119000DF91CF911F91FF90EF90DF90BF90AF90C4
:1011A0000895FE01E158FF4F8081811109C04D85EE
:1011B0005E8520913E0A30913F0A42175307F9F0AD
:1011C000F882E3CF0E94CF028111DFCFD093850553
:1011D000C0938405E8826981CE0102960E94DB02F9
:1011E000D4CFFE01ED57FF4F0190F081E02DCE01ED
:1011F000099580918605815080938605C6CF8B85A1
:1012000080FFDECFD882C058DF4FB982A88287E83E
:1012100095E00E948509B9CF0E9497010E9480093C
:101220000E9473020C94F2030E9442030E94230462
:101230000C949B090F931F93CF93DF93EC01809144
:10124000940590919505009709F447C04E815F8100
:1012500068857985FC01A0E0B0E001C0F901028158
:101260001381248135814017510762077307E0F02D
:10127000401B510B620B730B20813181DF01211563
:10128000310561F74A835B836C837D831097D1F0CE
:101290008D919C91119799838883CD93DC93DF91F5
:1012A000CF911F910F910895041B150B260B370B3F
:1012B00002831383248335834A835B836C837D831A
:1012C000109731F799838883D0939505C09394053F
:1012D000DF91CF911F910F910895198218828E810D
:1012E0009F81A885B9858A839B83AC83BD83D09376
:1012F0009505C0939405DF91CF911F910F910895AB
:1013000010929505109294050895E0919405F0913E
:101310009505309761F08E179F0721F40BC08E174B
:101320009F0739F00190F081E02D3097C1F70C94C0
:101330001A0908950895CF92DF92EF92FF92CF930A
:10134000DF9380913D0A882309F458C09FB7F89431
:1013500080913D0A10923D0A9FBF90E0A0E0B0E06E
:10136000880F991FAA1FBB1F6C017D01CC0CDD1CCF
:10137000EE1CFF1CCC0CDD1CEE1CFF1CC80ED91E85
:10138000EA1EFB1EC0919405D09195052097B1F1FE
:101390004A815B816C817D81C416D506E606F7061D
:1013A000A0F424C0EB85FC85CE010995C09194057D
:1013B000D0919505209711F14A815B816C817D81E7
:1013C000C416D506E606F70688F0C41AD50AE60A5A
:1013D000F70A8881998190939505809394058A8571
:1013E000813001F7CE010E941A09DCCF4C195D094A
:1013F0006E097F094A835B836C837D83DF91CF9184
:10140000FF90EF90DF90CF90089581E080930C02E1
:1014100080914A0A86FF04C080914A0A87FDABC0CA
:1014200080914A0A86FF26C080919C0290919D027D
:10143000892B09F180919902811127C010929D0298
:1014400010929C0210929B0210929A0210929902A2
:1014500081E00E9414101092DE1E1092DD1E109288
:10146000E01E1092DF1E1092AF024FEF60E080E0AE
:101470000C94B50E089583E00E9414100E94B337B7
:10148000892B09F476C00C94A4370E94374180ED73
:10149000809352158EE08093531580919C02909119
:1014A0009D029093541580919C0290919D0280938F
:1014B00055151092561586E78093571588E080934E
:1014C00058151092591510925A1510925B151092DA
:1014D0005C158FEF80935D1510925E1582E180930D
:1014E0005F156091531520E04FEF5FEF82E595E1C6
:1014F0000E9447356091531520E04FEF5FEF82E582
:1015000095E10E9447356091531520E04FEF5FEF62
:1015100082E595E10E9447356091531520E04FEF39
:101520005FEF82E595E10E9447356091531520E019
:101530004FEF5FEF82E595E10E94473560915315CB
:1015400020E04FEF5FEF82E595E10E944735109272
:10155000C41E10929E0280E090E0FC01EE0FFF1F7F
:10156000EE52FB4E11821082019680349105A9F74C
:1015700065CF0C9444370E94CB2683E00C94141062
:101580001F920F920FB60F9211240F900FBE0F9063
:101590001F9018950E94870E80919C0290919D0249
:1015A000892B31F08091DD1E9091DE1E0E94F54165
:1015B0000C946841CF93DF93CDB7DEB729970FB670
:1015C000F894DEBF0FBECDBF0E94870E80919C02B3
:1015D00090919D02892B21F08091990281111EC06A
:1015E0008091AF02813009F443C0833009F440C0D8
:1015F00080919C0290919D02892B29F08091990203
:10160000882309F465C00E94014329960FB6F89417
:10161000DEBF0FBECDBFDF91CF9108958091DD1E5B
:101620009091DE1E892B09F04DC080919E0290E0C2
:10163000019663E070E00E94464E80939E02809186
:101640009E02813009F455C008F045C08091DD1E2E
:101650009091DE1E892B21F60E941D260E943741A3
:101660004FEF60E080E00E94B50E1092C41ECDCF17
:1016700082E08093AF0280919C0290919D02892B21
:10168000F1F080ED898389E08A8380919C029091BA
:101690009D029B8380919C0290919D028C831D8270
:1016A0008DE48E8383E08F83188682E1898720E032
:1016B0004FEF5FEF69E0CE0101960E9447350E942F
:1016C0001D26A3CF80919E02882309F489CFADCF38
:1016D0000E9440439ACF823009F082CF0E941D269B
:1016E0004FEF6FEF80E00E94B50E89E08093C41E3B
:1016F0008CCF0E94374140E06FEF80E00E94B50E32
:1017000087E08093C41E81CF80ED97E0A0E0B0E039
:101710008093500A9093510AA093520AB093530AAF
:1017200081E080934F0A85E09AE09093550A809378
:10173000540A8FE49AE00C94CC358FE49AE00C9430
:1017400098358F929F92AF92BF92CF92DF92EF9295
:10175000FF920F931F93CF93DF93CDB7DEB72C97F4
:101760000FB6F894DEBF0FBECDBFE62EE8269091EF
:101770004702992309F442C0E6FA442740F9E7FCFE
:1017800093C0E5FC446066FD63C030E021E067FD86
:1017900063C0226065FF63C0346080E289838AE0B1
:1017A0008A8380914D0290914E02A0914F02B09198
:1017B00050028B839C83AD83BE834F8338872987F8
:1017C0001A868091510290915202892B09F449C0E6
:1017D00020911C0F30911D0F809151029091520267
:1017E00028173907F1F1409151025091520221E03E
:1017F0006AE0CE0101960E94473543C06623F9F0A6
:1018000090910C0291113DC0E6FE52C06C878B870F
:1018100066FF62C00E94840B20E030E06C858B85FF
:10182000E7FC53C0E5FE47C065FD45C086FD46C0E8
:1018300085FD75C087FF25C00E94DA0A22C09091FD
:101840000C029923E9F210920C0210920B0219C0BB
:1018500031E020E067FF9DCF326065FD9DCF2460C1
:101860009CCF40911C0F50911D0F21E06AE070E069
:10187000CE0101960E94BB27FC01618170E00E94AD
:10188000A1272C960FB6F894DEBF0FBECDBFDF9117
:10189000CF911F910F91FF90EF90DF90CF90BF906D
:1018A000AF909F908F9008954260E5FE6CCF6ACF15
:1018B00020E030E0B5CF232B21F3B8CF87FD49C01E
:1018C00085FD2DC00E94CA0ADCCF67FD0CC01092B6
:1018D0000B0221E030E0A6CF0E949D0B21E030E01A
:1018E0006C858B859DCF91E090930B0280904D028B
:1018F00090904E02A0904F02B090500280924B0AFE
:1019000090924C0AA0924D0AB0924E0A9091C41E39
:101910009150923008F086CF1092C41E83CF0E945F
:10192000870E8091510290915202892B49F04FEF1E
:1019300060E080E00E94B50E1092520210925102B7
:101940001092DE1E1092DD1E1092E01E1092DF1E1D
:1019500098CF81E06C870E9414100E9472436C85BE
:10196000662319F081E080930C028091220F81118F
:1019700026C08091650F811122C08091A80F81112E
:101980001EC034E5C32E3FE0D32EE12CF12CF6012E
:1019900011821082FFEFEF1AFF0A0BED1FE029EC16
:1019A0003FE340E050E0BA01C7010E94151C83E408
:1019B000C80ED11CE3E0EE16F10449F762CF0E9495
:1019C0001D265FCFCF9380914D0290914E02A09142
:1019D0004F02B091500240910D0250910E02609161
:1019E0000F0270911002841B950BA60BB70B499741
:1019F000A105B105F0F0C9B1C095C07EC0934A0AF7
:101A0000809111028C17A9F06C2F0E94A10B80917C
:101A10004D0290914E02A0914F02B09150028093DE
:101A20000D0290930E02A0930F02B0931002C09388
:101A30001102CF9108951092B100249808950C944A
:101A40001B0DCF93DF9382E48093B000A3EBB0E053
:101A500082EB8C93E1EBF0E085E080832FEF32E5C1
:101A600097E0215030409040E1F700C00000108224
:101A7000CFE1DEE42197F1F700C0000095E89C93E8
:101A80008083DFEF22E537E0D15020403040E1F79E
:101A900000C000001082249881E08093DE0D84E66F
:101AA00090E0A0E0B0E08093DF0D9093E00DA09374
:101AB000E10DB093E20D8FE19DE09093E40D8093F2
:101AC000E30DDF91CF9108959C01009709F18A3FC2
:101AD000910578F085E08093B10064E274EF80E0D6
:101AE00090E0249A40E050E00E947C4E2093B300A6
:101AF000089587E08093B10064E87EE180E090E0A3
:101B0000249A40E050E00E947C4E2093B300089558
:101B10000C941B0DCF93DF93C82FCF7082958F70DD
:101B200009F161E090E0660F9F5F9813FCCF70E0D1
:101B3000D0E0CC0FDD1FCC0FDD1FCE5EDD4F882740
:101B400077FD8095982F0E949648288139814A8197
:101B50005B810E9483490E946848CB01DF91CF914D
:101B60000C94640D61E070E0E3CF0F931F93CF936B
:101B7000DF9300D0CDB7DEB70E941B0D009143026A
:101B8000109144020115110509F480C080914502AD
:101B900090914602801791070CF05EC03091ED0DD8
:101BA00020E0880F991F820F931F45960E945E14B4
:101BB0000E948A0D3091ED0D20E0809145029091B8
:101BC0004602880F991F820F931F44960E945E144D
:101BD00080939B0540914502509146024F5F5F4FB5
:101BE0005093460240934502609143027091440233
:101BF0006417750794F40E9427508A830E94275027
:101C000089830E9427504A8169810F900F90DF914C
:101C1000CF911F910F910C94B50E1092EE0D282FBD
:101C200030E040E050E06091970570919805809118
:101C3000990590919A050E945A4E2093EF0D30938A
:101C4000F00D4093F10D5093F20D85EB9DE09093D4
:101C5000F40D8093F30DCFCF81E08093EE0D1092C1
:101C600046021092450210924402109243020E94D2
:101C70001B0D109242024FEF60E080E00F900F903A
:101C8000DF91CF911F910F910C94B50E9091ED0DB6
:101C900080E042960E945E14809396059091ED0D2F
:101CA00080E043960E945E14082F10E010934402D7
:101CB000009343022091960530E040E050E060E858
:101CC00079EA83E090E00E945A4E20939705309382
:101CD00098054093990550939A0558CF91E09093B9
:101CE00042029093EE0D1092EF0D1092F00D1092B3
:101CF000F10D1092F20D25EB3DE03093F40D2093A1
:101D0000F30D8093ED0D8EEE9DE00C94CC3586EEB8
:101D100090E00E94640D8EED9DE00C94CC351F92F6
:101D20000F920FB60F9211248F939F93AF93BF938F
:101D300080914D0290914E02A0914F02B0915002BD
:101D40000196A11DB11D80934D0290934E02A09368
:101D50004F02B0935002BF91AF919F918F910F901E
:101D60000FBE0F901F901895089590E1899F9001E4
:101D70001124309399002093980090E1699F90017D
:101D8000112430939D0020939C0090E1499F900185
:101D9000112430939B0020939A008093020E60934D
:101DA000030E4093040E08958091FD0D9091FE0D59
:101DB00001979093FE0D8093FD0D181619061CF0E7
:101DC00081E080930C0F4091040E40586091030E07
:101DD00060588091020E80580C94B50E20E1829FCD
:101DE000C0011124909399008093980080E1689F2E
:101DF000B001112470939D0060939C0020E1429FEC
:101E0000A001112450939B0040939A000895CF9312
:101E1000DF9380919C0290919D02892B59F18091D2
:101E20009902882339F1C0915702D09158029E013E
:101E3000A9E8B8E80E94264E9695879596958795CD
:101E4000969587954FE0489F9001499F300D11244A
:101E5000CE01821B930B039780F44091BF1E6091CB
:101E6000BE1E8091BD1E0E94EE0E2196D093580298
:101E7000C0935702DF91CF9108954091040E609175
:101E8000030E8091020E0E94EE0EEFCF0F93CF93C0
:101E9000DF9300D01F92CDB7DEB781E08B8302E0E5
:101EA0009E012F5F3F4F41E0BE016D5F7F4F8CE190
:101EB0000E9435460E946346998180E09093000E0F
:101EC0008093FF0D8091FF0D9091000E2A81822B4F
:101ED0009093000E8093FF0D83E08B839E012F5F14
:101EE0003F4F41E0BE016D5F7F4F8CE10E94354660
:101EF0000E946346998180E09093070F8093060FBC
:101F00008091060F9091070F2A81822B9093070FE3
:101F10008093060F85E08B839E012F5F3F4F41E04A
:101F2000BE016D5F7F4F8CE10E9435460E94634683
:101F3000998180E09093200F80931F0F80911F0F55
:101F40009091200F2A81822B9093200F80931F0F56
:101F500080E00F900F900F90DF91CF910F91089537
:101F6000CF93C82F8823F1F040E06FEF80E00E940C
:101F7000B50E2FEF81EE94E0215080409040E1F7C4
:101F800000C0000040E060E08FEF0E94B50E2FEF30
:101F900081EE94E0215080409040E1F700C00000C5
:101FA000C15011F7CF91089585E00C94B00F0F93B5
:101FB000CF93DF9300D000D0CDB7DEB78DE08C8318
:101FC00001E09E012D5F3F4F41E0BE016C5F7F4FFE
:101FD0008CE10E9435460E946346892B09F58B816E
:101FE0008A3219F084E10E94B00F8AE2898389E184
:101FF0008A8342E0BE016F5F7F4F8CE10E94F9450A
:102000000E946346892B19F084E10E94B00F80E0A2
:102010000F900F900F900F90DF91CF910F91089537
:1020200084E10E94B00FDBCF2091FD0D3091FE0DB9
:10203000121613060CF4089590E0880F991F9093E0
:10204000FE0D8093FD0D10920C0F84E690E0A0E051
:10205000B0E080930D0F90930E0FA0930F0FB093ED
:10206000100F84ED9EE09093120F8093110F8CE07F
:102070009FE00C94CC359AE09093770090917C008F
:10208000907C90937C0090917C00906C90937C006D
:1020900090917C00982B90937C0080917A00876CC3
:1020A00080937A0080917A0086FDFCCF20917800A1
:1020B00030917900932F937080E0AC01422B9A010C
:1020C000C9010895CF93DF9380E880936100109257
:1020D0006100F89480EF84B98BB1806E8BB98091E8
:1020E000680081608093680080916B0082608093BB
:1020F0006B0080916B00846080936B0080916B001B
:10210000886080936B008FB780688FBF88E18AB941
:102110008BB183608BB98FE78DB98FE383BB819AD5
:1021200089982FEF81EE94E0215080409040E1F7B4
:1021300000C0000082E00E943B10EC018198829A6E
:102140008A982FEF81EE94E0215080409040E1F793
:1021500000C0000081E00E943B108298C436D10587
:1021600024F4843691050CF453C082E08093050E6C
:1021700082E090E09093090F8093080F81E090E057
:1021800090930B0F80930A0F3AEA3093800029E175
:10219000209381008FEF9FE09093870080938600CB
:1021A0003093900020939100909397008093960035
:1021B0001092250110922401809173008260809317
:1021C0007300809121018C60809321018EE390E067
:1021D00090932901809328019093270180932601F1
:1021E00084B7877F84BF809160008861809360009E
:1021F0001092600080EC80937C0010927B008FEE48
:1022000080937A000E9411157894DF91CF91089500
:1022100083E08093050E84E090E09093090F809313
:10222000080F83E090E090930B0F80930A0FACCFE0
:10223000E82FF0E0EE0FFF1FE25DFF4E20813181BD
:10224000C90108950E941811BC0180E090E00E942D
:1022500094482DEC3CEC4CEC5FE30E94834920E079
:1022600030E040E85AE30E948349089580E00E94EC
:102270001811BC0180E090E00E9494482DEC3CECE9
:102280004CEC5FE30E94834920E030E040E85AE3F1
:102290000E9483492EE63BED46EB5EE30E94FB473E
:1022A0000895CF93DF93CDB7DEB72C970FB6F89490
:1022B000DEBF0FBECDBF69877A878B879C878091F1
:1022C0004D0290914E02A0914F02B091500289832D
:1022D0009A83AB83BC8329813A814B815C81898558
:1022E0009A85AB85BC85820F931FA41FB51F8D8374
:1022F0009E83AF83B887000020914D0230914E023B
:1023000040914F02509150028D819E81AF81B885DE
:1023100082179307A407B50778F72C960FB6F894A1
:10232000DEBF0FBECDBFDF91CF91089580916000D9
:10233000886180936000809160008D608093600070
:10234000FFCF4F925F926F927F92AF92BF92CF92E8
:10235000DF92EF92FF920F931F93CF93DF93CDB74E
:10236000DEB76E970FB6F894DEBF0FBECDBF0E94EA
:10237000460F6091FF0D7091000E882777FD8095C4
:10238000982F0E94964820E030E040E858E30E94F1
:1023900083492B013C016091060F7091070F88273C
:1023A00077FD8095982F0E94964820E030E040E825
:1023B00058E30E9483496B017C0160911F0F70916B
:1023C000200F882777FD8095982F0E94964820E05F
:1023D00030E040E858E30E9483495B018C01242DE2
:1023E000352D462D572D642D752D862D972D0E9448
:1023F00083492B013C012C2D3D2D4E2D5F2D6C2D45
:102400007D2D8E2D9F2D0E9483499B01AC01C30120
:10241000B2010E9490476B017C012A2D3B2D402F79
:10242000512F6A2D7B2D802F912F0E9483499B0174
:10243000AC01C701B6010E9490470E94F0497B01A0
:102440008C0180914D0290914E02A0914F02B0916B
:10245000500240919C0550919D0560919E057091A0
:102460009F05841B950BA60BB70B8B3F9105A10510
:10247000B10508F0C9C0A090A005B090A105C0901A
:10248000A205D090A3052E2D3F2D402F512F6A2D50
:102490007B2D8C2D9D2D0E948F475B016C0120E0D0
:1024A00030E0A9017B2D9D2D0E94F44787FDCBC014
:1024B0002AE939E949E15FE36A2D7B2D8C2D9D2DB9
:1024C0000E947F4918160CF06EC010920B02BB24BC
:1024D000B394B0920C0280919C0290919D02892B42
:1024E00029F48091C41E882309F4BAC08091C41EC7
:1024F000811159C080914D0290914E02A0914F02DE
:10250000B091500240915302509154026091550293
:1025100070915602841B950BA60BB70B843F91401C
:10252000A105B10508F45BC083ED89838EE08A8341
:102530001B821C821D821E8280919C0290919D02B2
:102540009F8380919C0290919D0288878091BD1EFF
:1025500089878091BE1E8A878091BF1E8B8780915C
:102560009A0290919B029C8780919A0290919B0283
:102570008D8782E18E8720E04FEF5FEF6EE0CE0126
:1025800001960E94473580914D0290914E02A09194
:102590004F02B09150028093530290935402A09343
:1025A0005502B09356028E2D9F2DA02FB12F8093F0
:1025B000A0059093A105A093A205B093A3058091D7
:1025C0004D0290914E02A0914F02B0915002809323
:1025D0009C0590939D05A0939E05B0939F056E96D4
:1025E0000FB6F894DEBF0FBECDBFDF91CF911F9124
:1025F0000F91FF90EF90DF90CF90BF90AF907F90C2
:102600006F905F904F9008958E2D9F2DA02FB12F2A
:102610008093A0059093A105A093A205B093A30574
:1026200080914D0290914E02A0914F02B0915002C4
:1026300080939C0590939D05A0939E05B0939F0564
:102640005701680120CF2AE939E949E15FEB6A2D9A
:102650007B2D8C2D9D2D0E94F44787FFA4CF35CF75
:1026600080914D0290914E02A0914F02B091500284
:102670008093C51E9093C61EA093C71EB093C81E1C
:1026800080914D0290914E02A0914F02B091500264
:102690000E942B5040904D0250904E0260904F028D
:1026A000709050020E9427506C01C301B2010E9439
:1026B00094482B013C01B601882777FD8095982F1F
:1026C0000E94964820E03EEF4FEF56E40E94FB4701
:1026D00020E030E44CE954E40E9483499B01AC01C2
:1026E000C301B2010E94904720E030E04AE753E482
:1026F0000E9490470E9468486093C91E7093CA1E4A
:102700008093CB1E9093CC1EB092C41E4CCFCF931F
:10271000DF93CDB7DEB7AD970FB6F894DEBF0FBE2F
:10272000CDBF0E9425270E9462100E94ED450E94A5
:10273000D70F882321F08AE00E94B00FFCCF0E94BF
:10274000210D0E9448320E94853880914802909164
:102750004902A0914A02B0914B028A279B270E940E
:102760002B500E942D261F8E8FE090E0A0E0B0E05D
:1027700088A399A3AAA3BBA385E890E29DA38CA3F9
:10278000CE014F960E94CC35188A84E690E0A0E0F6
:10279000B0E0898B9A8BAB8BBC8B87E09FE09E8BE4
:1027A0008D8BCE0140960E94CC35198280E091E05D
:1027B000A0E0B0E08A839B83AC83BD838FEA93E47F
:1027C0009F838E83CE0101960E94CC354FEF60E04F
:1027D00080E00E94B50E0E9414090E9454360E94A7
:1027E00014090E946A300E946F460E9414090E94D8
:1027F000AB320E94E20C0E9414090E94343A80918C
:102800000B02882341F30E94A111E5CFCF92DF9202
:10281000EF92FF926B017C0120E030E0A9010E9461
:10282000F44787FD1AC020E030E0A901C701B601D6
:102830000E947F49181674F490E88FE350E040E05E
:102840009C01652F742F832F922FFF90EF90DF90C4
:10285000CF90089590E080E0F1CF90E88FEBEECF3D
:10286000E0915902E11103C0F894E09159027FEF21
:1028700054E144E2F999FECF2AE030E00000215013
:102880003109E1F792BD81BD70BD5FBBF99AF9993D
:10289000FECF2AE030E0000021503109E1F760BDB1
:1028A0004FBBF99AF999FECF92BD81BDF89A20B538
:1028B0006213E0CFE11101C078940895209159028C
:1028C000211103C0F89420915902F999FECF92BDCD
:1028D00081BDF89A211101C0789480B50895EF92D6
:1028E000FF920F931F93CF93DF938C01F89481E0B5
:1028F00080935902141615066CF4EB017B01E40E6B
:10290000F51E6991C8010E9430140F5F1F4FCE154C
:10291000DF05B9F7109259027894DF91CF911F919A
:102920000F91FF90EF900895EF92FF920F931F93F6
:10293000CF93DF93F89421E02093590214161506E3
:1029400084F4EB017B01E40EF51E8C01061B170BD2
:10295000C8018C0F9D1F0E945E148993CE15DF0560
:10296000B9F7109259027894DF91CF911F910F918E
:10297000FF90EF9008951F920F920FB60F921124BF
:102980000BB60F922F933F934F935F938F939F9329
:10299000EF93FF93809160028F5F8093600283309A
:1029A000D0F11092600240916102E42FF0E080913A
:1029B000780090E0EE0FFF1FE25DFF4E9183808371
:1029C0008081918150917900352F337020E0822BE6
:1029D000932B918380834F5F483000F540936102D1
:1029E00080917C00807E80937C0080917C0090911F
:1029F0006102892B80937C00FF91EF919F918F91D1
:102A00005F914F913F912F910F900BBE0F900FBE92
:102A10000F901F9018958111EFCFC5CF10926102D2
:102A2000DFCF8F929F92AF92BF92CF92DF92EF92C1
:102A3000FF920F931F93CF93DF938CE091E0E2E23C
:102A4000FFE0DF019C011D9221503040E1F720E0C2
:102A500030E003E441E2842E41E3942E48E9A42EC1
:102A600044E4B42E50E5C52E57E7D52E56EDE52E9D
:102A70005DE3F52E4FEF5FEFBA01CFEFDFEF10E828
:102A800083EF96E6AFEDBFE3029FF001039FF00DE9
:102A90001124EE5DF04F1082118212821382148293
:102AA00085829682A782B086C186D286E386F48626
:102AB000158616861786108A128A118A148A138A36
:102AC000158A168A178A108E118E138E128E448FD5
:102AD000558F668F778FD1A3C0A312A386A397A328
:102AE000A0A7B1A712A613A614A615A613AA12AAE8
:102AF0002F5F3F4F2330310539F6DF91CF911F9182
:102B00000F91FF90EF90DF90CF90BF90AF909F908C
:102B10008F9008952F923F924F925F926F927F9283
:102B20008F929F92AF92BF92CF92DF92EF92FF92DD
:102B30000F931F93CF93DF93CDB7DEB729970FB6CF
:102B4000F894DEBF0FBECDBF98878F83809174024B
:102B500090917502892B09F4A6C18F8198858130E7
:102B6000910509F4E5C014F004972CF10E94D40FEC
:102B700000E010E060E8E62E7FEBF72E602F712F6B
:102B80008E2D9F2D29960FB6F894DEBF0FBECDBFB8
:102B9000DF91CF911F910F91FF90EF90DF90CF9039
:102BA000BF90AF909F908F907F906F905F904F906D
:102BB0003F902F9008958091080F0E9422116B0181
:102BC0007C0180910A0F0E9422114B015C01F0915F
:102BD0007A02F98380917B028A8320907C02309074
:102BE0007D0220E030E040E05FE3BF2F6B2F782FC5
:102BF000822D932D0E9483498B0189879F836B834C
:102C00001C838D839E83762F982F8F81272F312FC2
:102C1000492F582FC701B6010E948F47562E472EC5
:102C20003C01C62ED72E7C0199858F81202F312F14
:102C3000492F582FC501B4010E948F47862E972E29
:102C4000A82EB92E80917E0290917F02813091054D
:102C500009F4AEC2029709F415C320E030E04AEA55
:102C600053E4C701B6010E948349B981AA812B2F81
:102C70003A2F422D532D0E94FB47462F572F682F86
:102C8000792FDB01CA01BC01CD0190582BED3FE04B
:102C900049E450E40E94834920E030E044E353E4F7
:102CA0000E94FB472091990F30919A0F40919B0F02
:102CB00050919C0F0E9490478B017C012BED3FE0CF
:102CC00049E450EC712F9F2D0E94F44718161CF117
:102CD0002BED3FE049EC50E4602F712F8E2D9F2D9E
:102CE0000E9490478B017C012BED3FE049E450ECC2
:102CF000712F9F2D0E94F447181654F73FCF2BEDEC
:102D00003FE049EC50E4602F712F8E2D9F2D0E94E3
:102D10008F478B017C012BED3FE049E450E4602FAD
:102D2000712F8E2D9F2D0E947F49181644F326CFB8
:102D300086E00E9422116B017C0185E00E94221135
:102D40004B015C01909176029983E0917702EA83CE
:102D5000209078023090790220E030E040E05FE39C
:102D6000AE2F692F7A2F822D932D0E9483498B01DC
:102D700089879F836B831C838D839E83762F982FF7
:102D80008F81272F312F492F582FC701B6010E945D
:102D90008F47562E472E3C01C62ED72E7C01998593
:102DA0008F81202F312F492F582FC501B4010E9448
:102DB0008F47862E972EA82EB92E8091740290915F
:102DC00075028130910509F42CC1029709F493C171
:102DD00020E030E04AEA53E4C701B6010E9483498B
:102DE000B981AA812B2F3A2F422D532D0E94FB47E8
:102DF000462F572F682F792FDB01CA01BC01CD0167
:102E000090582BED3FE049E450E40E94834920E0D4
:102E100030E044E353E40E94FB472091560F309189
:102E2000570F4091580F5091590F0E9490478B01B6
:102E30007C012BED3FE049E450EC712F9F2D0E9467
:102E4000F44718161CF12BED3FE049EC50E4602FDD
:102E5000712F8E2D9F2D0E9490478B017C012BEDB1
:102E60003FE049E450EC712F9F2D0E94F447181663
:102E700054F784CE2BED3FE049EC50E4602F712FE6
:102E80008E2D9F2D0E948F478B017C012BED3FE003
:102E900049E450E4602F712F8E2D9F2D0E947F49B1
:102EA000181644F36BCE86E00E9422116B017C0160
:102EB00020E030E040E05FE36091760270917702BD
:102EC00080917802909179020E9483499B01AC0124
:102ED000C701B6010E948F471B018C012B013C01E9
:102EE00085E00E9422116B017C0120E030E040E08F
:102EF0005FE3609176027091770280917802909101
:102F000079020E9483499B01AC01C701B6010E946E
:102F10008F47862E972EA82EB92E20E030E0A901EB
:102F2000B101C8010E94F44787FD1FC220E030E0D4
:102F3000A901C501B4010E94F44787FD11C2A50192
:102F40009401C301B2010E94F44787FD63C082E08F
:102F500090E090937502809374028091080F0E9414
:102F600022116B017C0120E030E040E05FE36091E2
:102F70007A0270917B0280917C0290917D020E9486
:102F800083499B01AC01C701B6010E948F471B0119
:102F90008C012B013C0180910A0F0E9422116B01D0
:102FA0007C0120E030E040E05FE360917A027091C4
:102FB0007B0280917C0290917D020E9483499B015B
:102FC000AC01C701B6010E948F47862E972EA82E0E
:102FD000B92E20E030E0A901B101C8010E94F447F8
:102FE00087FDB9C120E030E0A901C501B4010E940C
:102FF000F44787FDABC1A5019401C301B2010E9452
:10300000F44787FF9CC181E090E090937F0280931A
:103010007E02A3CD81E090E09093750280937402CC
:103020009CCF20E030E0A901652D742DC3010E94E2
:10303000F44787FDDBC1852D942DD3012C013D0183
:1030400026E636E646E65FE3F985EF81602F712FCD
:103050008F2F9E2F0E9483499B01AC01C301B201B7
:103060000E947F4918160CF0B3CEA5019401C70148
:10307000B6010E948F478B011C012B013C0120E00F
:1030800030E0A9010E94F44787FDE0C120E030E074
:103090004AEA53E4B801C1010E94834920E030E0CC
:1030A00044E353E40E94FB4769837A831C015981FE
:1030B0004A81852F942FA22DB32D80937602909371
:1030C0007702A0937802B093790282E090E0909327
:1030D00075028093740220E030E040E05FE3B98144
:1030E000AA816B2F7A2F822D932D0E9483496B83A7
:1030F0007C838D839E8320E030E0A901C501B4016B
:103100000E94F4472401350187FD83C126E636E697
:1031100046E65FE3BB81AC81ED811E816B2F7A2F88
:103120008E2F912F0E9483499B01AC01C301B201F4
:103130000E947F4918160CF01DC1A5019401C7011A
:10314000B6010E948F478B013C01CB01D3014C019A
:103150005D0120E030E0A901B801C3010E94F447FD
:1031600087FD6CC120E030E04AEA53E4B801C301B6
:103170000E94834920E030E044E353E40E94FB478F
:1031800069837A831C0159814A81852F942FA22D4E
:10319000B32D8093760290937702A0937802B09338
:1031A000790281E090E0909375028093740210CED2
:1031B00020E030E0A901652D742DC3010E94F44781
:1031C00087FD1BC1852D942DD3012C013D0126E6E1
:1031D00036E646E65FE3F985EF81602F712F8F2F8A
:1031E0009E2F0E9483499B01AC01C301B2010E9442
:1031F0007F4918160CF031CDA5019401C701B60125
:103200000E948F478B011C012B013C0120E030E024
:10321000A9010E94F44787FD01C120E030E04AEA9D
:1032200053E4B801C1010E94834920E030E044E347
:1032300053E40E94FB4769837A831C0159814A81C8
:10324000852F942FA22DB32D80937A0290937B0229
:10325000A0937C02B0937D0282E090E090937F0285
:1032600080937E0220E030E040E05FE3B981AA81F4
:103270006B2F7A2F822D932D0E9483496B837C8341
:103280008D839E8320E030E0A901C501B4010E9436
:10329000F4472401350187FDB7C026E636E646E649
:1032A0005FE3BB81AC81ED811E816B2F7A2F8E2F66
:1032B000912F0E9483499B01AC01C301B2010E947E
:1032C0007F4918160CF074C0A5019401C701B6011E
:1032D0000E948F478B013C01CB01D3014C015D0162
:1032E00020E030E0A901B801C3010E94F44787FD46
:1032F0009DC020E030E04AEA53E4B801C3010E94D7
:10330000834920E030E044E353E40E94FB476983B3
:103310007A831C0159814A81852F942FA22DB32DC8
:1033200080937A0290937B02A0937C02B0937D02FB
:1033300081E090E090937F0280937E028ECC82E0C9
:1033400090E090937F0280937E0207CCB7FAB0940E
:10335000B7F8B09450CE77FA709477F8709442CE64
:10336000B7FAB094B7F8B094EACD77FA709477F8DA
:103370007094DCCD20E030E04AEA53E4C501B401AA
:103380000E948349B981AA812B2F3A2F422D532DB8
:103390000E94FB4720E030E044E353E40E94904762
:1033A000472F382F292F862F942FA32FB22F26CDCA
:1033B00020E030E04AEA53E4C501B4010E948349A9
:1033C000B981AA812B2F3A2F422D532D0E94FB4702
:1033D00020E030E044E353E40E949047472F382F29
:1033E000292F862F942FA32FB22F4DCC26013701E2
:1033F00077FA709477F8709423CE2601370177FA24
:10340000709477F87094E3CE77FA709477F87094AC
:1034100044CF77FA709477F8709478CEC301B201F4
:10342000905820E030E04AEA53E4FDCEC501B401F3
:10343000905820E030E04AEA53E461CFC501B4017E
:10344000905820E030E04AEA53E492CEC301B20142
:10345000905820E030E04AEA53E41ECE0F931F93C9
:10346000CF93DF938B01D82FC92F2BED3FE049E499
:1034700050ECFE01712F8F2F9E2F0E94F4471816DB
:1034800094F12BED3FE049EC50E4FE01602F712FE9
:103490008F2F9C2F0E9490478B01D82FC92F2BED87
:1034A0003FE049E450ECFE01712F8F2F9E2F0E94C8
:1034B000F447181634F79E01602F712F832F9C2F2D
:1034C000DF91CF911F910F9108952BED3FE049ECD3
:1034D00050E4FE01602F712F8F2F9C2F0E948F4789
:1034E0008B01D82FC92F2BED3FE049E450E4FE01BA
:1034F000602F712F8F2F9C2F0E947F4918162CF35D
:10350000DACF2091050E2230F9F0233019F101971E
:1035100023E4289FF001299FF00D1124EE5DF04F68
:1035200082E080834183528363837483128A118A89
:103530008DE491E0A0E0B0E0848F958FA68FB78FE7
:1035400020E030E0C90108958230910501F72FEFA6
:103550003FEFF8CF83309105D1F6F9CF2F923F920C
:103560004F925F926F927F928F929F92AF92BF9293
:10357000CF92DF92EF92FF920F931F93CF93DF933F
:10358000CDB7DEB72A970FB6F894DEBF0FBECDBF1A
:103590005C012A013B01680179011091050E12308E
:1035A00009F4F3C0133009F4F7C020E030E0A901BA
:1035B000C701B6010E94F447882309F4BCC0C501C5
:1035C000019723E4289FD001299FB00D1124AE5DFF
:1035D000B04FBA87A9879E968D919D910D90BC9111
:1035E000A02D89839A83AB83BC839C01AD01C30169
:1035F000B2010E948F47362E872E982E092F20E089
:1036000030E0A9010E94F44787FD98C023EC38EB15
:1036100042E35EE3632D782D892D902F0E94F447BD
:1036200087FD99C020E030E0A901C701B6010E94E2
:10363000F44787FDC0C0A7019601632D782D892D21
:10364000902F0E94FB4720E030E04AE754E40E94BC
:103650008349262EA72EB82E192F20E030E0A9018D
:10366000632D782D892D902F0E947F4918160CF01C
:10367000D1C0A985BA859A96CD92DD92ED92FC9241
:103680009D9789819A81AB81BC81E985FA85818387
:103690009283A383B483158616861786108A20E04A
:1036A00030E040E751E4622D7A2D8B2D912F0E945E
:1036B000FB475B018C016B017C0120E030E0A9013C
:1036C0000E94F44787FDA0C0B501C8010E9463486D
:1036D000CB01AA2797FDA095BA2FE985FA85848F9B
:1036E000958FA68FB78F128A118A468A578A608E65
:1036F000718E81E090E0938F828F83E0808320E061
:1037000030E0C9012A960FB6F894DEBF0FBECDBFD8
:10371000DF91CF911F910F91FF90EF90DF90CF90AD
:10372000BF90AF909F908F907F906F905F904F90E1
:103730003F902F90089520E030E0E3CF23EC38EB6A
:1037400042E35EEB632D782D892D902F0E947F49F7
:1037500018160CF067CF123049F1133011F182E0E6
:10376000A985BA858C93FD0141825282638274825D
:10377000128A118A8DE491E0A0E0B0E0848F958FE9
:10378000A68FB78F20E030E0BCCF8230910509F0E2
:103790000CCF2FEF3FEFB5CF8330910509F005CF68
:1037A000F8CFE3E0AE16B104D1F6F3CFB2E0AB163A
:1037B000B104A9F6EECFD701C601B0588D839E8320
:1037C000AF83B8879C01AD01632D782D892D902F93
:1037D0000E94FB4720E030E04AE754E40E9483491E
:1037E000262EA72EB82E192F20E030E0A901632D38
:1037F000782D892D902F0E947F4918167CF4CD805A
:10380000DE80EF80F88435CFC701B60190580E9462
:1038100063485ECFF7FAF094F7F8F094E985FA85FB
:10382000C2A6D3A6E4A6F5A62CCF2F923F924F9224
:103830005F926F927F928F929F92AF92BF92CF9240
:10384000DF92EF92FF920F931F93CF93DF93CDB749
:10385000DEB72A970FB6F894DEBF0FBECDBF5C016E
:103860002A013B01680179011091050E123009F41B
:103870000BC1133009F40FC120E030E0A901C701EA
:10388000B6010E94F447882309F4D4C0C50101970A
:1038900023E4289FD001299FB00D1124AE5DB04FC5
:1038A000BA87A9879E968D919D910D90BC91A02D70
:1038B00089839A83AB83BC83E985FA8562A973A95E
:1038C000882777FD8095982F0E9496482BED3FE042
:1038D00049EC50E40E9483499B01AC0169817A81E3
:1038E0008B819C810E9490479B01AC01C301B20176
:1038F0000E948F47362E872E982E092F20E030E029
:10390000A9010E94F44787FD98C023EC38EB42E3FD
:103910005EE3632D782D892D902F0E94F44787FD5B
:1039200099C020E030E0A901C701B6010E94F44728
:1039300087FDC0C0A7019601632D782D892D902F9A
:103940000E94FB4720E030E04AE754E40E948349AC
:10395000262EA72EB82E192F20E030E0A901632DC6
:10396000782D892D902F0E947F4918160CF0D1C018
:10397000A985BA859A96CD92DD92ED92FC929D979B
:1039800089819A81AB81BC81E985FA8581839283A3
:10399000A383B483158616861786108A20E030E04C
:1039A00040E751E4622D7A2D8B2D912F0E94FB4729
:1039B0005B018C016B017C0120E030E0A9010E94D9
:1039C000F44787FDA0C0B501C8010E946348CB0140
:1039D000AA2797FDA095BA2FE985FA85848F958F40
:1039E000A68FB78F128A118A468A578A608E718E87
:1039F00081E090E0938F828F83E0808320E030E04D
:103A0000C9012A960FB6F894DEBF0FBECDBFDF9175
:103A1000CF911F910F91FF90EF90DF90CF90BF90CB
:103A2000AF909F908F907F906F905F904F903F905E
:103A30002F90089520E030E0E3CF23EC38EB42E311
:103A40005EEB632D782D892D902F0E947F491816EB
:103A50000CF067CF123049F1133011F182E0A985E3
:103A6000BA858C93FD014182528263827482128AEC
:103A7000118A8DE491E0A0E0B0E0848F958FA68F4D
:103A8000B78F20E030E0BCCF8230910509F0F4CE52
:103A90002FEF3FEFB5CF8330910509F0EDCEF8CF92
:103AA00043E0A416B104D1F6F3CFF2E0AF16B104AF
:103AB000A9F6EECFD701C601B0588D839E83AF83A0
:103AC000B8879C01AD01632D782D892D902F0E9420
:103AD000FB4720E030E04AE754E40E948349262E69
:103AE000A72EB82E192F20E030E0A901632D782DE4
:103AF000892D902F0E947F4918167CF4CD80DE809E
:103B0000EF80F88435CFC701B60190580E94634812
:103B10005ECFF7FAF094F7F8F094E985FA85C2A63B
:103B2000D3A6E4A6F5A62CCF2F923F924F925F9298
:103B30006F927F928F929F92AF92BF92CF92DF92BD
:103B4000EF92FF920F931F93CF93DF93CDB7DEB722
:103B50002A970FB6F894DEBF0FBECDBF5C012A01D5
:103B60003B01680179013090050E42E0341609F4FA
:103B700025C183E0381609F428C1C501019723E463
:103B8000289FD001299FB00D1124AE5DB04FBA8798
:103B9000A9879E968D919D910D90BC91A02D8983B2
:103BA0009A83AB83BC839C01AD01C301B2010E9427
:103BB0008F474B018C012BED3FE049E450EC792D10
:103BC000912F0E94F44718160CF4C0C02BED3FE073
:103BD00049EC50E4682D792D802F912F0E94904759
:103BE0004B018C012BED3FE049E450EC792D912FF6
:103BF0000E94F447181654F720E030E0A901682D20
:103C0000792D802F912F0E94F44787FDACC023ECC3
:103C100038EB42E35EE3682D792D802F912F0E94CF
:103C2000F44787FDADC020E030E0A901C701B6012F
:103C30000E94F44787FDCFC0A7019601682D792D1A
:103C4000802F912F0E94FB4720E030E04AE754E4A8
:103C50000E9483491B015C0120E030E0A901682D2E
:103C6000792D802F912F0E947F4918160CF0E6C005
:103C7000A985BA859A96CD92DD92ED92FC929D9798
:103C800089819A81AB81BC81E985FA8581839283A0
:103C9000A383B483158616861786108A20E030E049
:103CA00040E751E4622D732D8A2D9B2D0E94FB4726
:103CB0005B018C016B017C0120E030E0A9010E94D6
:103CC000F44787FDB5C0B501C8010E946348CB0128
:103CD000AA2797FDA095BA2FE985FA85848F958F3D
:103CE000A68FB78F128A118A468A578A608E718E84
:103CF00081E090E0938F828F83E0808320E030E04A
:103D0000C9012A960FB6F894DEBF0FBECDBFDF9172
:103D1000CF911F910F91FF90EF90DF90CF90BF90C8
:103D2000AF909F908F907F906F905F904F903F905B
:103D30002F9008952BED3FE049EC50E4682D792D4C
:103D4000802F912F0E948F474B018C012BED3FE07C
:103D500049E450E4682D792D802F912F0E947F49EE
:103D6000181644F349CF23EC38EB42E35EEB682DA1
:103D7000792D802F912F0E947F4918160CF053CF78
:103D8000B2E03B1609F44EC0F3E03F1609F461C0FF
:103D900082E0A985BA858C93FD01418252826382BB
:103DA0007482128A118A8DE491E0A0E0B0E0848FE1
:103DB000958FA68FB78F20E030E0A2CF823091059B
:103DC00009F0DBCE2FEF3FEF9BCF93E0A916B104B4
:103DD00009F0D3CEF7CFD701C601B0588D839E83AB
:103DE000AF83B8879C01AD01682D792D802F912F6D
:103DF0000E94FB4720E030E04AE754E40E948349F8
:103E00001B015C0120E030E0A901682D792D802F95
:103E1000912F0E947F491816ACF4CD80DE80EF8090
:103E2000F88426CFE2E0AE16B10409F0B1CFCACFD4
:103E3000C701B60190580E94634849CFF7FAF09441
:103E4000F7F8F094E985FA85C2A6D3A6E4A6F5A60C
:103E500017CF43E0A416B10409F09ACFB3CF209155
:103E6000050E223049F1233091F1019723E4289F78
:103E7000F001299FF00D1124EE5DF04F20812230DA
:103E800001F1233021F0213011F080E0089523E486
:103E9000289FF001299FF00D1124EE5DF04F20E0E6
:103EA00030E0A90162A573A584A595A50E947F496C
:103EB00018168CF481E0089582309105B1F68FEFE9
:103EC000089581899289892BA9F383E0089583302D
:103ED000910559F6F4CF82E008956235A9F0633573
:103EE00081F0663459F0A098A19820E1829FC0012A
:103EF000112490938900809388000895A09AA19836
:103F0000F4CFA09AA19AF1CFA098A19AEECF6235F2
:103F1000A9F0633581F0663459F0A298A59820E1A4
:103F2000829FC001112490938B0080938A00089592
:103F3000A29AA598F4CFA29AA59AF1CFA298A59A91
:103F4000EECF0F931F938A019B0177FD28C0F801E4
:103F50000F3F110519F010F0EFEFF0E081309105FF
:103F600091F074F0049764F477FD33C0452B462B31
:103F7000472BE9F066E48E2F1F910F910C94871F59
:103F80001F910F91089577FD1EC0452B462B472B9F
:103F9000A1F066E48E2F1F910F910C946D1F0027E6
:103FA00011279801041B150B260B370BD0CF6EE49D
:103FB0008E2F1F910F910C94871F6EE48E2F1F91EF
:103FC0000F910C946D1F62E58E2F1F910F910C9431
:103FD0006D1F62E58E2F1F910F910C94871FCF9359
:103FE000DF939C012150310943E4429FE001439F4C
:103FF000D00D1124CE5DD04F4D89413061F142305A
:10400000E1F0442309F471C0433011F54881423096
:1040100009F463C0433009F470C043E4429FF001E7
:10402000439FF00D1124EE5DF04F46A557A560A902
:1040300071A9DF91CF910C94811A20E030E0A901A1
:104040006EA17FA188A599A50E94F44781112AC07D
:10405000DF91CF91089520E030E0A9016EA17FA10A
:1040600088A599A50E94F447882391F383E088836B
:104070008FEF9FEFDC018C8F9D8FAE8FBF8F8EA552
:104080009FA5A8A9B9A989839A83AB83BC838EA174
:104090009FA1A8A5B9A58AA79BA7ACA7BDA7DF919B
:1040A000CF91089583E088838FEF9FEFDC018C8FA1
:1040B0009D8FAE8FBF8F8EA59FA5A8A9B9A9898313
:1040C0009A83AB83BC838EA19FA1A8A5B9A5B05844
:1040D0008AA79BA7ACA7BDA7BBCF49895A89452B07
:1040E00009F49BCF1C8A1B8AB3CF188240E050E0B2
:1040F000BA01DF91CF910C94A11F49815A816B8144
:104100007C81DF91CF910C94811A2F923F924F9234
:104110005F926F927F928F929F92AF92BF92CF9257
:10412000DF92EF92FF920F931F93CF93DF93CDB760
:10413000DEB768970FB6F894DEBF0FBECDBF82E240
:104140009FE09A83898307E31FE0E4E62E2EE2E0F6
:104150003E2EA4E4BFE0B887AF83EAE5FFE0FE832C
:10416000ED838BE59FE09A87898744244394512C03
:10417000A2E0B0E0BC83AB83188F0F8B0E941409C0
:104180008091050E823029F4F2E04F16510409F4B3
:10419000E2C08B819C8102979C878B87C2010E9421
:1041A0008A153B014C01862F972DA82DB92DEF893B
:1041B000F88D818F928FA38FB48F8F013C8A2B8AC9
:1041C000AB89BC89CD90DD90ED90FC90A701960164
:1041D000662D772D882D992D0E948F471B015C013C
:1041E0002BED3FE049E450EC732D9B2D0E94F447EA
:1041F00018160CF44CC02BED3FE049EC50E4622D56
:10420000732D8A2D9B2D0E9490471B015C012BED85
:104210003FE049E450EC732D9B2D0E94F4471816A3
:1042200054F723EC38EB42E35EE3622D732D8A2DC5
:104230009B2D0E947F491816BCF5809162029091D7
:1042400063020B978CF5C2010E948A153B014C0159
:10425000862F972DA82DB92DF801818F928FA38FCE
:10426000B48F8091620290916302019690936302F1
:1042700080936202A5CF2BED3FE049EC50E4622D24
:10428000732D8A2D9B2D0E948F471B015C012BED06
:104290003FE049E450E4622D732D8A2D9B2D0E944E
:1042A0007F49181644F3BDCF2B883C88188F0F8B9D
:1042B000109263021092620220E030E040E250EC83
:1042C000662D772D882D992D0E94F44787FF6DC0AC
:1042D00020E030E040E250E4C701B6010E947F498F
:1042E00018160CF062C0EF89F88D858D968D0196B9
:1042F000968F858F618C728C838C948C862D972DF4
:10430000A82DB92DF10180839183A283B383A98164
:10431000BA818C91823009F47DC108F074C081119A
:1043200033C2E981FA81848D958DA68DB78D009772
:10433000A105B10509F41FC44CF00197A109B10909
:10434000E981FA81848F958FA68FB78FEB81FC81ED
:10435000349709F446C1EB81FC813196FC83EB83F1
:1043600089819A818D5B9F4F9A838983AF89B88DAC
:10437000AD5BBF4FB88FAF8BBFEF4B1A5B0AE4E06A
:104380002E0E311C8F8198858D5B9F4F98878F8370
:10439000AD81BE81AD5BBF4FBE83AD83E985FA853C
:1043A000ED5BFF4FFA87E987E9CE20E030E040E29D
:1043B00050E4662D772D882D992D0E947F4918167F
:1043C0000CF09CCF20E030E040E250ECC701B60199
:1043D0000E94F44787FF92CFAF89B88D5D968D918B
:1043E0009C915E9701975E969C938E935D975996EC
:1043F0006C9059975A967C905A975B968C905B97E5
:104400005C969C907BCF833009F4E3C1843009F043
:104410009DCF60914D0270914E0280914F0290911C
:1044200050020E94944820E030E04AE754E40E94A1
:10443000FB476D877E878F87988BA985BA856C919E
:10444000772767FD7095872F972F0E94964820E069
:1044500030E040E05CE30E94834920E030E040EA45
:1044600050E40E94834920E030E040E05FE30E9496
:1044700083497B016C0123E4EB85FC852E9F300191
:104480002F9F700C112481E69FE0680E791E01E0D9
:1044900010E0AF89B88DBC87AB875C8A4B8A3E8AB7
:1044A0002D8A3E2C2F2C5C2C4D2C788E6F8AB801D7
:1044B000882777FD8095982F0E9496482BED3FE046
:1044C00049EC50E40E948349BD85AE85EF85F888AC
:1044D0002B2F3A2F4E2F5F2D0E94834920E030E092
:1044E00040E251E40E94FB476B017C017D2D9F2D32
:1044F0000E94E6494B015C01F30135976081772703
:1045000067FD7095872F972F0E94964820E030E036
:1045100040E05CE30E94834920E030E040EA50E460
:104520000E948349A50194010E948349D101F201AF
:104530002B2F322D4F2F542D0E9490474B015C01A1
:10454000BFEF6B1A7B0A6C2D7D2D8E2D9F2D0E9447
:10455000F8476B017C01EF89F88D6081772767FD53
:104560007095872F972F0E94964820E030E040E01A
:104570005CE30E94834920E030E040EA50E40E947E
:104580008349A70196010E948349282D392D4A2D80
:104590005B2D0E949047362E272E582E492E0F5FF6
:1045A0001F4F0530110509F080CF8B859C85988FB2
:1045B0008F8BE32CF22C2D883E88C52CD42C4B8875
:1045C0005C888E2D9F2DAC2DBD2DE981FA818183D4
:1045D0009283A383B483128A118A8FEF9FEFDC0149
:1045E0002AC068960FB6F894DEBF0FBECDBFDF912C
:1045F000CF911F910F91FF90EF90DF90CF90BF90E0
:10460000AF909F908F907F906F905F904F903F9072
:104610002F900895E981FA81848D958DA68DB78DAF
:104620000097A105B10509F4C0C0B4F00197A10934
:10463000B109E981FA81848F958FA68FB78FAF89F1
:10464000B88D59966C9059975A967C905A975B966C
:104650008C905B975C969C90262D372D482D592D7C
:10466000E981FA8161817281838194810E948F47FF
:10467000B62EA72E182F092FC62ED72EE82EF92ECC
:104680002BED3FE049E450EC0E94F44718160CF083
:1046900007C22BED3FE049E450E46B2D7A2D812FCA
:1046A000902F0E947F491816F4F40F89188D2BED76
:1046B0003FE049EC50E4C701B6010E948F47B62F96
:1046C000A72F462F572F682F792F6A017B012BEDDB
:1046D0003FE049E450E46B2F7A2F0E947F4918167F
:1046E00034F3188F0F8B20E030E0A901C701B60129
:1046F0000E94F44787FDB0C123EC38EB42EB5DE349
:10470000C701B6010E94F44787FDB1C1A981BA81F2
:1047100051968D919C915297892B09F4A6C020E067
:1047200030E0A901C701B6010E94F44787FD12C21B
:10473000C701B60120915C0230915D0240915E029A
:1047400050915F020E947F4918160CF08EC0ED81D7
:10475000FE8120812F5F208330E080915A0290916A
:104760005B028217930708F083C0A981BA811C926B
:1047700040E050E0BA01C2010E94A11FEB81FC8120
:10478000349709F0E8CD2DCF813009F0DFCDAF8926
:10479000B88D8C918111A1C1E981FA811082EB81E0
:1047A000FC81349709F0D7CD1CCF81899289892B60
:1047B00009F4D4C18FEF9FEFDC01E981FA81848F86
:1047C000958FA68FB78FEB81FC81349709F0C3CD0D
:1047D00008CFE981FA81848D958DA68DB78D0097DC
:1047E000A105B10509F08BC081E090E0928B818B2F
:1047F000DF01158616861786108AEF89F88D1486D4
:104800001386F2E0FC935A968D919C915B97892BCD
:1048100059F0FD0186899789A08DB18D818392839E
:10482000A383B483138E128EEFEFFFEFAF89B88DA1
:104830001C96FC93EE931B97A981BA8153968D9198
:104840009C915497892B09F4B5CF82E490E0A0E0C5
:10485000B0E0E981FA81848F958FA68FB78FEB81C5
:10486000FC81349709F077CDBCCEED81FE811082BA
:10487000A981BA8115962D913D914D915C91189722
:10488000C701B6010E9483494B015C01E981FA81AD
:104890002585368547855089618572858385948510
:1048A0000E9483499B01AC01C501B4010E9490475D
:1048B0000E946348AB01BC01C2010E94A11F2FE806
:1048C00032EC45E75CE3C701B6010E9483499B01D6
:1048D000AC01A981BA811D966D917D918D919C91BC
:1048E00050970E949047E981FA816587768787878C
:1048F000908BEB81FC81349709F02DCD72CE181688
:1049000019061A061B064CF40197A109B109E981A1
:10491000FA81848F958FA68FB78F2FE832EC45E709
:104920005CE3AF89B88D55966D917D918D919C9189
:1049300058970E948349E981FA812181328143811C
:1049400054810E949047062F172F282F392FA981B5
:10495000BA8111960D931D932D933C931497EF8973
:10496000F88D218D328D438D548D0E948F47B62E48
:10497000A72E182F092FC62ED72EE82EF92E2BED95
:104980003FE049E450EC0E94F44718160CF0BBC01D
:104990002BED3FE049E450E46B2D7A2D812F902FD1
:1049A0000E947F491816F4F40F89188D2BED3FE013
:1049B00049EC50E4C701B6010E948F47B62FA72FDC
:1049C000462F572F682F792F6A017B012BED3FE08F
:1049D00049E450E46B2F7A2F0E947F49181634F374
:1049E000188F0F8B20E030E0A901C701B6010E94AB
:1049F000F4474601570187FD1BC160915C0270912D
:104A00005D0280915E0290915F029B01AC010E9469
:104A100090479B01AC01C501B4010E947F49AD8163
:104A2000BE8118160CF0BFC02C912F5F2C9330E084
:104A300080915A0290915B028217930708F086CC0E
:104A4000E981FA811082138E128E40E050E0BA01A3
:104A5000C2010E94A11F7ACC23EC38EB42EB5DEB44
:104A6000C701B6010E947F4918160CF04FCEE1E055
:104A7000F0E0A981BA815296FC93EE935197539638
:104A80008D919C915497892B09F071CE8FEF9FEFF8
:104A9000DC01E981FA81848F958FA68FB78F36CE9E
:104AA0000F89188D2BED3FE049EC50E4C701B601AA
:104AB0000E949047B62FA72F462F572F682F792F88
:104AC0006A017B012BED3FE049E450EC6B2F7A2F1C
:104AD0000E94F447181634F704CE813089F1EF8133
:104AE000F885408150E0519541955109662757FD61
:104AF0006095762FC2010E94A11FEB81FC81349743
:104B000009F029CC6ECD0F89188D2BED3FE049ECD3
:104B100050E4C701B6010E949047B62FA72F462F39
:104B2000572F682F792F6A017B012BED3FE049E475
:104B300050EC6B2F7A2F0E94F447181634F750CFA1
:104B4000AF81B8854C9150E060E070E0C2010E94F6
:104B5000A11FFCCBC701B6019058ECCD108240E0FC
:104B600050E0BA01C2010E94A11FEB81FC81349781
:104B700009F0F1CB36CDAF89B88D1B968C911B9780
:104B80008C93C2010E94EF1F8FEF9FEFDC01E98140
:104B9000FA81848F958FA68FB78FEB81FC81349734
:104BA00009F0D9CB1ECD1C92E981FA81258136818D
:104BB00047815085C701B6010E9483494B015C01C2
:104BC000A981BA811D962D913D914D915C9150978F
:104BD00019966D917D918D919C911C970E948349AE
:104BE0009B01AC01C501B4010E9490470E9463483B
:104BF000AB01BC01C2010E94A11F2FE832EC45E7C6
:104C00005CE3C701B6010E9483499B01AC01E981C5
:104C1000FA8165857685878590890E949047A9816C
:104C2000BA811D966D937D938D939C9350978ECBF7
:104C3000B7FAB094B7F8B094E0CE1092AF021092E9
:104C4000220F1092650F1092A80F6EE480E00E9470
:104C50006D1F6EE480E00C94871F7F928F929F926D
:104C6000AF92BF92CF92DF92EF92FF920F931F937A
:104C7000CF93DF9300D000D0CDB7DEB780E190E0D6
:104C80000E945E14813A09F444C0A6E5CA2EAFE042
:104C9000DA2EE12CF12C01E010E0C8010E948A1507
:104CA000DC01CB01B05889839A83AB83BC83F601C6
:104CB00080839183A283B38344E050E0BE016F5FA1
:104CC0007F4FC7010E946F140F5F1F4FF3E4CF0E99
:104CD000D11C84E0E80EF11C04301105F1F661EA04
:104CE00080E190E00E94301421E030E0C9010F9093
:104CF0000F900F900F90DF91CF911F910F91FF9028
:104D0000EF90DF90CF90BF90AF909F908F907F906B
:104D10000895B6E5AB2EBFE0BB2E812C912C00E0B0
:104D200010E083E4782E709EB001719E700D112406
:104D30006A5A704F44E050E0C4010E949414F50197
:104D4000C080D180E280F38020E030E040E450E495
:104D5000C701B6010E94F44787FF0AC020E030E097
:104D600040E450ECC701B6010E947F4918162CF0B0
:104D7000F50110821182128213820F5F1F4FF4E03F
:104D80008F0E911C83E4A80EB11C0430110559F656
:104D900020E030E0ABCF1092560F1092570F1092D8
:104DA000580F1092590F1092990F10929A0F10925B
:104DB0009B0F10929C0F1092DC0F1092DD0F10923F
:104DC000DE0F1092DF0F60EA80E190E00E94301465
:104DD0000E942D2680E090E008956091050EE2E2A9
:104DE000FFE081E090E020E030E0623099F0633055
:104DF000A9F04081442321F041895289452BA9F033
:104E00008330910571F02F5F3F4F0196ED5BFF4FAF
:104E1000623069F72130310561F7F5CF2230310575
:104E200041F720E030E0C901089521E030E0FBCFF8
:104E300010928502109284021092830210928202D4
:104E4000109281021092800208950F931F93CF93C6
:104E5000DF9383E090E09093CD008093CC0080912D
:104E6000C8008D7F8093C80088E98093C90080E8DE
:104E700090E00E949E4E80937D1090937E1080E87B
:104E800090E00E949E4E8C019093801080937F1042
:104E9000C0E0D0E004C000917F101091801084E049
:104EA00090E00E949E4EF801EC0FFD1F80839183DD
:104EB0002296C038D10579F710927C10DF91CF91FE
:104EC0001F910F9108951F920F920FB60F92112408
:104ED0000BB60F922F933F934F938F939F93EF9324
:104EE000FF934091CE0080918002909181022091A9
:104EF000820230918302820F931F8F73907897FD07
:104F00001BC0FC01E45CFF4E4083809182029091C3
:104F1000830201969093830280938202FF91EF9126
:104F20009F918F914F913F912F910F900BBE0F90BA
:104F30000FBE0F901F9018950197806C9F6F019680
:104F4000E0CF161617066CF4FC01680F791F9191DB
:104F50008091C80085FFFCCF9093CE00E617F7073D
:104F6000B1F70895CF93DF93CDB7DEB780E090E03F
:104F7000DF91CF910895CF93DF93EB01FC01308156
:104F80003093B306362F3A5F3093B4065093B5068C
:104F90004093B6062093B70628EB36E0AB01BC0180
:104FA000C9010E942651CD54D94F81E18D8383EBF5
:104FB00096E0DF91CF910895CF93DF93EB0120E14D
:104FC0002093B307262F2D5F2093B40725EB37E0FE
:104FD000AB01BC01C9010E942651CD54D84F81E1DB
:104FE0008A8383EB97E0DF91CF9108954F925F9290
:104FF0006F927F928F929F92AF92BF92CF92DF92E9
:10500000EF92FF920F931F93CF93DF93EC01680F02
:10501000791F61507109DB018C91088181110BC0EE
:10502000023431F088F5023330F0063308F08AC0DC
:105030008A81833030F410E0F801F097E635F1050D
:10504000F8F08FEF8093B30883E08093B40881E198
:105050008093B50883EBC82E88E0D82EC601DF9177
:10506000CF911F910F91FF90EF90DF90CF90BF9065
:10507000AF909F908F907F906F905F904F9008952A
:10508000E057FF4F0C94984E802F8454833098F64D
:10509000CFCFCB80DC80ED80FE8022E93AE046E88D
:1050A00050E4C701B6010E947F4918160CF4B9C735
:1050B00022E93AE046E850ECC701B6010E94F44705
:1050C00087FF08C0B2E9CB2EBAE0DB2EB6E8EB2EA4
:1050D000B0ECFB2EEA8123E42E9FF0011124EE5D5B
:1050E000F04FC6A2D7A2E0A6F1A68A8190E0289F41
:1050F000F001299FF00D1124EE5DF04F258921303C
:1051000039F0223009F0A3C7F7FAF094F7F8F094D9
:10511000C2A6D3A6E4A6F5A660E070E080E090E029
:10512000DF91CF911F910F91FF90EF90DF90CF9083
:10513000BF90AF909F908F907F906F905F904F90B7
:105140000C94DC270E3309F076CF72CF81E2809386
:10515000B30889E08093B40880911C0F90911D0FD3
:105160009093B50880911C0F90911D0F8093B60805
:105170008091480290914902A0914A02B0914B025D
:105180008093B7089093B808A093B908B093BA0871
:105190001092BB0813EBC12E18E0D12E5FCF809187
:1051A0007C10882399F1E0917D10F0917E10609140
:1051B0007F107091801042E050E020E030E0CF019D
:1051C000EA01CD54D74FDE01129711811C9332961C
:1051D0008E0101501109DC018C91D8018C93DB0107
:1051E0008D919D91BD01DC01CD90DD90ED90FC9005
:1051F000C882D982EA82FB822F5F3F4F80917C1068
:105200004A5F5F4F90E028173907CCF260917C101D
:10521000B6E06B9FB001112483EB98E081CF8091C1
:10522000521681110ECF8AE08093521660E070E032
:1052300080E090E075CF10927C1060E070E080E03C
:1052400090E06ECF23EB38E0498150E0BE01C90108
:105250000E94265181E28093B3088091B40888238C
:1052600009F4FFC5E3EBF8E090E08E0F9F1F31E2F9
:105270002091C80025FFFCCF3093CE003196E8176F
:10528000F90709F4EEC53081F3CF0E949611E6CEFE
:1052900064E070E088E492E043CFBE016E5F7F4F30
:1052A00044E050E082E194E00E946F148A819B8187
:1052B000AC81BD818093480290934902A0934A0239
:1052C000B0934B0260E070E080E090E029CF4B812A
:1052D0005C816D817E818A8190E001960E94811AB5
:1052E00060E070E080E090E01BCFEA8123E4E29F81
:1052F000F0011124EE5DF04F86A597A5A0A9B1A9F4
:105300008093B3089093B408A093B508B093B608FF
:1053100064E070E081CFEA8183E4E89FF00111242A
:10532000EE5DF04FC6A4D7A4E0A8F1A862A973A9C6
:10533000882777FD8095982F0E9496482BED3FE0B7
:1053400049EC50E40E9483499B01AC01C701B601BE
:105350000E9490476093B3087093B4088093B50897
:105360009093B60864E070E057CF80914D02909121
:105370004E02A0914F02B09150028093B3089093D7
:10538000B408A093B508B093B608EA8193E4E99F06
:10539000F0011124EE5DF04F86A597A5A0A9B1A953
:1053A0008093B7089093B808A093B908B093BA084F
:1053B00068E070E031CF8A8190E001960E942F1F53
:1053C0008093B30861E070E027CF82E99AE0A6E815
:1053D000B0E48093B3089093B408A093B508B09359
:1053E000B60864E070E018CF8A810E9422116093B1
:1053F000B3087093B4088093B5089093B60864E03E
:1054000070E00ACF80915C0290915D02A0915E02F3
:10541000B0915F028093B3089093B408A093B5084D
:10542000B093B60864E070E0F7CE6E01E2E0CE0E15
:10543000D11CC8E4DFE0E12CF12CFFEFEF1AFF0AEA
:10544000488059806A807B80288539854A855B85BC
:10545000D6016D917D918D919D916D010E94904736
:105460004B015C016C857D85882777FD8095982FA1
:105470000E94964820E030E044EB53E40E948349C8
:105480009B01AC01C501B4010E949047AB01BC0176
:1054900093018201C7010E94151CCD5BDF4FB3E071
:1054A000EB16F10451F638CEBE016C5F7F4F4B8195
:1054B0008A810E94F9450E946346892B09F0C1CD7B
:1054C0002BCE4B8163EB78E08A810E9416460E94C6
:1054D0006346892B09F0B5CD6B8170E09DCE4B8181
:1054E000FE01E40FF11DBE016C5F7F4F048123EBD1
:1054F00038E08A810E9435460E946346892B09F074
:10550000A0CD8B81C80FD11D6C8170E085CE8091BC
:105510009902882309F478C580911C0F90911D0F82
:105520009093B30880911C0F90911D0F8093B40845
:1055300062E070E071CE40E080E090E0FC01EE0FB0
:10554000FF1FEE52FB4E20813181232B09F04F5F6C
:1055500001968034910591F74093B30861E070E0C3
:105560005BCE40E080E090E005C00196803491057C
:1055700009F46AC5FC01EE0FFF1FEE52FB4E2081BD
:105580003181232B91F34F5F2A81241770F780819B
:1055900091819093B3088093B40862E070E03CCEB0
:1055A0008091DD1E9091DE1E8093B30861E070E073
:1055B00033CE0E94460F811168C58091FF0D9091F6
:1055C000000E9093B4088093B3088091060F9091D9
:1055D000070F9093B6088093B50880911F0F9091A4
:1055E000200F9093B8088093B70866E070E014CE5F
:1055F0008091050E8093B30861E070E00DCE1092AB
:10560000B30861E070E008CE07E31FE07E01A5E08B
:10561000EA0EF11C20E030E05FE0852E912CA12CF9
:10562000B12C8A8190E0022E02C0959587950A944C
:10563000E2F780FDA2C4CC24C394D12CC20ED31EA9
:1056400096010D5B1F4FB6E0EB0EF11C24303105C7
:1056500041F762CD80914D0290914E02A0914F0290
:10566000B09150028093B3089093B408A093B5080A
:10567000B093B608C0E5DFE097ECC92E98E0D92ECC
:1056800024E0E22EF12C00E010E0488059806A808E
:105690007B800F5F1F4F83EBA82E88E0B82EAE0CE7
:1056A000BF1C6C817D81882777FD8095982F0E9493
:1056B00096482BED3FE049EC50E40E9483499B0162
:1056C000AC01C301B2010E949047F5016083718370
:1056D00082839383C8010E942F1FD6018D936D0191
:1056E000CD5BDF4FB4E0EB0EF11C0430110569F621
:1056F00068E170E091CD8A8190E00E94274260E0ED
:1057000070E080E090E00CCD8A8190E00E948C42B5
:1057100060E070E080E090E003CD0E94ED26809391
:10572000B30861E070E078CDC2E2EC2ECFE0FC2E51
:1057300000E010E0CC24C394D12CC0E0D0E0C13014
:10574000D10509F444C4C230D10509F4F3C3C33010
:10575000D10509F0F4C31092BF081092C00810924E
:10576000C1081092C20860E170E056CD8091020E2F
:105770009091030EA091040E8093B3089093B40807
:10578000A093B50863E070E047CD9A8180E02B815B
:10579000822B009709F04EC41092DE1E1092DD1E7F
:1057A0001092E01E1092DF1E10929D0210929C0239
:1057B0004FEF60E080E00E94B50EAECCE2E2FFE089
:1057C00080E090E044E02A8130E0082E02C0359568
:1057D00027950A94E2F720FD40830196ED5BFF4F89
:1057E0008430910581F798CCDE01189680E090E036
:1057F00023E4FD01359730814A81FC01249FE00DAF
:10580000F11D1124EE5DF04F31AF3D914A81FC0155
:10581000249FE00DF11D1124E05AF04F30830196D2
:105820008530910531F778CC60E070E080E090E061
:105830000E94DC276C018A810E946E0E0FCC809141
:105840001C0F90911D0F9093B30880911C0F9091A5
:105850001D0F8093B40862E070E0DECC498150E017
:1058600044505109BE016D5F7F4F9A8180E042969E
:105870000E946F1460E070E080E090E051CC8A817B
:105880009B81AC81BD8180935C0290935D02A0936B
:105890005E02B0935F0260E070E080E090E040CC98
:1058A00080915A0290915B022FE0289FB001299FBE
:1058B000700D112480E090E00E94944820E030E0D8
:1058C0004AE754E40E94FB476093B3087093B4081E
:1058D0008093B5089093B60864E070E09DCC6A812F
:1058E0007B818C819D8120E030E04AE754E40E9476
:1058F000834920E030E040E751E40E94FB470E94EA
:10590000684870935B0260935A0260E070E080E048
:1059100090E006CC0E941D2660E070E080E090E000
:10592000FFCB86E58093B30861E070E075CC81E041
:105930000E94141060E070E080E090E0F1CB8A817A
:105940008093470260E070E080E090E0E9CB109245
:10595000550F1092540F1092980F1092970F1092AB
:10596000DB0F1092DA0F60E070E080E090E0D8CBBF
:105970004A815B816C817D8181E090E00E94811A87
:105980004E815F816885798582E090E00E94811A6E
:105990004A855B856C857D8583E090E00E94811A55
:1059A00060E070E080E090E0BBCB8091500F909180
:1059B000510FA091520FB091530F8093B308909361
:1059C000B408A093B508B093B6088091930F909156
:1059D000940FA091950FB091960F8093B708909374
:1059E000B808A093B908B093BA088091D60F9091E7
:1059F000D70FA091D80FB091D90F8093BB08909387
:105A0000BC08A093BD08B093BE08ADCE00E51FE072
:105A1000C0E0D0E0D801CD90DD90ED90FC901397E0
:105A200073EBA72E78E0B72EAC0EBD1E14966D91C9
:105A30007C911597882777FD8095982F0E9496482E
:105A40002BED3FE049EC50E40E9483499B01AC01FF
:105A5000C701B6010E949047F5016083718382837C
:105A600093830D5B1F4F2496C031D10599F67BCEF1
:105A700080914D0290914E02A0914F02B091500240
:105A80008093B3089093B408A093B508B093B60878
:105A90008091500F9091510FA091520FB091530FE0
:105AA0008093B7089093B808A093B908B093BA0848
:105AB0008091930F9091940FA091950FB091960FB4
:105AC0008093BB089093BC08A093BD08B093BE0818
:105AD0008091D60F9091D70FA091D80FB091D90F88
