:100000000C946F010C948E010C948E010C948E0153
:100010000C948E010C948E010C948E010C948E0124
:100020000C948E010C94B50A0C948E010C948E01E4
:100030000C948E010C94DC030C948E010C948E01B4
:100040000C948E010C948E010C948E010C948E01F4
:100050000C948E010C948E010C948E010C948E01E4
:100060000C948E010C948E010C948E010C948E01D4
:100070000C948E010C94C9140C948E010C948E0176
:100080000C948E010C948E010C948E010C948E01B4
:100090000C94CA250C948E010C948E010C947E4114
:1000A0000C948E010C948E010C94E8010C94F901CF
:1000B0000C948E010C948E010C948E010C94840E81
:1000C0000C948E010C948E010C948E010C948E0174
:1000D0000C948E010C948E010C948E010C948E0164
:1000E0000C948E010C948E010C948E010C948E0154
:1000F0000C9421030C948E010C948E010C94F50247
:100100000C948E010C948E010C948E010C948E0133
:100110000C948E010C948E010C948E010C948E0123
:10012000F32695262F2D422DB026B929CF29EF2968
:100130000F2A63288028B328E7282A296E298729CF
:10014000A029782736274E278627AC27B627C5272C
:100150008826D327E627F7271628312838283E286F
:100160004A285228BC2B8826C12BE72B382C582C28
:100170006E2C7F2C8A2CDE2CEA2C282D0D27992C16
:10018000BC2CBF2CC42CCC2AA12AB22AEA2AF82AD9
:10019000022B1D2B2A2B352B542B5B2B88268826D4
:1001A0008826882688268826882688266A2B832BF8
:1001B0008C2B952B9C2B2F2A6E2A7B2A892A05A80B
:1001C0004CCDB2D44EB93836A9020C50B9918688BC
:1001D000083CA6AAAA2ABE000000803F6E616E00FD
:1001E000696E660000407A10F35A00A0724E18093A
:1001F0000010A5D4E80000E87648170000E40B548E
:10020000020000CA9A3B000000E1F505000080965C
:100210009800000040420F000000A086010000008E
:10022000102700000000E803000000006400000048
:1002300000000A00000000000100000000002C7611
:10024000D888DC674F0823DFC1DFAE59E1B1B7962C
:10025000E5E3E453C63AE651997696E8E6C2842689
:10026000EB898C9B62ED407C6FFCEFBC9C9F40F265
:10027000BAA56FA5F490055A2AF75C936B6CF967E1
:100280006DC11BFCE0E40D47FEF520E6B500D0EDA6
:10029000902E0300943577050080841E080000200E
:1002A0004E0A000000C80C333333330F986E1283AC
:1002B0001141EF8D2114893BE65516CFFEE6DB1880
:1002C000D1844B381BF77C1D901DA4BBE424203245
:1002D00084725E228100C9F124ECA1E53D2711243E
:1002E0001FBECFEFD1E4DEBFCDBF13E0A0E0B2E090
:1002F000ECEAFFE900E00BBF02C007900D92A432C8
:10030000B107D9F710E2A4E2B3E001C01D92AD3607
:10031000B107E1F70E9495130C94D44F0C940000A0
:1003200014BE88E10FB6F8948093600010926000CC
:100330000FBE78940C949F0190E00C94B40110923D
:100340003B0A80E29EE49093A9008093A800E1EA32
:10035000F0E088E08083808182608083E2E7F0E0E3
:1003600080818260808308952091A4003091A5004F
:10037000280F391F3093AB002093AA002091AA00C8
:100380003091AB008091A8009091A900821793074B
:1003900070F48091AA009091AB002091A800309158
:1003A000A900821B930B9093AB008093AA0010923C
:1003B00024038091720084608093720080912403F2
:1003C0008823E1F3809172008B7F809372000895FF
:1003D0001F920F920FB60F9211248F9380913B0AB8
:1003E0008F5F80933B0A8F910F900FBE0F901F90ED
:1003F00018951F920F920FB60F9211248F9381E0E0
:10040000809324038F910F900FBE0F901F9018952B
:100410000F931F93CF93DF9310924E0183E080934D
:10042000420186E080934201809141018F718630C4
:10043000D9F7C0E0D0E000E010E081E00E949C012C
:100440002091460122952695237030E00C2E02C0A3
:10045000220F331F0A94E2F7022B132B2296C0318E
:10046000D10559F783E08093420188E080934201EF
:10047000809141018F718830D9F78FEF80934F01C0
:1004800080914E01886080934E0180914E0180647E
:1004900080934E01C801DF91CF911F910F91089574
:1004A00080912E03882361F083E08093420186E1EE
:1004B00080934201809141018F718631D9F708956F
:1004C00083E08093420188E0809342018091410162
:1004D0008F718830D9F708958091390181608093B8
:1004E000390183E08093420188E08093420180914A
:1004F00041018F718830D9F780916E0180628093BD
:100500006E0180916E018F7E80936E018FEF8093DC
:100510004F0180914E01886080934E0180914E0181
:10052000806480934E0180914C01806880934C01DF
:100530000E94080280936D011092280310922E03EE
:1005400081E080930A020895E8E2F3E090819860E8
:10055000908380932E030895E8E2F3E09081916008
:100560009083809329030895E8E2F3E020812260DC
:10057000208390932B0380932A030895E8E2F3E00D
:1005800020812460208390932D0380932C03089571
:1005900080910A02813011F081E008959091280342
:1005A0009111FBCF80E0089523E02093420129E1DF
:1005B00020934201209141012F712931D9F7262F33
:1005C0002E5F20938001662349F0FC01A1E8B1E091
:1005D00091919D939E2F981B9617D0F382E0809364
:1005E000420183E080930A0208951F920F920FB692
:1005F0000F9211248F93809141018F71893131F0D5
:100600008F910F900FBE0F901F90189583E08093ED
:10061000420189E080934201809141018F718930CC
:10062000D9F784E080930A028091420182958695F1
:100630008770809327038F910F900FBE0F901F90AC
:1006400018951F920F920FB60F9211248F9389E085
:1006500080934201809147018093260380917B0122
:100660008093250385E080930A028F910F900FBE3F
:100670000F901F901895CF93DF9300D000D01F925A
:10068000CDB7DEB780910A02843009F481C085308D
:1006900009F43FC0813041F00F900F900F900F9000
:1006A0000F90DF91CF910895909128039923A1F3A2
:1006B00083E08093420188E0809342018091410170
:1006C0008F718830D9F790FF09C0209129032F71CD
:1006D00080914801807E822B8093480191FF08C061
:1006E00080912A038093620180912B0380936301A0
:1006F00092FF08C080912C038093600180912D03AC
:100700008093610194FD53C00E945002109228030F
:10071000C3CF8091250380E090E040E0FC01E058E9
:10072000FE4F2081FC01E15DFC4F20834F5F209153
:100730002503842F90E030E0281739077CF78FE2FB
:1007400093E09A8389838091250382508B83E09183
:100750002503F0E0E15DFC4F80818C8380912603CE
:100760008A558D83CE0101960E94970580914101A3
:100770008F718930D9F781E080930A020E9450027C
:100780000F900F900F900F900F90DF91CF910895E1
:10079000809127030E948108809141018F718930E7
:1007A000D9F781E080930A020E945002E9CF0E94AB
:1007B00008020E94A90EA8CF1F920F920FB60F92A7
:1007C00011248F9381E08093AF038F910F900FBE20
:1007D0000F901F9018951092400A1092410A1092A3
:1007E0003D0A10923C0A1092430A1092420A10925B
:1007F000450A1092440A1092470A1092460A0E9433
:10080000BA070E9473050E94F1040C94410490936E
:100810003D0A80933C0A0C94BE0290933F0A809359
:100820003E0A0C94B402E82FF0E0EE0FFF1FEE5BDF
:10083000F54F7183608308950E94CB050E949D0847
:100840000C945F04E091B003F091B103309731F460
:1008500016C00190F081E02D309789F0228133811C
:1008600028173907B1F7DC01A158BF4F2C91278712
:10087000DC01AE57BF4F2C91208B22E024830C94D7
:100880001D051092B1031092B0030895FC0114826B
:100890001786138212828091B0039091B103009762
:1008A00039F091838083F093B103E093B00308950E
:1008B00011821082F093B103E093B00308950F9377
:1008C0001F93CF93DF93E091B003F091B103309782
:1008D00009F47BC0EF018C81811155C08C850E9489
:1008E000F8048C01009709F46DC09B838A8381E032
:1008F0008C83F801ED57FF4F82E294E0918380836F
:10090000F801EE57FF4F898582FB882780F98083A5
:100910009985F801838590FB80F98387998593FBFE
:10092000992790F990FB82F9877083878091400A1C
:100930008F5F8093400A848780913C0A90913D0AA2
:10094000968785878D819E81908B878798859F70FC
:100950008189807F892B818B9F819295907F8F7079
:10096000892B818B98012E5E3F4F4C856A857B8554
:1009700050E0C9010E94F24EC801DF91CF911F9152
:100980000F910C94D507823039F00990D881C02D91
:10099000209709F0A0CF19C0EC17FD0711F41AC079
:1009A000FC01808191818C179D07D1F78881998105
:1009B00091838083ED85FE85CE01DF91CF911F91DC
:1009C0000F91099482E08C838F87DF91CF911F91E3
:1009D0000F910895888199819093B1038093B0031A
:1009E000E9CF1092B203109237041092BC0408951C
:1009F0009091B203992361F0909137049923B9F053
:100A00009091BC049923B1F020E030E0C901089531
:100A100040E050E095E8949FF001959FF00D11247F
:100A2000EE54FC4F805F81839F01C901089541E02E
:100A300050E0F0CF42E050E0EDCFFC01108208958D
:100A400095E8899F900111242E543C4FC9010895C7
:100A5000FC01DC01A158BF4F1C92DC01A058BF4F24
:100A60001D921C92DC01AE57BF4F1C92DC01AD57AA
:100A7000BF4F1D921C921386A0E4BAE08C918F5F49
:100A80008C93848780913C0A90913D0A9687858754
:100A9000108A1786118A08950C941D05E5E4F5E087
:100AA00040E0208131812115310529F021503109A3
:100AB0003183208341E0359625E0E737F20789F757
:100AC000411101C008950C947E09DC011596ED9149
:100AD000FC9116972081222311F080E008950E9456
:100AE0005D0881E00895E5E4F5E011821082359615
:100AF00085E0E737F807C9F71092740584E190E0C4
:100B0000A0E0B0E080937B0590937C05A0937D05E9
:100B1000B0937E0510927F058EE495E09093810559
:100B20008093800565E675E080E00C941304CF9314
:100B3000DF93EC01E881F9818181883819F0DF9138
:100B4000CF9108958081813611F08134C1F78A8177
:100B50008031A8F380510E94F804009781F320E2CD
:100B6000FC0120832B81E158FF4F20832C81FC0165
:100B7000E058FF4F20839C012E5F3F4F4A816881E0
:100B8000798150E0C9010E94F24E809174058F5F17
:100B900080937405D4CF4F925F926F927F928F9221
:100BA0009F92AF92BF92CF92DF92EF92FF920F93FC
:100BB0001F93CF93DF93CDB7DEB72A970FB6F89484
:100BC000DEBF0FBECDBF809174058823F1F0A12C4C
:100BD00054E2B52E6CE4E62E65E0F62E72E2772E36
:100BE000E7E9CE2ED12C8A2D0E9420058C01DC0154
:100BF0008C91823209F1843209F421C1803209F4E6
:100C0000B3C0A394B3E0AB12EECF2A960FB6F8941C
:100C1000DEBF0FBECDBFDF91CF911F910F91FF902F
:100C2000EF90DF90CF90BF90AF909F908F907F908C
:100C30006F905F904F90089510924105D8015196A2
:100C40002C91519722952F70822F90E0843091053E
:100C50000CF0FEC0FC01EE0FFF1FEE5BF54F0190A4
:100C6000F081E02D309709F4F3C01D968D919C9191
:100C70001E979A83898351963C9151973F703B838D
:100C80002C8398012E5E3F4F3F832E8311962C912B
:100C9000119720512887A158BF4F2C912987D8013F
:100CA000A058BF4F2C912A87D8011B962C91322F28
:100CB000337022FDE9C040E0432BD8011F962D91EF
:100CC0003C9150972F3F3F4F09F4E9C030E0432B50
:100CD000D80119962D913C911A978217930709F420
:100CE000DCC090E0242F292BD80115968D919C9182
:100CF0001697019609F4CFC090E0822F892B8D833F
:100D0000CE0101960995F801278130852F3F3F4F8D
:100D100009F4A6C060E0F801938590FFB0C0882375
:100D200009F4ADC083E00E94F8044C010097C9F0BB
:100D30000E942805F401ED57FF4FF182E082D801AF
:100D40001D968D919C911E97F401908B8787128A36
:100D500080914105848B1C968C91838BC4010E94E9
:100D6000D507D801BC924DCFF801B0828785908914
:100D7000019609F48BC060913C0A70913D0AF8011C
:100D8000458456846415750509F43BCF838581FD40
:100D900038CFC8010D96E2E4F5E020E030E06624AB
:100DA0006A940FC0DC018D909C9040815181841623
:100DB000950609F476C02F5F3F4F35962A303105EE
:100DC00059F043815481452B69F7622E2F5F3F4FC5
:100DD00035962A303105A9F73FEF631609F411CF94
:100DE000862D992787FD9095FC01EE0FFF1FEE0FD2
:100DF000FF1FE80FF91FEE5BFA4F51824082D801C6
:100E00001C968C918283D482C38285E795E00E94F0
:100E10007E0960913C0A70913D0AF80187819085B6
:100E2000019609F453C0F8018785908986179707C2
:100E300019F0019609F0E5CED8017C92E2CEC80106
:100E40000E941D0580917405815080937405D9CE50
:100E500080E0F801278130852F3F3F4F09F05ACFBE
:100E600061E040913C0A50913D0AD8011F962D91B6
:100E70003C9150974217530709F04CCF4CCF61116A
:100E800051CFD801BC92BDCE40E216CF1B968C91BB
:100E900080FF71CFB6CE90E130CF98E023CF34E021
:100EA00016CFF8018485F901EE0FFF1FEE0FFF1F2B
:100EB000E20FF31FEE5BFA4F9281282F291B1216C7
:100EC0000CF09FCE8283D482C382A7CFF80187859E
:100ED00090898617970709F4AFCFF80125813681ED
:100EE0002F3F3F4F09F4A5CFD8011B962C9122FD2F
:100EF000A0CFC8010E94130860913C0A70913D0A7E
:100F000092CF0C941D05FF920F931F93CF93DF9305
:100F1000EC0180918405882339F110E085E1F82EF9
:100F200000E1812F0E942005FC018081843159F06D
:100F30001F5F1330B1F7CE01DF91CF911F910F9159
:100F4000FF900C947E09DF01A058BF4F2D913C917A
:100F50001197215031092D933C93232B49F7F082AF
:100F6000E158FF4F0083E4CFDF91CF911F910F91A4
:100F7000FF900895109283051092820510928405C7
:100F800082E390E0A0E0B0E080938B0590938C0525
:100F9000A0938D05B0938E0510928F0583E897E09E
:100FA00090939105809390050895FC01DC01AE5764
:100FB000BF4F8C9191E19083DF01A158BF4F1C92EC
:100FC00080FF20C08FEF9FEF968385838785908970
:100FD0009087878320913C0A30913D0A3287218790
:100FE0002091410A2F5F2093410A2483019689F0C2
:100FF00081E698E893838283809184058F5F809354
:101000008405089580913E0A90913F0A96838583D6
:10101000DDCF81E498E893838283809184058F5F9C
:101020008093840508950F931F93CF93DF938C01D2
:10103000FC01818180510E94F804EC010097C1F10C
:10104000FC01ED57FF4F81E897E0918380839E017B
:101050002E5F3F4FF80141810E5F1F4F50E0B801F6
:10106000C9010E94F24E81E18883FE01E158FF4FE1
:10107000108281E498E89B838A838FEF9FEF9887A3
:101080008F8380913E0A90913F0A9E838D83809149
:101090003C0A90913D0A9A8789878091410A8F5F27
:1010A0008093410A8C83809184058F5F80938405AF
:1010B000DF91CF911F910F9108951F93CF93DF93ED
:1010C000FC01C581D68180918405882359F010E008
:1010D000812F0E942005FC018081843139F01F5F3F
:1010E0001330B1F7DF91CF911F91089594858981D5
:1010F0009813F5CF85E180838A81EE57FF4F808377
:10110000F1CFE0918205F0918305833080F0833048
:1011100081F0853081F081E0DF01A158BF4F8C93D1
:1011200083E180831092830510928205089580E008
:10113000F3CF80E2F1CF81E2EFCFAF92BF92DF92A7
:10114000EF92FF921F93CF93DF93809184058823C2
:10115000C1F010E095E1F92E24E1D22E37E0A32E64
:10116000B12C42E1E42E812F0E942005EC01888100
:10117000833181F0853171F18131E9F01F5F1330E6
:1011800091F7DF91CF911F91FF90EF90DF90BF908B
:10119000AF900895FE01E158FF4F8081811109C091
:1011A0004D855E8520913C0A30913D0A42175307D8
:1011B000F9F0F882E3CF0E94C8028111DFCFD0930B
:1011C0008305C0938205E8826981CE0102960E9460
:1011D000D402D4CFFE01ED57FF4F0190F081E02DF6
:1011E000CE01099580918405815080938405C6CFF6
:1011F0008B8580FFDECFD882C058DF4FB982A882AE
:1012000085E895E00E947E09B9CF0E9490010E9476
:1012100079090E946C020C94EB030E943B030E942C
:101220001C040C9494090F931F93CF93DF93EC014C
:101230008091920590919305009709F447C04E81E3
:101240005F8168857985FC01A0E0B0E001C0F9010B
:10125000028113812481358140175107620773078A
:10126000E0F0401B510B620B730B20813181DF01D9
:101270002115310561F74A835B836C837D83109769
:10128000D1F08D919C91119799838883CD93DC93B4
:10129000DF91CF911F910F910895041B150B260B21
:1012A000370B02831383248335834A835B836C83E8
:1012B0007D83109731F799838883D0939305C093EA
:1012C0009205DF91CF911F910F9108951982188295
:1012D0008E819F81A885B9858A839B83AC83BD83DA
:1012E000D0939305C0939205DF91CF911F910F91F9
:1012F000089510929305109292050895E091920539
:10130000F0919305309761F08E179F0721F40BC081
:101310008E179F0739F00190F081E02D3097C1F7CB
:101320000C94130908950895CF92DF92EF92FF92E3
:10133000CF93DF9380913B0A882309F458C09FB76D
:10134000F89480913B0A10923B0A9FBF90E0A0E086
:10135000B0E0880F991FAA1FBB1F6C017D01CC0C48
:10136000DD1CEE1CFF1CCC0CDD1CEE1CFF1CC80E93
:10137000D91EEA1EFB1EC0919205D09193052097BD
:10138000B1F14A815B816C817D81C416D506E60688
:10139000F706A0F424C0EB85FC85CE010995C09129
:1013A0009205D0919305209711F14A815B816C8160
:1013B0007D81C416D506E606F70688F0C41AD50A5C
:1013C000E60AF70A888199819093930580939205A4
:1013D0008A85813001F7CE010E941309DCCF4C19B8
:1013E0005D096E097F094A835B836C837D83DF918E
:1013F000CF91FF90EF90DF90CF90089581E08093A0
:101400000C028091480A86FF04C08091480A87FD3B
:10141000A7C08091480A86FF22C080919A029091CD
:101420009B02892BE9F080919902811123C01092CF
:101430009B0210929A021092990281E00E94091078
:101440001092DC1E1092DB1E1092DE1E1092DD1E2A
:101450001092AD024FEF60E080E00C94AA0E089568
:1014600083E00E9409100E945735892B09F476C049
:101470000C9448350E94B53E80ED809350158EE067
:101480008093511580919A0290919B0290935215EE
:1014900080919A0290919B0280935315109254155B
:1014A00086E78093551588E080935615109257155E
:1014B000109258151092591510925A158FEF80936B
:1014C0005B1510925C1582E180935D15609151155A
:1014D00020E04FEF5FEF80E595E10E94EB326091F5
:1014E000511520E04FEF5FEF80E595E10E94EB3270
:1014F0006091511520E04FEF5FEF80E595E10E948C
:10150000EB326091511520E04FEF5FEF80E595E100
:101510000E94EB326091511520E04FEF5FEF80E5C4
:1015200095E10E94EB326091511520E04FEF5FEFA3
:1015300080E595E10E94EB321092C21E10929C024F
:1015400080E090E0FC01EE0FFF1FE053FB4E1182A4
:101550001082019680349105A9F769CF0C94E83484
:101560000E94322583E00C9409101F920F920FB64F
:101570000F9211240F900FBE0F901F9018950E948C
:101580007C0E80919A0290919B02892B31F0809180
:10159000DB1E9091DC1E0E94733F0C94E63ECF93BD
:1015A000DF93CDB7DEB729970FB6F894DEBF0FBE35
:1015B000CDBF0E947C0E80919A0290919B02892B54
:1015C00021F08091990281111EC08091AD0281307D
:1015D00009F443C0833009F440C080919A0290918D
:1015E0009B02892B29F080919902882309F465C018
:1015F0000E947F4029960FB6F894DEBF0FBECDBF84
:10160000DF91CF9108958091DB1E9091DC1E892B94
:1016100009F04DC080919C0290E0019663E070E07B
:101620000E94124C80939C0280919C02813009F4AC
:1016300055C008F045C08091DB1E9091DC1E892BBF
:1016400021F60E9484240E94B53E4FEF60E080E0C6
:101650000E94AA0E1092C21ECDCF82E08093AD02EE
:1016600080919A0290919B02892BF1F080ED898301
:1016700089E08A8380919A0290919B029B8380915A
:101680009A0290919B028C831D828DE48E8383E06D
:101690008F83188682E1898720E04FEF5FEF69E052
:1016A000CE0101960E94EB320E948424A3CF809148
:1016B0009C02882309F489CFADCF0E94BE409ACF07
:1016C000823009F082CF0E9484244FEF6FEF80E0D8
:1016D0000E94AA0E89E08093C21E8CCF0E94B53E64
:1016E00040E06FEF80E00E94AA0E87E08093C21E68
:1016F00081CF80ED97E0A0E0B0E080934E0A909318
:101700004F0AA093500AB093510A81E080934D0A8A
:101710008EEF99E09093530A8093520A8DE49AE0F9
:101720000C9470338DE49AE00C943C338F929F922A
:10173000AF92BF92CF92DF92EF92FF920F931F93DF
:10174000CF93DF93CDB7DEB72C970FB6F894DEBFFB
:101750000FBECDBFE62EE82690914702992309F4EB
:1017600042C0E6FA442740F9E7FC93C0E5FC446038
:1017700066FD63C030E021E067FD63C0226065FF65
:1017800063C0346080E289838AE08A8380914D025D
:1017900090914E02A0914F02B09150028B839C8396
:1017A000AD83BE834F83388729871A868091510283
:1017B00090915202892B09F449C020911A0F30915F
:1017C0001B0F809151029091520228173907F1F1B5
:1017D000409151025091520221E06AE0CE010196FF
:1017E0000E94EB3243C06623F9F090910C029111F4
:1017F0003DC0E6FE52C06C878B8766FF62C00E94C8
:10180000790B20E030E06C858B85E7FC53C0E5FE6A
:1018100047C065FD45C086FD46C085FD75C087FF94
:1018200025C00E94CF0A22C090910C029923E9F2B0
:1018300010920C0210920B0219C031E020E067FFF9
:101840009DCF326065FD9DCF24609CCF40911A0FE3
:1018500050911B0F21E06AE070E0CE0101960E94DA
:101860002226FC01618170E00E9408262C960FB6AA
:10187000F894DEBF0FBECDBFDF91CF911F910F91C6
:10188000FF90EF90DF90CF90BF90AF909F908F90A0
:1018900008954260E5FE6CCF6ACF20E030E0B5CF1E
:1018A000232B21F3B8CF87FD49C085FD2DC00E94B1
:1018B000BF0ADCCF67FD0CC010920B0221E030E0C4
:1018C000A6CF0E94920B21E030E06C858B859DCFE6
:1018D00091E090930B0280904D0290904E02A09068
:1018E0004F02B09050028092490A90924A0AA09208
:1018F0004B0AB0924C0A9091C21E9150923008F05F
:1019000086CF1092C21E83CF0E947C0E809151021E
:1019100090915202892B49F04FEF60E080E00E94E5
:10192000AA0E10925202109251021092DC1E1092D6
:10193000DB1E1092DE1E1092DD1E98CF81E06C87B8
:101940000E9409100E94F0406C85662319F081E026
:1019500080930C028091200F811126C08091630F2B
:10196000811122C08091A60F81111EC032E5C32EC5
:101970003FE0D32EE12CF12CF60111821082FFEF13
:10198000EF1AFF0A0BED1FE029EC3FE340E050E0C7
:10199000BA01C7010E94B51B83E4C80ED11CE3E065
:1019A000EE16F10449F762CF0E9484245FCFCF93F3
:1019B00080914D0290914E02A0914F02B091500241
:1019C00040910D0250910E0260910F027091100231
:1019D000841B950BA60BB70B4997A105B105F0F039
:1019E000C9B1C095C07EC093480A809111028C177E
:1019F000A9F06C2F0E94960B80914D0290914E029F
:101A0000A0914F02B091500280930D0290930E026C
:101A1000A0930F02B0931002C0931102CF910895CA
:101A20001092B100249808950C94100DCF93DF9379
:101A300082E48093B000A3EBB0E082EB8C93E1EB07
:101A4000F0E085E080832FEF32E597E021503040D1
:101A50009040E1F700C000001082CFE1DEE4219762
:101A6000F1F700C0000095E89C938083DFEF22E54A
:101A700037E0D15020403040E1F700C00000108234
:101A8000249881E08093DC0D84E690E0A0E0B0E053
:101A90008093DD0D9093DE0DA093DF0DB093E00DEC
:101AA00084E19DE09093E20D8093E10DDF91CF9171
:101AB00008959C01009709F18A3F910578F085E02F
:101AC0008093B10064E274EF80E090E0249A40E0FB
:101AD00050E00E94484C2093B300089587E0809323
:101AE000B10064E87EE180E090E0249A40E050E0BC
:101AF0000E94484C2093B30008950C94100DCF938E
:101B0000DF93C82FCF7082958F7009F161E090E06C
:101B1000660F9F5F9813FCCF70E0D0E0CC0FDD1F05
:101B2000CC0FDD1FCE5EDD4F882777FD8095982F87
:101B30000E941446288139814A815B810E945D4759
:101B40000E94E645CB01DF91CF910C94590D61E0E5
:101B500070E0E3CF0F931F93CF93DF9300D0CDB707
:101B6000DEB70E94100D009143021091440201154E
:101B7000110509F480C080914502909146028017BA
:101B800091070CF05EC03091EB0D20E0880F991F9B
:101B9000820F931F45960E946C140E947F0D309116
:101BA000EB0D20E08091450290914602880F991F2D
:101BB000820F931F44960E946C1480939905409164
:101BC0004502509146024F5F5F4F5093460240934B
:101BD000450260914302709144026417750794F4C2
:101BE0000E94F34D8A830E94F34D89830E94F34D36
:101BF0004A8169810F900F90DF91CF911F910F91D2
:101C00000C94AA0E1092EC0D282F30E040E050E02A
:101C10006091950570919605809197059091980532
:101C20000E94264C2093ED0D3093EE0D4093EF0D66
:101C30005093F00D8AEA9DE09093F20D8093F10DA0
:101C4000CFCF81E08093EC0D1092460210924502B6
:101C500010924402109243020E94100D1092420210
:101C60004FEF60E080E00F900F90DF91CF911F91D8
:101C70000F910C94AA0E9091EB0D80E042960E9479
:101C80006C14809394059091EB0D80E043960E9434
:101C90006C14082F10E0109344020093430220912B
:101CA000940530E040E050E060E879EA83E090E0BD
:101CB0000E94264C209395053093960540939705F6
:101CC0005093980558CF91E0909342029093EC0D79
:101CD0001092ED0D1092EE0D1092EF0D1092F00D8E
:101CE0002AEA3DE03093F20D2093F10D8093EB0D45
:101CF0008CEE9DE00C94703386EE90E00E94590DBE
:101D00008CED9DE00C9470331F920F920FB60F92E2
:101D100011248F939F93AF93BF9380914D02909125
:101D20004E02A0914F02B09150020196A11DB11D2B
:101D300080934D0290934E02A0934F02B0935002B5
:101D4000BF91AF919F918F910F900FBE0F901F90F9
:101D50001895089590E1899F90011124309399007E
:101D60002093980090E1699F9001112430939D0089
:101D700020939C0090E1499F9001112430939B0097
:101D800020939A008093000E6093010E4093020E00
:101D900008958091FB0D9091FC0D01979093FC0D9F
:101DA0008093FB0D181619061CF081E080930A0F32
:101DB0004091020E40586091010E60588091000ED3
:101DC00080580C94AA0E20E1829FC00111249093A8
:101DD00099008093980080E1689FB001112470936E
:101DE0009D0060939C0020E1429FA001112450932C
:101DF0009B0040939A000895CF93DF9380919A02BD
:101E000090919B02892B59F180919902882339F195
:101E1000C0915702D09158029E01A9E8B8E80E94EB
:101E2000F24B9695879596958795969587954FE071
:101E3000489F9001499F300D1124CE01821B930BC6
:101E4000039780F44091BD1E6091BC1E8091BB1E23
:101E50000E94E30E2196D0935802C0935702DF915F
:101E6000CF9108954091020E6091010E8091000E75
:101E70000E94E30EEFCF0F93CF93DF9300D01F921A
:101E8000CDB7DEB781E08B8302E09E012F5F3F4F2D
:101E900041E0BE016D5F7F4F8CE10E94B3430E9421
:101EA000E143998180E09093FE0D8093FD0D809138
:101EB000FD0D9091FE0D2A81822B9093FE0D809353
:101EC000FD0D83E08B839E012F5F3F4F41E0BE01FC
:101ED0006D5F7F4F8CE10E94B3430E94E143998183
:101EE00080E09093050F8093040F8091040F9091F0
:101EF000050F2A81822B9093050F8093040F85E0B4
:101F00008B839E012F5F3F4F41E0BE016D5F7F4F8E
:101F10008CE10E94B3430E94E143998180E0909359
:101F20001E0F80931D0F80911D0F90911E0F2A810F
:101F3000822B90931E0F80931D0F80E00F900F90C7
:101F40000F90DF91CF910F910895CF93C82F8823E1
:101F5000F1F040E06FEF80E00E94AA0E2FEF81EEDB
:101F600094E0215080409040E1F700C0000040E044
:101F700060E08FEF0E94AA0E2FEF81EE94E02150D7
:101F800080409040E1F700C00000C15011F7CF91B0
:101F9000089585E00C94A50F0F93CF93DF9300D0A5
:101FA00000D0CDB7DEB78DE08C8301E09E012D5FC0
:101FB0003F4F41E0BE016C5F7F4F8CE10E94B34315
:101FC0000E94E143892B09F58B818A3219F084E163
:101FD0000E94A50F8AE2898389E18A8342E0BE01DB
:101FE0006F5F7F4F8CE10E9477430E94E143892B12
:101FF00019F084E10E94A50F80E00F900F900F90E0
:102000000F90DF91CF910F91089584E10E94A50F69
:10201000DBCF2091FB0D3091FC0D121613060CF452
:10202000089590E0880F991F9093FC0D8093FB0D0D
:1020300010920A0F84E690E0A0E0B0E080930B0FCE
:1020400090930C0FA0930D0FB0930E0F89EC9EE0B0
:102050009093100F80930F0F8AE09FE00C947033E1
:102060002091FB0D3091FC0D121613060CF408950F
:1020700090E0880F991F9093FC0D8093FB0D1092B8
:102080000A0F40930B0F50930C0F60930D0F70933A
:102090000E0F89EC9EE09093100F80930F0F8AE053
:1020A0009FE00C9470339AE09093770090917C00BD
:1020B000907C90937C0090917C00906C90937C003D
:1020C00090917C00982B90937C0080917A00876C93
:1020D00080937A0080917A0086FDFCCF2091780071
:1020E00030917900932F937080E0AC01422B9A01DC
:1020F000C9010895CF93DF9380E880936100109227
:102100006100F89480EF84B98BB1806E8BB98091B7
:10211000680081608093680080916B00826080938A
:102120006B0080916B00846080936B0080916B00EA
:10213000886080936B008FB780688FBF88E18AB911
:102140008BB183608BB98FE78DB98FE383BB819AA5
:1021500089982FEF81EE94E0215080409040E1F784
:1021600000C0000082E00E945310EC018198829A26
:102170008A982FEF81EE94E0215080409040E1F763
:1021800000C0000081E00E9453108298C436D1053F
:1021900024F4843691050CF453C082E08093030E3E
:1021A00082E090E09093070F8093060F81E090E02B
:1021B0009093090F8093080F3AEA3093800029E149
:1021C000209381008FEF9FE090938700809386009B
:1021D0003093900020939100909397008093960005
:1021E00010922501109224018091730082608093E7
:1021F0007300809121018C60809321018EE390E037
:1022000090932901809328019093270180932601C0
:1022100084B7877F84BF809160008861809360006D
:102220001092600080EC80937C0010927B008FEE17
:1022300080937A000E941F157894DF91CF910895C2
:1022400083E08093030E84E090E09093070F8093E7
:10225000060F83E090E09093090F8093080FACCFB6
:10226000E82FF0E0EE0FFF1FE45DFF4E208131818B
:10227000C90108950E943011BC0180E090E00E94E5
:1022800012462DEC3CEC4CEC5FE30E945D4720E0F5
:1022900030E040E85AE30E945D47089580E00E94E4
:1022A0003011BC0180E090E00E9412462DEC3CEC25
:1022B0004CEC5FE30E945D4720E030E040E85AE3E9
:1022C0000E945D472EE63BED46EB5EE30E947945BA
:1022D0000895CF93DF93CDB7DEB72C970FB6F89460
:1022E000DEBF0FBECDBF69877A878B879C878091C1
:1022F0004D0290914E02A0914F02B09150028983FD
:102300009A83AB83BC8329813A814B815C81898527
:102310009A85AB85BC85820F931FA41FB51F8D8343
:102320009E83AF83B887000020914D0230914E020A
:1023300040914F02509150028D819E81AF81B885AE
:1023400082179307A407B50778F72C960FB6F89471
:10235000DEBF0FBECDBFDF91CF91089580916000A9
:10236000886180936000809160008D608093600040
:10237000FFCF4F925F926F927F92AF92BF92CF92B8
:10238000DF92EF92FF920F931F93CF93DF93CDB71E
:10239000DEB76E970FB6F894DEBF0FBECDBF0E94BA
:1023A0003B0F6091FD0D7091FE0D882777FD8095A4
:1023B000982F0E94144620E030E040E858E30E9445
:1023C0005D472B013C016091040F7091050F882738
:1023D00077FD8095982F0E94144620E030E040E879
:1023E00058E30E945D476B017C0160911D0F709165
:1023F0001E0F882777FD8095982F0E94144620E0B5
:1024000030E040E858E30E945D475B018C01242DD9
:10241000352D462D572D642D752D862D972D0E9417
:102420005D472B013C012C2D3D2D4E2D5F2D6C2D3C
:102430007D2D8E2D9F2D0E945D479B01AC01C30118
:10244000B2010E940E456B017C012A2D3B2D402FCD
:10245000512F6A2D7B2D802F912F0E945D479B016C
:10246000AC01C701B6010E940E450E94CA477B011C
:102470008C0180914D0290914E02A0914F02B0913B
:10248000500240919A0550919B0560919C05709176
:102490009D05841B950BA60BB70B8B3F9105A105E2
:1024A000B10508F0BFC0A0909E05B0909F05C090F8
:1024B000A005D090A1052E2D3F2D402F512F6A2D24
:1024C0007B2D8C2D9D2D0E940D455B016C0120E024
:1024D00030E0A9017B2D9D2D0E94724587FDC1C072
:1024E0002AE939E949E15FE36A2D7B2D8C2D9D2D89
:1024F0000E94594718160CF064C010920B02BB24BE
:10250000B394B0920C0280919A0290919B02892B15
:1025100029F48091C21E882309F4B0C08091C21EA4
:1025200081114FC080914D0290914E02A0914F02B7
:10253000B091500240915302509154026091550263
:1025400070915602841B950BA60BB70B843F9140EC
:10255000A105B10508F451C083ED89838CE08A831D
:102560001B821C821D821E8280919A0290919B0286
:102570009F8380919A0290919B0288878091BB1ED5
:1025800089878091BC1E8A878091BD1E8B8782E1DE
:102590008C8720E04FEF5FEF6CE0CE0101960E9448
:1025A000EB3280914D0290914E02A0914F02B0917A
:1025B00050028093530290935402A0935502B0931B
:1025C00056028E2D9F2DA02FB12F80939E059093A4
:1025D0009F05A093A005B093A10580914D02909115
:1025E0004E02A0914F02B091500280939A059093B1
:1025F0009B05A0939C05B0939D056E960FB6F8942D
:10260000DEBF0FBECDBFDF91CF911F910F91FF9025
:10261000EF90DF90CF90BF90AF907F906F905F90E2
:102620004F9008958E2D9F2DA02FB12F80939E0542
:1026300090939F05A093A005B093A10580914D02B2
:1026400090914E02A0914F02B091500280939A0552
:1026500090939B05A0939C05B0939D05570168013D
:102660002ACF2AE939E949E15FEB6A2D7B2D8C2DD0
:102670009D2D0E94724587FFA4CF3FCF80914D02D0
:1026800090914E02A0914F02B09150028093C31ED0
:102690009093C41EA093C51EB093C61E80914D0298
:1026A00090914E02A0914F02B09150020E94F74DBE
:1026B00040904D0250904E0260904F027090500238
:1026C0000E94F34D6C01C301B2010E9412462B011E
:1026D0003C01B601882777FD8095982F0E9414460B
:1026E00020E03EEF4FEF56E40E94794520E030E4D1
:1026F0004CE954E40E945D479B01AC01C301B20167
:102700000E940E4520E030E04AE753E40E940E4567
:102710000E94E6456093C71E7093C81E8093C91E31
:102720009093CA1EB092C21E4CCFCF93DF93CDB709
:10273000DEB7AD970FB6F894DEBF0FBECDBF0E94D7
:102740008C250E947A100E946B430E94CC0F882334
:1027500021F08AE00E94A50FFCCF0E94160D0E9476
:10276000EC2F0E9429368091480290914902A09155
:102770004A02B0914B028A279B270E94F74D0E9484
:1027800094241F8E8FE090E0A0E0B0E088A399A38E
:10279000AAA3BBA38DED9FE19DA38CA3CE014F9671
:1027A0000E947033188A84E690E0A0E0B0E0898B44
:1027B0009A8BAB8BBC8B8CEF9EE09E8B8D8BCE016E
:1027C00040960E947033198280E091E0A0E0B0E072
:1027D0008A839B83AC83BD838DE291E49F838E8348
:1027E000CE0101960E9470334FEF60E080E00E94BE
:1027F000AA0E0E940D090E94F8330E940D090E9442
:102800000E2E0E94ED430E940D090E944F300E943F
:10281000D70C0E940D090E94D83780910B028823A3
:1028200041F30E94B911E5CFCF92DF92EF92FF9270
:102830006B017C0120E030E0A9010E94724587FD18
:102840001AC020E030E0A901C701B6010E94594733
:10285000181674F490E88FE350E040E09C01652F77
:10286000742F832F922FFF90EF90DF90CF900895D9
:1028700090E080E0F1CF90E88FEBEECFE09159024D
:10288000E11103C0F894E09159027FEF54E144E272
:10289000F999FECF2AE030E0000021503109E1F73C
:1028A00092BD81BD70BD5FBBF99AF999FECF2AE058
:1028B00030E0000021503109E1F760BD4FBBF99ACB
:1028C000F999FECF92BD81BDF89A20B56213E0CF91
:1028D000E11101C07894089520915902211103C09B
:1028E000F89420915902F999FECF92BD81BDF89AD2
:1028F000211101C0789480B50895EF92FF920F9353
:102900001F93CF93DF938C01F89481E08093590259
:10291000141615066CF4EB017B01E40EF51E6991AB
:10292000C8010E943E140F5F1F4FCE15DF05B9F797
:10293000109259027894DF91CF911F910F91FF90DF
:10294000EF900895EF92FF920F931F93CF93DF9331
:10295000F89421E0209359021416150684F4EB0133
:102960007B01E40EF51E8C01061B170BC8018C0FB2
:102970009D1F0E946C148993CE15DF05B9F7109244
:1029800059027894DF91CF911F910F91FF90EF90B2
:1029900008951F920F920FB60F9211240BB60F924B
:1029A0002F933F934F935F938F939F93EF93FF9357
:1029B000809160028F5F809360028330D0F110922B
:1029C000600240916102E42FF0E08091780090E095
:1029D000EE0FFF1FE45DFF4E918380838081918124
:1029E00050917900352F337020E0822B932B918307
:1029F00080834F5F483000F54093610280917C00F6
:102A0000807E80937C0080917C0090916102892B74
:102A100080937C00FF91EF919F918F915F914F91F7
:102A20003F912F910F900BBE0F900FBE0F901F90F4
:102A300018958111EFCFC5CF10926102DFCF8F9231
:102A40009F92AF92BF92CF92DF92EF92FF920F933D
:102A50001F93CF93DF938CE091E0E0E2FFE0DF0192
:102A60009C011D9221503040E1F720E030E003E46A
:102A700041E2842E41E3942E48E9A42E44E4B42E8E
:102A800050E5C52E57E7D52E56EDE52E5DE3F52E24
:102A90004FEF5FEFBA01CFEFDFEF10E883EF96E67D
:102AA000AFEDBFE3029FF001039FF00D1124E05E44
:102AB000F04F1082118212821382148285829682D4
:102AC000A782B086C186D286E386F48615861686EE
:102AD0001786108A128A118A148A138A158A168A0E
:102AE000178A108E118E138E128E448F558F668F1B
:102AF000778FD1A3C0A312A386A397A3A0A7B1A742
:102B000012A613A614A615A613AA12AA2F5F3F4F4A
:102B10002330310539F6DF91CF911F910F91FF904E
:102B2000EF90DF90CF90BF90AF909F908F900895DF
:102B30000F931F93CF93DF932BED3FE049EC50E4CD
:102B40000E9456468B01D82FC92F2BED3FE049E458
:102B500050E4FE01712F8F2F9E2F0E9459471816A7
:102B600074F42BED3FE049EC50E4FE01602F712F2F
:102B70008F2F9E2F0E940D458B01D82FC92F2BED33
:102B80003FE049E450ECFE01602F712F8F2F9C2F06
:102B90000E94724587FF0EC02BED3FE049EC50E4E8
:102BA000FE01602F712F8F2F9C2F0E940E458B01ED
:102BB000D82FC92F9E01602F712F832F9C2FDF915B
:102BC000CF911F910F9108952F923F924F925F9254
:102BD0006F927F928F929F92AF92BF92CF92DF922D
:102BE000EF92FF920F931F93CF93DF93CDB7DEB792
:102BF0002B970FB6F894DEBF0FBECDBF9A838983A3
:102C00008091740290917502892B09F441C18981E8
:102C10009A818130910509F4C0C00CF49BC00497DF
:102C20000CF098C08091060F0E943A116B017C0154
:102C30008091080F0E943A114B015C0170907A025A
:102C400040907B0220907C0230907D0220E030E0BA
:102C500040E05FE3672D742D822D932D0E945D4728
:102C60008B018B879A876E831F8388879987762F3E
:102C7000982F8A85272F312F492F582FC701B6014A
:102C80000E940D45562E7983682E9D83C62ED72E21
:102C9000E82EF92E9B858A85202F312F492F582F1A
:102CA000C501B4010E940D45862E972EA82EB92E7F
:102CB00080917E0290917F028130910509F471C26A
:102CC000029709F4DAC220E030E04AEA53E4C7018F
:102CD000B6010E945D47272D342D422D532D0E94B1
:102CE0007945382F292F862F972FA32FB22FBC017C
:102CF000CD0190582BED3FE049E450E40E945D4740
:102D000020E030E044E353E40E9479452091970F9E
:102D10003091980F4091990F50919A0F0E940E4553
:102D20002B960FB6F894DEBF0FBECDBFDF91CF91CB
:102D30001F910F91FF90EF90DF90CF90BF90AF90D9
:102D40009F908F907F906F905F904F903F902F90CB
:102D50000C9498150E94C90F50E040E030E82FEB2A
:102D6000652F742F832F922F2B960FB6F894DEBF0A
:102D70000FBECDBFDF91CF911F910F91FF90EF90CC
:102D8000DF90CF90BF90AF909F908F907F906F908B
:102D90005F904F903F902F90089586E00E943A11E7
:102DA0006B017C0185E00E943A114B015C0170903F
:102DB000760240907702209078023090790220E0ED
:102DC00030E040E05FE3672D742D822D932D0E944B
:102DD0005D478B018B879A876E831F8388879987CE
:102DE000762F982F8A85272F312F492F582FC701EB
:102DF000B6010E940D45562E7983682E9D83C62EFE
:102E0000D72EE82EF92E9B858A85202F312F492F2A
:102E1000582FC501B4010E940D45862E972EA82E6D
:102E2000B92E80917402909175028130910509F458
:102E3000EDC0029709F456C120E030E04AEA53E4BD
:102E4000C701B6010E945D47272D342D422D532D19
:102E50000E947945382F292F862F972FA32FB22F25
:102E6000BC01CD0190582BED3FE049E450E40E94B5
:102E70005D4720E030E044E353E40E94794520912F
:102E8000540F3091550F4091560F5091570F46CF28
:102E900086E00E943A116B017C0120E030E040E0C6
:102EA0005FE3609176027091770280917802909151
:102EB00079020E945D479B01AC01C701B6010E94E7
:102EC0000D451B018C012B013C0185E00E943A114C
:102ED0006B017C0120E030E040E05FE3609176022E
:102EE0007091770280917802909179020E945D47FB
:102EF0009B01AC01C701B6010E940D45862E972E9D
:102F0000A82EB92E20E030E0A901B101C8010E942D
:102F1000724587FD27C220E030E0A901C501B40158
:102F20000E94724587FD19C2A5019401C301B20137
:102F30000E94724587FD63C082E090E09093750225
:102F4000809374028091060F0E943A116B017C01FC
:102F500020E030E040E05FE360917A0270917B0214
:102F600080917C0290917D020E945D479B01AC01A3
:102F7000C701B6010E940D451B018C012B013C01CC
:102F80008091080F0E943A116B017C0120E030E033
:102F900040E05FE360917A0270917B0280917C0255
:102FA00090917D020E945D479B01AC01C701B60173
:102FB0000E940D45862E972EA82EB92E20E030E0D7
:102FC000A901B101C8010E94724587FDC1C120E07D
:102FD00030E0A901C501B4010E94724587FDB3C16B
:102FE000A5019401C301B2010E94724587FFA4C1EB
:102FF00081E090E090937F0280937E0208CE81E092
:1030000090E090937502809374029CCF20E030E0B2
:10301000A901652D7981862D9D810E94724587FDCC
:10302000D0C1852D9981A62DBD8189839A83AB83DB
:10303000BC8326E636E646E65FE3FB85EA85602F3D
:10304000712F8F2F9E2F0E945D479B01AC016981DC
:103050007A818B819C810E94594718160CF0ECCE26
:10306000A5019401C701B6010E940D458B011C0109
:103070002B013C0120E030E0A9010E94724587FD50
:10308000D8C120E030E04AEA53E4B801C1010E940F
:103090005D4720E030E044E353E40E947945762E1A
:1030A000472E1C01862F942DA22DB32D80937602DE
:1030B00090937702A0937802B093790282E090E037
:1030C000909375028093740220E030E040E05FE36B
:1030D000672D742D822D932D0E945D476E837F8313
:1030E0008887998720E030E0A901C501B4010E94DA
:1030F000724587FD7EC189829A82AB82BC8226E6B8
:1031000036E646E65FE3BE81AF81E88519856B2F21
:103110007A2F8E2F912F0E945D479B01AC01698110
:103120007A818B819C810E94594718160CF01FC12F
:10313000A5019401C701B6010E940D458B013C0118
:10314000CB01D3014C015D0120E030E0A901B801C1
:10315000C3010E94724587FD64C120E030E04AEA65
:1031600053E4B801C3010E945D4720E030E044E32E
:1031700053E40E947945762E472E1C01862F942D0C
:10318000A22DB32D8093760290937702A0937802BC
:10319000B093790281E090E090937502809374027D
:1031A0004BCE20E030E0A901652D7981862D9D81EF
:1031B0000E94724587FD0DC1852D9981A62DBD8187
:1031C00089839A83AB83BC8326E636E646E65FE3D3
:1031D000FB85EA85602F712F8F2F9E2F0E945D4700
:1031E0009B01AC0169817A818B819C810E94594746
:1031F00018160CF068CDA5019401C701B6010E9414
:103200000D458B011C012B013C0120E030E0A901A0
:103210000E94724587FDF5C020E030E04AEA53E4A1
:10322000B801C1010E945D4720E030E044E353E46F
:103230000E947945762E472E1C01862F942DA22DB3
:10324000B32D80937A0290937B02A0937C02B0937B
:103250007D0282E090E090937F0280937E0220E0E6
:1032600030E040E05FE3672D742D822D932D0E94A6
:103270005D476E837F838887998720E030E0A901CE
:10328000C501B4010E94724587FDABC089829A8254
:10329000AB82BC8226E636E646E65FE3BE81AF81BE
:1032A000E88519856B2F7A2F8E2F912F0E945D470D
:1032B0009B01AC0169817A818B819C810E94594775
:1032C00018160CF069C0A5019401C701B6010E944F
:1032D0000D458B013C01CB01D3014C015D0120E088
:1032E00030E0A901B801C3010E94724587FD91C079
:1032F00020E030E04AEA53E4B801C3010E945D4790
:1033000020E030E044E353E40E947945762E472ED6
:103310001C01862F942DA22DB32D80937A029093B9
:103320007B02A0937C02B0937D0281E090E09093B9
:103330007F0280937E02C7CC82E090E090937F0270
:1033400080937E0264CCB7FAB094B7F8B09448CEBC
:1033500077FA709477F870943ACEB7FAB094B7F8D9
:10336000B094E2CD77FA709477F87094D4CD20E0E1
:1033700030E04AEA53E4C501B4010E945D47272DBD
:10338000342D422D532D0E94794520E030E044E356
:1033900053E40E940E455ECD20E030E04AEA53E45B
:1033A000C501B4010E945D47272D342D422D532DB8
:1033B0000E94794520E030E044E353E40E940E454A
:1033C00090CCD701C601B05889839A83AB83BC8364
:1033D00030CED701C601B05889839A83AB83BC83B2
:1033E000F3CED501C401B05889839A83AB83BC83E3
:1033F00051CFD501C401B05889839A83AB83BC8374
:103400007ECEC301B201905820E030E04AEA53E496
:1034100009CFC501B401905820E030E04AEA53E4F6
:103420006DCFC501B401905820E030E04AEA53E482
:103430009ACEC301B201905820E030E04AEA53E44A
:1034400026CE2091030E2230F9F0233019F1019796
:1034500023E4289FF001299FF00D1124E05EF04F36
:1034600082E080834183528363837483128A118A4A
:103470008DE491E0A0E0B0E0848F958FA68FB78FA8
:1034800020E030E0C90108958230910501F72FEF67
:103490003FEFF8CF83309105D1F6F9CF2F923F92CD
:1034A0004F925F926F927F928F929F92AF92BF9254
:1034B000CF92DF92EF92FF920F931F93CF93DF9300
:1034C000CDB7DEB72A970FB6F894DEBF0FBECDBFDB
:1034D0005C012A013B01680179011091030E123051
:1034E00009F4F3C0133009F4F7C020E030E0A9017B
:1034F000C701B6010E947245882309F4BCC0C5010A
:10350000019723E4289FD001299FB00D1124A05ECC
:10351000B04FBA87A9879E968D919D910D90BC91D1
:10352000A02D89839A83AB83BC839C01AD01C30129
:10353000B2010E940D45362E872E982E092F20E0CD
:1035400030E0A9010E94724587FD98C023EC38EB5A
:1035500042E35EE3632D782D892D902F0E94724502
:1035600087FD99C020E030E0A901C701B6010E94A3
:10357000724587FDC0C0A7019601632D782D892D66
:10358000902F0E94794520E030E04AE754E40E9401
:103590005D47262EA72EB82E192F20E030E0A90176
:1035A000632D782D892D902F0E94594718160CF005
:1035B000D1C0A985BA859A96CD92DD92ED92FC9202
:1035C0009D9789819A81AB81BC81E985FA85818348
:1035D0009283A383B483158616861786108A20E00B
:1035E00030E040E751E4622D7A2D8B2D912F0E941F
:1035F00079455B018C016B017C0120E030E0A90181
:103600000E94724587FDA0C0B501C8010E94E14536
:10361000CB01AA2797FDA095BA2FE985FA85848F5B
:10362000958FA68FB78F128A118A468A578A608E25
:10363000718E81E090E0938F828F83E0808320E021
:1036400030E0C9012A960FB6F894DEBF0FBECDBF99
:10365000DF91CF911F910F91FF90EF90DF90CF906E
:10366000BF90AF909F908F907F906F905F904F90A2
:103670003F902F90089520E030E0E3CF23EC38EB2B
:1036800042E35EEB632D782D892D902F0E945947E0
:1036900018160CF067CF123049F1133011F182E0A7
:1036A000A985BA858C93FD0141825282638274821E
:1036B000128A118A8DE491E0A0E0B0E0848F958FAA
:1036C000A68FB78F20E030E0BCCF8230910509F0A3
:1036D0000CCF2FEF3FEFB5CF8330910509F005CF29
:1036E000F8CFE3E0AE16B104D1F6F3CFB2E0AB16FB
:1036F000B104A9F6EECFD701C601B0588D839E83E1
:10370000AF83B8879C01AD01632D782D892D902F53
:103710000E94794520E030E04AE754E40E945D478A
:10372000262EA72EB82E192F20E030E0A901632DF8
:10373000782D892D902F0E94594718167CF4CD8042
:10374000DE80EF80F88435CFC701B60190580E9423
:10375000E1455ECFF7FAF094F7F8F094E985FA8541
:10376000C2A6D3A6E4A6F5A62CCF2F923F924F92E5
:103770005F926F927F928F929F92AF92BF92CF9201
:10378000DF92EF92FF920F931F93CF93DF93CDB70A
:10379000DEB72A970FB6F894DEBF0FBECDBF5C012F
:1037A0002A013B01680179011091030E123009F4DE
:1037B0000BC1133009F40FC120E030E0A901C701AB
:1037C000B6010E947245882309F4D4C0C50101974F
:1037D00023E4289FD001299FB00D1124A05EB04F93
:1037E000BA87A9879E968D919D910D90BC91A02D31
:1037F00089839A83AB83BC83E985FA8562A973A91F
:10380000882777FD8095982F0E9414462BED3FE086
:1038100049EC50E40E945D479B01AC0169817A81CB
:103820008B819C810E940E459B01AC01C301B201BA
:103830000E940D45362E872E982E092F20E030E06D
:10384000A9010E94724587FD98C023EC38EB42E342
:103850005EE3632D782D892D902F0E94724587FDA0
:1038600099C020E030E0A901C701B6010E9472456D
:1038700087FDC0C0A7019601632D782D892D902F5B
:103880000E94794520E030E04AE754E40E945D4719
:10389000262EA72EB82E192F20E030E0A901632D87
:1038A000782D892D902F0E94594718160CF0D1C001
:1038B000A985BA859A96CD92DD92ED92FC929D975C
:1038C00089819A81AB81BC81E985FA858183928364
:1038D000A383B483158616861786108A20E030E00D
:1038E00040E751E4622D7A2D8B2D912F0E9479456E
:1038F0005B018C016B017C0120E030E0A9010E949A
:10390000724587FDA0C0B501C8010E94E145CB0109
:10391000AA2797FDA095BA2FE985FA85848F958F00
:10392000A68FB78F128A118A468A578A608E718E47
:1039300081E090E0938F828F83E0808320E030E00D
:10394000C9012A960FB6F894DEBF0FBECDBFDF9136
:10395000CF911F910F91FF90EF90DF90CF90BF908C
:10396000AF909F908F907F906F905F904F903F901F
:103970002F90089520E030E0E3CF23EC38EB42E3D2
:103980005EEB632D782D892D902F0E9459471816D4
:103990000CF067CF123049F1133011F182E0A985A4
:1039A000BA858C93FD014182528263827482128AAD
:1039B000118A8DE491E0A0E0B0E0848F958FA68F0E
:1039C000B78F20E030E0BCCF8230910509F0F4CE13
:1039D0002FEF3FEFB5CF8330910509F0EDCEF8CF53
:1039E00043E0A416B104D1F6F3CFF2E0AF16B10470
:1039F000A9F6EECFD701C601B0588D839E83AF8361
:103A0000B8879C01AD01632D782D892D902F0E94E0
:103A1000794520E030E04AE754E40E945D47262ED5
:103A2000A72EB82E192F20E030E0A901632D782DA4
:103A3000892D902F0E94594718167CF4CD80DE8086
:103A4000EF80F88435CFC701B60190580E94E14558
:103A50005ECFF7FAF094F7F8F094E985FA85C2A6FC
:103A6000D3A6E4A6F5A62CCF2F923F924F925F9259
:103A70006F927F928F929F92AF92BF92CF92DF927E
:103A8000EF92FF920F931F93CF93DF93CDB7DEB7E3
:103A90002A970FB6F894DEBF0FBECDBF1C012A01D6
:103AA0003B01480159011091030E123009F4E0C0A6
:103AB000133009F4E4C0C101019723E4289FD00129
:103AC000299FB00D1124A05EB04FBA87A9879E969A
:103AD0008D919D910D90BC91A02D89839A83AB838C
:103AE000BC839C01AD01C301B2010E940D450E943F
:103AF00098156B017C0120E030E0A9010E9472451D
:103B000087FD8FC023EC38EB42E35EE3C701B601CB
:103B10000E94724587FD90C020E030E0A901C501F8
:103B2000B4010E94724587FDAFC0A5019401C70191
:103B3000B6010E94794520E030E04AE754E40E9453
:103B40005D47262E072F182F392E20E030E0A901DF
:103B5000C701B6010E94594718160CF0C7C0A985C5
:103B6000BA859A968D929D92AD92BC929D978981CD
:103B70009A81AB81BC81E985FA8581839283A38395
:103B8000B483158616861786108A20E030E040E759
:103B900051E4622D702F812F932D0E9479455B0196
:103BA0008C016B017C0120E030E0A9010E9472458C
:103BB00087FD95C0B501C8010E94E145CB01AA2748
:103BC00097FDA095BA2FE985FA85848F958FA68FEA
:103BD000B78F128A118A468A578A608E718E81E069
:103BE00090E0938F828F83E0808320E030E0C901F2
:103BF0002A960FB6F894DEBF0FBECDBFDF91CF91EE
:103C00001F910F91FF90EF90DF90CF90BF90AF90FA
:103C10009F908F907F906F905F904F903F902F90EC
:103C2000089523EC38EB42E35EEBC701B6010E9436
:103C3000594718160CF070CF123009F44AC01330EF
:103C400009F45FC082E0A985BA858C93FD014182A9
:103C5000528263827482128A118A8DE491E0A0E01C
:103C6000B0E0848F958FA68FB78F20E030E0BFCF74
:103C70008230910509F01FCF2FEF3FEFB8CF83308F
:103C8000910509F018CFF8CFD501C401B0588D8344
:103C90009E83AF83B8879C01AD01C701B6010E9426
:103CA000794520E030E04AE754E40E945D47262E43
:103CB000072F182F392E20E030E0A901C701B601E7
:103CC0000E9459471816B4F48D809E80AF80B88446
:103CD00046CFB2E02B16310409F0B4CFCDCFC701E7
:103CE000B60190580E94E145CB0169CFB7FAB09474
:103CF000B7F8B094E985FA8582A693A6A4A6B5A6DE
:103D000036CFE3E02E16310409F09CCFB5CF2091D9
:103D1000030E223049F1233091F1019723E4289FCB
:103D2000F001299FF00D1124E05EF04F2081223038
:103D300001F1233021F0213011F080E0089523E4D7
:103D4000289FF001299FF00D1124E05EF04F20E044
:103D500030E0A90162A573A584A595A50E945947E5
:103D600018168CF481E0089582309105B1F68FEF3A
:103D7000089581899289892BA9F383E0089583307E
:103D8000910559F6F4CF82E008956235A9F06335C4
:103D900081F0663459F0A098A19820E1829FC0017B
:103DA000112490938900809388000895A09AA19887
:103DB000F4CFA09AA19AF1CFA098A19AEECF623544
:103DC000A9F0633581F0663459F0A298A59820E1F6
:103DD000829FC001112490938B0080938A000895E4
:103DE000A29AA598F4CFA29AA59AF1CFA298A59AE3
:103DF000EECF0F931F938A019B0177FD28C0F80136
:103E00000F3F110519F010F0EFEFF0E08130910550
:103E100091F074F0049764F477FD33C0452B462B82
:103E2000472BE9F066E48E2F1F910F910C94DF1E53
:103E30001F910F91089577FD1EC0452B462B472BF0
:103E4000A1F066E48E2F1F910F910C94C51E0027E0
:103E500011279801041B150B260B370BD0CF6EE4EE
:103E60008E2F1F910F910C94DF1E6EE48E2F1F91E9
:103E70000F910C94C51E62E58E2F1F910F910C942B
:103E8000C51E62E58E2F1F910F910C94DF1ECF93FC
:103E9000DF939C012150310943E4429FE001439F9D
:103EA000D00D1124C05ED04F4D89413061F14230B8
:103EB000E1F0442309F471C0433011F548814230E8
:103EC00009F463C0433009F470C043E4429FF00139
:103ED000439FF00D1124E05EF04F46A557A560A961
:103EE00071A9DF91CF910C94211A20E030E0A90153
:103EF0006EA17FA188A599A50E94724581112AC053
:103F0000DF91CF91089520E030E0A9016EA17FA15B
:103F100088A599A50E947245882391F383E0888340
:103F20008FEF9FEFDC018C8F9D8FAE8FBF8F8EA5A3
:103F30009FA5A8A9B9A989839A83AB83BC838EA1C5
:103F40009FA1A8A5B9A58AA79BA7ACA7BDA7DF91EC
:103F5000CF91089583E088838FEF9FEFDC018C8FF2
:103F60009D8FAE8FBF8F8EA59FA5A8A9B9A9898364
:103F70009A83AB83BC838EA19FA1A8A5B9A5B05895
:103F80008AA79BA7ACA7BDA7BBCF49895A89452B58
:103F900009F49BCF1C8A1B8AB3CF188240E050E003
:103FA000BA01DF91CF910C94F91E49815A816B813E
:103FB0007C81DF91CF910C94211A2F923F924F92E6
:103FC0005F926F927F928F929F92AF92BF92CF92A9
:103FD000DF92EF92FF920F931F93CF93DF93CDB7B2
:103FE000DEB76B970FB6F894DEBF0FBECDBF60E2B1
:103FF000662E6FE0762E75E3472E7FE0572EE4E6BF
:104000002E2EE2E03E2E82E49FE09E878D87A8E57B
:10401000BFE0BA87A987E9E5FFE0FC87EB87882442
:104020008394912C82E090E098878F837E826D82CA
:104030005D8A4C8A0E940D098091030E823029F41A
:10404000B2E08B16910409F4AAC06F807884E2E094
:104050006E1A7108C4010E94E4155B018C01862F61
:104060009B2DA02FB12FEC89FD89818F928FA38F7B
:10407000B48F7F0163011DC0809162029091630241
:104080000B979CF5C4010E94E4155B018C01862FFF
:104090009B2DA02FB12FF701818F928FA38FB48F0B
:1040A00080916202909163020196909363028093E3
:1040B0006202D1018D919D910D90BC91A02D8983BB
:1040C0009A83AB83BC839C01AD016A2D7B2D802F2D
:1040D000912F0E940D450E94981523EC38EB42E386
:1040E0005EE30E94594718163CF2FD8AEC8A3601BD
:1040F000C980DA80EB80FC80109263021092620229
:1041000020E030E040E250EC6A2D7B2D802F912F93
:104110000E94724587FF6DC020E030E040E250E42D
:10412000C701B6010E94594718160CF062C0EC890D
:10413000FD89858D968D0196968F858FA18CB28C89
:10414000038D148D8A2D9B2DA02FB12FF10180831B
:104150009183A283B383AD81BE818C91823009F4B7
:1041600072C108F074C08111E8C1ED81FE81848DB7
:10417000958DA68DB78D0097A105B10509F4A8C34B
:104180004CF00197A109B109ED81FE81848F958FD3
:10419000A68FB78FEF81F885349709F43BC1AF81C3
:1041A000B8851196B887AF83ED81FE81ED5BFF4F37
:1041B000FE83ED838C899D898D5B9F4F9D8B8C8BBE
:1041C0009FEF891A990AA4E02A0E311CED85FE851D
:1041D000ED5BFF4FFE87ED8789859A858D5B9F4F4D
:1041E0009A878987AB85BC85AD5BBF4FBC87AB87A2
:1041F00021CF20E030E040E250E46A2D7B2D802F7B
:10420000912F0E94594718160CF09CCF20E030E007
:1042100040E250ECC701B6010E94724587FF92CF81
:10422000AC89BD895D968D919C915E9701975E9654
:104230009C938E935D975996AC9059975A96BC90E3
:104240005A975B960C915B975C961C917BCF833061
:1042500009F4E2C1843009F09DCF60914D02709164
:104260004E0280914F02909150020E94124620E02F
:1042700030E04AE754E40E94794569837F87888B60
:10428000998BAB85BC856C91772767FD7095872FDF
:10429000972F0E94144620E030E040E05CE30E944B
:1042A0005D4720E030E040EA50E40E945D4720E0B6
:1042B00030E040E05FE30E945D477B016C01B3E4C6
:1042C000B69D5001B79DB00C1124EFE5FFE0AE0E96
:1042D000BF1E01E010E09F8A8E8A398E288E362E0E
:1042E0002F2C982E8D2CBB8EAA8EB801882777FD97
:1042F0008095982F0E9414462BED3FE049EC50E446
:104300000E945D47B981AF85E889F9882B2F3A2F44
:104310004E2F5F2D0E945D4720E030E040E251E4E7
:104320000E9479456B017C017D2D9F2D0E94C04725
:104330002B013C01F50135976081772767FD70956A
:10434000872F972F0E94144620E030E040E05CE386
:104350000E945D4720E030E040EA50E40E945D4763
:10436000A30192010E945D47D101F4012B2F322D50
:104370004F2F582D0E940E453B014C01FFEFAF1A05
:10438000BF0A6C2D7D2D8E2D9F2D0E9476456B01D1
:104390007C01AA8DBB8D6C91772767FD7095872F67
:1043A000972F0E94144620E030E040E05CE30E943A
:1043B0005D4720E030E040EA50E40E945D47A701FD
:1043C00096010E945D47262D372D482D592D0E94BC
:1043D0000E45362E272E982E892E0F5F1F4F053043
:1043E000110509F080CFF72E288C398CC82ED92ED4
:1043F0008E889F88862F9F2DAC2DBD2DED81FE814F
:1044000081839283A383B483128A118A8FEF9FEFF3
:10441000DC012AC06B960FB6F894DEBF0FBECDBF8D
:10442000DF91CF911F910F91FF90EF90DF90CF9090
:10443000BF90AF909F908F907F906F905F904F90C4
:104440003F902F900895ED81FE81848D958DA68DEE
:10445000B78D0097A105B10509F480C0B4F00197AC
:10446000A109B109ED81FE81848F958FA68FB78F49
:10447000AC89BD895996AC9059975A96BC905A9779
:104480005B960C915B975C961C912A2D3B2D402FDF
:10449000512FED81FE8161817281838194810E941F
:1044A0000D450E9498156B017C0120E030E0A901C8
:1044B0000E94724587FD70C123EC38EB42EB5DE34F
:1044C000C701B6010E94724587FD71C1AD81BE81F1
:1044D00051968D919C915297892B09F453C020E0FD
:1044E00030E0A901C701B6010E94724587FD08C2EC
:1044F000C701B60120915C0230915D0240915E02DD
:1045000050915F020E9459471816E4F5E985FA8533
:1045100020812F5F208330E080915A0290915B02CE
:104520008217930790F5AD81BE811C9240E050E068
:10453000BA01C4010E94F91E2DCE813009F02ACEA5
:10454000AC89BD898C9181114BC1ED81FE811082B6
:10455000EF81F885349709F022CE5CCF818992896A
:10456000892B09F4A8C18FEF9FEFDC01ED81FE815B
:10457000848F958FA68FB78FEF81F885349709F0D8
:104580000ECE48CFE985FA851082AD81BE811596A1
:104590002D913D914D915C911897C701B6010E94F4
:1045A0005D472B013C01ED81FE81258536854785E0
:1045B000508961857285838594850E945D479B0142
:1045C000AC01C301B2010E940E450E94E145AB015E
:1045D000BC01C4010E94F91E2FE832EC45E75CE300
:1045E000C701B6010E945D479B01AC01AD81BE8150
:1045F0001D966D917D918D919C9150970E940E45D5
:10460000ED81FE81658776878787908BEF81F885BE
:10461000349709F0C4CDFECEED81FE81848D958D59
:10462000A68DB78D0097A105B10509F041C081E0C5
:1046300090E0928B818BDF01158616861786108A93
:10464000EC89FD8914861386F2E0FC935A968D91CD
:104650009C915B97892B59F0FD0186899789A08DE4
:10466000B18D81839283A383B483138E128EEFEF77
:10467000FFEFAC89BD891C96FC93EE931B97AD812F
:10468000BE8153968D919C915497892B09F46BCFE1
:1046900082E490E0A0E0B0E0ED81FE81848F958F10
:1046A000A68FB78FEF81F885349709F078CDB2CE19
:1046B000181619061A061B064CF40197A109B10930
:1046C000ED81FE81848F958FA68FB78F2FE832EC16
:1046D00045E75CE3AC89BD8955966D917D918D91DF
:1046E0009C9158970E945D47ED81FE812181328126
:1046F000438154810E940E45062F172F282F392FF2
:10470000AD81BE8111960D931D932D933C9314970B
:10471000EC89FD89218D328D438D548D0E940D458C
:104720000E9498156B017C0120E030E0A9010E94F5
:1047300072452601370187FDB9C060915C02709116
:104740005D0280915E0290915F029B01AC010E942C
:104750000E459B01AC01C301B2010E945947A985D6
:10476000BA8518160CF053C02C912F5F2C9330E0B3
:1047700080915A0290915B028217930708F00ACD4C
:10478000ED81FE811082138E128E40E050E0BA015E
:10479000C4010E94F91EFECC23EC38EB42EB5DEB2A
:1047A000C701B6010E94594718160CF08FCEE1E000
:1047B000F0E0AD81BE815296FC93EE9351975396F3
:1047C0008D919C915497892B09F0AFCE8FEF9FEF7D
:1047D000DC01ED81FE81848F958FA68FB78F76CE19
:1047E000813009F459C0ED85FE85408150E0519536
:1047F00041955109662757FD6095762FC4010E94A7
:10480000F91EEF81F885349709F0C9CC03CE1C92CC
:10481000ED81FE812581368147815085C701B60132
:104820000E945D472B013C01AD81BE811D962D91FB
:104830003D914D915C91509719966D917D918D911F
:104840009C911C970E945D479B01AC01C301B20182
:104850000E940E450E94E145AB01BC01C4010E94CB
:10486000F91E2FE832EC45E75CE3C701B6010E9470
:104870005D479B01AC01ED81FE816585768587856D
:1048800090890E940E45AD81BE811D966D937D93EA
:104890008D939C9350977ECCAD85BE854C9150E016
:1048A00060E070E0C4010E94F91E74CC77FA709445
:1048B00077F8709442CF108240E050E0BA01C40112
:1048C0000E94F91EEF81F885349709F068CCA2CDDB
:1048D000AC89BD891B968C911B978C93C4010E9457
:1048E000471F8FEF9FEFDC01ED81FE81848F958F55
:1048F000A68FB78FEF81F885349709F050CC8ACD19
:10490000C701B6019058F6CD1092AD021092200F5B
:104910001092630F1092A60F6EE480E00E94C51EF5
:104920006EE480E00C94DF1E7F928F929F92AF9294
:10493000BF92CF92DF92EF92FF920F931F93CF938C
:10494000DF9300D000D0CDB7DEB780E190E00E94C9
:104950006C14813A09F444C0A4E5CA2EAFE0DA2E03
:10496000E12CF12C01E010E0C8010E94E415DC010B
:10497000CB01B05889839A83AB83BC83F6018083D3
:104980009183A283B38344E050E0BE016F5F7F4F09
:10499000C7010E947D140F5F1F4FF3E4CF0ED11C9F
:1049A00084E0E80EF11C04301105F1F661EA80E1C3
:1049B00090E00E943E1421E030E0C9010F900F907A
:1049C0000F900F90DF91CF911F910F91FF90EF907B
:1049D000DF90CF90BF90AF909F908F907F90089581
:1049E000B4E5AB2EBFE0BB2E812C912C00E010E093
:1049F00083E4782E709EB001719E700D11246C5A64
:104A0000704F44E050E0C4010E94A214F501C08040
:104A1000D180E280F38020E030E040E450E4C70140
:104A2000B6010E94724587FF0AC020E030E040E4F2
:104A300050ECC701B6010E94594718162CF0F50139
:104A400010821182128213820F5F1F4FF4E08F0ECB
:104A5000911C83E4A80EB11C0430110559F620E026
:104A600030E0ABCF1092540F1092550F1092560FAA
:104A70001092570F1092970F1092980F1092990F53
:104A800010929A0F1092DA0F1092DB0F1092DC0F37
:104A90001092DD0F60EA80E190E00E943E140E94D7
:104AA000942480E090E008956091030EE0E2FFE03E
:104AB00081E090E020E030E0623099F06330A9F0CE
:104AC0004081442321F041895289452BA9F083304C
:104AD000910571F02F5F3F4F0196ED5BFF4F623004
:104AE00069F72130310561F7F5CF2230310541F703
:104AF00020E030E0C901089521E030E0FBCF1092C2
:104B00008502109284021092830210928202109207
:104B100081021092800208950F931F93CF93DF9329
:104B200083E090E09093CD008093CC008091C8000A
:104B30008D7F8093C80088E98093C90080E890E069
:104B40000E946A4C80937B1090937C1080E890E0E8
:104B50000E946A4C8C0190937E1080937D10C0E07F
:104B6000D0E004C000917D1010917E1084E090E0B0
:104B70000E946A4CF801EC0FFD1F808391832296FE
:104B8000C038D10579F710927A10DF91CF911F913B
:104B90000F9108951F920F920FB60F9211240BB62A
:104BA0000F922F933F934F938F939F93EF93FF9386
:104BB0004091CE00809180029091810220918202EA
:104BC00030918302820F931F8F73907897FD1BC0E3
:104BD000FC01E65CFF4E408380918202909183024B
:104BE00001969093830280938202FF91EF919F91AF
:104BF0008F914F913F912F910F900BBE0F900FBE51
:104C00000F901F9018950197806C9F6F0196E0CFD1
:104C1000161617066CF4FC01680F791F91918091AC
:104C2000C80085FFFCCF9093CE00E617F707B1F7D9
:104C30000895CF93DF93CDB7DEB780E090E0DF91AA
:104C4000CF910895CF93DF93EB01FC013081309336
:104C5000B106362F3A5F3093B2065093B3064093B5
:104C6000B4062093B50626EB36E0AB01BC01C901C2
:104C70000E94F24ECF54D94F81E18D8381EB96E0B3
:104C8000DF91CF910895CF93DF93EB0120E1209343
:104C9000B107262F2D5F2093B20723EB37E0AB013E
:104CA000BC01C9010E94F24ECF54D84F81E18A83E2
:104CB00081EB97E0DF91CF9108954F925F926F92D1
:104CC0007F928F929F92AF92BF92CF92DF92EF929C
:104CD000FF920F931F93CF93DF93EC01680F791F1F
:104CE00061507109DB018C91088181110BC0023484
:104CF00031F088F5023330F0063308F08AC08A813B
:104D0000833030F410E0F801F097EF34F105F8F05B
:104D10008FEF8093B10883E08093B20881E18093A4
:104D2000B30881EBC82E88E0D82EC601DF91CF9161
:104D30001F910F91FF90EF90DF90CF90BF90AF90B9
:104D40009F908F907F906F905F904F900895E05765
:104D5000FF4F0C94644C802F8454833098F6CFCF4F
:104D6000CB80DC80ED80FE8022E93AE046E850E42A
:104D7000C701B6010E94594718160CF404C722E96E
:104D80003AE046E850ECC701B6010E94724587FF41
:104D900008C042E9C42E4AE0D42E46E8E42E40EC96
:104DA000F42EEA8123E42E9FF0011124E05EF04FFF
:104DB000C6A2D7A2E0A6F1A68A8190E0289FF001C2
:104DC000299FF00D1124E05EF04F2589213039F044
:104DD000223009F0E1C6F7FAF094F7F8F094C2A691
:104DE000D3A6E4A6F5A660E070E080E090E0DF9155
:104DF000CF911F910F91FF90EF90DF90CF90BF90D8
:104E0000AF909F908F907F906F905F904F900C9499
:104E100043260E3309F076CF72CF81E28093B1083A
:104E200089E08093B20880911A0F90911B0F9093A4
:104E3000B30880911A0F90911B0F8093B408809152
:104E4000480290914902A0914A02B0914B0280938E
:104E5000B5089093B608A093B708B093B80810921D
:104E6000B90831EBC32E38E0D32E5FCFEA8123E4BB
:104E7000E29FF0011124E05EF04F86A597A5A0A95E
:104E8000B1A98093B1089093B208A093B308B093EE
:104E9000B40864E070E081EB98E0A9CFEA8183E494
:104EA000E89FF0011124E05EF04FC6A4D7A4E0A86B
:104EB000F1A862A973A9882777FD8095982F0E9491
:104EC00014462BED3FE049EC50E40E945D479B0106
:104ED000AC01C701B6010E940E456093B108709302
:104EE000B2088093B3089093B40864E070E0D3CF25
:104EF0004B815C816D817E818A8190E001960E9468
:104F0000211A60E070E080E090E071CF80914D0266
:104F100090914E02A0914F02B09150028093B1083F
:104F20009093B208A093B308B093B408EA8193E4D5
:104F3000E99FF0011124E05EF04F86A597A5A0A996
:104F4000B1A98093B5089093B608A093B708B09321
:104F5000B80868E070E09FCF8A8190E001960E94D7
:104F6000871E8093B10861E070E095CF82E99AE0F6
:104F7000A6E8B0E48093B1089093B208A093B30878
:104F8000B093B40864E070E086CF8A810E943A1141
:104F90006093B1087093B2088093B3089093B408FB
:104FA00064E070E078CF80915C0290915D02A09106
:104FB0005E02B0915F028093B1089093B208A09313
:104FC000B308B093B40864E070E065CF8A819B8138
:104FD000AC81BD8180935C0290935D02A0935E02E0
:104FE000B0935F0260E070E080E090E000CF8091DD
:104FF0005A0290915B022FE0289FB001299F700D0B
:10500000112480E090E00E94124620E030E04AE760
:1050100054E40E9479456093B1087093B20880937C
:10502000B3089093B40864E070E035CF6A817B8167
:105030008C819D8120E030E04AE754E40E945D4786
:1050400020E030E040E751E40E9479450E94E645C7
:1050500070935B0260935A0260E070E080E090E041
:10506000C6CE0E94842460E070E080E090E0BFCE75
:1050700082E58093B10861E070E00DCF4A815B81E9
:105080006C817D818E810E94301060E070E080E054
:1050900090E0ADCE8A818093470260E070E080E0CE
:1050A00090E0A5CE1092530F1092520F1092960FCF
:1050B0001092950F1092D90F1092D80F60E070E007
:1050C00080E090E094CE4A815B816C817D8181E0BB
:1050D00090E00E94211A4E815F816885798582E087
:1050E00090E00E94211A4A855B856C857D8583E06E
:1050F00090E00E94211A60E070E080E090E077CEBE
:1051000080914E0F90914F0FA091500FB091510F81
:105110008093B1089093B208A093B308B093B408F9
:105120008091910F9091920FA091930FB091940F55
:105130008093B5089093B608A093B708B093B808C9
:105140008091D40F9091D50FA091D60FB091D70F29
:105150008093B9089093BA08A093BB08B093BC0899
:1051600060E170E098CE0EE41FE0C0E0D0E0D8012E
:10517000CD90DD90ED90FC90139781EBA82E88E008
:10518000B82EAC0EBD1E14966D917C911597882794
:1051900077FD8095982F0E9414462BED3FE049EC57
:1051A00050E40E945D479B01AC01C701B6010E941B
:1051B0000E45F50160837183828393830D5B1F4FDE
:1051C0002496C031D10599F660E170E064CE8091FB
:1051D0004D0290914E02A0914F02B09150028093E7
:1051E000B1089093B208A093B308B093B40880912B
:1051F0004E0F90914F0FA091500FB091510F80938F
:10520000B5089093B608A093B708B093B8088091FA
:10521000910F9091920FA091930FB091940F809362
:10522000B9089093BA08A093BB08B093BC088091CA
:10523000D40F9091D50FA091D60FB091D70F809336
:10524000BD089093BE08A093BF08B093C00864E166
:1052500070E021CE80914D0290914E02A0914F02BC
:10526000B09150028093B1089093B208A093B30814
:10527000B093B4080EE41FE0C4E0D0E0D801CD90B4
:10528000DD90ED90FC901397F1EBAF2EF8E0BF2E80
:10529000AC0EBD1E14966D917C911597882777FDF5
:1052A0008095982F0E9414462BED3FE049EC50E486
:1052B0000E945D479B01AC01C701B6010E940E45EB
:1052C000F50160837183828393830D5B1F4F249666
:1052D000C031D10599F664E170E0DDCDEA818E2F11
:1052E00090E023E4E29FF0011124E05EF04F06A17C
:1052F00017A120A531A54B815C816D817E8101962E
:105300000E944E1A60E070E080E090E070CDEA818B
:105310008E2F90E0A3E4EA9FF0011124E05EF04FAD
:1053200006A117A120A531A54B815C816D817E81ED
:1053300001960E94B51B60E070E080E090E057CDE0
:10534000EA818E2F90E0B3E4EB9FF0011124E05E40
:10535000F04F06A117A120A531A54B815C816D817D
:105360007E8101960E94341D60E070E080E090E054
:105370003ECDEA8183E4E89FF0011124E05EF04F26
:1053800086A197A1A0A5B1A58093B1089093B2087A
:10539000A093B308B093B40864E070E07CCD6E01D4
:1053A00092E0C90ED11C36E4E32E3FE0F32EC0E0BC
:1053B000D0E02196D7010D911D912D913C91F601E0
:1053C00041915191619171916F01CE010E944E1AEC
:1053D000F3E4EF0EF11CC330D10559F704CD6E0193
:1053E00022E0C20ED11C26E4E22E2FE0F22EC0E015
:1053F000D0E02196D7010D911D912D913C91F601A0
:1054000041915191619171916F01CE010E94B51B43
:10541000F3E4EF0EF11CC330D10559F7E4CC6E0173
:1054200022E0C20ED11C96E4E92E9FE0F92EC0E0E6
:10543000D0E02196D7010D911D912D913C91F6015F
:1054400041915191619171916F01CE010E94341D82
:10545000F3E4EF0EF11CC330D10559F7C4CC6E0153
:10546000E2E0CE0ED11CC6E4DFE0E12CF12CFFEF30
:10547000EF1AFF0A488059806A807B802885398529
:105480004A855B85D6016D917D918D919D916D01D0
:105490000E940E454B015C016C857D85882777FD58
:1054A0008095982F0E94144620E030E044EB53E4AE
:1054B0000E945D479B01AC01C501B4010E940E45ED
:1054C000AB01BC0193018201C7010E94B51BCD5BFA
:1054D000DF4FB3E0EB16F10451F685CCBE016C5FF3
:1054E0007F4F4B818A810E9477430E94E143892B41
:1054F00009F00ECC78CC4B8161EB78E08A810E9478
:1055000094430E94E143892B09F002CC6B8170E047
:10551000C2CC4B81FE01E40FF11DBE016C5F7F4FD9
:10552000048121EB38E08A810E94B3430E94E14369
:10553000892B09F0EDCB8B81C80FD11D6C8170E0F8
:10554000AACC413009F44AC344E050E068E472E078
:10555000CE0102960E94E54E009709F45ECCC12C64
:10556000D12CE3CB9A8180E0909352028093510238
:1055700080915102909152022B81822B9093520282
:105580008093510240E06FEF80E00E94AA0E60E03D
:1055900070E080E090E02BCC8A81982F9B50903176
:1055A00050F08FEF8093B10883E08093B20881E1DF
:1055B0008093B3088A810E94AC0281E00E94A40219
:1055C0008FEF80934701809147018093B10861E09C
:1055D00070E061CC10925202109251024FEF60E0E5
:1055E00080E00E94AA0E60E070E080E090E0FFCBD7
:1055F0004F816E818D810E94AA0E60E070E080E094
:1056000090E0F5CB6E01E4E0CE0ED11C01E010E09D
:105610008A8190E098012150310902C095958795C3
:105620002A95E2F780FD95C20F5F1F4FB2E0CB0EC7
:10563000D11C0430110561F7D6CB0E944E11609346
:10564000B1087093B2088093B3089093B40864E0F3
:1056500070E021CC9A8180E02B81822B0E94590D31
:1056600060E070E080E090E0C2CB0E943B0F8111CF
:10567000B1C28091FD0D9091FE0D9093B208809380
:10568000B1088091040F9091050F9093B408809316
:10569000B30880911D0F90911E0F9093B6088093D0
:1056A000B50866E070E0F7CB8091030E8093B108F7
:1056B00061E070E0F0CB8091000E9091010EA0911E
:1056C000020E8093B1089093B208A093B30863E0F0
:1056D00070E0E1CB9A8180E02B81822B009709F06A
:1056E00048C21092DC1E1092DB1E1092DE1E109239
:1056F000DD1E10929B0210929A024FEF60E080E054
:105700000E94AA0E70CB8A8190E00E94A53F60E0C3
:1057100070E080E090E06BCB8A8190E00E940A40CC
:1057200060E070E080E090E062CB0E9454258093BE
:10573000B10861E070E0AFCB90E2E92E9FE0F92E76
:1057400000E010E0CC24C394D12CC0E0D0E0C13004
:10575000D10509F4F1C1C230D10509F4A0C1C330AB
:10576000D10509F0A1C11092BD081092BE08109297
:10577000BF081092C00828CD1092B10861E070E017
:105780008ACB05E31FE07E01A5E0EA0EF11C20E0D4
:1057900030E0EFE08E2E912CA12CB12C8A8190E08C
:1057A000022E02C0959587950A94E2F780FD9AC172
:1057B000CC24C394D12CC20ED31E96010D5B1F4F77
:1057C000B6E0EB0EF11C2430310541F70CCB809193
:1057D0004D0290914E02A0914F02B09150028093E1
:1057E000B1089093B208A093B308B093B408CEE484
:1057F000DFE055ECC52E58E0D52E64E0E62EF12C06
:1058000000E010E0488059806A807B800F5F1F4F66
:1058100041EBA42E48E0B42EAE0CBF1C6C817D8100
:10582000882777FD8095982F0E9414462BED3FE046
:1058300049EC50E40E945D479B01AC01C301B201F9
:105840000E940E45F5016083718382839383C801B2
:105850000E94871ED6018D936D01CD5BDF4FB4E0B2
:10586000EB0EF11C0430110569F668E170E013CB12
:10587000DE01189680E090E023E4FD013597308149
:105880004A81FC01249FE00DF11D1124E05EF04FE0
:1058900031AF3D914A81FC01249FE00DF11D11249F
:1058A000E25AF04F308301968530910531F79BCA5B
:1058B000E0E2FFE080E090E044E02A8130E0082E62
:1058C00002C0359527950A94E2F720FD40830196A2
:1058D000ED5BFF4F8430910581F785CA498150E027
:1058E00044505109BE016D5F7F4F9A8180E042961E
:1058F0000E947D1460E070E080E090E078CA60E093
:1059000070E080E090E00E9443266C018A810E9452
:10591000630E0BCA80911A0F90911B0F9093B108E0
:1059200080911A0F90911B0F8093B20862E070E093
:10593000B2CA21EB38E0498150E0BE01C9010E94A2
:10594000F24E81E28093B1088091B208882309F475
:1059500006CEE1EBF8E090E08E0F9F1F31E2209140
:10596000C80025FFFCCF3093CE003196E817F90729
:1059700009F4F5CD3081F3CF0E94AE11D6C964E0B1
:1059800070E088E492E033CABE016E5F7F4F44E06E
:1059900050E082E194E00E947D148A819B81AC8179
:1059A000BD818093480290934902A0934A02B0932C
:1059B0004B0260E070E080E090E019CA80915016E0
:1059C0008111A6C98AE08093501660E070E080E003
:1059D00090E00DCA80917A10882399F1E0917B10B4
:1059E000F0917C1060917D1070917E1042E050E04B
:1059F00020E030E0CF01EA01CF54D74FDE0112970B
:105A000011811C9332968E0101501109DC018C9199
:105A1000D8018C93DB018D919D91BD01DC01CD906E
:105A2000DD90ED90FC90C882D982EA82FB822F5FE4
:105A30003F4F80917A104A5F5F4F90E028173907F7
:105A4000CCF260917A10B6E06B9FB001112423CAAA
:105A500010927A1060E070E080E090E0C8C98B811D
:105A6000EA81B3E4EB9FF0011124E05EF04F858BF7
:105A70008A8190E001960E94471F60E070E080E01C
:105A800090E0B5C9EA8123E4E29FF0011124E05ED1
:105A9000F04F85898093B10861E070E0FCC9809186
:105AA000030E833009F44DC0D7018C91823009F484
:105AB00077C060E070E0CB01F801EF54F74F6083EE
:105AC000718382839383B4E0CB16D10409F47CCB39
:105AD0002196EFEFCE1ADE0A0C5F1F4FF3E4EF0EB4
