:100000000C9471010C9490010C9490010C9490014B
:100010000C9490010C9490010C9490010C9490011C
:100020000C9490010C94B70A0C9490010C949001DC
:100030000C9490010C94DE030C9490010C949001AC
:100040000C9490010C9490010C9490010C949001EC
:100050000C9490010C9490010C9490010C949001DC
:100060000C9490010C94FB2C0C9490010C94900136
:100070000C9490010C9404150C9490010C94900134
:100080000C9490010C9490010C9490010C949001AC
:100090000C94BD2C0C9490010C9490010C944A4843
:1000A0000C9490010C9490010C94EA010C94FB01C7
:1000B0000C9490010C9490010C9490010C94860E79
:1000C0000C9490010C9490010C9490010C9490016C
:1000D0000C9490010C9490010C9490010C9490015C
:1000E0000C9490010C9490010C9490010C9490014C
:1000F0000C9423030C9490010C9490010C94F7023F
:100100000C9490010C9490010C9490010C9490012B
:100110000C9490010C9490010C9490010C9490011B
:10012000162EC02DA62E612ED82D702E882E192F9A
:10013000372F552F6E2FA32FD92F1E3064307930D3
:100140008E30A330AD30C530F13019312531363124
:10015000B32D46315B3168318931A031A331AB31E8
:10016000B331B731C431B32DFC32223399337633F6
:100170008C33B933C433D5331B345B34382E5E34FF
:10018000DD33E033E533FB33CB31DC311332F23195
:10019000F8311D322C32333254325D32B32DB32D4F
:1001A000B32DB32DB32DB32DB32DB32D6E328732B6
:1001B0008C3291329A32BA329734092FA434BA2E43
:1001C000813405A84CCDB2D44EB93836A9020C50B2
:1001D000B9918688083CA6AAAA2ABE000000803FE2
:1001E0006E616E00696E660000407A10F35A00A0DE
:1001F000724E18090010A5D4E80000E876481700F0
:1002000000E40B54020000CA9A3B000000E1F5052F
:10021000000080969800000040420F000000A08679
:1002200001000000102700000000E80300000000AB
:100230006400000000000A0000000000010000004F
:1002400000002C76D888DC674F0823DFC1DFAE5969
:10025000E1B1B796E5E3E453C63AE651997696E8FC
:10026000E6C28426EB898C9B62ED407C6FFCEFBC80
:100270009C9F40F2BAA56FA5F490055A2AF75C93AB
:100280006B6CF9676DC11BFCE0E40D47FEF520E6E1
:10029000B500D0ED902E0300943577050080841EC4
:1002A000080000204E0A000000C80C333333330F1F
:1002B000986E12831141EF8D2114893BE65516CFBC
:1002C000FEE6DB18D1844B381BF77C1D901DA4BBC8
:1002D000E424203284725E228100C9F124ECA1E57D
:1002E0003D2711241FBECFEFD1E4DEBFCDBF12E00A
:1002F000A0E0B2E0E4E4FDEA00E00BBF02C007903A
:100300000D92AC3CB107D9F710E2ACECB2E001C001
:100310001D92AC3DB107E1F70E9497130C94A056D3
:100320000C94000014BE88E10FB6F894809360002E
:10033000109260000FBE78940C94A10190E00C9490
:10034000B6011092F20980E29EE49093A900809396
:10035000A800E1EAF0E088E0808380818260808309
:10036000E2E7F0E080818260808308952091A4001C
:100370003091A500280F391F3093AB002093AA00BD
:100380002091AA003091AB008091A8009091A90023
:100390008217930770F48091AA009091AB0020918E
:1003A000A8003091A900821B930B9093AB0080931F
:1003B000AA001092CC028091720084608093720037
:1003C0008091CC028823E1F3809172008B7F80932F
:1003D000720008951F920F920FB60F9211248F93FF
:1003E0008091F2098F5F8093F2098F910F900FBE79
:1003F0000F901F9018951F920F920FB60F92112415
:100400008F9381E08093CC028F910F900FBE0F905D
:100410001F9018950F931F93CF93DF9310924E0167
:1004200083E08093420186E0809342018091410104
:100430008F718630D9F7C0E0D0E000E010E081E0B5
:100440000E949E012091460122952695237030E05E
:100450000C2E02C0220F331F0A94E2F7022B132B3B
:100460002296C031D10559F783E08093420188E09C
:1004700080934201809141018F718830D9F78FEFCD
:1004800080934F0180914E01886080934E0180914E
:100490004E01806480934E01C801DF91CF911F917E
:1004A0000F9108958091D602882361F083E08093B4
:1004B000420186E180934201809141018F71863132
:1004C000D9F7089583E08093420188E08093420148
:1004D000809141018F718830D9F708958091390159
:1004E00081608093390183E08093420188E08093AA
:1004F0004201809141018F718830D9F780916E015E
:10050000806280936E0180916E018F7E80936E0178
:100510008FEF80934F0180914E01886080934E0150
:1005200080914E01806480934E0180914C018068DF
:1005300080934C010E940A0280936D011092D002B8
:100540001092D60281E080930A020895E0EDF2E075
:100550009081986090838093D6020895E0EDF2E058
:100560009081916090838093D1020895E0EDF2E054
:100570002081226020839093D3028093D202089539
:10058000E0EDF2E02081246020839093D5028093F7
:10059000D402089580910A02813011F081E008951B
:1005A0009091D0029111FBCF80E0089523E0209339
:1005B000420129E120934201209141012F7129310B
:1005C000D9F7262F2E5F20938001662349F0FC0186
:1005D000A1E8B1E091919D939E2F981B9617D0F3BF
:1005E00082E08093420183E080930A0208951F9283
:1005F0000F920FB60F9211248F93809141018F714A
:10060000893131F08F910F900FBE0F901F90189588
:1006100083E08093420189E080934201809141010F
:100620008F718930D9F784E080930A02809142016A
:100630008295869587708093CF028F910F900FBE21
:100640000F901F9018951F920F920FB60F921124C2
:100650008F9389E080934201809147018093CE027D
:1006600080917B018093CD0285E080930A028F9177
:100670000F900FBE0F901F901895CF93DF9300D06F
:1006800000D01F92CDB7DEB780910A02843009F402
:1006900081C0853009F43FC0813041F00F900F9048
:1006A0000F900F900F90DF91CF9108959091D0020D
:1006B0009923A1F383E08093420188E08093420173
:1006C000809141018F718830D9F790FF09C0209146
:1006D000D1022F7180914801807E822B8093480146
:1006E00091FF08C08091D202809362018091D30271
:1006F0008093630192FF08C08091D40280936001CF
:100700008091D5028093610194FD53C00E945202F2
:100710001092D002C3CF8091CD0280E090E040E003
:10072000FC01E058FE4F2081FC01E952FD4F20837F
:100730004F5F2091CD02842F90E030E028173907D9
:100740007CF787ED92E09A8389838091CD02825075
:100750008B83E091CD02F0E0E952FD4F80818C83E4
:100760008091CE028A558D83CE0101960E94990513
:10077000809141018F718930D9F781E080930A021D
:100780000E9452020F900F900F900F900F90DF91E8
:10079000CF9108958091CF020E94830880914101FA
:1007A0008F718930D9F781E080930A020E9452024A
:1007B000E9CF0E940A020E94AB0EA8CF1F920F92AF
:1007C0000FB60F9211248F9381E0809357038F917E
:1007D0000F900FBE0F901F9018951092F70910926E
:1007E000F8091092F4091092F3091092FA09109284
:1007F000F9091092FC091092FB091092FE0910925F
:10080000FD090E94BC070E9475050E94F3040C9428
:1008100043049093F4098093F3090C94C0029093DD
:10082000F6098093F5090C94B602E82FF0E0EE0F7C
:10083000FF1FE750F64F7183608308950E94CD0536
:100840000E949F080C946104E0915803F0915903B1
:10085000309731F416C00190F081E02D309789F087
:100860002281338128173907B1F7DC01A158BF4F26
:100870002C912787DC01AE57BF4F2C91208B22E0B3
:1008800024830C941F051092590310925803089565
:10089000FC01148217861382128280915803909172
:1008A0005903009739F091838083F0935903E093C3
:1008B0005803089511821082F0935903E09358036E
:1008C00008950F931F93CF93DF93E0915803F09116
:1008D0005903309709F47BC0EF018C81811155C019
:1008E0008C850E94FA048C01009709F46DC09B83EB
:1008F0008A8381E08C83F801ED57FF4F84E294E016
:1009000091838083F801EE57FF4F898582FB88270A
:1009100080F980839985F801838590FB80F983872E
:10092000998593FB992790F990FB82F987708387CB
:100930008091F7098F5F8093F70984878091F3098D
:100940009091F409968785878D819E81908B87870A
:1009500098859F708189807F892B818B9F8192955B
:10096000907F8F70892B818B98012E5E3F4F4C8535
:100970006A857B8550E0C9010E94BE55C801DF91A0
:10098000CF911F910F910C94D707823039F00990C5
:10099000D881C02D209709F0A0CF19C0EC17FD0712
:1009A00011F41AC0FC01808191818C179D07D1F749
:1009B0008881998191838083ED85FE85CE01DF91C9
:1009C000CF911F910F91099482E08C838F87DF91E3
:1009D000CF911F910F910895888199819093590328
:1009E00080935803E9CF10925A031092DF031092BC
:1009F0006404089590915A03992361F09091DF0364
:100A00009923B9F0909164049923B1F020E030E08B
:100A1000C901089540E050E095E8949FF001959F4A
:100A2000F00D1124E65AFC4F805F81839F01C901BC
:100A3000089541E050E0F0CF42E050E0EDCFFC01FE
:100A40001082089595E8899F90011124265A3C4F01
:100A5000C9010895FC01DC01A158BF4F1C92DC01C3
:100A6000A058BF4F1D921C92DC01AE57BF4F1C9285
:100A7000DC01AD57BF4F1D921C921386A7EFB9E062
:100A80008C918F5F8C9384878091F3099091F40906
:100A900096878587108A1786118A08950C941F05FA
:100AA000EDEEF4E040E0208131812115310529F09F
:100AB000215031093183208341E0359625E0EF3123
:100AC000F20789F7411101C008950C948009DC01F7
:100AD0001596ED91FC9116972081222311F080E06C
:100AE00008950E945F0881E00895EDEEF4E0118220
:100AF0001082359685E0EF31F807C9F710921C0592
:100B000084E190E0A0E0B0E0809323059093240579
:100B1000A0932505B09326051092270580E595E062
:100B2000909329058093280567E675E080E00C9492
:100B30001504CF93DF93EC01E881F9818181883836
:100B400019F0DF91CF9108958081813611F08134C1
:100B5000C1F78A818031A8F380510E94FA0400977E
:100B600081F320E2FC0120832B81E158FF4F208399
:100B70002C81FC01E058FF4F20839C012E5F3F4FEA
:100B80004A816881798150E0C9010E94BE558091F7
:100B90001C058F5F80931C05D4CF4F925F926F929C
:100BA0007F928F929F92AF92BF92CF92DF92EF92FD
:100BB000FF920F931F93CF93DF93CDB7DEB72A97A2
:100BC0000FB6F894DEBF0FBECDBF80911C05882301
:100BD000F1F0A12C54E2B52E6EE4E62E65E0F62E7F
:100BE00072E2772EE7E9CE2ED12C8A2D0E942205C3
:100BF0008C01DC018C91823209F1843209F421C12B
:100C0000803209F4B3C0A394B3E0AB12EECF2A96BE
:100C10000FB6F894DEBF0FBECDBFDF91CF911F910D
:100C20000F91FF90EF90DF90CF90BF90AF909F908B
:100C30008F907F906F905F904F9008951092E9048D
:100C4000D80151962C91519722952F70822F90E0C8
:100C5000843091050CF0FEC0FC01EE0FFF1FE75041
:100C6000F64F0190F081E02D309709F4F3C01D9606
:100C70008D919C911E979A83898351963C915197AF
:100C80003F703B832C8398012E5E3F4F3F832E8322
:100C900011962C91119720512887A158BF4F2C9164
:100CA0002987D801A058BF4F2C912A87D8011B96BD
:100CB0002C91322F337022FDE9C040E0432BD80144
:100CC0001F962D913C9150972F3F3F4F09F4E9C05B
:100CD00030E0432BD80119962D913C911A97821739
:100CE000930709F4DCC090E0242F292BD801159636
:100CF0008D919C911697019609F4CFC090E0822FB8
:100D0000892B8D83CE0101960995F80127813085C5
:100D10002F3F3F4F09F4A6C060E0F801938590FF94
:100D2000B0C0882309F4ADC083E00E94FA044C01EE
:100D30000097C9F00E942A05F401ED57FF4FF18298
:100D4000E082D8011D968D919C911E97F401908BA5
:100D50008787128A8091E904848B1C968C91838BFF
:100D6000C4010E94D707D801BC924DCFF801B082D0
:100D700087859089019609F48BC06091F309709181
:100D8000F409F801458456846415750509F43BCFD0
:100D9000838581FD38CFC8010D96EAEEF4E020E0AE
:100DA00030E066246A940FC0DC018D909C904081F5
:100DB00051818416950609F476C02F5F3F4F359612
:100DC0002A30310559F043815481452B69F7622E51
:100DD0002F5F3F4F35962A303105A9F73FEF631655
:100DE00009F411CF862D992787FD9095FC01EE0F10
:100DF000FF1FEE0FFF1FE80FF91FE651FB4F518257
:100E00004082D8011C968C918283D482C3828DE16A
:100E100095E00E9480096091F3097091F409F8014E
:100E200087819085019609F453C0F80187859089E0
:100E30008617970719F0019609F0E5CED8017C9244
:100E4000E2CEC8010E941F0580911C05815080934D
:100E50001C05D9CE80E0F801278130852F3F3F4F18
:100E600009F05ACF61E04091F3095091F409D8019B
:100E70001F962D913C9150974217530709F04CCF84
:100E80004CCF611151CFD801BC92BDCE40E216CFFC
:100E90001B968C9180FF71CFB6CE90E130CF98E059
:100EA00023CF34E016CFF8018485F901EE0FFF1F40
:100EB000EE0FFF1FE20FF31FE651FB4F9281282F29
:100EC000291B12160CF09FCE8283D482C382A7CF37
:100ED000F801878590898617970709F4AFCFF80145
:100EE000258136812F3F3F4F09F4A5CFD8011B96AE
:100EF0002C9122FDA0CFC8010E9415086091F30932
:100F00007091F40992CF0C941F05FF920F931F93D9
:100F1000CF93DF93EC0180912C05882339F110E009
:100F200085E1F82E00E1812F0E942205FC018081DD
:100F3000843159F01F5F1330B1F7CE01DF91CF91AB
:100F40001F910F91FF900C948009DF01A058BF4FB3
:100F50002D913C911197215031092D933C93232BD6
:100F600049F7F082E158FF4F0083E4CFDF91CF9142
:100F70001F910F91FF90089510922B0510922A0552
:100F800010922C0582E390E0A0E0B0E0809333055E
:100F900090933405A0933505B0933605109237052C
:100FA00085E897E090933905809338050895FC0112
:100FB000DC01AE57BF4F8C9191E19083DF01A158C6
:100FC000BF4F1C9280FF20C08FEF9FEF96838583D9
:100FD00087859089908787832091F3093091F40960
:100FE000328721872091F8092F5F2093F809248305
:100FF000019689F081E698E89383828380912C059D
:101000008F5F80932C0508958091F5099091F609E2
:1010100096838583DDCF81E498E8938382838091F2
:101020002C058F5F80932C0508950F931F93CF930A
:10103000DF938C01FC01818180510E94FA04EC0154
:101040000097C1F1FC01ED57FF4F83E897E09183D2
:1010500080839E012E5F3F4FF80141810E5F1F4F3D
:1010600050E0B801C9010E94BE5581E18883FE01AC
:10107000E158FF4F108281E498E89B838A838FEFC9
:101080009FEF98878F838091F5099091F6099E8351
:101090008D838091F3099091F4099A8789878091D3
:1010A000F8098F5F8093F8098C8380912C058F5FFE
:1010B00080932C05DF91CF911F910F9108951F937D
:1010C000CF93DF93FC01C581D68180912C058823C5
:1010D00059F010E0812F0E942205FC0180818431AB
:1010E00039F01F5F1330B1F7DF91CF911F91089551
:1010F000948589819813F5CF85E180838A81EE57A5
:10110000FF4F8083F1CFE0912A05F0912B058330CA
:1011100080F0833081F0853081F081E0DF01A158DB
:10112000BF4F8C9383E1808310922B0510922A0588
:10113000089580E0F3CF80E2F1CF81E2EFCFAF926C
:10114000BF92DF92EF92FF921F93CF93DF93809134
:101150002C058823C1F010E095E1F92E24E1D22E70
:1011600037E0A32EB12C42E1E42E812F0E9422050C
:10117000EC018881833181F0853171F18131E9F0B1
:101180001F5F133091F7DF91CF911F91FF90EF9088
:10119000DF90BF90AF900895FE01E158FF4F80812E
:1011A000811109C04D855E852091F3093091F409C4
:1011B00042175307F9F0F882E3CF0E94CA02811167
:1011C000DFCFD0932B05C0932A05E8826981CE0139
:1011D00002960E94D602D4CFFE01ED57FF4F019038
:1011E000F081E02DCE01099580912C0581508093EE
:1011F0002C05C6CF8B8580FFDECFD882C058DF4F4D
:10120000B982A8828DE295E00E948009B9CF0E9440
:1012100092010E947B090E946E020C94ED030E94D1
:101220003D030E941E040C9496090F931F93CF93C5
:10123000DF93EC0180913A0590913B05009709F40A
:1012400047C04E815F8168857985FC01A0E0B0E0F0
:1012500001C0F901028113812481358140175107B2
:1012600062077307E0F0401B510B620B730B208188
:101270003181DF012115310561F74A835B836C837E
:101280007D831097D1F08D919C91119799838883DC
:10129000CD93DC93DF91CF911F910F910895041BA3
:1012A000150B260B370B02831383248335834A8364
:1012B0005B836C837D83109731F799838883D09308
:1012C0003B05C0933A05DF91CF911F910F9108958F
:1012D000198218828E819F81A885B9858A839B8314
:1012E000AC83BD83D0933B05C0933A05DF91CF918A
:1012F0001F910F91089510923B0510923A050895A1
:10130000E0913A05F0913B05309761F08E179F0709
:1013100021F40BC08E179F0739F00190F081E02D6A
:101320003097C1F70C94150908950895CF92DF9274
:10133000EF92FF92CF93DF938091F209882309F413
:1013400058C09FB7F8948091F2091092F2099FBF9C
:1013500090E0A0E0B0E0880F991FAA1FBB1F6C01AE
:101360007D01CC0CDD1CEE1CFF1CCC0CDD1CEE1C2E
:10137000FF1CC80ED91EEA1EFB1EC0913A05D09173
:101380003B052097B1F14A815B816C817D81C41658
:10139000D506E606F706A0F424C0EB85FC85CE0151
:1013A0000995C0913A05D0913B05209711F14A81EA
:1013B0005B816C817D81C416D506E606F70688F050
:1013C000C41AD50AE60AF70A8881998190933B05E9
:1013D00080933A058A85813001F7CE010E94150974
:1013E000DCCF4C195D096E097F094A835B836C83EE
:1013F0007D83DF91CF91FF90EF90DF90CF900895A4
:1014000081E080930C028091FF0986FF04C08091E7
:10141000FF0987FDA7C08091FF0986FF22C0809148
:101420009A0290919B02892BE9F080919902811197
:1014300023C010929B0210929A021092990281E0AE
:101440000E940B1010924B1F10924A1F10924D1FBA
:1014500010924C1F1092AD024FEF60E080E00C94B0
:10146000AC0E089583E00E940B100E94673C892B0C
:1014700009F476C00C94583C0E94814580ED80931D
:10148000BF158EE08093C01580919A0290919B02C7
:101490009093C11580919A0290919B028093C215FE
:1014A0001092C31586E78093C41588E08093C51514
:1014B0001092C6151092C7151092C8151092C91532
:1014C0008FEF8093CA151092CB1582E18093CC15D3
:1014D0006091C01520E04FEF5FEF8FEB95E10E9428
:1014E000FB396091C01520E04FEF5FEF8FEB95E186
:1014F0000E94FB396091C01520E04FEF5FEF8FEB4A
:1015000095E10E94FB396091C01520E04FEF5FEF3D
:101510008FEB95E10E94FB396091C01520E04FEF01
:101520005FEF8FEB95E10E94FB396091C01520E0E1
:101530004FEF5FEF8FEB95E10E94FB391092311F67
:1015400010929C0280E090E0FC01EE0FFF1FE15C36
:10155000FA4E11821082019680349105A9F769CF65
:101560000C94F83B0E94F92783E00C940B101F9217
:101570000F920FB60F9211240F900FBE0F901F9075
:1015800018950E947E0E80919A0290919B02892B61
:1015900031F080914A1F90914B1F0E943F460C945E
:1015A000B245CF93DF93CDB7DEB729970FB6F89446
:1015B000DEBF0FBECDBF0E947E0E80919A02909139
:1015C0009B02892B21F08091990281111EC080918C
:1015D000AD02813009F443C0833009F440C08091EA
:1015E0009A0290919B02892B29F08091990288237D
:1015F00009F465C00E944B4729960FB6F894DEBFE8
:101600000FBECDBFDF91CF91089580914A1F909179
:101610004B1F892B09F04DC080919C0290E00196F0
:1016200063E070E00E94DE5280939C0280919C02F5
:10163000813009F455C008F045C080914A1F90914F
:101640004B1F892B21F60E94221B0E9481454FEFE0
:1016500060E080E00E94AC0E1092311FCDCF82E09E
:101660008093AD0280919A0290919B02892BF1F0B8
:1016700080ED898389E08A8380919A0290919B0210
:101680009B8380919A0290919B028C831D828DE4B2
:101690008E8383E08F83188682E1898720E04FEF75
:1016A0005FEF69E0CE0101960E94FB390E94221B88
:1016B000A3CF80919C02882309F489CFADCF0E94EB
:1016C0008A479ACF823009F082CF0E94221B4FEFC7
:1016D0006FEF80E00E94AC0E89E08093311F8CCFC9
:1016E0000E94814540E06FEF80E00E94AC0E87E0F1
:1016F0008093311F81CF80ED97E0A0E0B0E0809330
:10170000050A9093060AA093070AB093080A81E09D
:101710008093040A80E09AE090930A0A8093090A71
:1017200084E09AE00C94803A84E09AE00C944C3A7D
:101730008F929F92AF92BF92CF92DF92EF92FF92E1
:101740000F931F93CF93DF93CDB7DEB72C970FB6D0
:10175000F894DEBF0FBECDBFE62EE826909147027B
:10176000992309F442C0E6FA442740F9E7FC93C004
:10177000E5FC446066FD63C030E021E067FD63C0C6
:10178000226065FF63C0346080E289838AE08A83D7
:1017900080914D0290914E02A0914F02B091500263
:1017A0008B839C83AD83BE834F83388729871A86BA
:1017B0008091510290915202892B09F449C02091E5
:1017C000D10E3091D20E8091510290915202281781
:1017D0003907F1F1409151025091520221E06AE043
:1017E000CE0101960E94FB3943C06623F9F0909127
:1017F0000C0291113DC0E6FE52C06C878B8766FFDC
:1018000062C00E947B0B20E030E06C858B85E7FC9A
:1018100053C0E5FE47C065FD45C086FD46C085FD59
:1018200075C087FF25C00E94D10A22C090910C028A
:101830009923E9F210920C0210920B0219C031E0C8
:1018400020E067FF9DCF326065FD9DCF24609CCF77
:101850004091D10E5091D20E21E06AE070E0CE01AD
:1018600001960E944A2DFC01618170E00E94392D91
:101870002C960FB6F894DEBF0FBECDBFDF91CF918F
:101880001F910F91FF90EF90DF90CF90BF90AF909E
:101890009F908F9008954260E5FE6CCF6ACF20E064
:1018A00030E0B5CF232B21F3B8CF87FD49C085FDAC
:1018B0002DC00E94C10ADCCF67FD0CC010920B0244
:1018C00021E030E0A6CF0E94940B21E030E06C854F
:1018D0008B859DCF91E090930B0280904D0290906C
:1018E0004E02A0904F02B09050028092000A909257
:1018F000010AA092020AB092030A9091311F9150FE
:10190000923008F086CF1092311F83CF0E947E0E56
:101910008091510290915202892B49F04FEF60E083
:1019200080E00E94AC0E109252021092510210926E
:101930004B1F10924A1F10924D1F10924C1F98CFB0
:1019400081E06C870E940B100E94BC476C85662367
:1019500019F081E080930C028091D70E811126C08E
:101960008091480F811122C08091B90F81111EC052
:101970003DE0C32E3FE0D32EE12CF12CF601118285
:101980001082FFEFEF1AFF0A0BED1FE029EC3FE397
:1019900040E050E0BA01C7010E94812481E7C80EEF
:1019A000D11CE3E0EE16F10449F762CF0E94221B3E
:1019B0005FCFCF9380914D0290914E02A0914F0244
:1019C000B091500240910D0250910E0260910F02B1
:1019D00070911002841B950BA60BB70B4997A105BC
:1019E000B105F0F0C9B1C095C07EC093FF098091E8
:1019F00011028C17A9F06C2F0E94980B80914D0258
:101A000090914E02A0914F02B091500280930D022E
:101A100090930E02A0930F02B0931002C093110294
:101A2000CF9108951092B100249808950C94120D4E
:101A3000CF93DF9382E48093B000A3EBB0E082EB1E
:101A40008C93E1EBF0E085E080832FEF32E597E0C7
:101A5000215030409040E1F700C000001082CFE1FB
:101A6000DEE42197F1F700C0000095E89C938083A5
:101A7000DFEF22E537E0D15020403040E1F700C0F1
:101A800000001082249881E08093930D84E690E01A
:101A9000A0E0B0E08093940D9093950DA093960DE7
:101AA000B093970D86E19DE09093990D8093980DEA
:101AB000DF91CF9108959C01009709F18A3F91052C
:101AC00078F085E08093B10064E274EF80E090E00C
:101AD000249A40E050E00E9414532093B3000895EC
:101AE00087E08093B10064E87EE180E090E0249A92
:101AF00040E050E00E9414532093B30008950C94EA
:101B0000120DCF93DF93C82FCF7082958F7009F19C
:101B100061E090E0660F9F5F9813FCCF70E0D0E02B
:101B2000CC0FDD1FCC0FDD1FCE5EDD4F882777FD8C
:101B30008095982F0E94E04C288139814A815B81F1
:101B40000E94294E0E94B24CCB01DF91CF910C94A0
:101B50005B0D61E070E0E3CF0F931F93CF93DF93B2
:101B600000D0CDB7DEB70E94120D00914302109154
:101B700044020115110509F480C08091450290913D
:101B80004602801791070CF05EC03091A20D20E054
:101B9000880F991F820F931F45960E946E140E9412
:101BA000810D3091A20D20E0809145029091460276
:101BB000880F991F820F931F44960E946E14809382
:101BC000410540914502509146024F5F5F4F50934F
:101BD00046024093450260914302709144026417AB
:101BE000750794F40E94BF548A830E94BF5489836E
:101BF0000E94BF544A8169810F900F90DF91CF916D
:101C00001F910F910C94AC0E1092A30D282F30E071
:101C100040E050E060913D0570913E0580913F05A8
:101C2000909140050E94F2522093A40D3093A50D8F
:101C30004093A60D5093A70D8CEA9DE09093A90DBB
:101C40008093A80DCFCF81E08093A30D1092460220
:101C50001092450210924402109243020E94120D0B
:101C6000109242024FEF60E080E00F900F90DF9102
:101C7000CF911F910F910C94AC0E9091A20D80E02A
:101C800042960E946E1480933C059091A20D80E0D4
:101C900043960E946E14082F10E0109344020093A4
:101CA000430220913C0530E040E050E060E879EAF2
:101CB00083E090E00E94F25220933D0530933E0570
:101CC00040933F055093400558CF91E090934202D6
:101CD0009093A30D1092A40D1092A50D1092A60D35
:101CE0001092A70D2CEA3DE03093A90D2093A80D8A
:101CF0008093A20D83EA9DE00C94803A86EE90E0FA
:101D00000E945B0D83E99DE00C94803A1F920F9234
:101D10000FB60F9211248F939F93AF93BF9380912F
:101D20004D0290914E02A0914F02B0915002019647
:101D3000A11DB11D80934D0290934E02A0934F02BE
:101D4000B0935002BF91AF919F918F910F900FBEB2
:101D50000F901F901895089590E1899F900111248C
:101D6000309399002093980090E1699F900111248D
:101D700030939D0020939C0090E1499F9001112495
:101D800030939B0020939A008093B70D6093B80D19
:101D90004093B90D08958091B20D9091B30D0197C4
:101DA0009093B30D8093B20D181619061CF081E0C4
:101DB0008093C10E4091B90D40586091B80D6058A4
:101DC0008091B70D80580C94AC0E20E1829FC00129
:101DD0001124909399008093980080E1689FB0014E
:101DE000112470939D0060939C0020E1429FA0010C
:101DF000112450939B0040939A000895CF93DF9352
:101E000080919A0290919B02892B59F180919902BD
:101E1000882339F1C0915702D09158029E01A9E858
:101E2000B8E80E94BE5296958795969587959695A7
:101E300087954FE0489F9001499F300D1124CE01B6
:101E4000821B930B039780F440912C1F60912B1FF2
:101E500080912A1F0E94E50E2196D0935802C093CC
:101E60005702DF91CF9108954091B90D6091B80D5F
:101E70008091B70D0E94E50EEFCF0F93CF93DF93C4
:101E800000D01F92CDB7DEB781E08B8302E09E01C8
:101E90002F5F3F4F41E0BE016D5F7F4F8CE10E949D
:101EA0007F4A0E94AD4A998180E09093B50D80935E
:101EB000B40D8091B40D9091B50D2A81822B909331
:101EC000B50D8093B40D83E08B839E012F5F3F4F50
:101ED00041E0BE016D5F7F4F8CE10E947F4A0E940E
:101EE000AD4A998180E09093BC0E8093BB0E8091A7
:101EF000BB0E9091BC0E2A81822B9093BC0E8093D6
:101F0000BB0E85E08B839E012F5F3F4F41E0BE01FA
:101F10006D5F7F4F8CE10E947F4A0E94AD4A99819C
:101F200080E09093D50E8093D40E8091D40E909142
:101F3000D50E2A81822B9093D50E8093D40E80E00B
:101F40000F900F900F90DF91CF910F910895CF9345
:101F5000C82F8823F1F040E06FEF80E00E94AC0EC4
:101F60002FEF81EE94E0215080409040E1F700C0D7
:101F7000000040E060E08FEF0E94AC0E2FEF81EE9A
:101F800094E0215080409040E1F700C00000C15033
:101F900011F7CF91089585E00C94A70F0F93CF937D
:101FA000DF9300D000D0CDB7DEB78DE08C8301E0A9
:101FB0009E012D5F3F4F41E0BE016C5F7F4F8CE182
:101FC0000E947F4A0E94AD4A892B09F58B818A3293
:101FD00019F084E10E94A70F8AE2898389E18A834C
:101FE00042E0BE016F5F7F4F8CE10E94434A0E9436
:101FF000AD4A892B19F084E10E94A70F80E00F9071
:102000000F900F900F90DF91CF910F91089584E181
:102010000E94A70FDBCF2091B20D3091B30D1216A5
:1020200013060CF4089590E0880F991F9093B30D58
:102030008093B20D1092C10E84E690E0A0E0B0E073
:102040008093C20E9093C30EA093C40EB093C50E9E
:102050008BEC9EE09093C70E8093C60E81EC9EE0C1
:102060000C94803A2091B20D3091B30D12161306E4
:102070000CF4089590E0880F991F9093B30D80930E
:10208000B20D1092C10E4093C20E5093C30E6093D6
:10209000C40E7093C50E8BEC9EE09093C70E809398
:1020A000C60E81EC9EE00C94803A9AE09093770003
:1020B00090917C00907C90937C0090917C00906C3F
:1020C00090937C0090917C00982B90937C00809161
:1020D0007A00876C80937A0080917A0086FDFCCF2D
:1020E0002091780030917900932F937080E0AC01BB
:1020F000422B9A01C9010895CF93DF9380E8809322
:10210000610010926100F89480EF84B98BB1806E09
:102110008BB98091680081608093680080916B002A
:10212000826080936B0080916B00846080936B0071
:1021300080916B00886080936B008FB780688FBF41
:1021400088E18AB98BB183608BB98FE78DB98FE352
:1021500083BB819A89982FEF81EE94E021508040D3
:102160009040E1F700C0000082E00E945510EC01B1
:102170008198829A8A982FEF81EE94E021508040D6
:102180009040E1F700C0000081E00E945510829865
:10219000C436D10524F4843691050CF453C082E092
:1021A0008093BA0D82E090E09093BE0E8093BD0EB6
:1021B00081E090E09093C00E8093BF0E3AEA309396
:1021C000800029E1209381008FEF9FE090938700AA
:1021D0008093860030939000209391009093970015
:1021E0008093960010922501109224018091730033
:1021F000826080937300809121018C608093210123
:102200008EE390E090932901809328019093270119
:102210008093260184B7877F84BF809160008861A6
:10222000809360001092600080EC80937C0010929C
:102230007B008FEE80937A000E945A157894DF918C
:10224000CF91089583E08093BA0D84E090E090935D
:10225000BE0E8093BD0E83E090E09093C00E8093FD
:10226000BF0EACCFE82FF0E0EE0FFF1FE556FF4E9C
:1022700020813181C90108950E943211BC0180E0A2
:1022800090E00E94DE4C2DEC3CEC4CEC5FE30E94B5
:10229000294E20E030E040E85AE30E94294E08959C
:1022A00080E00E943211BC0180E090E00E94DE4C90
:1022B0002DEC3CEC4CEC5FE30E94294E20E030E03A
:1022C00040E85AE30E94294E2EE63BED46EB5EE3E2
:1022D0000E94454C0895CF93DF93CDB7DEB72C977E
:1022E0000FB6F894DEBF0FBECDBF69877A878B87A4
:1022F0009C8780914D0290914E02A0914F02B09127
:10230000500289839A83AB83BC8329813A814B81B4
:102310005C8189859A85AB85BC85820F931FA41F3C
:10232000B51F8D839E83AF83B887000020914D0237
:1023300030914E0240914F02509150028D819E810A
:10234000AF81B88582179307A407B50778F72C9655
:102350000FB6F894DEBF0FBECDBFDF91CF910895C9
:1023600080916000886180936000809160008D6042
:1023700080936000FFCF4F925F926F927F92AF92F7
:10238000BF92CF92DF92EF92FF920F931F93CF9362
:10239000DF93CDB7DEB76E970FB6F894DEBF0FBEF2
:1023A000CDBF0E943D0F6091B40D7091B50D88278F
:1023B00077FD8095982F0E94E04C20E030E040E8C7
:1023C00058E30E94294E2B013C016091BB0E709195
:1023D000BC0E882777FD8095982F0E94E04C20E066
:1023E00030E040E858E30E94294E6B017C01609187
:1023F000D40E7091D50E882777FD8095982F0E9476
:10240000E04C20E030E040E858E30E94294E5B01B8
:102410008C01242D352D462D572D642D752D862D9F
:10242000972D0E94294E2B013C012C2D3D2D4E2D28
:102430005F2D6C2D7D2D8E2D9F2D0E94294E9B0191
:10244000AC01C301B2010E94DA4B6B017C012A2D61
:102450003B2D402F512F6A2D7B2D802F912F0E94D5
:10246000294E9B01AC01C701B6010E94DA4B0E94C4
:10247000964E7B018C0180914D0290914E02A0916D
:102480004F02B09150024091420550914305609136
:10249000440570914505841B950BA60BB70B8B3F2C
:1024A0009105A105B10508F0BFC0A0904605B09008
:1024B0004705C0904805D09049052E2D3F2D402F4F
:1024C000512F6A2D7B2D8C2D9D2D0E94D94B5B01A8
:1024D0006C0120E030E0A9017B2D9D2D0E943E4C37
:1024E00087FDC1C02AE939E949E15FE36A2D7B2D07
:1024F0008C2D9D2D0E94254E18160CF064C0109254
:102500000B02BB24B394B0920C0280919A0290917A
:102510009B02892B29F48091311F882309F4B0C0D4
:102520008091311F81114FC080914D0290914E02D8
:10253000A0914F02B0915002409153025091540229
:102540006091550270915602841B950BA60BB70B38
:10255000843F9140A105B10508F451C083ED898302
:102560008CE08A831B821C821D821E8280919A02CB
:1025700090919B029F8380919A0290919B02888701
:1025800080912A1F898780912B1F8A8780912C1F19
:102590008B8782E18C8720E04FEF5FEF6CE0CE010C
:1025A00001960E94FB3980914D0290914E02A091BC
:1025B0004F02B09150028093530290935402A09323
:1025C0005502B09356028E2D9F2DA02FB12F8093D0
:1025D000460590934705A0934805B093490580911F
:1025E0004D0290914E02A0914F02B0915002809303
:1025F000420590934305A0934405B09345056E961C
:102600000FB6F894DEBF0FBECDBFDF91CF911F9103
:102610000F91FF90EF90DF90CF90BF90AF907F90A1
:102620006F905F904F9008958E2D9F2DA02FB12F0A
:102630008093460590934705A0934805B0934905BC
:1026400080914D0290914E02A0914F02B0915002A4
:102650008093420590934305A0934405B0934505AC
:10266000570168012ACF2AE939E949E15FEB6A2D70
:102670007B2D8C2D9D2D0E943E4C87FFA4CF3FCFFC
:1026800080914D0290914E02A0914F02B091500264
:102690008093321F9093331FA093341FB093351F44
:1026A00080914D0290914E02A0914F02B091500244
:1026B0000E94C35440904D0250904E0260904F02D1
:1026C000709050020E94BF546C01C301B2010E947D
:1026D000DE4C2B013C01B601882777FD8095982FB1
:1026E0000E94E04C20E03EEF4FEF56E40E94454C44
:1026F00020E030E44CE954E40E94294E9B01AC01F7
:10270000C301B2010E94DA4B20E030E04AE753E413
:102710000E94DA4B0E94B24C6093361F7093371FB1
:102720008093381F9093391FB092311F4CCFCF93B5
:10273000DF93CDB7DEB7AD970FB6F894DEBF0FBE0F
:10274000CDBF0E94722C0E947C100E94374A0E94CA
:10275000CE0F882321F08AE00E94A70FFCCF0E94B1
:10276000180D0E94FC360E94393D809148029091DC
:102770004902A0914A02B0914B028A279B270E94EE
:10278000C3540E945B271F8E8FE090E0A0E0B0E072
:1027900088A399A3AAA3BBA38FE39CE19DA38CA3C9
:1027A000CE014F960E94803A188A84E690E0A0E01D
:1027B000B0E0898B9A8BAB8BBC8B8EEF9EE09E8BAF
:1027C0008D8BCE0140960E94803A198280E091E084
:1027D000A0E0B0E08A839B83AC83BD8389EF97E45C
:1027E0009F838E83CE0101960E94803A4FEF60E076
:1027F00080E00E94AC0E0E940F090E94083B0E94DC
:102800000F090E9496350E94B94A0E940F090E9442
:102810005F370E94D90C0E940F090E94C23E80912E
:102820000B02882341F30E94BB11E5CFCF92DF92C8
:10283000EF92FF926B017C0120E030E0A9010E9441
:102840003E4C87FD1AC020E030E0A901C701B60167
:102850000E94254E181674F490E88FE350E040E093
:102860009C01652F742F832F922FFF90EF90DF90A4
:10287000CF90089590E080E0F1CF90E88FEBEECF1D
:10288000E0915902E11103C0F894E09159027FEF01
:1028900054E144E2F999FECF2AE030E000002150F3
:1028A0003109E1F792BD81BD70BD5FBBF99AF9991D
:1028B000FECF2AE030E0000021503109E1F760BD91
:1028C0004FBBF99AF999FECF92BD81BDF89A20B518
:1028D0006213E0CFE11101C078940895209159026C
:1028E000211103C0F89420915902F999FECF92BDAD
:1028F00081BDF89A211101C0789480B50895EF92B6
:10290000FF920F931F93CF93DF938C01F89481E094
:1029100080935902141615066CF4EB017B01E40E4A
:10292000F51E6991C8010E9440140F5F1F4FCE151C
:10293000DF05B9F7109259027894DF91CF911F917A
:102940000F91FF90EF900895EF92FF920F931F93D6
:10295000CF93DF93F89421E02093590214161506C3
:1029600084F4EB017B01E40EF51E8C01061B170BB2
:10297000C8018C0F9D1F0E946E148993CE15DF0530
:10298000B9F7109259027894DF91CF911F910F916E
:10299000FF90EF90089541E251E368E974E44093B9
:1029A000DC0E5093DD0E6093DE0E7093DF0E80E53B
:1029B00097E7A6EDBDE38093E00E9093E10EA09320
:1029C000E20EB093E30E40934D0F50934E0F609381
:1029D0004F0F7093500F8093510F9093520FA0930D
:1029E000530FB093540F4093BE0F5093BF0F60939B
:1029F000C00F7093C10F8093C20F9093C30FA09329
:102A0000C40FB093C50F08951F920F920FB60F9287
:102A100011240BB60F922F933F934F935F938F9395
:102A20009F93EF93FF93809160028F5F809360028A
:102A30008330D0F11092600240916102E42FF0E007
:102A40008091780090E0EE0FFF1FE556FF4E9183D6
:102A500080838081918150917900352F337020E0FF
:102A6000822B932B918380834F5F483000F54093F6
:102A7000610280917C00807E80937C0080917C004C
:102A800090916102892B80937C00FF91EF919F913F
:102A90008F915F914F913F912F910F900BBE0F90AF
:102AA0000FBE0F901F9018958111EFCFC5CF1092D8
:102AB0006102DFCF8F929F92AF92BF92CF92DF924F
:102AC000EF92FF920F931F93CF93DF9384EC91E0EB
:102AD000E7EDFEE0DF019C011D9221503040E1F75F
:102AE00020E030E001E741E2842E41E3942E48E902
:102AF000A42E44E4B42E50E5C52E57E7D52E56ED4E
:102B0000E52E5DE3F52E4FEF5FEFBA01CFEFDFEF7C
:102B100010E883EF96E6AFEDBFE3029FF001039F5D
:102B2000F00D1124E952F14F1082118212821382AA
:102B3000148285829682A782B086C186D286E38679
:102B4000F486158616861786108A128A118A148AC8
:102B5000138A158A168A178A108E118E138E128E7A
:102B6000448F558F668F778FD1A3C0A312A386A3FE
:102B700097A3A0A7B1A716A617A610AA11AA17AACD
:102B800016AA2F5F3F4F2330310539F6DF91CF91E1
:102B90001F910F91FF90EF90DF90CF90BF90AF907B
:102BA0009F908F9008950F931F93CF93DF932BEDFA
:102BB0003FE049EC50E40E94224D8B01D82FC92FF1
:102BC0002BED3FE049E450E4FE01712F8F2F9E2F43
:102BD0000E94254E181674F42BED3FE049EC50E4AA
:102BE000FE01602F712F8F2F9E2F0E94D94B8B01DA
:102BF000D82FC92F2BED3FE049E450ECFE01602FA8
:102C0000712F8F2F9C2F0E943E4C87FF0EC02BED03
:102C10003FE049EC50E4FE01602F712F8F2F9C2F75
:102C20000E94DA4B8B01D82FC92F9E01602F712F84
:102C3000832F9C2FDF91CF911F910F9108952F9299
:102C40003F924F925F926F927F928F929F92AF923C
:102C5000BF92CF92DF92EF92FF920F931F93CF9389
:102C6000DF93CDB7DEB72B970FB6F894DEBF0FBE5C
:102C7000CDBF9A8389838091740290917502892BCC
:102C800009F441C189819A818130910509F4C0C05C
:102C90000CF49BC004970CF098C08091BD0E0E946C
:102CA0003C116B017C018091BF0E0E943C114B01D5
:102CB0005C0170907A0240907B0220907C02309000
:102CC0007D0220E030E040E05FE3672D742D822D2F
:102CD000932D0E94294E8B018B879A876E831F83C9
:102CE00088879987762F982F8A85272F312F492F0C
:102CF000582FC701B6010E94D94B562E7983682EF2
:102D00009D83C62ED72EE82EF92E9B858A85202FEF
:102D1000312F492F582FC501B4010E94D94B862E5F
:102D2000972EA82EB92E80917E0290917F0281303D
:102D3000910509F471C2029709F4DAC220E030E08B
:102D40004AEA53E4C701B6010E94294E272D342DCB
:102D5000422D532D0E94454C382F292F862F972F17
:102D6000A32FB22FBC01CD0190582BED3FE049E4D9
:102D700050E40E94294E20E030E044E353E40E94F6
:102D8000454C2091800F3091810F4091820F5091DE
:102D9000830F0E94DA4B2B960FB6F894DEBF0FBE5E
:102DA000CDBFDF91CF911F910F91FF90EF90DF90FA
:102DB000CF90BF90AF909F908F907F906F905F90DB
:102DC0004F903F902F900C94D3150E94CB0F50E062
:102DD00040E030E82FEB652F742F832F922F2B9636
:102DE0000FB6F894DEBF0FBECDBFDF91CF911F911C
:102DF0000F91FF90EF90DF90CF90BF90AF909F909A
:102E00008F907F906F905F904F903F902F9008959C
:102E100086E00E943C116B017C0185E00E943C1120
:102E20004B015C017090760240907702209078020E
:102E30003090790220E030E040E05FE3672D742DB0
:102E4000822D932D0E94294E8B018B879A876E834A
:102E50001F8388879987762F982F8A85272F312F70
:102E6000492F582FC701B6010E94D94B562E79839E
:102E7000682E9D83C62ED72EE82EF92E9B858A8537
:102E8000202F312F492F582FC501B4010E94D94B53
:102E9000862E972EA82EB92E8091740290917502DD
:102EA0008130910509F4EDC0029709F456C120E084
:102EB00030E04AEA53E4C701B6010E94294E272DAB
:102EC000342D422D532D0E94454C382F292F862F0B
:102ED000972FA32FB22FBC01CD0190582BED3FE0CF
:102EE00049E450E40E94294E20E030E044E353E4FA
:102EF0000E94454C20910F0F3091100F4091110FFF
:102F00005091120F46CF86E00E943C116B017C016C
:102F100020E030E040E05FE360917602709177025C
:102F200080917802909179020E94294E9B01AC0118
:102F3000C701B6010E94D94B1B018C012B013C013A
:102F400085E00E943C116B017C0120E030E040E014
:102F50005FE36091760270917702809178029091A0
:102F600079020E94294E9B01AC01C701B6010E9463
:102F7000D94B862E972EA82EB92E20E030E0A9013D
:102F8000B101C8010E943E4C87FD27C220E030E01D
:102F9000A901C501B4010E943E4C87FD19C2A501DB
:102FA0009401C301B2010E943E4C87FD63C082E0E0
:102FB00090E090937502809374028091BD0E0E9400
:102FC0003C116B017C0120E030E040E05FE3609168
:102FD0007A0270917B0280917C0290917D020E9426
:102FE000294E9B01AC01C701B6010E94D94B1B01C0
:102FF0008C012B013C018091BF0E0E943C116B01A2
:103000007C0120E030E040E05FE360917A02709163
:103010007B0280917C0290917D020E94294E9B014F
:10302000AC01C701B6010E94D94B862E972EA82E5F
:10303000B92E20E030E0A901B101C8010E943E4C48
:1030400087FDC1C120E030E0A901C501B4010E94A3
:103050003E4C87FDB3C1A5019401C301B2010E949A
:103060003E4C87FFA4C181E090E090937F02809363
:103070007E0208CE81E090E0909375028093740206
:103080009CCF20E030E0A901652D7981862D9D81BE
:103090000E943E4C87FDD0C1852D9981A62DBD8112
:1030A00089839A83AB83BC8326E636E646E65FE3F4
:1030B000FB85EA85602F712F8F2F9E2F0E94294E4E
:1030C0009B01AC0169817A818B819C810E94254E94
:1030D00018160CF0ECCEA5019401C701B6010E94B0
:1030E000D94B8B011C012B013C0120E030E0A901F0
:1030F0000E943E4C87FDD8C120E030E04AEA53E40C
:10310000B801C1010E94294E20E030E044E353E4BD
:103110000E94454C762E472E1C01862F942DA22D01
:10312000B32D8093760290937702A0937802B093A8
:10313000790282E090E0909375028093740220E01F
:1031400030E040E05FE3672D742D822D932D0E94C7
:10315000294E6E837F838887998720E030E0A9011C
:10316000C501B4010E943E4C87FD7EC189829A82CE
:10317000AB82BC8226E636E646E65FE3BE81AF81DF
:10318000E88519856B2F7A2F8E2F912F0E94294E5B
:103190009B01AC0169817A818B819C810E94254EC3
:1031A00018160CF01FC1A5019401C701B6010E94B9
:1031B000D94B8B013C01CB01D3014C015D0120E0D7
:1031C00030E0A901B801C3010E943E4C87FD64C1F3
:1031D00020E030E04AEA53E4B801C3010E94294EDE
:1031E00020E030E044E353E40E94454C762E472E25
:1031F0001C01862F942DA22DB32D809376029093DF
:103200007702A0937802B093790281E090E09093E6
:103210007502809374024BCE20E030E0A901652D49
:103220007981862D9D810E943E4C87FD0DC1852DA3
:103230009981A62DBD8189839A83AB83BC8326E6C1
:1032400036E646E65FE3FB85EA85602F712F8F2F18
:103250009E2F0E94294E9B01AC0169817A818B814E
:103260009C810E94254E18160CF068CDA501940192
:10327000C701B6010E94D94B8B011C012B013C01F7
:1032800020E030E0A9010E943E4C87FDF5C020E01F
:1032900030E04AEA53E4B801C1010E94294E20E01F
:1032A00030E044E353E40E94454C762E472E1C0147
:1032B000862F942DA22DB32D80937A0290937B02BA
:1032C000A0937C02B0937D0282E090E090937F0215
:1032D00080937E0220E030E040E05FE3672D742DB4
:1032E000822D932D0E94294E6E837F838887998734
:1032F00020E030E0A901C501B4010E943E4C87FDE9
:10330000ABC089829A82AB82BC8226E636E646E66C
:103310005FE3BE81AF81E88519856B2F7A2F8E2FF1
:10332000912F0E94294E9B01AC0169817A818B818A
:103330009C810E94254E18160CF069C0A5019401CD
:10334000C701B6010E94D94B8B013C01CB01D301CF
:103350004C015D0120E030E0A901B801C3010E94E9
:103360003E4C87FD91C020E030E04AEA53E4B801CA
:10337000C3010E94294E20E030E044E353E40E9460
:10338000454C762E472E1C01862F942DA22DB32D51
:1033900080937A0290937B02A0937C02B0937D028B
:1033A00081E090E090937F0280937E02C7CC82E020
:1033B00090E090937F0280937E0264CCB7FAB09441
:1033C000B7F8B09448CE77FA709477F870943ACE04
:1033D000B7FAB094B7F8B094E2CD77FA709477F872
:1033E0007094D4CD20E030E04AEA53E4C501B40142
:1033F0000E94294E272D342D422D532D0E94454CDD
:1034000020E030E044E353E40E94DA4B5ECD20E05C
:1034100030E04AEA53E4C501B4010E94294E272D49
:10342000342D422D532D0E94454C20E030E044E3E2
:1034300053E40E94DA4B90CCD701C601B05889837F
:103440009A83AB83BC8330CED701C601B058898341
:103450009A83AB83BC83F3CED501C401B058898372
:103460009A83AB83BC8351CFD501C401B058898303
:103470009A83AB83BC837ECEC301B201905820E017
:1034800030E04AEA53E409CFC501B401905820E086
:1034900030E04AEA53E46DCFC501B401905820E012
:1034A00030E04AEA53E49ACEC301B201905820E0DA
:1034B00030E04AEA53E426CE2091BA0D2230D1F012
:1034C0002330E9F0019721E7289FF001299FF00DB3
:1034D0001124E952F14F20812330A9F028F0255022
:1034E000223030F486E00895213069F0223001F175
:1034F00080E008958230910529F78FEF0895833099
:10350000910501F7FACF21E7289FF001299FF00DDF
:103510001124E952F14F20E030E0A90166A577A51A
:1035200080A991A90E94254E181644F481E00895BF
:1035300081899289892BD1F383E0089582E00895EF
:103540006235A9F0633581F0663459F0A098A198EE
:1035500020E1829FC001112490938900809388000C
:103560000895A09AA198F4CFA09AA19AF1CFA0981B
:10357000A19AEECF6235A9F0633581F0663459F037
:10358000A298A59820E1829FC001112490938B00FE
:1035900080938A000895A29AA598F4CFA29AA59A3A
:1035A000F1CFA298A59AEECF0F931F938A019B01AA
:1035B00077FD28C0F8010F3F110519F010F0EFEF6B
:1035C000F0E08130910591F074F0049764F477FD98
:1035D00033C0452B462B472BE9F066E48E2F1F9115
:1035E0000F910C94BA1A1F910F91089577FD1EC088
:1035F000452B462B472BA1F066E48E2F1F910F9190
:103600000C94A01A002711279801041B150B260BF8
:10361000370BD0CF6EE48E2F1F910F910C94BA1AF6
:103620006EE48E2F1F910F910C94A01A62E58E2FDD
:103630001F910F910C94A01A62E58E2F1F910F918C
:103640000C94BA1A1092AD021092D70E1092480F35
:103650001092B90F6EE480E00E94A01A6EE480E040
:103660000C94BA1A019721E7289FF001299FF00DC9
:103670001124E952F14F8BEC96E4A8E4B4E485837D
:103680009683A783B087118612861386148681E0FD
:1036900080934A0584EF91E0A0E0B0E080934B0571
:1036A00090934C05A0934D05B0934E058BEC94E19F
:1036B0009093500580934F058AE495E00C94803AEE
:1036C0000F931F93CF93DF9300D000D0CDB7DEB719
:1036D0008C0149835A836B837C830E94321B8091C7
:1036E000BA0D49815A816B817C81823041F18330EE
:1036F00061F10150110981E7809FF001819FF00D78
:103700001124E952F14F82E0808341835283638325
:103710007483128A118A8DE491E0A0E0B0E0848F76
:10372000958FA68FB78F20E030E0C9010F900F90E2
:103730000F900F90DF91CF911F910F91089502305C
:103740001105B9F62FEF3FEFF0CF0330110589F6E1
:10375000F9CFCF93DF939C012150310941E7429F7C
:10376000E001439FD00D1124C952D14F4D89413002
:1037700061F14230E1F0442309F471C0433011F5A6
:103780004881423009F463C0433009F470C041E716
:10379000429FF001439FF00D1124E952F14F42A9DD
:1037A00053A964A975A9DF91CF910C94601B20E007
:1037B00030E0A9016EA17FA188A599A50E943E4C89
:1037C00081112AC0DF91CF91089520E030E0A90156
:1037D0006EA17FA188A599A50E943E4C882391F3F4
:1037E00083E088838FEF9FEFDC018C8F9D8FAE8FFE
:1037F000BF8F8AA99BA9ACA9BDA989839A83AB83F2
:10380000BC838EA19FA1A8A5B9A58EA79FA7A8AB91
:10381000B9ABDF91CF91089583E088838FEF9FEF5D
:10382000DC018C8F9D8FAE8FBF8F8AA99BA9ACA91D
:10383000BDA989839A83AB83BC838EA19FA1A8A5D0
:10384000B9A5B0588EA79FA7A8ABB9ABBBCF498984
:103850005A89452B09F49BCF1C8A1B8AB3CF188247
:1038600040E050E0BA01DF91CF910C94D41A498125
:103870005A816B817C81DF91CF910C94601B2F92D8
:103880003F924F925F926F927F928F929F92AF92F0
:10389000BF92CF92DF92EF92FF920F931F93CF933D
:1038A000DF93CDB7DEB7A9970FB6F894DEBF0FBE92
:1038B000CDBF25E03FE03A87298777ED472E7EE0B0
:1038C000572EE4E66E2EE2E07E2E89EF9EE09E8B80
:1038D0008D8BA3E1BFE0BC87AB87F9E02F2EFFE023
:1038E0003F2EE7EFFEE0FA8BE98B2CEE3EE0388BC3
:1038F0002F878CE39FE0988F8F8BA4E3BFE0BA8F74
:10390000A98FEEE1FFE0FE87ED8724E13FE03C8BED
:103910002B8B8DE09FE098878F83A2E0B0E0BE8381
:10392000AD83812C912C3DA22CA212012401FFEF2A
:103930004F1A5F0A0E940F098091BA0D823029F454
:1039400022E04216510409F4B9C0C2010E941F16B8
:103950005B018C01862F9B2DA02FB12FECA1FDA127
:1039600080839183A283B38364017F0179A268A2DB
:103970007A2C6B2C1FC080916202909163020B978E
:10398000BCF5C2010E941F16762E672E8C01A30182
:10399000852F942FA02FB12FF70180839183A283CD
:1039A000B3838091620290916302019690936302C7
:1039B00080936202A8A1B9A18D919D910D90BC91B7
:1039C000A02D89839A83AB83BC839C01AD01D30175
:1039D0006B2F762D802F912F0E94D94B0E94D315EB
:1039E00023EC38EB42E35EE30E94254E18161CF2EE
:1039F0004601A72CB62C68A079A0FDA2ECA2C98034
:103A0000DA80EB80FC80109263021092620220E068
:103A100030E040E250EC6A2D7B2D802F912F0E94E8
:103A20003E4C87FF0FC120E030E040E250E4C70188
:103A3000B6010E94254E18160CF004C1EF81F885DE
:103A400080819181019691838083ACA1BDA1AC90CE
:103A50001196BC90119712960C91129713961C9187
:103A60008A2D9B2DA02FB12FF30180839183A283F8
:103A7000B383D1018C91833009F46FC208F0FFC089
:103A8000813009F452C208F068C0F101848D958D2F
:103A9000A68DB78D0097A105B10509F464C40CF497
:103AA000F5C00197A109B109F101848F958FA68F07
:103AB000B78FED81FE81349709F4EDC0ED81FE8171
:103AC0003196FE83ED8329853A852F583F4F3A87FB
:103AD000298731E7230E311C84E0680E711CAD8903
:103AE000BE89AF58BF4FBE8BAD8BEB85FC85EF58C1
:103AF000FF4FFC87EB872CA13DA12F583F4F3DA3E3
:103B00002CA389899A898F589F4F9A8B898BAF856F
:103B1000B889AF58BF4FB88BAF87EF89F88DEF5892
:103B2000FF4FF88FEF8B298D3A8D2F583F4F3A8FEB
:103B3000298F8D859E858F589F4F9E878D87AB8956
:103B4000BC89AF58BF4FBC8BAB8BEF81F885EF586A
:103B5000FF4FF887EF834201E9CEF101848D958D07
:103B6000A68DB78D0097A105B10509F48FC19CF012
:103B70000197A109B109F101848F958FA68FB78FA5
:103B8000ACA1BDA1AC901196BC90119712960C916E
:103B9000129713961C912A2D3B2D402F512FF10186
:103BA00061817281838194810E94D94B0E94D315D7
:103BB0006B017C0120E030E0A9010E943E4C87FDB2
:103BC000A0C323EC38EB42EB5DE3C701B6010E94D2
:103BD0003E4C87FDA1C3D10151968D919C91529786
:103BE000892B09F461C120E030E0A901C701B601C9
:103BF0000E943E4C87FD7DC4C701B60120915C0246
:103C000030915D0240915E0250915F020E94254E0C
:103C100018160CF049C1EB85FC8520812F5F2083AD
:103C200030E080915A0290915B028217930708F06E
:103C30003EC1D1011C9240E050E0BA01C2010E9495
:103C4000D41A24C020E030E040E250E46A2D7B2DFD
:103C5000802F912F0E94254E18160CF001CF20E0E6
:103C600030E040E250ECC701B6010E943E4C87FFB5
:103C7000F7CEEF81F885808191810197E4CE853080
:103C800009F4B3C108F1863009F46BC2ED81FE81FD
:103C9000349709F013CFA9960FB6F894DEBF0FBE84
:103CA000CDBFDF91CF911F910F91FF90EF90DF90EB
:103CB000CF90BF90AF909F908F907F906F905F90CC
:103CC0004F903F902F90089560914D0270914E0259
:103CD00080914F02909150020E94DE4C20E030E033
:103CE0004AE754E40E94454C69837B8F8C8F9D8FFB
:103CF000AB89BC896C91772767FD7095872F972FCB
:103D00000E94E04C20E030E040E05CE30E94294E5D
:103D100020E030E040EA50E40E94294E20E030E00C
:103D200040E05FE30E94294E6B015C01B1E7B89D62
:103D30008001B99D100D1124065E104FEE24E3940E
:103D4000F12C39A228A27BA26AA2F9A6E8A65FA25A
:103D50004EA25C2C4D2C382E2B2C7801E8A5F9A511
:103D6000BF01882777FD8095982F0E94E04C2BEDAE
:103D70003FE049EC50E40E94294EB981AB8DEC8DB7
:103D8000DD8C2B2F3A2F4E2F5D2D0E94294E20E0E7
:103D900030E040E251E40E94454C5B016C017B2D18
:103DA0009D2D0E948C4E3B014C01F801359760819E
:103DB000772767FD7095872F972F0E94E04C20E0B2
:103DC00030E040E05CE30E94294E20E030E040EA31
:103DD00050E40E94294EA40193010E94294ED20171
:103DE000F1012B2F342D4F2F522D0E94DA4B1B0146
:103DF0003C010F5F1F4F6A2D7B2D8C2D9D2D0E9446
:103E0000424C4B015C01D7016C91772767FD70959F
:103E1000872F972F0E94E04C20E030E040E05CE3E9
:103E20000E94294E20E030E040EA50E40E94294EF2
:103E3000A50194010E94294E222D332D462D572D88
:103E40000E94DA4B562E472E382E292EE8A5F9A5CA
:103E50003196F9A7E8A7359709F07FCF6AA07BA034
:103E6000D72E4EA05FA0A82EB92E28A039A0862F4D
:103E70009D2DAA2DBB2DF10181839283A383B48351
:103E8000128A118A8FEF9FEFDC0176CE81899289A9
:103E9000892B09F460C28FEF9FEFDC01F101848F61
:103EA000958FA68FB78FF2CEEB85FC851082D1015E
:103EB00015962D913D914D915C911897C701B601D2
:103EC0000E94294E4B015C01F1012585368547850D
:103ED000508961857285838594850E94294E9B0156
:103EE000AC01C501B4010E94DA4B0E94AD4CAB019C
:103EF000BC01C2010E94D41A2FE832EC45E75CE312
:103F0000C701B6010E94294E9B01AC01D1011D964B
:103F10006D917D918D919C9150970E94DA4BF101AA
:103F2000658776878787908BB1CEAF85B8898C916E
:103F3000882309F4C4C1813009F4D1C2ED89FE8916
:103F4000408150E0519541955109662757FD609594
:103F5000762FC2010E94D41A99CEF101848D958DDD
:103F6000A68DB78D0097A105B10509F02FC121E0FD
:103F700030E0328B218BD101158616861786108A88
:103F8000E989FA8980819181892B09F499C2E2E05B
:103F9000D101EC935A968D919C915B97892B69F096
:103FA00056968D919D910D90BC91A02DF10181832C
:103FB0009283A383B483138E128EEFEFFFEFA98950
:103FC000BA89ED93FC93D10153968D919C915497AE
:103FD000892B09F460CF82E490E0A0E0B0E0F10129
:103FE000848F958FA68FB78F51CEF101848D958DDB
:103FF000A68DB78D0097A105B10509F4DDC018168F
:1040000019061A061B0644F40197A109B109F1012A
:10401000848F958FA68FB78F2FE832EC45E75CE34E
:10402000A985BA856D917D918D919C910E94294EB3
:10403000F10121813281438154810E94DA4B062FA4
:10404000172F282F392FD10111960D931D932D93E2
:104050003C931497ECA1FDA12081318142815381D1
:104060000E94D94B0E94D3156B017C01D10115969A
:104070002D913D914D915C9118970E94294E4B01D5
:104080005C01F101258536854785508961857285FA
:10409000838594850E94294E9B01AC01C501B40122
:1040A0000E94DA4B0E94AD4CAB01BC01C2010E94E0
:1040B000D41A2FE832EC45E75CE3C701B6010E9451
:1040C000294E9B01AC01D1011D966D917D918D9181
:1040D0009C9150970E94DA4BF1016587768787871C
:1040E000908B2FE832EC45E75CE362A573A584A5CD
:1040F00095A50E94294EA985BA852D913D914D9196
:104100005C910E94DA4B7B018C0122E93AE046E89F
:1041100050E47F2D912F0E94254E18160CF4C4C038
:104120008E2D9F2DA02FB12FE985FA858083918355
:10413000A283B38322E93AE046E850EC6E2D7F2D4E
:10414000802F912F0E943E4C87FFA0CD82E99AE0FC
:10415000A6E8B0ECE985FA8580839183A283B383D6
:1041600095CDAD85BE852C91213009F40EC122304C
:1041700009F4A8C021118ACD80914D0290914E0280
:10418000A0914F02B0915002EF89F88D408151818A
:104190006281738184179507A607B70708F4ADC13C
:1041A000F101E85BFF4F8081882309F484C1E2E0DC
:1041B000AD85BE85EC936ACD8FEF9FEFDC01848FD8
:1041C000958FA68FB78F23E0208319CF1816190675
:1041D0001A061B0644F40197A109B109F101848F65
:1041E000958FA68FB78F2FE832EC45E75CE3A98562
:1041F000BA856D917D918D919C910E94294EF1011E
:1042000021813281438154810E94DA4B062F172F7E
:10421000282F392FD10111960D931D932D933C9387
:104220001497ECA1FDA120813181428153810E942C
:10423000D94B0E94D3156B017C0120E030E0A9012D
:104240000E943E4C4601570187FD44C160915C02CB
:1042500070915D0280915E0290915F029B01AC01C2
:104260000E94DA4B9B01AC01C501B4010E94254EAE
:10427000AB85BC8518160CF02BC12C912F5F2C93AD
:1042800030E080915A0290915B028217930708F008
:10429000FDCCF1011082138E128E40E050E0BA0185
:1042A000C2010E94D41AF2CC82E99AE0A6E8B0E4F6
:1042B000E985FA8580839183A283B383E7CCF101FA
:1042C0001082E4CC80914D0290914E02A0914F0259
:1042D000B0915002F101E359FF4F40815181628159
:1042E000738184179507A607B70708F463C1F10126
:1042F00020838FEF9FEFDC01848F958FA68FB78F80
:10430000C5CC23EC38EB42EB5DEBC701B6010E9454
:10431000254E18160CF05FCCE1E0F0E0D10152968A
:10432000FC93EE93519753968D919C915497892BC2
:1043300009F080CC8FEF9FEFDC01F101848F958F26
:10434000A68FB78FD10151968D919C915297892B51
:1043500009F4AACD48CC108240E050E0BA01C20175
:104360000E94D41A93CCA989BA898C91EF85F889D7
:104370008083C2010E94A91B8FEF9FEFDC01F10136
:10438000848F958FA68FB78F81CC80914D029091AD
:104390004E02A0914F02B0915002F101E759FF4F38
:1043A000408151816281738184179507A607B70701
:1043B00008F0FDCE60914D0270914E0280914F0247
:1043C000909150028101035B1F4FAF89B88DCD9052
:1043D000DD90ED90FC906C197D098E099F090E947B
:1043E000DE4C20E030E04AE754E40E94454CE98D81
:1043F000FA8D20813181428153810E94294ED8015A
:104400002D913D914D915C910E94DA4B062F172F13
:10441000282F392FF1010183128323833483ACA128
:10442000BDA12D913D914D915C910E94D94B0E946F
:10443000D3156B017C01F1012581368147815085BF
:10444000C701B6010E94294E4B015C01D1011D96A6
:104450002D913D914D915C91509719966D917D9163
:104460008D919C911C970E94294E9B01AC01C50126
:10447000B4010E94DA4B0E94AD4CAB01BC01C201F9
:104480000E94D41A2FE832EC45E75CE3C701B6017D
:104490000E94294E9B01AC01F101658576858785D7
:1044A00090890E94DA4BD1011D966D937D938D9377
:1044B0009C935097EBCBE1E0AD85BE85EC93E6CBCA
:1044C0001C9240E050E0BA01C2010E94D41A75CD9E
:1044D0001C92B1CFB7FAB094B7F8B094B7CEAD890B
:1044E000BE894C9150E060E070E0C2010E94D41A95
:1044F000CDCBC701B601905881CB60914D02709130
:104500004E0280914F0290915002F101EF59FF4FFE
:104510000081118122813381601B710B820B930B0F
:104520000E94DE4C20E030E04AE754E40E94454C13
:10453000162F072FF82EE92EF101EB5AFF4F20819D
:10454000318142815381D801F7016B2F7A2F8F2F50
:104550009E2F0E94294ED801F7012B2F3A2F4F2F63
:104560005E2F0E94294E20E030E040E05FE30E9491
:10457000294EF101E75BFF4F208131814281538158
:104580000E94DA4B062F172F282F392FD1011196B1
:104590000D931D932D933C931497ECA1FDA12081C5
:1045A0003181428153810E94D94B0E94D3156B0106
:1045B0007C017DCC60914D0270914E0280914F0242
:1045C00090915002F101E759FF4F00811181228142
:1045D0003381601B710B820B930B0E94DE4C20E039
:1045E00030E04AE754E40E94454C162F072FB82EBE
:1045F000A92EF101E75AFF4F208131814281538179
:10460000D801F5016B2F7A2F8F2F9E2F0E94294EF4
:10461000D801F5012B2F3A2F4F2F5E2F0E94294EE4
:1046200020E030E040E05FE30E94294E6B017C0116
:10463000A98DBA8D2D913D914D915C91D801F501D7
:104640006B2F7A2F8F2F9E2F0E94294E9B01AC013A
:10465000C701B6010E94DA4BF101EF5AFF4F2081EA
:10466000318142815381D0CE2F923F924F925F92FF
:104670006F927F928F929F92AF92BF92CF92DF9272
:10468000EF92FF920F931F93CF93DF93CDB7DEB7D7
:104690002A970FB6F894DEBF0FBECDBF1C012A01CA
:1046A0003B01480159010E94321B8091BA0D8230B2
:1046B00009F4BBC0833009F41EC1C101019721E791
:1046C000289FD001299FB00D1124A952B14FBA875C
:1046D000A987D2968D919D910D90BC91A02D898333
:1046E0009A83AB83BC839C01AD01C301B2010E94DC
:1046F000D94B0E94D3156B017C0120E030E0A90169
:104700000E943E4C87FD99C023EC38EB42E35EE308
:10471000C701B6010E943E4C87FD9AC020E030E000
:10472000A901C501B4010E943E4C87FDB4C0A5019A
:104730009401C701B6010E94454C20E030E04AE7F1
:1047400054E40E94294E162F072F382E292E20E0E0
:1047500030E0A901C701B6010E94254E18160CF0E1
:10476000BFC0A985BA859E968D929D92AD92BC924E
:10477000D19789819A81AB81BC81E985FA85818352
:104780009283A383B483158616861786108A20E049
:1047900030E040E751E4D801F1016B2F702F8F2FEB
:1047A000922D0E94454C5B018C016B017C0120E045
:1047B00030E0A9010E943E4C87FD67C0B501C801E9
:1047C0000E94AD4CCB01AA2797FDA095BA2FE98591
:1047D000FA85848F958FA68FB78F128A118A468AA1
:1047E000578A608E718E81E090E0938F828F83E094
:1047F000808320E030E0C9012A960FB6F894DEBF2E
:104800000FBECDBFDF91CF911F910F91FF90EF9021
:10481000DF90CF90BF90AF909F908F907F906F90E0
:104820005F904F903F902F90089542E024163104FE
:1048300009F043CF2FEF3FEFDECF23EC38EB42E31D
:104840005EEBC701B6010E94254E18160CF066CF2C
:10485000B301A201C1012A960FB6F894DEBF0FBEC4
:10486000CDBFDF91CF911F910F91FF90EF90DF901F
:10487000CF90BF90AF909F908F907F906F905F9000
:104880004F903F902F900C94601BC701B601905839
:104890000E94AD4C97CFD501C401B0588D839E8343
:1048A000AF83B8879C01AD01C701B6010E94454C9A
:1048B00020E030E04AE754E40E94294E162F072FEB
:1048C000382E292E20E030E0A901C701B6010E9450
:1048D000254E18164CF48D809E80AF80B88441CF51
:1048E000B7FAB094B7F8B094E985FA8586A697A68A
:1048F000A0AAB1AA3ECF53E02516310409F0DDCEBF
:1049000099CF2F923F924F925F926F927F928F92A8
:104910009F92AF92BF92CF92DF92EF92FF920F934E
:104920001F93CF93DF93CDB7DEB72A970FB6F894D6
:10493000DEBF0FBECDBF5C012A013B0168017901DA
:104940000E94321B8091BA0D823009F4E2C083309C
:1049500009F4E7C020E030E0A901C701B6010E94D8
:104960003E4C882309F4D2C0C501019721E7289F56
:10497000D001299FB00D1124A952B14FBA87A98740
:10498000D2968D919D910D90BC91A02D89839A8393
:10499000AB83BC83E985FA8566A977A9882777FD6B
:1049A0008095982F0E94E04C2BED3FE049EC50E4BD
:1049B0000E94294E9B01AC0169817A818B819C8187
:1049C0000E94DA4B9B01AC01C301B2010E94D94B9A
:1049D0004B018C0120E030E0A901792D912F0E943C
:1049E0003E4C87FDA4C023EC38EB42E35EE3682D28
:1049F000792D802F912F0E943E4C87FDA5C020E08D
:104A000030E0A901C701B6010E943E4C87FDCBC032
:104A1000A7019601682D792D802F912F0E94454C7A
:104A200020E030E04AE754E40E94294E1B015C017B
:104A300020E030E0A901682D792D802F912F0E9470
:104A4000254E18160CF0A4C0A985BA859E96CD9265
:104A5000DD92ED92FC92D19789819A81AB81BC81E4
:104A6000E985FA8581839283A383B48315861686AC
:104A70001786108A20E030E040E751E4622D732D64
:104A80008A2D9B2D0E94454C5B018C016B017C01A2
:104A900020E030E0A9010E943E4C87FD72C0B501C4
:104AA000C8010E94AD4CCB01AA2797FDA095BA2F53
:104AB000E985FA85848F958FA68FB78F128A118A20
:104AC000468A578A608E718E81E090E0938F828F44
:104AD00083E0808320E030E0C9012A960FB6F89485
:104AE000DEBF0FBECDBFDF91CF911F910F91FF9021
:104AF000EF90DF90CF90BF90AF909F908F907F907E
:104B00006F905F904F903F902F90089520E030E09D
:104B1000E3CF42E0A416B10409F01CCF2FEF3FEF22
:104B2000DBCF53E0A516B10409F014CFF7CF23EC87
:104B300038EB42E35EEB682D792D802F912F0E9498
:104B4000254E18160CF05BCFB301A201C5012A96C1
:104B50000FB6F894DEBF0FBECDBFDF91CF911F918E
:104B60000F91FF90EF90DF90CF90BF90AF909F900C
:104B70008F907F906F905F904F903F902F900C940C
:104B8000601BC701B60190580E94AD4CCB018CCF81
:104B9000F7FAF094F7F8F094E985FA85C6A6D7A657
:104BA000E0AAF1AA59CFD701C601B0588D839E83E0
:104BB000AF83B8879C01AD01682D792D802F912F8F
:104BC0000E94454C20E030E04AE754E40E94294E20
:104BD0001B015C0120E030E0A901682D792D802FB8
:104BE000912F0E94254E1816BCF6CD80DE80EF80F6
:104BF000F8842ACF2F923F924F925F926F927F92CA
:104C00008F929F92AF92BF92CF92DF92EF92FF92DC
:104C10000F931F93CF93DF93CDB7DEB72A970FB6CD
:104C2000F894DEBF0FBECDBF5C012A013B016801D5
:104C300079010E94321B8091BA0D823009F4CAC0FA
:104C4000833009F4CFC020E030E0A901C701B601EC
:104C50000E943E4C882309F4BAC0C501019721E7A0
:104C6000289FD001299FB00D1124A952B14FBA87B6
:104C7000A987D2968D919D910D90BC91A02D89838D
:104C80009A83AB83BC839C01AD01C301B2010E9436
:104C9000D94B4B018C0120E030E0A901792D912FF7
:104CA0000E943E4C87FDA4C023EC38EB42E35EE358
:104CB000682D792D802F912F0E943E4C87FDA5C035
:104CC00020E030E0A901C701B6010E943E4C87FDFB
:104CD000CBC0A7019601682D792D802F912F0E94BE
:104CE000454C20E030E04AE754E40E94294E1B0185
:104CF0005C0120E030E0A901682D792D802F912FF3
:104D00000E94254E18160CF0A4C0A985BA859E965F
:104D1000CD92DD92ED92FC92D19789819A81AB81FF
:104D2000BC81E985FA8581839283A383B483158648
:104D300016861786108A20E030E040E751E4622DA5
:104D4000732D8A2D9B2D0E94454C5B018C016B01BC
:104D50007C0120E030E0A9010E943E4C87FD72C03A
:104D6000B501C8010E94AD4CCB01AA2797FDA095C3
:104D7000BA2FE985FA85848F958FA68FB78F128A0F
:104D8000118A468A578A608E718E81E090E0938FF7
:104D9000828F83E0808320E030E0C9012A960FB63D
:104DA000F894DEBF0FBECDBFDF91CF911F910F9161
:104DB000FF90EF90DF90CF90BF90AF909F908F903B
:104DC0007F906F905F904F903F902F90089520E0DC
:104DD00030E0E3CF42E0A416B10409F034CF2FEF66
:104DE0003FEFDBCF53E0A516B10409F02CCFF7CF8E
:104DF00023EC38EB42E35EEB682D792D802F912F69
:104E00000E94254E18160CF05BCFB301A201C5011C
:104E10002A960FB6F894DEBF0FBECDBFDF91CF91BB
:104E20001F910F91FF90EF90DF90CF90BF90AF90C8
:104E30009F908F907F906F905F904F903F902F90BA
:104E40000C94601BC701B60190580E94AD4CCB0179
:104E50008CCFF7FAF094F7F8F094E985FA85C6A6B6
:104E6000D7A6E0AAF1AA59CFD701C601B0588D83C1
:104E70009E83AF83B8879C01AD01682D792D802F6B
:104E8000912F0E94454C20E030E04AE754E40E9414
:104E9000294E1B015C0120E030E0A901682D792D2D
:104EA000802F912F0E94254E1816BCF6CD80DE80F3
:104EB000EF80F8842ACF7F928F929F92AF92BF9219
:104EC000CF92DF92EF92FF920F931F93CF93DF93D6
:104ED00000D000D0CDB7DEB780E190E00E946E1424
:104EE000813A09F444C0AFE0CA2EAFE0DA2EE12CDB
:104EF000F12C01E010E0C8010E941F16DC01CB017B
:104F0000B05889839A83AB83BC83F60180839183F5
:104F1000A283B38344E050E0BE016F5F7F4FC701BF
:104F20000E947F140F5F1F4FF1E7CF0ED11C84E06A
:104F3000E80EF11C04301105F1F661EA80E190E021
:104F40000E94401421E030E0C9010F900F900F90B3
:104F50000F90DF91CF911F910F91FF90EF90DF9015
:104F6000CF90BF90AF909F908F907F900895BFE0BB
:104F7000AB2EBFE0BB2E812C912C00E010E081E72E
:104F8000782E709EB001719E700D1124615F704F7C
:104F900044E050E0C4010E94A414F501C080D18017
:104FA000E280F38020E030E040E450E4C701B60145
:104FB0000E943E4C87FF0AC020E030E040E450EC05
:104FC000C701B6010E94254E18162CF0F50110827B
:104FD0001182128213820F5F1F4FF4E08F0E911C1B
:104FE00081E7A80EB11C0430110559F620E030E02D
:104FF000ABCF10920F0F1092100F1092110F109252
:10500000120F1092800F1092810F1092820F109247
:10501000830F1092F10F1092F20F1092F30F109273
:10502000F40F60EA80E190E00E9440140E945B2748
:1050300080E090E008956091BA0DE7EDFEE081E038
:1050400090E020E030E0623099F06330A9F04081D8
:10505000442321F041895289452BA9F083309105E1
:1050600071F02F5F3F4F0196EF58FF4F623069F7A5
:105070002130310561F7F5CF2230310541F720E0CD
:1050800030E0C901089521E030E0FBCF2F923F923C
:105090004F925F926F927F928F929F92AF92BF9248
:1050A000CF92DF92EF92FF920F931F93CF93DF93F4
:1050B000CDB7DEB76A970FB6F894DEBF0FBECDBF8F
:1050C0003C011A012B0109831A832B833C8320E0C6
:1050D00030E0A901C201B1010E943E4C87FDE1C34D
:1050E00020E030E0A90169817A818B819C810E9456
:1050F0003E4C87FDCCC320E030E0A901C701B601DA
:105100000E943E4C87FDBEC3C30101979A878987E1
:1051100081E7A985BA858A9FF0018B9FF00D112444
:10512000E952F14F22A933A944A955A9C501B401F7
:105130000E94D94B5B01182F092FCB01A12FB02F53
:105140008D839E83AF83B887A2019101C701B60109
:105150000E94454C6B877C878D879E8729813A8189
:105160004B815C81C701B6010E94454C6B8B7C8BE7
:105170008D8B9E8B20E030E0A901B501812F902F0F
:105180000E943E4C87FD8DC17B856C859D858E85FB
:10519000272F362F492F582FC701B6010E94294EBD
:1051A00020E030E040E05FE30E94294E6F87788B7B
:1051B000782E692E7B896C899D898E89272F362FC1
:1051C000492F582FC701B6010E94294E20E030E038
:1051D00040E05FE30E94294E962E872E898B9A8BA2
:1051E000B401982F8A89272F362F492F582FBF8532
:1051F000A889F3016B2F7A2F8F2F9E2F0E94DA4BF5
:105200009B01AC01B501812F902F0E943E4C87FF7E
:1052100097C1C501A12FB02F8F8B988FA98FBA8FFF
:10522000A2019101C201B1010E94DA4B9B01AC01C4
:1052300060E070E080E89FE30E94454C4B015C0118
:1052400029813A814B815C81CA01B9010E94DA4B04
:105250009B01AC0160E070E080E89FE30E94454C58
:105260009B01AC01C501B4010E94DA4B9B01AC016A
:105270006F89788D898D9A8D0E94454C0E94964E3B
:105280006B017C01A20191010E94454CB62EA72E14
:10529000982E892E29813A814B815C81C701B60104
:1052A0000E94454C762E672E8B879C8781E7A985C7
:1052B000BA858A9F80018B9F100D11240952114FCE
:1052C000F80116A617A610AA11AAE95BFF4F1082D3
:1052D0006D817E818F8198850E9416149801235AD2
:1052E0003F4F3A872987A70196010E94294EA98539
:1052F000BA856D937D938D939C9313976D817E8179
:105300008F8198850E9416149B01AC017801B5E548
:10531000EB0EF11CC201B1010E94294EF70160831E
:105320007183828393836D817E818F8198850E94B2
:1053300016149B01AC017801F9E5EF0EF11C6981AF
:105340007A818B819C810E94294EDC01CB01B0586F
:10535000F70180839183A283B38386E0D8018C9385
:105360008FEF9FEFDC01F801848F958FA68FB78FA9
:10537000E85BFF4F81E08083F80182A993A9A4A98B
:10538000B5A981839283A383B483E75BFF4F8083B6
:105390009183A283B38380914D0290914E02A0919C
:1053A0004F02B0915002F801EF59FF4F8083918373
:1053B000A283B38320E030E04AE754E4D501F4014E
:1053C0006B2F7A2F8F2F9E2F0E94294E5B016C012D
:1053D00060914D0270914E0280914F029091500267
:1053E0007801F5E6EF0EF11C0E94DE4C9B01AC014A
:1053F0006A2D7B2D8C2D9D2D0E94DA4B0E94B24C84
:10540000D7016D937D938D939C93139720904D02BC
:1054100030904E0240904F025090500203591F4F5F
:1054200020E030E04AE754E4D301FB85EC856B2FA4
:105430007A2F8F2F9E2F0E94294E9B01AC016A2D3F
:105440007B2D8C2D9D2D0E94DA4B6B017C01C201BE
:10545000B1010E94DE4C9B01AC01C701B6010E9464
:10546000DA4B0E94B24CF80160837183828393838C
:105470006A960FB6F894DEBF0FBECDBFDF91CF9115
:105480001F910F91FF90EF90DF90CF90BF90AF9062
:105490009F908F907F906F905F904F903F902F9054
:1054A00008956D817E818F81988590586F8B788F5C
:1054B000898F9A8F7B856C859D858E85272F362FCA
:1054C000492F582FC701B6010E94294E20E030E035
:1054D00040E05FE30E94294E6F87788B782E692E1B
:1054E0007B896C899D898E89272F362F492F582FCC
:1054F000C701B6010E94294E20E030E040E05FE3A2
:105500000E94294E962E872E898B9A8BB401982F54
:105510008A89272F362F492F582FBF85A889F30155
:105520006B2F7A2F8F2F9E2F0E94DA4B9B01AC019D
:105530006F89788D898D9A8D0E943E4C87FD70CE43
:1055400081E729853A85829F8001839F100D112470
:105550000952114FD8019E961D921D921D921C92C8
:10556000D197F801E95BFF4F10826D817E818F81B9
:1055700098850E9416149B01AC015801BDE5AB0E45
:10558000B11CC701B6010E94294EF50160837183E9
:10559000828393836D817E818F8198850E9416140A
:1055A0009B01AC015801F5E5AF0EB11CC201B10180
:1055B0000E94294ED5016D937D938D939C931397F3
:1055C0006D817E818F8198850E9416149B01AC01AC
:1055D0005801B9E5AB0EB11C69817A818B819C8140
:1055E0000E94294EDC01CB01B058F50180839183E4
:1055F000A283B38386E0D8018C938FEF9FEFDC0109
:10560000F801848F958FA68FB78FE85BFF4F1082CC
:10561000F80182A993A9A4A9B5A981839283A38340
:10562000B4835801F9E4AF0EB11CF5018083918376
:10563000A283B3836D817E818F8198850E94161429
:105640009B01AC01035B1F4FC201B1010E94294EB7
:10565000BB85AC85FD85EE852B2F3A2F4F2F5E2F16
:105660000E94294EBB85AC85FD85EE852B2F3A2FF8
:105670004F2F5E2F0E94294E20E030E040E05FE394
:105680000E94294ED5012D913D914D915C910E9432
:10569000DA4BF801608371838283938320E030E0EA
:1056A000A9016D817E818F8198850E943E4C87FD86
:1056B000FDC06D817E818F819885BF85A889F301AA
:1056C0002B2F3A2F4F2F562D0E94D94BD401F989F9
:1056D000EA892B2F382D4F2F5E2F0E94D94B5B016B
:1056E0008C01CB01D80189839A83AB83BC8320E0F2
:1056F00030E0A901B501C8010E943E4C87FDDCC025
:10570000C501D8014C015D016D817E818F81988535
:105710000E9416149B01AC0181E769857A85869FFA
:105720008001879F100D11240952114F380171E536
:10573000670E711CC501B4010E94294EF801E35B9C
:10574000FF4F20813181428153810E94DA4BD30186
:105750006D937D938D939C93139780914D029091BF
:105760004E02A0914F02B0915002F801EF59FF4F45
:1057700080839183A283B38320E030E04AE754E43E
:10578000BB85AC85FD85EE856B2F7A2F8F2F9E2FE5
:105790000E94294E3B01582E492E60914D02709176
:1057A0004E0280914F02909150025801B5E6AB0E27
:1057B000B11C0E94DE4C9B01AC01F201662D772DDD
:1057C0008F2F9E2F0E94DA4B0E94B24CF50160830E
:1057D00071838283938380904D0290904E02A090BB
:1057E0004F02B0905002A701960169817A818B81A6
:1057F0009C810E94454C20E030E04AE754E40E943E
:10580000294E9B01AC01F201662D772D8F2F9E2F23
:105810000E94DA4B6B017C01C501B4010E94DE4C91
:105820009B01AC01C701B6010E94DA4B0E94B24C49
:10583000F801E759FF4F6083718382839383035993
:105840001F4F0E94DE4C6B017C0120E030E04AE7F4
:1058500054E4FB89EC89BD89AE896F2F7E2F8B2F95
:105860009A2F0E94294E9B01AC01C701B6010E94EC
:10587000DA4B0E94B24CD8016D937D938D939C932B
:105880001397F6CDF7FAF094F7F8F0943DCC6981D0
:105890007A818B819C81905869837A838B839C83E6
:1058A0002ACC57FA509457F850941ACC6D817E81C7
:1058B0008F819885905801CF89809A80AB80BC8079
:1058C000B7FAB094B7F8B0941FCF10928502109237
:1058D000840210928302109282021092810210922E
:1058E000800208950F931F93CF93DF9383E090E09E
:1058F0009093CD008093CC008091C8008D7F8093E1
:10590000C80028E92093C90080E190E09093C50089
:105910008093C4008091C0008D7F8093C00020934D
:10592000C10080E890E00E9436538093EA10909383
:10593000EB1080E890E00E9436538C019093ED10BC
:105940008093EC10C0E0D0E004C00091EC10109106
:10595000ED1084E090E00E943653F801EC0FFD1F3B
:10596000808391832296C038D10579F71092E9108F
:10597000DF91CF911F910F9108951F920F920FB653
:105980000F9211240BB60F922F933F934F938F9347
:105990009F93EF93FF934091CE008091800290916E
:1059A00081022091820230918302820F931F8F73B4
:1059B000907897FD1BC0FC01E755FF4E4083809116
:1059C00082029091830201969093830280938202D7
:1059D000FF91EF919F918F914F913F912F910F9058
:1059E0000BBE0F900FBE0F901F9018950197806C03
:1059F0009F6F0196E0CF1F920F920FB60F92112466
:105A00000BB60F922F933F934F938F939F93EF93E8
:105A1000FF934091C6008091800290918102209175
:105A2000820230918302820F931F8F73907897FDCB
:105A30001BC0FC01E755FF4E40838091820290918C
:105A4000830201969093830280938202FF91EF91EB
:105A50009F918F914F913F912F910F900BBE0F907F
:105A60000FBE0F901F9018950197806C9F6F019645
:105A7000E0CF161617066CF4FC01680F791F9191A0
:105A80008091C00085FFFCCF9093C600E617F70712
:105A9000B1F70895CF93DF93EB01FC013081309390
:105AA0006806362F3A5F3093690650936A06409332
:105AB0006B0620936C062DE636E0AB01BC01C901F4
:105AC0000E94BE55C859D94F81E18D8388E696E082
:105AD000DF91CF910895CF93DF93EB0120E12093E5
