:100000000C9479010C9498010C9498010C9498012B
:100010000C9498010C9498010C9498010C949801FC
:100020000C9498010C9455020C9498010C9498012E
:100030000C9498010C9498010C9498010C949801DC
:100040000C9498010C9498010C9498010C949801CC
:100050000C9498010C9498010C9498010C949801BC
:100060000C9498010C9498010C9498010C949801AC
:100070000C9498010C94BF100C9498010C94980166
:100080000C9498010C9498010C9498010C9498018C
:100090000C9461350C9498010C9498010C949E4535
:1000A0000C9498010C9498010C94584F0C94694F3F
:1000B0000C9498010C9498010C9498010C94090AE2
:1000C0000C9498010C9498010C9498010C9498014C
:1000D0000C9498010C9498010C9498010C9498013C
:1000E0000C9498010C9498010C9498010C9498012C
:1000F0000C9491500C9498010C9498010C946550B8
:100100000C9498010C9498010C9498010C9498010B
:100110000C9498010C9498010C9498010C949801FB
:100120008D3630363A3DFE3C4D368E3CA43CC23CCA
:10013000E03C3C3B593B8A3BBC3BFF3B433C5C3C8B
:10014000753CD237E037F6372038463750375F37BF
:1001500023366D3780379137B037CB37113B173B9C
:10016000233B2B3BEE392336653AF339453A8B3A3C
:10017000003BE63AF13AD738E3382139F536A13A6F
:10018000C43AC73ACC3A0B3D293DB73DD43DE53D95
:10019000EF3D0A3E603E173E363E3D3E2336233657
:1001A0002336233623362336233623364C3EB339C3
:1001B000BC39C539CC393E3980398D399B394638FF
:1001C0009538AF38A9362336DF3628391E373D3704
:1001D000523D05A84CCDB2D44EB93836A9020C50C8
:1001E000B9918688083CA6AAAA2ABE000000803FD2
:1001F0006E616E00696E660000407A10F35A00A0CE
:10020000724E18090010A5D4E80000E876481700DF
:1002100000E40B54020000CA9A3B000000E1F5051F
:10022000000080969800000040420F000000A08669
:1002300001000000102700000000E803000000009B
:100240006400000000000A0000000000010000003F
:1002500000002C76D888DC674F0823DFC1DFAE5959
:10026000E1B1B796E5E3E453C63AE651997696E8EC
:10027000E6C28426EB898C9B62ED407C6FFCEFBC70
:100280009C9F40F2BAA56FA5F490055A2AF75C939B
:100290006B6CF9676DC11BFCE0E40D47FEF520E6D1
:1002A000B500D0ED902E0300943577050080841EB4
:1002B000080000204E0A000000C80C333333330F0F
:1002C000986E12831141EF8D2114893BE65516CFAC
:1002D000FEE6DB18D1844B381BF77C1D901DA4BBB8
:1002E000E424203284725E228100C9F124ECA1E56D
:1002F0003D2711241FBECFEFD1E4DEBFCDBF13E0F9
:10030000A0E0B2E0E8ECF7EB00E00BBF02C0079022
:100310000D92AA31B107D9F711E2AAE1B3E001C009
:100320001D92A734B107E1F70E944C0F0C94E25BD9
:100330000C94000081E080930B0280913F0A86FFBD
:1003400004C080913F0A87FDABC080913F0A86FFC1
:1003500026C080918C0290918D02892B09F18091A9
:100360008902811127C010928D0210928C02109286
:100370008B0210928A021092890281E00E94960BF1
:100380001092A3021092A2021092A1021092A00257
:1003900010929F024FEF60E080E00C942F0A0895C6
:1003A00083E00E94960B0E94040A892B09F476C010
:1003B0000C9490070E94563280ED809354168EE084
:1003C0008093551680918C0290918D0290935616D1
:1003D00080918C0290918D0280935716109258163E
:1003E00086E78093591688E080935A1610925B1620
:1003F00010925C1610925D1610925E168FEF80932D
:100400005F161092601682E1809361166091551616
:1004100020E04FEF5FEF84E596E10E945844609141
:10042000551620E04FEF5FEF84E596E10E945844B7
:100430006091551620E04FEF5FEF84E596E10E9452
:1004400058446091551620E04FEF5FEF84E596E148
:100450000E9458446091551620E04FEF5FEF84E50D
:1004600096E10E9458446091551620E04FEF5FEFEF
:1004700084E596E10E9458441092251110928E0254
:1004800080E090E0FC01EE0FFF1FEC52FA4E11826B
:100490001082019680349105A9F765CF0C9443072B
:1004A0000E945D2483E00C94960B1F920F920FB66E
:1004B0000F9211240F900FBE0F901F9018950E945D
:1004C0002F0680918C0290918D02892B31F08091C2
:1004D000A2029091A3020E9414330C948732CF930E
:1004E000DF93CDB7DEB729970FB6F894DEBF0FBE06
:1004F000CDBF0E942F0680918C0290918D02892B96
:1005000021F08091890281111EC080919F0281306B
:1005100009F443C0833009F440C080918C0290916B
:100520008D02892B29F080918902882309F465C006
:100530000E94203429960FB6F894DEBF0FBECDBFBF
:10054000DF91CF9108958091A2029091A302892B0F
:1005500009F04DC080918E0290E0019663E070E05A
:100560000E94515880938E0280918E02813009F44E
:1005700055C008F045C08091A2029091A302892B3A
:1005800021F60E9499230E9456324FEF60E080E0EE
:100590000E942F0A10922511CDCF82E080939F02F6
:1005A00080918C0290918D02892BF1F080ED8983EE
:1005B00089E08A8380918C0290918D029B83809147
:1005C0008C0290918D028C831D828DE48E8383E05A
:1005D0008F83188682E1898720E04FEF5FEF69E023
:1005E000CE0101960E9458440E949923A3CF809186
:1005F0008E02882309F489CFADCF0E945F349ACF51
:10060000823009F082CF0E9499234FEF6FEF80E094
:100610000E942F0A89E0809325118CCF0E945632C8
:1006200040E06FEF80E00E942F0A87E08093251161
:1006300081CF80ED97E0A0E0B0E08093450A9093F1
:10064000460AA093470AB093480A81E08093440A7F
:100650008AE991E090934A0A8093490A84E49AE0F7
:100660000C94DD4484E49AE00C94A9448F929F9208
:10067000AF92BF92CF92DF92EF92FF920F931F93B0
:10068000CF93DF93CDB7DEB72C970FB6F894DEBFCC
:100690000FBECDBFE62EE82690914B02992309F4B8
:1006A00055C0E6FA442740F9E7FC9DC0E5FC4460EC
:1006B00066FD6EC030E021E067FD6EC0226065FF20
:1006C0006EC0346080E289838AE08A83809151021F
:1006D00090915202A0915302B09154028B839C835B
:1006E000AD83BE834F83388729871A868091550250
:1006F00090915602892B09F454C02091240F309117
:10070000250F80915502909156022817390709F458
:1007100048C0409155025091560221E06AE0CE0156
:1007200001960E9458442C960FB6F894DEBF0FBE77
:10073000CDBFDF91CF911F910F91FF90EF90DF9090
:10074000CF90BF90AF909F908F9008956623B9F09F
:1007500090910B029111E7CFE6FC49C020E030E018
:10076000E7FC5BC0E5FE4EC065FD4CC086FD4EC09B
:1007700085FD7DC087FFD7CF0E946F02D4CF9091B7
:100780000B02992329F310920B0210920A02CBCF8D
:1007900031E020E067FF92CF326065FD92CF2460A8
:1007A00091CF8091BA024091240F5091250F21E002
:1007B0006AE070E0882369F0CE0101960E94BB35A3
:1007C000FC014181BC0182E00E9453470E94BD4769
:1007D000AACFCE0101960E94BB35FC01618170E079
:1007E0000E94A135A0CF4260E5FE62CF60CF6C874A
:1007F0008B8766FF19C00E94190320E030E06C85EA
:100800008B85AECF232B09F48ECFB0CF87FD49C0A7
:1008100085FD2DC00E945F0286CF67FD0CC010923F
:100820000A0221E030E09ECF0E94320321E030E056
:100830006C858B8595CF91E090930A028090510250
:1008400090905202A0905302B09054028092400ABD
:100850009092410AA092420AB092430A90912511C7
:100860009150923008F07ECF109225117BCF0E94DC
:100870002F068091550290915602892B49F04FEF37
:1008800060E080E00E942F0A1092560210925502FA
:100890001092A3021092A2021092A1021092A00242
:1008A00042CF81E06C870E94960B0E9491346C8548
:1008B000662319F081E080930B0280912A0F811149
:1008C00026C08091A30F811122C080911C1081113C
:1008D0001EC034E6C32E3FE0D32EE12CF12CF601EE
:1008E00011821082FFEFEF1AFF0A0BED1FE029ECD7
:1008F0003FE340E050E0BA01C7010E948C1789E74E
:10090000C80ED11CE3E0EE16F10449F70CCF0E94AB
:10091000992309CFCF938091510290915202A091D7
:100920005302B091540240910C0250910D0260911B
:100930000E0270910F02841B950BA60BB70B499703
:10094000A105B105F0F0C9B1C095C07EC0933F0AC2
:10095000809110028C17A9F06C2F0E9436038091B1
:10096000510290915202A0915302B091540280938F
:100970000C0290930D02A0930E02B0930F02C0934D
:100980001002CF9108951092B100249808950C940C
:10099000C304CF93DF9382E48093B000A3EBB0E075
:1009A00082EB8C93E1EBF0E085E080832FEF32E582
:1009B00097E0215030409040E1F700C000001082E5
:1009C000CFE1DEE42197F1F700C0000095E89C93A9
:1009D0008083DFEF22E537E0D15020403040E1F75F
:1009E00000C000001082249881E08093D30D84E63B
:1009F00090E0A0E0B0E08093D40D9093D50DA0934B
:100A0000D60DB093D70D87EC94E09093D90D8093D9
:100A1000D80DDF91CF9108959C01009709F18A3F8D
:100A2000910578F085E08093B10064E274EF80E096
:100A300090E0249A40E050E00E9487582093B30051
:100A4000089587E08093B10064E87EE180E090E063
:100A5000249A40E050E00E9487582093B300089504
:100A60000C94C304CF93DF93C82FCF7082958F70FF
:100A700009F161E090E0660F9F5F9813FCCF70E092
:100A8000D0E0CC0FDD1FCC0FDD1FCF5EDD4F882700
:100A900077FD8095982F0E945352288139814A8191
:100AA0005B810E949C530E942552CB01DF91CF9124
:100AB0000C940C0561E070E0E3CF0F931F93CF938C
:100AC000DF9300D0CDB7DEB70E94C304009142028D
:100AD000109143020115110509F480C08091440270
:100AE00090914502801791070CF05EC03091E20DA5
:100AF00020E0880F991F820F931F45960E94621075
:100B00000E9432053091E20D20E0809144029091E4
:100B10004502880F991F820F931F44960E9462100E
:100B200080931F0340914402509145024F5F5F4FF5
:100B300050934502409344026091420270914302F7
:100B40006417750794F40E94325A8A830E94325ABD
:100B500089830E94325A4A8169810F900F90DF91F8
:100B6000CF911F910F910C942F0A1092E30D282F13
:100B700030E040E050E060911B0370911C038091D5
:100B80001D0390911E030E9465582093E40D30933D
:100B9000E50D4093E60D5093E70D8DE595E09093BC
:100BA000E90D8093E80DCFCF81E08093E30D1092A3
:100BB00045021092440210924302109242020E9497
:100BC000C304109241024FEF60E080E00F900F905D
:100BD000DF91CF911F910F910C942F0A9091E20D0C
:100BE00080E042960E94621080931A039091E20D79
:100BF00080E043960E946210082F10E01093430299
:100C00000093420220911A0330E040E050E060E897
:100C100079EA83E090E00E94655820931B033093AB
:100C20001C0340931D0350931E0358CF91E09093F3
:100C300041029093E30D1092E40D1092E50D109295
:100C4000E60D1092E70D2DE535E03093E90D209388
:100C5000E80D8093E20D83EE9DE00C94DD4486EE7A
:100C600090E00E940C0583ED9DE00C94DD440F9311
:100C70001F938091510290915202A0915302B09122
:100C800054028093010E9093020EA093030EB09332
:100C9000040E1092F20D84EF91E0A0E0B0E080939A
:100CA000F30D9093F40DA093F50DB093F60D8FEC2A
:100CB00097E09093F80D8093F70D82EF9DE00E94EE
:100CC000DD440BED1FE029EC3FE340E050E0BA01CA
:100CD00081E090E00E948C170BED1FE029EC3FE3D0
:100CE00040E050E0BA0182E090E00E948C170BEDEA
:100CF0001FE029EC3FE340E050E0BA0183E090E0E0
:100D00000E948C1781E090E090934A028093490200
:100D10008DEC9CECACEABFE380936202909363029B
:100D2000A0936402B093650280935E0290935F0289
:100D3000A0936002B093610283EC98EBA2E3BEE360
:100D40008093680290936902A0936A02B0936B0249
:100D500084E190E090936702809366021F910F9167
:100D6000089580910D0E8230B9F180913B0F9091E2
:100D70003C0F892BB9F18091B40F9091B50F892B5D
:100D800089F10E94992341E05FEF6FEF7FEF81E0EF
:100D900090E00E94FE1A41E05FEF6FEF7FEF82E08C
:100DA00090E00E94FE1A81E08093F20D88E893E1C2
:100DB000A0E0B0E08093F30D9093F40DA093F50DB7
:100DC000B093F60D82EB98E09093F80D8093F70DB9
:100DD00082EF9DE00C94DD4480913B0F90913C0F9D
:100DE000892B09F4089580912D1090912E10892B54
:100DF00041F6089580910D0E8230B9F180913B0F3C
:100E000090913C0F892BB9F18091B40F9091B50F5F
:100E1000892B89F10E9499234FEF50E060E070E048
:100E200081E090E00E94FE1A4FEF50E060E070E039
:100E300082E090E00E94FE1A81E08093F20D88E843
:100E400093E1A0E0B0E08093F30D9093F40DA093B4
:100E5000F50DB093F60D85E499E09093F80D80932D
:100E6000F70D82EF9DE00C94DD4480913B0F909153
:100E70003C0F892B09F4089580912D1090912E102C
:100E8000892B41F608950F931F9381E090E0909392
:100E90004802809347021092650F1092640F1092DF
:100EA000DE0F1092DD0F10925710109256100BEDBE
:100EB0001FE029EC3FE340E050E0BA010E948C17AC
:100EC0000BED1FE029EC3FE340E050E0BA0182E087
:100ED00090E00E948C170BED1FE029EC3FE340E00F
:100EE00050E0BA0183E090E00E948C171092F20D5E
:100EF00084EF91E0A0E0B0E08093F30D9093F40DC7
:100F0000A093F50DB093F60D8AEF96E09093F80D4F
:100F10008093F70D82EF9DE01F910F910C94DD44BB
:100F2000109248021092470282EF9DE00E94A9446D
:100F30000E9499234FEF60E080E00E942F0A83EC2B
:100F400098EBA2EBBEE38093680290936902A093B2
:100F50006A02B0936B0284E690E0909367028093FC
:100F60006602089540E060E08FEF0E942F0A2FEFA5
:100F700081EE94E0215080409040E1F700C00000F5
:100F800040E060E080E00E942F0A2FEF81EE94E0C5
:100F9000215080409040E1F700C00000E3CF0F9364
:100FA0001F93CF93DF938091510290915202A091B1
:100FB0005302B09154024091010E5091020E609183
:100FC000030E7091040E841B950BA60BB70B813496
:100FD0009747AB41B10508F05CC080910D0E82309F
:100FE00009F43FC080913B0F90913C0F892B41F455
:100FF00080912A0F81110BC00E9499230E94B20791
:101000008091B40F9091B50F892B09F055C0809154
:10101000A30F811106C08091B40F9091B50F892B59
:1010200059F30E94325A8C010E94325AEC010E94FC
:10103000325AFC012FEF30E0C801B9010E9451582B
:10104000482FCE01B9010E945158C82FCF01B901D4
:101050000E9451586C2FDF91CF911F910F910C94EA
:101060002F0A80913B0F90913C0F892B09F474C09B
:1010700080912D1090912E10892BF1F480911C10ED
:101080008111CFCF80912D1090912E10892B49F690
:10109000B3CF81E08093F20D40E06FEF80E00E94DB
:1010A0002F0A0E9499231092480210924702DF9162
:1010B000CF911F910F91089580914602813041F1A7
:1010C0000BED1FE029EC3FE34BED5FE069E471E4D9
:1010D00081E090E00E948C170BED1FE029EC3FE3CC
:1010E0004BED5FE069E471E482E090E00E948C17D0
:1010F0000BED1FE029EC3FE34BED5FE069E471E4A9
:1011000083E090E00E948C1781E08093460289CFB3
:101110000BED1FE029EC3FE340E050E0BA0181E035
:1011200090E00E948C170BED1FE029EC3FE340E0BC
:1011300050E0BA0182E090E00E948C170BED1FE0B6
:1011400029EC3FE340E050E0BA0183E090E00E94E8
:101150008C171092460265CF80912A0F882309F4DC
:101160004BCF8CCFEF92FF920F931F93CF93DF93D0
:10117000CDB7DEB72C970FB6F894DEBF0FBECDBF4C
:101180000E94992300E61FE0EE24E394F12CEC0E7C
:10119000FD1EF80164817581882777FD8095982F61
:1011A0000E9453522BED3FE049EC50E40E949C53C7
:1011B0009B01AC01F80160817181828193810E9461
:1011C0004D51F70161937193819391937F0107587A
:1011D0001F4FF0E10B3C1F07E1F680910D0E28E553
:1011E00030EA4BE851EC8230D1F169817A818B8110
:1011F0009C810E94985318160CF445C028E530EAEB
:101200004BE851EC6D817E818F8198850E949853C7
:101210001816CCF181E08093F20D88EE93E0A0E007
:10122000B0E08093F30D9093F40DA093F50DB0937F
:10123000F60D87E396E09093F80D8093F70D82EF1B
:101240009DE02C960FB6F894DEBF0FBECDBFDF91A8
:10125000CF911F910F91FF90EF900C94DD44698125
:101260007A818B819C810E949853181664F028E53E
:1012700030EA4BE851EC69857A858B859C850E9424
:10128000985318163CF60E94B207EF92FF920F9304
:101290001F93CF93DF93CDB7DEB72C970FB6F8949B
:1012A000DEBF0FBECDBF0E94992300E61FE0EE24F3
:1012B000E394F12CEC0EFD1EF80164817581882702
:1012C00077FD8095982F0E9453522BED3FE049EC1B
:1012D00050E40E949C539B01AC01F8016081718134
:1012E000828193810E944D51F701619371938193A3
:1012F00091937F0107581F4FF0E10B3C1F07E1F668
:1013000080910D0E28E530EA4BE851E4823009F473
:1013100065C069817A818B819C810E94B15187FD72
:1013200071C028E530EA4BE851E46D817E818F8100
:1013300098850E94B15187FD65C01092650F10928B
:10134000640F1092DE0F1092DD0F10925710109262
:1013500056100BED1FE029EC3FE340E050E0BA01EE
:1013600081E090E00E948C170BED1FE029EC3FE339
:1013700040E050E0BA0182E090E00E948C170BED53
:101380001FE029EC3FE340E050E0BA0183E090E049
:101390000E948C171092F20D84EF91E0A0E0B0E073
:1013A0008093F30D9093F40DA093F50DB093F60D8B
:1013B00081EB96E09093F80D8093F70D82EF9DE01E
:1013C0002C960FB6F894DEBF0FBECDBFDF91CF9144
:1013D0001F910F91FF90EF900C94DD4469817A8109
:1013E0008B819C810E94B15187FD0CC028E530EAB9
:1013F0004BE851E469857A858B859C850E94B151C3
:1014000087FF9BCF0E94B2078091470290914802CC
:1014100008951F920F920FB60F9211248F939F93EE
:10142000AF93BF938091510290915202A0915302C9
:10143000B09154020196A11DB11D80935102909369
:101440005202A0935302B0935402BF91AF919F9167
:101450008F910F900FBE0F901F901895089590E1F7
:10146000899F90011124309399002093980090E176
:10147000699F9001112430939D0020939C0090E17E
:10148000499F9001112430939B0020939A008093F0
:101490000A0E60930B0E40930C0E08958091050E7A
:1014A0009091060E01979093060E8093050E1816E4
:1014B00019061CF081E08093140F40910C0E4058E7
:1014C00060910B0E605880910A0E80580C942F0A80
:1014D00020E1829FC001112490939900809398008D
:1014E00080E1689FB001112470939D0060939C007F
:1014F00020E1429FA001112450939B0040939A0049
:101500000895CF93DF9380918C0290918D02892B67
:1015100059F180918902882339F1C0915B02D09101
:101520005C029E01A9E8B8E80E943158969587951B
:1015300096958795969587954FE0489F9001499F8E
:10154000300D1124CE01821B930B039780F4409140
:10155000201160911F1180911E110E94680A21962E
:10156000D0935C02C0935B02DF91CF9108954091CC
:101570000C0E60910B0E80910A0E0E94680AEFCF4C
:1015800040910C0E60910B0E80910A0E0C94680A2B
:101590000F93CF93DF9300D01F92CDB7DEB781E0DA
:1015A0008B8302E09E012F5F3F4F41E0BE016D5FE4
:1015B0007F4F8CE10E948F470E94BD47998180E058
:1015C0009093080E8093070E8091070E9091080E5D
:1015D0002A81822B9093080E8093070E83E08B83E1
:1015E0009E012F5F3F4F41E0BE016D5F7F4F8CE159
:1015F0000E948F470E94BD47998180E090930F0F12
:1016000080930E0F80910E0F90910F0F2A81822BE5
:1016100090930F0F80930E0F85E08B839E012F5FB9
:101620003F4F41E0BE016D5F7F4F8CE10E948F47CD
:101630000E94BD47998180E09093280F8093270FE7
:101640008091270F9091280F2A81822B9093280F49
:101650008093270F80E00F900F900F90DF91CF9134
:101660000F910895CF93C82F8823F1F040E06FEFDA
:1016700080E00E942F0A2FEF81EE94E021508040FD
:101680009040E1F700C0000040E060E08FEF0E9472
:101690002F0A2FEF81EE94E0215080409040E1F737
:1016A00000C00000C15011F7CF91089585E00C945F
:1016B000320B0F93CF93DF9300D000D0CDB7DEB7BE
:1016C0008DE08C8301E09E012D5F3F4F41E0BE0124
:1016D0006C5F7F4F8CE10E948F470E94BD47892B32
:1016E00009F58B818A3219F084E10E94320B8AE27B
:1016F000898389E18A8342E0BE016F5F7F4F8CE17D
:101700000E9453470E94BD47892B19F084E10E9433
:10171000320B80E00F900F900F900F90DF91CF91E0
:101720000F91089584E10E94320BDBCF2091050ECA
:101730003091060E121613060CF4089590E0880FEF
:10174000991F9093060E8093050E1092140F84E655
:1017500090E0A0E0B0E08093150F9093160FA09357
:10176000170FB093180F8EE49AE090931A0F80939E
:10177000190F84E19FE00C94DD442091050E309117
:10178000060E121613060CF4089590E0880F991FA8
:101790009093060E8093050E1092140F4093150F30
:1017A0005093160F6093170F7093180F8EE49AE002
:1017B00090931A0F8093190F84E19FE00C94DD44FD
:1017C0000E94680A81E08093200384E690E0A0E014
:1017D000B0E08093210390932203A0932303B0935E
:1017E000240380EC9AE0909326038093250380E203
:1017F00093E00C94DD449AE09093770090917C0004
:10180000907C90937C0090917C00906C90937C00F5
:1018100090917C00982B90937C0080917A00876C4B
:1018200080937A0080917A0086FDFCCF2091780029
:1018300030917900932F937080E0AC01422B9A0194
:10184000C9010895CF93DF9380E8809361001092DF
:101850006100F89480EF84B98BB1806E8BB9809170
:10186000680081608093680080916B008260809343
:101870006B0080916B00846080936B0080916B00A3
:10188000886080936B008FB780688FBF88E18AB9CA
:101890008BB183608BB98FE78DB98FE383BB819A5E
:1018A00089982FEF81EE94E0215080409040E1F73D
:1018B00000C0000082E00E94FB0BEC018198829A3C
:1018C0008A982FEF81EE94E0215080409040E1F71C
:1018D00000C0000081E00E94FB0B8298C436D10555
:1018E00024F4843691050CF453C082E080930D0EED
:1018F00082E090E09093110F8093100F81E090E0D0
:101900009093130F8093120F3AEA3093800029E1ED
:10191000209381008FEF9FE0909387008093860053
:1019200030939000209391009093970080939600BD
:10193000109225011092240180917300826080939F
:101940007300809121018C60809321018EE390E0EF
:101950009093290180932801909327018093260179
:1019600084B7877F84BF8091600088618093600026
:101970001092600080EC80937C0010927B008FEED0
:1019800080937A000E94C4117894DF91CF910895DA
:1019900083E080930D0E84E090E09093110F80938C
:1019A000100F83E090E09093130F8093120FACCF51
:1019B000E82FF0E0EE0FFF1FE25FFE4E2081318145
:1019C000C90108950E94D80CBC0180E090E00E94FB
:1019D00051522DEC3CEC4CEC5FE30E949C5320E018
:1019E00030E040E85AE30E949C53089580E00E9452
:1019F000D80CBC0180E090E00E9451522DEC3CECF0
:101A00004CEC5FE30E949C5320E030E040E85AE356
:101A10000E949C532EE63BED46EB5EE30E94B851DC
:101A20000895CF93DF93CDB7DEB72C970FB6F89418
:101A3000DEBF0FBECDBF69877A878B879C87809179
:101A4000510290915202A0915302B09154028983A5
:101A50009A83AB83BC8329813A814B815C818985E0
:101A60009A85AB85BC85820F931FA41FB51F8D83FC
:101A70009E83AF83B88700002091510230915202BB
:101A800040915302509154028D819E81AF81B8855F
:101A900082179307A407B50778F72C960FB6F8942A
:101AA000DEBF0FBECDBFDF91CF9108958091600062
:101AB000886180936000809160008D6080936000F9
:101AC000FFCF4F925F926F927F92AF92BF92CF9271
:101AD000DF92EF92FF920F931F93CF93DF93CDB7D7
:101AE000DEB76E970FB6F894DEBF0FBECDBF0E9473
:101AF000C80A6091070E7091080E882777FD8095BF
:101B0000982F0E94535220E030E040E858E30E94B2
:101B10009C532B013C0160910E0F70910F0F882791
:101B200077FD8095982F0E94535220E030E040E8E6
:101B300058E30E949C536B017C016091270F7091C8
:101B4000280F882777FD8095982F0E94535220E018
:101B500030E040E858E30E949C535B018C01242D47
:101B6000352D462D572D642D752D862D972D0E94D0
:101B70009C532B013C012C2D3D2D4E2D5F2D6C2DAA
:101B80007D2D8E2D9F2D0E949C539B01AC01C30186
:101B9000B2010E944D516B017C012A2D3B2D402F3B
:101BA000512F6A2D7B2D802F912F0E949C539B01DA
:101BB000AC01C701B6010E944D510E9409547B013E
:101BC0008C018091510290915202A0915302B091E8
:101BD000540240912F035091300360913103709172
:101BE0003203841B950BA60BB70B8B3F9105A10508
:101BF000B10508F0C7C0A0903303B0903403C09083
:101C00003503D09036032E2D3F2D402F512F6A2DB6
:101C10007B2D8C2D9D2D0E944C515B016C0120E091
:101C200030E0A9017B2D9D2D0E94B15187FD27C178
:101C30002AE939E949E15FE36A2D7B2D8C2D9D2D41
:101C40000E94985318160CF06CC010920A0240E0E3
:101C50006FEF80E00E94E00BBB24B394B0920B02C4
:101C600080918C0290918D02892B09F0AAC08091FD
:101C700025118111A6C08091510290915202A0912C
:101C80005302B09154028093261190932711A09390
:101C90002811B09329118091510290915202A09184
:101CA0005302B09154020E94365A40905102509013
:101CB000520260905302709054020E94325A6C019A
:101CC000C301B2010E9451522B013C01B601882789
:101CD00077FD8095982F0E94535220E03EEF4FEF02
:101CE00056E40E94B85120E030E44CE954E40E94EC
:101CF0009C539B01AC01C301B2010E944D5120E0F5
:101D000030E04AE753E40E944D510E94255260930F
:101D10002A1170932B1180932C1190932D11B09256
:101D200025118E2D9F2DA02FB12F809333039093DB
:101D30003403A0933503B093360380915102909100
:101D40005202A0915302B091540280932F039093BA
:101D50003003A0933103B09332036E960FB6F8941C
:101D6000DEBF0FBECDBFDF91CF911F910F91FF90CE
:101D7000EF90DF90CF90BF90AF907F906F905F908B
:101D80004F9008958E2D9F2DA02FB12F8093330358
:101D900090933403A0933503B0933603809151029E
:101DA00090915202A0915302B091540280932F035C
:101DB00090933003A0933103B0933203570168012D
:101DC00022CF809125118111ACCF80915102909149
:101DD0005202A0915302B091540240915702509187
:101DE00058026091590270915A02841B950BA60B00
:101DF000B70B843F9140A105B10508F4AECF83ED48
:101E000089838EE08A831B821C821D821E828091C0
:101E10008C0290918D029F8380918C0290918D0213
:101E2000888780911E11898780911F118A878091F0
:101E300020118B8780918A0290918B029C878091E0
:101E40008A0290918B028D8782E18E8720E04FEF8E
:101E50005FEF6EE0CE0101960E94584480915102DE
:101E600090915202A0915302B09154028093570274
:101E700090935802A0935902B0935A0252CF2AE984
:101E800039E949E15FEB6A2D7B2D8C2D9D2D0E9458
:101E9000B15187FF46CFD9CECF93DF93CDB7DEB711
:101EA000AD970FB6F894DEBF0FBECDBF0E942335AD
:101EB0000E94220C0E9447470E94590B882321F060
:101EC0008AE00E94320BFCCF0E94C9040E94374175
:101ED0000E94A02980914C0290914D02A0914E0247
:101EE000B0914F028A279B270E94365A0E94BF2337
:101EF0001F8E8FE090E0A0E0B0E088A399A3AAA392
:101F0000BBA386EE9BE19DA38CA3CE014F960E94BE
:101F1000DD44188A84E690E0A0E0B0E0898B9A8BDB
:101F2000AB8BBC8B81E89AE09E8B8D8BCE0140966B
:101F30000E94DD44198280E091E0A0E0B0E08A8355
:101F40009B83AC83BD838EEC94E39F838E83CE0111
:101F500001960E94DD444FEF60E080E00E942F0A6E
:101F60000E940F4E0E9465450E940F4E0E94593FED
:101F70000E94C9470E940F4E0E949A410E948A0403
:101F80000E940F4E0E944F2B80910A0281113FC088
:101F90008091490290914A02892B11F38091470266
:101FA00090914802892BE1F2809151029091520266
:101FB000A0915302B09154024091010E5091020E33
:101FC0006091030E7091040E841B950BA60BB70B4A
:101FD00081339547A105B10518F210924A0210927B
:101FE000490244E050E062E672E087E194E00E943A
:101FF000731044E050E06EE572E08BE194E00E94E3
:10200000731061EA86E194E00E943410A9CF0E9427
:10201000610DBECFCF92DF92EF92FF926B017C01F8
:1020200020E030E0A9010E94B15187FD1AC020E0F4
:1020300030E0A901C701B6010E949853181674F444
:1020400090E88FE350E040E09C01652F742F832FD0
:10205000922FFF90EF90DF90CF90089590E080E076
:10206000F1CF90E88FEBEECFE0915D02E11103C07C
:10207000F894E0915D027FEF54E144E2F999FECFDC
:102080002AE030E0000021503109E1F792BD81BD26
:1020900070BD5FBBF99AF999FECF2AE030E00000ED
:1020A00021503109E1F760BD4FBBF99AF999FECF94
:1020B00092BD81BDF89A20B56213E0CFE11101C055
:1020C0007894089520915D02211103C0F894209125
:1020D0005D02F999FECF92BD81BDF89A211101C030
:1020E000789480B50895EF92FF920F931F93CF934A
:1020F000DF938C01F89481E080935D02141615063D
:102100006CF4EB017B01E40EF51E6991C8010E949D
:1021100034100F5F1F4FCE15DF05B9F710925D0227
:102120007894DF91CF911F910F91FF90EF900895D8
:10213000EF92FF920F931F93CF93DF93F89421E0D8
:1021400020935D021416150684F4EB017B01E40E66
:10215000F51E8C01061B170BC8018C0F9D1F0E94DA
:1021600062108993CE15DF05B9F710925D0278945D
:10217000DF91CF911F910F91FF90EF9008951F92E3
:102180000F920FB60F9211240BB60F921F932F933D
:102190003F934F935F936F937F938F939F93AF93EF
:1021A000BF93CF93DF93EF93FF9380916C028F5F88
:1021B00080936C02833008F462C010926C0210911C
:1021C0006D02412F50E08091780090E0BA01660FD7
:1021D000771FEB01C25FDE4E9983888388819981E6
:1021E000E09179003E2F337020E0822B932B99836E
:1021F00088838091490290914A02892BC9F080918D
:10220000470290914802892B99F0812F85508230A6
:1022100008F47CC08091100F9091110F4817590756
:10222000A1F18091120F9091130F4817590769F18E
:102230001F5F183038F510936D0280917C00807E0E
:1022400080937C0080917C0090916D02892B80931B
:102250007C00FF91EF91DF91CF91BF91AF919F9162
:102260008F917F916F915F914F913F912F911F912E
:102270000F900BBE0F900FBE0F901F9018958111FD
:10228000E8CF9DCF10926D02D8CFEB01C25FDE4E3A
:1022900068817981882777FD8095982F0E94535215
:1022A0002DEC3CEC4CEC5FE30E949C5320E030E0D2
:1022B00040E85AE30E949C5320915E0230915F02F5
:1022C00040916002509161020E94985318160CF0E0
:1022D000AFCF68817981882777FD8095982F0E94FC
:1022E00053522DEC3CEC4CEC5FE30E949C5320E0FD
:1022F00030E040E85AE30E949C5360935E02709382
:102300005F02809360029093610292CF688179812D
:10231000882777FD8095982F0E9453522DEC3CEC36
:102320004CEC5FE30E949C5320E030E040E85AE32D
:102330000E949C532091620230916302409164029A
:10234000509165020E94985318160CF071CF688165
:102350007981882777FD8095982F0E9453522DEC24
:102360003CEC4CEC5FE30E949C5320E030E040E802
:102370005AE30E949C5360936202709363028093BD
:1023800064029093650254CF8F929F92AF92BF9256
:10239000CF92DF92EF92FF920F931F93CF93DF9331
:1023A00084EE91E0EAE2FFE0DF019C011D92215002
:1023B0003040E1F720E030E009E741E2842E41E3DC
:1023C000942E48E9A42E44E4B42E50E5C52E57E7D8
:1023D000D52E56EDE52E5DE3F52E4FEF5FEFBA01FA
:1023E000CFEFDFEF10E883EF96E6AFEDBFE3029F9C
:1023F000F001039FF00D1124E65DF04F1082118271
:1024000012821382148285829682A782B086C18648
:10241000D286E386F486158616861786108A128A77
:10242000118A148A138A158A168A178A108E118EB9
:10243000138E128E448F558F668F778FD1A3C0A3D2
:1024400012A386A397A3A0A7B1A712AA13AA14AA9E
:1024500015AA13AE12AEEF59FF4F108211821282ED
:1024600013822F5F3F4F2330310509F686E194E058
:102470000E946210813A69F0DF91CF911F910F9114
:10248000FF90EF90DF90CF90BF90AF909F908F9094
:10249000089544E050E062E672E087E194E00E9433
:1024A000981044E050E06EE572E08BE194E0DF913B
:1024B000CF911F910F91FF90EF90DF90CF90BF9041
:1024C000AF909F908F900C9498100F931F93CF9381
:1024D000DF932BED3FE049EC50E40E9495528B01D5
:1024E000D82FC92F2BED3FE049E450E4FE01712FB6
:1024F0008F2F9E2F0E949853181674F42BED3FE0F7
:1025000049EC50E4FE01602F712F8F2F9E2F0E9407
:102510004C518B01D82FC92F2BED3FE049E450ECF3
:10252000FE01602F712F8F2F9C2F0E94B15187FFCA
:102530000EC02BED3FE049EC50E4FE01602F712FFF
:102540008F2F9C2F0E944D518B01D82FC92F9E0198
:10255000602F712F832F9C2FDF91CF911F910F91AF
:1025600008952F923F924F925F926F927F928F9237
:102570009F92AF92BF92CF92DF92EF92FF920F9312
:102580001F93CF93DF93CDB7DEB728970FB6F8949C
:10259000DEBF0FBECDBF9C838B8380918002909164
:1025A0008102892B09F40DC18B819C8181309105B9
:1025B00009F4A6C00CF481C004970CF07EC0809191
:1025C000100F0E94E20C4B015C018091120F0E94DF
:1025D000E20C2B013C01C0905E02D0905F02E090C3
:1025E0006002F090610220E030E040E05FE3C7016C
:1025F000B6010E949C5368877F831C01762F6F81F0
:10260000272F362F422D532DC501B4010E944C5166
:1026100069837A838C014B015C01809182029091E5
:1026200083028130910509F491C1029709F467C2D0
:1026300020E030E04AEA53E4C501B4010E949C5313
:10264000A70196010E94B851382F292F862F972F66
:10265000A32FB22FBC01CD0190582BED3FE049E4F0
:1026600050E40E949C5320E030E044E353E40E9495
:10267000B8512091DF0F3091E00F4091E10F509160
:10268000E20F0E944D5128960FB6F894DEBF0FBEA0
:10269000CDBFDF91CF911F910F91FF90EF90DF9011
:1026A000CF90BF90AF909F908F907F906F905F90F2
:1026B0004F903F902F900C9465120E94560B50E063
:1026C00040E030E82FEB652F742F832F922F289650
:1026D0000FB6F894DEBF0FBECDBFDF91CF911F9133
:1026E0000F91FF90EF90DF90CF90BF90AF909F90B1
:1026F0008F907F906F905F904F903F902F900895B4
:1027000086E00E94E20C4B015C0185E00E94E20C35
:102710002B013C01C0906202D0906302E090640201
:10272000F090650220E030E040E05FE3C701B601D1
:102730000E949C5368877F831C01762F6F81272F0F
:10274000362F422D532DC501B4010E944C5169838F
:102750007A838C014B015C0180918002909181020F
:102760008130910509F455C1029709F4D9C120E0DF
:1027700030E04AEA53E4C501B4010E949C53A7012A
:1027800096010E94B851382F292F862F972FA32FFB
:10279000B22FBC01CD0190582BED3FE049E450E44D
:1027A0000E949C5320E030E044E353E40E94B8517F
:1027B0002091660F3091670F4091680F5091690F1B
:1027C00060CF86E00E94E20C6B017C0120E030E0EB
:1027D00040E05FE360916202709163028091640265
:1027E000909165020E949C539B01AC01C701B60108
:1027F0000E944C511B018C012B013C0185E00E9481
:10280000E20C6B017C0120E030E040E05FE360918E
:1028100062027091630280916402909165020E944D
:102820009C539B01AC01C701B6010E944C51862EFE
:10283000972EA82EB92E20E030E0A901B101C801E1
:102840000E94B15187FD56C120E030E0A901C501C9
:10285000B4010E94B15187FD48C1A5019401C30193
:10286000B2010E94B15187FD63C082E090E0909375
:102870008102809380028091100F0E94E20C6B0114
:102880007C0120E030E040E05FE360915E02709107
:102890005F0280916002909161020E949C539B01B3
:1028A000AC01C701B6010E944C511B018C012B01E8
:1028B0003C018091120F0E94E20C6B017C0120E030
:1028C00030E040E05FE360915E0270915F028091D2
:1028D0006002909161020E949C539B01AC01C70170
:1028E000B6010E944C51862E972EA82EB92E20E0BC
:1028F00030E0A901B101C8010E94B15187FDF0C0CB
:1029000020E030E0A901C501B4010E94B15187FD6A
:10291000E2C0A5019401C301B2010E94B15187FF39
:102920000EC081E090E090938302809382023CCEBF
:1029300081E090E090938102809380029CCF82E0BE
:1029400090E090938302809382022ECE20E030E0CC
:10295000A901C8010E94B15187FD29C189819A81CD
:10296000D8018B839C83AD83BE8326E636E646E69C
:102970005FE3B885AF816B2F7A2F822D932D0E9454
:102980009C5369837A83182F092F762F6A81C80197
:10299000272F362F492F582F6B817C818D819E8167
:1029A0000E94985318160CF043CE82E090E090936A
:1029B00083028093820278856F81272F362F422DE4
:1029C000532DC301B2010E944C511B018F839B8385
:1029D0002B013C0120E030E0A9010E94B15187FDAC
:1029E000DAC0C101AF81BB81BC01CD01B981AA812F
:1029F000F8012B2F3A2F4F2F502F0E949853181663
:102A00000CF0B2C081E090E0909383028093820248
:102A10000FCE20E030E0A901C8010E94B15187FD2E
:102A2000BEC089819A81D8018B839C83AD83BE838C
:102A300026E636E646E65FE3B885AF816B2F7A2F50
:102A4000822D932D0E949C5369837A83182F092F1E
:102A5000762F6A81C801272F362F492F582F6B8177
:102A60007C818D819E810E94985318160CF07FCE38
:102A700082E090E0909381028093800278856F815C
:102A8000272F362F422D532DC301B2010E944C51E6
:102A90001B018F839B832B013C0120E030E0A901C7
:102AA0000E94B15187FD73C0C101AF81BB81BC01E0
:102AB000CD01B981AA81F8012B2F3A2F4F2F502F2A
:102AC0000E9498531816ECF581E090E090938102F3
:102AD000809380024CCEB7FAB094B7F8B09419CF77
:102AE00077FA709477F870940BCFB7FAB094B7F880
:102AF000B094B3CE77FA709477F87094A5CE26E6AA
:102B000036E646E65FE3B885AF816B2F7A2F822DDC
:102B1000932D0E949C5369837A83182F092F4BCFE2
:102B200026E636E646E65FE3B885AF816B2F7A2F5F
:102B3000822D932D0E949C5369837A83182F092F2D
:102B40009DCF20E030E04AEA53E4C301B2010E9485
:102B50009C53A70196010E94B85120E030E044E365
:102B600053E40E944D510FCE20E030E04AEA53E496
:102B7000C301B2010E949C53A70196010E94B85163
:102B800020E030E044E353E40E944D515DCDC301A9
:102B9000B20190588ECFC301B201905827CFD50112
:102BA000C401B0588B839C83AD83BE8341CFD501D4
:102BB000C401B0588B839C83AD83BE83D6CE209155
:102BC0000D0E2230F9F0233019F1019729E7289FE3
:102BD000F001299FF00D1124E65DF04F82E0808323
:102BE0004183528363837483128A118A8DE491E056
:102BF000A0E0B0E0848F958FA68FB78F20E030E003
:102C0000C90108958230910501F72FEF3FEFF8CF0A
:102C100083309105D1F6F9CF2F923F924F925F9278
:102C20006F927F928F929F92AF92BF92CF92DF92DC
:102C3000EF92FF920F931F93CF93DF93CDB7DEB741
:102C40002A970FB6F894DEBF0FBECDBF5C012A01F4
:102C50003B01680179018C010150110989E7809FCE
:102C6000F001819FF00D1124E65DF04F8CE29CEEA7
:102C7000AAECB3E485839683A783B0871186128676
:102C80001386148690900D0E22E0921609F4F3C07C
:102C900083E0981609F4F7C020E030E0A901C701ED
:102CA000B6010E94B151882309F4B9C089E7809F19
:102CB000D001819FB00D1124A65DB04FBA87A987BE
:102CC000D6968D919D910D90BC91A02D89839A836C
:102CD000AB83BC839C01AD01C301B2010E944C5186
:102CE000362E872E8C0120E030E0A901912F0E9422
:102CF000B15187FD97C023EC38EB42E35EE3632DCF
:102D0000782D802F912F0E94B15187FD98C020E02F
:102D100030E0A901C701B6010E94B15187FDC3C0CF
:102D2000A7019601632D782D802F912F0E94B85115
:102D300020E030E04AE754E40E949C53262E972E70
:102D40005C0120E030E0A901632D782D802F912FC8
:102D50000E94985318160CF0D4C0A985BA85D29653
:102D6000CD92DD92ED92FC92D59789819A81AB81CB
:102D7000BC81E985FA8581839283A383B483158618
:102D800016861786108A20E030E040E751E4622D75
:102D9000792D8A2D9B2D0E94B8515B018C016B010E
:102DA0007C0120E030E0A9010E94B15187FDA3C061
:102DB000B501C8010E942052CB01AA2797FDA0951A
:102DC000BA2FE985FA85848F958FA68FB78F128ADF
:102DD000118A468A578A608E718E81E090E0938FC7
:102DE000828F83E0808320E030E0C9012A960FB60D
:102DF000F894DEBF0FBECDBFDF91CF911F910F9131
:102E0000FF90EF90DF90CF90BF90AF909F908F900A
:102E10007F906F905F904F903F902F90089520E0AB
:102E200030E0E3CF23EC38EB42E35EEB632D782D0B
:102E3000802F912F0E94985318160CF068CFB2E0A3
:102E40009B1661F1F3E09F1621F182E0A985BA8516
:102E50008C93FD014182528263827482128A118AAC
:102E60008DE491E0A0E0B0E0848F958FA68FB78FBE
:102E700020E030E0BACF32E0A316B10409F00CCF65
:102E80002FEF3FEFB2CF93E0A916B10409F004CFC2
:102E9000F7CF23E0A216B104C1F6F2CFE2E0AE16FE
:102EA000B10499F6EDCFD701C601B0588D839E834A
:102EB000AF83B8879C01AD01632D782D802F912FB2
:102EC0000E94B85120E030E04AE754E40E949C534D
:102ED000262E972E5C0120E030E0A901632D782D8D
:102EE000802F912F0E94985318167CF4CD80DE809D
:102EF000EF80F88432CFC701B60190580E9420526B
:102F00005BCFF7FAF094F7F8F094E985FA85C2AA56
:102F1000D3AAE4AAF5AA29CF2F923F924F925F92AB
:102F20006F927F928F929F92AF92BF92CF92DF92D9
:102F3000EF92FF920F931F93CF93DF93CDB7DEB73E
:102F40002A970FB6F894DEBF0FBECDBF5C012A01F1
:102F50003B01680179018C010150110989E7809FCB
:102F6000F001819FF00D1124E65DF04F8CE29CEEA4
:102F7000AAECB3E485839683A783B0871186128673
:102F80001386148690900D0E22E0921609F40BC160
:102F900083E0981609F40FC120E030E0A901C701D1
:102FA000B6010E94B151882309F4D1C089E7809FFE
:102FB000D001819FB00D1124A65DB04FBA87A987BB
:102FC000D6968D919D910D90BC91A02D89839A8369
:102FD000AB83BC83E985FA8562AD73AD882777FD45
:102FE0008095982F0E9453522BED3FE049EC50E41E
:102FF0000E949C539B01AC0169817A818B819C81E9
:103000000E944D519B01AC01C301B2010E944C5181
:10301000362E872E8C0120E030E0A901912F0E94EE
:10302000B15187FD97C023EC38EB42E35EE3632D9B
:10303000782D802F912F0E94B15187FD98C020E0FC
:1030400030E0A901C701B6010E94B15187FDC3C09C
:10305000A7019601632D782D802F912F0E94B851E2
:1030600020E030E04AE754E40E949C53262E972E3D
:103070005C0120E030E0A901632D782D802F912F95
:103080000E94985318160CF0D4C0A985BA85D29620
:10309000CD92DD92ED92FC92D59789819A81AB8198
:1030A000BC81E985FA8581839283A383B4831586E5
:1030B00016861786108A20E030E040E751E4622D42
:1030C000792D8A2D9B2D0E94B8515B018C016B01DB
:1030D0007C0120E030E0A9010E94B15187FDA3C02E
:1030E000B501C8010E942052CB01AA2797FDA095E7
:1030F000BA2FE985FA85848F958FA68FB78F128AAC
:10310000118A468A578A608E718E81E090E0938F93
:10311000828F83E0808320E030E0C9012A960FB6D9
:10312000F894DEBF0FBECDBFDF91CF911F910F91FD
:10313000FF90EF90DF90CF90BF90AF909F908F90D7
:103140007F906F905F904F903F902F90089520E078
:1031500030E0E3CF23EC38EB42E35EEB632D782DD8
:10316000802F912F0E94985318160CF068CFF2E030
:103170009F1661F133E0931621F182E0A985BA85AB
:103180008C93FD014182528263827482128A118A79
:103190008DE491E0A0E0B0E0848F958FA68FB78F8B
:1031A00020E030E0BACF32E0A316B10409F0F4CE4B
:1031B0002FEF3FEFB2CF93E0A916B10409F0ECCEA8
:1031C000F7CF83E0A816B104C1F6F2CF22E0A21631
:1031D000B10499F6EDCFD701C601B0588D839E8317
:1031E000AF83B8879C01AD01632D782D802F912F7F
:1031F0000E94B85120E030E04AE754E40E949C531A
:10320000262E972E5C0120E030E0A901632D782D59
:10321000802F912F0E94985318167CF4CD80DE8069
:10322000EF80F88432CFC701B60190580E94205237
:103230005BCFF7FAF094F7F8F094E985FA85C2AA23
:10324000D3AAE4AAF5AA29CF2F923F924F925F9278
:103250006F927F928F929F92AF92BF92CF92DF92A6
:10326000EF92FF920F931F93CF93DF93CDB7DEB70B
:103270002A970FB6F894DEBF0FBECDBF1C012A01FE
:103280003B0148015901019729E7289FF001299F37
:10329000F00D1124E65DF04F4CE25CEE6AEC73E455
:1032A000458356836783708711861286138614863A
:1032B00010910D0E123009F4DEC0133009F4E3C092
:1032C00029E7289FD001299FB00D1124A65DB04F9A
:1032D000BA87A987D6968D919D910D90BC91A02D0E
:1032E00089839A83AB83BC839C01AD01C301B20186
:1032F0000E944C510E9465126B017C0120E030E07D
:10330000A9010E94B15187FD8FC023EC38EB42E345
:103310005EE3C701B6010E94B15187FD90C020E075
:1033200030E0A901C501B4010E94B15187FDB1C0CF
:10333000A5019401C701B6010E94B85120E030E018
:103340004AE754E40E949C53262E072F182F392E4B
:1033500020E030E0A901C701B6010E949853181679
:103360000CF0C9C0A985BA85D2968D929D92AD9276
:10337000BC92D59789819A81AB81BC81E985FA8518
:1033800081839283A383B483158616861786108A59
:1033900020E030E040E751E4622D702F812F932D23
:1033A0000E94B8515B018C016B017C0120E030E090
:1033B000A9010E94B15187FD97C0B501C8010E94C3
:1033C0002052CB01AA2797FDA095BA2FE985FA854F
:1033D000848F958FA68FB78F128A118A468A578A53
:1033E000608E718E81E090E0938F828F83E0808386
:1033F00020E030E0C9012A960FB6F894DEBF0FBE78
:10340000CDBFDF91CF911F910F91FF90EF90DF9093
:10341000CF90BF90AF909F908F907F906F905F9074
:103420004F903F902F90089523EC38EB42E35EEBF2
:10343000C701B6010E94985318160CF070CF1230D5
:1034400009F44CC0133009F461C082E0A985BA8543
:103450008C93FD014182528263827482128A118AA6
:103460008DE491E0A0E0B0E0848F958FA68FB78FB8
:1034700020E030E0BFCF22E02216310409F020CF57
:103480002FEF3FEFB7CF43E02416310409F018CFF8
:10349000F7CFD501C401B0588D839E83AF83B88721
:1034A0009C01AD01C701B6010E94B85120E030E097
:1034B0004AE754E40E949C53262E072F182F392EDA
:1034C00020E030E0A901C701B6010E949853181608
:1034D000B4F48D809E80AF80B88444CFB2E02B16C8
:1034E000310409F0B2CFCCCFC701B60190580E9489
:1034F0002052CB0167CFB7FAB094B7F8B094E98502
:10350000FA8582AA93AAA4AAB5AA34CFE3E02E161C
:10351000310409F09ACFB4CF20910D0E223049F139
:10352000233091F1019729E7289FF001299FF00DA1
:103530001124E65DF04F2081223001F1233021F08B
:10354000213011F080E0089529E7289FF001299F9C
:10355000F00D1124E65DF04F20E030E0A90162A9F2
:1035600073A984A995A90E94985318168CF481E038
:10357000089582309105B1F68FEF0895818992897F
:10358000892BA9F383E008958330910559F6F4CF90
:1035900082E008956235A9F0633581F0663459F010
:1035A000A098A19820E1829FC001112490938900E6
:1035B000809388000895A09AA198F4CFA09AA19A28
:1035C000F1CFA098A19AEECF6235A9F0633581F0D2
:1035D000663459F0A298A59820E1829FC001112479
:1035E00090938B0080938A000895A29AA598F4CFB7
:1035F000A29AA59AF1CFA298A59AEECF0F931F9306
:103600008A019B0177FD28C0F8010F3F110519F0D1
:1036100010F0EFEFF0E08130910591F074F0049735
:1036200064F477FD33C0452B462B472BE9F066E465
:103630008E2F1F910F910C94E41A1F910F910895F2
:1036400077FD1EC0452B462B472BA1F066E48E2F3D
:103650001F910F910C94CA1A002711279801041B7F
:10366000150B260B370BD0CF6EE48E2F1F910F91C9
:103670000C94E41A6EE48E2F1F910F910C94CA1AC9
:1036800062E58E2F1F910F910C94CA1A62E58E2F5E
:103690001F910F910C94E41ACF93DF939C0121505A
:1036A000310949E7429FE001439FD00D1124C65DD7
:1036B000D04F1EA61FA618AA19AA4D89413061F144
:1036C0004230E1F0442309F471C0433011F54881E0
:1036D000423009F463C0433009F470C049E7429FA7
:1036E000F001439FF00D1124E65DF04F46A957A964
:1036F00060AD71ADDF91CF910C94DF1520E030E02B
:10370000A9016EA17FA188A599A50E94B15181113F
:103710002AC0DF91CF91089520E030E0A9016EA189
:103720007FA188A599A50E94B151882391F383E0D8
:1037300088838FEF9FEFDC018C8F9D8FAE8FBF8FC3
:103740008EA99FA9A8ADB9AD89839A83AB83BC83A9
:103750008EA19FA1A8A5B9A58AAB9BABACABBDAB15
:10376000DF91CF91089583E088838FEF9FEFDC0195
:103770008C8F9D8FAE8FBF8F8EA99FA9A8ADB9AD3D
:1037800089839A83AB83BC838EA19FA1A8A5B9A589
:10379000B0588AAB9BABACABBDABBBCF49895A89A8
:1037A000452B09F49BCF1C8A1B8AB3CF188240E0BB
:1037B00050E0BA01DF91CF910C94FE1A49815A81F1
:1037C0006B817C81DF91CF910C94DF152F923F921A
:1037D0004F925F926F927F928F929F92AF92BF9221
:1037E000CF92DF92EF92FF920F931F93CF93DF93CD
:1037F000CDB7DEB7AC970FB6F894DEBF0FBECDBF26
:103800008CE59FE09E838D837AE2472E7FE0572EE2
:10381000E0E76E2EE2E07E2EACE4BFE0B88BAF872F
:10382000EAE6FFE0F887EF83F0E62F2EFFE03F2E79
:103830008AE49FE09E878D87AFE3BFE0BC87AB87BC
:10384000E7E9FFE0FC8BEB8B8FE89FE09E8B8D8B95
:10385000A5E7BFE0BA87A987E8E5FFE0FA8BE98B27
:1038600084E69FE09C838B83A2E0B0E0BA83A983C7
:10387000812C912C830138A62FA212012401BFEFC5
:103880004B1A5B0A0E940F4E80910D0E823009F494
:10389000E9C1D1011596CD90DD90ED90FC9018977F
:1038A00021E231E348E954E4C701B6010E94B15175
:1038B00087FF0DC02FE33EEC42E451E4C701B6019F
:1038C0000E944D51F1016583768387839087D101F2
:1038D0001996CD90DD90ED90FC901C9720E537E790
:1038E00046ED5DE3C701B6010E94B15187FF0DC0EF
:1038F0002FE132E449E85AE3C701B6010E944D5175
:10390000F1016187728783879487C2010E94B11297
:103910003B015C01862F972DAA2DBB2DEFA1F8A5A9
:1039200080839183A283B383188F0F8B8F011DC077
:1039300080916E0290916F020B977CF5C2010E94FC
:10394000B1123B015C01862F972DAA2DBB2DF801EA
:1039500080839183A283B38380916E0290916F02E2
:10396000019690936F0280936E02AF89B88DCD90CF
:10397000DD90ED90FC90A7019601662D772D8A2DA4
:103980009B2D0E944C510E94651223EC38EB42E3C0
:103990005EE30E94985318165CF2C8010F89188DD7
:1039A00098A78FA310926F0210926E0220E030E071
:1039B00040E250EC662D772D8A2D9B2D0E94B1514F
:1039C00087FF0EC120E030E040E250E4C701B601BD
:1039D0000E94985318160CF003C1EB81FC81808182
:1039E0009181019691838083AFA1B8A56C901196C7
:1039F0007C9011971296AC9012971396BC90862DDE
:103A0000972DAA2DBB2DF80180839183A283B383C8
:103A1000D1018C91833009F459C308F0FEC0813084
:103A200009F43CC308F067C0F101848D958DA68D23
:103A3000B78D0097A105B10509F4A6C40CF4F4C034
:103A40000197A109B109F101848F958FA68FB78FD6
:103A5000E981FA81349709F4ECC0E981FA81319661
:103A6000FA83E9838D819E8187589F4F9E838D8342
:103A700099E7290E311C0C5F1F4FAF85B889A758F5
:103A8000BF4FB88BAF87EF81F885E758FF4FF887B6
:103A9000EF838FA198A587589F4F98A78FA3AD85D7
:103AA000BE85A758BF4FBE87AD87EB85FC85E7581D
:103AB000FF4FFC87EB878B899C8987589F4F9C8B96
:103AC0008B8BAD89BE89A758BF4FBE8BAD8BE98567
:103AD000FA85E758FF4FFA87E98789899A898758D5
:103AE0009F4F9A8B898BAB81BC81A758BF4FBC83FA
:103AF000AB834201C3CEF101848D958DA68DB78D28
:103B00000097A105B10509F493C19CF00197A109A3
:103B1000B109F101848F958FA68FB78FAFA1B8A59A
:103B20006C9011967C9011971296AC901297139608
:103B3000BC90262D372D4A2D5B2DF10161817281BC
:103B4000838194810E944C510E9465126B017C011B
:103B500020E030E0A9010E94B15187FDEBC323ECC6
:103B600038EB42EB5DE3C701B6010E94B15187FD1E
:103B7000ECC3D10151968D919C915297892B09F4F8
:103B800065C120E030E0A901C701B6010E94B15132
:103B900087FDDEC4C701B601209168023091690239
:103BA00040916A0250916B020E94985318160CF0D3
:103BB0004DC1EF81F88520812F5F208330E0809117
:103BC0006602909167028217930708F042C1D10103
:103BD0001C9240E050E0BA01C2010E94FE1A24C0CB
:103BE00020E030E040E250E4662D772D8A2D9B2DB9
:103BF0000E94985318160CF002CF20E030E040E20B
:103C000050ECC701B6010E94B15187FFF8CEEB819D
:103C1000FC81808191810197E5CE853009F482C1D4
:103C200038F1863009F453C1E981FA81349709F0FB
:103C300014CFAC960FB6F894DEBF0FBECDBFDF91A8
:103C4000CF911F910F91FF90EF90DF90CF90BF9099
:103C5000AF909F908F907F906F905F904F903F902C
:103C60002F900895E2E04E16510409F012CEF5CEE1
:103C700060915102709152028091530290915402CE
:103C80000E94515220E030E04AE754E40E94B851CB
:103C90006F8B7B8F8F8F98A3F101EF5BFF4F60815C
:103CA000772767FD7095872F972F0E94535220E04A
:103CB00030E040E05CE30E949C5320E030E040EACA
:103CC00050E40E949C5320E030E040E05FE30E941B
:103CD0009C537B01D82EC92EF9E7F89D3001F99D40
:103CE000700C112481E79FE0680E791EAA24A3942A
:103CF000B12C3CA22BA21EA30DA35AA649A6470194
:103D00007CA66BA6B501882777FD8095982F0E9429
:103D100053522BED3FE049EC50E40E949C53BF8985
:103D2000AB8DEF8D18A12B2F3A2F4E2F512F0E94C4
:103D30009C5320E030E040E251E40E94B8517B0106
:103D40008C017F2D802F912F0E94FF531B012C018E
:103D5000F30135976081772767FD7095872F972F3F
:103D60000E94535220E030E040E05CE30E949C530C
:103D700020E030E040EA50E40E949C53A20191010F
:103D80000E949C53F601282D392D4F2F5C2D0E9447
:103D90004D511B014C019FEF691A790A6E2D7F2D41
:103DA000802F912F0E94B5516B017C01ABA5BCA562
:103DB0006C91772767FD7095872F972F0E9453523C
:103DC00020E030E040E05CE30E949C5320E030E0E3
:103DD00040EA50E40E949C53A70196010E949C5324
:103DE000222D332D482D592D0E944D514B01D82E97
:103DF000C92EBFEFAB1ABB0AE5E0AE16B10409F05D
:103E00007FCF2BA03CA00DA11EA149A45AA47B01E9
:103E10009601862F9F2DA32FB22FF10181839283CC
:103E2000A383B483128A118A8FEF9FEFDC0172CED5
:103E300081899289892B09F49FC28FEF9FEFDC0162
:103E4000F101848F958FA68FB78FEECEEF81F88525
:103E50001082D10115962D913D914D915C9118974D
:103E6000C701B6010E949C534B015C01F1012585FD
:103E700036854785508961857285838594850E9442
:103E80009C539B01AC01C501B4010E944D510E949D
:103E90002052AB01BC01C2010E94FE1A2FE832EC95
:103EA00045E75CE3C701B6010E949C539B01AC014E
:103EB000D1011D966D917D918D919C9150970E949D
:103EC0004D51F101658776878787908BADCEA985A7
:103ED000BA852C91213009F469C2223009F40BC251
:103EE0002111A2CE8091510290915202A0915302D1
:103EF000B0915402EB89FC894081518162817381C8
:103F000084179507A607B70708F4AAC3F101E45B75
:103F1000FF4F8081882309F416C3E2E0A985BA85A2
:103F2000EC9382CEF101848D958DA68DB78D00978F
:103F3000A105B10509F4D5C1181619061A061B0604
:103F400044F40197A109B109F101848F958FA68FDF
:103F5000B78F2FE832EC45E75CE3AD81BE816D9110
:103F60007D918D919C910E949C53F1012181328120
:103F7000438154810E944D51C62ED72EE82EF92E32
:103F8000D1011196CD92DD92ED92FC921497EFA1A2
:103F9000F8A520813181428153810E944C510E94B9
:103FA00065126B017C01D10115962D913D914D91CA
:103FB0005C9118970E949C534B015C01F10125858F
:103FC00036854785508961857285838594850E94F1
:103FD0009C539B01AC01C501B4010E944D510E944C
:103FE0002052AB01BC01C2010E94FE1A2FE832EC44
:103FF00045E75CE3C701B6010E949C539B01AC01FD
:10400000D1011D966D917D918D919C9150970E944B
:104010004D51F101658776878787908B2FE832ECC9
:1040200045E75CE362A573A584A595A50E949C5312
:10403000AD81BE812D913D914D915C910E944D517C
:104040006B017C0122E93AE046E850E47D2D9F2D8A
:104050000E94985318160CF439C18C2D9D2DAE2D4D
:10406000BF2DED81FE8180839183A283B38322E9FA
:104070003AE046E850EC6C2D7D2D8E2D9F2D0E9450
:10408000B15187FFD1CD82E99AE0A6E8B0ECED818D
:10409000FE8180839183A283B383C6CDAB85BC852B
:1040A0008C91882309F40FC1813009F442C2EF8555
:1040B000F889408150E0519541955109662757FD97
:1040C0006095762FC2010E94FE1AAECDF101848D5B
:1040D000958DA68DB78D0097A105B10509F4B5C0E2
:1040E00044F00197A109B109F101848F958FA68F42
:1040F000B78FF101EF59FF4F80809180A280B3808C
:1041000020E030E0A901C501B4010E94B15188232B
:1041100009F4E1C1A989BA898D919D910D90BC9155
:10412000A02D8F8B988FA98FBA8F20E030E0A90146
:10413000BC01CD010E94B15187FDF1C28F89988DDC
:10414000A98DBA8D8B8F9C8FAD8FBE8FAD81BE81B7
:10415000CD90DD90ED90FC9020E030E0A901C7010A
:10416000B6010E94B151A701960187FDD6C26B8DA1
:104170007C8D8D8D9E8D0E94985318160CF046C232
:10418000E989FA89C082D182E282F3822FE832EC97
:1041900045E75CE3C701B6010E949C53F101218110
:1041A0003281438154810E944D51C62ED72EE82E74
:1041B000F92ED1011196CD92DD92ED92FC921497D9
:1041C000AFA1B8A52D913D914D915C910E944C51AC
:1041D0000E9465126B017C0120E030E0A9010E9481
:1041E000B1514601570187FD9FC1609168027091EE
:1041F000690280916A0290916B029B01AC010E945E
:104200004D519B01AC01C501B4010E949853EF814F
:10421000F88518160CF086C120812F5F208330E0CE
:1042200080916602909167028217930708F0FCCC98
:10423000D1011C925B961C921E925A9740E050E06E
:10424000BA01C2010E94FE1AEFCC81E090E0928B8D
:10425000818BD101158616861786108AED85FE851D
:1042600080819181892B09F455C1E2E0D101EC9361
:104270005A968D919C915B97892B69F056968D91FA
:104280009D910D90BC91A02DF10181839283A38318
:10429000B483138E128EEFEFFFEFAD85BE85ED93E5
:1042A000FC93D10153968D919C915497892B09F4DD
:1042B000C4CD82E490E0A0E0B0E0F101848F958F5E
:1042C000A68FB78FB1CCF1011082AECC82E99AE013
:1042D000A6E8B0E4ED81FE8180839183A283B3835D
:1042E000A3CC8FEF9FEFDC01848F958FA68FB78FC4
:1042F00023E0208321CE8091510290915202A0911F
:104300005302B0915402F101EB58FF4F40815181AB
:104310006281738184179507A607B70708F41CC14B
:10432000F10120838FEF9FEFDC01848F958FA68FA3
:10433000B78F7ACC23EC38EB42EB5DEBC701B601CB
:104340000E94985318160CF014CCE1E0F0E0D10173
:104350005296FC93EE93519753968D919C9154975E
:10436000892B09F035CC8FEF9FEFDC01F101848FB1
:10437000958FA68FB78FFDCB108240E050E0BA0139
:10438000C2010E94FE1A50CCAD85BE858C91EB8592
:10439000FC858083C2010E944C1B8FEF9FEFDC01E4
:1043A000F101848F958FA68FB78F3ECC80915102FB
:1043B00090915202A0915302B0915402F101EF5832
:1043C000FF4F408151816281738184179507A60751
:1043D000B70708F0A2CD609151027091520280910E
:1043E0005302909154027101F1E5EF0EF11CAB897B
:1043F000BC898D909D90AD90BC90681979098A090F
:104400009B090E94515220E030E04AE754E40E94A8
:10441000B851ED89FE8920813181428153810E940A
:104420009C53D7012D913D914D915C910E944D512E
:10443000C62ED72EE82EF92EF101C182D282E38258
:10444000F482AFA1B8A52D913D914D915C910E9450
:104450004C510E9465126B017C01F101258136816E
:10446000478150850E949C534B015C01D1011D96F0
:104470002D913D914D915C91509719966D917D9143
:104480008D919C911C970E949C539B01AC01C5018E
:10449000B4010E944D510E942052AB01BC01C201E7
:1044A0000E94FE1A2FE832EC45E75CE3C701B60133
:1044B0000E949C539B01AC01F1016585768587853F
:1044C00090890E944D51D1011D966D937D938D93DE
:1044D0009C935097A9CB2FE832EC45E75CE3ED8144
:1044E000FE8160817181828193810E949C53D10100
:1044F00011962D913D914D915C9114970E944D51D3
:10450000C62ED72EE82EF92EF101C182D282E38287
:10451000F48256CE1C9240E050E0BA01C2010E94E3
:10452000FE1AB9CE108295CCB7FAB094B7F8B09411
:104530005CCEAF85B8894C9150E060E070E0C2017C
:104540000E94FE1A71CBE1E0A985BA85EC936CCB91
:10455000C701B601905820CB609151027091520270
:104560008091530290915402F101EF58FF4FC080A7
:10457000D180E280F3806C197D098E099F090E9429
:10458000515220E030E04AE754E40E94B851B62E80
:10459000A72E982E892EF101E35AFF4F20813181F9
:1045A00042815381D501F4016B2F7A2F8F2F9E2FDB
:1045B0000E949C53D501F4012B2F3A2F4F2F5E2FD1
:1045C0000E949C5320E030E040E05FE30E949C5357
:1045D0006B017C01AD89BE892D913D914D915C911E
:1045E000D501F4016B2F7A2F8F2F9E2F0E949C53A1
:1045F0009B01AC01C701B6010E944D51F101EB5A7C
:10460000FF4F208131814281538110CFC701B60114
:104610000E940A106B017C012FE832EC45E75CE355
:10462000C501B4010E949C53A70196010E949C53AE
:104630009B01AC016F89788D898D9A8D0E944D51B7
:10464000C62ED72EE82EF92E462F572F682F792FFA
:10465000A989BA894D935D936D937C93139796CDF9
:1046600060915102709152028091530290915402D4
:10467000F101E759FF4FC080D180E280F3806C19CF
:104680007D098E099F090E94515220E030E04AE7DF
:1046900054E40E94B851F62EE72ED82EC92EF1010F
:1046A000E75AFF4F2081318142815381D701F601C2
:1046B0006B2F7A2F8F2F9E2F0E949C53D701F601CC
:1046C0002B2F3A2F4F2F5E2F0E949C5320E030E07B
:1046D00040E05FE30E949C53F101E35BFF4F2081C8
:1046E0003181428153810E944D51C62ED72EE82E32
:1046F000F92ED1011196CD92DD92ED92FC92149794
:10470000EFA1F8A520813181428153810E944C5153
:104710000E9465126B017C019CCB505828CD8F897B
:10472000988DA98DBA8DB0588B8F9C8FAD8FBE8F11
:104730000DCD10929F0210922A0F1092A30F10928B
:104740001C106EE480E00E94CA1A6EE480E00C94B3
:10475000E41A019729E7289FF001299FF00D112401
:10476000E65DF04F8CE29CEEAAECB3E48583968381
:10477000A783B087118612861386148608957F92C8
:104780008F929F92AF92BF92CF92DF92EF92FF9261
:104790000F931F93CF93DF9300D000D0CDB7DEB738
:1047A00080E190E00E946210813A09F444C0A6E6DC
:1047B000CA2EAFE0DA2EE12CF12C01E010E0C801A6
:1047C0000E94B112DC01CB01B05889839A83AB837C
:1047D000BC83F60180839183A283B38344E050E0DD
:1047E000BE016F5F7F4FC7010E9473100F5F1F4FA5
:1047F000F9E7CF0ED11C84E0E80EF11C043011055E
:10480000F1F661EA80E190E00E94341021E030E0AE
:10481000C9010F900F900F900F90DF91CF911F91D2
:104820000F91FF90EF90DF90CF90BF90AF909F904F
:104830008F907F900895B6E6AB2EBFE0BB2E812C03
:10484000912C00E010E089E7782E709EB001719EF7
:10485000700D11246A59704F44E050E0C4010E9469
:104860009810F501C080D180E280F38020E030E034
:1048700040E450E4C701B6010E94B15187FF0AC06D
:1048800020E030E040E450ECC701B6010E949853AC
:1048900018162CF0F50110821182128213820F5F1C
:1048A0001F4FF4E08F0E911C89E7A80EB11C043055
:1048B000110559F620E030E0ABCF1092660F109250
:1048C000670F1092680F1092690F1092DF0F10920D
:1048D000E00F1092E10F1092E20F10925810109218
:1048E000591010925A1010925B1060EA80E190E02B
:1048F0000E9434100E94BF2380E090E008956091F0
:104900000D0EEAE2FFE081E090E020E030E062306E
:1049100099F06330A9F04081442321F04189528904
:10492000452BA9F08330910571F02F5F3F4F019621
:10493000E758FF4F623069F72130310561F7F5CF55
:104940002230310541F720E030E0C901089521E02F
:1049500030E0FBCF2F923F924F925F926F927F9207
:104960008F929F92AF92BF92CF92DF92EF92FF927F
:104970000F931F93CF93DF93CDB7DEB76C970FB62E
:10498000F894DEBF0FBECDBF3C011A012B01098395
:104990001A832B833C8320E030E0A901C201B101DE
:1049A0000E94B15187FDEBC320E030E0A90169818D
:1049B0007A818B819C810E94B15187FDD6C320E012
:1049C00030E0A901C701B6010E94B15187FDC8C3FB
:1049D000C30101979A87898789E7A985BA858A9F44
:1049E00080018B9F100D1124065D104FF80126A940
:1049F00037A940AD51ADC501B4010E944C51862E7E
:104A0000B72E982EA92E862F9B2DA92DBA2D8D83DA
:104A10009E83AF83B887A2019101C701B6010E94AE
:104A2000B8516B877C878D879E8729813A814B811E
:104A30005C81C701B6010E94B8516D8B7E8B8F8B54
:104A4000988FD80152961C921E92519720E030E028
:104A5000A901682D7B2D892D9A2D0E94B15187FDCA
:104A60008FC17B856C859D858E85272F362F492F9D
:104A7000582FC701B6010E949C5320E030E040E06F
:104A80005FE30E949C536F87788B682E998B7D899A
:104A90006E899F89888D272F362F492F582FC70160
:104AA000B6010E949C5320E030E040E05FE30E94AA
:104AB0009C536A8B772E8B8B9C8B762F982F8C89AF
:104AC000272F372D492F582FBF85A889E9896B2FAC
:104AD0007A2F862D9E2F0E944D519B01AC01682D8F
:104AE0007B2D892D9A2D0E94B15187FF98C1882D69
:104AF0009B2DA92DBA2D898F9A8FAB8FBC8FA201C8
:104B00009101C201B1010E944D519B01AC0160E0D5
:104B100070E080E89FE30E94B8514B015C0129815D
:104B20003A814B815C81CA01B9010E944D519B01C0
:104B3000AC0160E070E080E89FE30E94B8519B0107
:104B4000AC01C501B4010E944D519B01AC01698DBE
:104B50007A8D8B8D9C8D0E94B8510E9409546B01F7
:104B60007C01A20191010E94B851B62EA72E982E69
:104B7000892E29813A814B815C81C701B6010E944F
:104B8000B851762E672E8B879C8789E7A985BA85D1
:104B90008A9F80018B9F100D1124065D104FF80134
:104BA00012AA13AA14AA15AAE55BFF4F10826D8101
:104BB0007E818F8198850E940A1098012B593F4F62
:104BC0003A872987A70196010E949C53A985BA8537
:104BD0006D937D938D939C9313976D817E818F81CF
:104BE00098850E940A109B01AC017801B9E5EB0E93
:104BF000F11CC201B1010E949C53F70160837183D3
:104C0000828393836D817E818F8198850E940A10B3
:104C10009B01AC017801FDE5EF0EF11C69817A8101
:104C20008B819C810E949C53DC01CB01B058F70121
:104C300080839183A283B38386E0D8018C938FEF26
:104C40009FEFDC01F801848F958FA68FB78FE45B0F
:104C5000FF4F81E08083F80186A997A9A0ADB1AD8F
:104C600081839283A383B483E35BFF4F808391832B
:104C7000A283B3838091510290915202A09153027A
:104C8000B0915402F801E759FF4F80839183A283CA
:104C9000B38320E030E04AE754E4D501F4016B2F00
:104CA0007A2F8F2F9E2F0E949C535B016C01609185
:104CB00051027091520280915302909154027801F6
:104CC000FDE6EF0EF11C0E9451529B01AC016A2DD2
:104CD0007B2D8C2D9D2D0E944D510E942552D70178
:104CE0006D937D938D939C931397209051023090F8
:104CF000520240905302509054020B581F4F20E034
:104D000030E04AE754E4D301FB85EC856B2F7A2F22
:104D10008F2F9E2F0E949C539B01AC016A2D7B2DEF
:104D20008C2D9D2D0E944D516B017C01C201B10162
:104D30000E9451529B01AC01C701B6010E944D5126
:104D40000E942552F80160837183828393836C965D
:104D50000FB6F894DEBF0FBECDBFDF91CF911F918C
:104D60000F91FF90EF90DF90CF90BF90AF909F900A
:104D70008F907F906F905F904F903F902F9008950D
:104D80006D817E818F8198859058698F7A8F8B8F06
:104D90009C8F7B856C859D858E85272F362F492F8F
:104DA000582FC701B6010E949C5320E030E040E03C
:104DB0005FE30E949C536F87788B682E998B7D8967
:104DC0006E899F89888D272F362F492F582FC7012D
:104DD000B6010E949C5320E030E040E05FE30E9477
:104DE0009C536A8B772E8B8B9C8B762F982F8C897C
:104DF000272F372D492F582FBF85A889E9896B2F79
:104E00007A2F862D9E2F0E944D519B01AC01698DFA
:104E10007A8D8B8D9C8D0E94B15187FD70CE89E774
:104E200029853A85829F5001839FB00C11246AE244
:104E30007FE0A60EB71ED501D2961D921D921D923F
:104E40001C92D597F501E55BFF4F10826D817E8145
:104E50008F8198850E940A109B01AC0185010B5936
:104E60001F4FC701B6010E949C53F80160837183F4
:104E7000828393836D817E818F8198850E940A1041
:104E80009B01AC018501075A1F4FC201B1010E946D
:104E90009C53D8016D937D938D939C9313976D8153
:104EA0007E818F8198850E940A109B01AC0185014B
:104EB000035A1F4F69817A818B819C810E949C5388
:104EC000DC01CB01B058F80180839183A283B383C6
:104ED00086E0D5018C938FEF9FEFDC01F501848F85
:104EE000958FA68FB78FE45BFF4F1082F50186A9DF
:104EF00097A9A0ADB1AD81839283A383B4838501CB
:104F0000035B1F4FF80180839183A283B3836D817C
:104F10007E818F8198850E940A109B01AC01F1E58A
:104F2000AF0EB11CC201B1010E949C53BB85AC8580
:104F3000FD85EE852B2F3A2F4F2F5E2F0E949C531D
:104F4000BB85AC85FD85EE852B2F3A2F4F2F5E2F2D
:104F50000E949C5320E030E040E05FE30E949C53BD
:104F6000D8012D913D914D915C910E944D51F501DB
:104F7000608371838283938320E030E0A9016D8197
:104F80007E818F8198850E94B15187FDFDC06D8122
:104F90007E818F819885BF85A889E9892B2F3A2F3B
:104FA000462D5E2F0E944C51BA89FB89EC892B2F2C
:104FB000372D4F2F5E2F0E944C515B018C01CB018E
:104FC000D80189839A83AB83BC8320E030E0A901B8
:104FD000B501C8010E94B15187FDDCC0C501D801EF
:104FE0004C015D016D817E818F8198850E940A1040
:104FF0009B01AC0189E769857A85869F8001879F3F
:10500000100D1124065D104F380175E5670E711CF7
:10501000C501B4010E949C53F801EF5AFF4F208153
:105020003181428153810E944D51D3016D937D9313
:105030008D939C9313978091510290915202A0916D
:105040005302B0915402F801E759FF4F80839183D6
:10505000A283B38320E030E04AE754E4BB85AC850B
:10506000FD85EE856B2F7A2F8F2F9E2F0E949C53EC
:105070003B01582E492E609151027091520280914D
:105080005302909154025801BDE6AB0EB11C0E9430
:1050900051529B01AC01F201662D772D8F2F9E2F6F
:1050A0000E944D510E942552F501608371838283D5
:1050B00093838090510290905202A0905302B0903E
:1050C0005402A701960169817A818B819C810E949B
:1050D000B85120E030E04AE754E40E949C539B0121
:1050E000AC01F201662D772D8F2F9E2F0E944D511E
:1050F0006B017C01C501B4010E9451529B01AC01BE
:10510000C701B6010E944D510E942552F801EF5887
:10511000FF4F60837183828393830B581F4F0E94DC
:1051200051526B017C0120E030E04AE754E4FD89F4
:10513000EE89BF89A88D6F2F7E2F8B2F9A2F0E940B
:105140009C539B01AC01C701B6010E944D510E94C6
:105150002552D8016D937D938D939C931397F7CD32
:10516000F7FAF094F7F8F09433CC69817A818B8167
:105170009C81905869837A838B839C8320CC57FAD7
:10518000509457F8509410CC6D817E818F81988512
:10519000905801CF89809A80AB80BC80B7FAB094D8
:1051A000B7F8B0941FCF80918C0290918D02892B1B
:1051B00059F080918902882339F080918E028130E4
:1051C00009F45AC0823009F0089580ED8093690394
:1051D00089E180936A0380918C0290918D02909373
:1051E0006B0380918C0290918D0280936C031092DE
:1051F0006D0389E380936E0383E180936F03809155
:10520000600F9091610FA091620FB091630F809336
:10521000700390937103A0937203B0937303809112
:10522000D90F9091DA0FA091DB0FB091DC0F809332
:10523000740390937503A0937603B09377038091E2
:10524000521090915310A0915410B091551080932A
:10525000780390937903A0937A03B0937B03109221
:10526000800382E18093810320E04FEF5FEF69E1EB
:1052700089E693E00C9458440E94C80A80910E0F6E
:1052800090910F0F2091070E3091080E97FD53C09B
:1052900095958795959587959595879595958795F6
:1052A0009595879537FD49C0A901042E452F000C1F
:1052B000441F550B000C441F551F22273327281B62
:1052C000390B241B350B841B950B40ED4093690370
:1052D00040E140936A0340918C0250918D025093BB
:1052E0006B0340918C0250918D0240936C0310929D
:1052F0006D0348E640936E034AE040936F0345E038
:10530000409370033093710320937203909373035F
:1053100080937403909375038093760310927703C0
:1053200082E18093780320E04FEF5FEF60E189E650
:1053300093E00C9458444F96ABCF215C3F4FB4CFD1
:1053400080E8E4EDF5E1DF011D928A95E9F710921E
:10535000251110929F021092370384E690E0A0E09E
:10536000B0E08093380390933903A0933A03B0934D
:105370003B0383ED98E290933D0380933C030895B3
:10538000CF93DF9300D000D01F92CDB7DEB78091CE
:105390008C0290918D02892BC1F086ED898385E086
:1053A0008A8380918C0290918D029B8380918C02E4
:1053B00090918D028C8382E18D8320E04FEF5FEF2F
:1053C00065E0CE0101960E9458440F900F900F9017
:1053D0000F900F90DF91CF91089520E030E005C04D
:1053E0002F5F3F4F2034310559F0F901EE0FFF1FB9
:1053F000EC52FA4E408151818417950789F7089540
:1054000020E030E005C02F5F3F4F20343105B9F375
:10541000F901EE0FFF1FEC52FA4E40815181452BEE
:1054200091F7918380830895EF92FF920F931F93DA
:10543000CF93DF93CDB7DEB729970FB6F894DEBFD1
:105440000FBECDBF8C01DC0118968C9118971F926E
:105450008F9317968C9117971F928F9313968C9119
:1054600013978F9312968C9112978F9315968C9118
:105470001F928F9381EC92E09F938F938EE09EE03A
:105480009F938F930E94B2350FB6F894DEBF0FBE84
:10549000CDBFD80115968C91863D08F5813D90F1E0
:1054A0008091880240918402509185026091860229
:1054B00070918702480F511D611D711D477055275E
:1054C00066277727FA01EE0FFF1FE25DFE4E11837C
:1054D0000083809188028F5F8093880206C0863D9A
:1054E00009F45CC0873D09F47DC029960FB6F89495
:1054F000DEBF0FBECDBFDF91CF911F910F91FF9007
:10550000EF900895803D89F7F801978180E0209120
:105510008C0230918D024085842B8217930729F7E6
:10552000638541E070E0C8010A960E94F6357C016F
:10553000F80181858823C9F281ED80934603D70164
:1055400011968C9111978B5F8093470380918C0209
:1055500090918D029093480380918C0290918D02DE
:10556000809349032AE433E011964C9150E0B7014F
:10557000C9010E94315BD7011196EC91F0E0EA5B22
:10558000FC4F82E18483F8014281538120E06091E5
:10559000470386E493E00E945844A7CFD8011796AA
:1055A0009C91179780E020918C0230918D02189683
:1055B0004C911897842B8217930709F096CF80910E
:1055C0008C0290918D02892B09F48FCF80918902F2
:1055D000882309F48ACF12968D919C9113970E948B
:1055E000ED2983CFF801978180E020918C023091E2
:1055F0008D024085842B8217930709F076CF809126
:105600008902882309F44CCF80918C0290918D02FD
:10561000892B09F445CF80919F028130B1F083300E
:10562000A1F0209188028091840290918502A0913E
:105630008602B0918702820F911DA11DB11D877056
:105640009927AA27BB27FC013ECF82E080939F02C7
:1056500080918C0290918D02892BF1F080ED8983ED
:1056600089E08A8380918C0290918D029B83809146
:105670008C0290918D028C831D828DE48E8383E059
:105680008F83188682E1898720E04FEF5FEF69E022
:10569000CE0101960E9458440E94992326CF2F9252
:1056A0003F924F925F926F927F928F929F92AF92B2
:1056B000BF92CF92DF92EF92FF920F931F93CF93FF
:1056C000DF93CDB7DEB7A0970FB6F894DEBF0FBE5D
:1056D000CDBF80912511853009F4F9C320F18830C0
:1056E00009F4FBC108F086C0863009F477C2873020
:1056F00009F40DC2A0960FB6F894DEBF0FBECDBF61
:10570000DF91CF911F910F91FF90EF90DF90CF909D
:10571000BF90AF909F908F907F906F905F904F90D1
:105720003F902F900895823009F457C308F4E1C0E8
:10573000833009F428C38430E9F680ED898389E059
:105740008A8380918C0290918D029B8380918C0240
:1057500090918D028C8381E08D8389E78E8383E035
:105760008F83188682E189878091950290919602B5
:10577000FC01EE0FFF1FEC52FA4E208131813F9366
:105780002F939F938F9382EF92E09F938F938EE05E
:105790009EE09F938F930E94B235E0919502F09125
:1057A0009602EE0FFF1FEC52FA4E4081518120E02D
:1057B0006A81CE0101960E945844809151029091D5
:1057C0005202A0915302B09154028C509E4FAF4FA1
:1057D000BF4F8093910290939202A0939302B09353
:1057E000940285E0809325110FB6F894DEBF0FBEBA
:1057F000CDBF80CF8A3009F40BC208F0A7C280ED7C
:10580000898389E18A8380918C0290918D029B83A8
:1058100080918C0290918D028C831D8289E38E830E
:1058200083E18F838091600F9091610FA091620F4F
:10583000B091630F88879987AA87BB878091D90F1A
:105840009091DA0FA091DB0FB091DC0F8C879D87D0
:10585000AE87BF878091521090915310A091541041
:10586000B0915510888B998BAA8BBB8B188E82E1D7
:10587000898F20E04FEF5FEF69E1CE0101960E9432
:1058800058448091510290915202A0915302B091DC
:1058900054028C599F4FAF4FBF4F8093910290930A
:1058A0009202A0939302B093940240E050E080E013
:1058B00090E0FC01EE0FFF1FEC52FA4E2081318187
:1058C000232B11F04F5F5F4F01968034910589F7CC
:1058D0008091990290919A024130510509F4C6C411
:1058E0002BE020932511019690939A0280939902C0
:1058F00001CF882309F4B9C0813009F0FBCE409173
:105900005102509152026091530270915402809161
:105910002A1190912B11A0912C11B0912D114817A3
:1059200059076A077B0708F029C4809188028823F9
:1059300009F4E0CE8091840290918502A0918602C4
:10594000B091870287709927AA27BB27FC01EE0F29
:10595000FF1FE25DFE4E00811181809184029091D3
:105960008502A0918602B09187020196A11DB11D0A
:105970008093840290938502A0938602B09387025D
:10598000809188028150809388020115110509F4E5
:10599000B1CEF8018581823D09F4C5C4833D09F08B
:1059A000A9CE8091510290915202A0915302B091E0
:1059B0005402409126115091271160912811709145
:1059C0002911841B950BA60BB70BF8014781508555
:1059D00061857285841B950BA60BB70B89539F4F6E
:1059E000AF4FBF4F8F389140A105B10508F082CE6F
:1059F000F801938580E090938D0280938C028091D2
:105A00008C0290918D022485822B90938D0280933D
:105A10008C02858580931E11868580931F11878552
:105A2000809320114091201160911F1180911E11CF
:105A30000E942F0AF801908980E090938B02809356
:105A40008A0280918A0290918B022189822B909305
:105A50008B0280938A02109225110E94C0294ACE9F
:105A60008091890281110E942034809188028823CC
:105A700009F440CE8091840290918502A091860223
:105A8000B091870287709927AA27BB27FC01EE0FE8
:105A9000FF1FE25DFE4E0190F081E02D80918402B7
:105AA00090918502A0918602B09187020196A11D76
:105AB000B11D8093840290938502A0938602B093D7
:105AC000870280918802815080938802309709F480
:105AD00011CE8581873D49F6C3CF40915102509147
