:100000000C9480010C949F010C949F010C949F010F
:100010000C949F010C949F010C949F010C949F01E0
:100020000C949F010C945E020C949F010C949F0110
:100030000C949F010C949F010C949F010C949F01C0
:100040000C949F010C949F010C949F010C949F01B0
:100050000C949F010C949F010C949F010C949F01A0
:100060000C949F010C949F010C949F010C949F0190
:100070000C949F010C948B130C949F010C949F0182
:100080000C949F010C949F010C949F010C949F0170
:100090000C94023C0C949F010C949F010C94E24E32
:1000A0000C949F010C949F010C94A8580C94B9587F
:1000B0000C949F010C949F010C949F010C941C0ABA
:1000C0000C949F010C949F010C949F010C949F0130
:1000D0000C949F010C949F010C949F010C949F0120
:1000E0000C949F010C949F010C949F010C949F0110
:1000F0000C94E1590C949F010C949F010C94B559F8
:100100000C949F010C949F010C949F010C949F01EF
:100110000C949F010C949F010C949F010C949F01DF
:10012000E444FA3DB844D9442344644472449544B9
:100130004D3F703F8E3FC63F02409C43E543044421
:100140006240243E393E563E883EB53EC53ECA3EDC
:10015000623DD03ED93EEE3E033F243F2E3F303F2E
:10016000403F16462B46623D36465946B34614423A
:100170002C4241424E425942EE466842FD3D4A40C1
:10018000B840BD400B452945EC3D474568457545A0
:100190008445A145A445B745DC45D646DD46623DCC
:1001A000623D623D623D623D623D623DDF45F94533
:1001B0000746DC42DF42FF428B4355436B43C54059
:1001C0002341C4419B3D623DD23DF044F0410F428A
:1001D0004141AA4172428642A142BA4281409640C0
:1001E00005A84CCDB2D44EB93836A9020C50B991FD
:1001F0008688083CA6AAAA2ABE000000803F6E613D
:100200006E00696E660000407A10F35A00A0724ECC
:1002100018090010A5D4E80000E87648170000E4AB
:100220000B54020000CA9A3B000000E1F5050000F3
:1002300080969800000040420F000000A086010058
:100240000000102700000000E80300000000640028
:10025000000000000A000000000001000000000093
:100260002C76D888DC674F0823DFC1DFAE59E1B1B7
:10027000B796E5E3E453C63AE651997696E8E6C2C6
:100280008426EB898C9B62ED407C6FFCEFBC9C9FCD
:1002900040F2BAA56FA5F490055A2AF75C936B6CEF
:1002A000F9676DC11BFCE0E40D47FEF520E6B500E3
:1002B000D0ED902E0300943577050080841E080051
:1002C00000204E0A000000C80C333333330F986E01
:1002D00012831141EF8D2114893BE65516CFFEE6BE
:1002E000DB18D1844B381BF77C1D901DA4BBE42484
:1002F000203284725E228100C9F124ECA1E53D2701
:1003000011241FBECFEFD1E4DEBFCDBF13E0A0E0CC
:10031000B2E0E4E7F8ED00E00BBF02C007900D92F9
:10032000AC38B107D9F716E3ACE8B3E001C01D92D1
:10033000A83AB107E1F70E94CB0F0C94386C0C94EB
:10034000000081E080930B028091040B86FF04C0C3
:100350008091040B87FDADC08091040B86FF28C0FF
:100360008091AC029091AD02892B19F18091A90284
:10037000811129C00E94D8291092AD021092AC02BE
:100380001092AB021092AA021092A90281E00E9480
:10039000A90B1092C3021092C2021092C1021092D5
:1003A000C0021092BF024FEF60E080E00C94420A5E
:1003B000089583E00E94A90B0E94170A892B09F473
:1003C00076C00C949A070E940D3980ED8093B52B6E
:1003D0008EE08093B62B8091AC029091AD02909309
:1003E000B72B8091AC029091AD028093B82B109204
:1003F000B92B86E78093BA2B88E08093BB2B1092B1
:10040000BC2B1092BD2B1092BE2B1092BF2B8FEFE6
:100410008093C02B1092C12B82E18093C22B6091FC
:10042000B62B20E04FEF5FEF85EB9BE20E949C4DE7
:100430006091B62B20E04FEF5FEF85EB9BE20E94CF
:100440009C4D6091B62B20E04FEF5FEF85EB9BE278
:100450000E949C4D6091B62B20E04FEF5FEF85EB43
:100460009BE20E949C4D6091B62B20E04FEF5FEF26
:1004700085EB9BE20E949C4D6091B62B20E04FEFF4
:100480005FEF85EB9BE20E949C4D1092041210924C
:10049000AE0280E090E0FC01EE0FFF1FEB5CF44D3C
:1004A00011821082019680349105A9F763CF0C94D4
:1004B000EA060E949C2A83E00C94A90B1F920F92DB
:1004C0000FB60F9211240F900FBE0F901F9018952A
:1004D0000E94FC058091AC029091AD02892B31F015
:1004E0008091C2029091C3020E94CB390C943E3994
:1004F000CF93DF93CDB7DEB729970FB6F894DEBF61
:100500000FBECDBF0E94FC058091AC029091AD0260
:10051000892B21F08091A90281111EC08091BF0218
:10052000813009F443C0833009F440C08091AC02AB
:100530009091AD02892B29F08091A902882309F4BA
:1005400065C00E94D73A29960FB6F894DEBF0FBE59
:10055000CDBFDF91CF9108958091C2029091C302E7
:10056000892B09F04DC08091AE0290E0019663E0C6
:1005700070E00E9469688093AE028091AE02813083
:1005800009F455C008F045C08091C2029091C302A1
:10059000892B21F60E94D8290E940D394FEF60E087
:1005A00080E00E94420A10920412CDCF82E0809334
:1005B000BF028091AC029091AD02892BF1F080EDE9
:1005C000898389E08A838091AC029091AD029B83FC
:1005D0008091AC029091AD028C831D828DE48E835C
:1005E00083E08F83188682E1898720E04FEF5FEFF9
:1005F00069E0CE0101960E949C4D0E94D829A3CFAC
:100600008091AE02882309F489CFADCF0E94163BBA
:100610009ACF823009F082CF0E94D8294FEF6FEF36
:1006200080E00E94420A89E0809304128CCF0E94ED
:100630000D3940E06FEF80E00E94420A87E080932E
:10064000041281CF80ED97E0A0E0B0E080930A0B28
:1006500090930B0BA0930C0BB0930D0B81E0809348
:10066000090B81EA91E090930F0B80930E0B89E0C8
:100670009BE00C94214E89E09BE00C94ED4D8F9211
:100680009F92AF92BF92CF92DF92EF92FF920F9321
:100690001F93CF93DF93CDB7DEB72C970FB6F894A7
:1006A000DEBF0FBECDBFE62EE82690915F029923F4
:1006B000E1F1E6FA442740F9E7FC62C0E5FC44605A
:1006C00066FD55C030E021E067FD55C0226065FF42
:1006D00055C0346080E289838AE08A838091650214
:1006E00090916602A0916702B09168028B839C830F
:1006F000AD83BE834F83388729871A86CE01019642
:100700000E94F5102C960FB6F894DEBF0FBECDBF39
:10071000DF91CF911F910F91FF90EF90DF90CF90DD
:10072000BF90AF909F908F9008956623B9F09091FD
:100730000B029111E7CFE6FC27C020E030E0E7FC98
:1007400039C0E5FE2CC065FD2AC086FD2CC085FDA4
:100750005BC087FFD7CF0E947802D4CF90910B0265
:10076000992329F310920B0210920A02CBCF31E0A9
:1007700020E067FFABCF326065FDABCF2460AACF2E
:100780004260E5FE9DCF9BCF6C878B8766FF19C0CB
:100790000E94220320E030E06C858B85D0CF232B94
:1007A00009F4B0CFD2CF87FD49C085FD2DC00E948E
:1007B0006802A8CF67FD0CC010920A0221E030E069
:1007C000C0CF0E943B0321E030E06C858B85B7CF22
:1007D00091E090930A028090650290906602A0904A
:1007E0006702B09068028092050B9092060BA0926F
:1007F000070BB092080B909104129150923008F0C0
:10080000A0CF109204129DCF0E94FC058091690236
:1008100090916A02892B49F04FEF60E080E00E94DE
:10082000420A10926A02109269021092C302109258
:10083000C2021092C1021092C00264CF81E06C87A4
:100840000E94A90B0E94483B6C85662319F081E049
:1008500080930B0280910910811126C08091821033
:10086000811122C08091FB1081111EC033E4C32E80
:1008700030E1D32EE12CF12CF60111821082FFEF32
:10088000EF1AFF0A0BED1FE029EC3FE340E050E0D8
:10089000BA01C7010E942A1D89E7C80ED11CE3E0F6
:1008A000EE16F10449F72ECF0E94D8292BCFCF9313
:1008B0008091650290916602A0916702B0916802F2
:1008C00040910C0250910D0260910E0270910F0246
:1008D000841B950BA60BB70B4997A105B105F0F04A
:1008E000C9B1C095C07EC093040B809110028C17D3
:1008F000A9F06C2F0E943F038091650290916602DF
:10090000A0916702B091680280930C0290930D024F
:10091000A0930E02B0930F02C0931002CF910895DE
:100920001092B100249808950C949004CF93DF9313
:1009300082E48093B000A3EBB0E082EB8C93E1EB18
:10094000F0E085E080832FEF32E597E021503040E2
:100950009040E1F700C000001082CFE1DEE4219773
:10096000F1F700C0000095E89C938083DFEF22E55B
:1009700037E0D15020403040E1F700C00000108245
:10098000249881E08093980E84E690E0A0E0B0E0A7
:100990008093990E90939A0EA0939B0EB0939C0E09
:1009A00084E994E090939E0E80939D0EDF91CF9109
:1009B00008959C01009709F18A3F910578F085E040
:1009C0008093B10064E274EF80E090E0249A40E00C
:1009D00050E00E949F682093B300089587E08093C1
:1009E000B10064E87EE180E090E0249A40E050E0CD
:1009F0000E949F682093B30008950C949004CF93B5
:100A0000DF93C82FCF7082958F7009F161E090E07D
:100A1000660F9F5F9813FCCF70E0D0E0CC0FDD1F16
:100A2000CC0FDD1FCF5EDD4F882777FD8095982F97
:100A30000E946B62288139814A815B810E94B46384
:100A40000E943D62CB01DF91CF910C94D90461E00B
:100A500070E0E3CF0F931F93CF93DF9300D0CDB718
:100A6000DEB70E94900400914202109143020115EA
:100A7000110509F480C080914402909145028017CD
:100A800091070CF05EC03091A70E20E0880F991FEF
:100A9000820F931F45960E942E130E94FF043091EF
:100AA000A70E20E08091440290914502880F991F83
:100AB000820F931F44960E942E13809391034091BE
:100AC0004402509145024F5F5F4F5093450240935F
:100AD000440260914202709143026417750794F4D6
:100AE0000E944A6A8A830E944A6A89830E944A6AEB
:100AF0004A8169810F900F90DF91CF911F910F91E3
:100B00000C94420A1092A80E282F30E040E050E0EA
:100B100060918D0370918E0380918F03909190036B
:100B20000E947D682093A90E3093AA0E4093AB0ECD
:100B30005093AC0E8AE295E09093AE0E8093AD0E8A
:100B4000CFCF81E08093A80E10924502109244020C
:100B500010924302109242020E94900410924102AD
:100B60004FEF60E080E00F900F90DF91CF911F91E9
:100B70000F910C94420A9091A70E80E042960E9439
:100B80002E1380938C039091A70E80E043960E94D1
:100B90002E13082F10E0109343020093420220917D
:100BA0008C0330E040E050E060E879EA83E090E0D8
:100BB0000E947D6820938D0330938E0340938F03B2
:100BC0005093900358CF91E0909341029093A80ED8
:100BD0001092A90E1092AA0E1092AB0E1092AC0EAB
:100BE0002AE235E03093AE0E2093AD0E8093A70E2F
:100BF00088EA9EE00C94214E86EE90E00E94D90493
:100C000088E99EE00C94214E0F931F93809165021A
:100C100090916602A0916702B09168028093C60E1F
:100C20009093C70EA093C80EB093C90E1092B70E42
:100C300084EF91E0A0E0B0E08093B80E9093B90EFD
:100C4000A093BA0EB093BB0E89ED97E09093BD0EC2
:100C50008093BC0E87EB9EE00E94214E0BED1FE0BF
:100C600029EC3FE340E050E0BA0181E090E00E94CF
:100C70002A1D0BED1FE029EC3FE340E050E0BA01F4
:100C800082E090E00E942A1D0BED1FE029EC3FE37B
:100C900040E050E0BA0183E090E00E942A1D81E02C
:100CA00090E090934A02809349021F910F9108951A
:100CB0008091DF0E8230B9F180911A1090911B1053
:100CC000892BB9F18091931090919410892B89F11F
:100CD0000E94D82941E05FEF6FEF7FEF81E090E065
:100CE0000E94D32041E05FEF6FEF7FEF82E090E062
:100CF0000E94D32081E08093B70E88E893E1A0E0C2
:100D0000B0E08093B80E9093B90EA093BA0EB09352
:100D1000BB0E85EC98E09093BD0E8093BC0E87EBE4
:100D20009EE00C94214E80911A1090911B10892BFB
:100D300009F4089580910C1190910D11892B41F6C1
:100D400008958091DF0E8230B9F180911A10909150
:100D50001B10892BB9F18091931090919410892BDD
:100D600089F10E94D8294FEF50E060E070E081E007
:100D700090E00E94D3204FEF50E060E070E082E00E
:100D800090E00E94D32081E08093B70E88E893E141
:100D9000A0E0B0E08093B80E9093B90EA093BA0E85
:100DA000B093BB0E88E599E09093BD0E8093BC0E86
:100DB00087EB9EE00C94214E80911A1090911B10AD
:100DC000892B09F4089580910C1190910D11892BB4
:100DD00041F608950F931F9381E090E090934802AD
:100DE0008093470290934A02809349028091650262
:100DF00090916602A0916702B09168028093C60E3E
:100E00009093C70EA093C80EB093C90E10924410D1
:100E1000109243101092BD101092BC101092361117
:100E2000109235110BED1FE029EC3FE340E050E05C
:100E3000BA0181E090E00E942A1D0BED1FE029EC31
:100E40003FE340E050E0BA0182E090E00E942A1DBA
:100E50000BED1FE029EC3FE340E050E0BA0183E0F6
:100E600090E00E942A1D1092B70E84EF91E0A0E05E
:100E7000B0E08093B80E9093B90EA093BA0EB093E1
:100E8000BB0E89ED97E09093BD0E8093BC0E87EB6F
:100E90009EE01F910F910C94214E0F931F9381E0C0
:100EA00090E0909348028093470210924410109271
:100EB00043101092BD101092BC1010923611109277
:100EC00035110BED1FE029EC3FE340E050E0BA01A3
:100ED0000E942A1D0BED1FE029EC3FE340E050E0AB
:100EE000BA0182E090E00E942A1D0BED1FE029EC80
:100EF0003FE340E050E0BA0183E090E00E942A1D09
:100F00001092B70E84EF91E0A0E0B0E08093B80EAD
:100F10009093B90EA093BA0EB093BB0E81EA96E0FF
:100F20009093BD0E8093BC0E87EB9EE01F910F91B6
:100F30000C94214E109248021092470287EB9EE0DB
:100F40000E94ED4D0E94D8294FEF60E080E00E94A2
:100F5000420A83EC98EBA2EBBEE380938802909365
:100F60008902A0938A02B0938B0284E690E090936A
:100F7000870280938602089540E060E08FEF0E9430
:100F8000420A2FEF81EE94E0215080409040E1F73B
:100F900000C0000040E060E080E00E94420A2FEFC5
:100FA00081EE94E0215080409040E1F700C00000C5
:100FB000E3CF0F931F93CF93DF93809165029091BE
:100FC0006602A0916702B09168024091C60E5091EE
:100FD000C70E6091C80E7091C90E841B950BA60BAD
:100FE000B70B81349747AB41B10508F091C08091B0
:100FF000DF0E823009F472C080911A1090911B109C
:10100000892B09F453C08091931090919410892BEF
:1010100009F450C080914602813009F48CC00BED78
:101020001FE029EC3FE34BED5FE069E471E481E010
:1010300090E00E942A1D0BED1FE029EC3FE34BEDF1
:101040005FE069E471E482E090E00E942A1D0BED0C
:101050001FE029EC3FE34BED5FE069E471E483E0DE
:1010600090E00E942A1D81E0809346020E944A6A15
:101070008C010E944A6AEC010E944A6AFC012FEF2F
:1010800030E0C801B9010E946968482FCE01B9015A
:101090000E946968C82FCF01B9010E9469686C2F4E
:1010A000DF91CF911F910F910C94420A809109100A
:1010B000882351F0809182108111D8CF80919310B4
:1010C00090919410892B91F68091490290914A0257
:1010D000892B61F60E94D8290E94BC0780911A10C2
:1010E00090911B10892B09F44AC080910C119091AA
:1010F0000D11892B09F08ECF8091FB108111B6CF95
:1011000080910C1190910D11892B09F0AFCFDCCF9C
:1011100081E08093B70E40E06FEF80E00E94420ACA
:101120000E94D8291092480210924702DF91CF9175
:101130001F910F9108950BED1FE029EC3FE340E074
:1011400050E0BA0181E090E00E942A1D0BED1FE003
:1011500029EC3FE340E050E0BA0182E090E00E94D9
:101160002A1D0BED1FE029EC3FE340E050E0BA01FF
:1011700083E090E00E942A1D1092460277CF809172
:101180000910882309F4A0CFB7CFEF92FF920F93F5
:101190001F93CF93DF93CDB7DEB72C970FB6F8949C
:1011A000DEBF0FBECDBF0E94D8290FE310E1EE24B1
:1011B000E394F12CEC0EFD1EF80164817581882703
:1011C00077FD8095982F0E946B622BED3FE049ECF4
:1011D00050E40E94B4639B01AC01F801608171810D
:1011E000828193810E946561F7016193719381937C
:1011F00091937F0107581F4FF1E10A3A1F07E1F66B
:101200008091DF0E28E530EA4BE851EC8230D1F1D5
:1012100069817A818B819C810E94B06318160CF4DD
:1012200045C028E530EA4BE851EC6D817E818F8125
:1012300098850E94B0631816CCF181E08093B70EB8
:1012400088EE93E0A0E0B0E08093B80E9093B90EE2
:10125000A093BA0EB093BB0E84E096E09093BD0EBF
:101260008093BC0E87EB9EE02C960FB6F894DEBF01
:101270000FBECDBFDF91CF911F910F91FF90EF90E7
:101280000C94214E69817A818B819C810E94B0638C
:10129000181664F028E530EA4BE851EC69857A8548
:1012A0008B859C850E94B06318163CF60E94BC0793
:1012B000EF92FF920F931F93CF93DF93CDB7DEB7DB
:1012C0002C970FB6F894DEBF0FBECDBF0E94D82971
:1012D0000FE310E1EE24E394F12CEC0EFD1EF80177
:1012E00064817581882777FD8095982F0E946B62B5
:1012F0002BED3FE049EC50E40E94B4639B01AC014C
:10130000F80160817181828193810E946561F7019A
:1013100061937193819391937F0107581F4FF1E17E
:101320000A3A1F07E1F68091DF0E28E530EA4BE824
:1013300051E4823009F465C069817A818B819C8196
:101340000E94C96187FD71C028E530EA4BE851E48D
:101350006D817E818F8198850E94C96187FD65C0FE
:1013600010924410109243101092BD101092BC10B5
:1013700010923611109235110BED1FE029EC3FE36E
:1013800040E050E0BA0181E090E00E942A1D0BEDA0
:101390001FE029EC3FE340E050E0BA0182E090E03A
:1013A0000E942A1D0BED1FE029EC3FE340E050E0D6
:1013B000BA0183E090E00E942A1D1092B70E84EFDC
:1013C00091E0A0E0B0E08093B80E9093B90EA093A6
:1013D000BA0EB093BB0E88E596E09093BD0E809355
:1013E000BC0E87EB9EE02C960FB6F894DEBF0FBEC6
:1013F000CDBFDF91CF911F910F91FF90EF900C9493
:10140000214E69817A818B819C810E94C96187FD0F
:101410000CC028E530EA4BE851E469857A858B8574
:101420009C850E94C96187FF9BCF0E94BC07809169
:1014300047029091480208951F920F920FB60F92A3
:1014400011248F939F93AF93BF93809165029091E6
:101450006602A0916702B09168020196A11DB11DBC
:101460008093650290936602A0936702B09368022E
:10147000BF91AF919F918F910F900FBE0F901F90D2
:101480001895089590E1899F900111243093990057
:101490002093980090E1699F9001112430939D0062
:1014A00020939C0090E1499F9001112430939B0070
:1014B00020939A008093DC0E6093DD0E4093DE0E45
:1014C00008958091CA0E9091CB0E01979093CB0E08
:1014D0008093CA0E181619061CF081E08093E90F5C
:1014E0004091DE0E40586091DD0E60588091DC0E18
:1014F00080580C94420A20E1829FC00111249093ED
:1015000099008093980080E1689FB0011124709346
:101510009D0060939C0020E1429FA0011124509304
:101520009B0040939A000895CF93DF938091AC0283
:101530009091AD02892B59F18091A902882339F14C
:10154000C0916F02D09170029E01A9E8B8E80E9494
:1015500049689695879596958795969587954FE0D6
:10156000489F9001499F300D1124CE01821B930B9F
:10157000039780F44091FF116091FE118091FD115D
:101580000E947B0A2196D0937002C0936F02DF9174
:10159000CF9108954091DE0E6091DD0E8091DC0EBA
:1015A0000E947B0AEFCF4091DE0E6091DD0E8091AC
:1015B000DC0E0C947B0A0F93CF93DF9300D01F9225
:1015C000CDB7DEB781E08B8302E09E012F5F3F4FF6
:1015D00041E0BE016D5F7F4F8CE10E94D3500E94BD
:1015E0000151998180E09093D90E8093D80E80911B
:1015F000D80E9091D90E2A81822B9093D90E809388
:10160000D80E83E08B839E012F5F3F4F41E0BE01E8
:101610006D5F7F4F8CE10E94D3500E9401519981F0
:1016200080E09093E10F8093E00F8091E00F909124
:10163000E10F2A81822B9093E10F8093E00F85E0E8
:101640008B839E012F5F3F4F41E0BE016D5F7F4F57
:101650008CE10E94D3500E940151998180E09093C7
:1016600007108093061080910610909107102A8130
:10167000822B909307108093061080E00F900F90BC
:101680000F90DF91CF910F910895CF93C82F8823AA
:10169000F1F040E06FEF80E00E94420A2FEF81EE10
:1016A00094E0215080409040E1F700C0000040E00D
:1016B00060E08FEF0E94420A2FEF81EE94E021500C
:1016C00080409040E1F700C00000C15011F7CF9179
:1016D000089585E00C94450B0F93CF93DF9300D0D2
:1016E00000D0CDB7DEB78DE08C8301E09E012D5F89
:1016F0003F4F41E0BE016C5F7F4F8CE10E94D350B1
:101700000E940151892B09F58B818A3219F084E1FD
:101710000E94450B8AE2898389E18A8342E0BE0107
:101720006F5F7F4F8CE10E9497500E940151892B7F
:1017300019F084E10E94450B80E00F900F900F900C
:101740000F90DF91CF910F91089584E10E94450B96
:10175000DBCF2091CA0E3091CB0E121613060CF47B
:10176000089590E0880F991F9093CB0E8093CA0E36
:101770001092E90F84E690E0A0E0B0E08093EA0FD9
:101780009093EB0FA093EC0FB093ED0F81E69AE0EE
:101790009093EF0F8093EE0F89EE9FE00C94214E13
:1017A0002091CA0E3091CB0E121613060CF4089538
:1017B00090E0880F991F9093CB0E8093CA0E1092E1
:1017C000E90F4093EA0F5093EB0F6093EC0F709387
:1017D000ED0F81E69AE09093EF0F8093EE0F89EE84
:1017E0009FE00C94214E0E947B0A81E0809392033B
:1017F00084E690E0A0E0B0E080939303909394039C
:10180000A0939503B093960383ED9AE09093980389
:101810008093970382E993E00C94214E9AE0909391
:1018200077009091E20F923021F190917C00907CB2
:1018300090937C0090917C00906C90937C009091B0
:101840007C00982B90937C0080917A00876C809329
:101850007A0080917A0086FDFCCF2091780030914B
:101860007900932F937080E0AC01422B9A01C9015B
:10187000089510927C0090917C00982B90937C00AE
:10188000E3CFCF93DF9380E294E00E942E13809306
:10189000E20F81E294E00E942E138093E30F82E234
:1018A00094E00E942E138093E40F2091E20F2230E7
:1018B00009F45BC08DEC9CECACECBFE380930110B1
:1018C00090930210A0930310B0930410819A89980A
:1018D0002FEF31EE84E0215030408040E1F700C02E
:1018E000000082E00E940E0CEC018198829A8A9896
:1018F0009FEF21EE34E0915020403040E1F700C0EE
:10190000000081E00E940E0C8298C436D105ACF034
:1019100082E08093DF0E83E08093DB0E82E090E034
:101920009093E60F8093E50F81E090E09093E80FAD
:101930008093E70FDF91CF9108958436910544F7A6
:1019400083E08093DF0E82E08093DB0E84E090E002
:101950009093E60F8093E50F83E090E09093E80F7B
:101960008093E70FDF91CF91089580E090E0A0EAA7
:10197000BFE38093011090930210A0930310B093E3
:1019800004106A98729A3FEF80E792E031508040ED
:101990009040E1F700C00000629B03C02093DF0E7F
:1019A000BACF83E08093DF0E2093DB0E84E090E0DB
:1019B0009093E60F8093E50F83E090E09093E80F1B
:1019C0008093E70FDF91CF910895E1E6F0E080E8A2
:1019D00080831082F89480EF84B98BB1806E8BB9CC
:1019E000E8E6F0E0808181608083EBE6F0E08081D2
:1019F000826080838081846080838081886080832E
:101A00008FB780688FBF88E18AB98BB183608BB94B
:101A10008FE78DB98FE383BB0E94410C3AEA309384
:101A2000800029E1209381008FEF9FE09093870051
:101A300080938600309390002093910090939700BC
:101A4000809396001092250110922401E3E7F0E0C4
:101A5000808182608083E1E2F1E080818C6080831C
:101A60008EE390E0909329018093280190932701C1
:101A70008093260184B7877F84BFE0E6F0E0808111
:101A800088618083108280EC80937C0010927B00C0
:101A90008FEE80937A000E941F1778940895E82FA4
:101AA000F0E0EE0FFF1FE351FE4E20813181C901AE
:101AB00008950E944F0DBC0180E090E00E94696291
:101AC00020910110309102104091031050910410A8
:101AD0000E94B46320E030E040E85AE30E94B4631F
:101AE000089580E00E944F0DBC0180E090E00E94CC
:101AF00069622091011030910210409103105091C1
:101B000004100E94B46320E030E040E85AE30E94F1
:101B1000B4632EE63BED46EB5EE30E94D061089590
:101B2000CF93DF93CDB7DEB72C970FB6F894DEBF17
:101B30000FBECDBF69877A878B879C8780916502AE
:101B400090916602A0916702B091680289839A839E
:101B5000AB83BC8329813A814B815C8189859A85DD
:101B6000AB85BC85820F931FA41FB51F8D839E83F9
:101B7000AF83B887000020916502309166024091E2
:101B80006702509168028D819E81AF81B88582176E
:101B90009307A407B50778F72C960FB6F894DEBF25
:101BA0000FBECDBFDF91CF91089580916000886115
:101BB00080936000809160008D6080936000FFCF13
:101BC0004F925F926F927F92AF92BF92CF92DF92CD
:101BD000EF92FF920F931F93CF93DF93CDB7DEB7B2
:101BE0006E970FB6F894DEBF0FBECDBF0E94DB0A22
:101BF0006091D80E7091D90E882777FD8095982F27
:101C00000E946B6220E030E040E858E30E94B46339
:101C10002B013C016091E00F7091E10F882777FD67
:101C20008095982F0E946B6220E030E040E858E3F6
:101C30000E94B4636B017C016091061070910710E3
:101C4000882777FD8095982F0E946B6220E030E016
:101C500040E858E30E94B4635B018C01242D352DCC
:101C6000462D572D642D752D862D972D0E94B4631A
:101C70002B013C012C2D3D2D4E2D5F2D6C2D7D2DEE
:101C80008E2D9F2D0E94B4639B01AC01C301B20154
:101C90000E9465616B017C012A2D3B2D402F512F45
:101CA0006A2D7B2D802F912F0E94B4639B01AC0184
:101CB000C701B6010E9465610E9421647B018C010D
:101CC0008091650290916602A0916702B0916802CE
:101CD0004091A1035091A2036091A3037091A403CA
:101CE000841B950BA60BB70B8B3F9105A105B10586
:101CF00008F0C7C0A090A503B090A603C090A703AA
:101D0000D090A8032E2D3F2D402F512F6A2D7B2DD3
:101D10008C2D9D2D0E9464615B016C0120E030E000
:101D2000A9017B2D9D2D0E94C96187FD27C12AE94C
:101D300039E949E15FE36A2D7B2D8C2D9D2D0E94B1
:101D4000B06318160CF06CC010920A0240E06FEFFE
:101D500080E00E94F30BBB24B394B0920B028091FD
:101D6000AC029091AD02892B09F0AAC080910412B7
:101D70008111A6C08091650290916602A0916702D0
:101D8000B09168028093051290930612A0930712F7
:101D9000B09308128091650290916602A09167024B
:101DA000B09168020E944E6A4090650250906602AF
:101DB00060906702709068020E944A6A6C01C301D9
:101DC000B2010E9469622B013C01B601882777FDB0
:101DD0008095982F0E946B6220E03EEF4FEF56E413
:101DE0000E94D06120E030E44CE954E40E94B463E6
:101DF0009B01AC01C301B2010E94656120E030E0AB
:101E00004AE753E40E9465610E943D6260930912B3
:101E100070930A1280930B1290930C12B0920412DA
:101E20008E2D9F2DA02FB12F8093A5039093A603F5
:101E3000A093A703B093A8038091650290916602D6
:101E4000A0916702B09168028093A1039093A203CE
:101E5000A093A303B093A4036E960FB6F894DEBFCD
:101E60000FBECDBFDF91CF911F910F91FF90EF90EB
:101E7000DF90CF90BF90AF907F906F905F904F902A
:101E800008958E2D9F2DA02FB12F8093A5039093A1
:101E9000A603A093A703B093A80380916502909135
:101EA0006602A0916702B09168028093A1039093AB
:101EB000A203A093A303B093A4035701680122CF08
:101EC000809104128111ACCF8091650290916602DD
:101ED000A0916702B091680240916B0250916C0230
:101EE00060916D0270916E02841B950BA60BB70B6F
:101EF000843F9140A105B10508F4AECF83ED8983FD
:101F00008EE08A831B821C821D821E828091AC021D
:101F10009091AD029F838091AC029091AD02888731
:101F20008091FD1189878091FE118A878091FF1130
:101F30008B878091AA029091AB029C878091AA0224
:101F40009091AB028D8782E18E8720E04FEF5FEFAB
:101F50006EE0CE0101960E949C4D809165029091A9
:101F60006602A0916702B091680280936B02909321
:101F70006C02A0936D02B0936E0252CF2AE939E948
:101F800049E15FEB6A2D7B2D8C2D9D2D0E94C9614F
:101F900087FF46CFD9CECF93DF93CDB7DEB7AD97CE
:101FA0000FB6F894DEBF0FBECDBF0E94D43B0E9497
:101FB000E50C0E948B500E946C0B882321F08AE074
:101FC0000E94450BFCCF0E9496040E941E4A0E946C
:101FD00043308091600290916102A0916202B091C1
:101FE00063028A279B270E944E6A0E94FE291F8E49
:101FF0008FE090E0A0E0B0E088A399A3AAA3BBA3E0
:102000008FEB91E29DA38CA3CE014F960E94214EAF
:10201000188A84E690E0A0E0B0E0898B9A8BAB8BC5
:10202000BC8B84E99AE09E8B8D8BCE0140960E94FA
:10203000214E198280E091E0A0E0B0E08A839B838A
:10204000AC83BD8385E89BE39F838E83CE0101969D
:102050000E94214E4FEF60E080E00E94420A4E9BBA
:102060000E944D070E945F570E94A94E0E945F5731
:102070000E94923C0E940D510E945F570E94814A2B
:102080000E9457040E945F570E94FF3180910A020C
:1020900081117EC08091490290914A02892B11F3EF
:1020A0008091470290914802892BE1F2809165026C
:1020B00090916602A0916702B09168024091C60EAD
:1020C0005091C70E6091C80E7091C90E841B950B7C
:1020D000A60BB70B81339547A105B10518F20E94F5
:1020E000FC0510924A02109249028091E20F823060
:1020F00009F4B8CF20E030E04AEA53E460917A0274
:1021000070917B0280917C0290917D020E94B46369
:1021100020E030E044EB53E40E94D06160938202FF
:1021200070938302809384029093850220E030E0D4
:102130004AEA53E4609176027091770280917802C6
:10214000909179020E94B46320E030E044EB53E4C4
:102150000E94D06160937E0270937F028093800220
:102160009093810244E050E062E872E087E194E0FD
:102170000E943F1344E050E06EE772E08BE194E090
:102180000E943F1361EA86E194E00E9400136ACF47
:102190000E94E00D7FCFCF92DF92EF92FF926B0112
:1021A0007C0120E030E0A9010E94C96187FD1AC0CE
:1021B00020E030E0A901C701B6010E94B063181603
:1021C00074F490E88FE350E040E09C01652F742F99
:1021D000832F922FFF90EF90DF90CF90089590E0A3
:1021E00080E0F1CF90E88FEBEECF20916902309143
:1021F0006A02232B59F04091FF0F5091001020915B
:10220000690230916A024217530721F52091D902E1
:102210004091FF0F50910010FC01618121110EC00F
:1022200021E070E00E94E43CFC01418120E030E0CC
:1022300050E0BC018EE993E10C94DA6021E070E09B
:102240000E94E43CFC014181BC0182E00E94975065
:102250000C9401514091690250916A0221E0FC0105
:1022600061810C949C4D3F924F925F926F927F924E
:102270008F929F92AF92BF92CF92DF92EF92FF9296
:102280000F931F93CF93DF93CDB7DEB760970FB651
:10229000F894DEBF0FBECDBF0FE310E1EE24E39450
:1022A000F12CEC0EFD1E6701F80164817581882711
:1022B00077FD8095982F0E946B622BED3FE049ECF3
:1022C00050E40E94B4639B01AC01F801608171810C
:1022D000828193810E946561F6016193719381937C
:1022E00091936F0107581F4FF2E103321F07E1F688
:1022F0008091DB0E882309F4D6C0312C00E010E079
:1023000088248394912C80915D0290E0002E02C07D
:10231000959587950A94E2F780FF4BC0F7014080BE
:102320005180628073806801CC0CDD1CCC0CDD1CFC
:102330008CECA82E8EE0B82EAC0CBD1CF5012081D3
:10234000318142815381C301B2010E94646120E066
:1023500030E0A9010E94C961F501208131814281EB
:10236000538187FD9AC0C301B2010E946461472F67
:10237000382F292F862F942FA32FB22FBC01CD01E8
:10238000F601E35BFD4F20813181428153810E9440
:10239000B063181674F4C401002E01C0880F0A94AB
:1023A000EAF7382AF601E453F14F40825182628203
:1023B00073820F5F1F4F8091DB0EF4E0EF0EF11C74
:1023C00090E0081719070CF49ECF332009F46BC076
:1023D00084E28093B52B88E18093B62B80916502CF
:1023E00090916602A0916702B09168028093B72B2A
:1023F0009093B82BA093B92BB093BA2B89819A8173
:10240000AB81BC818093BB2B9093BC2BA093BD2B45
:10241000B093BE2B8D819E81AF81B8858093BF2BF9
:102420009093C02BA093C12BB093C22B89859A8522
:10243000AB85BC858093C32B9093C42BA093C52BF5
:10244000B093C62B8D859E85AF85B8898093C72BA9
:102450009093C82BA093C92BB093CA2B3092CB2B4F
:102460001092CC2B85EB9BE260960FB6F894DEBF02
:102470000FBECDBFDF91CF911F910F91FF90EF90D5
:10248000DF90CF90BF90AF909F908F907F906F9094
:102490005F904F903F900C94F510C301B2010E94E1
:1024A000646190586DCF60960FB6F894DEBF0FBE92
:1024B000CDBFDF91CF911F910F91FF90EF90DF90F3
:1024C000CF90BF90AF909F908F907F906F905F90D4
:1024D0004F903F900895EF92FF920F931F93CF93E9
:1024E000DF9300D000D000D0CDB7DEB70E94DB0A6A
:1024F0000091D80E1091D90E1A8309836091E00FD4
:102500007091E10F7C836B8340910610509107100E
:102510005E834D83FE01319680E090E020915E0263
:1025200030E0082E02C0359527950A94E2F720FF87
:1025300015C0DC01AA0FBB1FA750B04F2D913C91D5
:102540001197ED90FC90A0914B02B0914C0220812C
:1025500031812E193F09A217B30790F001963296E8
:1025600083309105D9F626960FB6F894DEBF0FBEDC
:10257000CDBFDF91CF911F910F91FF90EF90089504
:102580001093FA0F0093F90F7093FC0F6093FB0FF9
:102590005093FE0F4093FD0F85E28093B52B8DE0A5
:1025A0008093B62B8091650290916602A09167029C
:1025B000B09168028093B72B9093B82BA093B92B5E
:1025C000B093BA2B1093BB2B0093BC2B7093BD2BF5
:1025D0006093BE2B5093BF2B4093C02B1092C12B06
:1025E00085EB9BE226960FB6F894DEBF0FBECDBFFB
:1025F000DF91CF911F910F91FF90EF900C94F51008
:10260000E0917102E11103C0F894E09171027FEF53
:1026100054E144E2F999FECF2AE030E00000215075
:102620003109E1F792BD81BD70BD5FBBF99AF9999F
:10263000FECF2AE030E0000021503109E1F760BD13
:102640004FBBF99AF999FECF92BD81BDF89A20B59A
:102650006213E0CFE11101C07894089520917102D6
:10266000211103C0F89420917102F999FECF92BD17
:1026700081BDF89A211101C0789480B50895EF9238
:10268000FF920F931F93CF93DF938C01F89481E017
:1026900080937102141615066CF4EB017B01E40EB5
:1026A000F51E6991C8010E9400130F5F1F4FCE15E0
:1026B000DF05B9F7109271027894DF91CF911F91E5
:1026C0000F91FF90EF900895EF92FF920F931F9359
:1026D000CF93DF93F89421E020937102141615062E
:1026E00084F4EB017B01E40EF51E8C01061B170B35
:1026F000C8018C0F9D1F0E942E138993CE15DF05F4
:10270000B9F7109271027894DF91CF911F910F91D8
:10271000FF90EF9008951F920F920FB60F92112421
:102720000BB60F922F923F924F925F926F927F92D1
:102730008F929F92AF92BF92CF92DF92EF92FF92D1
:102740000F931F932F933F934F935F936F937F93B9
:102750008F939F93AF93BF93EF93FF93CF93DF93A9
:1027600000D000D0CDB7DEB780918C028F5F809310
:102770008C02833008F463C010928C0240918D0269
:10278000E42FF0E08091780090E0EE0FFF1FE3511E
:10279000FE4E918380838081918150917900352F05
:1027A000337020E0822B932B9183808380914902A8
:1027B00090914A02892B41F0809147029091480202
:1027C000892B11F04730F1F14F5F40938D02483073
:1027D00008F08CC280917C00807E80937C00809188
:1027E0007C0090918D02892B80937C000F900F903C
:1027F0000F900F90DF91CF91FF91EF91BF91AF912B
:102800009F918F917F916F915F914F913F912F9108
:102810001F910F91FF90EF90DF90CF90BF90AF90FE
:102820009F908F907F906F905F904F903F902F90F0
:102830000F900BBE0F900FBE0F901F901895811137
:10284000D5CF9CCF6091F9117091FA118090011051
:1028500090900210A0900310B0900410882777FD8C
:102860008095982F0E946B62A50194010E94B46329
:1028700020E030E040E85AE30E94B46323E333E30E
:1028800043E35FE30E9464618B017C0120E030E060
:10289000A901712F9F2D0E94C96187FD2AC22DECCD
:1028A0003CEC4CE45EE3602F712F8E2D9F2D0E9437
:1028B000C96187FDEBC06091F7117091F81188270D
:1028C00077FD8095982F0E946B629B01AC01C5013A
:1028D000B4010E94B46320E030E040E85AE30E9473
:1028E000B46323E333E343E35FE30E946461F62EC2
:1028F000E72E182F092F20E030E0A901D701F801B9
:102900006B2F7A2F8F2F9E2F0E94C96187FD1BC2CC
:102910002DEC3CEC4CE45EE3D701F8016B2F7E2DEF
:102920008F2F902F0E94C96187FDB0C02090740244
:1029300030907502B101882777FD8095982F0E940D
:102940006B6220917A0230917B0240917C0250911F
:102950007D020E94B463F62EE72ED82EC92E609118
:10296000F9117091FA110091F7111091F81188275F
:1029700077FD8095982F0E946B62A50194010E94BB
:10298000B46320E030E040E85AE30E94B4632B01D6
:102990003C01B801882777FD8095982F0E946B62D3
:1029A000A50194010E94B46320E030E040E85AE3BE
:1029B0000E94B4639B01AC01C301B2010E94646137
:1029C00020E030E0A9010E94C96187FD01C2609149
:1029D000F9117091FA110091F7111091F8118827EF
:1029E00077FD8095982F0E946B62A50194010E944B
:1029F000B46320E030E040E85AE30E94B4632B0166
:102A00003C01B801882777FD8095982F0E946B6262
:102A1000A50194010E94B46320E030E040E85AE34D
:102A20000E94B4639B01AC01C301B2010E946461C6
:102A30009B01AC010E9465612FEF221A320A262FFA
:102A4000372F482F592FD701F6016B2F7E2D8F2F4F
:102A50009C2D0E9465616B017C01B101882777FD87
:102A60008095982F0E946B629B01AC01C701B60153
:102A70000E94D06160937A0270937B0280937C0203
:102A800090937D0230927502209274020091E50FBE
:102A90001091E60F000F111FF801E351FE4E608107
:102AA0007181882777FD8095982F0E946B629B012A
:102AB000AC01C501B4010E94B46320E030E040E8FD
:102AC0005AE30E94B46323E333E343E35FE30E94EA
:102AD00064617B016C0120E030E0A9017F2D9D2D18
:102AE0000E94C96187FD13C12DEC3CEC4CE45EE310
:102AF0006E2D7F2D8C2D9D2D0E94C96187FDF6C006
:102B0000E090E70FF090E80FEE0CFF1CF701E351A7
:102B1000FE4E60817181882777FD8095982F0E94F5
:102B20006B629B01AC01C501B4010E94B46320E05B
:102B300030E040E85AE30E94B46323E333E343E325
:102B40005FE30E946461762E672ED82EC92E20E0A6
:102B500030E0A901D301F6016B2F7A2F8F2F9E2F22
:102B60000E94C96187FDE0C02DEC3CEC4CE45EE3C3
:102B7000D301F6016B2F762D8F2F9C2D0E94C961FA
:102B800087FDB4C020917202309173023C832B8385
:102B9000B901882777FD8095982F0E946B6220915C
:102BA00076023091770240917802509179020E942A
:102BB000B46369837A833C0103511E4EF80160813E
:102BC00071812DEE31E1E20EF31EF701C080D1805C
:102BD000882777FD8095982F0E946B62A50194014C
:102BE0000E94B46320E030E040E85AE30E94B463FE
:102BF0001B012C01B601882777FD8095982F0E9434
:102C00006B62A50194010E94B46320E030E040E8CB
:102C10005AE30E94B4639B01AC01C201B1010E945E
:102C2000646120E030E0A9010E94C96187FD9BC07A
:102C3000F80160817181F70100811181882777FD9A
:102C40008095982F0E946B62A50194010E94B46345
:102C500020E030E040E85AE30E94B4636B017C015D
:102C6000B801882777FD8095982F0E946B62A50197
:102C700094010E94B46320E030E040E85AE30E94EF
:102C8000B4639B01AC01C701B6010E9464619B0162
:102C9000AC010E9465610B811C810F5F1F4F262FC5
:102CA000372F482F592FB981AA816B2F7A2F862D64
:102CB000972D0E9465616B017C01B801882777FD23
:102CC0008095982F0E946B629B01AC01C701B601F1
:102CD0000E94D061609376027093770280937802AD
:102CE00090937902109373020093720210928D02F6
:102CF00071CD2DEC3CEC4CE45EEB602F712F8E2DF2
:102D00009F2D0E94B06318160CF4C0CED4CD2DECCC
:102D10003CEC4CE45EEB6E2D7F2D8C2D9D2D0E94A6
:102D2000B06318161CF3ECCE2DEC3CEC4CE45EEBDF
:102D3000D301F6016B2F762D8F2F9C2D0E94B0634F
:102D40001816A4F21FCF2DEC3CEC4CE45EEBD7013F
:102D5000F8016B2F7E2D8F2F902F0E94B0631816D5
:102D60000CF494CEE3CDF80160817181F70100810C
:102D70001181882777FD8095982F0E946B62A501AD
:102D800094010E94B46320E030E040E85AE30E94DE
:102D9000B4636B017C01B801882777FD8095982F7B
:102DA0000E946B62A50194010E94B46320E030E0B0
:102DB00040E85AE30E94B4639B01AC01C701B6012D
:102DC0000E94646190589B01AC010E94656163CFD1
:102DD0006091F9117091FA110091F7111091F811A9
:102DE000882777FD8095982F0E946B62A50194013A
:102DF0000E94B46320E030E040E85AE30E94B463EC
:102E00002B013C01B801882777FD8095982F0E94FF
:102E10006B62A50194010E94B46320E030E040E8B9
:102E20005AE30E94B4639B01AC01C301B2010E944A
:102E3000646190589B01AC010E946561FDCD8F9249
:102E40009F92AF92BF92CF92DF92EF92FF920F9339
:102E50001F93CF93DF9384EE91E0E9E0F0E1DF018F
:102E60009C011D9221503040E1F720E030E009E75D
:102E700041E2842E41E3942E48E9A42E44E4B42E8A
:102E800050E5C52E57E7D52E56EDE52E5DE3F52E20
:102E90004FEF5FEFBA01CFEFDFEF10E883EF96E679
:102EA000AFEDBFE3029FF001039FF00D1124E75F38
:102EB000FF4E1082118212821382148285829682C2
:102EC000A782B086C186D286E386F48615861686EA
:102ED0001786108A128A118A148A138A158A168A0A
:102EE000178A108E118E138E128E448F558F668F17
:102EF000778FD1A3C0A312A386A397A3A0A7B1A73E
:102F000012AA13AA14AA15AA13AE12AEEF59FF4FB4
:102F100010821182128213822F5F3F4F23303105BE
:102F200009F68091E20F823039F185EA9FE9AFEC32
:102F3000BFE38093820290938302A0938402B093B4
:102F4000850280937E0290937F02A0938002B093CB
:102F5000810286E194E00E942E13813A11F1DF9103
:102F6000CF911F910F91FF90EF90DF90CF90BF9086
:102F7000AF909F908F90089582E79CE6ACE9BFE305
:102F80008093820290938302A0938402B09385027F
:102F900080937E0290937F02A0938002B09381027F
:102FA000DECF44E050E062E872E087E194E00E9406
:102FB000641344E050E06EE772E08BE194E0DF914F
:102FC000CF911F910F91FF90EF90DF90CF90BF9026
:102FD000AF909F908F900C9464130F931F93CF9397
:102FE000DF932BED3FE049EC50E40E94AD628B0192
:102FF000D82FC92F2BED3FE049E450E4FE01712F9B
:103000008F2F9E2F0E94B063181674F42BED3FE0B3
:1030100049EC50E4FE01602F712F8F2F9E2F0E94EC
:1030200064618B01D82FC92F2BED3FE049E450ECB0
:10303000FE01602F712F8F2F9C2F0E94C96187FF87
:103040000EC02BED3FE049EC50E4FE01602F712FE4
:103050008F2F9C2F0E9465618B01D82FC92F9E0155
:10306000602F712F832F9C2FDF91CF911F910F9194
:1030700008952F923F924F925F926F927F928F921C
:103080009F92AF92BF92CF92DF92EF92FF920F93F7
:103090001F93CF93DF93CDB7DEB728970FB6F89481
:1030A000DEBF0FBECDBF9C838B838091A002909129
:1030B000A102892B09F40DC18B819C81813091057E
:1030C00009F4A6C00CF481C004970CF07EC0809176
:1030D000E50F0E94590D4B015C018091E70F0E94A2
:1030E000590D2B013C01C0907E02D0907F02E090F0
:1030F0008002F090810220E030E040E05FE3C70111
:10310000B6010E94B46368877F831C01762F6F81AC
:10311000272F362F422D532DC501B4010E94646123
:1031200069837A838C014B015C018091A2029091AA
:10313000A3028130910509F491C1029709F467C295
:1031400020E030E04AEA53E4C501B4010E94B463D0
:10315000A70196010E94D061382F292F862F972F23
:10316000A32FB22FBC01CD0190582BED3FE049E4D5
:1031700050E40E94B46320E030E044E353E40E9452
:10318000D0612091BE103091BF104091C01050917D
:10319000C1100E94656128960FB6F894DEBF0FBE7D
:1031A000CDBFDF91CF911F910F91FF90EF90DF90F6
:1031B000CF90BF90AF909F908F907F906F905F90D7
:1031C0004F903F902F900C94ED170E94690B50E0A8
:1031D00040E030E82FEB652F742F832F922F289635
:1031E0000FB6F894DEBF0FBECDBFDF91CF911F9118
:1031F0000F91FF90EF90DF90CF90BF90AF909F9096
:103200008F907F906F905F904F903F902F90089598
:1032100086E00E94590D4B015C0185E00E94590D2A
:103220002B013C01C0908202D0908302E090840286
:10323000F090850220E030E040E05FE3C701B60196
:103240000E94B46368877F831C01762F6F81272FCC
:10325000362F422D532DC501B4010E94646169834C
:103260007A838C014B015C018091A0029091A102B4
:103270008130910509F455C1029709F4D9C120E0C4
:1032800030E04AEA53E4C501B4010E94B463A701E7
:1032900096010E94D061382F292F862F972FA32FB8
:1032A000B22FBC01CD0190582BED3FE049E450E432
:1032B0000E94B46320E030E044E353E40E94D06114
:1032C0002091451030914610409147105091481080
:1032D00060CF86E00E94590D6B017C0120E030E058
:1032E00040E05FE3609182027091830280918402EA
:1032F000909185020E94B4639B01AC01C701B601A5
:103300000E9464611B018C012B013C0185E00E943D
:10331000590D6B017C0120E030E040E05FE36091FB
:1033200082027091830280918402909185020E94B2
:10333000B4639B01AC01C701B6010E946461862E93
:10334000972EA82EB92E20E030E0A901B101C801C6
:103350000E94C96187FD56C120E030E0A901C50186
:10336000B4010E94C96187FD48C1A5019401C30150
:10337000B2010E94C96187FD63C082E090E0909332
:10338000A1028093A0028091E50F0E94590D6B016C
:103390007C0120E030E040E05FE360917E027091CC
:1033A0007F0280918002909181020E94B4639B0110
:1033B000AC01C701B6010E9464611B018C012B01A5
:1033C0003C018091E70F0E94590D6B017C0120E0C8
:1033D00030E040E05FE360917E0270917F02809177
:1033E0008002909181020E94B4639B01AC01C701ED
:1033F000B6010E946461862E972EA82EB92E20E079
:1034000030E0A901B101C8010E94C96187FDF0C087
:1034100020E030E0A901C501B4010E94C96187FD27
:10342000E2C0A5019401C301B2010E94C96187FFF6
:103430000EC081E090E09093A3028093A2023CCE64
:1034400081E090E09093A1028093A0029CCF82E063
:1034500090E09093A3028093A2022ECE20E030E071
:10346000A901C8010E94C96187FD29C189819A818A
:10347000D8018B839C83AD83BE832DEC3CEC4CE464
:103480005FE3B885AF816B2F7A2F822D932D0E9439
:10349000B46369837A83182F092F762F6A81C80154
:1034A000272F362F492F582F6B817C818D819E814C
:1034B0000E94B06318160CF043CE82E090E0909327
:1034C000A3028093A20278856F81272F362F422D89
:1034D000532DC301B2010E9464611B018F839B8342
:1034E0002B013C0120E030E0A9010E94C96187FD69
:1034F000DAC0C101AF81BB81BC01CD01B981AA8114
:10350000F8012B2F3A2F4F2F502F0E94B06318161F
:103510000CF0B2C081E090E09093A3028093A202ED
:103520000FCE20E030E0A901C8010E94C96187FDEB
:10353000BEC089819A81D8018B839C83AD83BE8371
:103540002DEC3CEC4CE45FE3B885AF816B2F7A2F18
:10355000822D932D0E94B46369837A83182F092FDB
:10356000762F6A81C801272F362F492F582F6B815C
:103570007C818D819E810E94B06318160CF07FCEF5
:1035800082E090E09093A1028093A00278856F8101
:10359000272F362F422D532DC301B2010E946461A3
:1035A0001B018F839B832B013C0120E030E0A901AC
:1035B0000E94C96187FD73C0C101AF81BB81BC019D
:1035C000CD01B981AA81F8012B2F3A2F4F2F502F0F
:1035D0000E94B0631816ECF581E090E09093A10290
:1035E0008093A0024CCEB7FAB094B7F8B09419CF3C
:1035F00077FA709477F870940BCFB7FAB094B7F865
:10360000B094B3CE77FA709477F87094A5CE2DEC81
:103610003CEC4CE45FE3B885AF816B2F7A2F822DB1
:10362000932D0E94B46369837A83182F092F4BCF9F
:103630002DEC3CEC4CE45FE3B885AF816B2F7A2F27
:10364000822D932D0E94B46369837A83182F092FEA
:103650009DCF20E030E04AEA53E4C301B2010E946A
:10366000B463A70196010E94D06120E030E044E3FA
:1036700053E40E9465610FCE20E030E04AEA53E453
:10368000C301B2010E94B463A70196010E94D061F8
:1036900020E030E044E353E40E9465615DCDC30166
:1036A000B20190588ECFC301B201905827CFD501F7
:1036B000C401B0588B839C83AD83BE8341CFD501B9
:1036C000C401B0588B839C83AD83BE83D6CE20913A
:1036D000DF0E2230F9F0233019F1019729E7289FF6
:1036E000F001299FF00D1124E75FFF4E82E08083F7
:1036F0004183528363837483128A118A8DE491E03B
:10370000A0E0B0E0848F958FA68FB78F20E030E0E7
:10371000C90108958230910501F72FEF3FEFF8CFEF
:1037200083309105D1F6F9CF2F923F924F925F925D
:103730006F927F928F929F92AF92BF92CF92DF92C1
:10374000EF92FF920F931F93CF93DF93CDB7DEB726
:103750002C970FB6F894DEBF0FBECDBF5C012A01D7
:103760003B01680179011C0121E0221A310889E737
:10377000829DF001839DF00D1124E75FFF4E8CE2E6
:103780009CEEAAECB3E485839683A783B087118669
:103790001286138614861091DF0E123009F406C1CA
:1037A000133009F40BC120E030E0A901C701B601D4
:1037B0000E94C961882309F4CEC089E7829DD001A7
:1037C000839DB00D1124A75FBF4EBC87AB87D696F3
:1037D0008D919D910D90BC91A02D8A839B83AC838C
:1037E000BD839C01AD01C301B2010E946461698384
:1037F000872E982E092F20E030E0A9010E94C96190
:1038000087FDACC023EC38EB42E35EE3B9816B2F5C
:10381000782D892D902F0E94C96187FDADC020E0D1
:1038200030E0A901C701B6010E94C96187FDD6C079
:10383000A7019601B9816B2F782D892D902F0E94B9
:10384000D06120E030E04AE754E40E94B4636E8324
:10385000A72EB82E192F20E030E0A901B9816B2FD7
:10386000782D892D902F0E94B06318160CF0E7C0B8
:10387000AB85BC85D296CD92DD92ED92FC92D59728
:1038800089E7829DF001839DF00D1124E75FFF4ED3
:1038900082A993A9A4A9B5A986A797A7A0ABB1AB04
:1038A0008A819B81AC81BD81EB85FC85818392837C
:1038B000A383B483158616861786108A20E030E02D
:1038C00040E751E4BE816B2F7A2D8B2D912F0E9402
:1038D000D0615B018C016B017C0120E030E0A9012B
:1038E0000E94C96187FDA5C0B501C8010E94386268
:1038F000CB01AA2797FDA095BA2FEB85FC85848F75
:10390000958FA68FB78F128A118A468A578A608E42
:10391000718E81E090E0938F828F83E0808320E03E
:1039200030E0C9012C960FB6F894DEBF0FBECDBFB4
:10393000DF91CF911F910F91FF90EF90DF90CF908B
:10394000BF90AF909F908F907F906F905F904F90BF
:103950003F902F90089520E030E0E3CF23EC38EB48
:1039600042E35EEBB9816B2F782D892D902F0E9459
:10397000B06318160CF053CF123059F1133021F107
:1039800082E0AB85BC858C93FD01418252826382CB
:103990007482128A118A8DE491E0A0E0B0E0848FF5
:1039A000958FA68FB78F20E030E0BBCF32E0A31613
:1039B000B10409F0F8CE2FEF3FEFB3CF83E0A816A4
:1039C000B10409F0F0CEF7CFE3E0AE16B104C1F6D2
:1039D000F2CFB2E0AB16B10499F6EDCFD701C60134
:1039E000B0588F839887A987BA879C01AD01B981A8
:1039F0006B2F782D892D902F0E94D06120E030E030
:103A00004AE754E40E94B4636E83A72EB82E192FA0
:103A100020E030E0A901B9816B2F782D892D902FFE
:103A20000E94B06318167CF4CF80D884E984FA84AD
:103A30001FCFC701B60190580E94386259CFF7FADC
:103A4000F094F7F8F094EB85FC85C2AAD3AAE4AA17
:103A5000F5AA16CF2F923F924F925F926F927F926C
:103A60008F929F92AF92BF92CF92DF92EF92FF928E
:103A70000F931F93CF93DF93CDB7DEB72C970FB67D
:103A8000F894DEBF0FBECDBF5C012A013B01680187
:103A900079011C0121E0221A310889E7829DF00199
:103AA000839DF00D1124E75FFF4E8CE29CEEAAECA3
:103AB000B3E485839683A783B08711861286138625
:103AC00014861091DF0E123009F41EC1133009F470
:103AD00023C120E030E0A901C701B6010E94C961FD
:103AE000882309F4E6C089E7829DD001839DB00D4B
:103AF0001124A75FBF4EBC87AB87D6968D919D9151
:103B00000D90BC91A02D8A839B83AC83BD83EB85F4
:103B1000FC8562AD73AD882777FD8095982F0E9454
:103B20006B622BED3FE049EC50E40E94B4639B01D3
:103B3000AC016A817B818C819D810E9465619B01C2
:103B4000AC01C301B2010E9464616983872E982E83
:103B5000092F20E030E0A9010E94C96187FDACC0B7
:103B600023EC38EB42E35EE3B9816B2F782D892D8E
:103B7000902F0E94C96187FDADC020E030E0A9010F
:103B8000C701B6010E94C96187FDD6C0A701960191
:103B9000B9816B2F782D892D902F0E94D06120E064
:103BA00030E04AE754E40E94B4636E83A72EB82E37
:103BB000192F20E030E0A901B9816B2F782D892DD4
:103BC000902F0E94B06318160CF0E7C0AB85BC853F
:103BD000D296CD92DD92ED92FC92D59789E7829DA7
:103BE000F001839DF00D1124E75FFF4E82A993A998
:103BF000A4A9B5A986A797A7A0ABB1AB8A819B81E1
:103C0000AC81BD81EB85FC8581839283A383B483E2
:103C1000158616861786108A20E030E040E751E4CA
:103C2000BE816B2F7A2D8B2D912F0E94D0615B016D
:103C30008C016B017C0120E030E0A9010E94C96188
:103C400087FDA5C0B501C8010E943862CB01AA2733
:103C500097FDA095BA2FEB85FC85848F958FA68F55
:103C6000B78F128A118A468A578A608E718E81E0D8
:103C700090E0938F828F83E0808320E030E0C90161
:103C80002C960FB6F894DEBF0FBECDBFDF91CF915B
:103C90001F910F91FF90EF90DF90CF90BF90AF906A
:103CA0009F908F907F906F905F904F903F902F905C
:103CB000089520E030E0E3CF23EC38EB42E35EEB05
:103CC000B9816B2F782D892D902F0E94B063181623
:103CD0000CF053CF123059F1133021F182E0AB8553
:103CE000BC858C93FD014182528263827482128A68
:103CF000118A8DE491E0A0E0B0E0848F958FA68FCB
:103D0000B78F20E030E0BBCF32E0A316B10409F05A
:103D1000E0CE2FEF3FEFB3CF83E0A816B10409F058
:103D2000D8CEF7CF23E0A216B104C1F6F2CFF2E06D
:103D3000AF16B10499F6EDCFD701C601B0588F8305
:103D40009887A987BA879C01AD01B9816B2F782D1F
:103D5000892D902F0E94D06120E030E04AE754E4A2
:103D60000E94B4636E83A72EB82E192F20E030E096
:103D7000A901B9816B2F782D892D902F0E94B063F6
:103D800018167CF4CF80D884E984FA841FCFC70149
:103D9000B60190580E94386259CFF7FAF094F7F8BC
:103DA000F094EB85FC85C2AAD3AAE4AAF5AA16CFA3
:103DB0002F923F924F925F926F927F928F929F923B
:103DC000AF92BF92CF92DF92EF92FF920F931F9329
:103DD000CF93DF93CDB7DEB72C970FB6F894DEBF45
:103DE0000FBECDBF5C0149835A836B837C8328015E
:103DF00039014C0181E0881A910889E7889DF0011A
:103E0000899DF00D1124E75FFF4E8CE29CEEAAEC39
:103E1000B3E485839683A783B087118612861386C1
:103E200014861091DF0E123009F4F5C0133009F436
:103E3000FAC089E7889D1001899D300C1124E9E0C2
:103E4000F0E12E0E3F1ED101D6968D919D910D90E1
:103E5000BC91A02D8D839E83AF83B8879C01AD015B
:103E600069817A818B819C810E9464610E94ED1737
:103E70006B017C0120E030E0A9010E94C96187FD4F
:103E8000A0C023EC38EB42E35EE3C701B6010E9419
:103E9000C96187FDA1C020E030E0A901C301B201E2
:103EA0000E94C96187FDC5C0A3019201C701B60187
:103EB0000E94D06120E030E04AE754E40E94B463FD
:103EC000062FA72EB82E192F20E030E0A901C70138
:103ED000B6010E94B06318160CF0DDC0D101D29675
:103EE0004D925D926D927C92D59789E7889DF00105
:103EF000899DF00D1124E75FFF4E82A993A9A4A923
:103F0000B5A986A797A7A0ABB1AB8D819E81AF81E4
:103F1000B885F10181839283A383B48315861686C5
:103F20001786108A20E030E040E751E4602F7A2DB8
:103F30008B2D912F0E94D0615B018C016B017C0164
:103F400020E030E0A9010E94C96187FD9DC0B50154
:103F5000C8010E943862CB01AA2797FDA095BA2F0D
:103F6000F101848F958FA68FB78F128A118A89816C
:103F70009A81AB81BC81868B978BA08FB18F81E0BA
:103F800090E0938F828F83E0808320E030E0C9014E
:103F90002C960FB6F894DEBF0FBECDBFDF91CF9148
:103FA0001F910F91FF90EF90DF90CF90BF90AF9057
:103FB0009F908F907F906F905F904F903F902F9049
:103FC000089523EC38EB42E35EEBC701B6010E9493
:103FD000B06318160CF05FCF123009F44FC01330E5
:103FE00009F463C082E0D1018C9389819A81AB810D
:103FF000BC81F10181839283A383B483128A118AE5
:104000008DE491E0A0E0B0E0848F958FA68FB78F0C
:1040100020E030E0BCCF92E0A916B10409F009CF4E
:104020002FEF3FEFB4CFA3E0AA16B10409F001CF00
:10403000F7CFD301C201B05889879A87AB87BC8775
:104040009C01AD01C701B6010E94D06120E030E0C3
:104050004AE754E40E94B463062FA72EB82E192F06
:1040600020E030E0A901C701B6010E94B063181634
:10407000B4F449845A846B847C8430CFB2E0AB16AC
:10408000B10409F0AFCFCCCFC701B60190580E9460
:104090003862CB0161CF77FA709477F87094F101B0
:1040A00042AA53AA64AA75AA20CFE3E0AE16B104CF
:1040B00009F098CFB5CF2091DF0E2230D1F0233018
:1040C000E9F0019729E7289FF001299FF00D1124BD
:1040D000E75FFF4E20812330A9F028F025502230E1
:1040E00030F486E00895213069F0223001F180E05B
:1040F00008958230910529F78FEF08958330910557
:1041000001F7FACF29E7289FF001299FF00D11242C
:10411000E75FFF4E20E030E0A90162A973A984A9FE
:1041200095A90E94B063181644F481E0089581892E
:104130009289892BD1F383E0089582E00895623556
:10414000A9F0633581F0663459F0A098A19820E178
:10415000829FC00111249093890080938800089564
:10416000A09AA198F4CFA09AA19AF1CFA098A19A71
:10417000EECF6235A9F0633581F0663459F0A2982C
:10418000A59820E1829FC001112490938B00809319
:104190008A000895A29AA598F4CFA29AA59AF1CF81
:1041A000A298A59AEECF0F931F938A019B0177FDEA
:1041B00028C0F8010F3F110519F010F0EFEFF0E003
:1041C0008130910591F074F0049764F477FD33C069
:1041D000452B462B472BE9F066E48E2F1F910F915C
:1041E0000C94B9201F910F91089577FD1EC0452BA7
:1041F000462B472BA1F066E48E2F1F910F910C9454
:104200009F20002711279801041B150B260B370B45
:10421000D0CF6EE48E2F1F910F910C94B9206EE4D5
:104220008E2F1F910F910C949F2062E58E2F1F916E
:104230000F910C949F2062E58E2F1F910F910C948B
:10424000B920CF93DF939C012150310949E7429F68
:10425000E001439FD00D1124C75FDF4E1EA61FA6AD
:1042600018AA19AA4D89413061F14230E1F0442386
:1042700009F475C0433011F54881423009F467C034
:10428000433009F474C049E7429FF001439FF00DA9
:104290001124E75FFF4E46A957A960AD71ADDF91CC
:1042A000CF910C94671B20E030E0A9016EA17FA1A3
:1042B00088A599A50E94C96181112CC0DF91CF9179
:1042C000089520E030E0A9016EA17FA188A599A5FD
:1042D0000E94C961882391F383E088838FEF9FEF69
:1042E000DC018C8F9D8FAE8FBF8F8EA99FA9A8AD4B
:1042F000B9AD89839A83AB83BC838EA19FA1A8A506
:10430000B9A58AAB9BABACABBDAB1A8A198ADF915E
:10431000CF91089583E088838FEF9FEFDC018C8F2E
:104320009D8FAE8FBF8F8EA99FA9A8ADB9AD898390
:104330009A83AB83BC838EA19FA1A8A5B9A5B058D1
:104340008AAB9BABACABBDAB1A8A198AB7CF498994
:104350005A89452B09F497CF1C8A1B8AAFCF188244
:1043600040E050E0BA01DF91CF910C94D320498115
:104370005A816B817C81DF91CF910C94671B2F92C6
:104380003F924F925F926F927F928F929F92AF92E5
:10439000BF92CF92DF92EF92FF920F931F93CF9332
:1043A000DF93CDB7DEB7AC970FB6F894DEBF0FBE84
:1043B000CDBF89E290E19E878D8739E0432E30E1C1
:1043C000532EAEE1B0E1BC87AB8740E9642E42E0FA
:1043D000742EEBE2F0E1F88BEF8789E490E19887A7
:1043E0008F835FE3252E50E1352EA6E7B0E1BC8B2D
:1043F000AB8BEEE6F0E1FE8BED8B84E590E19A87E6
:104400008987ABE3B0E1BE83AD83E7E3F0E1FA8BEC
:10441000E98B83E490E19C838B83A2E0B0E0BA83D4
:10442000A983812C912C830138A62FA2120124018B
:10443000BFEF4B1A5B0A0E945F578091DF0E8230FC
:1044400009F4E9C1D1011596CD90DD90ED90FC9075
:10445000189721E231E348E954E4C701B6010E940C
:10446000C96187FF0DC02FE33EEC42E451E4C70170
:10447000B6010E946561F101658376838783908729
:10448000D1011996CD90DD90ED90FC901C9720E520
:1044900037E746ED5DE3C701B6010E94C96187FFBA
:1044A0000DC02FE132E449E85AE3C701B6010E948A
:1044B0006561F1016187728783879487C2010E94D9
:1044C00039183B015C01862F972DAA2DBB2DEFA13A
:1044D000F8A580839183A283B383188F0F8B8F01FC
:1044E0001DC080918E0290918F020B977CF5C201C6
:1044F0000E9439183B015C01862F972DAA2DBB2DF8
:10450000F80180839183A283B38380918E0290917E
:104510008F02019690938F0280938E02AF89B88D9F
:10452000CD90DD90ED90FC90A7019601662D772D42
:104530008A2D9B2D0E9464610E94ED1723EC38EBBD
:1045400042E35EE30E94B06318165CF2C8010F8973
:10455000188D98A78FA310928F0210928E0220E0E0
:1045600030E040E250EC662D772D8A2D9B2D0E9485
:10457000C96187FF0EC120E030E040E250E4C7018E
:10458000B6010E94B06318160CF003C1EB81FC81E8
:1045900080819181019691838083AFA1B8A56C90B1
:1045A00011967C9011971296AC9012971396BC902E
:1045B000862D972DAA2DBB2DF80180839183A28390
:1045C000B383D1018C91833009F4ABC308F0FEC0F2
:1045D000813009F48EC308F067C0F101848D958D98
:1045E000A68DB78D0097A105B10509F400C50CF49F
:1045F000F4C00197A109B109F101848F958FA68FAD
:10460000B78FE981FA81349709F4ECC0E981FA8126
:104610003196FA83E9838D859E8587589F4F9E87C3
:104620008D8799E7290E311CAB85BC85A758BF4FF4
:10463000BC87AB870C5F1F4FEF85F889E758FF4FAA
:10464000F88BEF878F81988587589F4F98878F8346
:10465000AFA1B8A5A758BF4FB8A7AFA3EB89FC89F6
:10466000E758FF4FFC8BEB8B8D899E8987589F4FB6
:104670009E8B8D8BA985BA85A758BF4FBA87A9870E
:10468000ED81FE81E758FF4FFE83ED8389899A898A
:1046900087589F4F9A8B898BAB81BC81A758BF4F9E
:1046A000BC83AB834201C3CEF101848D958DA68D71
:1046B000B78D0097A105B10509F493C19CF001974E
:1046C000A109B109F101848F958FA68FB78FAFA192
:1046D000B8A56C9011967C9011971296AC90129799
:1046E0001396BC90262D372D4A2D5B2DF10161814B
:1046F0007281838194810E9464610E94ED176B0135
:104700007C0120E030E0A9010E94C96187FD45C419
:1047100023EC38EB42EB5DE3C701B6010E94C961AF
:1047200087FD46C4D10151968D919C915297892B5A
:1047300009F465C120E030E0A901C701B6010E947B
:10474000C96187FD38C5C701B60120918802309143
:10475000890240918A0250918B020E94B063181620
:104760000CF04DC1EF81F88520812F5F208330E070
:1047700080918602909187028217930708F042C1C8
:10478000D1011C9240E050E0BA01C2010E94D32046
:1047900024C020E030E040E250E4662D772D8A2DE1
:1047A0009B2D0E94B06318160CF002CF20E030E081
:1047B00040E250ECC701B6010E94C96187FFF8CE04
:1047C000EB81FC81808191810197E5CE853009F4F0
:1047D00082C138F1863009F453C1E981FA813497F6
:1047E00009F014CFAC960FB6F894DEBF0FBECDBF64
:1047F000DF91CF911F910F91FF90EF90DF90CF90BD
:10480000BF90AF909F908F907F906F905F904F90F0
:104810003F902F900895E2E04E16510409F012CE19
:10482000F5CE609165027091660280916702909169
:1048300068020E94696220E030E04AE754E40E9486
:10484000D0616F8B7B8F8F8F98A3F101EF5BFF4F50
:104850006081772767FD7095872F972F0E946B6285
:1048600020E030E040E05CE30E94B46320E030E010
:1048700040EA50E40E94B46320E030E040E05FE3AF
:104880000E94B4637B01D82EC92EF9E7F89D300150
:10489000F99D700C112480E590E1680E791EAA2420
:1048A000A394B12C3CA22BA21EA30DA35AA649A6E9
:1048B00047017CA66BA6B501882777FD8095982FC8
:1048C0000E946B622BED3FE049EC50E40E94B46320
:1048D000BF89AB8DEF8D18A12B2F3A2F4E2F512F63
:1048E0000E94B46320E030E040E251E40E94D061D5
:1048F0007B018C017F2D802F912F0E9417641B015B
:104900002C01F30135976081772767FD7095872F1C
:10491000972F0E946B6220E030E040E05CE30E9451
:10492000B46320E030E040EA50E40E94B463A201A6
:1049300091010E94B463F601282D392D4F2F5C2D73
:104940000E9465611B014C019FEF691A790A6E2D67
:104950007F2D802F912F0E94CD616B017C01ABA533
:10496000BCA56C91772767FD7095872F972F0E94C4
:104970006B6220E030E040E05CE30E94B46320E042
:1049800030E040EA50E40E94B463A70196010E941F
:10499000B463222D332D482D592D0E9465614B01A2
:1049A000D82EC92EBFEFAB1ABB0AE5E0AE16B10494
:1049B00009F07FCF2BA03CA00DA11EA149A45AA4B1
:1049C0007B019601862F9F2DA32FB22FF1018183AA
:1049D0009283A383B483128A118A8FEF9FEFDC0145
:1049E00072CE81899289892B09F4F9C28FEF9FEFEA
:1049F000DC01F101848F958FA68FB78FEECEEF810A
:104A0000F8851082D10115962D913D914D915C91C3
:104A10001897C701B6010E94B4634B015C01F10114
:104A2000258536854785508961857285838594857E
:104A30000E94B4639B01AC01C501B4010E94656191
:104A40000E943862AB01BC01C2010E94D3202FE852
:104A500032EC45E75CE3C701B6010E94B4639B01F9
:104A6000AC01D1011D966D917D918D919C915097D6
:104A70000E946561F101658776878787908BADCE4F
:104A8000A985BA852C91213009F4C3C2223009F4DA
:104A900065C22111A2CE8091650290916602A0911B
:104AA0006702B0916802EB89FC8940815181628183
:104AB000738184179507A607B70708F404C4F101AA
:104AC000E45BFF4F8081882309F470C3E2E0A9858D
:104AD000BA85EC9382CEF101848D958DA68DB78D2C
:104AE0000097A105B10509F42FC2181619061A0678
:104AF0001B0644F40197A109B109F101848F958F38
:104B0000A68FB78F2FE832EC45E75CE3AD81BE811D
:104B10006D917D918D919C910E94B463F1012181F1
:104B20003281438154810E946561D62EC72E7C015B
:104B3000A601852F942FAE2DBF2DF1018183928385
:104B4000A383B48322E93AE046E850E4AD81BE8114
:104B50006D917D918D919C910E94C96118166CF1A7
:104B60002FE832EC45E75CE3F10162A573A584A56B
:104B700095A50E94B4632FE832EC45E75CE30E9400
:104B8000B46320E030E040E05FE30E94B4639B0147
:104B9000AC01D6016B2F7A2F8E2D9F2D0E9465615F
:104BA000D62EC72E7C01A601852F942FAE2DBF2DAA
:104BB000F10181839283A383B483AFA1B8A52D9122
:104BC0003D914D915C91D6016B2F7C2D8E2D9F2DAB
:104BD0000E9464610E94ED176B017C01F101258147
:104BE0003681478150850E94B4634B015C01D1013D
:104BF0001D962D913D914D915C91509719966D9117
:104C00007D918D919C911C970E94B4639B01AC0196
:104C1000C501B4010E9465610E943862AB01BC010C
:104C2000C2010E94D3202FE832EC45E75CE3C701C4
:104C3000B6010E94B4639B01AC01F10165857685E4
:104C4000878590890E946561D1011D966D937D9342
:104C50008D939C9350972FE832EC45E75CE39A964E
:104C60006D917D918D919C919D970E94B463ED8192
:104C7000FE8120813181428153810E946561D62E5F
:104C8000C72E7C0122E93AE046E850E4D6016B2FBA
:104C90007A2F9F2D0E94B06318160CF442C122E9AE
:104CA0003AE046E850ECD6016B2F7A2F8E2D9F2DDF
:104CB0000E94C96187FF70C382E99AE0A6E8B0EC60
:104CC000ED81FE8180839183A283B38362E9D62E36
:104CD0007AE0C72EE6E8EE2EF0ECFF2EA601852F37
:104CE0009C2DAE2DBF2DF10186A397A3A0A7B1A740
:104CF00074CDAB85BC858C91882309F40FC18130BC
:104D000009F44AC2EF85F889408150E051954195F8
:104D10005109662757FD6095762FC2010E94D32066
:104D20005CCDF101848D958DA68DB78D0097A10581
:104D3000B10509F4B5C044F00197A109B109F10129
:104D4000848F958FA68FB78FF101EF59FF4F808029
:104D50009180A280B38020E030E0A901C501B401B8
:104D60000E94C961882309F4E9C1A989BA898D9192
:104D70009D910D90BC91A02D8F8B988FA98FBA8F8C
:104D800020E030E0A901BC01CD010E94C96187FD8E
:104D9000F7C28F89988DA98DBA8D8B8F9C8FAD8F1F
:104DA000BE8FAD81BE81CD90DD90ED90FC9020E076
:104DB00030E0A901C701B6010E94C961A7019601AF
:104DC00087FDE8C26B8D7C8D8D8D9E8D0E94B063BA
:104DD00018160CF04EC2E989FA89C082D182E282AB
:104DE000F3822FE832EC45E75CE3C701B6010E948D
:104DF000B463F10121813281438154810E94656154
:104E0000C62ED72EE82EF92ED1011196CD92DD9225
:104E1000ED92FC921497AFA1B8A52D913D914D91C3
:104E20005C910E9464610E94ED176B017C0120E09F
:104E300030E0A9010E94C9614601570187FDA7C161
:104E4000609188027091890280918A0290918B0210
:104E50009B01AC010E9465619B01AC01C501B401DD
:104E60000E94B063EF81F88518160CF08EC1208186
:104E70002F5F208330E08091860290918702821715
:104E8000930708F0AACCD1011C925B961C921E924B
:104E90005A9740E050E0BA01C2010E94D3209DCC55
:104EA00081E090E0928B818BD10115861686178662
:104EB000108AED85FE8580819181892B09F45DC181
:104EC000E2E0D101EC935A968D919C915B97892BEE
:104ED00069F056968D919D910D90BC91A02DF10198
:104EE00081839283A383B483138E128EEFEFFFEF3F
:104EF000AD85BE85ED93FC93D10153968D919C9128
:104F00005497892B09F472CD82E490E0A0E0B0E0E0
:104F1000F101848F958FA68FB78F5FCCF10110823E
:104F20005CCC82E99AE0A6E8B0E4ED81FE81808362
:104F30009183A283B383A2E9DA2EBAE0CB2E86E86E
:104F4000E82E90E4F92ECACE8FEF9FEFDC01848F1C
:104F5000958FA68FB78F23E02083C7CD8091650200
:104F600090916602A0916702B0916802F101EB583E
:104F7000FF4F408151816281738184179507A60795
:104F8000B70708F41CC1F10120838FEF9FEFDC010C
:104F9000848F958FA68FB78F20CC23EC38EB42EB14
:104FA0005DEBC701B6010E94B06318160CF0BACBD6
:104FB000E1E0F0E0D1015296FC93EE9351975396C5
:104FC0008D919C915497892B09F0DBCB8FEF9FEF4C
:104FD000DC01F101848F958FA68FB78FA3CB108250
:104FE00040E050E0BA01C2010E94D320F6CBAD856B
:104FF000BE858C91EB85FC858083C2010E942121B6
:105000008FEF9FEFDC01F101848F958FA68FB78F13
:10501000E4CB8091650290916602A0916702B09105
:105020006802F101EF58FF4F408151816281738125
:1050300084179507A607B70708F048CD6091650269
:105040007091660280916702909168027101F1E5AA
:10505000EF0EF11CAB89BC898D909D90AD90BC90FA
:10506000681979098A099B090E94696220E030E089
:105070004AE754E40E94D061ED89FE8920813181A4
:10508000428153810E94B463D7012D913D914D918E
:105090005C910E946561C62ED72EE82EF92EF10193
:1050A000C182D282E382F482AFA1B8A52D913D9155
:1050B0004D915C910E9464610E94ED176B017C012F
:1050C000F10125813681478150850E94B4634B01EF
:1050D0005C01D1011D962D913D914D915C915097B0
:1050E00019966D917D918D919C911C970E94B4634E
:1050F0009B01AC01C501B4010E9465610E94386248
:10510000AB01BC01C2010E94D3202FE832EC45E77D
:105110005CE3C701B6010E94B4639B01AC01F101DD
:1051200065857685878590890E946561D1011D9688
:105130006D937D938D939C9350974FCB2FE832ECDA
:1051400045E75CE3ED81FE8160817181828193811D
:105150000E94B463D10111962D913D914D915C91C6
:1051600014970E946561C62ED72EE82EF92EF10104
:10517000C182D282E382F4824ECE1C9240E050E0A3
:10518000BA01C2010E94D320B1CE10823BCCB7FA43
:10519000B094B7F8B09454CEAF85B8894C9150E034
:1051A00060E070E0C2010E94D32017CBE1E0A98546
:1051B000BA85EC9312CBC701B6019058C6CA60916C
:1051C0006502709166028091670290916802F10118
:1051D000EF58FF4FC080D180E280F3806C197D09C9
:1051E0008E099F090E94696220E030E04AE754E49A
:1051F0000E94D061B62EA72E982E892EF101E35A77
:10520000FF4F2081318142815381D501F4016B2F01
:105210007A2F8F2F9E2F0E94B463D501F4012B2F7C
:105220003A2F4F2F5E2F0E94B46320E030E040E021
:105230005FE30E94B4636B017C01AD89BE892D914F
:105240003D914D915C91D501F4016B2F7A2F8F2FF9
:105250009E2F0E94B4639B01AC01C701B6010E945E
:105260006561F101EB5AFF4F208131814281538109
:1052700010CFC701B6010E94CB106B017C012FE853
:1052800032EC45E75CE3C501B4010E94B463A701B9
:1052900096010E94B4639B01AC016F89788D898D62
:1052A0009A8D0E946561C62ED72EE82EF92E462FC4
:1052B000572F682F792FA989BA894D935D936D93E4
:1052C0007C9313978ECD60916502709166028091F8
:1052D000670290916802F101E759FF4FC080D180C9
:1052E000E280F3806C197D098E099F090E94696232
:1052F00020E030E04AE754E40E94D061F62EE72E29
:10530000D82EC92EF101E75AFF4F20813181428109
:105310005381D701F6016B2F7A2F8F2F9E2F0E947A
:10532000B463D701F6012B2F3A2F4F2F5E2F0E9427
:10533000B46320E030E040E05FE30E94B463F10139
:10534000E35BFF4F20813181428153810E9465617F
:10535000C62ED72EE82EF92ED1011196CD92DD92D0
:10536000ED92FC921497EFA1F8A520813181428142
:1053700053810E9464610E94ED176B017C0142CB56
:105380008F89988DA98DBA8DB0588B8F9C8FAD8FDA
:10539000BE8F07CD505816CDA601852F942FAE2D68
:1053A000BF2DED81FE8180839183A283B38396CC50
:1053B0001092BF0210920910109282101092FB10EE
:1053C0006EE480E00E949F206EE480E00C94B9209F
:1053D000019729E7289FF001299FF00D1124E75F2D
:1053E000FF4E8CE29CEEAAECB3E485839683A78300
:1053F000B087118612861386148608957F928F9245
:105400009F92AF92BF92CF92DF92EF92FF920F9353
:105410001F93CF93DF9300D000D0CDB7DEB780E1EC
:1054200090E00E942E13813A09F444C065E4C62E30
:1054300060E1D62EE12CF12C01E010E0C8010E94C1
:105440003918DC01CB01B05889839A83AB83BC83C4
:10545000F60180839183A283B38344E050E0BE01D0
:105460006F5F7F4FC7010E943F130F5F1F4FF9E728
:10547000CF0ED11C84E0E80EF11C04301105F1F6CA
:1054800061EA80E190E00E94001321E030E0C90170
:105490000F900F900F900F90DF91CF911F910F9170
:1054A000FF90EF90DF90CF90BF90AF909F908F9044
:1054B0007F90089575E4A72E70E1B72E812C912C72
:1054C00000E010E0E9E77E2E709EB001719E700D45
:1054D00011246B5B7F4E44E050E0C4010E946413D2
:1054E000F501C080D180E280F38020E030E040E42C
:1054F00050E4C701B6010E94C96187FF0AC020E0DD
:1055000030E040E450ECC701B6010E94B0631816C9
:105510002CF0F50110821182128213820F5F1F4F4F
:10552000F4E08F0E911C89E7A80EB11C0430110520
:1055300059F620E030E0ABCF1092451010924610A3
:1055400010924710109248101092BE101092BF1087
:105550001092C0101092C110109237111092381191
:105560001092391110923A1160EA80E190E00E94A5
:1055700000130E94FE2980E090E008956091DF0E04
:10558000E9E0F0E181E090E020E030E0623099F085
:105590006330A9F04081442321F041895289452B91
:1055A000A9F08330910571F02F5F3F4F0196E758C6
:1055B000FF4F623069F72130310561F7F5CF2230B6
:1055C000310541F720E030E0C901089521E030E0E5
:1055D000FBCF2F923F924F925F926F927F928F926A
:1055E0009F92AF92BF92CF92DF92EF92FF920F9372
:1055F0001F93CF93DF93CDB7DEB76C970FB6F894B8
:10560000DEBF0FBECDBF3C011A012B0109831A83F7
:105610002B833C8320E030E0A901C201B1010E944C
:10562000C96187FD47C420E030E0A90169817A8122
:105630008B819C810E94C96187FD32C420E030E0EB
:10564000A901C701B6010E94C96187FD24C4C30135
:1056500001979E878D8789E7AD85BE858A9F8001EA
:105660008B9F100D1124075F1F4EF80162AD73ADC3
:10567000882777FD8095982F0E946B622BED3FE085
:1056800049EC50E40E94B463D801D6962D913D9127
:105690004D915C91D9970E9465619B01AC01C50158
:1056A000B4010E946461862EB72E982EA92E862FF3
:1056B0009B2DA92DBA2D8D839E83AF83B887A20120
:1056C0009101C701B6010E94D06169877A878B87F3
:1056D0009C8729813A814B815C81C701B6010E9478
:1056E000D0616D8B7E8B8F8B988FF801128A118A17
:1056F00020E030E0A901682D7B2D892D9A2D0E9494
:10570000C96187FDD6C179856A859B858C85272FE0
:10571000362F492F582FC701B6010E94B46320E0ED
:1057200030E040E05FE30E94B4636F87788B682EBF
:10573000998B7D896E899F89888D272F362F492FD8
:10574000582FC701B6010E94B46320E030E040E06A
:105750005FE30E94B4636A8B772E8B8B9C8B762FD2
:10576000982F8C89272F372D492F582FBF85A8892F
:10577000E9896B2F7A2F862D9E2F0E9465619B01F0
:10578000AC01682D7B2D892D9A2D0E94C96187FF60
:10579000DFC1882D9B2DA92DBA2D898F9A8FAB8FB4
:1057A000BC8FA2019101C201B1010E9465619B0100
:1057B000AC0160E070E080E89FE30E94D0614B01A3
:1057C0005C0129813A814B815C81CA01B9010E9447
:1057D00065619B01AC0160E070E080E89FE30E949E
:1057E000D0619B01AC01C501B4010E9465619B01C0
:1057F000AC01698D7A8D8B8D9C8D0E94D0610E9449
:1058000021646B017C01A20191010E94D061B62E3E
:10581000A72E982E892E29813A814B815C81C70160
:10582000B6010E94D06169877A878B879C8789E758
:10583000AD85BE858A9F80018B9F100D1124075F67
:105840001F4EF80112AA13AA14AA15AAE55BFF4F6E
:1058500010826D817E818F8198850E94CB103801E6
:10586000F5E66F0E711CA70196010E94B463D30187
:105870006D937D938D939C9313976D817E818F8122
:1058800098850E94CB109B01AC017801B9E5EB0E25
:10589000F11CC201B1010E94B463F70160837183FE
:1058A000828393836D817E818F8198850E94CB1046
:1058B0009B01AC017801FDE5EF0EF11C69817A8155
:1058C0008B819C810E94B463DC01CB01B058F7014D
:1058D00080839183A283B38386E0D8018C938FEF7A
:1058E0009FEFDC01F801848F958FA68FB78FE45B63
:1058F000FF4F81E08083D801D696CD90DD90ED906A
:10590000FC90D997F801C182D282E382F482E35BF2
:10591000FF4FC082D182E282F382D3012D913D916B
:105920004D915C91D501F4016B2F7A2F8F2F9E2F13
:105930000E94B46320E030E040E05FE30E94B46383
:105940009B01AC01C701B6010E9465610E94ED1781
:10595000F801EB5AFF4F60837183828393838091B8
:10596000650290916602A0916702B0916802F80109
:10597000E759FF4F80839183A283B38320E030E017
:105980004AE754E4D501F4016B2F7A2F8F2F9E2F15
:105990000E94B4633B014C01609165027091660204
:1059A00080916702909168027801BDE6EB0EF11CD0
:1059B0000E9469629B01AC01662D772D882D992D7F
:1059C0000E9465610E943D62F7016083718382835A
:1059D000938320E030E04AE754E4B985AA85FB854B
:1059E000EC856B2F7A2F8F2F9E2F0E94B4631B01A3
:1059F0002C0160916502709166028091670290911E
:105A000068027801F1E7EF0EF11C0E9469629B01C8
:105A1000AC01622D732D842D952D0E9465610E942D
:105A20003D62D7016D937D938D939C931397C090A6
:105A30006502D0906602E0906702F090680258011B
:105A4000B5E7AB0EB11C222D332D442D552D662DFF
:105A5000772D882D992D0E9465612B013C01C7018E
:105A6000B6010E9469629B01AC01C301B2010E94B0
:105A700065610E943D62F501608371838283938337
:105A80006C960FB6F894DEBF0FBECDBFDF91CF91FD
:105A90001F910F91FF90EF90DF90CF90BF90AF904C
:105AA0009F908F907F906F905F904F903F902F903E
:105AB00008956D817E818F8198859058698F7A8F46
:105AC0008B8F9C8F79856A859B858C85272F362FB8
:105AD000492F582FC701B6010E94B46320E030E07F
