:100000000C94A2010C94C1010C94C1010C94C10187
:100010000C94C1010C94C1010C94C1010C94C10158
:100020000C94C1010C9480020C94C1010C94C10188
:100030000C94C1010C94C1010C94C1010C94C10138
:100040000C94C1010C94C1010C94C1010C94C10128
:100050000C94C1010C94C1010C94C1010C94C10118
:100060000C94C1010C94C1010C94C1010C94C10108
:100070000C94C1010C94F9130C94C1010C94C101AE
:100080000C94C1010C94C1010C94C1010C94C101E8
:100090000C94BF3E0C94C1010C94C1010C94995274
:1000A0000C94C1010C94C1010C94445C0C94555CFB
:1000B0000C94C1010C94C1010C94C1010C94DB0A95
:1000C0000C94C1010C94C1010C94C1010C94C101A8
:1000D0000C94C1010C94C1010C94C1010C94C10198
:1000E0000C94C1010C94C1010C94C1010C94C10188
:1000F0000C947E5D0C94C1010C94C1010C94525D72
:100100000C94C1010C94C1010C94C1010C94C10167
:100110000C94C1010C94C1010C94C1010C94C10157
:10012000AF279627B422C326FA250825DC24C4234A
:10013000C4270C3544352836A236BE361B37A137C6
:10014000BB372C391D3894380F360346AF40A043D7
:10015000B943C4430544134436442C424F426F42D2
:10016000B342DF42344370438E478843D940F24064
:100170001B4158419241A841CC410740D241DB414B
:10018000E941FE4118421B421D42264252485F4847
:100190000740704890481B49F1480A495E456F4541
:1001A0007A458245C745B240EB45CA45CF45E2494D
:1001B000FA49A140194A154BEF4AF74AA647A94701
:1001C000B647E747EA470848074007400740074067
:1001D000074007400740294845484B481346164604
:1001E0006746E446F5460D472747594411454140C7
:1001F00007407B403D4570448F449444EB44E84ABB
:10020000B74ACC4A3E4A614A794A9C4A41496B4EB8
:10021000D14F454F734FE94EA54FC94FF44E104F84
:10022000E94E1E4F05A84CCDB2D44EB93836A902BE
:100230000C50B9918688083CA6AAAA2ABE000000E4
:10024000803F6E616E00696E660000407A10F35A5E
:1002500000A0724E18090010A5D4E80000E8764806
:10026000170000E40B54020000CA9A3B000000E1B2
:10027000F505000080969800000040420F00000045
:10028000A08601000000102700000000E803000025
:1002900000006400000000000A00000000000100EF
:1002A000000000002C76D888DC674F0823DFC1DF10
:1002B000AE59E1B1B796E5E3E453C63AE651997613
:1002C00096E8E6C28426EB898C9B62ED407C6FFC4D
:1002D000EFBC9C9F40F2BAA56FA5F490055A2AF78F
:1002E0005C936B6CF9676DC11BFCE0E40D47FEF598
:1002F00020E6B500D0ED902E030094357705008000
:10030000841E080000204E0A000000C80C3333335E
:10031000330F986E12831141EF8D2114893BE655FE
:1003200016CFFEE6DB18D1844B381BF77C1D901DE1
:10033000A4BBE424203284725E228100C9F124EC43
:10034000A1E53D2711241FBECFEFD1E4DEBFCDBF15
:1003500013E0A0E0B2E0E2E0F0EE00E00BBF02C08C
:1003600007900D92A439B107D9F716E3A4E9B3E0D9
:1003700001C01D92AC3DB107E1F70E942E100C9414
:10038000FF6F0C94000081E0809310028091100BAD
:1003900086FF04C08091100B87FDADC08091100BCB
:1003A00086FF28C08091C4029091C502892B19F163
:1003B0008091C102811129C00E943F2D1092C50277
:1003C0001092C4021092C3021092C2021092C10293
:1003D00081E00E94270C1092CB021092CA02109268
:1003E000C9021092C8021092C7024FEF60E080E08D
:1003F0000C94010B089583E00E94270C0E942B0AA5
:10040000892B09F476C00C94B2070E94CA3B80ED98
:100410008093E92B8EE08093EA2B8091C402909127
:10042000C5029093EB2B8091C4029091C5028093FA
:10043000EC2B1092ED2B86E78093EE2B88E08093D7
:10044000EF2B1092F02B1092F12B1092F22B1092B6
:10045000F32B8FEF8093F42B1092F52B82E1809396
:10046000F62B6091EA2B20E04FEF5FEF89EE9BE2E5
:100470000E945E516091EA2B20E04FEF5FEF89EE22
:100480009BE20E945E516091EA2B20E04FEF5FEF0C
:1004900089EE9BE20E945E516091EA2B20E04FEFD3
:1004A0005FEF89EE9BE20E945E516091EA2B20E0B3
:1004B0004FEF5FEF89EE9BE20E945E516091EA2B65
:1004C00020E04FEF5FEF89EE9BE20E945E511092B9
:1004D00038121092C60280E090E0FC01EE0FFF1F80
:1004E000E759F44D11821082019680349105A9F7E5
:1004F00063CF0C9402070E94EE2D83E00C94270C2E
:100500001F920F920FB60F9211240F900FBE0F90F3
:100510001F9018950E9414068091C4029091C50204
:10052000892B31F08091CA029091CB020E94883CC5
:100530000C94FB3BCF93DF93CDB7DEB729970FB673
:10054000F894DEBF0FBECDBF0E9414068091C40296
:100550009091C502892B21F08091C10281111BC0AD
:100560008091C7028D7F8130D9F18091C402909132
:10057000C502892B29F08091C102882309F460C04B
:100580000E94943D29960FB6F894DEBF0FBECDBFF2
:10059000DF91CF9108958091CA029091CB02892B6F
:1005A00009F048C08091C60290E0019663E070E0D7
:1005B0000E943C6C8093C6028091C602813009F48F
:1005C00055C008F440C0823059F60E943F2D4FEFCD
:1005D0006FEF80E00E94010B89E080933812D2CF48
:1005E00082E08093C7028091C4029091C502892B5A
:1005F000F1F080ED898389E08A838091C402909133
:10060000C5029B838091C4029091C5028C831D8298
:100610008DE48E8383E08F83188682E1898720E0D2
:100620004FEF5FEF69E0CE0101960E945E510E949C
:100630003F2DA8CF8091C602882309F491CFB2CF75
:100640000E94D33D9FCF8091CA029091CB02892B0B
:1006500009F086CF0E943F2D0E94CA3B4FEF60E019
:1006600080E00E94010B109238128CCF0E94CA3B8E
:1006700040E06FEF80E00E94010B87E0809338122A
:1006800081CFCF92DF92EF92FF920F931F93CF9380
:10069000DF93CDB7DEB72B970FB6F894DEBF0FBE52
:1006A000CDBFD82EE62EE826809165028823C1F1C1
:1006B000E6FA442740F9E7FC5EC0E5FC446066FDCD
:1006C00051C030E021E067FD51C0226065FF51C09C
:1006D000346080E289838AE08A8380916B02909102
:1006E0006C02A0916D02B0916E028B839C83AD83EE
:1006F000BE834F83388729871A86CE0101960E94D0
:1007000071112B960FB6F894DEBF0FBECDBFDF91EF
:10071000CF911F910F91FF90EF90DF90CF900895B0
:100720006623B9F0809110028111EBCFE6FC27C05F
:1007300020E030E0E7FC4EC0E5FE41C065FD3FC073
:10074000D6FC41C0D5FC72C0D7FEDBCF0E949A0216
:10075000D8CF80911002882329F3109210021092B2
:100760000F02CFCF31E020E067FFAFCF326065FDF1
:10077000AFCF2460AECF4260E5FEA1CF9FCF66FF32
:1007800030C080ED97E0A0E0B0E08093160B90932E
:10079000170BA093180BB093190B81E08093150BE6
:1007A00023EC31E030931B0B20931A0B85E19BE087
:1007B0006B870E94D85120E030E06B85BBCF232BA4
:1007C00009F49FCFBDCFD7FC4BC0D5FC2FC00E94F2
:1007D0008A0297CF67FD0EC010920F0221E030E031
:1007E000ABCF85E19BE06B870E94A45121E030E014
:1007F0006B85A0CF81E080930F0280916B02909176
:100800006C02A0916D02B0916E028093110B9093D7
:10081000120BA093130BB093140B809138128150DC
:10082000823008F089CF1092381286CF0E941406C9
:1008300080916F0290917002892B49F04FEF60E038
:1008400080E00E94010B1092700210926F021092D1
:10085000CB021092CA021092C9021092C80251CF64
:1008600081E06B870E94270C0E94053E6B85662302
:1008700019F081E08093100280911510811126C03B
:1008800080919810811122C080911B1181111EC08E
:100890003FE4C32E30E1D32EE12CF12CF60111827E
:1008A0001082FFEFEF1AFF0A0BED1FE029EC3FE388
:1008B00040E050E0BA01C7010E94EE1C83E8C80E78
:1008C000D11CE3E0EE16F10449F71BCF0E943F2D47
:1008D00018CFCF9380916B0290916C02A0916D0222
:1008E000B0916E0240910B0250910C0260910D028A
:1008F00070910E02841B950BA60BB70B4997A105AF
:10090000B105F0F0C9B1C095C07EC093100B8091C5
:100910000A028C17A9F06C2F0E94410380916B0290
:1009200090916C02A0916D02B0916E0280930B02C7
:1009300090930C02A0930D02B0930E02C0930A0292
:10094000CF9108951092B100249808950C94A204B8
:1009500082E48093B00082EB8093B30085E08093C3
:10096000B1002FEF82E597E0215080409040E1F701
:1009700000C000001092B1008FE19EE40197F1F7F2
:1009800000C0000085E88093B30085E08093B1004B
:100990009FEF22E587E0915020408040E1F700C0C2
:1009A00000001092B100249881E08093A40E84E6A8
:1009B00090E0A0E0B0E08093A50E9093A60EA093E7
:1009C000A70EB093A80E86EA94E09093AA0E8093A7
:1009D000A90E08959C01009709F18A3F910578F0CE
:1009E00085E08093B10064E274EF80E090E0249AA7
:1009F00040E050E00E94726C2093B300089587E0BD
:100A00008093B10064E87EE180E090E0249A40E0C9
:100A100050E00E94726C2093B30008950C94A204DD
:100A2000CF93C82FCF7082958F70F9F061E090E07E
:100A3000660F9F5F9813FCCF70E080E090E00E940B
:100A40004466EC2FF0E0EE0FFF1FEE0FFF1FEB5E92
:100A5000FD4F20813181428153810E948D670E9428
:100A60001666CB01CF910C94EA0460E070E080E858
:100A70009FE3E7CF0F931F93CF93DF9300D0CDB7C2
:100A8000DEB70E94A2048091130290911402009795
:100A900009F484C0209111023091120228173907FD
:100AA0000CF062C08091B30E90E0982F8827220F3F
:100AB000331F820F931F45960E949C130E941005BE
:100AC0008091B30E90E0982F8827209111023091E9
:100AD0001202220F331F820F931F44960E949C1311
:100AE0008093940340911102509112024F5F5F4F27
:100AF00050931202409311026091130270911402FC
:100B00006417750794F40E940B6E8A830E940B6E23
:100B100089830E940B6E4A8169810F900F90DF914B
:100B2000CF911F910F910C94010B1092B40E282FAE
:100B300030E040E050E06091950370919603809121
:100B40009703909198030E94506C2093B50E3093B8
:100B5000B60E4093B70E5093B80E8AE395E090938B
:100B6000BA0E8093B90ECFCF81E08093B40E10926D
:100B700012021092110210921402109213020E949B
:100B8000A204109245024FEF60E080E00F900F90BA
:100B9000DF91CF911F910F910C94010B8091B30EB7
:100BA00090E0982F882742960E949C138093990387
:100BB0008091B30E90E0982F882743960E949C1353
:100BC000082F10E010931402009313022091990350
:100BD00030E040E050E060E879EA83E090E00E9495
:100BE000506C209395033093960340939703509352
:100BF0009803C8014FCF91E0909345029093B40EB3
:100C00001092B50E1092B60E1092B70E1092B80E4A
:100C10002AE335E03093BA0E2093B90E8093B30ED9
:100C200084EB9EE00C94D85186EE90E00E94EA049A
:100C300084EA9EE00C94D8510F931F9380916B022D
:100C400090916C02A0916D02B0916E028093D20ED1
:100C50009093D30EA093D40EB093D50E1092C30EE2
:100C600084EF91E0A0E0B0E08093C40E9093C50EB5
:100C7000A093C60EB093C70E8FE399E09093C90E70
:100C80008093C80E83EC9EE00E94D8510BED1FE0CC
:100C900029EC3FE340E050E0BA0181E090E00E949F
:100CA000EE1C0BED1FE029EC3FE340E050E0BA0101
:100CB00082E090E00E94EE1C0BED1FE029EC3FE388
:100CC00040E050E0BA0183E090E00E94EE1C81E039
:100CD00090E09093500280934F021F910F910895DE
:100CE0008091EB0E8230B9F18091261090912710FF
:100CF000892BB9F18091A9109091AA10892B89F1C3
:100D00000E943F2D4FEF50E060E070E081E090E006
:100D10000E9486204FEF50E060E070E082E090E0BB
:100D20000E94862081E08093C30E88E893E1A0E0D2
:100D3000B0E08093C40E9093C50EA093C60EB093FE
:100D4000C70E81EF97E09093C90E8093C80E83EC95
:100D50009EE00C94D8518091261090912710892BF9
:100D600009F4089580912C1190912D11892B41F651
:100D700008958091EB0E8230B9F180912610909108
:100D80002710892BB9F18091A9109091AA10892B75
:100D900089F10E943F2D41E05FEF6FEF7FEF81E02F
:100DA00090E00E94862041E05FEF6FEF7FEF82E0EE
:100DB00090E00E94862081E08093C30E88E893E152
:100DC000A0E0B0E08093C40E9093C50EA093C60E31
:100DD000B093C70E8EEA98E09093C90E8093C80E28
:100DE00083EC9EE00C94D8518091261090912710AE
:100DF000892B09F4089580912C1190912D11892B44
:100E000041F608950F931F9381E090E0909348027C
:100E1000809347029093500280934F0280916B021F
:100E200090916C02A0916D02B0916E028093D20EEF
:100E30009093D30EA093D40EB093D50E1092501071
:100E400010924F101092D3101092D210109256118F
:100E5000109255110BED1FE029EC3FE340E050E00C
:100E6000BA0181E090E00E94EE1C0BED1FE029EC3E
:100E70003FE340E050E0BA0182E090E00E94EE1CC7
:100E80000BED1FE029EC3FE340E050E0BA0183E0C6
:100E900090E00E94EE1C1092C30E84EF91E0A0E05F
:100EA000B0E08093C40E9093C50EA093C60EB0938D
:100EB000C70E8FE399E09093C90E8093C80E83EC20
:100EC0009EE01F910F910C94D8510F931F9381E0D6
:100ED00090E0909348028093470210925010109235
:100EE0004F101092D3101092D210109256111092EF
:100EF00055110BED1FE029EC3FE340E050E0BA0153
:100F00000E94EE1C0BED1FE029EC3FE340E050E0B7
:100F1000BA0182E090E00E94EE1C0BED1FE029EC8C
:100F20003FE340E050E0BA0183E090E00E94EE1C15
:100F30001092C30E84EF91E0A0E0B0E08093C40E65
:100F40009093C50EA093C60EB093C70E80E796E0AF
:100F50009093C90E8093C80E83EC9EE01F910F9171
:100F60000C94D851109248021092470283EC9EE0F4
:100F70000E94A4510E943F2D4FEF60E080E00E944C
:100F8000010B83EC98EBA2EBBEE38093A802909355
:100F9000A902A093AA02B093AB0284E690E09093DA
:100FA000A7028093A602089540E060E08FEF0E94C0
:100FB000010B2FEF81EE94E0215080409040E1F74B
:100FC00000C0000040E060E080E00E94010B2FEFD5
:100FD00081EE94E0215080409040E1F700C0000095
:100FE000E3CFEF92FF920F931F93CF93DF93CDB791
:100FF000DEB72C970FB6F894DEBF0FBECDBF0E94B0
:101000003F2D0BE410E1CE0101967C01F8016481D3
:101010007581882777FD8095982F0E9444662BED77
:101020003FE049EC50E40E948D679B01AC01F80160
:1010300060817181828193810E943E65F701619395
:101040007193819391937F010D571F4FF1E1043DFF
:101050001F07E1F68091EB0E28E530EA4BE851E4FA
:10106000823009F465C069817A818B819C810E94FC
:10107000A26587FD71C028E530EA4BE851E46D8137
:101080007E818F8198850E94A26587FD65C0109240
:10109000501010924F101092D3101092D210109244
:1010A0005611109255110BED1FE029EC3FE340E083
:1010B00050E0BA0181E090E00E94EE1C0BED1FE0D1
:1010C00029EC3FE340E050E0BA0182E090E00E946A
:1010D000EE1C0BED1FE029EC3FE340E050E0BA01CD
:1010E00083E090E00E94EE1C1092C30E84EF91E02A
:1010F000A0E0B0E08093C40E9093C50EA093C60EFE
:10110000B093C70E89EB96E09093C90E8093C80EFA
:1011100083EC9EE02C960FB6F894DEBF0FBECDBFD9
:10112000DF91CF911F910F91FF90EF900C94D851C8
:1011300069817A818B819C810E94A26587FD0CC0A8
:1011400028E530EA4BE851E469857A858B859C85F2
:101150000E94A26587FF9BCF0E94D407EF92FF9267
:101160000F931F93CF93DF93CDB7DEB72C970FB6B6
:10117000F894DEBF0FBECDBF0E943F2D0BE410E1FF
:10118000CE0101967C01F80164817581882777FD85
:101190008095982F0E9444662BED3FE049EC50E487
:1011A0000E948D679B01AC01F80160817181828191
:1011B00093810E943E65F7016193719381939193AE
:1011C0007F010D571F4FF1E1043D1F07E1F68091AC
:1011D000EB0E28E530EA4BE851EC8230D1F1698121
:1011E0007A818B819C810E94896718160CF445C016
:1011F00028E530EA4BE851EC6D817E818F8198853E
:101200000E9489671816CCF181E08093C30E88EEA6
:1012100093E0A0E0B0E08093C40E9093C50EA0933D
:10122000C60EB093C70E8CE196E09093C90E8093E2
:10123000C80E83EC9EE02C960FB6F894DEBF0FBE6E
:10124000CDBFDF91CF911F910F91FF90EF900C9444
:10125000D85169817A818B819C810E948967181697
:1012600064F028E530EA4BE851EC69857A858B8596
:101270009C850E94896718163CF60E94D4070F933C
:101280001F93CF93DF9380916B0290916C02A0919A
:101290006D02B0916E024091D20E5091D30E6091CA
:1012A000D40E7091D50E841B950BA60BB70B813411
:1012B0009747AB41B10508F091C08091EB0E8230A9
:1012C00009F472C08091261090912710892B09F49F
:1012D00053C08091A9109091AA10892B09F450C095
:1012E00080914602813009F48CC00BED1FE029EC9F
:1012F0003FE34BED5FE069E471E481E090E00E9440
:10130000EE1C0BED1FE029EC3FE34BED5FE069E4E1
:1013100071E482E090E00E94EE1C0BED1FE029ECEE
:101320003FE34BED5FE069E471E483E090E00E940D
:10133000EE1C81E0809346020E940B6E8C010E949D
:101340000B6EEC010E940B6EFC012FEF30E0C80128
:10135000B9010E943C6C482FCE01B9010E943C6C3F
:10136000C82FCF01B9010E943C6C6C2FDF91CF9147
:101370001F910F910C94010B80911510882351F04F
:10138000809198108111D8CF8091A9109091AA10C6
:10139000892B91F680914F0290915002892B61F632
:1013A0000E943F2D0E94D407809126109091271013
:1013B000892B09F44AC080912C1190912D11892B11
:1013C00009F08ECF80911B118111B6CF80912C1125
:1013D00090912D11892B09F0AFCFDCCF81E0809364
:1013E000C30E40E06FEF80E00E94010B0E943F2D92
:1013F0001092480210924702DF91CF911F910F91F6
:1014000008950BED1FE029EC3FE340E050E0BA0106
:1014100081E090E00E94EE1C0BED1FE029EC3FE321
:1014200040E050E0BA0182E090E00E94EE1C0BED3B
:101430001FE029EC3FE340E050E0BA0183E090E098
:101440000E94EE1C1092460277CF809115108823DF
:1014500009F4A0CFB7CF8091470290914802089538
:101460008091D60E9091D70E01979093D70E8093CE
:10147000D60E181619061CF081E08093F50F209106
:10148000EA0E20583091E90E30584091E80E40584D
:1014900050E1459FC00111249093990080939800DA
:1014A00050E1359FC001112490939D0080939C00D2
:1014B00050E1259FC001112490939B0080939A00D6
:1014C0004093E80E3093E90E2093EA0E0895809140
:1014D000EA0E2091E90E4091E80E90E1499FA001AB
:1014E0001124509399004093980090E1299F900116
:1014F000112430939D0020939C0020E1829FC00125
:10150000112490939B0080939A0008958091C402C7
:101510009091C502892B09F446C08091C1028823AD
:1015200009F441C04091490250914A029A01A9E848
:10153000B8E80E94196C969587959695879596952B
:1015400087956FE0689F9001699F300D1124421BC1
:10155000530B4330510540F58091331220913212E4
:101560004091311290E1499FA001112450939900BC
:101570004093980090E1299F9001112430939D00A1
:1015800020939C0020E1829FC001112490939B0036
:1015900080939A008091490290914A02019690931B
:1015A0004A028093490208958091EA0E2091E90E43
:1015B0004091E80ED7CF1F920F920FB60F921124D1
:1015C0008F939F93AF93BF9380916B0290916C0226
:1015D000A0916D02B0916E020196A11DB11D809384
:1015E0006B0290936C02A0936D02B0936E02BF9158
:1015F000AF919F918F910F900FBE0F901F901895F4
:10160000089590E1899F90011124309399002093CF
:10161000980090E1699F9001112430939D002093E0
:101620009C0090E1499F9001112430939B002093EE
:101630009A008093E80E6093E90E4093EA0E0895B5
:1016400020E1829FC001112490939900809398001B
:1016500080E1689FB001112470939D0060939C000D
:1016600020E1429FA001112450939B0040939A00D7
:1016700008950F93CF93DF9300D01F92CDB7DEB7BD
:1016800081E08B8302E09E012F5F3F4F41E0BE016E
:101690006D5F7F4F8CE10E9485540E94B254898116
:1016A00090E0982F88279093E50E8093E40E809128
:1016B000E40E9091E50E2A81822B9093E50E8093A3
:1016C000E40E83E08B839E012F5F3F4F41E0BE011C
:1016D0006D5F7F4F8CE10E9485540E94B2548981D6
:1016E00090E0982F88279093ED0F8093EC0F8091D6
:1016F000EC0F9091ED0F2A81822B9093ED0F809348
:10170000EC0F85E08B839E012F5F3F4F41E0BE01D0
:101710006D5F7F4F8CE10E9485540E94B254898195
:1017200090E0982F88279093131080931210809147
:101730001210909113102A81822B90931310809392
:10174000121080E00F900F900F90DF91CF910F91CA
:1017500008958823D9F120EF3FE09FEF1092990080
:101760001092980030939D0020939C0010929B0053
:1017700010929A001092E80E9093E90E1092EA0EE1
:101780004FEF51EE64E0415050406040E1F700C03F
:101790000000309399002093980010929D001092C1
:1017A0009C0010929B0010929A009093E80E109269
:1017B000E90E1092EA0E4FEF51EE64E041505040B6
:1017C0006040E1F700C00000815041F608950F939A
:1017D000CF93DF9300D000D0CDB7DEB78DE08C8300
:1017E00001E09E012D5F3F4F41E0BE016C5F7F4FE6
:1017F0008CE10E9485540E94B254892B09F58B819B
:101800008A3219F084E10E94A90B8AE2898389E176
:101810008A8342E0BE016F5F7F4F8CE10E944B5490
:101820000E94B254892B19F084E10E94A90B80E038
:101830000F900F900F900F90DF91CF910F9108951F
:1018400084E10E94A90BDBCF85E00C94A90B2091C9
:10185000D60E3091D70E121613060CF4089590E0B0
:10186000880F991F9093D70E8093D60E1092F50F84
:1018700084E690E0A0E0B0E08093F60F9093F70F3D
:10188000A093F80FB093F90F80E39AE09093FB0FC9
:101890008093FA0F85EF9FE00C94D8512091D60EDB
:1018A0003091D70E121613060CF4089590E0880FAD
:1018B000991F9093D70E8093D60E1092F50F4093F8
:1018C000F60F5093F70F6093F80F7093F90F80E3C2
:1018D0009AE09093FB0F8093FA0F85EF9FE00C94B2
:1018E000D85120E1829FC0011124909399008093E8
:1018F000980080E1689FB001112470939D0060936F
:101900009C0020E1429FA001112450939B00409332
:101910009A0081E08093A20384E690E0A0E0B0E02A
:101920008093A3039093A403A093A503B093A6036D
:1019300087E69AE09093A8038093A70382EA93E056
:101940000C94D8519AE0909377009091EE0F9230DA
:1019500001F190917C00907C90937C0090917C00B0
:10196000906C90937C0090917C00982B90937C00DD
:1019700080917A00876C80937A0080917A0086FD4E
:10198000FCCF8091780020917900237090E0922B19
:10199000089510927C0090917C00982B90937C008D
:1019A000E7CFCF93DF9380E294E00E949C13809373
:1019B000EE0F81E294E00E949C138093EF0F82E28D
:1019C00094E00E949C138093F00F8091EE0F823080
:1019D00009F45BC08DEC9CECACECBFE380930D1084
:1019E00090930E10A0930F10B0931010819A8998C5
:1019F0002FEF81EE94E0215080409040E1F700C04D
:101A0000000082E00E94A20CEC018198829A8A98E0
:101A10002FEF81EE94E0215080409040E1F700C02C
:101A2000000081E00E94A20C8298C436D105ACF07F
:101A300082E08093EB0E83E08093E70E82E090E0FB
:101A40009093F20F8093F10F81E090E09093F40F68
:101A50008093F30FDF91CF9108958436910544F779
:101A600083E08093EB0E82E08093E70E84E090E0C9
:101A70009093F20F8093F10F83E090E09093F40F36
:101A80008093F30FDF91CF91089580E090E0A0EA7A
:101A9000BFE380930D1090930E10A0930F10B0939E
:101AA00010106A98729A2FEF80E792E021508040E0
:101AB0009040E1F700C00000629BD2CFB9CFE1E6D1
:101AC000F0E080E880831082F89480EF84B98BB1D5
:101AD000806E8BB9E8E6F0E0808181608083EBE680
:101AE000F0E0808182608083808184608083808157
:101AF000886080838FB780688FBF88E18AB98BB197
:101B000083608BB98FE78DB98FE383BB0E94D10CC3
:101B10003AEA3093800029E1209381008FEF9FE023
:101B200090938700809386003093900020939100DB
:101B300090939700809396001092250110922401B3
:101B4000E3E7F0E0808182608083E1E2F1E0808180
:101B50008C6080838EE390E090932901809328012C
:101B6000909327018093260184B7877F84BFE0E6A6
:101B7000F0E0808188618083108280EC80937C001B
:101B800010927B008FEE80937A000E945E1778940B
:101B90000895E82FF0E0EE0FFF1FEF5DFD4E60812E
:101BA000718180E090E00E94426620910D1030919A
:101BB0000E1040910F10509110100E948D6720E080
:101BC00030E040E85AE30E948D6708956091211249
:101BD0007091221280E090E00E94426620910D10E8
:101BE00030910E1040910F10509110100E948D678F
:101BF00020E030E040E85AE30E948D672EE63BED9E
:101C000046EB5EE30E94A9650895CF93DF93CDB7BD
:101C1000DEB72C970FB6F894DEBF0FBECDBF698735
:101C20007A878B879C8780916B0290916C02A09140
:101C30006D02B0916E0289839A83AB83BC83298144
:101C40003A814B815C8189859A85AB85BC85820F01
:101C5000931FA41FB51F8D839E83AF83B887000099
:101C600020916B0230916C0240916D0250916E0296
:101C70008D819E81AF81B88582179307A407B50730
:101C800078F72C960FB6F894DEBF0FBECDBFDF916C
:101C9000CF91089580916000886180936000809169
:101CA00060008D6080936000FFCF4F925F926F92D3
:101CB0007F928F929F92AF92BF92CF92DF92EF92DC
:101CC000FF920F931F93CF93DF93CDB7DEB76E973D
:101CD0000FB6F894DEBF0FBECDBF0E94390B6091E6
:101CE000E40E7091E50E882777FD8095982F0E946D
:101CF000446620E030E040E858E30E948D672B0105
:101D00003C016091EC0F7091ED0F882777FD809575
:101D1000982F0E94446620E030E040E858E30E949B
:101D20008D676B017C0160911210709113108827F0
:101D300077FD8095982F0E94446620E030E040E8CF
:101D400058E30E948D674B015C01A3019201C3011E
:101D5000B2010E948D672B013C01A7019601C701CA
:101D6000B6010E948D679B01AC01C301B2010E94C4
:101D70003E656B017C01A5019401C501B4010E947F
:101D80008D679B01AC01C701B6010E943E650E94B0
:101D9000FA677B018C0180916B0290916C02A0919B
:101DA0006D02B0916E0240919E0350919F0360912D
:101DB000A0037091A103841B950BA60BB70B8B3F5F
:101DC0009105A105B10508F0C1C0B0919A03A09199
:101DD0009B03F0919C03E0919D039701A8016B2F59
:101DE0007A2F8F2F9E2F0E943D654B015C0120E0D2
:101DF00030E0A9010E94A26587FD25C12AE939E9E1
:101E000049E15FE3C501B4010E94896718160CF02F
:101E10006CC010920F0240E06FEF80E00E94710CE6
:101E200077247394709210028091C4029091C5023D
:101E3000892B09F0AAC0809138128111A6C0809127
:101E40006B0290916C02A0916D02B0916E02809332
:101E5000391290933A12A0933B12B0933C128091A6
:101E60006B0290916C02A0916D02B0916E020E9483
:101E70000F6E80906B0290906C02A0906D02B090FB
:101E80006E020E940B6E6C01C501B4010E94426695
:101E90004B015C01B601882777FD8095982F0E9441
:101EA000446620E03EEF4FEF56E40E94A96520E033
:101EB00030E44CE954E40E948D679B01AC01C501FC
:101EC000B4010E943E6520E030E04AE753E40E94FE
:101ED0003E650E94166660933D1270933E12809399
:101EE0003F129093401270923812A701B8014093AC
:101EF0009A0350939B0360939C0370939D0380917E
:101F00006B0290916C02A0916D02B0916E02809371
:101F10009E0390939F03A093A003B093A1036E969A
:101F20000FB6F894DEBF0FBECDBFDF91CF911F91EA
:101F30000F91FF90EF90DF90CF90BF90AF909F9068
:101F40008F907F906F905F904F900895C701D80158
:101F500080939A0390939B03A0939C03B0939D035B
:101F600080916B0290916C02A0916D02B0916E0213
:101F700080939E0390939F03A093A003B093A1032B
:101F8000BE2DAF2DF02FE12F28CF80913812811177
:101F9000ACCF80916B0290916C02A0916D02B091D8
:101FA0006E0240914B0250914C0260914D02709133
:101FB0004E02841B950BA60BB70B843F9140A105E5
:101FC000B10508F4ACCF83ED89838EE08A831B8250
:101FD0001C821D821E828091C4029091C5029F8343
:101FE0008091C4029091C5028887809131128987BF
:101FF000809132128A87809133128B878091C2023E
:102000009091C3029C878091C2029091C3028D87F8
:1020100082E18E8720E04FEF5FEF6EE0CE01019608
:102020000E945E5180916B0290916C02A0916D02B2
:10203000B0916E0280934B0290934C02A0934D029C
:10204000B0934E0252CF2AE939E949E15FEBC5016D
:10205000B4010E94A26587FF48CFDBCECF93DF9308
:10206000CDB7DEB7AD970FB6F894DEBF0FBECDBFCC
:102070000E94913E0E945F0D0E943F540E94E70B18
:10208000882321F08AE00E94A90BFCCF0E94A804BB
:102090000E94EF4D0E942333809166029091670267
:1020A000A0916802B0916902AD0166277727842765
:1020B00095270E940F6E0E94652D1F8E8FE090E085
:1020C000A0E0B0E088A399A3AAA3BBA387E991E20B
:1020D0009DA38CA3CE014F960E94D851188A84E606
:1020E00090E0A0E0B0E0898B9A8BAB8BBC8B86E84C
:1020F0009AE09E8B8D8BCE0140960E94D85119821A
:1021000080E091E0A0E0B0E08A839B83AC83BD8354
:1021100082E49EE39F838E83CE0101960E94D85174
:10212000109299001092980010929D0010929C00BD
:1021300080EF9FE090939B0080939A001092E80EAE
:102140001092E90E8FEF8093EA0E4E9B0E94650776
:102150000E94EC5A0E9460520E94EC5A0E94553F25
:102160000E94BD540E94EC5A0E94534E0E94690482
:102170000E94EC5A0E94E23480910F0281117EC0CD
:1021800080914F0290915002892B11F38091470268
:1021900090914802892BE1F280916B0290916C0240
:1021A000A0916D02B0916E024091D20E5091D30E6B
:1021B0006091D40E7091D50E841B950BA60BB70BB6
:1021C00081339547A105B10518F20E9414061092BB
:1021D000500210924F028091EE0F823009F4B8CF76
:1021E00020E030E04AEA53E460919A0270919B0249
:1021F00080919C0290919D020E948D6720E030E0CA
:1022000044EB53E40E94A9656093A2027093A30279
:102210008093A4029093A50220E030E04AEA53E4C0
:102220006091960270919702809198029091990224
:102230000E948D6720E030E044EB53E40E94A965E2
:1022400060939E0270939F028093A0029093A102DC
:1022500044E050E062EA72E087E194E00E94AD134E
:1022600044E050E06EE972E08BE194E00E94AD132F
:1022700061EA86E194E00E946A136ACF0E94550EDB
:102280007FCFCF92DF92EF92FF926B017C0120E033
:1022900030E0A9010E94A26587FD1AC020E030E06D
:1022A000A901C701B6010E94896718164CF460E0C5
:1022B00070E080E89FE3FF90EF90DF90CF9008956B
:1022C00060E070E0CB01FF90EF90DF90CF90089539
:1022D00060E070E080E89FEBFF90EF90DF90CF90A0
:1022E000089520916F0230917002232B59F0409194
:1022F0000B1050910C1020916F0230917002421718
:10230000530719F52091E30240910B1050910C10E6
:10231000FC01618170E021110DC021E00E94A23F0B
:10232000FC01418150E020E030E0BC0182ED93E10E
:102330000C94B36421E00E94A23FFC014181BC01E6
:1023400082E00E944B540C94B25440916F02509121
:10235000700221E0FC0161810C945E51CF93DF9308
:1023600000D000D000D0CDB7DEB70E94390B8091ED
:10237000E40E9091E50E9A8389838091EC0F909101
:10238000ED0F9C838B8380911210909113109E838C
:102390008D83FE01319680E090E02091640230E070
:1023A000082E02C0359527950A94E2F720FF15C044
:1023B000DC01AA0FBB1FAB5FBF4E2D913C91119763
:1023C0006D917C9140915102509152022081318156
:1023D000261B370B4217530770F001963296833055
:1023E0009105D9F626960FB6F894DEBF0FBECDBF85
:1023F000DF91CF91089569817A817093061060937F
:1024000005104B815C8150930810409307102D817B
:102410003E8130930A102093091085E28093E92BC6
:102420008DE08093EA2B80916B0290916C02A091D9
:102430006D02B0916E028093EB2B9093EC2BA093E6
:10244000ED2BB093EE2B7093EF2B6093F02B50930A
:10245000F12B4093F22B3093F32B2093F42B10921B
:10246000F52B89EE9BE226960FB6F894DEBF0FBEE1
:10247000CDBFDF91CF910C9471113F924F925F923B
:102480006F927F928F929F92AF92BF92CF92DF9284
:10249000EF92FF920F931F93CF93DF93CDB7DEB7E9
:1024A00060970FB6F894DEBF0FBECDBF0BE410E10E
:1024B000CE0101967C01F80164817581882777FD42
:1024C0008095982F0E9444662BED3FE049EC50E444
:1024D0000E948D679B01AC01F8016081718182814E
:1024E00093810E943E65F70161937193819391936B
:1024F0007F010D571F4FF2E107351F07E1F680916D
:10250000E70E882309F4CEC0CE0101967C01312C60
:1025100000E010E088248394912C28C0C301B2010C
:102520000E943D65F601ED5AFD4F208131814281C7
:1025300053810E948967181674F4C401002E01C0EB
:10254000880F0A94EAF7382AF601E852F14F4082E0
:102550005182628273820F5F1F4F8091E70EF4E019
:10256000EF0EF11C90E008171907A4F580916302A3
:1025700090E0002E02C0959587950A94E2F780FFBF
:10258000EACFF70140805180628073806801CC0CF3
:10259000DD1CCC0CDD1CC6018852914F5C01FC0196
:1025A0002081318142815381C301B2010E943D6586
:1025B00020E030E0A9010E94A265F501208131816F
:1025C0004281538187FFAACFC301B2010E943D65BA
:1025D0009058A8CF332009F465C084E28093E92B9A
:1025E00088E18093EA2B80916B0290916C02A0911C
:1025F0006D02B0916E028093EB2B9093EC2BA09325
:10260000ED2BB093EE2B89819A81AB81BC818093B5
:10261000EF2B9093F02BA093F12BB093F22B8D81A5
:102620009E81AF81B8858093F32B9093F42BA09378
:10263000F52BB093F62B89859A85AB85BC85809365
:10264000F72B9093F82BA093F92BB093FA2B8D8551
:102650009E85AF85B8898093FB2B9093FC2BA0932C
:10266000FD2BB093FE2B3092FF2B1092002C89EEA5
:102670009BE260960FB6F894DEBF0FBECDBFDF9130
:10268000CF911F910F91FF90EF90DF90CF90BF906F
:10269000AF909F908F907F906F905F904F903F9002
:1026A0000C94711160960FB6F894DEBF0FBECDBFCB
:1026B000DF91CF911F910F91FF90EF90DF90CF901E
:1026C000BF90AF909F908F907F906F905F904F9052
:1026D0003F90089520917102211101C0F8947FEF7D
:1026E00054E144E2F999FECF2AE030E000002150A5
:1026F000310921153105D1F792BD81BD70BD5FBB98
:10270000F99AF999FECF2AE030E000002150310912
:1027100021153105D1F760BD4FBBF99AF999FECF6C
:1027200092BD81BDF89A20B56213DCCF8091710211
:10273000811101C07894089520917102211101C086
:10274000F894F999FECF92BD81BDF89A80917102FB
:10275000811101C0789480B50895EF92FF920F9394
:102760001F93CF93DF93F89421E020937102141606
:10277000150674F4EB017B01E40EF51E8C016991E2
:10278000C8010E946A130F5F1F4FCE15DF05B9F70E
:10279000109271027894DF91CF911F910F91FF9069
:1027A000EF900895EF92FF920F931F93CF93DF93D3
:1027B000F89421E0209371021416150684F47B012D
:1027C000E40EF51EEB018C01061B170BC8018C0FE4
:1027D0009D1F0E949C138993CE15DF05B9F71092B7
:1027E00071027894DF91CF911F910F91FF90EF903C
:1027F00008951F920F920FB60F9211240BB60F92ED
:102800002F923F924F925F926F927F928F929F9200
:10281000AF92BF92CF92DF92EF92FF920F931F93EE
:102820002F933F934F935F936F937F938F939F93D8
:10283000AF93BF93EF93FF93CF93DF9300D000D07C
:10284000CDB7DEB7809191028F5F80939102833084
:1028500008F460C01092910230919002E32FF0E0F2
:102860008091780090E0EE0FFF1FEF5DFD4E9183A9
:10287000808380819181209179002370922B9183B4
:10288000808380914F0290915002892B41F080917A
:10289000470290914802892B11F03730F1F13F5FE8
:1028A00030939002383008F064C280917C00807EC2
:1028B00080937C0080917C0090919002892B809382
:1028C0007C000F900F900F900F90DF91CF91FF91B0
:1028D000EF91BF91AF919F918F917F916F915F9198
:1028E0004F913F912F911F910F91FF90EF90DF90AB
:1028F000CF90BF90AF909F908F907F906F905F90A0
:102900004F903F902F900F900BBE0F900FBE0F90E7
:102910001F9018958111D5CF9FCF60912D12709186
:102920002E12C0900D10D0900E10E0900F10F0906D
:102930001010882777FD8095982F0E944466A70184
:1029400096010E948D6720E030E040E85AE30E9443
:102950008D6723E333E343E35FE30E943D654B016F
:102960005C0120E030E0A9010E94A26587FD04C25D
:102970002DEC3CEC4CE45EE3C501B4010E94A26581
:1029800087FDD7C060912B1270912C12882777FD9C
:102990008095982F0E9444669B01AC01C701B60147
:1029A0000E948D6720E030E040E85AE30E948D6786
:1029B00023E333E343E35FE30E943D654B015C01A6
:1029C00020E030E0A9010E94A26587FDF7C12DEC4F
:1029D0003CEC4CE45EE3C501B4010E94A26587FDB6
:1029E000A8C02090940230909502B101882777FD0D
:1029F0008095982F0E94446620919A0230919B0204
:102A000040919C0250919D020E948D674B015C0198
:102A100060912D1270912E1200912B1210912C1298
:102A2000882777FD8095982F0E944466A70196011C
:102A30000E948D6720E030E040E85AE30E948D67F5
:102A40002B013C01B801882777FD8095982F0E94C3
:102A50004466A70196010E948D6720E030E040E8BF
:102A60005AE30E948D679B01AC01C301B2010E9431
:102A70003D6520E030E0A9010E94A26587FDE5C127
:102A800060912D1270912E1200912B1210912C1228
:102A9000882777FD8095982F0E944466A7019601AC
:102AA0000E948D6720E030E040E85AE30E948D6785
:102AB0002B013C01B801882777FD8095982F0E9453
:102AC0004466A70196010E948D6720E030E040E84F
:102AD0005AE30E948D679B01AC01C301B2010E94C1
:102AE0003D659B01AC010E943E659B01AC018FEFEF
:102AF000281A380AC501B4010E943E654B015C01E9
:102B0000B101882777FD8095982F0E9444669B012C
:102B1000AC01C501B4010E94A96560939A0270934B
:102B20009B0280939C0290939D023092950220928A
:102B300094022090F10F3090F20F220C331CF1011F
:102B4000EF5DFD4E60817181882777FD8095982F1C
:102B50000E9444669B01AC01C701B6010E948D67CB
:102B600020E030E040E85AE30E948D6723E333E33E
:102B700043E35FE30E943D654B015C0120E030E0F0
:102B8000A9010E94A26587FD03C12DEC3CEC4CE439
:102B90005EE3C501B4010E94A26587FDEAC0009111
:102BA000F30F1091F40F000F111FF801EF5DFD4EB0
:102BB00060817181882777FD8095982F0E944466F7
:102BC0009B01AC01C701B6010E948D6720E030E097
:102BD00040E85AE30E948D6723E333E343E35FE376
:102BE0000E943D654B015C0120E030E0A9010E949C
:102BF000A26587FDD8C02DEC3CEC4CE45EE3C5013A
:102C0000B4010E94A26587FDB4C0A0909202B0906A
:102C10009302B501882777FD8095982F0E9444661E
:102C2000209196023091970240919802509199021A
:102C30000E948D672B013C01C1018F5D9D4E4C01AF
:102C4000FC0160817181C8018F5D9D4E1C01FC01FA
:102C500000811181882777FD8095982F0E94446616
:102C6000A70196010E948D6720E030E040E85AE31A
:102C70000E948D6769837A838B839C83B801882740
:102C800077FD8095982F0E944466A70196010E94C7
:102C90008D6720E030E040E85AE30E948D679B0199
:102CA000AC0169817A818B819C810E943D6520E025
:102CB00030E0A9010E94A26587FD8CC0F40160810B
:102CC0007181F10100811181882777FD8095982F0E
:102CD0000E944466A70196010E948D6720E030E0C3
:102CE00040E85AE30E948D6769837A838B839C83D3
:102CF000B801882777FD8095982F0E944466A70128
:102D000096010E948D6720E030E040E85AE30E947F
:102D10008D679B01AC0169817A818B819C810E94C6
:102D20003D659B01AC010E943E659B01AC01FFEF3C
:102D3000AF1ABF0AC301B2010E943E656B017C015C
:102D4000B501882777FD8095982F0E9444669B01E6
:102D5000AC01C701B6010E94A96560939602709309
:102D600097028093980290939902B0929302A09256
:102D700092021092900299CD2DEC3CEC4CE45EEB6B
:102D8000C501B4010E94896718160CF4D2CEFACDA1
:102D90002DEC3CEC4CE45EEBC501B4010E9489676C
:102DA00018163CF3FCCE2DEC3CEC4CE45EEBC5017C
:102DB000B4010E9489671816E4F227CF2DEC3CEC91
:102DC0004CE45EEBC501B4010E94896718160CF44F
:102DD000B0CE07CEF40160817181F10100811181D3
:102DE000882777FD8095982F0E944466A701960159
:102DF0000E948D6720E030E040E85AE30E948D6732
:102E000069837A838B839C83B801882777FD8095BB
:102E1000982F0E944466A70196010E948D6720E0CA
:102E200030E040E85AE30E948D679B01AC01698164
:102E30007A818B819C810E943D6590589B01AC01F9
:102E40000E943E659B01AC0172CF60912D12709182
:102E50002E1200912B1210912C12882777FD80954D
:102E6000982F0E944466A70196010E948D6720E07A
:102E700030E040E85AE30E948D672B013C01B80125
:102E8000882777FD8095982F0E944466A7019601B8
:102E90000E948D6720E030E040E85AE30E948D6791
:102EA0009B01AC01C301B2010E943D6590589B019A
:102EB000AC010E943E659B01AC0119CE2F923F925E
:102EC0004F925F927F928F929F92AF92BF92CF92DA
:102ED000DF92EF92FF920F931F93CF93DF938CE0DB
:102EE00092E0E5E1F0E1DF019C011D9221503040CC
:102EF000E1F7C7E3D0E131E2832E31E3932E38E9E5
:102F0000A32E34E4B32E40E5C42E47E7D42E46ED7D
:102F1000E42E4DE3F42E4FEF5FEFBA010FEF1FEFFA
:102F2000A0E87A2EB3EF2B2EB6E63B2EBFED4B2E4C
:102F3000BFE35B2E1082118212821382148285827B
:102F40009682A782B086C186D286E386F4861586ED
:102F500016861786108A128A118A148A138A9E018D
:102F60002D503109D9011C92168A178A108E118EA4
:102F7000138E128E448F558F668F778F11A300A307
:102F800078822C823D824E825F82188A198A1A8A40
:102F90001B8A198E188E9F012F593F4FD9011D9200
:102FA0001D921D921C921397ED57FF4FCD57DF4F87
:102FB000B1E1EE39FB0709F0BDCF8091EE0F823011
:102FC00061F185EA9FE9AFECBFE38093A2029093A1
:102FD000A302A093A402B093A50280939E029093B3
:102FE0009F02A093A002B093A10286E194E00E9408
:102FF0009C13813A39F1DF91CF911F910F91FF908E
:10300000EF90DF90CF90BF90AF909F908F907F9088
:103010005F904F903F902F90089582E79CE6ACE937
:10302000BFE38093A2029093A302A093A402B09363
:10303000A50280939E0290939F02A093A002B0935A
:10304000A102D9CF44E050E062EA72E087E194E067
:103050000E94D21344E050E06EE972E08BE194E00C
:10306000DF91CF911F910F91FF90EF90DF90CF9064
:10307000BF90AF909F908F907F905F904F903F90C8
:103080002F900C94D213CF92DF92EF92FF922BED00
:103090003FE049EC50E40E9486666B017C012BED19
:1030A0003FE049E450E40E948967181654F42BED80
:1030B0003FE049EC50E4C701B6010E943D656B0159
:1030C0007C012BED3FE049E450ECC701B6010E94C2
:1030D000A26587FF0AC02BED3FE049EC50E4C70131
:1030E000B6010E943E656B017C01C701B601FF90ED
:1030F000EF90DF90CF9008954F925F926F927F9202
:103100008F929F92AF92BF92CF92DF92EF92FF92F7
:10311000CF93DF93CDB7DEB72C970FB6F894DEBF11
:103120000FBECDBF3C018091740290917502892B36
:1031300009F4E6C081E06816710409F48EC00CF44D
:1031400071C0A4E06A1671040CF06CC08091F10F9C
:103150000E94C90D4B015C018091F30F0E94C90DC3
:1031600069837A838B839C8340909E0250909F0258
:103170006090A0027090A10220E030E040E05FE3A8
:10318000C301B2010E948D676B017C019B01AC0100
:10319000C501B4010E943D654B015C018091720242
:1031A000909173028130910509F467C1029709F487
:1031B0000BC220E030E04AEA53E4C501B4010E94AA
:1031C0008D67A30192010E94A96590582BED3FE005
:1031D00049E450E40E948D6720E030E044E353E48A
:1031E0000E94A9652091D4103091D5104091D6103D
:1031F0005091D7100E943E652C960FB6F894DEBF12
:103200000FBECDBFDF91CF91FF90EF90DF90CF90B9
:10321000BF90AF909F908F907F906F905F904F90F6
:103220000C9443180E94240C60E070E080E89FEB4F
:103230002C960FB6F894DEBF0FBECDBFDF91CF91B5
:10324000FF90EF90DF90CF90BF90AF909F908F90C6
:103250007F906F905F904F90089586E00E94C90D17
:103260004B015C0185E00E94C90D69837A838B83E1
:103270009C834090A2025090A3026090A4027090A0
:10328000A50220E030E040E05FE3C301B2010E940C
:103290008D676B017C019B01AC01C501B4010E94EB
:1032A0003D654B015C018091740290917502813003
:1032B000910509F42FC1029709F493C120E030E091
:1032C0004AEA53E4C501B4010E948D67A30192014B
:1032D0000E94A96590582BED3FE049E450E40E941C
:1032E0008D6720E030E044E353E40E94A96520911B
:1032F00051103091521040915310509154107ACF88
:1033000086E00E94C90D6B017C0120E030E040E0C6
:103310005FE36091A2027091A3028091A402909158
:10332000A5020E948D679B01AC01C701B6010E94F6
:103330003D654B015C0185E00E94C90D6B017C017C
:1033400020E030E040E05FE36091A2027091A302D0
:103350008091A4029091A5020E948D679B01AC010F
:10336000C701B6010E943D656B017C0120E030E0A1
:10337000A901C501B4010E94A26587FD20C120E01A
:1033800030E0A901C701B6010E94A265A70196011C
:1033900087FD13C1C501B4010E94A26587FD5FC00E
:1033A00082E090E090937502809374028091F10F17
:1033B0000E94C90D6B017C0120E030E040E05FE33A
:1033C00060919E0270919F028091A0029091A10253
:1033D0000E948D679B01AC01C701B6010E943D654B
:1033E0004B015C018091F30F0E94C90D6B017C01C0
:1033F00020E030E040E05FE360919E0270919F0228
:103400008091A0029091A1020E948D679B01AC0166
:10341000C701B6010E943D656B017C0120E030E0F0
:10342000A901C501B4010E94A26587FDC1C020E0C9
:1034300030E0A901C701B6010E94A265A70196016B
:1034400087FDB4C0C501B4010E94A26587FF0EC00C
:1034500081E090E090937302809372026BCE81E0E2
:1034600090E09093750280937402A0CF82E090E088
:1034700090937302809372025DCE20E030E0A90148
:10348000C501B4010E94A26587FDEEC089869A86B7
:10349000AB86BC862DEC3CEC4CE45FE3C701B60187
:1034A0000E948D676D837E838F8398879B01AC011B
:1034B00069857A858B859C850E94896718160CF032
:1034C00078CE82E090E09093730280937202A7011D
:1034D000960169817A818B819C810E943D656B0197
:1034E0007C0120E030E0A9010E94A26587FDB0C008
:1034F000C701B6012D813E814F8158850E948967A1
:1035000018160CF08EC081E090E0909373028093C7
:1035100072024FCE20E030E0A901C501B4010E9443
:10352000A26587FD99C089869A86AB86BC862DECFC
:103530003CEC4CE45FE3C701B6010E948D676D83EC
:103540007E838F8398879B01AC0169857A858B8503
:103550009C850E94896718160CF0B0CE82E090E03E
:103560009093750280937402A701960169817A8114
:103570008B819C810E943D656B017C0120E030E0E5
:10358000A9010E94A26587FD5FC0C701B6012D8118
:103590003E814F8158850E94896718167CF581E02D
:1035A00090E0909375028093740288CE50584ACF71
:1035B000B7FAB094B7F8B0943ACF5058EBCEB7FA08
:1035C000B094B7F8B094DBCE2DEC3CEC4CE45FE368
:1035D000C701B6010E948D676D837E838F839887B4
:1035E00076CF2DEC3CEC4CE45FE3C701B6010E94C2
:1035F0008D676D837E838F839887B6CF20E030E020
:103600004AEA53E4C701B6010E948D67A301920103
:103610000E94A96520E030E044E353E40E943E6547
:1036200059CE20E030E04AEA53E4C701B6010E94D7
:103630008D67A30192010E94A96520E030E044E378
:1036400053E40E943E65C1CDC701B60190589FCF9B
:10365000C701B60190584ECFD501C401B058898733
:103660009A87AB87BC8763CFD501C401B0588987DF
:103670009A87AB87BC870ECF2091EB0E2230F1F0FA
:10368000233011F1019723E8289FF001299FF00DC5
:103690001124EB5EFF4E82E080834183528363837B
:1036A0007483128A118A8DE491E0A0E0B0E0848FE7
:1036B000958FA68FB78F80E090E0089582309105B6
:1036C00009F78FEF9FEF089583309105D9F6F9CF71
:1036D0002F923F924F925F926F927F928F929F9222
:1036E000AF92BF92CF92DF92EF92FF920F931F9310
:1036F000CF93DF93CDB7DEB72E970FB6F894DEBF2A
:103700000FBECDBF9A8389832A013B0168017901ED
:103710001C0121E0221A310883E8829DF001839D7B
:10372000F00D1124EB5EFF4E8CE29CEEAAECB3E4AC
:1037300085839683A783B0871186128613861486A5
:103740001091EB0E123009F4F8C0133009F4FDC0EB
:1037500020E030E0A901C701B6010E94A2658823DC
:1037600009F4C3C083E8829DF001839DF00D11240C
:10377000EB5EFF4EFE87ED8786A997A9A0ADB1ADA0
:103780008D839E83AF83B8879C01AD01C301B201D5
:103790000E943D654B015C0120E030E0A9010E94E0
:1037A000A26587FDA5C023EC38EB42E35EE3C501CB
:1037B000B4010E94A26587FDA6C020E030E0A90107
:1037C000C701B6010E94A26587FDE3C0A70196016B
:1037D000C501B4010E94A96520E030E04AE754E445
:1037E0000E948D6769837A838B839C8320E030E01D
:1037F000A901C501B4010E94896718160CF0BCC06C
:103800005C2D4D2D3E2D2F2D852F942FA32FB22FC4
:10381000ED85FE8582AB93ABA4ABB5AB83E8829D0F
:10382000F001839DF00D1124EB5EFF4E82A993A958
:10383000A4A9B5A986A797A7A0ABB1AB8D819E819E
:10384000AF81B885ED85FE8581839283A383B483A0
:10385000158616861786108A20E030E040E751E48E
:1038600069817A818B819C810E94A9656B017C01B1
:1038700020E030E0A9010E94A26587FD77C0C70162
:10388000B6010E941166CB01AA2797FDA095BA2F19
:10389000ED85FE85848F958FA68FB78F128A118A4A
:1038A000468A578A608E718E81E090E0938F828F76
:1038B00083E0808380E090E02E960FB6F894DEBF20
:1038C0000FBECDBFDF91CF911F910F91FF90EF9071
:1038D000DF90CF90BF90AF909F908F907F906F9030
:1038E0005F904F903F902F90089580E090E0E4CF5C
:1038F00023EC38EB42E35EEBC501B4010E9489671B
:1039000018160CF05ACF123061F1133021F182E019
:10391000AD85BE858C93FD014182528263827482A3
:10392000128A118A8DE491E0A0E0B0E0848F958F37
:10393000A68FB78F80E090E0BFCF89819A810297F0
:1039400009F006CF8FEF9FEFB7CFA981BA81139708
:1039500009F0FECEF7CF29813A8123303105B9F63F
:10396000F1CFE981FA81329791F6ECCFC701B60128
:1039700090580E94116687CFF7FAF094F7F8F09408
:10398000AD85BE85D296CD92DD92ED92FC92D59713
:1039900045CFD701C601B05889879A87AB87BC87C6
:1039A0009C01AD01C501B4010E94A96520E030E091
:1039B0004AE754E40E948D6769837A838B839C83F2
:1039C00020E030E0A901C501B4010E948967181602
:1039D000BCF659854A853B852C8516CF2F923F92A0
:1039E0004F925F926F927F928F929F92AF92BF920F
:1039F000CF92DF92EF92FF920F931F93CF93DF93BB
:103A0000CDB7DEB72E970FB6F894DEBF0FBECDBF91
:103A10009A8389832A013B01680179011C0121E015
:103A2000221A310883E8829DF001839DF00D112454
:103A3000EB5EFF4E8CE29CEEAAECB3E485839683AA
:103A4000A783B08711861286138614861091EB0E19
:103A5000123009F40EC1133009F413C120E030E034
:103A6000A901C701B6010E94A265882309F4D9C043
:103A700083E8829DF001839DF00D1124EB5EFF4EE3
:103A8000FE87ED8786A997A9A0ADB1AD8D839E83F2
:103A9000AF83B88762AD73AD882777FD8095982F87
:103AA0000E9444662BED3FE049EC50E40E948D6794
:103AB0009B01AC016D817E818F8198850E943E655E
:103AC0009B01AC01C301B2010E943D654B015C0149
:103AD00020E030E0A9010E94A26587FDA5C023EC8B
:103AE00038EB42E35EE3C501B4010E94A26587FDA5
:103AF000A6C020E030E0A901C701B6010E94A2657E
:103B000087FDE3C0A7019601C501B4010E94A96524
:103B100020E030E04AE754E40E948D6769837A83AD
:103B20008B839C8320E030E0A901C501B4010E9491
:103B3000896718160CF0BCC05C2D4D2D3E2D2F2D25
:103B4000852F942FA32FB22FED85FE8582AB93ABEB
:103B5000A4ABB5AB83E8829DF001839DF00D1124E9
:103B6000EB5EFF4E82A993A9A4A9B5A986A797A742
:103B7000A0ABB1AB8D819E81AF81B885ED85FE850F
:103B800081839283A383B483158616861786108A51
:103B900020E030E040E751E469817A818B819C81AB
:103BA0000E94A9656B017C0120E030E0A9010E9420
:103BB000A26587FD77C0C701B6010E941166CB01DF
:103BC000AA2797FDA095BA2FED85FE85848F958F46
:103BD000A68FB78F128A118A468A578A608E718E95
:103BE00081E090E0938F828F83E0808380E090E09B
:103BF0002E960FB6F894DEBF0FBECDBFDF91CF91EA
:103C00001F910F91FF90EF90DF90CF90BF90AF90FA
:103C10009F908F907F906F905F904F903F902F90EC
:103C2000089580E090E0E4CF23EC38EB42E35EEBD4
:103C3000C501B4010E94896718160CF05ACF1230E2
:103C400061F1133021F182E0AD85BE858C93FD01D9
:103C50004182528263827482128A118A8DE491E0D9
:103C6000A0E0B0E0848F958FA68FB78F80E090E0C2
:103C7000BFCF89819A81029709F0F0CE8FEF9FEF35
:103C8000B7CFA981BA81139709F0E8CEF7CF298180
:103C90003A8123303105B9F6F1CFE981FA813297C3
:103CA00091F6ECCFC701B60190580E94116687CFFC
:103CB000F7FAF094F7F8F094AD85BE85D296CD92E0
:103CC000DD92ED92FC92D59745CFD701C601B05851
:103CD00089879A87AB87BC879C01AD01C501B40178
:103CE0000E94A96520E030E04AE754E40E948D6715
:103CF00069837A838B839C8320E030E0A901C5012E
:103D0000B4010E9489671816BCF659854A853B851F
:103D10002C8516CF2F923F924F925F926F927F9297
:103D20008F929F92AF92BF92CF92DF92EF92FF92CB
:103D30000F931F93CF93DF93CDB7DEB72E970FB6B8
:103D4000F894DEBF0FBECDBF9A8389834A015B0121
:103D5000280139011C0121E0221A310883E8829DE3
:103D6000F001839DF00D1124EB5EFF4E8CE29CEE82
:103D7000AAECB3E485839683A783B0871186128665
:103D8000138614861091EB0E123009F4EFC0133035
:103D900009F4F4C083E8829DF001839DF00D1124A5
:103DA000EB5EFF4EFE87ED8786A997A9A0ADB1AD6A
:103DB0008D839E83AF83B8879C01AD01C501B4019B
:103DC0000E943D650E9443186B017C0120E030E0B9
:103DD000A9010E94A26587FDA2C023EC38EB42E353
:103DE0005EE3C701B6010E94A26587FDA3C020E083
:103DF00030E0A901C301B2010E94A26587FDC4C0E1
:103E0000A3019201C701B6010E94A96520E030E03C
:103E10004AE754E40E948D6769837A838B839C838D
:103E200020E030E0A901C701B6010E948967181699
:103E30000CF0DCC0542D452D362D272D852F942FC9
:103E4000A32FB22FED85FE8582AB93ABA4ABB5ABB0
:103E500083E8829DF001839DF00D1124EB5EFF4EFF
:103E600082A993A9A4A9B5A986A797A7A0ABB1AB2E
:103E70008D819E81AF81B885ED85FE85818392839A
:103E8000A383B483158616861786108A20E030E057
:103E900040E751E469817A818B819C810E94A96508
:103EA0006B017C0120E030E0A9010E94A26587FD42
:103EB00096C0C701B6010E941166CB01AA2797FDE3
:103EC000A095BA2FED85FE85848F958FA68FB78F2D
:103ED000128A118A868A978AA08EB18E81E090E03C
:103EE000938F828F83E0808380E090E02E960FB6E0
:103EF000F894DEBF0FBECDBFDF91CF911F910F9120
:103F0000FF90EF90DF90CF90BF90AF909F908F90F9
:103F10007F906F905F904F903F902F90089523EC8B
:103F200038EB42E35EEBC701B6010E9489671816C1
:103F30000CF05DCF123009F44CC0133009F460C0AE
:103F400082E0AD85BE858C93FD0181829282A38241
:103F5000B482128A118A8DE491E0A0E0B0E0848FEF
:103F6000958FA68FB78F80E090E0C0CF89819A812E
:103F7000029709F00FCF8FEF9FEFB8CFA981BA81D9
:103F8000139709F007CFF7CFD301C201B058898743
:103F90009A87AB87BC879C01AD01C701B6010E941F
:103FA000A96520E030E04AE754E40E948D67698308
:103FB0007A838B839C8320E030E0A901C701B6019E
:103FC0000E94896718161CF559854A853B852C8502
:103FD00035CFE981FA81329709F0B2CFCCCFC70152
:103FE000B60190580E941166CB0168CFD301C2017F
:103FF000B058ED85FE8582AB93ABA4ABB5AB28CFB3
:1040000029813A812330310509F09ACFB4CFD30109
:10401000C201EFCF2091EB0E223079F1233091F1E4
:10402000019723E8289FF001299FF00D1124EB5EF2
:10403000FF4E2081223071F138F0233049F02550B5
:10404000223030F586E00895222301F1213001F578
:1040500023E8289FF001299FF00D1124EB5EFF4E0D
:1040600020E030E0A90162A973A984A995A90E9462
:1040700089671816ACF481E008958230910581F6C5
:104080008FEF08958330910559F6FACF80E00895B7
:1040900087E0089581899289892B69F383E00895E7
:1040A00082E008956235A9F0633581F0663459F0F5
:1040B000A098A19820E1829FC001112490938900CB
:1040C000809388000895A09AA198F4CFA09AA19A0D
:1040D000F1CFA098A19AEECF6235A9F0633581F0B7
:1040E000663459F0A298A59820E1829FC00111245E
:1040F00090938B0080938A000895A29AA598F4CF9C
:10410000A29AA59AF1CFA298A59AEECF0F931F93EA
:104110008A019B0177FD27C00F3F110519F010F0B0
:104120000FEF10E08130910591F074F0049764F482
:1041300077FD33C0452B462B472BE9F066E4802FF3
:104140001F910F910C946C201F910F91089577FD92
:104150001EC0452B462B472BA1F066E4802F1F91F4
:104160000F910C945220002711279801041B150B66
:10417000260B370BD1CF6EE4802F1F910F910C943B
:104180006C206EE4802F1F910F910C94522062E5F9
:10419000802F1F910F910C94522062E5802F1F9168
:1041A0000F910C946C20CF93DF939C012150310927
:1041B00043E8429FE001439FD00D1124CB5EDF4EC8
:1041C0001EA61FA618AA19AA4D89413009F465C078
:1041D0004230D9F1442309F491C0433099F5488124
:1041E000423009F483C0433009F490C043E8429F51
:1041F000F001439FF00D1124EB5EFF4E46A957A935
:1042000060AD71ADE091EB0EE23009F488C0E330AF
:1042100009F489C083E8829FF001839FF00D112487
:10422000EB5EFF4E82E0808341835283638374831D
:10423000128A118A8DE491E0A0E0B0E0848F958F1E
:10424000A68FB78FDF91CF91089520E030E0A901CC
:104250006EA17FA188A599A50E94A265882391F3EC
:1042600083E088838FEF9FEFDC018C8F9D8FAE8F73
:10427000BF8F8EA99FA9A8ADB9AD89839A83AB835F
:10428000BC838EA19FA1A8A5B9A5B0588AAB9BAB52
:10429000ACABBDAB1A8A198AD5CF20E030E0A901BA
:1042A0006EA17FA188A599A50E94A265882351F2DD
:1042B00083E088838FEF9FEFDC018C8F9D8FAE8F23
:1042C000BF8F8EA99FA9A8ADB9AD89839A83AB830F
:1042D000BC838EA19FA1A8A5B9A58AAB9BABACABB3
:1042E000BDAB1A8A198ADF91CF91089549895A89FD
:1042F000452B09F47BCF1C8A1B8AA4CF188240E08F
:1043000050E0BA01DF91CF910C94862049815A8107
:104310006B817C81E091EB0EE23009F078CF02975F
:1043200009F078CF8FCF039709F074CF8BCF2F92FE
:104330003F924F925F926F927F928F929F92AF9235
:10434000BF92CF92DF92EF92FF920F931F93CF9382
:10435000DF93CDB7DEB7AA970FB6F894DEBF0FBED6
:10436000CDBF15E1412E10E1512E0EE7602E02E087
:10437000702E47E350E15C8F4B8F85E590E19E8B7B
:104380008D8BABE3B0E1BC8BAB8B8BE4282E80E153
:10439000382EE2E9F0E1FE87ED874AE750E15A8FD7
:1043A000498F80E690E1988F8F8BA5E3B0E1BA8BBF
:1043B000A98BE6E9F0E1FC87EB874EE850E1588BEA
:1043C0004F8787E490E19A878987AFE4B0E1BC83A7
:1043D000AB831A821982A980BA80BFEFAB1ABB0ADD
:1043E0000E94EC5A8091EB0E823009F4B9C1D201DF
:1043F0001596CD90DD90ED90FC90189721E231E379
:1044000048E954E4C701B6010E94A26587FF0DC0C8
:104410002FE33EEC42E451E4C701B6010E943E6541
:10442000F2016583768387839087D2011996CD90B8
:10443000DD90ED90FC901C9720E537E746ED5DE3BD
:10444000C701B6010E94A26587FF0DC02FE132E4CB
:1044500049E85AE3C701B6010E943E65F20161874F
:10446000728783879487C5010E947C188B01AB01FA
:10447000BC01D1014D935D936D937C931397982E5E
:10448000892E1DC080918E0290918F020B976CF542
:10449000C5010E947C188B01AB01BC01F101408376
:1044A00051836283738320918E0230918F022F5F3C
:1044B0003F4F30938F0220938E02982E892ED30186
:1044C000CD90DD90ED90FC90A7019601B801892D6B
:1044D000982D0E943D650E94431823EC38EB42E37F
:1044E0005EE30E94896718166CF210928F02109298
:1044F0008E0220E030E040E250ECB801892D982D8A
:104500000E94A26587FFF7C020E030E040E250E45F
:10451000C701B6010E94896718160CF0ECC0EB8148
:10452000FC8180819181019691838083D1010C91DE
:1045300011961C91119712969C90129713968C903D
:10454000C801A92DB82DF30180839183A283B38381
:10455000D2018C9190E08930910508F079C0FC017E
:10456000E057FF4F0C94916CF201848D958DA68DD0
:10457000B78D0097A105B10509F4F8C094F0019733
:10458000A109B109F201848F958FA68FB78FD10150
:104590000C9111961C91119712969C90129713965C
:1045A0008C909801492D582DF2016181728183818F
:1045B00094810E943D650E9443186B017C0120E0BC
:1045C00030E0A9010E94A26587FD1AC723EC38EBF1
:1045D00042EB5DE3C701B6010E94A26587FD1BC7E0
:1045E000D20151968D919C915297892B09F493C6D3
:1045F00020E030E0A901C701B6010E94A26587FF53
:1046000002C00C94F32BC701B6012091A80230918F
:10461000A9024091AA025091AB020E948967181624
:104620000CF079C6ED89FE8920812F5F208330E070
:104630008091A6029091A7028217930708F06EC698
:10464000D2011C9240E050E0BA01C5010E948620D0
:10465000E981FA81329709F46AC0B3E84B0E511C24
:10466000E4E06E0E711C4B8D5C8D4D575F4F5C8F7F
:104670004B8F8D899E898D579F4F9E8B8D8BAB89DC
:10468000BC89AD57BF4FBC8BAB8BB3E82B0E311C35
:10469000ED85FE85ED57FF4FFE87ED87498D5A8DDD
:1046A0004D575F4F5A8F498F8F89988D8D579F4FE8
:1046B000988F8F8BA989BA89AD57BF4FBA8BA98BB9
:1046C000EB85FC85ED57FF4FFC87EB874F855889BD
:1046D0004D575F4F588B4F8789859A858D579F4FD0
:1046E0009A878987AB81BC81AD57BF4FBC83AB83B1
:1046F000BA82A98270CE20E030E040E250E4B801F6
:10470000892D982D0E94896718160CF019CF20E08A
:1047100030E040E250ECC701B6010E94A26587FF7D
:104720000FCFEB81FC81808191810197FDCEAA960C
:104730000FB6F894DEBF0FBECDBFDF91CF911F91B2
:104740000F91FF90EF90DF90CF90BF90AF909F9030
:104750008F907F906F905F904F903F902F90089533
:10476000E2E0AE16B10409F042CE77CF818992899A
:10477000892B09F415C68FEF9FEFDC01F201848FBE
:10478000958FA68FB78F64CFEB85FC858081918153
:10479000892B09F455C5E0907602109177020091BB
:1047A0007802F090790260916B0270916C028091B6
:1047B0006D0290916E020E94426620E030E04AE76E
:1047C00054E40E94A9652E2D312F402F5F2D0E94A9
:1047D0003D656B017C01AD85BE858D919D910D90F0
:1047E000BC91A02D8D839E83AF83B8872BED3FE0D6
:1047F00049EC50E4C701B6010E948D676D8F7E8F32
:104800008F8F98A32D813E814F8158850E94A96585
:104810000E94F06769A37AA38BA39CA32D813E819C
:104820004F815885C701B6010E94A9656B017C01C3
:1048300023E839EF42E25EE369A17AA18BA19CA152
:104840000E948D679B01AC01C701B6010E943D65C6
:10485000F20126893789408D518D0E948D67AF8581
:10486000B8892D913D914D915C910E943E650E94C9
:104870004318F2016183728383839483048D158DC1
:10488000268D378D10161106120613060CF008C679
:10489000D1012D913D914D915C910E943D650E9409
:1048A00043186B017C01F2012581368147815085D7
:1048B0000E948D676D837E838F839887D2011D96BA
:1048C0002D913D914D915C91509719966D917D91EF
:1048D0008D919C911C970E948D679B01AC016D810D
:1048E0007E818F8198850E943E650E941166AB0192
:1048F000BC01C5010E948620AD85BE858D919D912C
:104900000D90BC91A02D8D839E83AF83B8879C01B1
:10491000AD016D8D7E8D8F8D98A10E94A9650E943D
:10492000A6656D8F7E8F8F8F98A32D813E814F81DD
:104930005885F20166897789808D918D0E94A965DD
:104940006D837E838F8398872D8D3E8D4F8D58A1EB
:1049500060E070E080E89FE30E943D659B01AC0150
:104960006D817E818F8198850E948D67AB89BC891E
:104970006D937D938D939C9313972FE832EC45E7CD
:104980005CE3C701B6010E948D679B01AC01F20197
:1049900065857685878590890E943E65D2011D9642
:1049A0006D937D938D939C9350975C968D919D9183
:1049B0000D90BC91A02DDFC2AF89B88D2C91213014
:1049C00009F49DC5223009F403C5211141CE80911F
:1049D0006B0290916C02A0916D02B0916E02F20197
:1049E000E359FF4F4081518162817381841795079C
:1049F000A607B70708F4A8C7F201E45BFF4F808160
:104A0000882309F4DBC522E0EF89F88D208320CECE
:104A1000F201848D958DA68DB78D0097A105B10506
:104A200009F404C4181619061A061B0644F4019763
:104A3000A109B109F201848F958FA68FB78F2FE856
:104A400032EC45E75CE3A985BA856D917D918D9146
:104A50009C910E948D67F2012181328143815481B2
:104A60000E943E656B017C01D20111966D937D938E
:104A70008D939C93149722E93AE046E850E4E98547
:104A8000FA8560817181828193810E94A2651816E6
:104A900034F12FE832EC45E75CE3D2019A966D9150
:104AA0007D918D919C919D970E948D672FE832ECAE
:104AB00045E75CE30E948D6720E030E040E05FE383
:104AC0000E948D679B01AC01C701B6010E943E6543
:104AD0006B017C01F2016183728383839483D10132
:104AE0002D913D914D915C91C701B6010E943D65AC
:104AF0000E9443186B017C01F201258136814781B8
:104B000050850E948D676D837E838F839887D20145
:104B10001D962D913D914D915C91509719966D91F7
:104B20007D918D919C911C970E948D679B01AC019A
:104B30006D817E818F8198850E943E650E941166FD
:104B4000AB01BC01C5010E9486202FE832EC45E78D
:104B50005CE3C701B6010E948D679B01AC01F201C5
:104B600065857685878590890E943E65D2011D9670
:104B70006D937D938D939C9350972FE832EC45E78E
:104B80005CE39A966D917D918D919C919D970E9489
:104B90008D67E985FA8520813181428153810E94A8
:104BA0003E656B017C0122E93AE046E850E40E9450
:104BB000896718160CF473C322E93AE046E850EC12
:104BC000C701B6010E94A26587FF51C782E99AE03A
:104BD000A6E8B0ECE985FA8580839183A283B3834C
:104BE0006C017D01AB89BC89CD92DD92ED92FC9286
:104BF00013972ECD60916B0270916C0280916D02C3
:104C000090916E020E94426620E030E04AE754E450
:104C10000E94A9656D837E838F839887F201EF5B85
:104C2000FF4F6081772767FD7095872F972F0E9430
:104C3000446620E030E040E05CE30E948D6720E0C5
:104C400030E040EA50E40E948D6720E030E040E030
:104C50005FE30E948D674201B7E48B0E911C01E077
:104C600010E09AA689A67E8E6D8E5AA249A2BEA297
:104C7000ADA24B015C0138A62FA229A43AA4B80129
:104C8000882777FD8095982F0E9444662BED3FE0A2
:104C900049EC50E40E948D672D813E814F815885FB
:104CA0000E948D6720E030E040E251E40E94A96557
:104CB0006B017C010E94F0672B013C01F1013597EB
:104CC0006081772767FD7095872F972F0E94446634
:104CD00020E030E040E05CE30E948D6720E030E0BF
:104CE00040EA50E40E948D67A30192010E948D6703
:104CF000A50194010E943E654B015C01C701B6010C
:104D00000E94A6656B017C01F10160813196FAA7D2
:104D1000E9A7772767FD7095872F972F0E94446634
:104D200020E030E040E05CE30E948D6720E030E06E
:104D300040EA50E40E948D67A70196010E948D67AA
:104D4000A50194010E943E654B015C010F5F1F4F5E
:104D50000530110509F091CF6D8C7E8C49A05AA0C9
:104D6000ADA0BEA02FA038A4D20111966D937D9363
:104D70008D939C93149752961C921E9251978FEF8D
:104D80009FEFDC01FFCBF201848D958DA68DB78D51
:104D90000097A105B10509F403C244F00197A109E8
:104DA000B109F201848F958FA68FB78F92012F5989
:104DB0003F4FD9018D919D910D90BC91A02D8D8378
:104DC0009E83AF83B88720E030E0A901BC01CD010C
:104DD0000E94A265882309F471C3D2019E968D9129
:104DE0009D910D90BC91A02D8D8F9E8FAF8FB8A3FC
:104DF00020E030E0A901BC01CD010E94A26587FD41
:104E0000EBC58D8D9E8DAF8DB8A189A39AA3ABA361
:104E1000BCA3A985BA85CD90DD90ED90FC9020E0F3
:104E200030E0A901C701B6010E94A265A701960161
:104E300087FDD0C569A17AA18BA19CA10E94896739
:104E400018160CF0DDC4F201C6A6D7A6E0AAF1AA96
:104E5000F601D7012FE832EC45E75CE3BF01CD0155
:104E60000E948D67D20111962D913D914D915C91DB
:104E700014970E943E65182F092FCB01A12FB02F48
:104E8000F20181839283A383B483F62EE72E80916F
:104E9000EB0E823009F4A1C3F101208131814281FE
:104EA00053816F2D7E2D812F902F0E943D650E9492
:104EB00043186B017C0120E030E0A9010E94A2654B
:104EC00087FD96C4CD82DE82EF82F8866091A802CB
:104ED0007091A9028091AA029091AB029B01AC0152
:104EE0000E943E659B01AC016D817E818F8198851A
:104EF0000E948967AD89BE8918160CF04AC42C91AE
:104F00002F5F2C9330E08091A6029091A702821728
:104F1000930708F09DCBF2011082138E128E40E0B1
:104F200050E0BA01C5010E94862092CBD20155966D
:104F30008C915597882309F431C1813009F443C31A
:104F4000AB8DBC8D4C9150E0519541955109662730
:104F500057FD6095762FC5010E94862079CBF2011E
:104F6000848D958DA68DB78D0097A105B10509F4A7
:104F70001FC20CF46DCB0197A109B109F201848F16
:104F8000958FA68FB78F64CBAB85BC858D919C9197
:104F9000892B09F491C1E09076021091770200917B
:104FA0007802F090790260916B0270916C028091AE
:104FB0006D0290916E020E94426620E030E04AE766
:104FC00054E40E94A9652E2D312F402F5F2D0E94A1
:104FD0003D652BED3FE049E450E40E948D676D8311
:104FE0007E838F839887AD85BE852D913D914D91B0
:104FF0005C910E94A9650E94A6656D8F7E8F8F8F40
:1050000098A320E030E040E05FE3F2016689778911
:10501000808D918D0E948D676B017C012D8D3E8D61
:105020004F8D58A160E070E080E89FE30E943D65ED
:105030009B01AC01C701B6010E948D67AF85B8899D
:105040002D913D914D915C910E943E650E944318C7
:10505000F2016183728383839483048D158D268D81
:10506000378D10161106120613060CF0F3C1D1018C
:105070002D913D914D915C910E943D650E94431898
:105080006D8F7E8F8F8F98A3F201258136814781A6
:1050900050850E948D676B017C01D2011D962D9178
:1050A0003D914D915C91509719966D917D918D91A7
:1050B0009C911C970E948D679B01AC01C701B601B2
:1050C0000E943E650E941166AB01BC01C5010E94B1
:1050D0008620ED85FE85C080D180E280F380A70127
:1050E00096016D817E818F8198850E94A9650E94BD
:1050F000F0676D837E838F8398872BED3FE049E4D3
:1051000050E4D20156966D917D918D919C91599765
:105110000E948D6769A37AA38BA39CA3A701960124
:10512000C701B6010E943E659B01AC0169A17AA14D
:105130008BA19CA10E94A9652D813E814F8158853C
:105140000E948D67EB89FC896083718382839383DE
:105150002FE832EC45E75CE36D8D7E8D8F8D98A155
:105160000E948D679B01AC01D2011D966D917D91CE
:105170008D919C9150970E943E65F20165877687DC
:105180008787908B848D958DA68DB78D0197A1090A
:10519000B109848F958FA68FB78F5ACA1C9258CAAF
:1051A00041E050E0528B418BD2011586168617865E
:1051B000108A10927A0210927B0210927C02109256
:1051C0007D02E989FA8980819181892B09F460C186
:1051D000E2E0D201EC935A968D919C915B97892BDA
:1051E00069F056968D919D910D90BC91A02DF20184
:1051F00081839283A383B483138E128EEFEFFFEF2C
:10520000A989BA89ED93FC93D20153968D919C9113
:105210005497892B09F4AFCA82E490E0A0E0B0E093
:10522000F201848F958FA68FB78F12CA8FEF9FEFF1
:10523000DC01848F958FA68FB78F23E02083F2CB7C
:10524000C801A92DB82DEF85F88980839183A283A9
:10525000B38360916B0270916C0280916D029091AA
:105260006E020E94426620E030E04AE754E40E9469
:10527000A9659B01AB01BC01409376025093770274
:105280006093780270937902E1E0F0E0AB85BC8531
:10529000ED93FC93E22E132F082FF92E84CA82E996
:1052A0009AE0A6E8B0E4E985FA8580839183A28339
:1052B000B3836C017D0196CCC801A92DB82DEF8573
:1052C000F88980839183A283B38360916B0270918C
:1052D0006C0280916D0290916E020E94426620E005
:1052E00030E04AE754E40E94A9659B01AB01BC0190
:1052F000409376025093770260937802709379021C
:10530000E1E0F0E0AB85BC85ED93FC93E22E132F3A
:10531000082FF92E48CEED89FE891082D20115960C
:105320002D913D914D915C911897C701B6010E9456
:105330008D676D837E838F839887F20125853685FF
:105340004785508961857285838594850E948D6724
:105350009B01AC016D817E818F8198850E943E65A5
:105360000E941166AB01BC01C5010E9486202FE896
:1053700032EC45E75CE3C701B6010E948D679B01F3
:10538000AC01D2011D966D917D918D919C915097AC
:105390000E943E65F201658776878787908B58C9A2
:1053A000108240E050E0BA01C5010E94862050C939
:1053B000A989BA898C91858BC5010E94D3208FEF72
:1053C0009FEFDC01F201848F958FA68FB78F40C9C4
:1053D00080916B0290916C02A0916D02B0916E026F
:1053E000F201EB58FF4F4081518162817381841734
:1053F0009507A607B70708F429C2D2012C93BBC9A9
:1054000023EC38EB42EB5DEBC701B6010E948967E4
:1054100018160CF0E5C8E1E0F0E0D2015296FC93DA
:10542000EE93519753968D919C915497892B09F047
:1054300008C98FEF9FEFDC01F201848F958FA68F53
:10544000B78FD20151968D919C915297892B09F477
:1054500062CFCEC8AB85BC851D921C928FEF9FEFAB
:10546000DC01F201848F958FA68FB78F41E050E069
:10547000528B418BD2011D961D921D921D921C9242
:105480005097E989FA8980819181892B09F0A0CE12
:105490001C9240E050E0BA01C5010E948620AECEC9
:1054A00040E050E0BA01C5010E948620AB85BC8572
:1054B0001D921C9241E050E0F201DACF2FE832EC6D
:1054C00045E75CE3A985BA856D917D918D919C91AD
:1054D0000E948D67F20121813281438154810E94B3
:1054E0003E65F62EE72E182F092F862F9E2DA12F11
:1054F000B02FF20181839283A383B483C8CC8091BF
:105500006B0290916C02A0916D02B0916E02F2015B
:10551000EF58FF4F40815181628173818417950755
:10552000A607B70708F06FCA60916B0270916C0212
:1055300080916D0290916E02F201E359FF4F00815C
:10554000118122813381601B710B820B930B0E94AE
:10555000426620E030E04AE754E40E94A965A98D44
:10556000BA8D0D911D912D913C911397EB89FC897A
:1055700000831183228333832D913D914D915C9162
:105580000E948D67F201EF5AFF4F208131814281E5
:1055900053810E943E65D20111966D937D938D9348
:1055A0009C931497F10120813181428153810E94A3
:1055B0003D650E9443186B017C01B0CEE1E0AF89EC
:1055C000B88DEC9345C8EB8DFC8D408150E060E0D8
:1055D00070E0C5010E9486203BC8209141113091A6
:1055E0004211409143115091441160913B107091D0
:1055F0003C1080913D1090913E100E943D650E94AC
:1056000011669B0177FDF2C1B901882777FD80956E
:10561000982F0E94446620E030E040E054E30E946E
:10562000A26587FF39CC20915111309152114091E0
:1056300053115091541160914B1070914C10809106
:105640004D1090914E100E943D650E94431860934A
:10565000B1037093B2038093B3039093B4032FE824
:1056600032EC45E75CE30E948D6720917A0230912D
:105670007B0240917C0250917D020E943E656D8FBD
:105680007E8F8F8F98A360937A0270937B028093B2
:105690007C0290937D02D1012D913D914D915C91C1
:1056A0006F2D7E2D812F902F0E943D650E94431803
:1056B0006B017C0120E030E0A9010E94A26587FD1A
:1056C0009AC1CD82DE82EF82F8866091A802709145
:1056D000A9028091AA029091AB029B01AC010E94A9
:1056E0003E659B01AC016D817E818F8198850E9412
:1056F0008967AD89BE8918160CF401CC1C92F201A1
:105700002581368147815085C701B601B2E0AB16CD
:10571000B10409F478C10E948D676D837E838F8305
:105720009887D2011D962D913D914D915C91509796
:1057300019966D917D918D919C911C970E948D671A
:105740009B01AC016D817E818F8198850E943E65B1
:105750000E941166AB01BC01C5010E9486202FE8A2
:1057600032EC45E75CE3C701B6010E948D679B01FF
:10577000AC01F20165857685878590890E943E653A
:10578000D2011D966D937D938D939C9350970C94AD
:1057900028231C92F2012581368147815085C7015B
:1057A000B6010E948D676B017C01D2011D962D917F
:1057B0003D914D915C91509719966D917D918D9190
:1057C0009C911C970E948D679B01AC01C701B6019B
:1057D0000E943E650E941166AB01BC01C5010E949A
:1057E00086200C942823C701B60190580C940523F9
:1057F000D701C601B0588D839E83AF83B88766CB2F
:10580000C701B6010E9441116B017C012FE832EC07
:1058100045E75CE36D817E818F8198850E948D676D
:10582000A70196010E948D679B01AC016D8D7E8D55
:105830008F8D98A10E943E659C01CB01D901F20198
:1058400086A797A7A0ABB1ABFB0104CB60916B021D
:1058500070916C0280916D0290916E02F201EF588E
:10586000FF4F0081118122813381601B710B820BFC
:10587000930B0E94426620E030E04AE754E40E9425
:10588000A9656B017C018201035A1F4FD8012D913C
:105890003D914D915C910E948D67E98DFA8D20813B
:1058A0003181428153810E943E65AB89BC896D93F1
:1058B0007D938D939C931397F801208131814281D0
:1058C0005381C701B6010E948D67A70196010E940E
:1058D0008D6720E030E040E05FE30E948D676D83DC
:1058E0007E838F839887A98DBA8D2D913D914D919F
:1058F0005C91C701B6010E948D679B01AC016D816F
:105900007E818F8198850E943E65F201EB5AFF4FA0
:1059100020813181428153810E943E65F201618381
:10592000728383839483D1012D913D914D915C913C
:105930000E943D650E9443186B017C01F2012581A4
:10594000368147815085E7CE60916B0270916C0281
:1059500080916D0290916E02F201E759FF4F008134
:10596000118122813381601B710B820B930B0E948A
:10597000426620E030E04AE754E40E94A9656B01EA
:105980007C018201075A1F4F9B01AC01D8016D9128
:105990007D918D919C910E948D67EB89FC8960833C
:1059A000718382839383D8012D913D914D915C91B8
:1059B000C701B6010E948D67A70196010E948D67FD
:1059C00020E030E040E05FE30E948D67F201E35B9E
:1059D000FF4F9ECF50582ECA8D8D9E8DAF8DB8A192
:1059E000B05889A39AA3ABA3BCA313CA2227332719
:1059F000261B370B09CED701C601B0588D839E8375
:105A0000AF83B88762CE0E948D676B017C01D201A3
:105A10001D962D913D914D915C91509719966D91E8
:105A20007D918D919C911C970E948D679B01AC018B
:105A3000C701B6010E943E656B017C0120E030E0A9
:105A4000A9016D8D7E8D8F8D98A10E948D679B0120
:105A5000AC01C701B6010E943E650E941166AB0110
:105A6000BC0182E090E00E9486200C942D23A98541
:105A7000BA85CD92DD92ED92FC921397B3C8109245
:105A8000C702109215101092981010921B116EE41C
:105A900080E00E9452206EE480E00C946C2001971C
:105AA00023E8289FF001299FF00D1124EB5EFF4EA3
:105AB0008CE29CEEAAECB3E485839683A783B0873F
:105AC00011861286138614860895AF92BF92CF92E4
:105AD000DF92EF92FF920F931F93CF93DF9300D04B
