:100000000C947A010C9499010C9499010C94990127
:100010000C9499010C9499010C9499010C949901F8
:100020000C9499010C9458020C9499010C94990128
:100030000C9499010C9499010C9499010C949901D8
:100040000C9499010C9499010C9499010C949901C8
:100050000C9499010C9499010C9499010C949901B8
:100060000C9499010C9499010C9499010C949901A8
:100070000C9499010C942B110C9499010C949901F6
:100080000C9499010C9499010C9499010C94990188
:100090000C9498380C9499010C9499010C949A49F9
:1000A0000C9499010C9499010C9454530C9465533D
:1000B0000C9499010C9499010C9499010C94380AB0
:1000C0000C9499010C9499010C9499010C94990148
:1000D0000C9499010C9499010C9499010C94990138
:1000E0000C9499010C9499010C9499010C94990128
:1000F0000C948D540C9499010C9499010C946154B6
:100100000C9499010C9499010C9499010C94990107
:100110000C9499010C9499010C9499010C949901F7
:100120002F3A9A3A7A419441ED3926413441574168
:10013000A93FCC3FEA3F224057409F40E84007415B
:10014000D33BF23BC43AE13A133B403B503B553B77
:10015000B7395B3B643B793B8E3BAF3BB93B8C3F54
:100160009C3F313F453FB739B63ED83E523F743F82
:10017000FC3D113E1E3E2B3E3A3E743E9D3ABB3B3B
:10018000513C563CB941D8418C3AF641174228427D
:100190003742554258426B429042B642B739B7395E
:1001A000B739B739B739B739B739B7399342A842F0
:1001B000EE3D4F3FD33CF33C493D5A3D703D903DB1
:1001C000073C253C3B3AB739723A7E3E993E5E3C4D
:1001D000633C9F4105A84CCDB2D44EB93836A90234
:1001E0000C50B9918688083CA6AAAA2ABE00000035
:1001F000803F6E616E00696E660000407A10F35AAF
:1002000000A0724E18090010A5D4E80000E8764856
:10021000170000E40B54020000CA9A3B000000E102
:10022000F505000080969800000040420F00000095
:10023000A08601000000102700000000E803000075
:1002400000006400000000000A000000000001003F
:10025000000000002C76D888DC674F0823DFC1DF60
:10026000AE59E1B1B796E5E3E453C63AE651997663
:1002700096E8E6C28426EB898C9B62ED407C6FFC9D
:10028000EFBC9C9F40F2BAA56FA5F490055A2AF7DF
:100290005C936B6CF9676DC11BFCE0E40D47FEF5E8
:1002A00020E6B500D0ED902E030094357705008050
:1002B000841E080000204E0A000000C80C333333AF
:1002C000330F986E12831141EF8D2114893BE6554F
:1002D00016CFFEE6DB18D1844B381BF77C1D901D32
:1002E000A4BBE424203284725E228100C9F124EC94
:1002F000A1E53D2711241FBECFEFD1E4DEBFCDBF66
:1003000013E0A0E0B2E0EAE5FDEC00E00BBF02C0C4
:1003100007900D92A032B107D9F716E3A0E2B3E03F
:1003200001C01D92A430B107E1F70E947B0F0C942D
:10033000AB660C94000081E080930B0280917A0AF6
:1003400086FF04C080917A0A87FDADC080917A0A49
:1003500086FF28C08091980290919902892B19F10B
:1003600080919502811129C00E94D826109299028D
:100370001092980210929702109296021092950293
:1003800081E00E94C50B1092AF021092AE02109253
:10039000AD021092AC021092AB024FEF60E080E031
:1003A0000C945E0A089583E00E94C50B0E94330AF4
:1003B000892B09F476C00C94BF070E94A33580ED09
:1003C0008093112B8EE08093122B80919802909154
:1003D00099029093132B80919802909199028093A7
:1003E000142B1092152B86E78093162B88E08093B0
:1003F000172B1092182B1092192B10921A2B109267
:100400001B2B8FEF80931C2B10921D2B82E180936E
:100410001E2B6091122B20E04FEF5FEF81E19BE2FA
:100420000E9454486091122B20E04FEF5FEF81E172
:100430009BE20E9454486091122B20E04FEF5FEF47
:1004400081E19BE20E9454486091122B20E04FEF23
:100450005FEF81E19BE20E9454486091122B20E003
:100460004FEF5FEF81E19BE20E9454486091122BB5
:1004700020E04FEF5FEF81E19BE20E945448109231
:10048000601110929A0280E090E0FC01EE0FFF1FD5
:10049000EF56F54D11821082019680349105A9F72F
:1004A00063CF0C9425070E949C2783E00C94C50B16
:1004B0001F920F920FB60F9211240F900FBE0F9044
:1004C0001F9018950E94370680919802909199028A
:1004D000892B31F08091AE029091AF020E9461367B
:1004E0000C94D435CF93DF93CDB7DEB729970FB6F1
:1004F000F894DEBF0FBECDBF0E94370680919802F0
:1005000090919902892B21F08091950281111EC052
:100510008091AB02813009F443C0833009F440C0BC
:100520008091980290919902892B29F080919502EF
:10053000882309F465C00E946D3729960FB6F89498
:10054000DEBF0FBECDBFDF91CF9108958091AE0287
:100550009091AF02892B09F04DC080919A0290E0F2
:10056000019663E070E00E94156380939A02809187
:100570009A02813009F455C008F045C08091AE025E
:100580009091AF02892B21F60E94D8260E94A335B4
:100590004FEF60E080E00E945E0A10926011CDCFC4
:1005A00082E08093AB028091980290919902892B0E
:1005B000F1F080ED898389E08A838091980290919F
:1005C00099029B8380919802909199028C831D825D
:1005D0008DE48E8383E08F83188682E1898720E013
:1005E0004FEF5FEF69E0CE0101960E9454480E94F0
:1005F000D826A3CF80919A02882309F489CFADCF62
:100600000E94AC379ACF823009F082CF0E94D82660
:100610004FEF6FEF80E00E945E0A89E080936011E7
:100620008CCF0E94A33540E06FEF80E00E945E0A0D
:1006300087E08093601181CF80ED97E0A0E0B0E08B
:100640008093800A9093810AA093820AB093830AD0
:1006500081E080937F0A8BE991E09093850A8093F3
:10066000840A8FE79AE00C94D9488FE79AE00C94BB
:10067000A5488F929F92AF92BF92CF92DF92EF9256
:10068000FF920F931F93CF93DF93CDB7DEB72C97D5
:100690000FB6F894DEBF0FBECDBFE62EE8269091D0
:1006A0004B02992309F455C0E6FA442740F9E7FCC8
:1006B000A2C0E5FC446066FD6EC030E021E067FD4D
:1006C0006EC0226065FF6EC0346080E289838AE07C
:1006D0008A838091510290915202A0915302B0916D
:1006E00054028B839C83AD83BE834F8338872987D5
:1006F0001A868091550290915602892B09F454C0B4
:1007000020915F0F3091600F8091550290915602B9
:100710002817390709F448C04091550250915602F4
:1007200021E06AE0CE0101960E9454482C960FB653
:10073000F894DEBF0FBECDBFDF91CF911F910F9117
:10074000FF90EF90DF90CF90BF90AF909F908F90F1
:1007500008956623B9F090910B029111E7CFE6FC62
:100760004EC020E030E0E7FC60C0E5FE53C065FD10
:1007700051C086FD53C085FD82C087FFD7CF0E9440
:100780007202D4CF90910B02992329F310920B029D
:1007900010920A02CBCF31E020E067FF92CF3260A7
:1007A00065FD92CF246091CF8091C00240915F0F90
:1007B0005091600F21E06AE070E0882369F0CE017B
:1007C00001960E944239FC014181BC0182E00E94F5
:1007D0004F4B0E94B94BAACFCE0101960E944239DD
:1007E000FC01418120E030E050E0BC018AEF92E161
:1007F0000E94865B9BCF4260E5FE5DCF5BCF6C873E
:100800008B8766FF19C00E941C0320E030E06C85D6
:100810008B85A9CF232B09F489CFABCF87FD49C0A6
:1008200085FD2DC00E94620281CF67FD0CC0109231
:100830000A0221E030E099CF0E94350321E030E048
:100840006C858B8590CF91E090930A028090510245
:1008500090905202A0905302B090540280927B0A72
:1008600090927C0AA0927D0AB0927E0A90916011CB
:100870009150923008F079CF1092601176CF0E949B
:1008800037068091550290915602892B49F04FEF1F
:1008900060E080E00E945E0A1092560210925502BB
:1008A0001092AF021092AE021092AD021092AC0202
:1008B0003DCF81E06C870E94C50B0E94DE376C85BE
:1008C000662319F081E080930B028091650F8111FE
:1008D00026C08091DE0F811122C0809157108111B6
:1008E0001EC03FE9C32E3FE0D32EE12CF12CF601D0
:1008F00011821082FFEFEF1AFF0A0BED1FE029ECC7
:100900003FE340E050E0BA01C7010E949A1A89E72C
:10091000C80ED11CE3E0EE16F10449F707CF0E94A0
:10092000D82604CFCF938091510290915202A0918A
:100930005302B091540240910C0250910D0260910B
:100940000E0270910F02841B950BA60BB70B4997F3
:10095000A105B105F0F0C9B1C095C07EC0937A0A77
:10096000809110028C17A9F06C2F0E94390380919E
:10097000510290915202A0915302B091540280937F
:100980000C0290930D02A0930E02B0930F02C0933D
:100990001002CF9108951092B100249808950C94FC
:1009A000CB04CF93DF9382E48093B000A3EBB0E05D
:1009B00082EB8C93E1EBF0E085E080832FEF32E572
:1009C00097E0215030409040E1F700C000001082D5
:1009D000CFE1DEE42197F1F700C0000095E89C9399
:1009E0008083DFEF22E537E0D15020403040E1F74F
:1009F00000C000001082249881E080930E0E84E6EF
:100A000090E0A0E0B0E080930F0E9093100EA093C2
:100A1000110EB093120E8FEC94E09093140E80930D
:100A2000130EDF91CF9108959C01009709F18A3F41
:100A3000910578F085E08093B10064E274EF80E086
:100A400090E0249A40E050E00E944B632093B30072
:100A5000089587E08093B10064E87EE180E090E053
:100A6000249A40E050E00E944B632093B300089525
:100A70000C94CB04CF93DF93C82FCF7082958F70E7
:100A800009F161E090E0660F9F5F9813FCCF70E082
:100A9000D0E0CC0FDD1FCC0FDD1FCF5EDD4F8827F0
:100AA00077FD8095982F0E94175D288139814A81B2
:100AB0005B810E94605E0E94E95CCB01DF91CF9177
:100AC0000C94140561E070E0E3CF0F931F93CF9374
:100AD000DF9300D0CDB7DEB70E94CB040091420275
:100AE000109143020115110509F480C08091440260
:100AF00090914502801791070CF05EC030911D0E59
:100B000020E0880F991F820F931F45960E94CE10F8
:100B10000E943A0530911D0E20E080914402909190
:100B20004502880F991F820F931F44960E94CE1092
:100B30008093250340914402509145024F5F5F4FDF
:100B400050934502409344026091420270914302E7
:100B50006417750794F40E94F6648A830E94F66411
:100B600089830E94F6644A8169810F900F90DF911A
:100B7000CF911F910F910C945E0A10921E0E282F98
:100B800030E040E050E060912103709122038091B9
:100B90002303909124030E94296320931F0E309316
:100BA000200E4093210E5093220E85E695E09093FF
:100BB000240E8093230ECFCF81E080931E0E1092DF
:100BC00045021092440210924302109242020E9487
:100BD000CB04109241024FEF60E080E00F900F9045
:100BE000DF91CF911F910F910C945E0A90911D0E91
:100BF00080E042960E94CE108093200390911D0EBB
:100C000080E043960E94CE10082F10E0109343021C
:100C1000009342022091200330E040E050E060E881
:100C200079EA83E090E00E942963209321033093C6
:100C30002203409323035093240358CF91E09093D1
:100C4000410290931E0E10921F0E1092200E1092D1
:100C5000210E1092220E25E635E03093240E2093CB
:100C6000230E80931D0E8EE19EE00C94D94886EEF3
:100C700090E00E9414058EE09EE00C94D9480F93FA
:100C80001F938091510290915202A0915302B09112
:100C9000540280933C0E90933D0EA0933E0EB09371
:100CA0003F0E10922D0E84EF91E0A0E0B0E0809313
:100CB0002E0E90932F0EA093300EB093310E8EEF28
:100CC00097E09093330E8093320E8DE29EE00E9467
:100CD000D9480BED1FE029EC3FE340E050E0BA01BA
:100CE00081E090E00E949A1A0BED1FE029EC3FE3AF
:100CF00040E050E0BA0182E090E00E949A1A0BEDC9
:100D00001FE029EC3FE340E050E0BA0183E090E0CF
:100D10000E949A1A81E090E090934A0280934902DF
:100D20001F910F9108958091480E8230B9F1809102
:100D3000760F9091770F892BB9F18091EF0F9091F9
:100D4000F00F892B89F10E94D82641E05FEF6FEF09
:100D50007FEF81E090E00E943D1E41E05FEF6FEF8A
:100D60007FEF82E090E00E943D1E81E080932D0E97
:100D700088E893E1A0E0B0E080932E0E90932F0ED0
:100D8000A093300EB093310E81EE98E09093330E25
:100D90008093320E8DE29EE00C94D9488091760FBC
:100DA0009091770F892B09F40895809168109091A4
:100DB0006910892B41F608958091480E8230B9F16F
:100DC0008091760F9091770F892BB9F18091EF0F79
:100DD0009091F00F892B89F10E94D8264FEF50E0B7
:100DE00060E070E081E090E00E943D1E4FEF50E037
:100DF00060E070E082E090E00E943D1E81E0809320
:100E00002D0E88E893E1A0E0B0E080932E0E909341
:100E10002F0EA093300EB093310E84E799E090939B
:100E2000330E8093320E8DE29EE00C94D94880916F
:100E3000760F9091770F892B09F4089580916810AF
:100E400090916910892B41F608950F931F9381E0CB
:100E500090E090934802809347021092A00F109266
:100E60009F0F109219101092181010929210109259
:100E700091100BED1FE029EC3FE340E050E0BA0198
:100E80000E949A1A0BED1FE029EC3FE340E050E08E
:100E9000BA0182E090E00E949A1A0BED1FE029EC63
:100EA0003FE340E050E0BA0183E090E00E949A1AEC
:100EB00010922D0E84EF91E0A0E0B0E080932E0E12
:100EC00090932F0EA093300EB093310E8EEF97E0DB
:100ED0009093330E8093320E8DE29EE01F910F911E
:100EE0000C94D9480F931F9381E090E090934802AF
:100EF000809347021092A00F10929F0F109219102A
:100F00001092181010929210109291100BED1FE099
:100F100029EC3FE340E050E0BA010E949A1A0BED41
:100F20001FE029EC3FE340E050E0BA0182E090E0AE
:100F30000E949A1A0BED1FE029EC3FE340E050E0DD
:100F4000BA0183E090E00E949A1A10922D0E84EF6D
:100F500091E0A0E0B0E080932E0E90932F0EA0932E
:100F6000300EB093310E8CED96E09093330E80935B
:100F7000320E8DE29EE01F910F910C94D948109291
:100F80004802109247028DE29EE00E94A5480E940E
:100F9000D8264FEF60E080E00E945E0A83EC98EB79
:100FA000A2EBBEE38093740290937502A093760245
:100FB000B093770284E690E090937302809372027C
:100FC000089540E060E08FEF0E945E0A2FEF81EE0F
:100FD00094E0215080409040E1F700C0000040E0E4
:100FE00060E080E00E945E0A2FEF81EE94E02150E5
:100FF00080409040E1F700C00000E3CF0F931F93C3
:10100000CF93DF938091510290915202A0915302AD
:10101000B091540240913C0E50913D0E60913E0EB5
:1010200070913F0E841B950BA60BB70B813497472D
:10103000AB41B10508F05CC08091480E823009F4E4
:101040003FC08091760F9091770F892B41F480916A
:10105000650F81110BC00E94D8260E94E107809184
:10106000EF0F9091F00F892B09F055C08091DE0FA2
:10107000811106C08091EF0F9091F00F892B59F3E9
:101080000E94F6648C010E94F664EC010E94F664F2
:10109000FC012FEF30E0C801B9010E941563482F11
:1010A000CE01B9010E941563C82FCF01B9010E947A
:1010B00015636C2FDF91CF911F910F910C945E0AF5
:1010C0008091760F9091770F892B09F474C08091ED
:1010D000681090916910892BF1F48091571081115B
:1010E000CFCF8091681090916910892B49F6B3CFCA
:1010F00081E080932D0E40E06FEF80E00E945E0A59
:101100000E94D8261092480210924702DF91CF9198
:101110001F910F91089580914602813041F10BEDAE
:101120001FE029EC3FE34BED5FE069E471E481E00F
:1011300090E00E949A1A0BED1FE029EC3FE34BED83
:101140005FE069E471E482E090E00E949A1A0BED9E
:101150001FE029EC3FE34BED5FE069E471E483E0DD
:1011600090E00E949A1A81E08093460289CF0BEDAD
:101170001FE029EC3FE340E050E0BA0181E090E05D
:101180000E949A1A0BED1FE029EC3FE340E050E08B
:10119000BA0182E090E00E949A1A0BED1FE029EC60
:1011A0003FE340E050E0BA0183E090E00E949A1AE9
:1011B0001092460265CF8091650F882309F44BCFCA
:1011C0008CCFEF92FF920F931F93CF93DF93CDB706
:1011D000DEB72C970FB6F894DEBF0FBECDBF0E94CE
:1011E000D8260BE91FE0EE24E394F12CEC0EFD1E53
:1011F000F80164817581882777FD8095982F0E947A
:10120000175D2BED3FE049EC50E40E94605E9B01CE
:10121000AC01F80160817181828193810E94115C2F
:10122000F70161937193819391937F0107581F4F49
:10123000F1E106301F07E1F68091480E28E530EA1B
:101240004BE851EC8230D1F169817A818B819C81AC
:101250000E945C5E18160CF445C028E530EA4BE8A5
:1012600051EC6D817E818F8198850E945C5E18169D
:10127000CCF181E080932D0E88EE93E0A0E0B0E009
:1012800080932E0E90932F0EA093300EB093310EBC
:101290008FE396E09093330E8093320E8DE29EE0C2
:1012A0002C960FB6F894DEBF0FBECDBFDF91CF9165
:1012B0001F910F91FF90EF900C94D94869817A812A
:1012C0008B819C810E945C5E181664F028E530EAF0
:1012D0004BE851EC69857A858B859C850E945C5E24
:1012E00018163CF60E94E107EF92FF920F931F93AE
:1012F000CF93DF93CDB7DEB72C970FB6F894DEBF50
:101300000FBECDBF0E94D8260BE91FE0EE24E39468
:10131000F12CEC0EFD1EF80164817581882777FDA4
:101320008095982F0E94175D2BED3FE049EC50E42B
:101330000E94605E9B01AC01F80160817181828135
:1013400093810E94115CF701619371938193919352
:101350007F0107581F4FF1E106301F07E1F680912A
:10136000480E28E530EA4BE851E4823009F465C0C4
:1013700069817A818B819C810E94755C87FD71C037
:1013800028E530EA4BE851E46D817E818F819885B4
:101390000E94755C87FD65C01092A00F10929F0F90
:1013A0001092191010921810109292101092911021
:1013B0000BED1FE029EC3FE340E050E0BA0181E093
:1013C00090E00E949A1A0BED1FE029EC3FE340E009
:1013D00050E0BA0182E090E00E949A1A0BED1FE003
:1013E00029EC3FE340E050E0BA0183E090E00E9446
:1013F0009A1A10922D0E84EF91E0A0E0B0E0809355
:101400002E0E90932F0EA093300EB093310E83E9E1
:1014100096E09093330E8093320E8DE29EE02C96F0
:101420000FB6F894DEBF0FBECDBFDF91CF911F91F5
:101430000F91FF90EF900C94D94869817A818B814C
:101440009C810E94755C87FD0CC028E530EA4BE862
:1014500051E469857A858B859C850E94755C87FF40
:101460009BCF0E94E1078091470290914802089526
:101470001F920F920FB60F9211248F939F93AF93E9
:10148000BF938091510290915202A0915302B0916A
:1014900054020196A11DB11D8093510290935202F6
:1014A000A0935302B0935402BF91AF919F918F913B
:1014B0000F900FBE0F901F901895089590E1899F8F
:1014C00090011124309399002093980090E1699F36
:1014D0009001112430939D0020939C0090E1499F3E
:1014E0009001112430939B0020939A008093450E25
:1014F0006093460E4093470E08958091400E909160
:10150000410E01979093410E8093400E18161906D4
:101510001CF081E080934F0F4091470E405860913E
:10152000460E60588091450E80580C945E0A20E16A
:10153000829FC0011124909399008093980080E1CC
:10154000689FB001112470939D0060939C0020E17E
:10155000429FA001112450939B0040939A0008954C
:10156000CF93DF938091980290919902892B59F142
:1015700080919502882339F1C0915B02D0915C0281
:101580009E01A9E8B8E80E94F56296958795969520
:101590008795969587954FE0489F9001499F300D1C
:1015A0001124CE01821B930B039780F440915B11B1
:1015B00060915A11809159110E94970A2196D093F7
:1015C0005C02C0935B02DF91CF9108954091470E7A
:1015D0006091460E8091450E0E94970AEFCF409190
:1015E000470E6091460E8091450E0C94970A0F931A
:1015F000CF93DF9300D01F92CDB7DEB781E08B830E
:1016000002E09E012F5F3F4F41E0BE016D5F7F4FC3
:101610008CE10E948B4B0E94B94B998180E09093A2
:10162000430E8093420E8091420E9091430E2A8188
:10163000822B9093430E8093420E83E08B839E0116
:101640002F5F3F4F41E0BE016D5F7F4F8CE10E94F5
:101650008B4B0E94B94B998180E090934A0F809305
:10166000490F8091490F90914A0F2A81822B9093C4
:101670004A0F8093490F85E08B839E012F5F3F4F78
:1016800041E0BE016D5F7F4F8CE10E948B4B0E9459
:10169000B94B998180E09093630F8093620F8091A2
:1016A000620F9091630F2A81822B9093630F809336
:1016B000620F80E00F900F900F90DF91CF910F910C
:1016C0000895CF93C82F8823F1F040E06FEF80E0BA
:1016D0000E945E0A2FEF81EE94E0215080409040FE
:1016E000E1F700C0000040E060E08FEF0E945E0A7A
:1016F0002FEF81EE94E0215080409040E1F700C050
:101700000000C15011F7CF91089585E00C94610B52
:101710000F93CF93DF9300D000D0CDB7DEB78DE02D
:101720008C8301E09E012D5F3F4F41E0BE016C5F65
:101730007F4F8CE10E948B4B0E94B94B892B09F59E
:101740008B818A3219F084E10E94610B8AE28983DD
:1017500089E18A8342E0BE016F5F7F4F8CE10E9486
:101760004F4B0E94B94B892B19F084E10E94610B09
:1017700080E00F900F900F900F90DF91CF910F911D
:10178000089584E10E94610BDBCF2091400E3091DF
:10179000410E121613060CF4089590E0880F991F5D
:1017A0009093410E8093400E10924F0F84E690E08C
:1017B000A0E0B0E08093500F9093510FA093520F90
:1017C000B093530F8DE79AE09093550F8093540F89
:1017D0008FE49FE00C94D9482091400E3091410E47
:1017E000121613060CF4089590E0880F991F909339
:1017F000410E8093400E10924F0F4093500F509324
:10180000510F6093520F7093530F8DE79AE09093AE
:10181000550F8093540F8FE49FE00C94D9480E9499
:10182000970A81E08093260384E690E0A0E0B0E090
:101830008093270390932803A0932903B0932A034E
:101840008FEE9AE090932C0380932B0386E293E033
:101850000C94D9489AE09093770090917C00907C0A
:1018600090937C0090917C00906C90937C00909180
:101870007C00982B90937C0080917A00876C8093F9
:101880007A0080917A0086FDFCCF2091780030911B
:101890007900932F937080E0AC01422B9A01C9012B
:1018A0000895CF93DF9380E88093610010926100E8
:1018B000F89480EF84B98BB1806E8BB98091680009
:1018C00081608093680080916B00826080936B00E0
:1018D00080916B00846080936B0080916B008860C6
:1018E00080936B008FB780688FBF88E18AB98BB116
:1018F00083608BB98FE78DB98FE383BB819A899819
:101900002FEF81EE94E0215080409040E1F700C03D
:10191000000082E00E942A0CEC018198829A8A9849
:101920002FEF81EE94E0215080409040E1F700C01D
:10193000000081E00E942A0C8298C436D10524F46C
:10194000843691050CF453C082E08093480E82E007
:1019500090E090934C0F80934B0F81E090E0909338
:101960004E0F80934D0F3AEA3093800029E1209387
:1019700081008FEF9FE090938700809386003093E3
:10198000900020939100909397008093960010927E
:10199000250110922401809173008260809373006E
:1019A000809121018C60809321018EE390E09093DF
:1019B000290180932801909327018093260184B701
:1019C000877F84BF8091600088618093600010925F
:1019D000600080EC80937C0010927B008FEE8093FF
:1019E0007A000E94BC147894DF91CF91089583E02F
:1019F0008093480E84E090E090934C0F80934B0FBF
:101A000083E090E090934E0F80934D0FACCFE82F82
:101A1000F0E0EE0FFF1FE75BFE4E20813181C90130
:101A200008950E94070DBC0180E090E00E94155DC2
:101A30002DEC3CEC4CEC5FE30E94605E20E030E07B
:101A400040E85AE30E94605E089580E00E94070D1E
:101A5000BC0180E090E00E94155D2DEC3CEC4CEC6C
:101A60005FE30E94605E20E030E040E85AE30E94BD
:101A7000605E2EE63BED46EB5EE30E947C5C0895E3
:101A8000CF93DF93CDB7DEB72C970FB6F894DEBFB8
:101A90000FBECDBF69877A878B879C878091510263
:101AA00090915202A0915302B091540289839A837B
:101AB000AB83BC8329813A814B815C8189859A857E
:101AC000AB85BC85820F931FA41FB51F8D839E839A
:101AD000AF83B887000020915102309152024091AB
:101AE0005302509154028D819E81AF81B885821737
:101AF0009307A407B50778F72C960FB6F894DEBFC6
:101B00000FBECDBFDF91CF910895809160008861B5
:101B100080936000809160008D6080936000FFCFB3
:101B20004F925F926F927F92AF92BF92CF92DF926D
:101B3000EF92FF920F931F93CF93DF93CDB7DEB752
:101B40006E970FB6F894DEBF0FBECDBF0E94F70AA6
:101B50006091420E7091430E882777FD8095982FF3
:101B60000E94175D20E030E040E858E30E94605E8C
:101B70002B013C016091490F70914A0F882777FD36
:101B80008095982F0E94175D20E030E040E858E3F0
:101B90000E94605E6B017C016091620F7091630F27
:101BA000882777FD8095982F0E94175D20E030E010
:101BB00040E858E30E94605E5B018C01242D352DC6
:101BC000462D572D642D752D862D972D0E94605E14
:101BD0002B013C012C2D3D2D4E2D5F2D6C2D7D2D8F
:101BE0008E2D9F2D0E94605E9B01AC01C301B2014E
:101BF0000E94115C6B017C012A2D3B2D402F512F3F
:101C00006A2D7B2D802F912F0E94605E9B01AC017D
:101C1000C701B6010E94115C0E94CD5E7B018C0160
:101C20008091510290915202A0915302B0915402BE
:101C3000409135035091360360913703709138031A
:101C4000841B950BA60BB70B8B3F9105A105B10526
:101C500008F0C7C0A0903903B0903A03C0903B038E
:101C6000D0903C032E2D3F2D402F512F6A2D7B2DE0
:101C70008C2D9D2D0E94105C5B016C0120E030E0FA
:101C8000A9017B2D9D2D0E94755C87FD27C12AE946
:101C900039E949E15FE36A2D7B2D8C2D9D2D0E9452
:101CA0005C5E18160CF06CC010920A0240E06FEFF8
:101CB00080E00E940F0CBB24B394B0920B02809181
:101CC000980290919902892B09F0AAC08091601125
:101CD0008111A6C08091510290915202A0915302AD
:101CE000B09154028093611190936211A09363119B
:101CF000B09364118091510290915202A0915302CD
:101D0000B09154020E94FA644090510250905202E5
:101D100060905302709054020E94F6646C01C301FB
:101D2000B2010E94155D2B013C01B601882777FDA9
:101D30008095982F0E94175D20E03EEF4FEF56E40C
:101D40000E947C5C20E030E44CE954E40E94605E38
:101D50009B01AC01C301B2010E94115C20E030E0A4
:101D60004AE753E40E94115C0E94E95C60936511AC
:101D7000709366118093671190936811B09260110F
:101D80008E2D9F2DA02FB12F8093390390933A036E
:101D9000A0933B03B0933C03809151029091520277
:101DA000A0915302B091540280933503909336036F
:101DB000A0933703B09338036E960FB6F894DEBF46
:101DC0000FBECDBFDF91CF911F910F91FF90EF908C
:101DD000DF90CF90BF90AF907F906F905F904F90CB
:101DE00008958E2D9F2DA02FB12F809339039093AE
:101DF0003A03A0933B03B0933C038091510290912E
:101E00005202A0915302B0915402809335039093F3
:101E10003603A0933703B09338035701680122CFEC
:101E2000809160118111ACCF80915102909152024A
:101E3000A0915302B0915402409157025091580220
:101E40006091590270915A02841B950BA60BB70B37
:101E5000843F9140A105B10508F4AECF83ED89839D
:101E60008EE08A831B821C821D821E8280919802D2
:101E7000909199029F83809198029091990288870E
:101E800080915911898780915A118A8780915B11BD
:101E90008B8780919602909197029C878091960201
:101EA000909197028D8782E18E8720E04FEF5FEF60
:101EB0006EE0CE0101960E945448809151029091AB
:101EC0005202A0915302B091540280935702909312
:101ED0005802A0935902B0935A0252CF2AE939E925
:101EE00049E15FEB6A2D7B2D8C2D9D2D0E94755C49
:101EF00087FF46CFD9CECF93DF93CDB7DEB7AD976F
:101F00000FB6F894DEBF0FBECDBF0E946A380E94A4
:101F1000510C0E94434B0E94880B882321F08AE0D9
:101F20000E94610BFCCF0E94D1040E9417450E94C1
:101F3000DF2C80914C0290914D02A0914E02B09105
:101F40004F028A279B270E94FA640E94FE261F8E5A
:101F50008FE090E0A0E0B0E088A399A3AAA3BBA380
:101F600085E29FE19DA38CA3CE014F960E94D948A4
:101F7000188A84E690E0A0E0B0E0898B9A8BAB8B66
:101F8000BC8B80EB9AE09E8B8D8BCE0140960E949D
:101F9000D948198280E091E0A0E0B0E08A839B8379
:101FA000AC83BD838BE198E39F838E83CE01019642
:101FB0000E94D9484FEF60E080E00E945E0A4E9B8D
:101FC0000E9472070E940B520E9461490E940B52AC
:101FD0000E94F0380E94C54B0E940B520E947A4525
:101FE0000E9492040E940B520E948E2E80910A023F
:101FF000811179C08091490290914A02892B11F395
:102000008091470290914802892BE1F28091510220
:1020100090915202A0915302B091540240913C0E13
:1020200050913D0E60913E0E70913F0E841B950BBA
:10203000A60BB70B81339547A105B10518F20E9495
:10204000370610924A021092490220E030E04AEA34
:1020500053E46091660270916702809168029091EA
:1020600069020E94605E20E030E044EB53E40E948D
:102070007C5C60936E0270936F0280937002909309
:10208000710220E030E04AEA53E46091620270910C
:10209000630280916402909165020E94605E20E07C
:1020A00030E044EB53E40E947C5C60936A027093DE
:1020B0006B0280936C0290936D0244E050E06EE6F8
:1020C00072E087E194E00E94DF1044E050E06AE6AD
:1020D00072E08BE194E00E94DF1061EA86E194E017
:1020E0000E94A0106FCF0E94900D84CFCF92DF92FC
:1020F000EF92FF926B017C0120E030E0A9010E9489
:10210000755C87FD1AC020E030E0A901C701B60167
:102110000E945C5E181674F490E88FE350E040E093
:102120009C01652F742F832F922FFF90EF90DF90EB
:10213000CF90089590E080E0F1CF90E88FEBEECF64
:10214000E0915D02E11103C0F894E0915D027FEF40
:1021500054E144E2F999FECF2AE030E0000021503A
:102160003109E1F792BD81BD70BD5FBBF99AF99964
:10217000FECF2AE030E0000021503109E1F760BDD8
:102180004FBBF99AF999FECF92BD81BDF89A20B55F
:102190006213E0CFE11101C07894089520915D02AF
:1021A000211103C0F89420915D02F999FECF92BDF0
:1021B00081BDF89A211101C0789480B50895EF92FD
:1021C000FF920F931F93CF93DF938C01F89481E0DC
:1021D00080935D02141615066CF4EB017B01E40E8E
:1021E000F51E6991C8010E94A0100F5F1F4FCE1508
:1021F000DF05B9F710925D027894DF91CF911F91BE
:102200000F91FF90EF900895EF92FF920F931F931D
:10221000CF93DF93F89421E020935D021416150606
:1022200084F4EB017B01E40EF51E8C01061B170BF9
:10223000C8018C0F9D1F0E94CE108993CE15DF051B
:10224000B9F710925D027894DF91CF911F910F91B1
:10225000FF90EF9008951F920F920FB60F921124E6
:102260000BB60F924F925F926F927F928F929F92D6
:10227000AF92BF92CF92DF92EF92FF920F931F9394
:102280002F933F934F935F936F937F938F939F937E
:10229000AF93BF93CF93DF93EF93FF938091780237
:1022A0008F5F80937802833008F45DC010927802CB
:1022B00040917902E42FF0E08091780090E0EE0FF9
:1022C000FF1FE75BFE4E9183808380819181509157
:1022D0007900352F337020E0822B932B91838083FC
:1022E0008091490290914A02892B41F080914702E6
:1022F00090914802892B11F04730C1F14F5F409314
:102300007902483008F088C280917C00807E8093FA
:102310007C0080917C0090917902892B80937C00D5
:10232000FF91EF91DF91CF91BF91AF919F918F91ED
:102330007F916F915F914F913F912F911F910F91DD
:10234000FF90EF90DF90CF90BF90AF909F908F90D5
:102350007F906F905F904F900F900BBE0F900FBECD
:102360000F901F9018958111DBCFA2CF609155116E
:1023700070915611882777FD8095982F0E94175DE0
:102380002DEC3CEC4CEC5FE30E94605E20E030E022
:1023900040E85AE30E94605E23E333E343E35FE3F4
:1023A0000E94105C8B01D82FC92F20E030E0A901DA
:1023B000FE01712F8F2F9E2F0E94755C87FD2FC20B
:1023C0002DEC3CEC4CE45EE3FE01602F712F8F2F6F
:1023D0009E2F0E94755C87FDEDC060915311709136
:1023E0005411882777FD8095982F0E94175D2DEC5A
:1023F0003CEC4CEC5FE30E94605E20E030E040E8A3
:102400005AE30E94605E23E333E343E35FE30E9409
:10241000105CEB01182F092F20E030E0A901F80132
:102420007D2F8F2F9E2F0E94755C87FD23C22DEC80
:102430003CEC4CE45EE3F8016C2F7D2F8F2F902F46
:102440000E94755C87FDB6C0C0916002D0916102A8
:10245000BE01882777FD8095982F0E94175D2091F7
:1024600066023091670240916802509169020E94B1
:10247000605EF62EE72ED82EC92E60915511709110
:1024800056110091531110915411882777FD8095B2
:10249000982F0E94175D2DEC3CEC4CEC5FE30E9402
:1024A000605E20E030E040E85AE30E94605E4B014D
:1024B0005C01B801882777FD8095982F0E94175DF1
:1024C0002DEC3CEC4CEC5FE30E94605E20E030E0E1
:1024D00040E85AE30E94605E9B01AC01C501B40173
:1024E0000E94105C20E030E0A9010E94755C87FD2D
:1024F00008C26091551170915611009153111091BD
:102500005411882777FD8095982F0E94175D2DEC38
:102510003CEC4CEC5FE30E94605E20E030E040E881
:102520005AE30E94605E4B015C01B801882777FD89
:102530008095982F0E94175D2DEC3CEC4CEC5FE3EE
:102540000E94605E20E030E040E85AE30E94605E56
:102550009B01AC01C501B4010E94105C9B01AC0160
:102560000E94115C2196262F372F482F592FD70113
:10257000F6016B2F7E2D8F2F9C2D0E94115C6B011D
:102580007C01BE01882777FD8095982F0E94175DFA
:102590009B01AC01C701B6010E947C5C609366029E
:1025A000709367028093680290936902D0936102EE
:1025B000C0936002C0914B0FD0914C0FCC0FDD1F28
:1025C000FE01E75BFE4E60817181882777FD809573
:1025D000982F0E94175D2DEC3CEC4CEC5FE30E94C1
:1025E000605E20E030E040E85AE30E94605E23E352
:1025F00033E343E35FE30E94105C7B018C0120E046
:1026000030E0A9017F2D912F0E94755C87FD16C1D6
:102610002DEC3CEC4CE45EE36E2D7F2D802F912F52
:102620000E94755C87FDF8C000914D0F10914E0F10
:10263000000F111FF801E75BFE4E60817181882752
:1026400077FD8095982F0E94175D2DEC3CEC4CECAB
:102650005FE30E94605E20E030E040E85AE30E94C1
:10266000605E23E333E343E35FE30E94105CF62EF6
:10267000E72ED82EC92E20E030E0A901D701F601BF
:102680006B2F7A2F8F2F9E2F0E94755C87FDE3C0E2
:102690002DEC3CEC4CE45EE3D701F6016B2F7E2D74
:1026A0008F2F9C2D0E94755C87FDB6C0E0905E0266
:1026B000F0905F02B701882777FD8095982F0E94E0
:1026C000175D209162023091630240916402509143
:1026D00065020E94605EB62EA72E982E892EC75BDB
:1026E000DE4E68817981075B1E4EF801C080D18083
:1026F000882777FD8095982F0E94175D2DEC3CEC84
:102700004CEC5FE30E94605E20E030E040E85AE37A
:102710000E94605E2B013C01B601882777FD809501
:10272000982F0E94175D2DEC3CEC4CEC5FE30E946F
:10273000605E20E030E040E85AE30E94605E9B016A
:10274000AC01C301B2010E94105C20E030E0A9019D
:102750000E94755C87FD9DC068817981F801C08108
:10276000D181882777FD8095982F0E94175D2DECE9
:102770003CEC4CEC5FE30E94605E20E030E040E81F
:102780005AE30E94605E2B013C01BE01882777FD61
:102790008095982F0E94175D2DEC3CEC4CEC5FE38C
:1027A0000E94605E20E030E040E85AE30E94605EF4
:1027B0009B01AC01C301B2010E94105C9B01AC0102
:1027C0000E94115CFFEFEF1AFF0A262F372F482FC8
:1027D000592FD501F4016B2F7A2D8F2F982D0E9440
:1027E000115C4B015C01B701882777FD8095982F1C
:1027F0000E94175D9B01AC01C501B4010E947C5C85
:102800006093620270936302809364029093650206
:10281000F0925F02E0925E021092790275CD2DEC8B
:102820003CEC4CE45EEBFE01602F712F8F2F9E2F4E
:102830000E945C5E18160CF4BDCECFCD2DEC3CECA6
:102840004CE45EEB6E2D7F2D802F912F0E945C5EFD
:10285000181614F3E9CE2DEC3CEC4CE45EEBD701FA
:10286000F6016B2F7E2D8F2F9C2D0E945C5E18161B
:102870009CF21CCF2DEC3CEC4CE45EEBF8016C2F91
:102880007D2F8F2F902F0E945C5E18160CF492CE35
:10289000DBCD68817981F801C081D181882777FDFE
:1028A0008095982F0E94175D2DEC3CEC4CEC5FE37B
:1028B0000E94605E20E030E040E85AE30E94605EE3
:1028C0002B013C01BE01882777FD8095982F0E943F
:1028D000175D2DEC3CEC4CEC5FE30E94605E20E069
:1028E00030E040E85AE30E94605E9B01AC01C30106
:1028F000B2010E94105C90589B01AC010E94115CD7
:1029000061CF609155117091561100915311109142
:102910005411882777FD8095982F0E94175D2DEC24
:102920003CEC4CEC5FE30E94605E20E030E040E86D
:102930005AE30E94605E4B015C01B801882777FD75
:102940008095982F0E94175D2DEC3CEC4CEC5FE3DA
:102950000E94605E20E030E040E85AE30E94605E42
:102960009B01AC01C501B4010E94105C90589B0111
:10297000AC010E94115CF6CD8F929F92AF92BF92F4
:10298000CF92DF92EF92FF920F931F93CF93DF933B
:1029900084EE91E0E5E6FFE0DF019C011D9221500D
:1029A0003040E1F720E030E009E741E2842E41E3E6
:1029B000942E48E9A42E44E4B42E50E5C52E57E7E2
:1029C000D52E56EDE52E5DE3F52E4FEF5FEFBA0104
:1029D000CFEFDFEF10E883EF96E6AFEDBFE3029FA6
:1029E000F001039FF00D1124EB59F04F108211827A
:1029F00012821382148285829682A782B086C18653
:102A0000D286E386F486158616861786108A128A81
:102A1000118A148A138A158A168A178A108E118EC3
:102A2000138E128E448F558F668F778FD1A3C0A3DC
:102A300012A386A397A3A0A7B1A712AA13AA14AAA8
:102A400015AA13AE12AEEF59FF4F108211821282F7
:102A500013822F5F3F4F2330310509F686E194E062
:102A60000E94CE10813A69F0DF91CF911F910F91B2
:102A7000FF90EF90DF90CF90BF90AF909F908F909E
:102A8000089544E050E06EE672E087E194E00E9431
:102A9000041144E050E06AE672E08BE194E0DF91DB
:102AA000CF911F910F91FF90EF90DF90CF90BF904B
:102AB000AF909F908F900C9404110F931F93CF931E
:102AC000DF932BED3FE049EC50E40E94595D8B0110
:102AD000D82FC92F2BED3FE049E450E4FE01712FC0
:102AE0008F2F9E2F0E945C5E181674F42BED3FE032
:102AF00049EC50E4FE01602F712F8F2F9E2F0E9412
:102B0000105C8B01D82FC92F2BED3FE049E450EC2E
:102B1000FE01602F712F8F2F9C2F0E94755C87FF05
:102B20000EC02BED3FE049EC50E4FE01602F712F09
:102B30008F2F9C2F0E94115C8B01D82FC92F9E01D3
:102B4000602F712F832F9C2FDF91CF911F910F91B9
:102B500008952F923F924F925F926F927F928F9241
:102B60009F92AF92BF92CF92DF92EF92FF920F931C
:102B70001F93CF93DF93CDB7DEB728970FB6F894A6
:102B8000DEBF0FBECDBF9C838B8380918C02909162
:102B90008D02892B09F40DC18B819C8181309105B7
:102BA00009F4A6C00CF481C004970CF07EC080919B
:102BB0004B0F0E94110D4B015C0180914D0F0E9443
:102BC000110D2B013C01C0906A02D0906B02E09085
:102BD0006C02F0906D0220E030E040E05FE3C7015E
:102BE000B6010E94605E68877F831C01762F6F812B
:102BF000272F362F422D532DC501B4010E94105CA2
:102C000069837A838C014B015C0180918E029091E3
:102C10008F028130910509F491C1029709F467C2CE
:102C200020E030E04AEA53E4C501B4010E94605E4E
:102C3000A70196010E947C5C382F292F862F972FA1
:102C4000A32FB22FBC01CD0190582BED3FE049E4FA
:102C500050E40E94605E20E030E044E353E40E94D0
:102C60007C5C20911A1030911B1040911C105091E7
:102C70001D100E94115C28960FB6F894DEBF0FBE9F
:102C8000CDBFDF91CF911F910F91FF90EF90DF901B
:102C9000CF90BF90AF909F908F907F906F905F90FC
:102CA0004F903F902F900C945D150E94850B50E043
:102CB00040E030E82FEB652F742F832F922F28965A
:102CC0000FB6F894DEBF0FBECDBFDF91CF911F913D
:102CD0000F91FF90EF90DF90CF90BF90AF909F90BB
:102CE0008F907F906F905F904F903F902F900895BE
:102CF00086E00E94110D4B015C0185E00E94110DE0
:102D00002B013C01C0906E02D0906F02E0907002E7
:102D1000F090710220E030E040E05FE3C701B601CF
:102D20000E94605E68877F831C01762F6F81272F4A
:102D3000362F422D532DC501B4010E94105C6983CA
:102D40007A838C014B015C0180918C0290918D0201
:102D50008130910509F455C1029709F4D9C120E0E9
:102D600030E04AEA53E4C501B4010E94605EA70165
:102D700096010E947C5C382F292F862F972FA32F36
:102D8000B22FBC01CD0190582BED3FE049E450E457
:102D90000E94605E20E030E044E353E40E947C5CEB
:102DA0002091A10F3091A20F4091A30F5091A40F39
:102DB00060CF86E00E94110D6B017C0120E030E0C5
:102DC00040E05FE360916E0270916F02809170024B
:102DD000909171020E94605E9B01AC01C701B60137
:102DE0000E94105C1B018C012B013C0185E00E94BC
:102DF000110D6B017C0120E030E040E05FE3609169
:102E00006E0270916F0280917002909171020E9427
:102E1000605E9B01AC01C701B6010E94105C862E6A
:102E2000972EA82EB92E20E030E0A901B101C801EB
:102E30000E94755C87FD56C120E030E0A901C50104
:102E4000B4010E94755C87FD48C1A5019401C301CE
:102E5000B2010E94755C87FD63C082E090E09093B0
:102E60008D0280938C0280914B0F0E94110D6B019B
:102E70007C0120E030E040E05FE360916A02709105
:102E80006B0280916C0290916D020E94605E9B01CA
:102E9000AC01C701B6010E94105C1B018C012B0123
:102EA0003C0180914D0F0E94110D6B017C0120E0CF
:102EB00030E040E05FE360916A0270916B028091C4
:102EC0006C0290916D020E94605E9B01AC01C70193
:102ED000B6010E94105C862E972EA82EB92E20E0F7
:102EE00030E0A901B101C8010E94755C87FDF0C006
:102EF00020E030E0A901C501B4010E94755C87FDA6
:102F0000E2C0A5019401C301B2010E94755C87FF74
:102F10000EC081E090E090938F0280938E023CCEB1
:102F200081E090E090938D0280938C029CCF82E0B0
:102F300090E090938F0280938E022ECE20E030E0BE
:102F4000A901C8010E94755C87FD29C189819A8108
:102F5000D8018B839C83AD83BE8326E636E646E6A6
:102F60005FE3B885AF816B2F7A2F822D932D0E945E
:102F7000605E69837A83182F092F762F6A81C801D2
:102F8000272F362F492F582F6B817C818D819E8171
:102F90000E945C5E18160CF043CE82E090E09093A5
:102FA0008F0280938E0278856F81272F362F422DD6
:102FB000532DC301B2010E94105C1B018F839B83C0
:102FC0002B013C0120E030E0A9010E94755C87FDE7
:102FD000DAC0C101AF81BB81BC01CD01B981AA8139
:102FE000F8012B2F3A2F4F2F502F0E945C5E18169E
:102FF0000CF0B2C081E090E090938F0280938E023B
:103000000FCE20E030E0A901C8010E94755C87FD69
:10301000BEC089819A81D8018B839C83AD83BE8396
:1030200026E636E646E65FE3B885AF816B2F7A2F5A
:10303000822D932D0E94605E69837A83182F092F59
:10304000762F6A81C801272F362F492F582F6B8181
:103050007C818D819E810E945C5E18160CF07FCE73
:1030600082E090E090938D0280938C0278856F814E
:10307000272F362F422D532DC301B2010E94105C21
:103080001B018F839B832B013C0120E030E0A901D1
:103090000E94755C87FD73C0C101AF81BB81BC011B
:1030A000CD01B981AA81F8012B2F3A2F4F2F502F34
:1030B0000E945C5E1816ECF581E090E090938D0222
:1030C00080938C024CCEB7FAB094B7F8B09419CF75
:1030D00077FA709477F870940BCFB7FAB094B7F88A
:1030E000B094B3CE77FA709477F87094A5CE26E6B4
:1030F00036E646E65FE3B885AF816B2F7A2F822DE7
:10310000932D0E94605E69837A83182F092F4BCF1D
:1031100026E636E646E65FE3B885AF816B2F7A2F69
:10312000822D932D0E94605E69837A83182F092F68
:103130009DCF20E030E04AEA53E4C301B2010E948F
:10314000605EA70196010E947C5C20E030E044E3D1
:1031500053E40E94115C0FCE20E030E04AEA53E4D1
:10316000C301B2010E94605EA70196010E947C5CCF
:1031700020E030E044E353E40E94115C5DCDC301E4
:10318000B20190588ECFC301B201905827CFD5011C
:10319000C401B0588B839C83AD83BE8341CFD501DE
:1031A000C401B0588B839C83AD83BE83D6CE20915F
:1031B000480E2230F9F0233019F1019729E7289FB2
:1031C000F001299FF00D1124EB59F04F82E080832C
:1031D0004183528363837483128A118A8DE491E060
:1031E000A0E0B0E0848F958FA68FB78F20E030E00D
:1031F000C90108958230910501F72FEF3FEFF8CF15
:1032000083309105D1F6F9CF2F923F924F925F9282
:103210006F927F928F929F92AF92BF92CF92DF92E6
:10322000EF92FF920F931F93CF93DF93CDB7DEB74B
:103230002C970FB6F894DEBF0FBECDBF5C012A01FC
:103240003B01680179011C0121E0221A310889E75C
:10325000829DF001839DF00D1124EB59F04F8CE21B
:103260009CEEAAECB3E485839683A783B08711868E
:103270001286138614861091480E123009F406C186
:10328000133009F40BC120E030E0A901C701B601F9
:103290000E94755C882309F4CEC089E7829DD00125
:1032A000839DB00D1124AB59B04FBC87AB87D69628
:1032B0008D919D910D90BC91A02D8A839B83AC83B1
:1032C000BD839C01AD01C301B2010E94105C698302
:1032D000872E982E092F20E030E0A9010E94755C0E
:1032E00087FDACC023EC38EB42E35EE3B9816B2F82
:1032F000782D892D902F0E94755C87FDADC020E050
:1033000030E0A901C701B6010E94755C87FDD6C0F7
:10331000A7019601B9816B2F782D892D902F0E94DE
:103320007C5C20E030E04AE754E40E94605E6E83FB
:10333000A72EB82E192F20E030E0A901B9816B2FFC
:10334000782D892D902F0E945C5E18160CF0E7C036
:10335000AB85BC85D296CD92DD92ED92FC92D5974D
:1033600089E7829DF001839DF00D1124EB59F04F08
:1033700082A993A9A4A9B5A986A797A7A0ABB1AB29
:103380008A819B81AC81BD81EB85FC8581839283A1
:10339000A383B483158616861786108A20E030E052
:1033A00040E751E4BE816B2F7A2D8B2D912F0E9427
:1033B0007C5C5B018C016B017C0120E030E0A901A9
:1033C0000E94755C87FDA5C0B501C8010E94E45C40
:1033D000CB01AA2797FDA095BA2FEB85FC85848F9A
:1033E000958FA68FB78F128A118A468A578A608E68
:1033F000718E81E090E0938F828F83E0808320E064
:1034000030E0C9012C960FB6F894DEBF0FBECDBFD9
:10341000DF91CF911F910F91FF90EF90DF90CF90B0
:10342000BF90AF909F908F907F906F905F904F90E4
:103430003F902F90089520E030E0E3CF23EC38EB6D
:1034400042E35EEBB9816B2F782D892D902F0E947E
:103450005C5E18160CF053CF123059F1133021F185
:1034600082E0AB85BC858C93FD01418252826382F0
:103470007482128A118A8DE491E0A0E0B0E0848F1A
:10348000958FA68FB78F20E030E0BBCF32E0A31638
:10349000B10409F0F8CE2FEF3FEFB3CF83E0A816C9
:1034A000B10409F0F0CEF7CFE3E0AE16B104C1F6F7
:1034B000F2CFB2E0AB16B10499F6EDCFD701C60159
:1034C000B0588F839887A987BA879C01AD01B981CD
:1034D0006B2F782D892D902F0E947C5C20E030E0AE
:1034E0004AE754E40E94605E6E83A72EB82E192F1F
:1034F00020E030E0A901B9816B2F782D892D902F24
:103500000E945C5E18167CF4CF80D884E984FA842B
:103510001FCFC701B60190580E94E45C59CFF7FA5B
:10352000F094F7F8F094EB85FC85C2AAD3AAE4AA3C
:10353000F5AA16CF2F923F924F925F926F927F9291
:103540008F929F92AF92BF92CF92DF92EF92FF92B3
:103550000F931F93CF93DF93CDB7DEB72C970FB6A2
:10356000F894DEBF0FBECDBF5C012A013B016801AC
:1035700079011C0121E0221A310889E7829DF001BE
:10358000839DF00D1124EB59F04F8CE29CEEAAECD8
:10359000B3E485839683A783B0871186128613864A
:1035A00014861091480E123009F41EC1133009F42C
:1035B00023C120E030E0A901C701B6010E94755C7B
:1035C000882309F4E6C089E7829DD001839DB00D70
:1035D0001124AB59B04FBC87AB87D6968D919D9186
:1035E0000D90BC91A02D8A839B83AC83BD83EB851A
:1035F000FC8562AD73AD882777FD8095982F0E947A
:10360000175D2BED3FE049EC50E40E94605E9B01AA
:10361000AC016A817B818C819D810E94115C9B0140
:10362000AC01C301B2010E94105C6983872E982E01
:10363000092F20E030E0A9010E94755C87FDACC035
:1036400023EC38EB42E35EE3B9816B2F782D892DB3
:10365000902F0E94755C87FDADC020E030E0A9018D
:10366000C701B6010E94755C87FDD6C0A70196010F
:10367000B9816B2F782D892D902F0E947C5C20E0E2
:1036800030E04AE754E40E94605E6E83A72EB82EB5
:10369000192F20E030E0A901B9816B2F782D892DF9
:1036A000902F0E945C5E18160CF0E7C0AB85BC85BD
:1036B000D296CD92DD92ED92FC92D59789E7829DCC
:1036C000F001839DF00D1124EB59F04F82A993A9CD
:1036D000A4A9B5A986A797A7A0ABB1AB8A819B8106
:1036E000AC81BD81EB85FC8581839283A383B48308
:1036F000158616861786108A20E030E040E751E4F0
:10370000BE816B2F7A2D8B2D912F0E947C5C5B01EB
:103710008C016B017C0120E030E0A9010E94755C06
:1037200087FDA5C0B501C8010E94E45CCB01AA27B2
:1037300097FDA095BA2FEB85FC85848F958FA68F7A
:10374000B78F128A118A468A578A608E718E81E0FD
:1037500090E0938F828F83E0808320E030E0C90186
:103760002C960FB6F894DEBF0FBECDBFDF91CF9180
:103770001F910F91FF90EF90DF90CF90BF90AF908F
:103780009F908F907F906F905F904F903F902F9081
:10379000089520E030E0E3CF23EC38EB42E35EEB2A
:1037A000B9816B2F782D892D902F0E945C5E1816A1
:1037B0000CF053CF123059F1133021F182E0AB8578
:1037C000BC858C93FD014182528263827482128A8D
:1037D000118A8DE491E0A0E0B0E0848F958FA68FF0
:1037E000B78F20E030E0BBCF32E0A316B10409F080
:1037F000E0CE2FEF3FEFB3CF83E0A816B10409F07E
:10380000D8CEF7CF23E0A216B104C1F6F2CFF2E092
:10381000AF16B10499F6EDCFD701C601B0588F832A
:103820009887A987BA879C01AD01B9816B2F782D44
:10383000892D902F0E947C5C20E030E04AE754E420
:103840000E94605E6E83A72EB82E192F20E030E014
:10385000A901B9816B2F782D892D902F0E945C5E74
:1038600018167CF4CF80D884E984FA841FCFC7016E
:10387000B60190580E94E45C59CFF7FAF094F7F83B
:10388000F094EB85FC85C2AAD3AAE4AAF5AA16CFC8
:103890002F923F924F925F926F927F928F929F9260
:1038A000AF92BF92CF92DF92EF92FF920F931F934E
:1038B000CF93DF93CDB7DEB72C970FB6F894DEBF6A
:1038C0000FBECDBF5C0149835A836B837C83280183
:1038D00039014C0181E0881A910889E7889DF0013F
:1038E000899DF00D1124EB59F04F8CE29CEEAAEC6F
:1038F000B3E485839683A783B087118612861386E7
:1039000014861091480E123009F4F5C0133009F4F2
:10391000FAC089E7889D1001899D300C1124E5E6E5
:10392000FFE02E0E3F1ED101D6968D919D910D90F8
:10393000BC91A02D8D839E83AF83B8879C01AD0180
:1039400069817A818B819C810E94105C0E945D1547
:103950006B017C0120E030E0A9010E94755C87FDCD
:10396000A0C023EC38EB42E35EE3C701B6010E943E
:10397000755C87FDA1C020E030E0A901C301B20160
:103980000E94755C87FDC5C0A3019201C701B60105
:103990000E947C5C20E030E04AE754E40E94605ED4
:1039A000062FA72EB82E192F20E030E0A901C7015D
:1039B000B6010E945C5E18160CF0DDC0D101D296F3
:1039C0004D925D926D927C92D59789E7889DF0012A
:1039D000899DF00D1124EB59F04F82A993A9A4A958
:1039E000B5A986A797A7A0ABB1AB8D819E81AF810A
:1039F000B885F10181839283A383B48315861686EB
:103A00001786108A20E030E040E751E4602F7A2DDD
:103A10008B2D912F0E947C5C5B018C016B017C01E2
:103A200020E030E0A9010E94755C87FD9DC0B501D2
:103A3000C8010E94E45CCB01AA2797FDA095BA2F8C
:103A4000F101848F958FA68FB78F128A118A898191
:103A50009A81AB81BC81868B978BA08FB18F81E0DF
:103A600090E0938F828F83E0808320E030E0C90173
:103A70002C960FB6F894DEBF0FBECDBFDF91CF916D
:103A80001F910F91FF90EF90DF90CF90BF90AF907C
:103A90009F908F907F906F905F904F903F902F906E
:103AA000089523EC38EB42E35EEBC701B6010E94B8
:103AB0005C5E18160CF05FCF123009F44FC0133063
:103AC00009F463C082E0D1018C9389819A81AB8132
:103AD000BC81F10181839283A383B483128A118A0A
:103AE0008DE491E0A0E0B0E0848F958FA68FB78F32
:103AF00020E030E0BCCF92E0A916B10409F009CF74
:103B00002FEF3FEFB4CFA3E0AA16B10409F001CF25
:103B1000F7CFD301C201B05889879A87AB87BC879A
:103B20009C01AD01C701B6010E947C5C20E030E041
:103B30004AE754E40E94605E062FA72EB82E192F84
:103B400020E030E0A901C701B6010E945C5E1816B2
:103B5000B4F449845A846B847C8430CFB2E0AB16D1
:103B6000B10409F0AFCFCCCFC701B60190580E9485
:103B7000E45CCB0161CF77FA709477F87094F1012F
:103B800042AA53AA64AA75AA20CFE3E0AE16B104F4
:103B900009F098CFB5CF2091480E223049F123305B
:103BA00091F1019729E7289FF001299FF00D112439
:103BB000EB59F04F2081223001F1233021F02130E8
:103BC00011F080E0089529E7289FF001299FF00D6A
:103BD0001124EB59F04F20E030E0A90162A973A94C
:103BE00084A995A90E945C5E18168CF481E0089562
:103BF00082309105B1F68FEF089581899289892BE2
:103C0000A9F383E008958330910559F6F4CF82E05B
:103C100008956235A9F0633581F0663459F0A098B3
:103C2000A19820E1829FC001112490938900809384
:103C300088000895A09AA198F4CFA09AA19AF1CFF4
:103C4000A098A19AEECF6235A9F0633581F0663471
:103C500059F0A298A59820E1829FC0011124909369
:103C60008B0080938A000895A29AA598F4CFA29A17
:103C7000A59AF1CFA298A59AEECF0F931F938A0130
:103C80009B0177FD28C0F8010F3F110519F010F0D6
:103C9000EFEFF0E08130910591F074F0049764F457
:103CA00077FD33C0452B462B472BE9F066E48E2F7A
:103CB0001F910F910C94231E1F910F91089577FD72
:103CC0001EC0452B462B472BA1F066E48E2F1F917B
:103CD0000F910C94091E002711279801041B150B46
:103CE000260B370BD0CF6EE48E2F1F910F910C94C3
:103CF000231E6EE48E2F1F910F910C94091E62E516
:103D00008E2F1F910F910C94091E62E58E2F1F912B
:103D10000F910C94231ECF93DF939C012150310906
:103D200049E7429FE001439FD00D1124CB59D04F6A
:103D30001EA61FA618AA19AA4D89413061F142306A
:103D4000E1F0442309F471C0433011F54881423059
:103D500009F463C0433009F470C049E7429FF001A1
:103D6000439FF00D1124EB59F04F46A957A960ADC0
:103D700071ADDF91CF910C94D71820E030E0A9010C
:103D80006EA17FA188A599A50E94755C81112AC0AA
:103D9000DF91CF91089520E030E0A9016EA17FA1CD
:103DA00088A599A50E94755C882391F383E0888398
:103DB0008FEF9FEFDC018C8F9D8FAE8FBF8F8EA911
:103DC0009FA9A8ADB9AD89839A83AB83BC838EA12B
:103DD0009FA1A8A5B9A58AAB9BABACABBDABDF914E
:103DE000CF91089583E088838FEF9FEFDC018C8F64
:103DF0009D8FAE8FBF8F8EA99FA9A8ADB9AD8983C6
:103E00009A83AB83BC838EA19FA1A8A5B9A5B05806
:103E10008AAB9BABACABBDABBBCF49895A89452BB9
:103E200009F49BCF1C8A1B8AB3CF188240E050E074
:103E3000BA01DF91CF910C943D1E49815A816B816B
:103E40007C81DF91CF910C94D7182F923F924F92A3
:103E50005F926F927F928F929F92AF92BF92CF921A
:103E6000DF92EF92FF920F931F93CF93DF93CDB723
:103E7000DEB7AC970FB6F894DEBF0FBECDBF87E9B3
:103E80009FE09E838D8375E6472E7FE0572EECE7FB
:103E90006E2EE2E07E2EA7E8BFE0B88BAF87E5EAA2
:103EA000FFE0F887EF83FBE92F2EFFE03F2E85E848
:103EB0009FE09E878D87AAE7BFE0BC87AB87E2EDD6
:103EC000FFE0FC8BEB8B8AEC9FE09E8B8D8BA0EB55
:103ED000BFE0BA87A987E3E9FFE0FA8BE98B8FE9B6
:103EE0009FE09C838B83A2E0B0E0BA83A983812CFE
:103EF000912C830138A62FA212012401BFEF4B1A87
:103F00005B0A0E940B528091480E823009F4E9C18D
:103F1000D1011596CD90DD90ED90FC90189721E29F
:103F200031E348E954E4C701B6010E94755C87FF9C
:103F30000DC02FE33EEC42E451E4C701B6010E94FC
:103F4000115CF1016583768387839087D10119968F
:103F5000CD90DD90ED90FC901C9720E537E746ED85
:103F60005DE3C701B6010E94755C87FF0DC02FE1BC
:103F700032E449E85AE3C701B6010E94115CF1013D
:103F80006187728783879487C2010E94A9153B01CC
:103F90005C01862F972DAA2DBB2DEFA1F8A580835C
:103FA0009183A283B383188F0F8B8F011DC08091E3
:103FB0007A0290917B020B977CF5C2010E94A915B1
:103FC0003B015C01862F972DAA2DBB2DF801808324
:103FD0009183A283B38380917A0290917B020196B0
:103FE00090937B0280937A02AF89B88DCD90DD905B
:103FF000ED90FC90A7019601662D772D8A2D9B2DC3
:104000000E94105C0E945D1523EC38EB42E35EE3F6
:104010000E945C5E18165CF2C8010F89188D98A783
:104020008FA310927B0210927A0220E030E040E2EF
:1040300050EC662D772D8A2D9B2D0E94755C87FF95
:104040000EC120E030E040E250E4C701B6010E941A
:104050005C5E18160CF003C1EB81FC8180819181BC
:10406000019691838083AFA1B8A56C9011967C9046
:1040700011971296AC9012971396BC90862D972D9F
:10408000AA2DBB2DF80180839183A283B383D10134
:104090008C91833009F459C308F0FEC0813009F4D3
:1040A0003CC308F067C0F101848D958DA68DB78D56
:1040B0000097A105B10509F4A6C40CF4F4C001975A
:1040C000A109B109F101848F958FA68FB78FE9817E
:1040D000FA81349709F4ECC0E981FA813196FA83C8
:1040E000E9838D819E8187589F4F9E838D8399E7B9
:1040F000290E311C0C5F1F4FAF85B889A758BF4FE1
:10410000B88BAF87EF81F885E758FF4FF887EF83CB
:104110008FA198A587589F4F98A78FA3AD85BE857F
:10412000A758BF4FBE87AD87EB85FC85E758FF4F8B
:10413000FC87EB878B899C8987589F4F9C8B8B8B47
:10414000AD89BE89A758BF4FBE8BAD8BE985FA8577
:10415000E758FF4FFA87E98789899A8987589F4FDF
:104160009A8B898BAB81BC81A758BF4FBC83AB8333
:104170004201C3CEF101848D958DA68DB78D009738
:10418000A105B10509F493C19CF00197A109B109FA
:10419000F101848F958FA68FB78FAFA1B8A56C90D2
:1041A00011967C9011971296AC9012971396BC9032
:1041B000262D372D4A2D5B2DF1016181728183817E
:1041C00094810E94105C0E945D156B017C0120E0CF
:1041D00030E0A9010E94755C87FDEBC323EC38EB4E
:1041E00042EB5DE3C701B6010E94755C87FDECC33D
:1041F000D10151968D919C915297892B09F465C1FB
:1042000020E030E0A901C701B6010E94755C87FD7E
:10421000DEC4C701B601209174023091750240914D
:104220007602509177020E945C5E18160CF04DC128
:10423000EF81F88520812F5F208330E0809172022A
:10424000909173028217930708F042C1D1011C922A
:1042500040E050E0BA01C2010E943D1E24C020E0AF
:1042600030E040E250E4662D772D8A2D9B2D0E9490
:104270005C5E18160CF002CF20E030E040E250EC1B
:10428000C701B6010E94755C87FFF8CEEB81FC8107
:10429000808191810197E5CE853009F482C138F1A2
:1042A000863009F453C1E981FA81349709F014CFBB
:1042B000AC960FB6F894DEBF0FBECDBFDF91CF91A5
:1042C0001F910F91FF90EF90DF90CF90BF90AF9034
:1042D0009F908F907F906F905F904F903F902F9026
:1042E0000895E2E04E16510409F012CEF5CE609129
:1042F00051027091520280915302909154020E9497
:10430000155D20E030E04AE754E40E947C5C6F8B4E
:104310007B8F8F8F98A3F101EF5BFF4F6081772731
:1043200067FD7095872F972F0E94175D20E030E082
:1043300040E05CE30E94605E20E030E040EA50E450
:104340000E94605E20E030E040E05FE30E94605E3B
:104350007B01D82EC92EF9E7F89D3001F99D700C2C
:1043600011248CEA9FE0680E791EAA24A394B12C34
:104370003CA22BA21EA30DA35AA649A647017CA6C8
:104380006BA6B501882777FD8095982F0E94175D51
:104390002BED3FE049EC50E40E94605EBF89AB8D9D
:1043A000EF8D18A12B2F3A2F4E2F512F0E94605EB8
:1043B00020E030E040E251E40E947C5C7B018C0113
:1043C0007F2D802F912F0E94C35E1B012C01F301D2
:1043D00035976081772767FD7095872F972F0E940B
:1043E000175D20E030E040E05CE30E94605E20E08A
:1043F00030E040EA50E40E94605EA20191010E9418
:10440000605EF601282D392D4F2F5C2D0E94115C26
:104410001B014C019FEF691A790A6E2D7F2D802FA9
:10442000912F0E94795C6B017C01ABA5BCA56C91BE
:10443000772767FD7095872F972F0E94175D20E0E3
:1044400030E040E05CE30E94605E20E030E040EA63
:1044500050E40E94605EA70196010E94605E222DDA
:10446000332D482D592D0E94115C4B01D82EC92E99
:10447000BFEFAB1ABB0AE5E0AE16B10409F07FCF7F
:104480002BA03CA00DA11EA149A45AA47B0196011A
:10449000862F9F2DA32FB22FF10181839283A383B7
:1044A000B483128A118A8FEF9FEFDC0172CE81896B
:1044B0009289892B09F49FC28FEF9FEFDC01F101F4
:1044C000848F958FA68FB78FEECEEF81F8851082FF
:1044D000D10115962D913D914D915C911897C70191
:1044E000B6010E94605E4B015C01F10125853685B5
:1044F0004785508961857285838594850E94605EB9
:104500009B01AC01C501B4010E94115C0E94E45CF6
:10451000AB01BC01C2010E943D1E2FE832EC45E711
:104520005CE3C701B6010E94605E9B01AC01D10152
:104530001D966D917D918D919C9150970E94115C7B
:10454000F101658776878787908BADCEA985BA857F
:104550002C91213009F469C2223009F40BC22111D7
:10456000A2CE8091510290915202A0915302B0913B
:104570005402EB89FC8940815181628173818417E7
:104580009507A607B70708F4AAC3F101E45BFF4F3C
:104590008081882309F416C3E2E0A985BA85EC93EB
:1045A00082CEF101848D958DA68DB78D0097A105E2
:1045B000B10509F4D5C1181619061A061B0644F4EC
:1045C0000197A109B109F101848F958FA68FB78F4B
:1045D0002FE832EC45E75CE3AD81BE816D917D91C2
:1045E0008D919C910E94605EF10121813281438115
:1045F00054810E94115CC62ED72EE82EF92ED101CF
:104600001196CD92DD92ED92FC921497EFA1F8A550
:1046100020813181428153810E94105C0E945D158E
:104620006B017C01D10115962D913D914D915C91CD
:1046300018970E94605E4B015C01F101258536856B
:104640004785508961857285838594850E94605E67
:104650009B01AC01C501B4010E94115C0E94E45CA5
:10466000AB01BC01C2010E943D1E2FE832EC45E7C0
:104670005CE3C701B6010E94605E9B01AC01D10101
:104680001D966D917D918D919C9150970E94115C2A
:10469000F101658776878787908B2FE832EC45E7B5
:1046A0005CE362A573A584A595A50E94605EAD81BB
:1046B000BE812D913D914D915C910E94115C6B01E9
:1046C0007C0122E93AE046E850E47D2D9F2D0E94CE
:1046D0005C5E18160CF439C18C2D9D2DAE2DBF2DAE
:1046E000ED81FE8180839183A283B38322E93AE046
:1046F00046E850EC6C2D7D2D8E2D9F2D0E94755C13
:1047000087FFD1CD82E99AE0A6E8B0ECED81FE8189
:1047100080839183A283B383C6CDAB85BC858C9106
:10472000882309F40FC1813009F442C2EF85F8896A
:10473000408150E0519541955109662757FD60959C
:10474000762FC2010E943D1EAECDF101848D958D64
:10475000A68DB78D0097A105B10509F4B5C044F049
:104760000197A109B109F101848F958FA68FB78FA9
:10477000F101EF59FF4F80809180A280B38020E04B
:1047800030E0A901C501B4010E94755C882309F4D9
:10479000E1C1A989BA898D919D910D90BC91A02DFF
:1047A0008F8B988FA98FBA8F20E030E0A901BC01D0
:1047B000CD010E94755C87FDF1C28F89988DA98D0E
:1047C000BA8D8B8F9C8FAD8FBE8FAD81BE81CD900A
:1047D000DD90ED90FC9020E030E0A901C701B6012A
:1047E0000E94755CA701960187FDD6C26B8D7C8DFA
:1047F0008D8D9E8D0E945C5E18160CF046C2E98974
:10480000FA89C082D182E282F3822FE832EC45E756
:104810005CE3C701B6010E94605EF1012181328133
:10482000438154810E94115CC62ED72EE82EF92EAA
:10483000D1011196CD92DD92ED92FC921497AFA129
:10484000B8A52D913D914D915C910E94105C0E9404
:104850005D156B017C0120E030E0A9010E94755CD0
:104860004601570187FD9FC16091740270917502E6
:1048700080917602909177029B01AC010E94115CBD
:104880009B01AC01C501B4010E945C5EEF81F8851B
:1048900018160CF086C120812F5F208330E08091B4
:1048A0007202909173028217930708F0FCCCD10139
:1048B0001C925B961C921E925A9740E050E0BA01FF
:1048C000C2010E943D1EEFCC81E090E0928B818B73
:1048D000D101158616861786108AED85FE858081A2
:1048E0009181892B09F455C1E2E0D101EC935A96EC
:1048F0008D919C915B97892B69F056968D919D9136
:104900000D90BC91A02DF10181839283A383B48388
:10491000138E128EEFEFFFEFAD85BE85ED93FC9306
:10492000D10153968D919C915497892B09F4C4CD54
:1049300082E490E0A0E0B0E0F101848F958FA68F33
:10494000B78FB1CCF1011082AECC82E99AE0A6E833
:10495000B0E4ED81FE8180839183A283B383A3CCF5
:104960008FEF9FEFDC01848F958FA68FB78F23E0A9
:10497000208321CE8091510290915202A091530246
:10498000B0915402F101EB58FF4F40815181628197
:10499000738184179507A607B70708F41CC1F101B6
:1049A00020838FEF9FEFDC01848F958FA68FB78FC9
:1049B0007ACC23EC38EB42EB5DEBC701B6010E94E9
:1049C0005C5E18160CF014CCE1E0F0E0D1015296D8
:1049D000FC93EE93519753968D919C915497892B0C
:1049E00009F035CC8FEF9FEFDC01F101848F958FBB
:1049F000A68FB78FFDCB108240E050E0BA01C20114
:104A00000E943D1E50CCAD85BE858C91EB85FC850A
:104A10008083C2010E948B1E8FEF9FEFDC01F101AA
:104A2000848F958FA68FB78F3ECC80915102909145
:104A30005202A0915302B0915402F101EF58FF4F7E
:104A4000408151816281738184179507A607B7075A
:104A500008F0A2CD609151027091520280915302F0
:104A6000909154027101F1E5EF0EF11CAB89BC8904
:104A70008D909D90AD90BC90681979098A099B0929
:104A80000E94155D20E030E04AE754E40E947C5C1F
:104A9000ED89FE8920813181428153810E94605ECF
:104AA000D7012D913D914D915C910E94115CC62ED4
:104AB000D72EE82EF92EF101C182D282E382F48250
:104AC000AFA1B8A52D913D914D915C910E94105CD4
:104AD0000E945D156B017C01F101258136814781C2
:104AE00050850E94605E4B015C01D1011D962D91A5
:104AF0003D914D915C91509719966D917D918D915D
:104B00009C911C970E94605E9B01AC01C501B401A1
:104B10000E94115C0E94E45CAB01BC01C2010E94D6
:104B20003D1E2FE832EC45E75CE3C701B6010E9469
:104B3000605E9B01AC01F101658576858785908972
:104B40000E94115CD1011D966D937D938D939C9372
:104B50005097A9CB2FE832EC45E75CE3ED81FE816D
:104B600060817181828193810E94605ED101119682
:104B70002D913D914D915C9114970E94115CC62E30
:104B8000D72EE82EF92EF101C182D282E382F4827F
:104B900056CE1C9240E050E0BA01C2010E943D1E78
:104BA000B9CE108295CCB7FAB094B7F8B0945CCE79
:104BB000AF85B8894C9150E060E070E0C2010E947E
:104BC0003D1E71CBE1E0A985BA85EC936CCBC701A2
:104BD000B601905820CB60915102709152028091A1
:104BE000530290915402F101EF58FF4FC080D180E1
:104BF000E280F3806C197D098E099F090E94155D82
:104C000020E030E04AE754E40E947C5CB62EA72EF8
:104C1000982E892EF101E35AFF4F20813181428184
:104C20005381D501F4016B2F7A2F8F2F9E2F0E9475
:104C3000605ED501F4012B2F3A2F4F2F5E2F0E947B
:104C4000605E20E030E040E05FE30E94605E6B0168
:104C50007C01AD89BE892D913D914D915C91D5012D
:104C6000F4016B2F7A2F8F2F9E2F0E94605E9B0185
:104C7000AC01C701B6010E94115CF101EB5AFF4F74
:104C8000208131814281538110CFC701B6010E943A
:104C900076106B017C012FE832EC45E75CE3C5013F
:104CA000B4010E94605EA70196010E94605E9B01B4
:104CB000AC016F89788D898D9A8D0E94115CC62E0A
:104CC000D72EE82EF92E462F572F682F792FA98936
:104CD000BA894D935D936D937C93139796CD6091B4
:104CE0005102709152028091530290915402F1014D
:104CF000E759FF4FC080D180E280F3806C197D09B5
:104D00008E099F090E94155D20E030E04AE754E4D7
:104D10000E947C5CF62EE72ED82EC92EF101E75AB0
:104D2000FF4F2081318142815381D701F6016B2FE2
:104D30007A2F8F2F9E2F0E94605ED701F6012B2FB6
:104D40003A2F4F2F5E2F0E94605E20E030E040E05F
:104D50005FE30E94605EF101E35BFF4F20813181E0
:104D6000428153810E94115CC62ED72EE82EF92E67
:104D7000D1011196CD92DD92ED92FC921497EFA1A4
:104D8000F8A520813181428153810E94105C0E94EC
:104D90005D156B017C019CCB505828CD8F89988D77
:104DA000A98DBA8DB0588B8F9C8FAD8FBE8F0DCDD6
:104DB0001092AB021092650F1092DE0F10925710F6
:104DC0006EE480E00E94091E6EE480E00C94231ED5
:104DD000019729E7289FF001299FF00D1124EB5935
:104DE000F04F8CE29CEEAAECB3E485839683A78314
:104DF000B087118612861386148608957F928F924B
:104E00009F92AF92BF92CF92DF92EF92FF920F9359
:104E10001F93CF93DF9300D000D0CDB7DEB780E1F2
:104E200090E00E94CE10813A09F444C0A1EACA2E53
:104E3000AFE0DA2EE12CF12C01E010E0C8010E9475
:104E4000A915DC01CB01B05889839A83AB83BC835D
:104E5000F60180839183A283B38344E050E0BE01D6
:104E60006F5F7F4FC7010E94DF100F5F1F4FF9E791
:104E7000CF0ED11C84E0E80EF11C04301105F1F6D0
:104E800061EA80E190E00E94A01021E030E0C901D9
:104E90000F900F900F900F90DF91CF911F910F9176
:104EA000FF90EF90DF90CF90BF90AF909F908F904A
:104EB0007F900895B1EAAB2EBFE0BB2E812C912CE0
:104EC00000E010E089E7782E709EB001719E700DB1
:104ED00011246F55704F44E050E0C4010E9404114A
:104EE000F501C080D180E280F38020E030E040E432
:104EF00050E4C701B6010E94755C87FF0AC020E03C
:104F000030E040E450ECC701B6010E945C5E181628
:104F10002CF0F50110821182128213820F5F1F4F55
:104F2000F4E08F0E911C89E7A80EB11C0430110526
:104F300059F620E030E0ABCF1092A10F1092A20FF3
:104F40001092A30F1092A40F10921A1010921B101F
:104F500010921C1010921D10109293101092941029
:104F6000109295101092961060EA80E190E00E94F5
:104F7000A0100E94FE2680E090E008956091480E07
:104F8000E5E6FFE081E090E020E030E0623099F07B
:104F90006330A9F04081442321F041895289452B97
:104FA000A9F08330910571F02F5F3F4F0196E758CC
:104FB000FF4F623069F72130310561F7F5CF2230BC
:104FC000310541F720E030E0C901089521E030E0EB
:104FD000FBCF2F923F924F925F926F927F928F9270
:104FE0009F92AF92BF92CF92DF92EF92FF920F9378
:104FF0001F93CF93DF93CDB7DEB76C970FB6F894BE
:10500000DEBF0FBECDBF3C011A012B0109831A83FD
:105010002B833C8320E030E0A901C201B1010E9452
:10502000755C87FDEBC320E030E0A90169817A81DE
:105030008B819C810E94755C87FDD6C320E030E0A7
:10504000A901C701B6010E94755C87FDC8C3C301F1
:1050500001979A87898789E7A985BA858A9F800100
:105060008B9F100D11240B59104FF80126A937A959
:1050700040AD51ADC501B4010E94105C862EB72E23
:10508000982EA92E862F9B2DA92DBA2D8D839E8318
:10509000AF83B887A2019101C701B6010E947C5C71
:1050A0006B877C878D879E8729813A814B815C81C4
:1050B000C701B6010E947C5C6D8B7E8B8F8B988FB5
:1050C000D80152961C921E92519720E030E0A9011F
:1050D000682D7B2D892D9A2D0E94755C87FD8FC1CF
:1050E0007B856C859D858E85272F362F492F582FE0
:1050F000C701B6010E94605E20E030E040E05FE35F
:105100000E94605E6F87788B682E998B7D896E898F
:105110009F89888D272F362F492F582FC701B60119
:105120000E94605E20E030E040E05FE30E94605E4D
:105130006A8B772E8B8B9C8B762F982F8C89272FC1
:10514000372D492F582FBF85A889E9896B2F7A2FD2
:10515000862D9E2F0E94115C9B01AC01682D7B2D3A
:10516000892D9A2D0E94755C87FF98C1882D9B2DF3
:10517000A92DBA2D898F9A8FAB8FBC8FA201910177
:10518000C201B1010E94115C9B01AC0160E070E0C2
:1051900080E89FE30E947C5C4B015C0129813A819D
:1051A0004B815C81CA01B9010E94115C9B01AC0179
:1051B00060E070E080E89FE30E947C5C9B01AC01B2
:1051C000C501B4010E94115C9B01AC01698D7A8D0F
:1051D0008B8D9C8D0E947C5C0E94CD5E6B017C015E
:1051E000A20191010E947C5CB62EA72E982E892EDA
:1051F00029813A814B815C81C701B6010E947C5CA8
:10520000762E672E8B879C8789E7A985BA858A9F2A
:1052100080018B9F100D11240B59104FF80112AA19
:1052200013AA14AA15AAE55BFF4F10826D817E8137
:105230008F8198850E94761098012B593F4F3A87AD
:105240002987A70196010E94605EA985BA856D93A2
:105250007D938D939C9313976D817E818F8198852B
:105260000E9476109B01AC017801B9E5EB0EF11CB0
:10527000C201B1010E94605EF70160837183828385
:1052800093836D817E818F8198850E9476109B012A
:10529000AC017801FDE5EF0EF11C69817A818B810B
:1052A0009C810E94605EDC01CB01B058F7018083D5
:1052B0009183A283B38386E0D8018C938FEF9FEF15
:1052C000DC01F801848F958FA68FB78FE45BFF4FC9
:1052D00081E08083F80186A997A9A0ADB1AD818353
:1052E0009283A383B483E35BFF4F80839183A28384
:1052F000B3838091510290915202A0915302B091D8
:105300005402F801E759FF4F80839183A283B3834E
:1053100020E030E04AE754E4D501F4016B2F7A2F06
:105320008F2F9E2F0E94605E5B016C016091510285
:105330007091520280915302909154027801FDE6DF
:10534000EF0EF11C0E94155D9B01AC016A2D7B2DB7
:105350008C2D9D2D0E94115C0E94E95CD7016D93FC
:105360007D938D939C93139720905102309052021D
:1053700040905302509054020B581F4F20E030E0F1
:105380004AE754E4D301FB85EC856B2F7A2F8F2FEE
:105390009E2F0E94605E9B01AC016A2D7B2D8C2D9F
:1053A0009D2D0E94115C6B017C01C201B1010E9424
:1053B000155D9B01AC01C701B6010E94115C0E9402
:1053C000E95CF80160837183828393836C960FB6E6
:1053D000F894DEBF0FBECDBFDF91CF911F910F912B
:1053E000FF90EF90DF90CF90BF90AF909F908F9005
:1053F0007F906F905F904F903F902F9008956D81B8
:105400007E818F8198859058698F7A8F8B8F9C8F42
:105410007B856C859D858E85272F362F492F582FAC
:10542000C701B6010E94605E20E030E040E05FE32B
:105430000E94605E6F87788B682E998B7D896E895C
:105440009F89888D272F362F492F582FC701B601E6
:105450000E94605E20E030E040E05FE30E94605E1A
:105460006A8B772E8B8B9C8B762F982F8C89272F8E
:10547000372D492F582FBF85A889E9896B2F7A2F9F
:10548000862D9E2F0E94115C9B01AC01698D7A8D47
:105490008B8D9C8D0E94755C87FD70CE89E7298578
:1054A0003A85829F5001839FB00C112465E67FE00E
:1054B000A60EB71ED501D2961D921D921D921C926A
:1054C000D597F501E55BFF4F10826D817E818F815D
:1054D00098850E9476109B01AC0185010B591F4FE6
:1054E000C701B6010E94605EF80160837183828308
:1054F00093836D817E818F8198850E9476109B01B8
:10550000AC018501075A1F4FC201B1010E94605EC4
:10551000D8016D937D938D939C9313976D817E81BC
:105520008F8198850E9476109B01AC018501035AFA
:105530001F4F69817A818B819C810E94605EDC01B2
:10554000CB01B058F80180839183A283B38386E0B6
:10555000D5018C938FEF9FEFDC01F501848F958F40
:10556000A68FB78FE45BFF4F1082F50186A997A93C
:10557000A0ADB1AD81839283A383B4838501035B26
:105580001F4FF80180839183A283B3836D817E8155
:105590008F8198850E9476109B01AC01F1E5AF0EDA
:1055A000B11CC201B1010E94605EBB85AC85FD8566
:1055B000EE852B2F3A2F4F2F5E2F0E94605EBB850A
:1055C000AC85FD85EE852B2F3A2F4F2F5E2F0E9445
:1055D000605E20E030E040E05FE30E94605ED80162
:1055E0002D913D914D915C910E94115CF50160837C
:1055F00071838283938320E030E0A9016D817E81F5
:105600008F8198850E94755C87FDFDC06D817E81CC
:105610008F819885BF85A889E9892B2F3A2F462D40
:105620005E2F0E94105CBA89FB89EC892B2F372DE5
:105630004F2F5E2F0E94105C5B018C01CB01D801C3
:1056400089839A83AB83BC8320E030E0A901B50154
:10565000C8010E94755C87FDDCC0C501D8014C0102
:105660005D016D817E818F8198850E9476109B01FE
:10567000AC0189E769857A85869F8001879F100D37
:1056800011240B59104F380175E5670E711CC501C7
:10569000B4010E94605EF801EF5AFF4F2081318112
:1056A000428153810E94115CD3016D937D938D9350
:1056B0009C9313978091510290915202A0915302B2
:1056C000B0915402F801E759FF4F80839183A28380
:1056D000B38320E030E04AE754E4BB85AC85FD8528
:1056E000EE856B2F7A2F8F2F9E2F0E94605E3B01DD
:1056F000582E492E609151027091520280915302AE
:10570000909154025801BDE6AB0EB11C0E94155D8C
:105710009B01AC01F201662D772D8F2F9E2F0E94E9
:10572000115C0E94E95CF50160837183828393833D
:105730008090510290905202A0905302B090540277
:10574000A701960169817A818B819C810E947C5C92
:1057500020E030E04AE754E40E94605E9B01AC0127
:10576000F201662D772D8F2F9E2F0E94115C6B0109
:105770007C01C501B4010E94155D9B01AC01C7010C
:10578000B6010E94115C0E94E95CF801EF58FF4FDE
:1057900060837183828393830B581F4F0E94155D32
:1057A0006B017C0120E030E04AE754E4FD89EE899A
:1057B000BF89A88D6F2F7E2F8B2F9A2F0E94605E3E
:1057C0009B01AC01C701B6010E94115C0E94E95C1B
:1057D000D8016D937D938D939C931397F7CDF7FA32
:1057E000F094F7F8F09433CC69817A818B819C81B5
:1057F000905869837A838B839C8320CC57FA50948A
:1058000057F8509410CC6D817E818F819885905887
:1058100001CF89809A80AB80BC80B7FAB094B7F88A
:10582000B0941FCF8091980290919902892B59F0E2
:1058300080919502882339F080919A02813009F491
:105840005AC0823009F0089580ED80936F0389E19A
:1058500080937003809198029091990290937103C4
:105860008091980290919902809372031092730331
:1058700089E38093740383E18093750380919B0F88
:1058800090919C0FA0919D0FB0919E0F80937603F5
:1058900090937703A0937803B093790380911410C9
:1058A00090911510A0911610B091171080937A0363
:1058B00090937B03A0937C03B0937D0380918D1024
:1058C00090918E10A0918F10B091901080937E03D4
:1058D00090937F03A0938003B0938103109286037B
:1058E00082E18093870320E04FEF5FEF69E18FE66D
:1058F00093E00C9454480E94F70A8091490F9091CC
:105900004A0F2091420E3091430E97FD53C095955A
:10591000879595958795959587959595879595956F
:10592000879537FD49C0A901042E452F000C441F5F
:10593000550B000C441F551F22273327281B390BFA
:10594000241B350B841B950B40ED40936F0340E106
:1059500040937003409198025091990250937103C3
:1059600040919802509199024093720310927303F0
:1059700048E6409374034AE04093750345E0409342
:105980007603309377032093780390937903809381
:105990007A0390937B0380937C0310927D0382E1D2
:1059A00080937E0320E04FEF5FEF60E18FE693E0AE
:1059B0000C9454484F96ABCF215C3F4FB4CF80E856
:1059C000E1E9FAE2DF011D928A95E9F71092601190
:1059D0001092AB0210923D0384E690E0A0E0B0E0AC
:1059E00080933E0390933F03A0934003B093410301
:1059F00082E19CE290934303809342030895CF9306
:105A0000DF9300D000D01F92CDB7DEB7809198020F
:105A100090919902892BC1F086ED898385E08A8374
:105A200080919802909199029B8380919802909125
:105A300099028C8382E18D8320E04FEF5FEF65E078
:105A4000CE0101960E9454480F900F900F900F9036
:105A50000F90DF91CF91089520E030E005C02F5FD7
:105A60003F4F2034310559F0F901EE0FFF1FEF567B
:105A7000F54D408151818417950789F7089520E0FD
:105A800030E005C02F5F3F4F20343105B9F3F901F5
:105A9000EE0FFF1FEF56F54D40815181452B91F7D9
:105AA000918380830895EF92FF920F931F93CF937A
:105AB000DF93CDB7DEB729970FB6F894DEBF0FBEE0
:105AC000CDBF8C01DC0118968C9118971F928F9393
:105AD00017968C9117971F928F9313968C9113970B
