:100000000C9471010C9490010C9490010C9490014B
:100010000C9490010C9490010C9490010C9490011C
:100020000C9490010C9449020C9490010C94900152
:100030000C9490010C9490010C9490010C949001FC
:100040000C9490010C9490010C9490010C949001EC
:100050000C9490010C9490010C9490010C949001DC
:100060000C9490010C9490010C9490010C949001CC
:100070000C9490010C946D0E0C9490010C949001D2
:100080000C9490010C9490010C9490010C949001AC
:100090000C9456320C9490010C9490010C941F41D6
:1000A0000C9490010C9490010C94D54A0C94E64A5F
:1000B0000C9490010C9490010C9490010C94E9071D
:1000C0000C9490010C9490010C9490010C9490016C
:1000D0000C9490010C9490010C9490010C9490015C
:1000E0000C9490010C9490010C9490010C9490014C
:1000F0000C940E4C0C9490010C9490010C94E24BD7
:100100000C9490010C9490010C9490010C9490012B
:100110000C9490010C9490010C9490010C9490011B
:100120007C3326330C34C7333E33D633EE337F343F
:100130009D34BB34D43409353F358435CA35DF3579
:10014000F435093613362B3657367F368B369C36C8
:100150001933AC36C136CE36EF360637093711378C
:1001600019371D372A37193362388838FF38DC3899
:10017000F2381F392A393B398139C1399E33C439A4
:10018000433946394B396139313742377937583736
:100190005E37833792379937BA37C33719331933F4
:1001A000193319331933193319331933D437ED3758
:1001B000F237F73700382038FD396F340A3A2034E7
:1001C000E73905A84CCDB2D44EB93836A9020C5047
:1001D000B9918688083CA6AAAA2ABE000000803FE2
:1001E0006E616E00696E660000407A10F35A00A0DE
:1001F000724E18090010A5D4E80000E876481700F0
:1002000000E40B54020000CA9A3B000000E1F5052F
:10021000000080969800000040420F000000A08679
:1002200001000000102700000000E80300000000AB
:100230006400000000000A0000000000010000004F
:1002400000002C76D888DC674F0823DFC1DFAE5969
:10025000E1B1B796E5E3E453C63AE651997696E8FC
:10026000E6C28426EB898C9B62ED407C6FFCEFBC80
:100270009C9F40F2BAA56FA5F490055A2AF75C93AB
:100280006B6CF9676DC11BFCE0E40D47FEF520E6E1
:10029000B500D0ED902E0300943577050080841EC4
:1002A000080000204E0A000000C80C333333330F1F
:1002B000986E12831141EF8D2114893BE65516CFBC
:1002C000FEE6DB18D1844B381BF77C1D901DA4BBC8
:1002D000E424203284725E228100C9F124ECA1E57D
:1002E0003D2711241FBECFEFD1E4DEBFCDBF13E009
:1002F000A0E0B2E0E2ECFEEA00E00BBF02C0079033
:100300000D92A231B107D9F711E2A2E1B3E001C029
:100310001D92A431B107E1F70E94FA0C0C945F57CB
:100320000C94000081E080930B028091280A86FFE4
:1003300004C08091280A87FDA7C08091280A86FF03
:1003400022C080918A0290918B02892BE9F08091E2
:100350008902811123C010928B0210928A0210929E
:10036000890281E00E946E09109208111092071113
:1003700010920A111092091110929D024FEF60E045
:1003800080E00C940F08089583E00E946E090E949B
:10039000E407892B09F476C00C94C2070E944B2F06
:1003A00080ED809321168EE08093221680918A0240
:1003B00090918B029093231680918A0290918B02E8
:1003C000809324161092251686E78093261688E0DF
:1003D00080932716109228161092291610922A162A
:1003E00010922B168FEF80932C1610922D1682E10F
:1003F00080932E166091221620E04FEF5FEF81E28E
:1004000096E10E94D93F6091221620E04FEF5FEF06
:1004100081E296E10E94D93F6091221620E04FEFE1
:100420005FEF81E296E10E94D93F6091221620E0C1
:100430004FEF5FEF81E296E10E94D93F6091221673
:1004400020E04FEF5FEF81E296E10E94D93F60919B
:10045000221620E04FEF5FEF81E296E10E94D93F44
:100460001092EE1010928C0280E090E0FC01EE0FF2
:10047000FF1FEF55FA4E11821082019680349105CC
:10048000A9F769CF0C9434070E94782183E00C947B
:100490006E091F920F920FB60F9211240F900FBE8C
:1004A0000F901F9018950E94100680918A029091DB
:1004B0008B02892B31F080910711909108110E94D5
:1004C00009300C947C2FCF93DF93CDB7DEB72997FB
:1004D0000FB6F894DEBF0FBECDBF0E94100680910C
:1004E0008A0290918B02892B21F0809189028111DF
:1004F0001EC080919D02813009F443C0833009F40D
:1005000040C080918A0290918B02892B29F08091C2
:100510008902882309F465C00E94153129960FB617
:10052000F894DEBF0FBECDBFDF91CF9108958091CB
:10053000071190910811892B09F04DC080918C0210
:1005400090E0019663E070E00E94CE5380938C02AD
:1005500080918C02813009F455C008F045C080912B
:10056000071190910811892B21F60E94B4200E9456
:100570004B2F4FEF60E080E00E940F081092EE10CA
:10058000CDCF82E080939D0280918A0290918B0270
:10059000892BF1F080ED898389E08A8380918A023A
:1005A00090918B029B8380918A0290918B028C8325
:1005B0001D828DE48E8383E08F83188682E1898794
:1005C00020E04FEF5FEF69E0CE0101960E94D93F36
:1005D0000E94B420A3CF80918C02882309F489CF94
:1005E000ADCF0E9454319ACF823009F082CF0E9461
:1005F000B4204FEF6FEF80E00E940F0889E08093F6
:10060000EE108CCF0E944B2F40E06FEF80E00E94F5
:100610000F0887E08093EE1081CF80ED97E0A0E097
:10062000B0E080932E0A90932F0AA093300AB093E3
:10063000310A81E080932D0A82E991E09093330A98
:100640008093320A8DE29AE00C945E408DE29AE04B
:100650000C942A408F929F92AF92BF92CF92DF92DA
:10066000EF92FF920F931F93CF93DF93CDB7DEB737
:100670002C970FB6F894DEBF0FBECDBFE62EE8264E
:1006800090914B02992309F442C0E6FA442740F9BD
:10069000E7FC93C0E5FC446066FD63C030E021E008
:1006A00067FD63C0226065FF63C0346080E28983B8
:1006B0008AE08A838091510290915202A091530264
:1006C000B09154028B839C83AD83BE834F83388764
:1006D00029871A868091550290915602892B09F438
:1006E00049C020910D0F30910E0F809155029091CD
:1006F000560228173907F1F14091550250915602E0
:1007000021E06AE0CE0101960E94D93F43C06623F2
:10071000F9F090910B0291113DC0E6FE52C06C873A
:100720008B8766FF62C00E940D0320E030E06C857D
:100730008B85E7FC53C0E5FE47C065FD45C086FDDF
:1007400046C085FD75C087FF25C00E94630222C098
:1007500090910B029923E9F210920B0210920A0277
:1007600019C031E020E067FF9DCF326065FD9DCF6D
:1007700024609CCF40910D0F50910E0F21E06AE054
:1007800070E0CE0101960E94B032FC01618170E000
:100790000E9496322C960FB6F894DEBF0FBECDBFE6
:1007A000DF91CF911F910F91FF90EF90DF90CF904D
:1007B000BF90AF909F908F9008954260E5FE6CCF00
:1007C0006ACF20E030E0B5CF232B21F3B8CF87FDEF
:1007D00049C085FD2DC00E945302DCCF67FD0CC0CF
:1007E00010920A0221E030E0A6CF0E94260321E009
:1007F00030E06C858B859DCF91E090930A028090CC
:10080000510290905202A0905302B09054028092F4
:10081000290A90922A0AA0922B0AB0922C0A90914F
:10082000EE109150923008F086CF1092EE1083CFE8
:100830000E9410068091550290915602892B49F032
:100840004FEF60E080E00E940F0810925602109275
:100850005502109208111092071110920A1110926D
:10086000091198CF81E06C870E946E090E94863141
:100870006C85662319F081E080930B028091130F41
:10088000811126C08091840F811122C08091F50FC3
:1008900081111EC039E4C32E3FE0D32EE12CF12C90
:1008A000F60111821082FFEFEF1AFF0A0BED1FE035
:1008B00029EC3FE340E050E0BA01C7010E94341543
:1008C00081E7C80ED11CE3E0EE16F10449F762CFD0
:1008D0000E94B4205FCFCF93809151029091520239
:1008E000A0915302B091540240910C0250910D021C
:1008F00060910E0270910F02841B950BA60BB70B33
:100900004997A105B105F0F0C9B1C095C07EC0936B
:10091000280A809110028C17A9F06C2F0E942A03DC
:100920008091510290915202A0915302B0915402D1
:1009300080930C0290930D02A0930E02B0930F02CD
:10094000C0931002CF9108951092B1002498089599
:100950000C94A404CF93DF9382E48093B000A3EBC4
:10096000B0E082EB8C93E1EBF0E085E080832FEF49
:1009700032E597E0215030409040E1F700C00000A0
:100980001082CFE1DEE42197F1F700C0000095E886
:100990009C938083DFEF22E537E0D1502040304048
:1009A000E1F700C000001082249881E08093BC0D24
:1009B00084E690E0A0E0B0E08093BD0D9093BE0D82
:1009C000A093BF0DB093C00D88EA94E09093C20D40
:1009D0008093C10DDF91CF9108959C01009709F19B
:1009E0008A3F910578F085E08093B10064E274EF6E
:1009F00080E090E0249A40E050E00E94045420936C
:100A0000B300089587E08093B10064E87EE180E060
:100A100090E0249A40E050E00E9404542093B300F8
:100A200008950C94A404CF93DF93C82FCF708295C0
:100A30008F7009F161E090E0660F9F5F9813FCCF23
:100A400070E0D0E0CC0FDD1FCC0FDD1FCF5EDD4F9F
:100A5000882777FD8095982F0E94D04D2881398175
:100A60004A815B810E94194F0E94A24DCB01DF9108
:100A7000CF910C94ED0461E070E0E3CF0F931F93EE
:100A8000CF93DF9300D0CDB7DEB70E94A4040091CE
:100A90004202109143020115110509F480C08091B2
:100AA000440290914502801791070CF05EC030918E
:100AB000CB0D20E0880F991F820F931F45960E944F
:100AC000100E0E9413053091CB0D20E0809144025E
:100AD00090914502880F991F820F931F44960E94A0
:100AE000100E8093170340914402509145024F5FCE
:100AF0005F4F5093450240934402609142027091CF
:100B000043026417750794F40E94AF558A830E94CC
:100B1000AF5589830E94AF554A8169810F900F902C
:100B2000DF91CF911F910F910C940F081092CC0D73
:100B3000282F30E040E050E06091130370911403DF
:100B400080911503909116030E94E2532093CD0DDE
:100B50003093CE0D4093CF0D5093D00D8EE395E0A2
:100B60009093D20D8093D10DCFCF81E08093CC0DA7
:100B700010924502109244021092430210924202D7
:100B80000E94A404109241024FEF60E080E00F90B9
:100B90000F90DF91CF911F910F910C940F089091BE
:100BA000CB0D80E042960E94100E8093120390912C
:100BB000CB0D80E043960E94100E082F10E010939A
:100BC0004302009342022091120330E040E050E0E3
:100BD00060E879EA83E090E00E94E25320931303F7
:100BE00030931403409315035093160358CF91E0AC
:100BF000909341029093CC0D1092CD0D1092CE0D9A
:100C00001092CF0D1092D00D2EE335E03093D20D1F
:100C10002093D10D8093CB0D8CEC9DE00C945E4025
:100C200086EE90E00E94ED048CEB9DE00C945E401B
:100C30000F931F93CF93DF938091510290915202B3
:100C4000A0915302B09154024091EA0D5091EB0DE6
:100C50006091EC0D7091ED0D841B950BA60BB70BFD
:100C600081349747AB41B10508F0B4C08091F60DCF
:100C7000823009F486C08091240F9091250F892B32
:100C800071F58091130F882359F08091840F8111A1
:100C900058C08091950F9091960F892B09F051C003
:100CA0000E94B42040E060E08FEF0E940F088FEFB9
:100CB00091EE24E0815090402040E1F700C0000018
:100CC00040E060E080E00E940F088FEF91EE24E0AA
:100CD000815090402040E1F700C00000E3CF8091B8
:100CE000950F9091960F892B81F280914602813069
:100CF00009F496C00BED1FE029EC3FE34BED5FE0FC
:100D000069E471E481E090E00E9434150BED1FE08E
:100D100029EC3FE34BED5FE069E471E482E090E0B1
:100D20000E9434150BED1FE029EC3FE34BED5FE033
:100D300069E471E483E090E00E94341581E08093DF
:100D400046020E94AF558C010E94AF55EC010E94F3
:100D5000AF55FC012FEF30E0C801B9010E94CE531E
:100D6000482FCE01B9010E94CE53C82FCF01B9013F
:100D70000E94CE536C2FDF91CF911F910F910C9455
:100D80000F088091240F9091250F892BB1F5809148
:100D9000130F811139C00E94B42040E060E08FEF52
:100DA0000E940F088FEF91EE24E081509040204088
:100DB000E1F700C0000040E060E080E00E940F0822
:100DC0008FEF91EE24E0815090402040E1F700C089
:100DD0000000E3CF81E08093DB0D40E06FEF80E027
:100DE0000E940F080E94B4201092480210924702FD
:100DF000DF91CF911F910F910895809106109091EE
:100E00000710892B09F071CF8091F50F811199CFCF
:100E10008091061090910710892B09F092CFBBCFDB
:100E20000BED1FE029EC3FE340E050E0BA0181E028
:100E300090E00E9434150BED1FE029EC3FE340E009
:100E400050E0BA0182E090E00E9434150BED1FE003
:100E500029EC3FE340E050E0BA0183E090E00E94DB
:100E60003415109246026DCF0F931F93CF93DF93EB
:100E7000C1E0D0E0D0934802C093470210924A0FDD
:100E80001092490F1092BB0F1092BA0F10922C10B3
:100E900010922B108091510290915202A091530216
:100EA000B09154028093EA0D9093EB0DA093EC0D5A
:100EB000B093ED0D1092DB0D84EF91E0A0E0B0E077
:100EC0008093DC0D9093DD0DA093DE0DB093DF0DCC
:100ED00088E196E09093E10D8093E00D8BED9DE02D
:100EE0000E945E400BED1FE029EC3FE340E050E044
:100EF000BA0181E090E00E9434150BED1FE029EC6F
:100F00003FE340E050E0BA0182E090E00E943415F7
:100F10000BED1FE029EC3FE340E050E0BA0183E035
:100F200090E00E943415D0934A02C09349028DECA0
:100F30009CECACEABFE38093620290936302A093BF
:100F40006402B093650280935E0290935F02A09367
:100F50006002B093610283EC98EBA2E3BEE380935E
:100F6000680290936902A0936A02B0936B0284E1D5
:100F700090E09093670280936602DF91CF911F917A
:100F80000F91089510924802109247028BED9DE058
:100F90000E942A400E94B4204FEF60E080E00E944F
:100FA0000F0883EC98EBA2EBBEE38093680290936A
:100FB0006902A0936A02B0936B0284E690E090937A
:100FC00067028093660208958091470290914802DB
:100FD00008951F920F920FB60F9211248F939F9333
:100FE000AF93BF938091510290915202A09153020E
:100FF000B09154020196A11DB11D809351029093AE
:101000005202A0935302B0935402BF91AF919F91AB
:101010008F910F900FBE0F901F901895089590E13B
:10102000899F90011124309399002093980090E1BA
:10103000699F9001112430939D0020939C0090E1C2
:10104000499F9001112430939B0020939A00809334
:10105000F30D6093F40D4093F50D08958091EE0D1E
:101060009091EF0D01979093EF0D8093EE0D181670
:1010700019061CF081E08093FD0E4091F50D40585B
:101080006091F40D60588091F30D80580C940F0816
:1010900020E1829FC00111249093990080939800D1
:1010A00080E1689FB001112470939D0060939C00C3
:1010B00020E1429FA001112450939B0040939A008D
:1010C0000895CF93DF9380918A0290918B02892BB0
:1010D00059F180918902882339F1C0915B02D09146
:1010E0005C029E01A9E8B8E80E94AE5396958795E8
:1010F00096958795969587954FE0489F9001499FD3
:10110000300D1124CE01821B930B039780F4409184
:10111000E9106091E8108091E7100E94480821963C
:10112000D0935C02C0935B02DF91CF910895409110
:10113000F50D6091F40D8091F30D0E944808EFCFFA
:101140000F93CF93DF9300D01F92CDB7DEB781E02E
:101150008B8302E09E012F5F3F4F41E0BE016D5F38
:101160007F4F8CE10E9410430E943E43998180E0B2
:101170009093F10D8093F00D8091F00D9091F10D11
:101180002A81822B9093F10D8093F00D83E08B8365
:101190009E012F5F3F4F41E0BE016D5F7F4F8CE1AD
:1011A0000E9410430E943E43998180E09093F80E84
:1011B0008093F70E8091F70E9091F80E2A81822B82
:1011C0009093F80E8093F70E85E08B839E012F5F3E
:1011D0003F4F41E0BE016D5F7F4F8CE10E941043A5
:1011E0000E943E43998180E09093110F8093100FED
:1011F0008091100F9091110F2A81822B9093110FE3
:101200008093100F80E00F900F900F90DF91CF919F
:101210000F910895CF93C82F8823F1F040E06FEF2E
:1012200080E00E940F082FEF81EE94E02150804073
:101230009040E1F700C0000040E060E08FEF0E94C6
:101240000F082FEF81EE94E0215080409040E1F7AD
:1012500000C00000C15011F7CF91089585E00C94B3
:101260000A090F93CF93DF9300D000D0CDB7DEB73C
:101270008DE08C8301E09E012D5F3F4F41E0BE0178
:101280006C5F7F4F8CE10E9410430E943E43892B8C
:1012900009F58B818A3219F084E10E940A098AE2F9
:1012A000898389E18A8342E0BE016F5F7F4F8CE1D1
:1012B0000E94D4420E943E43892B19F084E10E948F
:1012C0000A0980E00F900F900F900F90DF91CF915F
:1012D0000F91089584E10E940A09DBCF2091EE0D61
:1012E0003091EF0D121613060CF4089590E0880F5C
:1012F000991F9093EF0D8093EE0D1092FD0E84E6F2
:1013000090E0A0E0B0E08093FE0E9093FF0EA093DB
:10131000000FB093010F8EE298E09093030F80933B
:10132000020F8DEF9EE00C945E402091EE0D309107
:10133000EF0D121613060CF4089590E0880F991F14
:101340009093EF0D8093EE0D1092FD0E4093FE0EE4
:101350005093FF0E6093000F7093010F8EE298E0A0
:101360009093030F8093020F8DEF9EE00C945E40EC
:101370009AE09093770090917C00907C90937C0011
:1013800090917C00906C90937C0090917C00982BC5
:1013900090937C0080917A00876C80937A00809192
:1013A0007A0086FDFCCF2091780030917900932F50
:1013B000937080E0AC01422B9A01C9010895CF934C
:1013C000DF9380E88093610010926100F89480EFD1
:1013D00084B98BB1806E8BB98091680081608093F5
:1013E000680080916B00826080936B0080916B003D
:1013F000846080936B0080916B00886080936B00A9
:101400008FB780688FBF88E18AB98BB183608BB951
:101410008FE78DB98FE383BB819A89982FEF81EE97
:1014200094E0215080409040E1F700C0000082E04D
:101430000E94B809EC018198829A8A982FEF81EE78
:1014400094E0215080409040E1F700C0000081E02E
:101450000E94B8098298C436D10524F484369105D7
:101460000CF453C082E08093F60D82E090E09093FC
:10147000FA0E8093F90E81E090E09093FC0E809339
:10148000FB0E3AEA3093800029E1209381008FEF30
:101490009FE0909387008093860030939000209384
:1014A00091009093970080939600109225011092DE
:1014B00024018091730082608093730080912101E8
:1014C0008C60809321018EE390E0909329018093BA
:1014D0002801909327018093260184B7877F84BFDA
:1014E000809160008861809360001092600080ECC1
:1014F00080937C0010927B008FEE80937A000E9494
:10150000720F7894DF91CF91089583E08093F60D68
:1015100084E090E09093FA0E8093F90E83E090E0DF
:101520009093FC0E8093FB0EACCFE82FF0E0EE0F13
:10153000FF1FE952FF4E20813181C90108950E94A9
:10154000950ABC0180E090E00E94CE4D2DEC3CEC71
:101550004CEC5FE30E94194F20E030E040E85AE392
:101560000E94194F089580E00E94950ABC0180E016
:1015700090E00E94CE4D2DEC3CEC4CEC5FE30E94E1
:10158000194F20E030E040E85AE30E94194F2EE660
:101590003BED46EB5EE30E94354D0895CF93DF931C
:1015A000CDB7DEB72C970FB6F894DEBF0FBECDBF18
:1015B00069877A878B879C8780915102909152022C
:1015C000A0915302B091540289839A83AB83BC8368
:1015D00029813A814B815C8189859A85AB85BC855F
:1015E000820F931FA41FB51F8D839E83AF83B8877F
:1015F00000002091510230915202409153025091CB
:1016000054028D819E81AF81B88582179307A4070C
:10161000B50778F72C960FB6F894DEBF0FBECDBF96
:10162000DF91CF9108958091600088618093600080
:10163000809160008D6080936000FFCF4F925F9239
:101640006F927F92AF92BF92CF92DF92EF92FF9212
:101650000F931F93CF93DF93CDB7DEB76E970FB67F
:10166000F894DEBF0FBECDBF0E94A0086091F00DC0
:101670007091F10D882777FD8095982F0E94D04DAD
:1016800020E030E040E858E30E94194F2B013C0174
:101690006091F70E7091F80E882777FD8095982F4E
:1016A0000E94D04D20E030E040E858E30E94194FFE
:1016B0006B017C016091100F7091110F882777FDED
:1016C0008095982F0E94D04D20E030E040E858E30C
:1016D0000E94194F5B018C01242D352D462D572D6D
:1016E000642D752D862D972D0E94194F2B013C01DD
:1016F0002C2D3D2D4E2D5F2D6C2D7D2D8E2D9F2D56
:101700000E94194F9B01AC01C301B2010E94CA4C57
:101710006B017C012A2D3B2D402F512F6A2D7B2DF3
:10172000802F912F0E94194F9B01AC01C701B60178
:101730000E94CA4C0E94864F7B018C01809151020D
:1017400090915202A0915302B0915402409118031B
:101750005091190360911A0370911B03841B950B20
:10176000A60BB70B8B3F9105A105B10508F0BFC0D3
:10177000A0901C03B0901D03C0901E03D0901F03C7
:101780002E2D3F2D402F512F6A2D7B2D8C2D9D2DE1
:101790000E94C94C5B016C0120E030E0A9017B2D67
:1017A0009D2D0E942E4D87FDC1C02AE939E949E1EE
:1017B0005FE36A2D7B2D8C2D9D2D0E94154F1816F1
:1017C0000CF064C010920A02BB24B394B0920B02D6
:1017D00080918A0290918B02892B29F48091EE10DE
:1017E000882309F4B0C08091EE1081114FC0809120
:1017F000510290915202A0915302B0915402409133
:101800005702509158026091590270915A02841BFC
:10181000950BA60BB70B843F9140A105B10508F4C9
:1018200051C083ED89838CE08A831B821C821D82D8
:101830001E8280918A0290918B029F8380918A02FE
:1018400090918B0288878091E71089878091E810BA
:101850008A878091E9108B8782E18C8720E04FEFA7
:101860005FEF6CE0CE0101960E94D93F809151025A
:1018700090915202A0915302B0915402809357026A
:1018800090935802A0935902B0935A028E2D9F2D27
:10189000A02FB12F80931C0390931D03A0931E03D0
:1018A000B0931F038091510290915202A091530274
:1018B000B09154028093180390931903A0931A03D4
:1018C000B0931B036E960FB6F894DEBF0FBECDBF6C
:1018D000DF91CF911F910F91FF90EF90DF90CF900C
:1018E000BF90AF907F906F905F904F9008958E2D36
:1018F0009F2DA02FB12F80931C0390931D03A093C5
:101900001E03B0931F038091510290915202A09147
:101910005302B09154028093180390931903A0933B
:101920001A03B0931B03570168012ACF2AE939E94A
:1019300049E15FEB6A2D7B2D8C2D9D2D0E942E4D54
:1019400087FFA4CF3FCF8091510290915202A09186
:101950005302B09154028093EF109093F010A09333
:10196000F110B093F2108091510290915202A09127
:101970005302B09154020E94B355409051025090CE
:10198000520260905302709054020E94AF556C0155
:10199000C301B2010E94CE4D2B013C01B601882744
:1019A00077FD8095982F0E94D04D20E03EEF4FEFBD
:1019B00056E40E94354D20E030E44CE954E40E94A6
:1019C000194F9B01AC01C301B2010E94CA4C20E037
:1019D00030E04AE753E40E94CA4C0E94A24D609353
:1019E000F3107093F4108093F5109093F610B0926A
:1019F000EE104CCFCF93DF93CDB7DEB7AD970FB6D8
:101A0000F894DEBF0FBECDBF0E9418320E94DF09DE
:101A10000E94C8420E943109882321F08AE00E9476
:101A20000A09FCCF0E94AA040E94DA3C0E94BB264D
:101A300080914C0290914D02A0914E02B0914F02C4
:101A40008A279B270E94B3550E94DA201F8E8FE0C1
:101A500090E0A0E0B0E088A399A3AAA3BBA38AE882
:101A600099E19DA38CA3CE014F960E945E40188AF7
:101A700084E690E0A0E0B0E0898B9A8BAB8BBC8BC6
:101A800081E698E09E8B8D8BCE0140960E945E4051
:101A9000198280E091E0A0E0B0E08A839B83AC8370
:101AA000BD8383EC91E39F838E83CE0101960E94D8
:101AB0005E404FEF60E080E00E940F080E948C497A
:101AC0000E94E6400E948C490E94FC3A0E944A43D0
:101AD0000E948C490E943D3D0E946B040E948C49EB
:101AE0000E946A2880910A0281113FC080914902B8
:101AF00090914A02892B11F38091470290914802FC
:101B0000892BE1F28091510290915202A0915302EF
:101B1000B09154024091EA0D5091EB0D6091EC0DA3
:101B20007091ED0D841B950BA60BB70B8133954778
:101B3000A105B10518F210924A021092490244E040
:101B400050E062E672E087E194E00E94210E44E0FA
:101B500050E06EE572E08BE194E00E94210E61EAB4
:101B600086E194E00E94E20DA9CF0E941E0BBECF39
:101B7000CF92DF92EF92FF926B017C0120E030E088
:101B8000A9010E942E4D87FD1AC020E030E0A90176
:101B9000C701B6010E94154F181674F490E88FE340
:101BA00050E040E09C01652F742F832F922FFF900F
:101BB000EF90DF90CF90089590E080E0F1CF90E833
:101BC0008FEBEECFE0915D02E11103C0F894E0915C
:101BD0005D027FEF54E144E2F999FECF2AE030E064
:101BE000000021503109E1F792BD81BD70BD5FBB9E
:101BF000F99AF999FECF2AE030E00000215031092E
:101C0000E1F760BD4FBBF99AF999FECF92BD81BD56
:101C1000F89A20B56213E0CFE11101C078940895DD
:101C200020915D02211103C0F89420915D02F99981
:101C3000FECF92BD81BDF89A211101C0789480B584
:101C40000895EF92FF920F931F93CF93DF938C0130
:101C5000F89481E080935D02141615066CF4EB0194
:101C60007B01E40EF51E6991C8010E94E20D0F5F31
:101C70001F4FCE15DF05B9F710925D027894DF9102
:101C8000CF911F910F91FF90EF900895EF92FF92E7
:101C90000F931F93CF93DF93F89421E020935D027D
:101CA0001416150684F4EB017B01E40EF51E8C017D
:101CB000061B170BC8018C0F9D1F0E94100E8993E5
:101CC000CE15DF05B9F710925D027894DF91CF91C0
:101CD0001F910F91FF90EF9008951F920F920FB6F2
:101CE0000F9211240BB60F921F932F933F934F9394
:101CF0005F936F937F938F939F93AF93BF93CF9394
:101D0000DF93EF93FF9380916C028F5F80936C025F
:101D1000833008F462C010926C0210916D02412F62
:101D200050E08091780090E0BA01660F771FEB01D8
:101D3000C952DF4E9983888388819981E091790027
:101D40003E2F337020E0822B932B998388838091E0
:101D5000490290914A02892BC9F0809147029091E3
:101D60004802892B99F0812F8550823008F47CC07D
:101D70008091F90E9091FA0E48175907A1F18091C0
:101D8000FB0E9091FC0E4817590769F11F5F183040
:101D900038F510936D0280917C00807E80937C00EA
:101DA00080917C0090916D02892B80937C00FF9143
:101DB000EF91DF91CF91BF91AF919F918F917F91E3
:101DC0006F915F914F913F912F911F910F900BBE9B
:101DD0000F900FBE0F901F9018958111E8CF9DCFE7
:101DE00010926D02D8CFEB01C952DF4E6881798124
:101DF000882777FD8095982F0E94D04D2DEC3CECE4
:101E00004CEC5FE30E94194F20E030E040E85AE3D9
:101E10000E94194F20915E0230915F024091600252
:101E2000509161020E94154F18160CF0AFCF6881D7
:101E30007981882777FD8095982F0E94D04D2DECD1
:101E40003CEC4CEC5FE30E94194F20E030E040E8AE
:101E50005AE30E94194F60935E0270935F02809371
:101E600060029093610292CF68817981882777FD23
:101E70008095982F0E94D04D2DEC3CEC4CEC5FE30C
:101E80000E94194F20E030E040E85AE30E94194FC9
:101E90002091620230916302409164025091650288
:101EA0000E94154F18160CF071CF68817981882730
:101EB00077FD8095982F0E94D04D2DEC3CEC4CEC9A
:101EC0005FE30E94194F20E030E040E85AE30E94AF
:101ED000194F60936202709363028093640290933F
:101EE000650254CF8F929F92AF92BF92CF92DF92B2
:101EF000EF92FF920F931F93CF93DF9384EC91E0C7
:101F0000E3E1FFE0DF019C011D9221503040E1F749
:101F100020E030E001E741E2842E41E3942E48E9DD
:101F2000A42E44E4B42E50E5C52E57E7D52E56ED29
:101F3000E52E5DE3F52E4FEF5FEFBA01CFEFDFEF58
:101F400010E883EF96E6AFEDBFE3029FF001039F39
:101F5000F00D1124ED5EF04F108211821282138277
:101F6000148285829682A782B086C186D286E38655
:101F7000F486158616861786108A128A118A148AA4
:101F8000138A158A168A178A108E118E138E128E56
:101F9000448F558F668F778FD1A3C0A312A386A3DA
:101FA00097A3A0A7B1A716A617A610AA11AA17AAA9
:101FB00016AA2F5F3F4F2330310539F686E194E0B2
:101FC0000E94100E813A69F0DF91CF911F910F911D
:101FD000FF90EF90DF90CF90BF90AF909F908F9049
:101FE000089544E050E062E672E087E194E00E94E8
:101FF000460E44E050E06EE572E08BE194E0DF9144
:10200000CF911F910F91FF90EF90DF90CF90BF90F5
:10201000AF909F908F900C94460E0F931F93CF9389
:10202000DF932BED3FE049EC50E40E94124E8B0110
:10203000D82FC92F2BED3FE049E450E4FE01712F6A
:102040008F2F9E2F0E94154F181674F42BED3FE032
:1020500049EC50E4FE01602F712F8F2F9E2F0E94BC
:10206000C94C8B01D82FC92F2BED3FE049E450EC30
:10207000FE01602F712F8F2F9C2F0E942E4D87FF06
:102080000EC02BED3FE049EC50E4FE01602F712FB4
:102090008F2F9C2F0E94CA4C8B01D82FC92F9E01D5
:1020A000602F712F832F9C2FDF91CF911F910F9164
:1020B00008952F923F924F925F926F927F928F92EC
:1020C0009F92AF92BF92CF92DF92EF92FF920F93C7
:1020D0001F93CF93DF93CDB7DEB728970FB6F89451
:1020E000DEBF0FBECDBF9C838B8380918002909119
:1020F0008102892B09F40DC18B819C81813091056E
:1021000009F4A6C00CF481C004970CF07EC0809145
:10211000F90E0E949F0A4B015C018091FB0E0E9408
:102120009F0A2B013C01C0905E02D0905F02E090BC
:102130006002F090610220E030E040E05FE3C70120
:10214000B6010E94194F68877F831C01762F6F812B
:10215000272F362F422D532DC501B4010E94C94CA3
:1021600069837A838C014B015C018091820290919A
:1021700083028130910509F491C1029709F467C285
:1021800020E030E04AEA53E4C501B4010E94194F4F
:10219000A70196010E94354D382F292F862F972FA2
:1021A000A32FB22FBC01CD0190582BED3FE049E4A5
:1021B00050E40E94194F20E030E044E353E40E94D1
:1021C000354D2091BC0F3091BD0F4091BE0F509105
:1021D000BF0F0E94CA4C28960FB6F894DEBF0FBE00
:1021E000CDBFDF91CF911F910F91FF90EF90DF90C6
:1021F000CF90BF90AF909F908F907F906F905F90A7
:102200004F903F902F900C940D100E942E0950E09B
:1022100040E030E82FEB652F742F832F922F289604
:102220000FB6F894DEBF0FBECDBFDF91CF911F91E7
:102230000F91FF90EF90DF90CF90BF90AF909F9065
:102240008F907F906F905F904F903F902F90089568
:1022500086E00E949F0A4B015C0185E00E949F0A74
:102260002B013C01C0906202D0906302E0906402B6
:10227000F090650220E030E040E05FE3C701B60186
:102280000E94194F68877F831C01762F6F81272F4B
:10229000362F422D532DC501B4010E94C94C6983CC
:1022A0007A838C014B015C018091800290918102C4
:1022B0008130910509F455C1029709F4D9C120E094
:1022C00030E04AEA53E4C501B4010E94194FA70166
:1022D00096010E94354D382F292F862F972FA32F37
:1022E000B22FBC01CD0190582BED3FE049E450E402
:1022F0000E94194F20E030E044E353E40E94354D42
:1023000020914B0F30914C0F40914D0F50914E0F3B
:1023100060CF86E00E949F0A6B017C0120E030E0E4
:1023200040E05FE360916202709163028091640219
:10233000909165020E94194F9B01AC01C701B60143
:102340000E94C94C1B018C012B013C0185E00E94BD
:102350009F0A6B017C0120E030E040E05FE3609188
:1023600062027091630280916402909165020E9402
:10237000194F9B01AC01C701B6010E94C94C862EC2
:10238000972EA82EB92E20E030E0A901B101C80196
:102390000E942E4D87FD56C120E030E0A901C50105
:1023A000B4010E942E4D87FD48C1A5019401C301CF
:1023B000B2010E942E4D87FD63C082E090E09093B1
:1023C0008102809380028091F90E0E949F0A6B0126
:1023D0007C0120E030E040E05FE360915E027091BC
:1023E0005F0280916002909161020E94194F9B01EF
:1023F000AC01C701B6010E94C94C1B018C012B0125
:102400003C018091FB0E0E949F0A6B017C0120E041
:1024100030E040E05FE360915E0270915F02809186
:102420006002909161020E94194F9B01AC01C701AB
:10243000B6010E94C94C862E972EA82EB92E20E0F8
:1024400030E0A901B101C8010E942E4D87FDF0C006
:1024500020E030E0A901C501B4010E942E4D87FDA6
:10246000E2C0A5019401C301B2010E942E4D87FF75
:102470000EC081E090E090938302809382023CCE74
:1024800081E090E090938102809380029CCF82E073
:1024900090E090938302809382022ECE20E030E081
:1024A000A901C8010E942E4D87FD29C189819A8109
:1024B000D8018B839C83AD83BE8326E636E646E651
:1024C0005FE3B885AF816B2F7A2F822D932D0E9409
:1024D000194F69837A83182F092F762F6A81C801D3
:1024E000272F362F492F582F6B817C818D819E811C
:1024F0000E94154F18160CF043CE82E090E09093A6
:1025000083028093820278856F81272F362F422D98
:10251000532DC301B2010E94C94C1B018F839B83C1
:102520002B013C0120E030E0A9010E942E4D87FDE7
:10253000DAC0C101AF81BB81BC01CD01B981AA81E3
:10254000F8012B2F3A2F4F2F502F0E94154F18169E
:102550000CF0B2C081E090E09093830280938202FD
:102560000FCE20E030E0A901C8010E942E4D87FD6A
:10257000BEC089819A81D8018B839C83AD83BE8341
:1025800026E636E646E65FE3B885AF816B2F7A2F05
:10259000822D932D0E94194F69837A83182F092F5A
:1025A000762F6A81C801272F362F492F582F6B812C
:1025B0007C818D819E810E94154F18160CF07FCE74
:1025C00082E090E0909381028093800278856F8111
:1025D000272F362F422D532DC301B2010E94C94C23
:1025E0001B018F839B832B013C0120E030E0A9017C
:1025F0000E942E4D87FD73C0C101AF81BB81BC011C
:10260000CD01B981AA81F8012B2F3A2F4F2F502FDE
:102610000E94154F1816ECF581E090E0909381022E
:10262000809380024CCEB7FAB094B7F8B09419CF2B
:1026300077FA709477F870940BCFB7FAB094B7F834
:10264000B094B3CE77FA709477F87094A5CE26E65E
:1026500036E646E65FE3B885AF816B2F7A2F822D91
:10266000932D0E94194F69837A83182F092F4BCF1E
:1026700026E636E646E65FE3B885AF816B2F7A2F14
:10268000822D932D0E94194F69837A83182F092F69
:102690009DCF20E030E04AEA53E4C301B2010E943A
:1026A000194FA70196010E94354D20E030E044E328
:1026B00053E40E94CA4C0FCE20E030E04AEA53E4D3
:1026C000C301B2010E94194FA70196010E94354D26
:1026D00020E030E044E353E40E94CA4C5DCDC301E6
:1026E000B20190588ECFC301B201905827CFD501C7
:1026F000C401B0588B839C83AD83BE8341CFD50189
:10270000C401B0588B839C83AD83BE83D6CE209109
:10271000F60D2230F9F0233019F1019721E7289FB7
:10272000F001299FF00D1124ED5EF04F82E08083CF
:102730004183528363837483128A118A8DE491E00A
:10274000A0E0B0E0848F958FA68FB78F20E030E0B7
:10275000C90108958230910501F72FEF3FEFF8CFBF
:1027600083309105D1F6F9CF2F923F924F925F922D
:102770006F927F928F929F92AF92BF92CF92DF9291
:10278000EF92FF920F931F93CF93DF93CDB7DEB7F6
:102790002A970FB6F894DEBF0FBECDBF5C012A01A9
:1027A0003B01680179018C010150110981E7809F8B
:1027B000F001819FF00D1124ED5EF04F8CE29CEE54
:1027C000AAECB3E485839683A783B087118612862B
:1027D000138614869090F60D22E0921609F4F3C049
:1027E00083E0981609F4F7C020E030E0A901C701A2
:1027F000B6010E942E4D882309F4B9C081E7809F5D
:10280000D001819FB00D1124AD5EB04FBA87A9876A
:10281000D2968D919D910D90BC91A02D89839A8324
:10282000AB83BC839C01AD01C301B2010E94C94CC2
:10283000362E872E8C0120E030E0A901912F0E94D6
:102840002E4D87FD97C023EC38EB42E35EE3632D0A
:10285000782D802F912F0E942E4D87FD98C020E06B
:1028600030E0A901C701B6010E942E4D87FDC3C00B
:10287000A7019601632D782D802F912F0E94354D51
:1028800020E030E04AE754E40E94194F262E972EAC
:102890005C0120E030E0A901632D782D802F912F7D
:1028A0000E94154F18160CF0D4C0A985BA859E96C3
:1028B000CD92DD92ED92FC92D19789819A81AB8184
:1028C000BC81E985FA8581839283A383B4831586CD
:1028D00016861786108A20E030E040E751E4622D2A
:1028E000792D8A2D9B2D0E94354D5B018C016B014A
:1028F0007C0120E030E0A9010E942E4D87FDA3C09D
:10290000B501C8010E949D4DCB01AA2797FDA09556
:10291000BA2FE985FA85848F958FA68FB78F128A93
:10292000118A468A578A608E718E81E090E0938F7B
:10293000828F83E0808320E030E0C9012A960FB6C1
:10294000F894DEBF0FBECDBFDF91CF911F910F91E5
:10295000FF90EF90DF90CF90BF90AF909F908F90BF
:102960007F906F905F904F903F902F90089520E060
:1029700030E0E3CF23EC38EB42E35EEB632D782DC0
:10298000802F912F0E94154F18160CF068CFB2E0DF
:102990009B1661F1F3E09F1621F182E0A985BA85CB
:1029A0008C93FD014182528263827482128A118A61
:1029B0008DE491E0A0E0B0E0848F958FA68FB78F73
:1029C00020E030E0BACF32E0A316B10409F00CCF1A
:1029D0002FEF3FEFB2CF93E0A916B10409F004CF77
:1029E000F7CF23E0A216B104C1F6F2CFE2E0AE16B3
:1029F000B10499F6EDCFD701C601B0588D839E83FF
:102A0000AF83B8879C01AD01632D782D802F912F66
:102A10000E94354D20E030E04AE754E40E94194F0F
:102A2000262E972E5C0120E030E0A901632D782D41
:102A3000802F912F0E94154F18167CF4CD80DE80D8
:102A4000EF80F88432CFC701B60190580E949D4DA7
:102A50005BCFF7FAF094F7F8F094E985FA85C6A60B
:102A6000D7A6E0AAF1AA29CF2F923F924F925F9268
:102A70006F927F928F929F92AF92BF92CF92DF928E
:102A8000EF92FF920F931F93CF93DF93CDB7DEB7F3
:102A90002A970FB6F894DEBF0FBECDBF5C012A01A6
:102AA0003B01680179018C010150110981E7809F88
:102AB000F001819FF00D1124ED5EF04F8CE29CEE51
:102AC000AAECB3E485839683A783B0871186128628
:102AD000138614869090F60D22E0921609F40BC12D
:102AE00083E0981609F40FC120E030E0A901C70186
:102AF000B6010E942E4D882309F4D1C081E7809F42
:102B0000D001819FB00D1124AD5EB04FBA87A98767
:102B1000D2968D919D910D90BC91A02D89839A8321
:102B2000AB83BC83E985FA8566A977A9882777FDF9
:102B30008095982F0E94D04D2BED3FE049EC50E45A
:102B40000E94194F9B01AC0169817A818B819C8124
:102B50000E94CA4C9B01AC01C301B2010E94C94C46
:102B6000362E872E8C0120E030E0A901912F0E94A3
:102B70002E4D87FD97C023EC38EB42E35EE3632DD7
:102B8000782D802F912F0E942E4D87FD98C020E038
:102B900030E0A901C701B6010E942E4D87FDC3C0D8
:102BA000A7019601632D782D802F912F0E94354D1E
:102BB00020E030E04AE754E40E94194F262E972E79
:102BC0005C0120E030E0A901632D782D802F912F4A
:102BD0000E94154F18160CF0D4C0A985BA859E9690
:102BE000CD92DD92ED92FC92D19789819A81AB8151
:102BF000BC81E985FA8581839283A383B48315869A
:102C000016861786108A20E030E040E751E4622DF6
:102C1000792D8A2D9B2D0E94354D5B018C016B0116
:102C20007C0120E030E0A9010E942E4D87FDA3C069
:102C3000B501C8010E949D4DCB01AA2797FDA09523
:102C4000BA2FE985FA85848F958FA68FB78F128A60
:102C5000118A468A578A608E718E81E090E0938F48
:102C6000828F83E0808320E030E0C9012A960FB68E
:102C7000F894DEBF0FBECDBFDF91CF911F910F91B2
:102C8000FF90EF90DF90CF90BF90AF909F908F908C
:102C90007F906F905F904F903F902F90089520E02D
:102CA00030E0E3CF23EC38EB42E35EEB632D782D8D
:102CB000802F912F0E94154F18160CF068CFF2E06C
:102CC0009F1661F133E0931621F182E0A985BA8560
:102CD0008C93FD014182528263827482128A118A2E
:102CE0008DE491E0A0E0B0E0848F958FA68FB78F40
:102CF00020E030E0BACF32E0A316B10409F0F4CE00
:102D00002FEF3FEFB2CF93E0A916B10409F0ECCE5C
:102D1000F7CF83E0A816B104C1F6F2CF22E0A216E5
:102D2000B10499F6EDCFD701C601B0588D839E83CB
:102D3000AF83B8879C01AD01632D782D802F912F33
:102D40000E94354D20E030E04AE754E40E94194FDC
:102D5000262E972E5C0120E030E0A901632D782D0E
:102D6000802F912F0E94154F18167CF4CD80DE80A5
:102D7000EF80F88432CFC701B60190580E949D4D74
:102D80005BCFF7FAF094F7F8F094E985FA85C6A6D8
:102D9000D7A6E0AAF1AA29CF2F923F924F925F9235
:102DA0006F927F928F929F92AF92BF92CF92DF925B
:102DB000EF92FF920F931F93CF93DF93CDB7DEB7C0
:102DC0002A970FB6F894DEBF0FBECDBF1C012A01B3
:102DD0003B0148015901019721E7289FF001299FF4
:102DE000F00D1124ED5EF04F4CE25CEE6AEC73E402
:102DF00045835683678370871186128613861486EF
:102E00001091F60D123009F4DEC0133009F4E3C05E
:102E100021E7289FD001299FB00D1124AD5EB04F4E
:102E2000BA87A987D2968D919D910D90BC91A02DC6
:102E300089839A83AB83BC839C01AD01C301B2013A
:102E40000E94C94C0E940D106B017C0120E030E013
:102E5000A9010E942E4D87FD8FC023EC38EB42E381
:102E60005EE3C701B6010E942E4D87FD90C020E0B1
:102E700030E0A901C501B4010E942E4D87FDB1C00B
:102E8000A5019401C701B6010E94354D20E030E054
:102E90004AE754E40E94194F262E072F182F392E87
:102EA00020E030E0A901C701B6010E94154F1816B5
:102EB0000CF0C9C0A985BA859E968D929D92AD925F
:102EC000BC92D19789819A81AB81BC81E985FA85D1
:102ED00081839283A383B483158616861786108A0E
:102EE00020E030E040E751E4622D702F812F932DD8
:102EF0000E94354D5B018C016B017C0120E030E0CC
:102F0000A9010E942E4D87FD97C0B501C8010E94FE
:102F10009D4DCB01AA2797FDA095BA2FE985FA858B
:102F2000848F958FA68FB78F128A118A468A578A07
:102F3000608E718E81E090E0938F828F83E080833A
:102F400020E030E0C9012A960FB6F894DEBF0FBE2C
:102F5000CDBFDF91CF911F910F91FF90EF90DF9048
:102F6000CF90BF90AF909F908F907F906F905F9029
:102F70004F903F902F90089523EC38EB42E35EEBA7
:102F8000C701B6010E94154F18160CF070CF123011
:102F900009F44CC0133009F461C082E0A985BA85F8
:102FA0008C93FD014182528263827482128A118A5B
:102FB0008DE491E0A0E0B0E0848F958FA68FB78F6D
:102FC00020E030E0BFCF22E02216310409F020CF0C
:102FD0002FEF3FEFB7CF43E02416310409F018CFAD
:102FE000F7CFD501C401B0588D839E83AF83B887D6
:102FF0009C01AD01C701B6010E94354D20E030E0D3
:103000004AE754E40E94194F262E072F182F392E15
:1030100020E030E0A901C701B6010E94154F181643
:10302000B4F48D809E80AF80B88444CFB2E02B167C
:10303000310409F0B2CFCCCFC701B60190580E943D
:103040009D4DCB0167CFB7FAB094B7F8B094E9853E
:10305000FA8586A697A6A0AAB1AA34CFE3E02E16D9
:10306000310409F09ACFB4CF2091F60D223049F106
:10307000233091F1019721E7289FF001299FF00D5E
:103080001124ED5EF04F2081223001F1233021F038
:10309000213011F080E0089521E7289FF001299F59
:1030A000F00D1124ED5EF04F20E030E0A90166A59F
:1030B00077A580A991A90E94154F18168CF481E07C
:1030C000089582309105B1F68FEF08958189928934
:1030D000892BA9F383E008958330910559F6F4CF45
:1030E00082E008956235A9F0633581F0663459F0C5
:1030F000A098A19820E1829FC0011124909389009B
:10310000809388000895A09AA198F4CFA09AA19ADC
:10311000F1CFA098A19AEECF6235A9F0633581F086
:10312000663459F0A298A59820E1829FC00111242D
:1031300090938B0080938A000895A29AA598F4CF6B
:10314000A29AA59AF1CFA298A59AEECF0F931F93BA
:103150008A019B0177FD28C0F8010F3F110519F086
:1031600010F0EFEFF0E08130910591F074F00497EA
:1031700064F477FD33C0452B462B472BE9F066E41A
:103180008E2F1F910F910C948C181F910F91089501
:1031900077FD1EC0452B462B472BA1F066E48E2FF2
:1031A0001F910F910C947218002711279801041B8E
:1031B000150B260B370BD0CF6EE48E2F1F910F917E
:1031C0000C948C186EE48E2F1F910F910C94721832
:1031D00062E58E2F1F910F910C94721862E58E2F6D
:1031E0001F910F910C948C18CF93DF939C01215069
:1031F000310941E7429FE001439FD00D1124CD5E8C
:10320000D04F4D89413061F14230E1F0442309F45F
:1032100071C0433011F54881423009F463C0433036
:1032200009F470C041E7429FF001439FF00D112463
:10323000ED5EF04F42A953A964A975A9DF91CF9122
:103240000C94871320E030E0A9016EA17FA188A52E
:1032500099A50E942E4D81112AC0DF91CF9108952A
:1032600020E030E0A9016EA17FA188A599A50E9468
:103270002E4D882391F383E088838FEF9FEFDC014D
:103280008C8F9D8FAE8FBF8F8AA99BA9ACA9BDA93A
:1032900089839A83AB83BC838EA19FA1A8A5B9A57E
:1032A0008EA79FA7A8ABB9ABDF91CF91089583E01C
:1032B00088838FEF9FEFDC018C8F9D8FAE8FBF8F48
:1032C0008AA99BA9ACA9BDA989839A83AB83BC8336
:1032D0008EA19FA1A8A5B9A5B0588EA79FA7A8ABFE
:1032E000B9ABBBCF49895A89452B09F49BCF1C8ABE
:1032F0001B8AB3CF188240E050E0BA01DF91CF9132
:103300000C94A61849815A816B817C81DF91CF9101
:103310000C9487132F923F924F925F926F927F92FD
:103320008F929F92AF92BF92CF92DF92EF92FF92D5
:103330000F931F93CF93DF93CDB7DEB7A9970FB647
:10334000F894DEBF0FBECDBF21E43FE03A87298766
:1033500073E1472E7FE0572EE0E76E2EE2E07E2EEF
:1033600085E39FE09E8B8D8BAFE4BFE0BC87AB878E
:10337000F5E42F2EFFE03F2EE3E3FFE0FA8BE98B2D
:1033800028E23FE0388B2F8788E79FE0988F8F8B6C
:10339000A0E7BFE0BA8FA98FEAE5FFE0FE87ED87DF
:1033A00020E53FE03C8B2B8B89E49FE098878F835F
:1033B000A2E0B0E0BE83AD83812C912C3DA22CA273
:1033C00012012401FFEF4F1A5F0A0E948C4980917D
:1033D000F60D823009F4FBC1D1011596CD90DD9038
:1033E000ED90FC90189721E231E348E954E4C701DD
:1033F000B6010E942E4D87FF0DC02FE33EEC42E444
:1034000051E4C701B6010E94CA4CF101658376837D
:1034100087839087D1011996CD90DD90ED90FC9037
:103420001C9720E537E746ED5DE3C701B6010E9432
:103430002E4D87FF0DC02FE132E449E85AE3C70162
:10344000B6010E94CA4CF101618772878387948715
:10345000C2010E9459105B018C01862F9B2DA02F69
:10346000B12FECA1FDA180839183A283B38364017A
:103470007F0179A268A27A2C6B2C1FC080916E020A
:1034800090916F020B97BCF5C2010E945910762EE5
:10349000672E8C01A301852F942FA02FB12FF70148
:1034A00080839183A283B38380916E0290916F0297
:1034B000019690936F0280936E02A8A1B9A18D919D
:1034C0009D910D90BC91A02D89839A83AB83BC8381
:1034D0009C01AD01D3016B2F762D802F912F0E947F
:1034E000C94C0E940D1023EC38EB42E35EE30E94CE
:1034F000154F18161CF24601A72CB62C68A079A00F
:10350000FDA2ECA2C980DA80EB80FC8010926F02F1
:1035100010926E0220E030E040E250EC6A2D7B2DEC
:10352000802F912F0E942E4D87FF0FC120E030E0A9
:1035300040E250E4C701B6010E94154F18160CF086
:1035400004C1EF81F8858081918101969183808308
:10355000ACA1BDA1AC901196BC90119712960C91A4
:10356000129713961C918A2D9B2DA02FB12FF3013A
:1035700080839183A283B383D1018C91833009F43A
:103580005CC308F0FFC0813009F43FC308F068C095
:10359000F101848D958DA68DB78D0097A105B1059C
:1035A00009F461C40CF4F5C00197A109B109F10156
:1035B000848F958FA68FB78FED81FE81349709F4A4
:1035C000EDC0ED81FE813196FE83ED8329853A853C
:1035D0002F583F4F3A87298731E7230E311C84E06B
:1035E000680E711CAD89BE89AF58BF4FBE8BAD8BC5
:1035F000EB85FC85EF58FF4FFC87EB872CA13DA1A5
:103600002F583F4F3DA32CA389899A898F589F4FEC
:103610009A8B898BAF85B889AF58BF4FB88BAF876E
:10362000EF89F88DEF58FF4FF88FEF8B298D3A8D8A
:103630002F583F4F3A8F298F8D859E858F589F4FEA
:103640009E878D87AB89BC89AF58BF4FBC8BAB8B36
:10365000EF81F885EF58FF4FF887EF834201B1CE35
:10366000F101848D958DA68DB78D0097A105B105CB
:1036700009F495C19CF00197A109B109F101848F6A
:10368000958FA68FB78FACA1BDA1AC901196BC90C1
:10369000119712960C91129713961C912A2D3B2D7F
:1036A000402F512FF10161817281838194810E94A9
:1036B000C94C0E940D106B017C0120E030E0A90193
:1036C0000E942E4D87FDA5C323EC38EB42EB5DE352
:1036D000C701B6010E942E4D87FDA6C3D1015196A8
:1036E0008D919C915297892B09F467C120E030E0BD
:1036F000A901C701B6010E942E4D87FD7AC4C701FA
:10370000B601209168023091690240916A0250919D
:103710006B020E94154F18160CF04FC1EB85FC850B
:1037200020812F5F208330E08091660290916702B4
:103730008217930708F044C1D1011C9240E050E089
:10374000BA01C2010E94A61824C020E030E040E285
:1037500050E46A2D7B2D802F912F0E94154F181653
:103760000CF001CF20E030E040E250ECC701B601A0
:103770000E942E4D87FFF7CEEF81F88580819181E1
:103780000197E4CE853009F484C138F1863009F41C
:1037900055C1ED81FE81349709F013CFA9960FB67C
:1037A000F894DEBF0FBECDBFDF91CF911F910F9177
:1037B000FF90EF90DF90CF90BF90AF909F908F9051
:1037C0007F906F905F904F903F902F90089522E0F0
:1037D0004216510409F000CEF4CE6091510270916E
:1037E000520280915302909154020E94CE4D20E0EB
:1037F00030E04AE754E40E94354D69837B8F8C8F1B
:103800009D8FAB89BC896C91772767FD7095872F59
:10381000972F0E94D04D20E030E040E05CE30E9412
:10382000194F20E030E040EA50E40E94194F20E0B8
:1038300030E040E05FE30E94194F6B015C01B1E7AB
:10384000B89D8001B99D100D11240A5A104FEE2425
:10385000E394F12C39A228A27BA26AA2F9A6E8A6D9
:103860005FA24EA25C2C4D2C382E2B2C7801E8A5A3
:10387000F9A5BF01882777FD8095982F0E94D04D2C
:103880002BED3FE049EC50E40E94194FB981AB8D1C
:10389000EC8DDD8C2B2F3A2F4E2F5D2D0E94194F72
:1038A00020E030E040E251E40E94354D5B016C01C4
:1038B0007B2D9D2D0E947C4F3B014C01F8013597DB
:1038C0006081772767FD7095872F972F0E94D04DD5
:1038D00020E030E040E05CE30E94194F20E030E05F
:1038E00040EA50E40E94194FA40193010E94194F2D
:1038F000D201F1012B2F342D4F2F522D0E94CA4C93
:103900001B013C010F5F1F4F6A2D7B2D8C2D9D2DC0
:103910000E94324D4B015C01D7016C91772767FD06
:103920007095872F972F0E94D04D20E030E040E027
:103930005CE30E94194F20E030E040EA50E40E942E
:10394000194FA50194010E94194F222D332D462DA8
:10395000572D0E94CA4C562E472E382E292EE8A5E8
:10396000F9A53196F9A7E8A7359709F07FCF6AA0A6
:103970007BA0D72E4EA05FA0A82EB92E28A039A0DC
:10398000862F9D2DAA2DBB2DF10181839283A383C8
:10399000B483128A118A8FEF9FEFDC0170CE818988
:1039A0009289892B09F457C28FEF9FEFDC01F10157
:1039B000848F958FA68FB78FECCEEB85FC85108218
:1039C000D10115962D913D914D915C911897C701AC
:1039D000B6010E94194F4B015C01F1012585368526
:1039E0004785508961857285838594850E94194F2A
:1039F0009B01AC01C501B4010E94CA4C0E949D4DBF
:103A0000AB01BC01C2010E94A6182FE832EC45E7C9
:103A10005CE3C701B6010E94194F9B01AC01D101C3
:103A20001D966D917D918D919C9150970E94CA4CED
:103A3000F101658776878787908BABCEAD85BE8594
:103A40002C91213009F421C2223009F4C3C1211183
:103A5000A0CE8091510290915202A0915302B09158
:103A60005402EF89F88D40815181628173818417FE
:103A70009507A607B70708F4C0C2F101E85BFF4F3E
:103A80008081882309F4B0C2E2E0AD85BE85EC9365
:103A900080CEF101848D958DA68DB78D0097A105FF
:103AA000B10509F48DC1181619061A061B0644F44F
:103AB0000197A109B109F101848F958FA68FB78F66
:103AC0002FE832EC45E75CE3A985BA856D917D91DD
:103AD0008D919C910E94194FF10121813281438186
:103AE00054810E94CA4C062F172F282F392FD1013D
:103AF00011960D931D932D933C931497ECA1FDA16A
:103B000020813181428153810E94C94C0E940D1055
:103B10006B017C01D10115962D913D914D915C91E8
:103B200018970E94194F4B015C01F10125853685DC
:103B30004785508961857285838594850E94194FD8
:103B40009B01AC01C501B4010E94CA4C0E949D4D6D
:103B5000AB01BC01C2010E94A6182FE832EC45E778
:103B60005CE3C701B6010E94194F9B01AC01D10172
:103B70001D966D917D918D919C9150970E94CA4C9C
:103B8000F101658776878787908B2FE832EC45E7D0
:103B90005CE362A573A584A595A50E94194FA9852C
:103BA000BA852D913D914D915C910E94CA4C7B014B
:103BB0008C0122E93AE046E850E47F2D912F0E94E3
:103BC000154F18160CF4F1C08E2D9F2DA02FB12F7C
:103BD000E985FA8580839183A283B38322E93AE061
:103BE00046E850EC6E2D7F2D802F912F0E942E4D98
:103BF00087FFCFCD82E99AE0A6E8B0ECE985FA85A7
:103C000080839183A283B383C4CDAF85B8898C911F
:103C1000882309F4C7C0813009F4D7C1ED89FE8932
:103C2000408150E0519541955109662757FD6095B7
:103C3000762FC2010E94A618ACCDF101848D958D1E
:103C4000A68DB78D0097A105B105F1F521E030E013
:103C5000328B218BD101158616861786108AE98949
:103C6000FA8980819181892B09F466C1E2E0D10152
:103C7000EC935A968D919C915B97892B69F056969F
:103C80008D919D910D90BC91A02DF1018183928326
:103C9000A383B483138E128EEFEFFFEFA989BA8945
:103CA000ED93FC93D10153968D919C915497892B60
:103CB00009F47ACE82E490E0A0E0B0E0F101848FD4
:103CC000958FA68FB78F65CD181619061A061B0695
:103CD00044F40197A109B109F101848F958FA68F52
:103CE000B78F2FE832EC45E75CE3A985BA856D9183
:103CF0007D918D919C910E94194FF101218132811A
:103D0000438154810E94CA4C062F172F282F392F28
:103D1000D10111960D931D932D933C931497ECA113
:103D2000FDA120813181428153810E94C94C0E94B2
:103D30000D106B017C0120E030E0A9010E942E4DA6
:103D40004601570187FD4BC160916802709169027D
:103D500080916A0290916B029B01AC010E94CA4C57
:103D60009B01AC01C501B4010E94154FAB85BC8518
:103D700018160CF0E9C02C912F5F2C9330E0809145
:103D80006602909167028217930708F002CDF10155
:103D90001082138E128E40E050E0BA01C2010E94E0
:103DA000A618F7CCF1011082F4CC82E99AE0A6E8DB
:103DB000B0E4E985FA8580839183A283B383E9CC5B
:103DC0008FEF9FEFDC01848F958FA68FB78F23E055
:103DD000208369CE8091510290915202A0915302AA
:103DE000B0915402F101E359FF4F4081518162814A
:103DF000738184179507A607B70708F45BC1F10123
:103E000020838FEF9FEFDC01848F958FA68FB78F74
:103E1000C0CC23EC38EB42EB5DEBC701B6010E944E
:103E2000154F18160CF05ACCE1E0F0E0D101529693
:103E3000FC93EE93519753968D919C915497892BB7
:103E400009F07BCC8FEF9FEFDC01F101848F958F20
:103E5000A68FB78F43CC108240E050E0BA01C20178
:103E60000E94A61896CCA989BA898C91EF85F88909
:103E70008083C2010E94F4188FEF9FEFDC01F101F3
:103E8000848F958FA68FB78F84CC809151029091AB
:103E90005202A0915302B0915402F101E759FF4F31
:103EA000408151816281738184179507A607B70706
:103EB00008F0EACD60915102709152028091530254
:103EC000909154028101035B1F4FAF89B88DCD9053
:103ED000DD90ED90FC906C197D098E099F090E9480
:103EE000CE4D20E030E04AE754E40E94354DE98DA4
:103EF000FA8D20813181428153810E94194FD8016E
:103F00002D913D914D915C910E94CA4C062F172F27
:103F1000282F392FF1010183128323833483ACA12D
:103F2000BDA12D913D914D915C910E94C94C0E9483
:103F30000D106B017C0109C01C9240E050E0BA01F9
:103F4000C2010E94A618A8CE1C92F10125813681DB
:103F500047815085C701B6010E94194F4B015C0192
:103F6000D1011D962D913D914D915C9150971996DF
:103F70006D917D918D919C911C970E94194F9B0191
:103F8000AC01C501B4010E94CA4C0E949D4DAB0119
:103F9000BC01C2010E94A6182FE832EC45E75CE3A1
:103FA000C701B6010E94194F9B01AC01F101658563
:103FB0007685878590890E94CA4CD1011D966D93A4
:103FC0007D938D939C935097E4CBAD89BE894C91A2
:103FD00050E060E070E0C2010E94A618DACBB7FAA8
:103FE000B094B7F8B094B0CEE1E0AD85BE85EC9367
:103FF000D0CBC701B601905884CB6091510270912B
:1040000052028091530290915402F101EF59FF4FF7
:104010000081118122813381601B710B820B930B14
:104020000E94CE4D20E030E04AE754E40E94354D36
:10403000162F072FF82EE92EF101EB5AFF4F2081A2
:10404000318142815381D801F7016B2F7A2F8F2F55
:104050009E2F0E94194FD801F7012B2F3A2F4F2F77
:104060005E2F0E94194F20E030E040E05FE30E94A5
:10407000194FF101E75BFF4F20813181428153816C
:104080000E94CA4C062F172F282F392FD1011196C5
:104090000D931D932D933C931497ECA1FDA12081CA
:1040A0003181428153810E94C94C0E940D106B01E5
:1040B0007C0186CC60915102709152028091530232
:1040C00090915402F101E759FF4F00811181228143
:1040D0003381601B710B820B930B0E94CE4D20E04D
:1040E00030E04AE754E40E94354D162F072FB82ED2
:1040F000A92EF101E75AFF4F20813181428153817E
:10410000D801F5016B2F7A2F8F2F9E2F0E94194F08
:10411000D801F5012B2F3A2F4F2F5E2F0E94194FF8
:1041200020E030E040E05FE30E94194F6B017C012A
:10413000A98DBA8D2D913D914D915C91D801F501DC
:104140006B2F7A2F8F2F9E2F0E94194F9B01AC014E
:10415000C701B6010E94CA4CF101EF5AFF4F2081FE
:10416000318142815381D0CE10929D021092130F63
:104170001092840F1092F50F6EE480E00E94721886
:104180006EE480E00C948C18019721E7289FF001E1
:10419000299FF00D1124ED5EF04F8CE29CEEAAEC0D
:1041A000B3E485839683A783B0871186128613862E
:1041B000148608957F928F929F92AF92BF92CF9272
:1041C000DF92EF92FF920F931F93CF93DF9300D074
:1041D00000D0CDB7DEB780E190E00E94100E813AAA
:1041E00009F444C0ABE4CA2EAFE0DA2EE12CF12C86
:1041F00001E010E0C8010E945910DC01CB01B05869
:1042000089839A83AB83BC83F60180839183A283E5
:10421000B38344E050E0BE016F5F7F4FC7010E944F
:10422000210E0F5F1F4FF1E7CF0ED11C84E0E80E87
:10423000F11C04301105F1F661EA80E190E00E9482
:10424000E20D21E030E0C9010F900F900F900F9028
:10425000DF91CF911F910F91FF90EF90DF90CF9062
:10426000BF90AF909F908F907F900895BBE4AB2E4E
:10427000BFE0BB2E812C912C00E010E081E7782E6E
:10428000709EB001719E700D1124655B704F44E00B
:1042900050E0C4010E94460EF501C080D180E2804A
:1042A000F38020E030E040E450E4C701B6010E9412
:1042B0002E4D87FF0AC020E030E040E450ECC701FB
:1042C000B6010E94154F18162CF0F50110821182CC
:1042D000128213820F5F1F4FF4E08F0E911C81E753
:1042E000A80EB11C0430110559F620E030E0ABCF28
:1042F00010924B0F10924C0F10924D0F10924E0FC8
:104300001092BC0F1092BD0F1092BE0F1092BF0FF3
:1043100010922D1010922E1010922F10109230101B
:1043200060EA80E190E00E94E20D0E94DA2080E0E5
:1043300090E008956091F60DE3E1FFE081E090E008
:1043400020E030E0623099F06330A9F040814423EE
:1043500021F041895289452BA9F08330910571F0F4
:104360002F5F3F4F0196EF58FF4F623069F72130C2
:10437000310561F7F5CF2230310541F720E030E01B
:10438000C901089521E030E0FBCF2F923F924F9278
:104390005F926F927F928F929F92AF92BF92CF92D5
:1043A000DF92EF92FF920F931F93CF93DF93CDB7DE
:1043B000DEB76C970FB6F894DEBF0FBECDBF3C01E1
:1043C0001A012B0109831A832B833C8320E030E000
:1043D000A901C201B1010E942E4D87FDEBC320E06F
:1043E00030E0A90169817A818B819C810E942E4DE8
:1043F00087FDD6C320E030E0A901C701B6010E94C5
:104400002E4D87FDC8C3C30101979A87898781E72D
:10441000A985BA858A9F80018B9F100D11240D5E9E
:10442000104FF80122A933A944A955A9C501B40127
:104430000E94C94C862EB72E982EA92E862F9B2D12
:10444000A92DBA2D8D839E83AF83B887A2019101D8
:10445000C701B6010E94354D6B877C878D879E878B
:1044600029813A814B815C81C701B6010E94354D9B
:104470006D8B7E8B8F8B988FD80152961C921E92DB
:10448000519720E030E0A901682D7B2D892D9A2DD0
:104490000E942E4D87FD8FC17B856C859D858E8505
:1044A000272F362F492F582FC701B6010E94194FC9
:1044B00020E030E040E05FE30E94194F6F87788B87
:1044C000682E998B7D896E899F89888D272F362F3D
:1044D000492F582FC701B6010E94194F20E030E044
:1044E00040E05FE30E94194F6A8B772E8B8B9C8B89
:1044F000762F982F8C89272F372D492F582FBF853E
:10450000A889E9896B2F7A2F862D9E2F0E94CA4C8D
:104510009B01AC01682D7B2D892D9A2D0E942E4D7B
:1045200087FF98C1882D9B2DA92DBA2D898F9A8F31
:10453000AB8FBC8FA2019101C201B1010E94CA4C94
:104540009B01AC0160E070E080E89FE30E94354D84
:104550004B015C0129813A814B815C81CA01B9011F
:104560000E94CA4C9B01AC0160E070E080E89FE3D0
:104570000E94354D9B01AC01C501B4010E94CA4C9B
:104580009B01AC01698D7A8D8B8D9C8D0E94354D80
:104590000E94864F6B017C01A20191010E94354D62
:1045A000B62EA72E982E892E29813A814B815C81C7
:1045B000C701B6010E94354D762E672E8B879C87EA
:1045C00081E7A985BA858A9F80018B9F100D1124F0
:1045D0000D5E104FF80116A617A610AA11AAE95BE6
:1045E000FF4F10826D817E818F8198850E94B80D6A
:1045F0009801235A3F4F3A872987A70196010E94C5
:10460000194FA985BA856D937D938D939C931397CC
:104610006D817E818F8198850E94B80D9B01AC01D0
:104620007801B5E5EB0EF11CC201B1010E94194FF2
:10463000F70160837183828393836D817E818F8193
:1046400098850E94B80D9B01AC017801F9E5EF0E49
:10465000F11C69817A818B819C810E94194FDC0158
:10466000CB01B058F70180839183A283B38386E0A6
:10467000D8018C938FEF9FEFDC01F801848F958F29
:10468000A68FB78FE85BFF4F81E08083F80182A996
:1046900093A9A4A9B5A981839283A383B483E75B7B
:1046A000FF4F80839183A283B383809151029091C5
:1046B0005202A0915302B0915402F801EF59FF4FFA
:1046C00080839183A283B38320E030E04AE754E4FF
:1046D000D501F4016B2F7A2F8F2F9E2F0E94194F37
:1046E0005B016C0160915102709152028091530202
:1046F000909154027801F5E6EF0EF11C0E94CE4D28
:104700009B01AC016A2D7B2D8C2D9D2D0E94CA4CE6
:104710000E94A24DD7016D937D938D939C93139727
:104720002090510230905202409053025090540217
:1047300003591F4F20E030E04AE754E4D301FB85E2
:10474000EC856B2F7A2F8F2F9E2F0E94194F9B0184
:10475000AC016A2D7B2D8C2D9D2D0E94CA4C6B01C6
:104760007C01C201B1010E94CE4D9B01AC01C70189
:10477000B6010E94CA4C0E94A24DF8016083718369
:10478000828393836C960FB6F894DEBF0FBECDBFC5
:10479000DF91CF911F910F91FF90EF90DF90CF901D
:1047A000BF90AF909F908F907F906F905F904F9051
:1047B0003F902F9008956D817E818F8198859058CC
:1047C000698F7A8F8B8F9C8F7B856C859D858E857D
:1047D000272F362F492F582FC701B6010E94194F96
:1047E00020E030E040E05FE30E94194F6F87788B54
:1047F000682E998B7D896E899F89888D272F362F0A
:10480000492F582FC701B6010E94194F20E030E010
:1048100040E05FE30E94194F6A8B772E8B8B9C8B55
:10482000762F982F8C89272F372D492F582FBF850A
:10483000A889E9896B2F7A2F862D9E2F0E94CA4C5A
:104840009B01AC01698D7A8D8B8D9C8D0E942E4DC4
:1048500087FD70CE81E729853A85829F5001839F2D
:10486000B00C112463E17FE0A60EB71ED5019E9621
:104870001D921D921D921C92D197F501E95BFF4F8D
:1048800010826D817E818F8198850E94B80D9B0179
:10489000AC018501035A1F4FC701B6010E94194F91
:1048A000F80160837183828393836D817E818F8120
:1048B00098850E94B80D9B01AC0185010B5A1F4FD2
:1048C000C201B1010E94194FD8016D937D938D9360
:1048D0009C9313976D817E818F8198850E94B80D7E
:1048E0009B01AC018501075A1F4F69817A818B8139
:1048F0009C810E94194FDC01CB01B058F8018083E4
:104900009183A283B38386E0D5018C938FEF9FEFD1
:10491000DC01F501848F958FA68FB78FE85BFF4F81
:104920001082F50182A993A9A4A9B5A981839283D4
:10493000A383B4838501075B1F4FF80180839183B4
:10494000A283B3836D817E818F8198850E94B80D8B
:104950009B01AC01FDE4AF0EB11CC201B1010E948C
:10496000194FBB85AC85FD85EE852B2F3A2F4F2F38
:104970005E2F0E94194FBB85AC85FD85EE852B2FE0
:104980003A2F4F2F5E2F0E94194F20E030E040E079
:104990005FE30E94194FD8012D913D914D915C919B
:1049A0000E94CA4CF501608371838283938320E067
:1049B00030E0A9016D817E818F8198850E942E4D06
:1049C00087FDFDC06D817E818F819885BF85A88917
:1049D000E9892B2F3A2F462D5E2F0E94C94CBA89A8
:1049E000FB89EC892B2F372D4F2F5E2F0E94C94C4E
:1049F0005B018C01CB01D80189839A83AB83BC8393
:104A000020E030E0A901B501C8010E942E4D87FDCC
:104A1000DCC0C501D8014C015D016D817E818F81B3
:104A200098850E94B80D9B01AC0181E769857A8564
:104A3000869F8001879F100D11240D5E104F380155
:104A400071E5670E711CC501B4010E94194FF80190
:104A5000E35BFF4F20813181428153810E94CA4C28
:104A6000D3016D937D938D939C9313978091510205
:104A700090915202A0915302B0915402F801EF5963
:104A8000FF4F80839183A283B38320E030E04AE725
:104A900054E4BB85AC85FD85EE856B2F7A2F8F2F77
:104AA0009E2F0E94194F3B01582E492E60915102B2
:104AB0007091520280915302909154025801B5E6D0
:104AC000AB0EB11C0E94CE4D9B01AC01F201662DD4
:104AD000772D8F2F9E2F0E94CA4C0E94A24DF50168
:104AE00060837183828393838090510290905202FD
:104AF000A0905302B0905402A701960169817A8177
:104B00008B819C810E94354D20E030E04AE754E4DF
:104B10000E94194F9B01AC01F201662D772D8F2F5A
:104B20009E2F0E94CA4C6B017C01C501B4010E94FA
:104B3000CE4D9B01AC01C701B6010E94CA4C0E9438
:104B4000A24DF801E759FF4F6083718382839383FD
:104B500003591F4F0E94CE4D6B017C0120E030E0D5
:104B60004AE754E4FD89EE89BF89A88D6F2F7E2F17
:104B70008B2F9A2F0E94194F9B01AC01C701B601E0
:104B80000E94CA4C0E94A24DD8016D937D938D93D3
:104B90009C931397F7CDF7FAF094F7F8F09433CC91
:104BA00069817A818B819C81905869837A838B8318
:104BB0009C8320CC57FA509457F8509410CC6D81B8
:104BC0007E818F819885905801CF89809A80AB80B3
:104BD000BC80B7FAB094B7F8B0941FCF80918A0226
:104BE00090918B02892B59F080918902882339F0AA
:104BF00080918C02813009F45AC0823009F0089506
:104C000080ED8093520389E18093530380918A025F
:104C100090918B029093540380918A0290918B0221
:104C2000809355031092560389E38093570383E1E1
:104C3000809358038091450F9091460FA091470FA4
:104C4000B091480F8093590390935A03A0935B034C
:104C5000B0935C038091B60F9091B70FA091B80FFD
:104C6000B091B90F80935D0390935E03A0935F03AF
:104C7000B09360038091271090912810A091291083
:104C8000B0912A108093610390936203A093630311
:104C9000B09364031092690382E180936A0320E079
:104CA0004FEF5FEF69E182E593E00C94D93F0E94FA
:104CB000A0088091F70E9091F80E2091F00D3091A0
:104CC000F10D97FD53C09595879595958795959589
:104CD0008795959587959595879537FD49C0A90145
:104CE000042E452F000C441F550B000C441F551F6C
:104CF00022273327281B390B241B350B841B950BCC
:104D000040ED4093520340E14093530340918A02A7
:104D100050918B025093540340918A0250918B0220
:104D2000409355031092560348E6409357034AE0D8
:104D30004093580345E04093590330935A0320931E
:104D40005B0390935C0380935D0390935E03809379
:104D50005F031092600382E18093610320E04FEFD4
:104D60005FEF60E182E593E00C94D93F4F96ABCFC3
:104D7000215C3F4FB4CF80E8E1EAF5E1DF011D920D
:104D80008A95E9F71092EE1010929D02109220037E
:104D900084E690E0A0E0B0E08093210390932203AA
:104DA000A0932303B09324038EEE95E29093260301
:104DB000809325030895CF93DF9300D000D01F92F6
:104DC000CDB7DEB780918A0290918B02892BC1F01A
:104DD00086ED898385E08A8380918A0290918B0297
:104DE0009B8380918A0290918B028C8382E18D83D8
:104DF00020E04FEF5FEF65E0CE0101960E94D93FC2
:104E00000F900F900F900F900F90DF91CF9108951A
:104E100020E030E005C02F5F3F4F2034310559F0CE
:104E2000F901EE0FFF1FEF55FA4E408151818417B3
:104E3000950789F7089520E030E005C02F5F3F4FC8
:104E400020343105B9F3F901EE0FFF1FEF55FA4E8B
:104E500040815181452B91F7918380830895EF9292
:104E6000FF920F931F93CF93DF93CDB7DEB72997B0
:104E70000FB6F894DEBF0FBECDBF8C01DC011896D3
:104E80008C9118971F928F9317968C9117971F925A
:104E90008F9313968C9113978F9312968C911297F0
:104EA0008F9315968C911F928F938AEB92E09F932C
:104EB0008F9387EF9DE09F938F930E94A7320FB649
:104EC000F894DEBF0FBECDBFD80115968C91863DFC
:104ED00008F5813D90F180918802409184025091C3
:104EE00085026091860270918702480F511D611DF5
:104EF000711D4770552766277727FA01EE0FFF1FB0
:104F0000E950FF4E11830083809188028F5F809368
:104F1000880206C0863D09F45CC0873D09F47DC067
:104F200029960FB6F894DEBF0FBECDBFDF91CF91AB
:104F30001F910F91FF90EF900895803D89F7F80140
:104F4000978180E020918A0230918B024085842BEA
:104F50008217930729F7638541E070E0C8010A963C
:104F60000E94EB327C01F80181858823C9F281ED32
:104F700080932F03D70111968C9111978B5F8093AB
:104F8000300380918A0290918B029093310380913B
:104F90008A0290918B028093320323E333E01196CF
:104FA0004C9150E0B701C9010E94AE56D70111964D
:104FB000EC91F0E0E15DFC4F82E18483F8014281F5
:104FC000538120E0609130038FE293E00E94D93F4B
:104FD000A7CFD80117969C91179780E020918A025D
:104FE00030918B0218964C911897842B8217930757
:104FF00009F096CF80918A0290918B02892B09F457
:105000008FCF80918902882309F48ACF12968D91DF
:105010009C9113970E94082783CFF801978180E025
:1050200020918A0230918B024085842B821793074E
:1050300009F076CF80918902882309F44CCF8091C2
:105040008A0290918B02892B09F445CF80919D02B1
:105050008130B1F08330A1F02091880280918402E8
:1050600090918502A0918602B0918702820F911DD6
:10507000A11DB11D87709927AA27BB27FC013ECF30
:1050800082E080939D0280918A0290918B02892B0D
:10509000F1F080ED898389E08A8380918A02909182
:1050A0008B029B8380918A0290918B028C831D825C
:1050B0008DE48E8383E08F83188682E1898720E0E8
:1050C0004FEF5FEF69E0CE0101960E94D93F0E9449
:1050D000B42026CF2F923F924F925F926F927F9291
:1050E0008F929F92AF92BF92CF92DF92EF92FF92F8
:1050F0000F931F93CF93DF93CDB7DEB7A0970FB673
:10510000F894DEBF0FBECDBF8091EE10853009F45C
:10511000E1C320F1883009F4EAC108F086C0863086
:1051200009F466C2873009F4FCC1A0960FB6F89462
:10513000DEBF0FBECDBFDF91CF911F910F91FF90CA
:10514000EF90DF90CF90BF90AF909F908F907F9027
:105150006F905F904F903F902F900895823009F4A8
:1051600046C308F4E1C0833009F417C38430E9F67C
:1051700080ED898389E08A8380918A0290918B02F5
:105180009B8380918A0290918B028C8381E08D8336
:1051900089E78E8383E08F83188682E189878091F7
:1051A000930290919402FC01EE0FFF1FEF55FA4E0F
:1051B000208131813F932F939F938F938BEE92E0C9
:1051C0009F938F9387EF9DE09F938F930E94A732C9
:1051D000E0919302F0919402EE0FFF1FEF55FA4E0B
:1051E0004081518120E06A81CE0101960E94D93F21
:1051F0008091510290915202A0915302B0915402B9
:105200008C509E4FAF4FBF4F80938F029093900270
:10521000A0939102B093920285E08093EE100FB6B6
:10522000F894DEBF0FBECDBF80CF8A3009F4FAC13B
:1052300008F096C280ED898389E18A8380918A0291
:1052400090918B029B8380918A0290918B028C8338
:105250001D8289E38E8383E18F838091450F909136
:10526000460FA091470FB091480F88879987AA876A
:10527000BB878091B60F9091B70FA091B80FB091F6
:10528000B90F8C879D87AE87BF878091271090913B
:105290002810A0912910B0912A10888B998BAA8B85
:1052A000BB8B188E82E1898F20E04FEF5FEF69E1C1
:1052B000CE0101960E94D93F8091510290915202F5
:1052C000A0915302B09154028C599F4FAF4FBF4FE2
:1052D00080938F0290939002A0939102B0939202D8
:1052E00040E050E080E090E0FC01EE0FFF1FEF5542
:1052F000FA4E20813181232B11F04F5F5F4F0196D1
:105300008034910589F780919702909198024130FD
:10531000510509F4A6C42BE02093EE10019690935A
:1053200098028093970201CF882309F4A8C08130A6
:1053300009F0FBCE4091510250915202609153020C
:10534000709154028091F3109091F410A091F51097
:10535000B091F610481759076A077B0708F009C48F
:1053600080918802882309F4E0CE80918402909194
:105370008502A0918602B091870287709927AA279B
:10538000BB27FC01EE0FFF1FE950FF4E008111818A
:105390008091840290918502A0918602B09187024B
:1053A0000196A11DB11D8093840290938502A09364
:1053B0008602B09387028091880281508093880290
:1053C0000115110509F4B1CEF8018581823D09F47A
:1053D000A5C4833D09F0A9CE80915102909152025B
:1053E000A0915302B09154024091EF105091F010EF
:1053F0006091F1107091F210841B950BA60BB70B06
:10540000F8014781508561857285841B950BA60B39
:10541000B70B8B569F4FAF4FBF4F8B329140A105BB
:10542000B10508F082CEF801938580E090938B025D
:1054300080938A0280918A0290918B022485822B2C
:1054400090938B0280938A0285858093E7108685EE
:105450008093E81087858093E9104091E91060916E
:10546000E8108091E7100E940F081092EE100E9441
:10547000DB265BCE8091890281110E9415318091DB
:105480008802882309F451CE80918402909185028C
:10549000A0918602B091870287709927AA27BB271F
:1054A000FC01EE0FFF1FE950FF4E0190F081E02D4F
:1054B0008091840290918502A0918602B09187022A
:1054C0000196A11DB11D8093840290938502A09343
:1054D0008602B0938702809188028150809388026F
:1054E000309709F422CE8581873D49F6C3CF40919C
:1054F0005102509152026091530270915402809176
:105500008F0290919002A0919102B091920248175F
:1055100059076A077B0708F408CE87E08093EE10EE
:1055200004CE0E94A0088091F70E9091F80E209171
:10553000F00D3091F10D97FDEFC3959587959595F9
:10554000879595958795959587959595879537FD39
:10555000E0C3A901042E452F000C441F550B000C7D
:10556000441F551F22273327281B390B241B350BBB
:10557000841B950B40ED498340E14A8340918A02A8
:1055800050918B025B8340918A0250918B024C8335
:105590001D8248E64E834AE04F8345E048873987BD
:1055A0002A879B878C879D878E871F8682E1888BC1
:1055B00020E04FEF5FEF60E1CE0101960E94D93FFE
:1055C0008091510290915202A0915302B0915402E5
:1055D00081559F4FAF4FBF4F80938F0290939002A2
:1055E000A0939102B093920288E08093EE109DCD3B
:1055F00040915102509152026091530270915402B5
:1056000080918F0290919002A0919102B0919202AC
:1056100084179507A607B70708F087CD84E0809325
:10562000EE1083CD4091510250915202609153028D
:10563000709154028091990290919A02A0919B02DC
:10564000B0919C02481759076A077B0708F0A1C070
:1056500080918802882309F468CD8091840290911A
:105660008502A0918602B091870287709927AA27A8
:10567000BB27FC01EE0FFF1FE950FF4E0081118197
:105680008091840290918502A0918602B091870258
:105690000196A11DB11D8093840290938502A09371
:1056A0008602B0938702809188028150809388029D
:1056B0000115110509F439CDF8018581813D41F6C7
:1056C0008285833129F68091F60D96E0C92ED12C82
:1056D000EE24E394F12CA12CB12C8230E1F1833043
:1056E00009F421C2F801EC0DFD1D4580568067804C
:1056F000708420E030E0A901C301B2010E942E4D68
:1057000087FD1AC222E93AE046E05FE3C301B20135
:105710000E942E4D87FFDAC1412C512C3201C3016A
:10572000B20190580E949D4DAB01BC01C7010E947F
:10573000A61883E0E816F10409F4FAC18091F60D89
:10574000FFEFAF1ABF0A2FEFE21AF20A94E0C90E78
:10575000D11C823021F6E1E0AE16B10419F6F0CF8B
:105760008B3009F0E2CC409151025091520260918D
:1057700053027091540280918F0290919002A091F7
:105780009102B0919202481759076A077B0708F403
:10579000CCCC89E08093EE10C8CC10929402109289
:1057A00093028091A1159091A215892B09F0E0CC6C
:1057B00080E090E003C08034910591F00196FC01F7
:1057C000EE0FFF1FEF55FA4E20813181232B99F305
:1057D00080939302909394028034910509F0C8CC91
:1057E00010929402109293021092EE109ECC40916F
:1057F0005102509152026091530270915402809173
:105800008F0290919002A0919102B091920248175C
:1058100059076A077B0708F056C1809188028823E0
:1058200009F483CC8091840290918502A091860234
:10583000B091870287709927AA27BB27FC01EE0F3A
:10584000FF1FE950FF4E00811181809184029091E9
:105850008502A0918602B09187020196A11DB11D1B
:105860008093840290938502A0938602B09387026E
:10587000809188028150809388020115110509F4F6
:1058800054CCF8018581843D09F4F9C0853D09F0C7
:105890004CCC80918D0290918E0290938B028093DC
:1058A0008A0280914F038093E71080915003809388
:1058B000E810809151038093E9104091E9106091C4
:1058C000E8108091E7100E940F0810928902109250
:1058D000EE102BCC40915102509152026091530234
:1058E0007091540280918F0290919002A091910248
:1058F000B091920284179507A607B70708F471C004
:1059000080918802882309F410CC809184029091C0
:105910008502A0918602B091870287709927AA27F5
:10592000BB27FC01EE0FFF1FE950FF4E0190F081F5
:10593000E02D8091840290918502A0918602B09121
:1059400087020196A11DB11D809384029093850268
:10595000A0938602B0938702809188028150809341
:105960008802309709F4E1CB8581813D09F0DDCBD8
:1059700010929602109295028385811155C28091F2
:105980009302909194029C012F5F3F4F30939402B9
:1059900020939302F901EE0FFF1FEF55FA4E40815D
:1059A0005181452BC9F4203431050CF019CF0296F2
:1059B00005C001968134910509F412CF9C01FC01C8
:1059C000EE0FFF1FEF55FA4E40815181452B89F3B1
:1059D0002093930230939402203431050CF41ECEB0
:1059E000FFCE8091510290915202A0915302B0914A
:1059F00054028C509E4FAF4FBF4F80938F029093B5
:105A00009002A0939102B09392028091950290919E
:105A100096020196909396028093950202970CF459
:105A2000FFC110929602109295028091930290917C
:105A300094029C012F5F3F4F309394022093930276
:105A4000F901EE0FFF1FEF55FA4E40815181452BB2
:105A500019F6203431050CF0C3CE029605C001962C
:105A60008134910509F4BCCE9C01FC01EE0FFF1FAF
:105A7000EF55FA4E40815181452B89F3A9CF809192
:105A80008D0290918E0290938B0280938A02809176
:105A90004F038093E710809150038093E81080912A
:105AA00051038093E9104091E9106091E8108091D2
:105AB000E7100E94480881E080938902F801828102
:105AC00093810E9408271092EE102FCB22E93AE032
:105AD00046E05FE3C301B2010E94C94C20E030E020
