:100000000C9480010C949F010C949F010C949F010F
:100010000C949F010C949F010C949F010C949F01E0
:100020000C949F010C945E020C949F010C949F0110
:100030000C949F010C949F010C949F010C949F01C0
:100040000C949F010C949F010C949F010C949F01B0
:100050000C949F010C949F010C949F010C949F01A0
:100060000C949F010C949F010C949F010C949F0190
:100070000C949F010C9432130C949F010C949F01DB
:100080000C949F010C949F010C949F010C949F0170
:100090000C94CF3A0C949F010C949F010C94704CDB
:1000A0000C949F010C949F010C942A560C943B567F
:1000B0000C949F010C949F010C949F010C941C0ABA
:1000C0000C949F010C949F010C949F010C949F0130
:1000D0000C949F010C949F010C949F010C949F0120
:1000E0000C949F010C949F010C949F010C949F0110
:1000F0000C9463570C949F010C949F010C943757F8
:100100000C949F010C949F010C949F010C949F01EF
:100110000C949F010C949F010C949F010C949F01DF
:100120007F41863C423FB03CCF4210431E43414397
:10013000903DBA3DDA3D123E4E3E48429142B042B9
:10014000C43C963EA23EB03ED33EE33CEA3CFE3C7D
:10015000EE3B133D1C3D313D463D673D713D733DDA
:10016000833D7B449044EE3B9B44BD441745C240D5
:10017000DA40EF40FC40074116415041893C67415D
:100180005A415F41C243E043783CFE431F442C4444
:100190003B445844834539455E456245EE3BEE3B62
:1001A000EE3BEE3BEE3BEE3BEE3BEE3B69455B440C
:1001B000694478448B41AB41374201421742633F67
:1001C000C13F9140273CEE3B5E3C7640003FBD4046
:1001D000DF3F4840624064437F438D43B0431F3F4D
:1001E00005A84CCDB2D44EB93836A9020C50B991FD
:1001F0008688083CA6AAAA2ABE000000803F6E613D
:100200006E00696E660000407A10F35A00A0724ECC
:1002100018090010A5D4E80000E87648170000E4AB
:100220000B54020000CA9A3B000000E1F5050000F3
:1002300080969800000040420F000000A086010058
:100240000000102700000000E80300000000640028
:10025000000000000A000000000001000000000093
:100260002C76D888DC674F0823DFC1DFAE59E1B1B7
:10027000B796E5E3E453C63AE651997696E8E6C2C6
:100280008426EB898C9B62ED407C6FFCEFBC9C9FCD
:1002900040F2BAA56FA5F490055A2AF75C936B6CEF
:1002A000F9676DC11BFCE0E40D47FEF520E6B500E3
:1002B000D0ED902E0300943577050080841E080051
:1002C00000204E0A000000C80C333333330F986E01
:1002D00012831141EF8D2114893BE65516CFFEE6BE
:1002E000DB18D1844B381BF77C1D901DA4BBE42484
:1002F000203284725E228100C9F124ECA1E53D2701
:1003000011241FBECFEFD1E4DEBFCDBF13E0A0E0CC
:10031000B2E0E6E0F3ED00E00BBF02C007900D9203
:10032000A832B107D9F716E3A8E2B3E001C01D92E5
:10033000A334B107E1F70E94BF0F0C9481690C94BC
:10034000000081E080930B028091A00A86FF04C028
:100350008091A00A87FDADC08091A00A86FF28C0C9
:100360008091A0029091A102892B19F180919D02A8
:10037000811129C00E940F291092A1021092A0029F
:1003800010929F0210929E0210929D0281E00E94A4
:10039000A90B1092B7021092B6021092B5021092F9
:1003A000B4021092B3024FEF60E080E00C94420A76
:1003B000089583E00E94A90B0E94170A892B09F473
:1003C00076C00C949A070E94DA3780ED8093502B08
:1003D0008EE08093512B8091A0029091A102909386
:1003E000522B8091A0029091A1028093532B1092E6
:1003F000542B86E78093552B88E08093562B1092E0
:10040000572B1092582B1092592B10925A2B8FEF7A
:1004100080935B2B10925C2B82E180935D2B60912B
:10042000512B20E04FEF5FEF80E59BE20E942A4BCB
:100430006091512B20E04FEF5FEF80E59BE20E943F
:100440002A4B6091512B20E04FEF5FEF80E59BE25C
:100450000E942A4B6091512B20E04FEF5FEF80E527
:100460009BE20E942A4B6091512B20E04FEF5FEFFF
:1004700080E59BE20E942A4B6091512B20E04FEFD8
:100480005FEF80E59BE20E942A4B10929F11109231
:10049000A20280E090E0FC01EE0FFF1FE053F54D5B
:1004A00011821082019680349105A9F763CF0C94D4
:1004B000EA060E94D32983E00C94A90B1F920F92A5
:1004C0000FB60F9211240F900FBE0F901F9018952A
:1004D0000E94FC058091A0029091A102892B31F02D
:1004E0008091B6029091B7020E9498380C940B3814
:1004F000CF93DF93CDB7DEB729970FB6F894DEBF61
:100500000FBECDBF0E94FC058091A0029091A10278
:10051000892B21F080919D0281111EC08091B30230
:10052000813009F443C0833009F440C08091A002B7
:100530009091A102892B29F080919D02882309F4D2
:1005400065C00E94A43929960FB6F894DEBF0FBE8D
:10055000CDBFDF91CF9108958091B6029091B702FF
:10056000892B09F04DC08091A20290E0019663E0D2
:1005700070E00E94EB658093A2028091A20281301C
:1005800009F455C008F045C08091B6029091B702B9
:10059000892B21F60E940F290E94DA374FEF60E085
:1005A00080E00E94420A10929F11CDCF82E080939A
:1005B000B3028091A0029091A102892BF1F080ED0D
:1005C000898389E08A838091A0029091A1029B8314
:1005D0008091A0029091A1028C831D828DE48E8374
:1005E00083E08F83188682E1898720E04FEF5FEFF9
:1005F00069E0CE0101960E942A4B0E940F29A3CFE9
:100600008091A202882309F489CFADCF0E94E339FB
:100610009ACF823009F082CF0E940F294FEF6FEFFF
:1006200080E00E94420A89E080939F118CCF0E9453
:10063000DA3740E06FEF80E00E94420A87E0809363
:100640009F1181CF80ED97E0A0E0B0E08093A60AF3
:100650009093A70AA093A80AB093A90A81E0809377
:10066000A50A81EA91E09093AB0A8093AA0A85EAF1
:100670009AE00C94AF4B85EA9AE00C947B4B8F92F6
:100680009F92AF92BF92CF92DF92EF92FF920F9321
:100690001F93CF93DF93CDB7DEB72C970FB6F894A7
:1006A000DEBF0FBECDBFE62EE82690915302992300
:1006B000E1F1E6FA442740F9E7FC62C0E5FC44605A
:1006C00066FD55C030E021E067FD55C0226065FF42
:1006D00055C0346080E289838AE08A838091590220
:1006E00090915A02A0915B02B0915C028B839C8333
:1006F000AD83BE834F83388729871A86CE01019642
:100700000E94E9102C960FB6F894DEBF0FBECDBF45
:10071000DF91CF911F910F91FF90EF90DF90CF90DD
:10072000BF90AF909F908F9008956623B9F09091FD
:100730000B029111E7CFE6FC27C020E030E0E7FC98
:1007400039C0E5FE2CC065FD2AC086FD2CC085FDA4
:100750005BC087FFD7CF0E947802D4CF90910B0265
:10076000992329F310920B0210920A02CBCF31E0A9
:1007700020E067FFABCF326065FDABCF2460AACF2E
:100780004260E5FE9DCF9BCF6C878B8766FF19C0CB
:100790000E94220320E030E06C858B85D0CF232B94
:1007A00009F4B0CFD2CF87FD49C085FD2DC00E948E
:1007B0006802A8CF67FD0CC010920A0221E030E069
:1007C000C0CF0E943B0321E030E06C858B85B7CF22
:1007D00091E090930A028090590290905A02A09062
:1007E0005B02B0905C028092A10A9092A20AA09251
:1007F000A30AB092A40A90919F119150923008F0F0
:10080000A0CF10929F119DCF0E94FC0580915D02A8
:1008100090915E02892B49F04FEF60E080E00E94EA
:10082000420A10925E0210925D021092B70210927C
:10083000B6021092B5021092B40264CF81E06C87C8
:100840000E94A90B0E94153A6C85662319F081E07D
:1008500080930B028091A40F811126C080911D10FE
:10086000811122C08091961081111EC03EEDC32ED1
:100870003FE0D32EE12CF12CF60111821082FFEF24
:10088000EF1AFF0A0BED1FE029EC3FE340E050E0D8
:10089000BA01C7010E94D11C89E7C80ED11CE3E050
:1008A000EE16F10449F72ECF0E940F292BCFCF93DC
:1008B0008091590290915A02A0915B02B0915C0222
:1008C00040910C0250910D0260910E0270910F0246
:1008D000841B950BA60BB70B4997A105B105F0F04A
:1008E000C9B1C095C07EC093A00A809110028C1738
:1008F000A9F06C2F0E943F038091590290915A02F7
:10090000A0915B02B0915C0280930C0290930D0267
:10091000A0930E02B0930F02C0931002CF910895DE
:100920001092B100249808950C949004CF93DF9313
:1009300082E48093B000A3EBB0E082EB8C93E1EB18
:10094000F0E085E080832FEF32E597E021503040E2
:100950009040E1F700C000001082CFE1DEE4219773
:10096000F1F700C0000095E89C938083DFEF22E55B
:1009700037E0D15020403040E1F700C00000108245
:10098000249881E08093340E84E690E0A0E0B0E00B
:100990008093350E9093360EA093370EB093380E99
:1009A00084E994E090933A0E8093390EDF91CF91D1
:1009B00008959C01009709F18A3F910578F085E040
:1009C0008093B10064E274EF80E090E0249A40E00C
:1009D00050E00E9421662093B300089587E0809341
:1009E000B10064E87EE180E090E0249A40E050E0CD
:1009F0000E9421662093B30008950C949004CF9335
:100A0000DF93C82FCF7082958F7009F161E090E07D
:100A1000660F9F5F9813FCCF70E0D0E0CC0FDD1F16
:100A2000CC0FDD1FCF5EDD4F882777FD8095982F97
:100A30000E94ED5F288139814A815B810E94366185
:100A40000E94BF5FCB01DF91CF910C94D90461E08C
:100A500070E0E3CF0F931F93CF93DF9300D0CDB718
:100A6000DEB70E94900400914202109143020115EA
:100A7000110509F480C080914402909145028017CD
:100A800091070CF05EC03091430E20E0880F991F53
:100A9000820F931F45960E94D5120E94FF04309149
:100AA000430E20E08091440290914502880F991FE7
:100AB000820F931F44960E94D51280932D0340917C
:100AC0004402509145024F5F5F4F5093450240935F
:100AD000440260914202709143026417750794F4D6
:100AE0000E94CC678A830E94CC6789830E94CC676E
:100AF0004A8169810F900F90DF91CF911F910F91E3
:100B00000C94420A1092440E282F30E040E050E04E
:100B10006091290370912A0380912B0390912C03FB
:100B20000E94FF652093450E3093460E4093470E7A
:100B30005093480E8AE295E090934A0E8093490EB6
:100B4000CFCF81E08093440E109245021092440270
:100B500010924302109242020E94900410924102AD
:100B60004FEF60E080E00F900F90DF91CF911F91E9
:100B70000F910C94420A9091430E80E042960E949D
:100B8000D512809328039091430E80E043960E94F3
:100B9000D512082F10E010934302009342022091D7
:100BA000280330E040E050E060E879EA83E090E03C
:100BB0000E94FF652093290330932A0340932B035F
:100BC00050932C0358CF91E0909341029093440EA0
:100BD0001092450E1092460E1092470E1092480E3B
:100BE0002AE235E030934A0E2093490E8093430E5B
:100BF00084E49EE00C94AF4B86EE90E00E94D90412
:100C000084E39EE00C94AF4B0F931F9380915902A5
:100C100090915A02A0915B02B0915C028093620EA7
:100C20009093630EA093640EB093650E1092530ED2
:100C300084EF91E0A0E0B0E08093540E9093550EC5
:100C4000A093560EB093570E89ED97E09093590EEE
:100C50008093580E83E59EE00E94AF4B0BED1FE0A2
:100C600029EC3FE340E050E0BA0181E090E00E94CF
:100C7000D11C0BED1FE029EC3FE340E050E0BA014E
:100C800082E090E00E94D11C0BED1FE029EC3FE3D5
:100C900040E050E0BA0183E090E00E94D11C81E086
:100CA00090E090934A02809349021F910F9108951A
:100CB00080917A0E8230B9F18091B50F9091B60F84
:100CC000892BB9F180912E1090912F10892B89F1E9
:100CD0000E940F2941E05FEF6FEF7FEF81E090E02E
:100CE0000E94742041E05FEF6FEF7FEF82E090E0C1
:100CF0000E94742081E08093530E88E893E1A0E085
:100D0000B0E08093540E9093550EA093560EB0937E
:100D1000570E85EC98E09093590E8093580E83E51A
:100D20009EE00C94AF4B8091B50F9091B60F892B3C
:100D300009F408958091A7109091A810892B41F68D
:100D4000089580917A0E8230B9F18091B50F90911B
:100D5000B60F892BB9F180912E1090912F10892B0D
:100D600089F10E940F294FEF50E060E070E081E0D0
:100D700090E00E9474204FEF50E060E070E082E06D
:100D800090E00E94742081E08093530E88E893E104
:100D9000A0E0B0E08093540E9093550EA093560EB1
:100DA000B093570E88E599E09093590E8093580EB2
:100DB00083E59EE00C94AF4B8091B50F9091B60FF8
:100DC000892B09F408958091A7109091A810892B80
:100DD00041F608950F931F9381E090E090934802AD
:100DE0008093470290934A0280934902809159026E
:100DF00090915A02A0915B02B0915C028093620EC6
:100E00009093630EA093640EB093650E1092DF0F63
:100E10001092DE0F10925810109257101092D110AD
:100E20001092D0100BED1FE029EC3FE340E050E0C2
:100E3000BA0181E090E00E94D11C0BED1FE029EC8B
:100E40003FE340E050E0BA0182E090E00E94D11C14
:100E50000BED1FE029EC3FE340E050E0BA0183E0F6
:100E600090E00E94D11C1092530E84EF91E0A0E01C
:100E7000B0E08093540E9093550EA093560EB0930D
:100E8000570E89ED97E09093590E8093580E83E5A5
:100E90009EE01F910F910C94AF4B0F931F9381E035
:100EA00090E090934802809347021092DF0F1092D7
:100EB000DE0F10925810109257101092D11010920D
:100EC000D0100BED1FE029EC3FE340E050E0BA0109
:100ED0000E94D11C0BED1FE029EC3FE340E050E005
:100EE000BA0182E090E00E94D11C0BED1FE029ECDA
:100EF0003FE340E050E0BA0183E090E00E94D11C63
:100F00001092530E84EF91E0A0E0B0E08093540E75
:100F10009093550EA093560EB093570E81EA96E02B
:100F20009093590E8093580E83E59EE01F910F9188
:100F30000C94AF4B109248021092470283E59EE05A
:100F40000E947B4B0E940F294FEF60E080E00E94DF
:100F5000420A83EC98EBA2EBBEE380937C02909371
:100F60007D02A0937E02B0937F0284E690E090938E
:100F70007B0280937A02089540E060E08FEF0E9448
:100F8000420A2FEF81EE94E0215080409040E1F73B
:100F900000C0000040E060E080E00E94420A2FEFC5
:100FA00081EE94E0215080409040E1F700C00000C5
:100FB000E3CF0F931F93CF93DF93809159029091CA
:100FC0005A02A0915B02B0915C024091620E509176
:100FD000630E6091640E7091650E841B950BA60BD9
:100FE000B70B81349747AB41B10508F091C08091B0
:100FF0007A0E823009F472C08091B50F9091B60FCD
:10100000892B09F453C080912E1090912F10892BB9
:1010100009F450C080914602813009F48CC00BED78
:101020001FE029EC3FE34BED5FE069E471E481E010
:1010300090E00E94D11C0BED1FE029EC3FE34BED4B
:101040005FE069E471E482E090E00E94D11C0BED66
:101050001FE029EC3FE34BED5FE069E471E483E0DE
:1010600090E00E94D11C81E0809346020E94CC67F0
:101070008C010E94CC67EC010E94CC67FC012FEF31
:1010800030E0C801B9010E94EB65482FCE01B901DB
:101090000E94EB65C82FCF01B9010E94EB656C2F50
:1010A000DF91CF911F910F910C94420A8091A40F70
:1010B000882351F080911D108111D8CF80912E107E
:1010C00090912F10892B91F68091490290914A02BC
:1010D000892B61F60E940F290E94BC078091B50FF1
:1010E0009091B60F892B09F44AC08091A710909176
:1010F000A810892B09F08ECF809196108111B6CF60
:101100008091A7109091A810892B09F0AFCFDCCF68
:1011100081E08093530E40E06FEF80E00E94420A2E
:101120000E940F291092480210924702DF91CF913E
:101130001F910F9108950BED1FE029EC3FE340E074
:1011400050E0BA0181E090E00E94D11C0BED1FE05D
:1011500029EC3FE340E050E0BA0182E090E00E94D9
:10116000D11C0BED1FE029EC3FE340E050E0BA0159
:1011700083E090E00E94D11C1092460277CF8091CC
:10118000A40F882309F4A0CFB7CFEF92FF920F935B
:101190001F93CF93DF93CDB7DEB72C970FB6F8949C
:1011A000DEBF0FBECDBF0E940F290AED1FE0EE2467
:1011B000E394F12CEC0EFD1EF80164817581882703
:1011C00077FD8095982F0E94ED5F2BED3FE049EC75
:1011D00050E40E9436619B01AC01F801608171818D
:1011E000828193810E94E75EF701619371938193FD
:1011F00091937F0107581F4FF1E105341F07E1F676
:1012000080917A0E28E530EA4BE851EC8230D1F13A
:1012100069817A818B819C810E94326118160CF45D
:1012200045C028E530EA4BE851EC6D817E818F8125
:1012300098850E9432611816CCF181E08093530E9C
:1012400088EE93E0A0E0B0E08093540E9093550EAA
:10125000A093560EB093570E84E096E09093590EEB
:101260008093580E83E59EE02C960FB6F894DEBF6F
:101270000FBECDBFDF91CF911F910F91FF90EF90E7
:101280000C94AF4B69817A818B819C810E94326181
:10129000181664F028E530EA4BE851EC69857A8548
:1012A0008B859C850E94326118163CF60E94BC0713
:1012B000EF92FF920F931F93CF93DF93CDB7DEB7DB
:1012C0002C970FB6F894DEBF0FBECDBF0E940F293A
:1012D0000AED1FE0EE24E394F12CEC0EFD1EF80164
:1012E00064817581882777FD8095982F0E94ED5F36
:1012F0002BED3FE049EC50E40E9436619B01AC01CC
:10130000F80160817181828193810E94E75EF7011B
:1013100061937193819391937F0107581F4FF1E17E
:1013200005341F07E1F680917A0E28E530EA4BE894
:1013300051E4823009F465C069817A818B819C8196
:101340000E944B5F87FD71C028E530EA4BE851E40D
:101350006D817E818F8198850E944B5F87FD65C07E
:101360001092DF0F1092DE0F10925810109257104B
:101370001092D1101092D0100BED1FE029EC3FE33A
:1013800040E050E0BA0181E090E00E94D11C0BEDFA
:101390001FE029EC3FE340E050E0BA0182E090E03A
:1013A0000E94D11C0BED1FE029EC3FE340E050E030
:1013B000BA0183E090E00E94D11C1092530E84EF9A
:1013C00091E0A0E0B0E08093540E9093550EA0936E
:1013D000560EB093570E88E596E09093590E809381
:1013E000580E83E59EE02C960FB6F894DEBF0FBE34
:1013F000CDBFDF91CF911F910F91FF90EF900C9493
:10140000AF4B69817A818B819C810E944B5F87FD04
:101410000CC028E530EA4BE851E469857A858B8574
:101420009C850E944B5F87FF9BCF0E94BC078091E9
:1014300047029091480208951F920F920FB60F92A3
:1014400011248F939F93AF93BF93809159029091F2
:101450005A02A0915B02B0915C020196A11DB11DE0
:101460008093590290935A02A0935B02B0935C025E
:10147000BF91AF919F918F910F900FBE0F901F90D2
:101480001895089590E1899F900111243093990057
:101490002093980090E1699F9001112430939D0062
:1014A00020939C0090E1499F9001112430939B0070
:1014B00020939A008093770E6093780E4093790E74
:1014C00008958091660E9091670E01979093670E34
:1014D0008093660E181619061CF081E08093840F25
:1014E0004091790E40586091780E60588091770E47
:1014F00080580C94420A20E1829FC00111249093ED
:1015000099008093980080E1689FB0011124709346
:101510009D0060939C0020E1429FA0011124509304
:101520009B0040939A000895CF93DF938091A0028F
:101530009091A102892B59F180919D02882339F164
:10154000C0916302D09164029E01A9E8B8E80E94AC
:10155000CB659695879596958795969587954FE057
:10156000489F9001499F300D1124CE01821B930B9F
:10157000039780F440919A1160919911809198118C
:101580000E947B0A2196D0936402C0936302DF918C
:10159000CF9108954091790E6091780E8091770EE9
:1015A0000E947B0AEFCF4091790E6091780E809176
:1015B000770E0C947B0A0F93CF93DF9300D01F928A
:1015C000CDB7DEB781E08B8302E09E012F5F3F4FF6
:1015D00041E0BE016D5F7F4F8CE10E94614E0E9431
:1015E0008F4E998180E09093750E8093740E809158
:1015F000740E9091750E2A81822B9093750E8093B4
:10160000740E83E08B839E012F5F3F4F41E0BE014C
:101610006D5F7F4F8CE10E94614E0E948F4E9981D9
:1016200080E090937C0F80937B0F80917B0F909153
:101630007C0F2A81822B90937C0F80937B0F85E017
:101640008B839E012F5F3F4F41E0BE016D5F7F4F57
:101650008CE10E94614E0E948F4E998180E09093B0
:10166000A20F8093A10F8091A10F9091A20F2A81C8
:10167000822B9093A20F8093A10F80E00F900F9088
:101680000F90DF91CF910F910895CF93C82F8823AA
:10169000F1F040E06FEF80E00E94420A2FEF81EE10
:1016A00094E0215080409040E1F700C0000040E00D
:1016B00060E08FEF0E94420A2FEF81EE94E021500C
:1016C00080409040E1F700C00000C15011F7CF9179
:1016D000089585E00C94450B0F93CF93DF9300D0D2
:1016E00000D0CDB7DEB78DE08C8301E09E012D5F89
:1016F0003F4F41E0BE016C5F7F4F8CE10E94614E25
:101700000E948F4E892B09F58B818A3219F084E172
:101710000E94450B8AE2898389E18A8342E0BE0107
:101720006F5F7F4F8CE10E94254E0E948F4E892B68
:1017300019F084E10E94450B80E00F900F900F900C
:101740000F90DF91CF910F91089584E10E94450B96
:10175000DBCF2091660E3091670E121613060CF443
:10176000089590E0880F991F9093670E8093660EFE
:101770001092840F84E690E0A0E0B0E08093850FA3
:101780009093860FA093870FB093880F81E69AE01D
:1017900090938A0F8093890F84E89FE00C94AF4B5D
:1017A0002091660E3091670E121613060CF4089500
:1017B00090E0880F991F9093670E8093660E1092A9
:1017C000840F4093850F5093860F6093870F70931B
:1017D000880F81E69AE090938A0F8093890F84E8BE
:1017E0009FE00C94AF4B0E947B0A81E080932E0314
:1017F00084E690E0A0E0B0E080932F039093300364
:10180000A0933103B093320383ED9AE090933403B5
:10181000809333038EE293E00C94AF4B9AE0909365
:10182000770090917D0F923021F190917C00907C17
:1018300090937C0090917C00906C90937C009091B0
:101840007C00982B90937C0080917A00876C809329
:101850007A0080917A0086FDFCCF2091780030914B
:101860007900932F937080E0AC01422B9A01C9015B
:10187000089510927C0090917C00982B90937C00AE
:10188000E3CFCF93DF9380E294E00E94D512809360
:101890007D0F81E294E00E94D51280937E0F82E258
:1018A00094E00E94D51280937F0F20917D0F22300B
:1018B00009F455C08DEC9CECACECBFE380939C0F1D
:1018C00090939D0FA0939E0FB0939F0F819A89983C
:1018D0002FEF31EE84E0215030408040E1F700C02E
:1018E000000082E00E940E0CEC018198829A8A9896
:1018F0009FEF21EE34E0915020403040E1F700C0EE
:10190000000081E00E940E0C8298C436D10594F04C
:1019100082E080937A0E82E090E09093810F809332
:10192000800F81E090E09093830F8093820FDF918E
:10193000CF910895843691055CF783E080937A0E09
:1019400084E090E09093810F8093800F83E090E09B
:101950009093830F8093820FDF91CF91089580E061
:1019600090E0A0EABFE380939C0F90939D0FA0931B
:101970009E0FB0939F0F6A98729A3FEF80E792E0B4
:10198000315080409040E1F700C00000629BD5CF0D
:1019900020937A0E82E090E09093810F8093800FE5
:1019A00081E090E09093830F8093820FDF91CF913D
:1019B0000895E1E6F0E080E880831082F89480EFFB
:1019C00084B98BB1806E8BB9E8E6F0E080818160EC
:1019D0008083EBE6F0E08081826080838081846098
:1019E00080838081886080838FB780688FBF88E123
:1019F0008AB98BB183608BB98FE78DB98FE383BBD5
:101A00000E94410C3AEA3093800029E12093810042
:101A10008FEF9FE090938700809386003093900033
:101A20002093910090939700809396001092250147
:101A300010922401E3E7F0E0808182608083E1E29C
:101A4000F1E080818C6080838EE390E090932901A7
:101A500080932801909327018093260184B7877F84
:101A600084BFE0E6F0E0808188618083108280ECB2
:101A700080937C0010927B008FEE80937A000E940E
:101A8000C61678940895E82FF0E0EE0FFF1FE85790
:101A9000FE4E20813181C90108950E94430DBC0191
:101AA00080E090E00E94EB5F20919C0F30919D0FB1
:101AB00040919E0F50919F0F0E94366120E030E0D0
:101AC00040E85AE30E943661089580E00E94430D89
:101AD000BC0180E090E00E94EB5F20919C0F309170
:101AE0009D0F40919E0F50919F0F0E94366120E004
:101AF00030E040E85AE30E9436612EE63BED46EBCB
:101B00005EE30E94525F0895CF93DF93CDB7DEB7B7
:101B10002C970FB6F894DEBF0FBECDBF69877A87CA
:101B20008B879C878091590290915A02A0915B0209
:101B3000B0915C0289839A83AB83BC8329813A810B
:101B40004B815C8189859A85AB85BC85820F931F0B
:101B5000A41FB51F8D839E83AF83B887000020919B
:101B6000590230915A0240915B0250915C028D8182
:101B70009E81AF81B88582179307A407B50778F7D0
:101B80002C960FB6F894DEBF0FBECDBFDF91CF917C
:101B9000089580916000886180936000809160006A
:101BA0008D6080936000FFCF4F925F926F927F9223
:101BB000AF92BF92CF92DF92EF92FF920F931F935B
:101BC000CF93DF93CDB7DEB76E970FB6F894DEBF35
:101BD0000FBECDBF0E94DB0A6091740E7091750E2E
:101BE000882777FD8095982F0E94ED5F20E030E0F8
:101BF00040E858E30E9436612B013C0160917B0F65
:101C000070917C0F882777FD8095982F0E94ED5F5B
:101C100020E030E040E858E30E9436616B017C012F
:101C20006091A10F7091A20F882777FD8095982F62
:101C30000E94ED5F20E030E040E858E30E9436610A
:101C40005B018C01242D352D462D572D642D752DCE
:101C5000862D972D0E9436612B013C012C2D3D2DA8
:101C60004E2D5F2D6C2D7D2D8E2D9F2D0E9436616A
:101C70009B01AC01C301B2010E94E75E6B017C01D4
:101C80002A2D3B2D402F512F6A2D7B2D802F912FF8
:101C90000E9436619B01AC01C701B6010E94E75E5C
:101CA0000E94A3617B018C018091590290915A029C
:101CB000A0915B02B0915C0240913D0350913E03C4
:101CC00060913F0370914003841B950BA60BB70BEB
:101CD0008B3F9105A105B10508F0C7C0A090410355
:101CE000B0904203C0904303D09044032E2D3F2D6B
:101CF000402F512F6A2D7B2D8C2D9D2D0E94E65E4D
:101D00005B016C0120E030E0A9017B2D9D2D0E943C
:101D10004B5F87FD27C12AE939E949E15FE36A2D75
:101D20007B2D8C2D9D2D0E94326118160CF06CC0FD
:101D300010920A0240E06FEF80E00E94F30BBB2498
:101D4000B394B0920B028091A0029091A102892BD2
:101D500009F0AAC080919F118111A6C080915902FB
:101D600090915A02A0915B02B0915C028093A01105
:101D70009093A111A093A211B093A3118091590245
:101D800090915A02A0915B02B0915C020E94D067D0
:101D90004090590250905A0260905B0270905C0231
:101DA0000E94CC676C01C301B2010E94EB5F2B0162
:101DB0003C01B601882777FD8095982F0E94ED5F42
:101DC00020E03EEF4FEF56E40E94525F20E030E407
:101DD0004CE954E40E9436619B01AC01C301B2019D
:101DE0000E94E75E20E030E04AE753E40E94E75EAD
:101DF0000E94BF5F6093A4117093A5118093A611F8
:101E00009093A711B0929F118E2D9F2DA02FB12FCF
:101E10008093410390934203A0934303B093440300
:101E20008091590290915A02A0915B02B0915C029C
:101E300080933D0390933E03A0933F03B0934003F0
:101E40006E960FB6F894DEBF0FBECDBFDF91CF9177
:101E50001F910F91FF90EF90DF90CF90BF90AF90C8
:101E60007F906F905F904F9008958E2D9F2DA02FA3
:101E7000B12F8093410390934203A0934303B09307
:101E800044038091590290915A02A0915B02B09153
:101E90005C0280933D0390933E03A0933F03B09375
:101EA00040035701680122CF80919F118111ACCF6F
:101EB0008091590290915A02A0915B02B0915C020C
:101EC00040915F02509160026091610270916202E4
:101ED000841B950BA60BB70B843F9140A105B10560
:101EE00008F4AECF83ED89838EE08A831B821C8247
:101EF0001D821E828091A0029091A1029F838091F9
:101F0000A0029091A1028887809198118987809181
:101F100099118A8780919A118B8780919E02909166
:101F20009F029C8780919E0290919F028D8782E103
:101F30008E8720E04FEF5FEF6EE0CE0101960E94AA
:101F40002A4B8091590290915A02A0915B02B09164
:101F50005C0280935F0290936002A0936102B09351
:101F6000620252CF2AE939E949E15FEB6A2D7B2D04
:101F70008C2D9D2D0E944B5F87FF46CFD9CECF93EE
:101F8000DF93CDB7DEB7AD970FB6F894DEBF0FBEC7
:101F9000CDBF0E94A13A0E94D90C0E94194E0E9406
:101FA0006C0B882321F08AE00E94450BFCCF0E9435
:101FB00096040E94ED470E94162F80915402909142
:101FC0005502A0915602B09157028A279B270E9482
:101FD000D0670E9435291F8E8FE090E0A0E0B0E02E
:101FE00088A399A3AAA3BBA38CE591E29DA38CA38C
:101FF000CE014F960E94AF4B188A84E690E0A0E095
:10200000B0E0898B9A8BAB8BBC8B84E99AE09E8B7A
:102010008D8BCE0140960E94AF4B198280E091E0FB
:10202000A0E0B0E08A839B83AC83BD8382E59AE322
:102030009F838E83CE0101960E94AF4B4FEF60E0ED
:1020400080E00E94420A4E9B0E944D070E94E1548C
:102050000E94374C0E94E1540E94273B0E949B4EF5
:102060000E94E1540E9450480E9457040E94E1548B
:102070000E94C53080910A0281117EC08091490280
:1020800090914A02892B11F3809147029091480266
:10209000892BE1F28091590290915A02A0915B0242
:1020A000B0915C024091620E5091630E6091640E9B
:1020B0007091650E841B950BA60BB70B813395476A
:1020C000A105B10518F20E94FC0510924A02109277
:1020D000490280917D0F823009F4B8CF20E030E0D2
:1020E0004AEA53E460916E0270916F02809170022F
:1020F000909171020E94366120E030E044EB53E49D
:102100000E94525F60937602709377028093780208
:102110009093790220E030E04AEA53E460916A0249
:1021200070916B0280916C0290916D020E943661F9
:1021300020E030E044EB53E40E94525F609372026F
:1021400070937302809374029093750244E050E0A0
:1021500066E772E087E194E00E94E61244E050E016
:1021600062E772E08BE194E00E94E61261EA86E1A8
:1021700094E00E94A7126ACF0E94D40D7FCFCF9225
:10218000DF92EF92FF926B017C0120E030E0A90129
:102190000E944B5F87FD1AC020E030E0A901C70113
:1021A000B6010E943261181674F490E88FE350E093
:1021B00040E09C01652F742F832F922FFF90EF90AA
:1021C000DF90CF90089590E080E0F1CF90E88FEB22
:1021D000EECF20915D0230915E02232B59F04091A9
:1021E0009A0F50919B0F20915D0230915E02421731
:1021F000530721F52091C80240919A0F50919B0FEF
:10220000FC01618121110EC021E070E00E94793B48
:10221000FC01418120E030E050E0BC0189E393E122
:102220000C945C5E21E070E00E94793BFC014181EE
:10223000BC0182E00E94254E0C948F4E40915D02BD
:1022400050915E0221E0FC0161810C942A4BAF9217
:10225000BF92CF92DF92EF92FF920F931F93CF9393
:10226000DF930AED1FE0C0E0D0E08091510290E0E2
:102270000C2E02C0959587950A94E2F780FF3CC02A
:10228000F801C080D180E280F3805E01AA0CBB1C03
:10229000AA0CBB1C88E69EE0A80EB91EF5012081A1
:1022A000318142815381C701B6010E94E65E20E080
:1022B00030E0A9010E944B5FF5012081318142810C
:1022C000538187FD2BC0C701B6010E94E65E472FF0
:1022D000382F292F862F942FA32FB22FBC01CD0189
:1022E00020914D0230914E0240914F025091500288
:1022F0000E9432611816C4F0219607581F4FC33050
:10230000D10509F0B2CFDF91CF911F910F91FF90CE
:10231000EF90DF90CF90BF90AF900895C701B601C6
:102320000E94E65E9058DCCF0091DA0F1091DB0F2F
:102330002091DC0F3091DD0F0093680E1093690E31
:1023400020936A0E30936B0E4091531050915410AD
:10235000609155107091561040936C0E50936D0E15
:1023600060936E0E70936F0E8091CC109091CD1093
:10237000A091CE10B091CF108093700E9093710EFB
:10238000A093720EB093730EE4E2E093502BE7E15A
:10239000E093512BC0905902D0905A02E0905B021A
:1023A000F0905C02C092522BD092532BE092542BAF
:1023B000F092552B0093562B1093572B2093582BAC
:1023C0003093592B40935A2B50935B2B60935C2B8B
:1023D00070935D2B80935E2B90935F2BA093602B6B
:1023E000B093612B8091451190914611A0914711B6
:1023F000B09148118093622B9093632BA093642B30
:10240000B093652B1092662B80E59BE2DF91CF9114
:102410001F910F91FF90EF90DF90CF90BF90AF9002
:102420000C94E910EF92FF920F931F93CF93DF93D9
:1024300000D000D000D0CDB7DEB70E94DB0A0091FB
:10244000740E1091750E1A83098360917B0F709141
:102450007C0F7C836B834091A10F5091A20F5E8310
:102460004D83FE01319680E090E02091520230E0F1
:10247000082E02C0359527950A94E2F720FF15C073
:10248000DC01AA0FBB1FAC56B04F2D913C911197A8
:10249000ED90FC90A0914B02B0914C0220813181D3
:1024A0002E193F09A217B30790F001963296833098
:1024B0009105D9F626960FB6F894DEBF0FBECDBFB4
:1024C000DF91CF911F910F91FF90EF90089510939E
:1024D000950F0093940F7093970F6093960F5093FE
:1024E000990F4093980F85E28093502B8DE0809355
:1024F000512B8091590290915A02A0915B02B091A8
:102500005C028093522B9093532BA093542BB09347
:10251000552B1093562B0093572B7093582B609389
:10252000592B50935A2B40935B2B10925C2B80E5D8
:102530009BE226960FB6F894DEBF0FBECDBFDF91AB
:10254000CF911F910F91FF90EF900C94E910E091C3
:102550006502E11103C0F894E09165027FEF54E158
:1025600044E2F999FECF2AE030E000002150310921
:10257000E1F792BD81BD70BD5FBBF99AF999FECFBD
:102580002AE030E0000021503109E1F760BD4FBB87
:10259000F99AF999FECF92BD81BDF89A20B56213E0
:1025A000E0CFE11101C078940895209165022111D6
:1025B00003C0F89420916502F999FECF92BD81BDC8
:1025C000F89A211101C0789480B50895EF92FF9296
:1025D0000F931F93CF93DF938C01F89481E0809346
:1025E0006502141615066CF4EB017B01E40EF51E72
:1025F0006991C8010E94A7120F5F1F4FCE15DF051A
:10260000B9F7109265027894DF91CF911F910F91E5
:10261000FF90EF900895EF92FF920F931F93CF9347
:10262000DF93F89421E0209365021416150684F4D4
:10263000EB017B01E40EF51E8C01061B170BC80194
:102640008C0F9D1F0E94D5128993CE15DF05B9F717
:10265000109265027894DF91CF911F910F91FF90B6
:10266000EF9008951F920F920FB60F9211240BB6A0
:102670000F922F923F924F925F926F927F928F9222
:102680009F92AF92BF92CF92DF92EF92FF920F9301
:102690001F932F933F934F935F936F937F938F93EA
:1026A0009F93AF93BF93EF93FF93CF93DF9300D0AC
:1026B00000D0CDB7DEB7809180028F5F809380021B
:1026C000833008F463C01092800240918102E42FAD
:1026D000F0E08091780090E0EE0FFF1FE857FE4E8B
:1026E000918380838081918150917900352F33705F
:1026F00020E0822B932B91838083809149029091DB
:102700004A02892B41F08091470290914802892B1F
:1027100011F04730F1F14F5F40938102483008F0EB
:102720008CC280917C00807E80937C0080917C00B4
:1027300090918102892B80937C000F900F900F90D5
:102740000F90DF91CF91FF91EF91BF91AF919F914A
:102750008F917F916F915F914F913F912F911F9139
:102760000F91FF90EF90DF90CF90BF90AF909F9030
:102770008F907F906F905F904F903F902F900F9031
:102780000BBE0F900FBE0F901F9018958111D5CFE3
:102790009CCF609194117091951180909C0F9090B6
:1027A0009D0FA0909E0FB0909F0F882777FD80957A
:1027B000982F0E94ED5FA50194010E94366120E0F0
:1027C00030E040E85AE30E94366123E333E343E319
:1027D0005FE30E94E65E8B017C0120E030E0A9010E
:1027E000712F9F2D0E944B5F87FD2AC22DEC3CEC80
:1027F0004CE45EE3602F712F8E2D9F2D0E944B5F66
:1028000087FDEBC06091921170919311882777FD3D
:102810008095982F0E94ED5F9B01AC01C501B4012A
:102820000E94366120E030E040E85AE30E943661C1
:1028300023E333E343E35FE30E94E65EF62EE72EF5
:10284000182F092F20E030E0A901D701F8016B2FE4
:102850007A2F8F2F9E2F0E944B5F87FD1BC22DEC7E
:102860003CEC4CE45EE3D701F8016B2F7E2D8F2FFB
:10287000902F0E944B5F87FDB0C02090680230907F
:102880006902B101882777FD8095982F0E94ED5F3E
:1028900020916E0230916F0240917002509171024E
:1028A0000E943661F62EE72ED82EC92E6091941123
:1028B000709195110091921110919311882777FDD5
:1028C0008095982F0E94ED5FA50194010E943661CA
:1028D00020E030E040E85AE30E9436612B013C01E1
:1028E000B801882777FD8095982F0E94ED5FA5019C
:1028F00094010E94366120E030E040E85AE30E94F3
:1029000036619B01AC01C301B2010E94E65E20E08A
:1029100030E0A9010E944B5F87FD01C260919411D4
:10292000709195110091921110919311882777FD64
:102930008095982F0E94ED5FA50194010E94366159
:1029400020E030E040E85AE30E9436612B013C0170
:10295000B801882777FD8095982F0E94ED5FA5012B
:1029600094010E94366120E030E040E85AE30E9482
:1029700036619B01AC01C301B2010E94E65E9B017E
:10298000AC010E94E75E2FEF221A320A262F372F62
:10299000482F592FD701F6016B2F7E2D8F2F9C2D9D
:1029A0000E94E75E6B017C01B101882777FD80956D
:1029B000982F0E94ED5F9B01AC01C701B6010E94F8
:1029C000525F60936E0270936F02809370029093D7
:1029D000710230926902209268020091800F10917A
:1029E000810F000F111FF801E857FE4E60817181C1
:1029F000882777FD8095982F0E94ED5F9B01AC01A1
:102A0000C501B4010E94366120E030E040E85AE39D
:102A10000E94366123E333E343E35FE30E94E65E13
:102A20007B016C0120E030E0A9017F2D9D2D0E94EB
:102A30004B5F87FD13C12DEC3CEC4CE45EE36E2D47
:102A40007F2D8C2D9D2D0E944B5F87FDF6C0E09061
:102A5000820FF090830FEE0CFF1CF701E857FE4E3B
:102A600060817181882777FD8095982F0E94ED5FA6
:102A70009B01AC01C501B4010E94366120E030E049
:102A800040E85AE30E94366123E333E343E35FE324
:102A90000E94E65E762E672ED82EC92E20E030E00A
:102AA000A901D301F6016B2F7A2F8F2F9E2F0E9441
:102AB0004B5F87FDE0C02DEC3CEC4CE45EE3D301C2
:102AC000F6016B2F762D8F2F9C2D0E944B5F87FD7B
:102AD000B4C020916602309167023C832B83B90118
:102AE000882777FD8095982F0E94ED5F20916A02DC
:102AF00030916B0240916C0250916D020E943661E0
:102B000069837A833C0108571E4EF8016081718108
:102B100028E831E1E20EF31EF701C080D18088275A
:102B200077FD8095982F0E94ED5FA50194010E948A
:102B3000366120E030E040E85AE30E9436611B0134
:102B40002C01B601882777FD8095982F0E94ED5FB4
:102B5000A50194010E94366120E030E040E85AE38C
:102B60000E9436619B01AC01C201B1010E94E65E88
:102B700020E030E0A9010E944B5F87FD9BC0F80177
:102B800060817181F70100811181882777FD80952F
:102B9000982F0E94ED5FA50194010E94366120E00C
:102BA00030E040E85AE30E9436616B017C01B801D5
:102BB000882777FD8095982F0E94ED5FA5019401ED
:102BC0000E94366120E030E040E85AE30E9436611E
:102BD0009B01AC01C701B6010E94E65E9B01AC01FE
:102BE0000E94E75E0B811C810F5F1F4F262F372F3E
:102BF000482F592FB981AA816B2F7A2F862D972DB7
:102C00000E94E75E6B017C01B801882777FD809503
:102C1000982F0E94ED5F9B01AC01C701B6010E9495
:102C2000525F60936A0270936B0280936C02909380
:102C30006D0210936702009366021092810271CDBB
:102C40002DEC3CEC4CE45EEB602F712F8E2D9F2D14
:102C50000E94326118160CF4C0CED4CD2DEC3CECA1
:102C60004CE45EEB6E2D7F2D8C2D9D2D0E943261EC
:102C700018161CF3ECCE2DEC3CEC4CE45EEBD301CF
:102C8000F6016B2F762D8F2F9C2D0E943261181626
:102C9000A4F21FCF2DEC3CEC4CE45EEBD701F80125
:102CA0006B2F7E2D8F2F902F0E94326118160CF4FF
:102CB00094CEE3CDF80160817181F701008111812B
:102CC000882777FD8095982F0E94ED5FA5019401DC
:102CD0000E94366120E030E040E85AE30E9436610D
:102CE0006B017C01B801882777FD8095982F0E94A1
:102CF000ED5FA50194010E94366120E030E040E8DC
:102D00005AE30E9436619B01AC01C701B6010E94E3
:102D1000E65E90589B01AC010E94E75E63CF609134
:102D2000941170919511009192111091931188272F
:102D300077FD8095982F0E94ED5FA50194010E9478
:102D4000366120E030E040E85AE30E9436612B0112
:102D50003C01B801882777FD8095982F0E94ED5F90
:102D6000A50194010E94366120E030E040E85AE37A
:102D70000E9436619B01AC01C301B2010E94E65E74
:102D800090589B01AC010E94E75EFDCD8F929F920F
:102D9000AF92BF92CF92DF92EF92FF920F931F9369
:102DA000CF93DF9384EE91E0E4EAFFE0DF019C0142
:102DB0001D9221503040E1F720E030E009E741E288
:102DC000842E41E3942E48E9A42E44E4B42E50E529
:102DD000C52E57E7D52E56EDE52E5DE3F52E4FEFC8
:102DE0005FEFBA01CFEFDFEF10E883EF96E6AFEDCC
:102DF000BFE3029FF001039FF00D1124EC55F04F4B
:102E00001082118212821382148285829682A78296
:102E1000B086C186D286E386F48615861686178626
:102E2000108A128A118A148A138A158A168A178AB6
:102E3000108E118E138E128E448F558F668F778F62
:102E4000D1A3C0A312A386A397A3A0A7B1A712AA38
:102E500013AA14AA15AA13AE12AEEF59FF4F10828F
:102E60001182128213822F5F3F4F2330310509F602
:102E700080917D0F823039F185EA9FE9AFECBFE3A5
:102E80008093760290937702A0937802B0937902B0
:102E90008093720290937302A0937402B0937502B0
:102EA00086E194E00E94D512813A11F1DF91CF9131
:102EB0001F910F91FF90EF90DF90CF90BF90AF9058
:102EC0009F908F90089582E79CE6ACE9BFE38093E2
:102ED000760290937702A0937802B0937902809360
:102EE000720290937302A0937402B0937502DECFC6
:102EF00044E050E066E772E087E194E00E940B1343
:102F000044E050E062E772E08BE194E0DF91CF9122
:102F10001F910F91FF90EF90DF90CF90BF90AF90F7
:102F20009F908F900C940B130F931F93CF93DF936D
:102F30002BED3FE049EC50E40E942F608B01D82F2D
:102F4000C92F2BED3FE049E450E4FE01712F8F2F94
:102F50009E2F0E943261181674F42BED3FE049EC6D
:102F600050E4FE01602F712F8F2F9E2F0E94E65E8E
:102F70008B01D82FC92F2BED3FE049E450ECFE0127
:102F8000602F712F8F2F9C2F0E944B5F87FF0EC0E9
:102F90002BED3FE049EC50E4FE01602F712F8F2FA5
:102FA0009C2F0E94E75E8B01D82FC92F9E01602FB6
:102FB000712F832F9C2FDF91CF911F910F91089537
:102FC0002F923F924F925F926F927F928F929F9239
:102FD000AF92BF92CF92DF92EF92FF920F931F9327
:102FE000CF93DF93CDB7DEB728970FB6F894DEBF47
:102FF0000FBECDBF9C838B838091940290919502EC
:10300000892B09F40DC18B819C818130910509F4D4
:10301000A6C00CF481C004970CF07EC08091800F94
:103020000E944D0D4B015C018091820F0E944D0D5D
:103030002B013C01C0907202D0907302E0907402A8
:10304000F090750220E030E040E05FE3C701B60198
:103050000E94366168877F831C01762F6F81272F3E
:10306000362F422D532DC501B4010E94E65E6983BF
:103070007A838C014B015C018091960290919702BA
:103080008130910509F491C1029709F467C220E0EB
:1030900030E04AEA53E4C501B4010E943661A70159
:1030A00096010E94525F382F292F862F972FA32F2A
:1030B000B22FBC01CD0190582BED3FE049E450E424
:1030C0000E94366120E030E044E353E40E94525F06
:1030D0002091591030915A1040915B1050915C1022
:1030E0000E94E75E28960FB6F894DEBF0FBECDBFF4
:1030F000DF91CF911F910F91FF90EF90DF90CF90D4
:10310000BF90AF909F908F907F906F905F904F9007
:103110003F902F900C9494170E94690B50E040E070
:1031200030E82FEB652F742F832F922F28960FB640
:10313000F894DEBF0FBECDBFDF91CF911F910F91ED
:10314000FF90EF90DF90CF90BF90AF909F908F90C7
:103150007F906F905F904F903F902F90089586E002
:103160000E944D0D4B015C0185E00E944D0D2B012D
:103170003C01C0907602D0907702E0907802F09007
:10318000790220E030E040E05FE3C701B6010E9431
:10319000366168877F831C01762F6F81272F362F3A
:1031A000422D532DC501B4010E94E65E69837A83E6
:1031B0008C014B015C0180919402909195028130C9
:1031C000910509F455C1029709F4D9C120E030E016
:1031D0004AEA53E4C501B4010E943661A701960191
:1031E0000E94525F382F292F862F972FA32FB22F9F
:1031F000BC01CD0190582BED3FE049E450E40E9422
:10320000366120E030E044E353E40E94525F2091B5
:10321000E00F3091E10F4091E20F5091E30F60CF4A
:1032200086E00E944D0D6B017C0120E030E040E023
:103230005FE36091760270917702809178029091BD
:1032400079020E9436619B01AC01C701B6010E9460
:10325000E65E1B018C012B013C0185E00E944D0DB7
:103260006B017C0120E030E040E05FE3609176029A
:103270007091770280917802909179020E94366174
:103280009B01AC01C701B6010E94E65E862E972E17
:10329000A82EB92E20E030E0A901B101C8010E949A
:1032A0004B5F87FD56C120E030E0A901C501B401A4
:1032B0000E944B5F87FD48C1A5019401C301B20183
:1032C0000E944B5F87FD63C082E090E0909395027F
:1032D000809394028091800F0E944D0D6B017C01C0
:1032E00020E030E040E05FE3609172027091730291
:1032F00080917402909175020E9436619B01AC012D
:10330000C701B6010E94E65E1B018C012B013C0146
:103310008091820F0E944D0D6B017C0120E030E016
:1033200040E05FE3609172027091730280917402D9
:10333000909175020E9436619B01AC01C701B601F4
:103340000E94E65E862E972EA82EB92E20E030E051
:10335000A901B101C8010E944B5F87FDF0C020E0C8
:1033600030E0A901C501B4010E944B5F87FDE2C0B6
:10337000A5019401C301B2010E944B5F87FF0EC0FB
:1033800081E090E090939702809396023CCE81E09A
:1033900090E090939502809394029CCF82E090E01D
:1033A00090939702809396022ECE20E030E0A90100
:1033B000C8010E944B5F87FD29C189819A81D8018C
:1033C0008B839C83AD83BE832DEC3CEC4CE45FE3AC
:1033D000B885AF816B2F7A2F822D932D0E94366195
:1033E00069837A83182F092F762F6A81C801272FC6
:1033F000362F492F582F6B817C818D819E810E94B1
:10340000326118160CF043CE82E090E09093970260
:103410008093960278856F81272F362F422D532D6A
:10342000C301B2010E94E65E1B018F839B832B01C7
:103430003C0120E030E0A9010E944B5F87FDDAC02B
:10344000C101AF81BB81BC01CD01B981AA81F80165
:103450002B2F3A2F4F2F502F0E94326118160CF04D
:10346000B2C081E090E090939702809396020FCED5
:1034700020E030E0A901C8010E944B5F87FDBEC07B
:1034800089819A81D8018B839C83AD83BE832DEC87
:103490003CEC4CE45FE3B885AF816B2F7A2F822D33
:1034A000932D0E94366169837A83182F092F762F16
:1034B0006A81C801272F362F492F582F6B817C81B5
:1034C0008D819E810E94326118160CF07FCE82E0C1
:1034D00090E0909395028093940278856F81272FD6
:1034E000362F422D532DC301B2010E94E65E1B010F
:1034F0008F839B832B013C0120E030E0A9010E94D7
:103500004B5F87FD73C0C101AF81BB81BC01CD01A1
:10351000B981AA81F8012B2F3A2F4F2F502F0E94EB
:1035200032611816ECF581E090E09093950280935B
:1035300094024CCEB7FAB094B7F8B09419CF77FA9A
:10354000709477F870940BCFB7FAB094B7F8B09442
:10355000B3CE77FA709477F87094A5CE2DEC3CEC4E
:103560004CE45FE3B885AF816B2F7A2F822D932DCA
:103570000E94366169837A83182F092F4BCF2DEC77
:103580003CEC4CE45FE3B885AF816B2F7A2F822D42
:10359000932D0E94366169837A83182F092F9DCF5E
:1035A00020E030E04AEA53E4C301B2010E943661F0
:1035B000A70196010E94525F20E030E044E353E40B
:1035C0000E94E75E0FCE20E030E04AEA53E4C301F8
:1035D000B2010E943661A70196010E94525F20E06D
:1035E00030E044E353E40E94E75E5DCDC301B201E5
:1035F00090588ECFC301B201905827CFD501C40196
:10360000B0588B839C83AD83BE8341CFD501C40169
:10361000B0588B839C83AD83BE83D6CE20917A0E27
:103620002230F9F0233019F1019729E7289FF001A2
:10363000299FF00D1124EC55F04F82E080834183E7
:10364000528363837483128A118A8DE491E0A0E02F
:10365000B0E0848F958FA68FB78F20E030E0C9014E
:1036600008958230910501F72FEF3FEFF8CF8330B7
:103670009105D1F6F9CF2F923F924F925F926F92C0
:103680007F928F929F92AF92BF92CF92DF92EF92F2
:10369000FF920F931F93CF93DF93CDB7DEB72C9795
:1036A0000FB6F894DEBF0FBECDBF5C012A013B010F
:1036B000680179011C0121E0221A310889E7829D05
:1036C000F001839DF00D1124EC55F04F8CE29CEE3F
:1036D000AAECB3E485839683A783B087118612860C
:1036E0001386148610917A0E123009F406C1133035
:1036F00009F40BC120E030E0A901C701B6010E9426
:103700004B5F882309F4CEC089E7829DD001839D59
:10371000B00D1124AC55B04FBC87AB87D6968D91B8
:103720009D910D90BC91A02D8A839B83AC83BD831A
:103730009C01AD01C301B2010E94E65E6983872E40
:10374000982E092F20E030E0A9010E944B5F87FDF1
:10375000ACC023EC38EB42E35EE3B9816B2F782DEC
:10376000892D902F0E944B5F87FDADC020E030E097
:10377000A901C701B6010E944B5F87FDD6C0A70112
:103780009601B9816B2F782D892D902F0E94525F61
:1037900020E030E04AE754E40E9436616E83A72EB1
:1037A000B82E192F20E030E0A901B9816B2F782DB8
:1037B000892D902F0E94326118160CF0E7C0AB855E
:1037C000BC85D296CD92DD92ED92FC92D59789E799
:1037D000829DF001839DF00D1124EC55F04F82A9DC
:1037E00093A9A4A9B5A986A797A7A0ABB1AB8A81D5
:1037F0009B81AC81BD81EB85FC8581839283A38312
:10380000B483158616861786108A20E030E040E7DC
:1038100051E4BE816B2F7A2D8B2D912F0E94525F28
:103820005B018C016B017C0120E030E0A9010E946A
:103830004B5F87FDA5C0B501C8010E94BA5FCB01EF
:10384000AA2797FDA095BA2FEB85FC85848F958FCD
:10385000A68FB78F128A118A468A578A608E718E18
:1038600081E090E0938F828F83E0808320E030E0DE
:10387000C9012C960FB6F894DEBF0FBECDBFDF9105
:10388000CF911F910F91FF90EF90DF90CF90BF905D
:10389000AF909F908F907F906F905F904F903F90F0
:1038A0002F90089520E030E0E3CF23EC38EB42E3A3
:1038B0005EEBB9816B2F782D892D902F0E9432619C
:1038C00018160CF053CF123059F1133021F182E069
:1038D000AB85BC858C93FD014182528263827482E8
:1038E000128A118A8DE491E0A0E0B0E0848F958F78
:1038F000A68FB78F20E030E0BBCF32E0A316B10433
:1039000009F0F8CE2FEF3FEFB3CF83E0A816B10454
:1039100009F0F0CEF7CFE3E0AE16B104C1F6F2CF76
:10392000B2E0AB16B10499F6EDCFD701C601B0589D
:103930008F839887A987BA879C01AD01B9816B2FC6
:10394000782D892D902F0E94525F20E030E04AE7C9
:1039500054E40E9436616E83A72EB82E192F20E002
:1039600030E0A901B9816B2F782D892D902F0E940D
:10397000326118167CF4CF80D884E984FA841FCF92
:10398000C701B60190580E94BA5F59CFF7FAF09478
:10399000F7F8F094EB85FC85C2AAD3AAE4AAF5AAAD
:1039A00016CF2F923F924F925F926F927F928F929B
:1039B0009F92AF92BF92CF92DF92EF92FF920F93BE
:1039C0001F93CF93DF93CDB7DEB72C970FB6F89444
:1039D000DEBF0FBECDBF5C012A013B01680179014A
:1039E0001C0121E0221A310889E7829DF001839DA4
:1039F000F00D1124EC55F04F8CE29CEEAAECB3E4F0
:103A000085839683A783B0871186128613861486D2
:103A100010917A0E123009F41EC1133009F423C13B
:103A200020E030E0A901C701B6010E944B5F882366
:103A300009F4E6C089E7829DD001839DB00D112471
:103A4000AC55B04FBC87AB87D6968D919D910D90AC
:103A5000BC91A02D8A839B83AC83BD83EB85FC85C1
:103A600062AD73AD882777FD8095982F0E94ED5F3A
:103A70002BED3FE049EC50E40E9436619B01AC0124
:103A80006A817B818C819D810E94E75E9B01AC01F4
:103A9000C301B2010E94E65E6983872E982E092F2A
:103AA00020E030E0A9010E944B5F87FDACC023EC11
:103AB00038EB42E35EE3B9816B2F782D892D902F8F
:103AC0000E944B5F87FDADC020E030E0A901C70137
:103AD000B6010E944B5F87FDD6C0A7019601B98150
:103AE0006B2F782D892D902F0E94525F20E030E0BF
:103AF0004AE754E40E9436616E83A72EB82E192F30
:103B000020E030E0A901B9816B2F782D892D902F0D
:103B10000E94326118160CF0E7C0AB85BC85D296C6
:103B2000CD92DD92ED92FC92D59789E7829DF001CE
:103B3000839DF00D1124EC55F04F82A993A9A4A9FF
:103B4000B5A986A797A7A0ABB1AB8A819B81AC81B1
:103B5000BD81EB85FC8581839283A383B483158625
:103B600016861786108A20E030E040E751E4BE81D7
:103B70006B2F7A2D8B2D912F0E94525F5B018C0150
:103B80006B017C0120E030E0A9010E944B5F87FDC2
:103B9000A5C0B501C8010E94BA5FCB01AA2797FD55
:103BA000A095BA2FEB85FC85848F958FA68FB78F54
:103BB000128A118A468A578A608E718E81E090E05F
:103BC000938F828F83E0808320E030E0C9012C96C0
:103BD0000FB6F894DEBF0FBECDBFDF91CF911F911E
:103BE0000F91FF90EF90DF90CF90BF90AF909F909C
:103BF0008F907F906F905F904F903F902F9008959F
:103C000020E030E0E3CF23EC38EB42E35EEBB98118
:103C10006B2F782D892D902F0E94326118160CF091
:103C200053CF123059F1133021F182E0AB85BC85BE
:103C30008C93FD014182528263827482128A118ABE
:103C40008DE491E0A0E0B0E0848F958FA68FB78FD0
:103C500020E030E0BBCF32E0A316B10409F0E0CEA3
:103C60002FEF3FEFB3CF83E0A816B10409F0D8CE11
:103C7000F7CF23E0A216B104C1F6F2CFF2E0AF16FF
:103C8000B10499F6EDCFD701C601B0588F8398875C
:103C9000A987BA879C01AD01B9816B2F782D892D39
:103CA000902F0E94525F20E030E04AE754E40E94E7
:103CB00036616E83A72EB82E192F20E030E0A901BF
:103CC000B9816B2F782D892D902F0E9432611816A3
:103CD0007CF4CF80D884E984FA841FCFC701B60171
:103CE00090580E94BA5F59CFF7FAF094F7F8F09421
:103CF000EB85FC85C2AAD3AAE4AAF5AA16CF2F9217
:103D00003F924F925F926F927F928F929F92AF926B
:103D1000BF92CF92DF92EF92FF920F931F93CF93B8
:103D2000DF93CDB7DEB72C970FB6F894DEBF0FBE8A
:103D3000CDBF5C0149835A836B837C8328013901A1
:103D40004C0181E0881A910889E7889DF001899DDE
:103D5000F00D1124EC55F04F8CE29CEEAAECB3E48C
:103D600085839683A783B08711861286138614866F
:103D700010917A0E123009F4F5C0133009F4FAC02C
:103D800089E7889D1001899D300C1124E4EAFFE049
:103D90002E0E3F1ED101D6968D919D910D90BC9116
:103DA000A02D8D839E83AF83B8879C01AD0169816F
:103DB0007A818B819C810E94E65E0E9494176B0140
:103DC0007C0120E030E0A9010E944B5F87FDA0C08C
:103DD00023EC38EB42E35EE3C701B6010E944B5F80
:103DE00087FDA1C020E030E0A901C301B2010E941B
:103DF0004B5F87FDC5C0A3019201C701B6010E94B8
:103E0000525F20E030E04AE754E40E943661062F1A
:103E1000A72EB82E192F20E030E0A901C701B60166
:103E20000E94326118160CF0DDC0D101D2964D927D
:103E30005D926D927C92D59789E7889DF001899D6E
:103E4000F00D1124EC55F04F82A993A9A4A9B5A9AE
:103E500086A797A7A0ABB1AB8D819E81AF81B885B6
:103E6000F10181839283A383B48315861686178616
:103E7000108A20E030E040E751E4602F7A2D8B2D4E
:103E8000912F0E94525F5B018C016B017C0120E04D
:103E900030E0A9010E944B5F87FD9DC0B501C801BC
:103EA0000E94BA5FCB01AA2797FDA095BA2FF10116
:103EB000848F958FA68FB78F128A118A89819A81F4
:103EC000AB81BC81868B978BA08FB18F81E090E016
:103ED000938F828F83E0808320E030E0C9012C96AD
:103EE0000FB6F894DEBF0FBECDBFDF91CF911F910B
:103EF0000F91FF90EF90DF90CF90BF90AF909F9089
:103F00008F907F906F905F904F903F902F9008958B
:103F100023EC38EB42E35EEBC701B6010E9432614D
:103F200018160CF05FCF123009F44FC0133009F4AB
:103F300063C082E0D1018C9389819A81AB81BC817D
:103F4000F10181839283A383B483128A118A8DE461
:103F500091E0A0E0B0E0848F958FA68FB78F20E02E
:103F600030E0BCCF92E0A916B10409F009CF2FEFE1
:103F70003FEFB4CFA3E0AA16B10409F001CFF7CF09
:103F8000D301C201B05889879A87AB87BC879C014F
:103F9000AD01C701B6010E94525F20E030E04AE760
:103FA00054E40E943661062FA72EB82E192F20E068
:103FB00030E0A901C701B6010E9432611816B4F4BD
:103FC00049845A846B847C8430CFB2E0AB16B10450
:103FD00009F0AFCFCCCFC701B60190580E94BA5FAD
:103FE000CB0161CF77FA709477F87094F10142AA0F
:103FF00053AA64AA75AA20CFE3E0AE16B10409F073
:1040000098CFB5CF20917A0E223049F1233091F12B
:10401000019729E7289FF001299FF00D1124EC5505
:10402000F04F2081223001F1233021F0213011F0B6
:1040300080E0089529E7289FF001299FF00D1124C1
:10404000EC55F04F20E030E0A90162A973A984A9E2
:1040500095A90E94326118168CF481E0089582308F
:104060009105B1F68FEF089581899289892BA9F383
:1040700083E008958330910559F6F4CF82E00895E6
:104080006235A9F0633581F0663459F0A098A198A3
:1040900020E1829FC00111249093890080938800C1
:1040A0000895A09AA198F4CFA09AA19AF1CFA098D0
:1040B000A19AEECF6235A9F0633581F0663459F0EC
:1040C000A298A59820E1829FC001112490938B00B3
:1040D00080938A000895A29AA598F4CFA29AA59AEF
:1040E000F1CFA298A59AEECF0F931F938A019B015F
:1040F00077FD28C0F8010F3F110519F010F0EFEF20
:10410000F0E08130910591F074F0049764F477FD4C
:1041100033C0452B462B472BE9F066E48E2F1F91C9
:104120000F910C945A201F910F91089577FD1EC096
:10413000452B462B472BA1F066E48E2F1F910F9144
:104140000C944020002711279801041B150B260B07
:10415000370BD0CF6EE48E2F1F910F910C945A2005
:104160006EE48E2F1F910F910C94402062E58E2FEC
:104170001F910F910C94402062E58E2F1F910F919B
:104180000C945A20CF93DF939C012150310949E7C9
:10419000429FE001439FD00D1124CC55D04F1EA665
:1041A0001FA618AA19AA4D89413061F14230E1F0E9
:1041B000442309F471C0433011F54881423009F4B9
:1041C00063C0433009F470C049E7429FF001439F48
:1041D000F00D1124EC55F04F46A957A960AD71AD13
:1041E000DF91CF910C940E1B20E030E0A9016EA16D
:1041F0007FA188A599A50E944B5F81112AC0DF91FC
:10420000CF91089520E030E0A9016EA17FA188A59B
:1042100099A50E944B5F882391F383E088838FEFF9
:104220009FEFDC018C8F9D8FAE8FBF8F8EA99FA9D2
:10423000A8ADB9AD89839A83AB83BC838EA19FA1BE
:10424000A8A5B9A58AAB9BABACABBDABDF91CF91B9
:10425000089583E088838FEF9FEFDC018C8F9D8F23
:10426000AE8FBF8F8EA99FA9A8ADB9AD89839A8360
:10427000AB83BC838EA19FA1A8A5B9A5B0588AAB7A
:104280009BABACABBDABBBCF49895A89452B09F47D
:104290009BCF1C8A1B8AB3CF188240E050E0BA0142
:1042A000DF91CF910C94742049815A816B817C817C
:1042B000DF91CF910C940E1B2F923F924F925F9201
:1042C0006F927F928F929F92AF92BF92CF92DF9226
:1042D000EF92FF920F931F93CF93DF93CDB7DEB78B
:1042E000AC970FB6F894DEBF0FBECDBF86ED9FE052
:1042F0009E838D8374EA472E7FE0572EE4E86E2E6E
:10430000E2E07E2EA6ECBFE0B88BAF87E4EEFFE0E4
:10431000F887EF83FAED2F2EFFE03F2E84EC9FE02D
:104320009E878D87A9EBBFE0BC87AB87E1E1F0E119
:10433000FC8BEB8B89E090E19E8B8D8BAFEEBFE029
:10434000BA87A987E2EDFFE0FA8BE98B8EED9FE05B
:104350009C838B83A2E0B0E0BA83A983812C912C4B
:10436000830138A62FA212012401BFEF4B1A5B0A6A
:104370000E94E15480917A0E823009F4E9C1D101A2
:104380001596CD90DD90ED90FC90189721E231E3E9
:1043900048E954E4C701B6010E944B5F87FF0DC096
:1043A0002FE33EEC42E451E4C701B6010E94E75E10
:1043B000F1016583768387839087D1011996CD902B
:1043C000DD90ED90FC901C9720E537E746ED5DE32E
:1043D000C701B6010E944B5F87FF0DC02FE132E499
:1043E00049E85AE3C701B6010E94E75EF10161871F
:1043F000728783879487C2010E94E0173B015C01AA
:10440000862F972DAA2DBB2DEFA1F8A58083918330
:10441000A283B383188F0F8B8F011DC080918202FE
:10442000909183020B977CF5C2010E94E0173B013B
:104430005C01862F972DAA2DBB2DF80180839183D7
:10444000A283B3838091820290918302019690931C
:10445000830280938202AF89B88DCD90DD90ED907C
:10446000FC90A7019601662D772D8A2D9B2D0E9429
:10447000E65E0E94941723EC38EB42E35EE30E9471
:10448000326118165CF2C8010F89188D98A78FA3A6
:10449000109283021092820220E030E040E250EC61
:1044A000662D772D8A2D9B2D0E944B5F87FF0EC1B5
:1044B00020E030E040E250E4C701B6010E943261E2
:1044C00018160CF003C1EB81FC818081918101966B
:1044D00091838083AFA1B8A56C9011967C901197C1
:1044E0001296AC9012971396BC90862D972DAA2DFC
:1044F000BB2DF80180839183A283B383D1018C917A
:10450000833009F459C308F0FEC0813009F43CC37C
:1045100008F067C0F101848D958DA68DB78D009749
:10452000A105B10509F4A6C40CF4F4C00197A109D2
:10453000B109F101848F958FA68FB78FE981FA8138
:10454000349709F4ECC0E981FA813196FA83E98362
:104550008D819E8187589F4F9E838D8399E7290E79
:10456000311C0C5F1F4FAF85B889A758BF4FB88B60
:10457000AF87EF81F885E758FF4FF887EF838FA16A
:1045800098A587589F4F98A78FA3AD85BE85A7583C
:10459000BF4FBE87AD87EB85FC85E758FF4FFC8793
:1045A000EB878B899C8987589F4F9C8B8B8BAD8920
:1045B000BE89A758BF4FBE8BAD8BE985FA85E758FA
:1045C000FF4FFA87E98789899A8987589F4F9A8B85
:1045D000898BAB81BC81A758BF4FBC83AB834201A1
:1045E000C3CEF101848D958DA68DB78D0097A10561
:1045F000B10509F493C19CF00197A109B109F1013A
:10460000848F958FA68FB78FAFA1B8A56C901196A8
:104610007C9011971296AC9012971396BC90262D11
:10462000372D4A2D5B2DF101618172818381948147
:104630000E94E65E0E9494176B017C0120E030E04E
:10464000A9010E944B5F87FDEBC323EC38EB42EBE3
:104650005DE3C701B6010E944B5F87FDECC3D1014A
:1046600051968D919C915297892B09F465C120E058
:1046700030E0A901C701B6010E944B5F87FDDEC48F
:10468000C701B60120917C0230917D0240917E02EB
:1046900050917F020E94326118160CF04DC1EF81DB
:1046A000F88520812F5F208330E080917A029091FD
:1046B0007B028217930708F042C1D1011C9240E0AF
:1046C00050E0BA01C2010E94742024C020E030E012
:1046D00040E250E4662D772D8A2D9B2D0E94326199
:1046E00018160CF002CF20E030E040E250ECC70199
:1046F000B6010E944B5F87FFF8CEEB81FC81808181
:1047000091810197E5CE853009F482C138F1863078
:1047100009F453C1E981FA81349709F014CFAC96BA
:104720000FB6F894DEBF0FBECDBFDF91CF911F91C2
:104730000F91FF90EF90DF90CF90BF90AF909F9040
:104740008F907F906F905F904F903F902F90089543
:10475000E2E04E16510409F012CEF5CE60915902F6
:1047600070915A0280915B0290915C020E94EB5F13
:1047700020E030E04AE754E40E94525F6F8B7B8F69
:104780008F8F98A3F101EF5BFF4F6081772767FD63
:104790007095872F972F0E94ED5F20E030E040E07A
:1047A0005CE30E94366120E030E040EA50E40E9481
:1047B000366120E030E040E05FE30E9436617B013B
:1047C000D82EC92EF9E7F89D3001F99D700C1124FF
:1047D0008BEE9FE0680E791EAA24A394B12C3CA214
:1047E0002BA21EA30DA35AA649A647017CA66BA621
:1047F000B501882777FD8095982F0E94ED5F2BEDFE
:104800003FE049EC50E40E943661BF89AB8DEF8DEB
:1048100018A12B2F3A2F4E2F512F0E94366120E0E6
:1048200030E040E251E40E94525F7B018C017F2D19
:10483000802F912F0E9499611B012C01F301359764
:104840006081772767FD7095872F972F0E94ED5F16
:1048500020E030E040E05CE30E94366120E030E0A0
:1048600040EA50E40E943661A20191010E94366143
:10487000F601282D392D4F2F5C2D0E94E75E1B017C
:104880004C019FEF691A790A6E2D7F2D802F912F91
:104890000E944F5F6B017C01ABA5BCA56C91772793
:1048A00067FD7095872F972F0E94ED5F20E030E025
:1048B00040E05CE30E94366120E030E040EA50E4F2
:1048C0000E943661A70196010E943661222D332D88
:1048D000482D592D0E94E75E4B01D82EC92EBFEFFF
:1048E000AB1ABB0AE5E0AE16B10409F07FCF2BA0EE
:1048F0003CA00DA11EA149A45AA47B019601862FBC
:104900009F2DA32FB22FF10181839283A383B483C0
:10491000128A118A8FEF9FEFDC0172CE8189928912
:10492000892B09F49FC28FEF9FEFDC01F101848F87
:10493000958FA68FB78FEECEEF81F8851082D101CB
:1049400015962D913D914D915C911897C701B60137
:104950000E9436614B015C01F10125853685478552
:10496000508961857285838594850E9436619B019B
:10497000AC01C501B4010E94E75E0E94BA5FAB01C1
:10498000BC01C2010E9474202FE832EC45E75CE3D1
:10499000C701B6010E9436619B01AC01D1011D9691
:1049A0006D917D918D919C9150970E94E75EF101F0
:1049B000658776878787908BADCEA985BA852C9140
:1049C000213009F469C2223009F40BC22111A2CEB0
:1049D0008091590290915A02A0915B02B0915C02C1
:1049E000EB89FC894081518162817381841795072D
:1049F000A607B70708F4AAC3F101E45BFF4F808163
:104A0000882309F416C3E2E0A985BA85EC9382CE27
:104A1000F101848D958DA68DB78D0097A105B10507
:104A200009F4D5C1181619061A061B0644F4019795
:104A3000A109B109F101848F958FA68FB78F2FE857
:104A400032EC45E75CE3AD81BE816D917D918D9146
:104A50009C910E943661F101218132814381548110
:104A60000E94E75EC62ED72EE82EF92ED1011196B0
:104A7000CD92DD92ED92FC921497EFA1F8A52081E2
:104A80003181428153810E94E65E0E9494176B013E
:104A90007C01D10115962D913D914D915C91189716
:104AA0000E9436614B015C01F10125853685478501
:104AB000508961857285838594850E9436619B014A
:104AC000AC01C501B4010E94E75E0E94BA5FAB0170
:104AD000BC01C2010E9474202FE832EC45E75CE380
:104AE000C701B6010E9436619B01AC01D1011D9640
:104AF0006D917D918D919C9150970E94E75EF1019F
:104B0000658776878787908B2FE832EC45E75CE3F3
:104B100062A573A584A595A50E943661AD81BE816D
:104B20002D913D914D915C910E94E75E6B017C015E
:104B300022E93AE046E850E47D2D9F2D0E94326143
:104B400018160CF439C18C2D9D2DAE2DBF2DED8185
:104B5000FE8180839183A283B38322E93AE046E811
:104B600050EC6C2D7D2D8E2D9F2D0E944B5F87FF6D
:104B7000D1CD82E99AE0A6E8B0ECED81FE81808398
:104B80009183A283B383C6CDAB85BC858C918823EA
:104B900009F40FC1813009F442C2EF85F8894081E0
:104BA00050E0519541955109662757FD6095762F44
:104BB000C2010E947420AECDF101848D958DA68D29
:104BC000B78D0097A105B10509F4B5C044F0019770
:104BD000A109B109F101848F958FA68FB78FF101DB
:104BE000EF59FF4F80809180A280B38020E030E0B9
:104BF000A901C501B4010E944B5F882309F4E1C1FA
:104C0000A989BA898D919D910D90BC91A02D8F8B12
:104C1000988FA98FBA8F20E030E0A901BC01CD01A7
:104C20000E944B5F87FDF1C28F89988DA98DBA8D47
:104C30008B8F9C8FAD8FBE8FAD81BE81CD90DD906F
:104C4000ED90FC9020E030E0A901C701B6010E9480
:104C50004B5FA701960187FDD6C26B8D7C8D8D8D34
:104C60009E8D0E94326118160CF046C2E989FA89BD
:104C7000C082D182E282F3822FE832EC45E75CE326
:104C8000C701B6010E943661F10121813281438161
:104C900054810E94E75EC62ED72EE82EF92ED10150
:104CA0001196CD92DD92ED92FC921497AFA1B8A52A
:104CB0002D913D914D915C910E94E65E0E9494176A
:104CC0006B017C0120E030E0A9010E944B5F4601AE
:104CD000570187FD9FC160917C0270917D02809198
:104CE0007E0290917F029B01AC010E94E75E9B01D6
:104CF000AC01C501B4010E943261EF81F88518163C
:104D00000CF086C120812F5F208330E080917A02F1
:104D100090917B028217930708F0FCCCD1011C9282
:104D20005B961C921E925A9740E050E0BA01C20175
:104D30000E947420EFCC81E090E0928B818BD101B6
:104D4000158616861786108AED85FE8580819181ED
:104D5000892B09F455C1E2E0D101EC935A968D916B
:104D60009C915B97892B69F056968D919D910D9042
:104D7000BC91A02DF10181839283A383B483138E10
:104D8000128EEFEFFFEFAD85BE85ED93FC93D10161
:104D900053968D919C915497892B09F4C4CD82E44C
:104DA00090E0A0E0B0E0F101848F958FA68FB78FDF
:104DB000B1CCF1011082AECC82E99AE0A6E8B0E471
:104DC000ED81FE8180839183A283B383A3CC8FEF97
:104DD0009FEFDC01848F958FA68FB78F23E0208310
:104DE00021CE8091590290915A02A0915B02B0911C
:104DF0005C02F101EB58FF4F408151816281738168
:104E000084179507A607B70708F41CC1F101208392
:104E10008FEF9FEFDC01848F958FA68FB78F7ACCB1
:104E200023EC38EB42EB5DEBC701B6010E94326127
:104E300018160CF014CCE1E0F0E0D1015296FC938E
:104E4000EE93519753968D919C915497892B09F02D
:104E500035CC8FEF9FEFDC01F101848F958FA68F0A
:104E6000B78FFDCB108240E050E0BA01C2010E9432
:104E7000742050CCAD85BE858C91EB85FC858083FC
:104E8000C2010E94C2208FEF9FEFDC01F101848FED
:104E9000958FA68FB78F3ECC8091590290915A0280
:104EA000A0915B02B0915C02F101EF58FF4F40818D
:104EB00051816281738184179507A607B70708F0AF
:104EC000A2CD6091590270915A0280915B0290913B
:104ED0005C027101F1E5EF0EF11CAB89BC898D908C
:104EE0009D90AD90BC90681979098A099B090E9430
:104EF000EB5F20E030E04AE754E40E94525FED8926
:104F0000FE8920813181428153810E943661D7011F
:104F10002D913D914D915C910E94E75EC62ED72E5A
:104F2000E82EF92EF101C182D282E382F482AFA190
:104F3000B8A52D913D914D915C910E94E65E0E9435
:104F400094176B017C01F1012581368147815085E1
:104F50000E9436614B015C01D1011D962D913D915E
:104F60004D915C91509719966D917D918D919C9189
:104F70001C970E9436619B01AC01C501B4010E94DF
:104F8000E75E0E94BA5FAB01BC01C2010E947420BF
:104F90002FE832EC45E75CE3C701B6010E943661B9
:104FA0009B01AC01F10165857685878590890E941A
:104FB000E75ED1011D966D937D938D939C935097E1
:104FC000A9CB2FE832EC45E75CE3ED81FE816081FF
:104FD0007181828193810E943661D10111962D9158
:104FE0003D914D915C9114970E94E75EC62ED72E9D
:104FF000E82EF92EF101C182D282E382F48256CEEC
:105000001C9240E050E0BA01C2010E947420B9CE67
:10501000108295CCB7FAB094B7F8B0945CCEAF8557
:10502000B8894C9150E060E070E0C2010E947420A9
:1050300071CBE1E0A985BA85EC936CCBC701B601D1
:10504000905820CB6091590270915A0280915B0276
:1050500090915C02F101EF58FF4FC080D180E28057
:10506000F3806C197D098E099F090E94EB5F20E097
:1050700030E04AE754E40E94525FB62EA72E982EE5
:10508000892EF101E35AFF4F208131814281538102
:10509000D501F4016B2F7A2F8F2F9E2F0E9436613E
:1050A000D501F4012B2F3A2F4F2F5E2F0E9436612E
:1050B00020E030E040E05FE30E9436616B017C015C
:1050C000AD89BE892D913D914D915C91D501F40141
:1050D0006B2F7A2F8F2F9E2F0E9436619B01AC0180
:1050E000C701B6010E94E75EF101EB5AFF4F208134
:1050F00031814281538110CFC701B6010E94BF1098
:105100006B017C012FE832EC45E75CE3C501B4019B
:105110000E943661A70196010E9436619B01AC0195
:105120006F89788D898D9A8D0E94E75EC62ED72E65
:10513000E82EF92E462F572F682F792FA989BA8983
:105140004D935D936D937C93139796CD6091590227
:1051500070915A0280915B0290915C02F101E759D3
:10516000FF4FC080D180E280F3806C197D098E09E9
:105170009F090E94EB5F20E030E04AE754E40E9480
:10518000525FF62EE72ED82EC92EF101E75AFF4FB7
:105190002081318142815381D701F6016B2F7A2F13
:1051A0008F2F9E2F0E943661D701F6012B2F3A2FA9
:1051B0004F2F5E2F0E94366120E030E040E05FE339
:1051C0000E943661F101E35BFF4F20813181428112
:1051D00053810E94E75EC62ED72EE82EF92ED1010C
:1051E0001196CD92DD92ED92FC921497EFA1F8A565
:1051F00020813181428153810E94E65E0E94941792
:105200006B017C019CCB505828CD8F89988DA98D3E
:10521000BA8DB0588B8F9C8FAD8FBE8F0DCD1092F5
:10522000B3021092A40F10921D10109296106EE40B
:1052300080E00E9440206EE480E00C945A200197A8
:1052400029E7289FF001299FF00D1124EC55F04F1C
:105250008CE29CEEAAECB3E485839683A783B087A7
:10526000118612861386148608957F928F929F92DC
:10527000AF92BF92CF92DF92EF92FF920F931F9364
:10528000CF93DF9300D000D0CDB7DEB780E190E0C0
:105290000E94D512813A09F444C0A0EECA2EAFE0B4
:1052A000DA2EE12CF12C01E010E0C8010E94E01799
:1052B000DC01CB01B05889839A83AB83BC83F601B0
:1052C00080839183A283B38344E050E0BE016F5F8B
:1052D0007F4FC7010E94E6120F5F1F4FF9E7CF0E05
:1052E000D11C84E0E80EF11C04301105F1F661EAEE
:1052F00080E190E00E94A71221E030E0C9010F9008
:105300000F900F900F90DF91CF911F910F91FF9011
:10531000EF90DF90CF90BF90AF909F908F907F9055
:105320000895B0EEAB2EBFE0BB2E812C912C00E097
:1053300010E089E7782E709EB001719E700D1124E7
:105340006052704F44E050E0C4010E940B13F5011D
:10535000C080D180E280F38020E030E040E450E47F
:10536000C701B6010E944B5F87FF0AC020E030E012
:1053700040E450ECC701B6010E94326118162CF0CF
:10538000F50110821182128213820F5F1F4FF4E029
:105390008F0E911C89E7A80EB11C0430110559F637
:1053A00020E030E0ABCF1092E00F1092E10F1092AE
:1053B000E20F1092E30F1092591010925A101092AF
:1053C0005B1010925C101092D2101092D3101092B9
:1053D000D4101092D51060EA80E190E00E94A712EC
:1053E0000E94352980E090E0089560917A0EE4EA09
:1053F000FFE081E090E020E030E0623099F063303F
:10540000A9F04081442321F041895289452BA9F01C
:105410008330910571F02F5F3F4F0196E758FF4FA2
:10542000623069F72130310561F7F5CF223031055F
:1054300041F720E030E0C901089521E030E0FBCFE2
:105440002F923F924F925F926F927F928F929F9294
:10545000AF92BF92CF92DF92EF92FF920F931F9382
:10546000CF93DF93CDB7DEB76C970FB6F894DEBF5E
:105470000FBECDBF3C011A012B0109831A832B8378
:105480003C8320E030E0A901C201B1010E944B5FE2
:1054900087FDEBC320E030E0A90169817A818B812F
:1054A0009C810E944B5F87FDD6C320E030E0A901BC
:1054B000C701B6010E944B5F87FDC8C3C3010197B6
:1054C0009A87898789E7A985BA858A9F80018B9FFA
:1054D000100D11240C55104FF80126A937A940AD25
:1054E00051ADC501B4010E94E65E862EB72E982EFE
:1054F000A92E862F9B2DA92DBA2D8D839E83AF8338
:10550000B887A2019101C701B6010E94525F6B8763
:105510007C878D879E8729813A814B815C81C70179
:10552000B6010E94525F6D8B7E8B8F8B988FD80156
:1055300052961C921E92519720E030E0A901682DEE
:105540007B2D892D9A2D0E944B5F87FD8FC17B8516
:105550006C859D858E85272F362F492F582FC701A3
:10556000B6010E94366120E030E040E05FE30E9437
:1055700036616F87788B682E998B7D896E899F89BC
:10558000888D272F362F492F582FC701B6010E942B
:10559000366120E030E040E05FE30E9436616A8BD4
:1055A000772E8B8B9C8B762F982F8C89272F372DDE
:1055B000492F582FBF85A889E9896B2F7A2F862D0F
:1055C0009E2F0E94E75E9B01AC01682D7B2D892DEB
:1055D0009A2D0E944B5F87FF98C1882D9B2DA92D86
:1055E000BA2D898F9A8FAB8FBC8FA2019101C20116
:1055F000B1010E94E75E9B01AC0160E070E080E8D1
:105600009FE30E94525F4B015C0129813A814B81EB
:105610005C81CA01B9010E94E75E9B01AC0160E0B8
:1056200070E080E89FE30E94525F9B01AC01C501DE
:10563000B4010E94E75E9B01AC01698D7A8D8B8D70
:105640009C8D0E94525F0E94A3616B017C01A201AC
:1056500091010E94525FB62EA72E982E892E298185
:105660003A814B815C81C701B6010E94525F762E60
:10567000672E8B879C8789E7A985BA858A9F8001D9
:105680008B9F100D11240C55104FF80112AA13AA6C
:1056900014AA15AAE55BFF4F10826D817E818F8170
:1056A00098850E94BF1098012B593F4F3A87298750
:1056B000A70196010E943661A985BA856D937D93F5
:1056C0008D939C9313976D817E818F8198850E9425
:1056D000BF109B01AC017801B9E5EB0EF11CC201D2
:1056E000B1010E943661F7016083718382839383E5
:1056F0006D817E818F8198850E94BF109B01AC01D6
:105700007801FDE5EF0EF11C69817A818B819C8126
:105710000E943661DC01CB01B058F7018083918390
:10572000A283B38386E0D8018C938FEF9FEFDC01D7
:10573000F801848F958FA68FB78FE45BFF4F81E0D0
:105740008083F80186A997A9A0ADB1AD818392832A
:10575000A383B483E35BFF4F80839183A283B383EE
:105760008091590290915A02A0915B02B0915C0223
:10577000F801E759FF4F80839183A283B38320E030
:1057800030E04AE754E4D501F4016B2F7A2F8F2FD4
:105790009E2F0E9436615B016C01609159027091ED
:1057A0005A0280915B0290915C027801FDE6EF0E57
:1057B000F11C0E94EB5F9B01AC016A2D7B2D8C2DAF
:1057C0009D2D0E94E75E0E94BF5FD7016D937D9380
:1057D0008D939C9313972090590230905A024090D9
:1057E0005B0250905C020B581F4F20E030E04AE70C
:1057F00054E4D301FB85EC856B2F7A2F8F2F9E2FDE
:105800000E9436619B01AC016A2D7B2D8C2D9D2D54
:105810000E94E75E6B017C01C201B1010E94EB5F57
:105820009B01AC01C701B6010E94E75E0E94BF5F09
:10583000F80160837183828393836C960FB6F8942A
:10584000DEBF0FBECDBFDF91CF911F910F91FF90B3
:10585000EF90DF90CF90BF90AF909F908F907F9010
:105860006F905F904F903F902F9008956D817E8153
:105870008F8198859058698F7A8F8B8F9C8F7B85CD
:105880006C859D858E85272F362F492F582FC70170
:10589000B6010E94366120E030E040E05FE30E9404
:1058A00036616F87788B682E998B7D896E899F8989
:1058B000888D272F362F492F582FC701B6010E94F8
:1058C000366120E030E040E05FE30E9436616A8BA1
:1058D000772E8B8B9C8B762F982F8C89272F372DAB
:1058E000492F582FBF85A889E9896B2F7A2F862DDC
:1058F0009E2F0E94E75E9B01AC01698D7A8D8B8D96
:105900009C8D0E944B5F87FD70CE89E729853A8583
:10591000829F5001839FB00C112464EA7FE0A60EA1
:10592000B71ED501D2961D921D921D921C92D5973D
:10593000F501E55BFF4F10826D817E818F81988537
:105940000E94BF109B01AC0185010B591F4FC7017D
:10595000B6010E943661F80160837183828393836C
:105960006D817E818F8198850E94BF109B01AC0163
:105970008501075A1F4FC201B1010E943661D8014B
:105980006D937D938D939C9313976D817E818F8111
:1059900098850E94BF109B01AC018501035A1F4FDF
:1059A00069817A818B819C810E943661DC01CB0107
:1059B000B058F80180839183A283B38386E0D50138
:1059C0008C938FEF9FEFDC01F501848F958FA68F6D
:1059D000B78FE45BFF4F1082F50186A997A9A0ADB0
:1059E000B1AD81839283A383B4838501035B1F4F91
:1059F000F80180839183A283B3836D817E818F813F
:105A000098850E94BF109B01AC01F1E5AF0EB11C5F
:105A1000C201B1010E943661BB85AC85FD85EE8572
:105A20002B2F3A2F4F2F5E2F0E943661BB85AC85FE
:105A3000FD85EE852B2F3A2F4F2F5E2F0E9436616A
:105A400020E030E040E05FE30E943661D8012D9114
:105A50003D914D915C910E94E75EF50160837183F9
:105A60008283938320E030E0A9016D817E818F8164
:105A700098850E944B5F87FDFDC06D817E818F817F
:105A80009885BF85A889E9892B2F3A2F462D5E2F4F
:105A90000E94E65EBA89FB89EC892B2F372D4F2FA8
:105AA0005E2F0E94E65E5B018C01CB01D8018983E9
:105AB0009A83AB83BC8320E030E0A901B501C80123
:105AC0000E944B5F87FDDCC0C501D8014C015D0120
:105AD0006D817E818F8198850E94BF109B01AC01F2
