:100000000C9494000C94BC000C94BC000C94BC00A8
:100010000C94BC000C94BC000C94BC000C94BC0070
:100020000C94BC000C94BC000C94BC000C94BC0060
:100030000C94BC000C94BC000C94BC000C94BC0050
:100040000C94971C0C94BC000C94351F0C94781FD6
:100050000C94BC000C94BC000C94BC000C94BC0030
:100060000C94BC000C94BC003E1B431CE8172518E4
:10007000301871187F18A218C518E818FC183F1915
:100080007119BE19FD19151A2D1A451A531A691A34
:100090008C1AAE1AB51ABA1AC11AC41ACD1ADB1ABA
:1000A000FA1A141B171B191B2A1BD717301B361BD8
:1000B000431BA31BF41B161C05A84CCDB2D44EB990
:1000C0003836A9020C50B9918688083CA6AAAA2AFB
:1000D000BE000000803F0000000700020100000396
:1000E00004060000000000000000010204081020C7
:1000F00040800102040810200102040810200404BA
:1001000004040404040402020202020203030303BF
:10011000030300000000250028002B000000000061
:10012000240027002A00342011241FBECFEFD8E07E
:10013000DEBFCDBF11E0A0E0B1E0E8E7F7E402C028
:1001400005900D92A231B107D9F715E0A2E1B1E017
:1001500001C01D92AF33B107E1F711E0C8E2D1E071
:1001600004C02297FE010E94A023C632D107C9F71E
:100170000E94B2200C94BA230C940000AF92BF925C
:10018000CF92DF92EF92FF920F931F93CF93DF9363
:10019000CDB7DEB760970FB6F894DEBF0FBECDBF08
:1001A00069837A838B839C832D833E834F83588717
:1001B000E986FA860B871C87AD86BE86CF86D88AED
:1001C0009E012F5F3F4FEEE4F2E0AE014F5E5F4FC6
:1001D00063E070E0D901CD90DD90ED90FD909D0140
:1001E000C082D182E282F382DF0198976D937C9383
:1001F000EF5BFF4F2417350769F780E090E06096CA
:100200000FB6F894DEBF0FBECDBFDF91CF911F9127
:100210000F91FF90EF90DF90CF90BF90AF90089537
:10022000CF92DF92EF92FF92CF93DF936A017B012F
:100230009C012150310941E4429FE001439FD00DD0
:100240001124CA5DDD4F0297029728F52BED3FE0A0
:1002500049EC5FE3C701B6010E94AF2218169CF07B
:100260002BED3FE049EC5FEBC701B6010E94242172
:1002700087FF11C03BEDC32E3FE0D32E39ECE32EB8
:100280003FEBF32E08C02BEDC22E2FE0D22E29EC2F
:10029000E22E2FE3F22E82E090E099838883CA82D7
:1002A000DB82EC82FD821B8A1A8A88EE93E0A0E052
:1002B000B0E08E8F9F8FA8A3B9A380E090E0DF917C
:1002C000CF91FF90EF90DF90CF9008952F923F92C3
:1002D0004F925F926F927F928F929F92AF92BF9256
:1002E000CF92DF92EF92FF920F931F93CF93DF9302
:1002F00000D000D000D0CDB7DEB75C012A013B01B1
:100300006801790120E030E0A901C701B6010E942F
:100310002421882309F416C1C501019721E4289FEF
:10032000A001299F500D11244A5D5D4F5E834D83CE
:10033000C5010297029728F52BED3FE049EC5FE3FA
:10034000C301B2010E94AF2218169CF02BED3FE0D2
:1003500049EC5FEBC301B2010E94242187FF11C069
:100360005BED452E5FE0552E59EC652E5FEB752E4B
:1003700008C04BED442E4FE0542E49EC642E4FE361
:10038000742EAD81BE819C968D919D910D90BC91F6
:10039000A02D89839A83AB83BC839C01AD01C301EB
:1003A000B2010E94BF204B018C0120E030E0A90186
:1003B000792D912F0E94AF2218166CF425E33AEFA5
:1003C0004EE85DE3682D792D802F912F0E94242126
:1003D00087FF2AC00CC025E33AEF4EE85DEB682D9D
:1003E000792D802F912F0E94AF221816ECF4B301C3
:1003F000A201C50126960FB6F894DEBF0FBECDBF91
:10040000DF91CF911F910F91FF90EF90DF90CF90F0
:10041000BF90AF909F908F907F906F905F904F9024
:100420003F902F900C94100120E030E0A901C7010B
:10043000B6010E942421A701960187FD5058682D1E
:10044000792D802F912F0E942B2120E030E04AE768
:1004500054E40E94B3221B015C0120E030E0A901BA
:10046000682D792D802F912F0E94AF2220E030E05F
:10047000A90118168CF4C701B6010E94242187FF38
:1004800004C0F7FAF094F7F8F094ED81FE81C0A66D
:10049000D1A6E2A6F3A612C0C701B6010E9424218C
:1004A00087FD04C0F7FAF094F7F8F094AD81BE81AF
:1004B0009896CD92DD92ED92FC929B9789819A81DC
:1004C000AB81BC81ED81FE8182839383A483B5835C
:1004D00016861786108A118A20E030E040EA50E440
:1004E000622D732D8A2D9B2D0E942B215B018C0187
:1004F0006B017C0120E030E0A9010E94242187FFEC
:1005000004C0C701B601905802C0B501C8010E94DD
:100510009321CB01AA2797FDA095BA2FED81FE81EB
:10052000868F978FA0A3B1A3138A128A408E518E13
:10053000628E738E81E090E0958F848F83E090E0EF
:100540009183808380E090E026960FB6F894DEBF1A
:100550000FBECDBFDF91CF911F910F91FF90EF9014
:10056000DF90CF90BF90AF909F908F907F906F90D3
:100570005F904F903F902F9008952F923F924F920F
:100580005F926F927F928F929F92AF92BF92CF9223
:10059000DF92EF92FF920F931F93CF93DF9300D0E0
:1005A00000D000D0CDB7DEB75C012A013B01680165
:1005B000790120E030E0A901C701B6010E942421A1
:1005C000882309F42EC1C501019721E4289FA001C9
:1005D000299F500D11244A5D5D4F5E834D83C501F7
:1005E0000297029728F52BED3FE049EC5FE3C3014A
:1005F000B2010E94AF2218169CF02BED3FE049ECAF
:100600005FEBC301B2010E94242187FF11C07BED83
:10061000472E7FE0572E79EC672E7FEB772E08C0B0
:100620006BED462E6FE0562E69EC662E6FE3762E4C
:10063000AD81BE819C968D919D910D90BC91A02D18
:1006400089839A83AB83BC83ED81FE8160A971A904
:10065000882777FD8095982F0E94C6212BED3FE0DB
:1006600049EC50E40E94B3229B01AC0169817A817C
:100670008B819C810E94C0209B01AC01C301B2010F
:100680000E94BF204B018C0120E030E0A901792DB0
:10069000912F0E94AF2218166CF425E33AEF4EE832
:1006A0005DE3682D792D802F912F0E94242187FFF3
:1006B0002AC00CC025E33AEF4EE85DEB682D792D9A
:1006C000802F912F0E94AF221816ECF4B301A201E3
:1006D000C50126960FB6F894DEBF0FBECDBFDF91E1
:1006E000CF911F910F91FF90EF90DF90CF90BF902F
:1006F000AF909F908F907F906F905F904F903F90C2
:100700002F900C94100120E030E0A901C701B60140
:100710000E942421A701960187FD5058682D792D4C
:10072000802F912F0E942B2120E030E04AE754E4F3
:100730000E94B3221B015C0120E030E0A901682D7A
:10074000792D802F912F0E94AF2220E030E0A90167
:1007500018169CF4C701B6010E94242187FF04C02B
:10076000F7FAF094F7F8F094AD81BE819896CD92A7
:10077000DD92ED92FC929B9710C0C701B6010E94DA
:10078000242187FD04C0F7FAF094F7F8F094ED8186
:10079000FE81C0A6D1A6E2A6F3A689819A81AB818B
:1007A000BC81ED81FE8182839383A483B583168609
:1007B0001786108A118A20E030E040EA50E4622D6A
:1007C000732D8A2D9B2D0E942B215B018C016B01C7
:1007D0007C0120E030E0A9010E94242187FF04C0B1
:1007E000C701B601905802C0B501C8010E9493210B
:1007F000CB01AA2797FDA095BA2FED81FE81868FA8
:10080000978FA0A3B1A3138A128A408E518E628E55
:10081000738E81E090E0958F848F83E090E09183E8
:10082000808380E090E026960FB6F894DEBF0FBE7E
:10083000CDBFDF91CF911F910F91FF90EF90DF908F
:10084000CF90BF90AF909F908F907F906F905F9070
:100850004F903F902F9008952F923F924F925F922A
:100860006F927F928F929F92AF92BF92CF92DF92C0
:10087000EF92FF920F931F93CF93DF935C012A01B6
:100880003B0168017901019721E4289FE001299F3C
:10089000D00D1124CA5DDD4FC50102970297B0F457
:1008A0002BED3FE049EC5FE3C301B2010E94AF22B0
:1008B00018160CF4C7C02BED3FE049EC5FEBC30109
:1008C000B2010E94242187FDC6C013C081E0A81692
:1008D000B10421F084E0A816B10459F42CA53DA57B
:1008E0004EA55FA5C301B2010E94BF200E949C0CCF
:1008F00008C02CA53DA54EA55FA5C301B2010E946D
:10090000BF204B018C0120E030E0A901792D912F0F
:100910000E94AF2218166CF425E33AEF4EE85DE32F
:10092000682D792D802F912F0E94242187FF24C0CC
:100930000CC025E33AEF4EE85DEB682D792D802F52
:10094000912F0E94AF221816BCF4B301A201C50179
:10095000DF91CF911F910F91FF90EF90DF90CF909B
:10096000BF90AF909F908F907F906F905F904F90CF
:100970003F902F900C94100120E030E0A901C701B6
:10098000B6010E942421A701960187FD5058682DC9
:10099000792D802F912F0E942B2120E030E04AE713
:1009A00054E40E94B3221B015C0120E030E0A90165
:1009B000682D792D802F912F0E94AF2220E030E00A
:1009C000A90118163CF4C701B6010E94242187FF33
:1009D0000BC006C0C701B6010E94242187FD04C0D8
:1009E000F7FAF094F7F8F094C8A6D9A6EAA6FBA601
:1009F0008CA59DA5AEA5BFA58A839B83AC83BD8333
:100A00001E861F86188A198A20E030E040EA50E4EA
:100A1000622D732D8A2D9B2D0E942B215B018C0151
:100A20006B017C0120E030E0A9010E94242187FFB6
:100A300004C0C701B601905802C0B501C8010E94A8
:100A4000932112C0FBED4F2EFFE05F2EF9EC6F2ECD
:100A5000FFE37F2E4ECFEBED4E2EEFE05E2EE9EC66
:100A60006E2EEFEB7E2E45CFCB01AA2797FDA095EA
:100A7000BA2F8E8F9F8FA8A3B9A31B8A1A8A488E7C
:100A8000598E6A8E7B8E81E090E09D8F8C8F83E003
:100A900090E09983888380E090E0DF91CF911F916F
:100AA0000F91FF90EF90DF90CF90BF90AF909F900D
:100AB0008F907F906F905F904F903F902F90089510
:100AC000CF92DF92EF92FF92CF93DF93EC016A0116
:100AD0007B0122E93AE046E050E4C701B6010E94FA
:100AE000AF221816DCF0219781E48C9FF0018D9FD6
:100AF000F00D1124EA5DFD4FC0A6D1A6E2A6F3A633
:100B000083E090E0918380838FEF9FEFDC01868FFD
:100B1000978FA0A3B1A320E030E002C021E030E035
:100B2000C901DF91CF91FF90EF90DF90CF900895B2
:100B3000CF939B018430910519F4319521953109AA
:100B40002F3F310509F064F421304FEF34071CF0DA
:100B500037FD03C007C021E03FEFC22FC19503C09E
:100B60002FEF30E0C22FAC014150510961E4649F86
:100B7000F001659FF00D1124EA5DFD4FC5A38230A1
:100B8000910521F124F4019709F06AC007C0833070
:100B90009105A1F1049709F063C048C0121613062D
:100BA0001CF461E084E00EC060E084E0232B51F08F
:100BB0000E94E01D61E08DE00E94E01D6C2F70E05E
:100BC0008BE04BC00E94E01D60E0F5CF12161306CB
:100BD0001CF461E085E008C060E085E0232B21F093
:100BE0000E94E01D61E003C00E94E01D60E082E021
:100BF0000E94E01D6C2F70E083E02FC012161306D8
:100C00001CF461E087E008C060E087E0232B21F05E
:100C10000E94E01D61E003C00E94E01D60E086E0EC
:100C20000E94E01D6C2F70E089E017C012161306B9
:100C30001CF461E088E008C060E088E0232B21F02C
:100C40000E94E01D61E003C00E94E01D60E08CE0B6
:100C50000E94E01D6C2F70E08AE0CF910C94381E4A
:100C6000CF9108951F93CF93DF93C0E0D0E011E4BC
:100C70001C9FF0011D9FF00D1124EA5DFD4F1182B4
:100C80001082219660E070E0CE010E949805C43089
:100C9000D10571F780E090E0DF91CF911F91089529
:100CA000FC011182108212821382148215828CE45C
:100CB0009DE3AFE8B4E486839783A087B18748E2D9
:100CC00053EE6BE274E44287538764877587168618
:100CD0001786108A118A138A128A158A148A178A2B
:100CE000168A108E118E128E138E158E148E4FEF63
:100CF0005FEFBA01468F578F60A371A38FEF9FEF0D
:100D000093A382A380E884A34BED5FE069E47FE3D3
:100D100040A751A762A773A711AA10AA08958F929E
:100D20009F92AF92BF92CF92DF92EF92FF920F937A
:100D30001F93CF93DF93CDB7DEB7C454D1090FB65D
:100D4000F894DEBF0FBECDBF00E010E031E4F32E1B
:100D5000F09EC001F19E900D11248A5D9D4F0E946E
:100D600050060F5F1F4F0430110591F761E087E0D7
:100D70000E94A81D61E088E00E94A81D61E089E052
:100D80000E94A81D68E070E089E090E00E94B60B28
:100D900061E086E00E94A81D61E085E00E94A81D38
:100DA00061E08AE00E94A81D68E070E08AE090E0BF
:100DB0000E94B60B61E084E00E94A81D61E082E021
:100DC0000E94A81D61E083E00E94A81D68E070E019
:100DD00083E090E00E94B60B61E08CE00E94A81DC9
:100DE00061E08DE00E94A81D61E08BE00E94A81DDB
:100DF00068E070E08BE090E00E94B60B40E051EEBE
:100E000060E070E085E994E00E94B31F85E994E01A
:100E10000E94EC1E61E08EE00E94A81D0E94031556
:100E2000892B09F461C010923803109237038BEDBF
:100E3000882E8FE0982E89E4A82E81E4B82E9BEDB1
:100E4000C92E9FE0D92E99ECE92E9FE3F92E970148
:100E50008601B501A401CE0183960E94F0168DB7DC
:100E60009EB782970FB6F8949EBF0FBE8DBFADB7E9
:100E7000BEB7119682E2FE01B39601900D928A955B
:100E8000E1F70E9422170FB6F894DEBF0FBECDBF68
:100E9000812C912C54012BEDC22E2FE0D22E29EC67
:100EA000E22E2FEBF22E97018601B501A401CE01AF
:100EB00001960E94F0168DB79EB782970FB6F894F0
:100EC0009EBF0FBE8DBFADB7BEB7119682E2FE01C9
:100ED000319601900D928A95E1F70E9422170FB684
:100EE000F894DEBF0FBECDBF61E08EE00E94E01D32
:100EF000109236031092350380E991E090932F030E
:100F000080932E0383EC98EBA2EBBEE380932A033D
:100F100090932B03A0932C03B0932D0310923003D6
:100F2000CC5BDF4F0FB6F894DEBF0FBECDBFDF91B5
:100F3000CF911F910F91FF90EF90DF90CF90BF90D6
:100F4000AF909F908F900895CF92DF92EF92FF9293
:100F50000F931F930E94E11C609312017093130181
:100F600080931401909315010091390310913A0375
:100F700020913B0330913C036B017C01C01AD10AE4
:100F8000E20AF30A970186010530110521053105B2
:100F900070F06093390370933A0380933B0390930E
:100FA0003C030E9479100E94C2080E94550C0E94C6
:100FB0005D1C1F910F91FF90EF90DF90CF900C94EC
:100FC000FF1587E00E94171EBC01882777FD8095DA
:100FD000982F0E94C62120E030E040E85AE30E94AA
:100FE000B32220E030E040EA50E40E94B3220895AA
:100FF0000E94E10720E030E040EA50E40E94BF2078
:1010000020E030E0A9010E94242187FF11C00E9446
:10101000E10720E030E040EA50E40E94BF202DECE0
:101020003CEC4CEC5DEB0E94AF2218168CF012C029
:101030000E94E10720E030E040EA50E40E94BF2037
:101040002DEC3CEC4CEC5DE30E94242187FF02C0B8
:1010500080E008950E94E10724E13EEA47ED5FE366
:101060000E94BF2020E030E0A9010E94242187FFD8
:1010700012C00E94E10724E13EEA47ED5FE30E94CF
:10108000BF202DEC3CEC4CEC5DEB0E94AF2218161F
:101090000CF474C010C00E94E10724E13EEA47ED61
:1010A0005FE30E94BF202DEC3CEC4CEC5DE30E9422
:1010B000242187FD63C00E94E10720E030E040E288
:1010C00050E40E94BF2020E030E0A9010E942421CA
:1010D00087FF12C00E94E10720E030E040E250E4C8
:1010E0000E94BF202DEC3CEC4CEC5DEB0E94AF224B
:1010F00018160CF445C010C00E94E10720E030E053
:1011000040E250E40E94BF202DEC3CEC4CEC5DE34F
:101110000E94242187FD34C00E94E1072EEA37E4B3
:1011200041EA5FE30E94BF2020E030E0A9010E9475
:10113000242187FF11C00E94E1072EEA37E441EA2B
:101140005FE30E94BF202DEC3CEC4CEC5DEB0E9479
:10115000AF2218168CF07CCF0E94E1072EEA37E40C
:1011600041EA5FE30E94BF202DEC3CEC4CEC5DE3D8
:101170000E94242187FF6CCF83E0089581E00895C9
:1011800082E008953F924F925F926F927F928F928A
:101190009F92AF92BF92CF92DF92EF92FF920F9306
:1011A0001F93CF93DF93CDB7DEB7CA51D1400FB6AF
:1011B000F894DEBF0FBECDBF0E94F807382E109105
:1011C0003D0318270E94E11C2B013C01112309F467
:1011D0008AC280913E0390913F03A0914003B09159
:1011E0004103A3019201281B390B4A0B5B0BDA0167
:1011F000C901893E9340A105B10508F474C28091EC
:101200003003882309F43FC080E2CF5EDE4F88833D
:10121000C151D1408AE0CE5EDE4F8883C251D140B9
:1012200040924203509243036092440370924503FC
:10123000CD5EDE4F488259826A827B82C351D140A3
:10124000C95EDE4F1883C751D140812F8321C85E0C
:10125000DE4F8883C851D140832D80958123C75E9E
:10126000DE4F8883C951D140C65EDE4F1882CA5115
:10127000D1404AE050E0BE016F5E7E4F85E994E0C8
:101280000E948A2028C2812F8321B9F084E690E051
:10129000A0E0B0E08093310390933203A093330336
:1012A000B093340383E08093350340924603509219
:1012B00047036092480370924903832D80958123F0
:1012C00009F409C20E947F0C20913D03213009F0EE
:1012D0009EC18091460390914703A0914803B0912D
:1012E0004903B301A201481B590B6A0B7B0BDB01BD
:1012F000CA01893B9B40A105B10508F4E4C11092E5
:101300003803109237032093360301E010E04BEDD1
:101310005FE069EC7FE3C8010E9460050F5F1F4F2B
:1013200005301105A1F72BED822E2FE0922E29EC2E
:10133000A22E2FE3B22E7501640195018401B5013F
:10134000A401CE0181519F4F0E94F0166DB77EB768
:10135000625271090FB6F8947EBF0FBE6DBFADB774
:10136000BEB7119682E2FE01E151FF4F01900D924E
:101370008A95E1F70E9422170FB6F894DEBF0FBEE0
:10138000CDBF3BED832E3FE0932E39E4A32E30E416
:10139000B32EC12CD12C760197018601B501A40191
:1013A000CE0183539F4F0E94F016EDB7FEB7B29760
:1013B0000FB6F894FEBF0FBEEDBFADB7BEB7119626
:1013C00082E2FE01E353FF4F01900D928A95E1F70F
:1013D0000E9422170FB6F894DEBF0FBECDBF44EEB9
:1013E000842E4BEC942E46E9A42E40E4B42E5BED03
:1013F000C52E5FE0D52E59ECE52E5FEBF52E97015B
:101400008601B501A401CE0185559F4F0E94F016BB
:101410004DB75EB7425251090FB6F8945EBF0FBE8A
:101420004DBFADB7BEB7119682E2FE01E555FF4F45
:1014300001900D928A95E1F70E9422170FB6F89459
:10144000DEBF0FBECDBF812C912C5401750164010C
:1014500095018401B501A401CE0187579F4F0E94D9
:10146000F0168DB79EB782970FB6F8949EBF0FBE49
:101470008DBFADB7BEB7119682E2FE01E757FF4FB1
:1014800001900D928A95E1F70E9422170FB6F89409
:10149000DEBF0FBECDBF6BED862E6FE0962E69ECE2
:1014A000A62E6FEBB62E7BEDC72E7FE0D72E79EC04
:1014B000E72E7FE3F72E97018601B501A401CE0147
:1014C00089599F4F0E94F0162DB73EB7225231091D
:1014D0000FB6F8943EBF0FBE2DBFADB7BEB7119685
:1014E00082E2FE01E959FF4F01900D928A95E1F7E2
:1014F0000E9422170FB6F894DEBF0FBECDBFEBEDF2
:101500008E2EEFE09E2EE9E4AE2EE0ECBE2EC12C36
:10151000D12C760197018601B501A401CE018B5B28
:101520009F4F0E94F0166DB77EB7625271090FB6D9
:10153000F8947EBF0FBE6DBFADB7BEB7119682E205
:10154000FE01EB5BFF4F01900D928A95E1F70E943F
:1015500022170FB6F894DEBF0FBECDBFF4EE8F2E6C
:10156000FBEC9F2EF6E9AF2EF0ECBF2EABEDCA2EB2
:10157000AFE0DA2EA9ECEA2EAFEBFA2E9701860146
:10158000B501A401CE0183960E94F016EDB7FEB717
:10159000B2970FB6F894FEBF0FBEEDBFADB7BEB7A2
:1015A000119682E2FE01B39601900D928A95E1F7C1
:1015B0000E9422170FB6F894DEBF0FBECDBF812C5C
:1015C000912C54017501640195018401B501A401B8
:1015D000CE0101960E94F0164DB75EB742525109F6
:1015E0000FB6F8945EBF0FBE4DBFADB7BEB7119634
:1015F00082E2FE01319601900D928A95E1F70E94F8
:1016000022170FB6F894DEBF0FBECDBF5CC02230EC
:1016100009F459C0233009F056C0809146039091D7
:101620004703A0914803B0914903A3019201281BED
:10163000390B4A0B5B0BDA01C901893B9B40A105C1
:10164000B10518F00E94D3153EC096E2E92E92E053
:10165000F92E01E010E080E090E0F7012081318177
:10166000232B51F060E070E0C8010E949805F7015B
:101670001182108281E090E00F5F1F4FF1E4EF0EC6
:10168000F11C0530110549F7892BE9F486E5C82ED0
:1016900082E0D82EE12CF12CF60111821082FFEFAE
:1016A000EF1AFF0A0BED1FE029EC3FE340E050E0AA
:1016B000BA01C7010E94660121E4C20ED11C34E0C8
:1016C000E316F10449F740923E0350923F036092C3
:1016D0004003709241034092460350924703609248
:1016E0004803709249038091300381111BC041E08F
:1016F000341619F053E0351215C00E94E11C4090D9
:101700004603509047036090480370904903641962
:10171000750986099709693B7B408105910510F0A1
:101720000E947F0C30923D0380E090E0C65EDE4F69
:101730000FB6F894DEBF0FBECDBFDF91CF911F91E2
:101740000F91FF90EF90DF90CF90BF90AF909F9060
:101750008F907F906F905F904F903F900895DC0145
:10176000ED91FC910190F081E02D09949C012550B0
:1017700031092230310530F08930910519F08A3075
:10178000910569F560347105A1F044F4613071058B
:1017900071F06830710509F054C011C0611581E025
:1017A000780749F06115744009F04BC006C081E02C
:1017B00007C083E005C084E003C085E001C082E08B
:1017C0002230310528F495B5987F982B95BD089562
:1017D00090918100987F982B909381000895833099
:1017E000910511F00B9769F560347105D9F054F447
:1017F00068307105F9F06032710591F06130710562
:1018000001F50CC0611581E0780781F0611584E075
:10181000780771F060387105A1F406C081E00BC053
:1018200083E009C084E007C085E005C086E003C00E
:1018300087E001C082E09091B100987F982B90934F
:10184000B10008950E94171EBC01882777FD80957E
:10185000982F0E94C62120E030E040EA50E40E9428
:10186000B32220E030E040E85AE30E94B32208951A
:10187000CF93DF93CAE0D0E061E08EE00E94E01DEC
:1018800064E670E080E090E00E941D1D60E08EE064
:101890000E94E01D64E670E080E090E00E941D1D63
:1018A000219751F7DF91CF910895809135038823D7
:1018B00029F10E94E11C20913103309132034091C3
:1018C0003303509134030E94602320FF11C061E074
:1018D0008EE00E94E01D80916004811105C080911E
:1018E000350381508093350381E08093600408952F
:1018F00060E08EE00E94E01D109260040895CF9396
:10190000DF93C3E0D0E060E08EE00E94E01D64E67B
:1019100070E080E090E00E941D1D61E08EE00E947A
:10192000E01D64E670E080E090E00E941D1D2197BC
:1019300051F7DF91CF9108950F931F93CF93DF93CA
:101940000BC02BED3FE049EC50E4FE01602F712FFE
:101950008F2F9C2F0E94C0208B01D82FC92F2BEDD9
:101960003FE049E450ECFE01712F8F2F9E2F0E9423
:10197000242187FDE6CF0EC02BED3FE049EC50E47B
:10198000FE01602F712F8F2F9C2F0E94BF208B0193
:10199000D82FC92F2BED3FE049E450E4FE01602F22
:1019A000712F8F2F9C2F0E94AF2218162CF39E01AF
:1019B000602F712F832F9C2FDF91CF911F910F915B
:1019C00008952F923F924F925F926F927F928F92E3
:1019D0009F92AF92BF92CF92DF92EF92FF920F93BE
:1019E0001F93CF93DF93EC0180915C0490915D0491
:1019F000892B09F08EC085E090E00E94220C20E047
:101A000030E040E250E40E94BF201B018C012B011A
:101A10003C0186E090E00E94220C20E030E040E2B1
:101A200050E40E94BF20862E972EA82EB92E20E0CB
:101A300030E0A901B101C8010E94242187FF04C040
:101A400077FA709477F8709420E030E0A901C5012E
:101A5000B4010E94242187FF04C0B7FAB094B7F8FC
:101A6000B094A5019401C301B2010E94242187FF13
:101A700003C081E090E002C082E090E090935D04BA
:101A800080935C0481E090E00E94220C20E030E032
:101A900040E250E40E94BF201B018C012B013C015D
:101AA00082E090E00E94220C20E030E040E250E42E
:101AB0000E94BF20862E972EA82EB92E20E030E05F
:101AC000A901B101C8010E94242187FF04C077FA4F
:101AD000709477F8709420E030E0A901C501B4015A
:101AE0000E94242187FF04C0B7FAB094B7F8B094DD
:101AF000A5019401C301B2010E94242187FF03C004
:101B000081E090E002C082E090E090935F048093D7
:101B10005E04C230D10509F4D7C024F4219709F03E
:101B200001C208C0C330D10509F4F9C0249709F0F7
:101B3000F9C120C185E090E00E94220C4B015C01BC
:101B400086E090E00E94220C6B017C0120E030E0F6
:101B500040E250E4C501B4010E94BF208B01D82FA0
:101B6000C92F20E030E040E250E4C701B6010E94F6
:101B7000BF206B017C0180915C0490915D04019712
:101B800069F520E030E0A901FE01602F712F8F2F51
:101B90009E2F0E94242187FF0EC020E030E040E00D
:101BA00050ECFE01602F712F8F2F9E2F0E94242159
:101BB00087FF14C00DC020E030E040E050E4FE019B
:101BC000602F712F8F2F9E2F0E94AF22181634F492
:101BD00082E090E090935D0480935C0480915C04CB
:101BE00090915D04029751F520E030E0A9016C2D41
:101BF0007D2D8E2D9F2D0E94242187FF0DC020E07A
:101C000030E040E050EC6C2D7D2D8E2D9F2D0E94FC
:101C1000242187FF13C00CC020E030E040E050E4F6
:101C20006C2D7D2D8E2D9F2D0E94AF22181634F421
:101C300081E090E090935D0480935C0480915C046B
:101C400090915D0420E030E04AEA53E4029799F471
:101C50006C2D7D2D8E2D9F2D0E94B32220E030E033
:101C600040EA50E40E942B2120E030E044E353E4BA
:101C70000E94C0200DC0FE01602F712F8F2F9C2F5E
:101C80000E94B32220E030E040EA50E40E942B2181
:101C9000462F572F682F792FCB01BA0190582BED83
:101CA0003FE049E450E40E94B32220E030E044E306
:101CB00053E40E942B212091580230915902409107
:101CC0005A0250915B0218C184E090E00E94220CFD
:101CD00020E030E040E250E40E94BF2020E030E00D
:101CE0004AEA53E40E94B32220E030E040EA50E4A4
:101CF0000E942B212BED3FE049E450E40E94B322E7
:101D000020E030E044E353E40E942B21209199022B
:101D100030919A0240919B0250919C02EDC083E069
:101D200090E00E94220C20E030E040E250E40E946B
:101D3000BF2020E030E04AEA53E40E94B32220E0D2
:101D400030E040EA50E40E942B212BED3FE049E4D3
:101D500050E40E94B32220E030E044E353E40E94C8
:101D60002B212091DA023091DB024091DC0250916C
:101D7000DD02C2C081E090E00E94220C4B015C01B8
:101D800082E090E00E94220C6B017C0120E030E0B8
:101D900040E250E4C501B4010E94BF208B01D82F5E
:101DA000C92F20E030E040E250E4C701B6010E94B4
:101DB000BF206B017C0180915E0490915F040197CC
:101DC00069F520E030E0A901FE01602F712F8F2F0F
:101DD0009E2F0E94242187FF0EC020E030E040E0CB
:101DE00050ECFE01602F712F8F2F9E2F0E94242117
:101DF00087FF14C00DC020E030E040E050E4FE0159
:101E0000602F712F8F2F9E2F0E94AF22181634F44F
:101E100082E090E090935F0480935E0480915E0482
:101E200090915F04029751F520E030E0A9016C2DFC
:101E30007D2D8E2D9F2D0E94242187FF0DC020E037
:101E400030E040E050EC6C2D7D2D8E2D9F2D0E94BA
:101E5000242187FF13C00CC020E030E040E050E4B4
:101E60006C2D7D2D8E2D9F2D0E94AF22181634F4DF
:101E700081E090E090935F0480935E0480915E0423
:101E800090915F0420E030E04AEA53E4029799F42D
:101E90006C2D7D2D8E2D9F2D0E94B32220E030E0F1
:101EA00040EA50E40E942B2120E030E044E353E478
:101EB0000E94C0200DC0FE01602F712F8F2F9C2F1C
:101EC0000E94B32220E030E040EA50E40E942B213F
:101ED0002BED3FE049E450E40E94B32220E030E0E3
:101EE00044E353E40E942B2120911B0330911C03F7
:101EF00040911D0350911E030E94C020DF91CF919D
:101F00001F910F91FF90EF90DF90CF90BF90AF9017
:101F10009F908F907F906F905F904F903F902F9009
:101F20000C949C0C0E94380C50E040E030E82FEB01
:101F3000652F742F832F922FDF91CF911F910F91D7
:101F4000FF90EF90DF90CF90BF90AF909F908F90D9
:101F50007F906F905F904F903F902F9008950F93D8
:101F60001F93CF93DF938C01EB0160E170E085E973
:101F700094E00E94AF0BBE016D5F7F4F85E994E056
:101F80000E94AF0B1C161D0634F4AE01B80185E9A2
:101F900094E00E948A2061E170E085E994E00E946B
:101FA000AF0B80E090E0DF91CF911F910F910895EA
:101FB0000F931F93CF93DF938C019C012150310924
:101FC00081E4829FE001839FD00D1124CA5DDD4F23
:101FD0008E899F898130910521F520E030E0A901AB
:101FE00068A579A58AA59BA50E942421882309F4C8
:101FF0007BC083E090E0998388838FEF9FEFDC01C3
:102000008E8F9F8FA8A3B9A38CA59DA5AEA5BFA5B4
:102010008A839B83AC83BD8348A559A56AA57BA50C
:1020200027C08230910559F520E030E0A90168A56C
:1020300079A58AA59BA50E942421882309F454C070
:1020400083E090E0998388838FEF9FEFDC018E8F90
:102050009F8FA8A3B9A38CA59DA5AEA5BFA58A8374
:102060009B83AC83BD8348A559A56AA57BA5705801
:10207000C801DF91CF911F910F910C9460050097DB
:1020800059F41982188260E070E0C801DF91CF91A5
:102090001F910F910C949805039731F588819981D0
:1020A0008230910539F48A899B89892B51F01D8AE8
:1020B0001C8A1AC0039729F44A815B816C817D8157
:1020C0000CC081E4829FF001839FF00D1124EA5D32
:1020D000FD4F44A555A566A577A5C801DF91CF9111
:1020E0001F910F910C941001DF91CF911F910F91CF
:1020F00008952F923F924F925F926F927F928F92AC
:102100009F92AF92BF92CF92DF92EF92FF920F9386
:102110001F93CF93DF93CDB7DEB76D970FB6F894CB
:10212000DEBF0FBECDBF8CE492E09A838983A6E226
:10213000B2E0BD8FAC8FEBE4F2E0FE87ED8782E585
:1021400092E09C838B83AAE4B3E0BE83AD83EAE490
:10215000F2E0FC87EB879CE5692E92E0792E88E41B
:1021600092E098878F83ADE5B2E0B88BAF87EEE45D
:10217000F2E0FA87E98726E5222E22E0322E442477
:102180004394512CAD85BE858C91E981FA816081A3
:102190007181680F711D882777FD8095982F0E94A7
:1021A000C62120E030E042E553E40E94BF200E94B7
:1021B000932177FD05C0A981BA816D937C9304C0FA
:1021C000E981FA8111821082A981BA816D917C9195
:1021D000882777FD8095982F0E94C62120E034E162
:1021E0004DEC58E40E94AF2218160CF491C1C201C4
:1021F0000E94E10C6B017C01EB81FC8160837183A7
:102200008283938320E030E040E450EC0E9424215C
:1022100087FF13C020E030E040E450E4AD81BE8190
:102220006D917D918D919C910E94AF2218162CF496
:10223000F1018081918101961CC020E030E040E4F2
:1022400050E4C701B6010E94AF221816A4F420E0A2
:1022500030E040E450ECAD81BE816D917D918D9177
:102260009C910E94242187FF06C0F1018081918109
:10227000019791838083EB81FC8180819181A28190
:10228000B381ED81FE8180839183A283B383AC8D82
:10229000BD8D8D919C918230910509F428C134F453
:1022A000009761F0019709F052C334C08330910563
:1022B00009F4FEC1049709F04AC346C0EC8DFD8DB8
:1022C000868D978DA0A1B1A1892B8A2B8B2B91F4A0
:1022D000AF81B8858D919C91978B868BC2010E94AE
:1022E000D80F8FEF9FEFDC01EC8DFD8D868F978FE0
:1022F000A0A3B1A3EC8DFD8D868D978DA0A1B1A17A
:10230000181619061A061B060CF021C30197A1091D
:10231000B10910C2AC8DBD8D56968D919C91579789
:10232000009719F41D921C9212C3019729F4EB85B2
:10233000FC85608170E0EEC0AB85BC856C9170E07F
:10234000719561957109E6C0609112017091130158
:1023500080911401909115010E94C42120E030E089
:102360004AE754E40E942B216F8B788F898F9A8FD4
:10237000EF85F8896081772767FD7095872F972F04
:102380000E94C62120E030E040E05CE30E94B322DE
:1023900020E030E040EA50E40E94B32220E030E048
:1023A00040E05FE30E94B3225B018C01CC24C39424
:1023B000D12C8C8D9D8D8C0D9D1D9E8B8D8BB60192
:1023C000882777FD8095982F0E94C6212BED3FE04E
:1023D00049EC50E40E94B322BF89A88DE98DFA8CA4
:1023E0002B2F3A2F4E2F5F2D0E94B32220E030E09A
:1023F00040E251E40E942B217B014C017F2D992D5D
:102400000E941623698B7A8B8B8B9C8BAD89BE893E
:10241000D7966C91772767FD7095872F972F0E942D
:10242000C62120E030E040E05CE30E94B32220E0DF
:1024300030E040EA50E40E94B32229893A894B896E
:102440005C890E94B3229B01AC016A2D7B2D802FF9
:10245000912F0E94C020698B7B8F8C016E2D7F2D68
:10246000882D992D0E9428214B015C01ED89FE8960
:1024700064AD772767FD7095872F972F0E94C6213F
:1024800020E030E040E05CE30E94B32220E030E056
:1024900040EA50E40E94B322A50194010E94B322B5
:1024A0009B01AC01B989AB8D6B2F7A2F802F912FB7
:1024B0000E94C0205B018C01FFEFCF1ADF0A85E08C
:1024C000C816D10409F075CF8A2D9B2DA02FB12FEE
:1024D000EC8DFD8D82839383A483B583138A128A46
:1024E0008FEF9FEFDC01868F978FA0A3B1A3EC8DB8
:1024F000FD8D868D978DA0A1B1A10097A105B10595
:1025000069F482899389892B09F019C1118210829B
:1025100060E070E0C2010E94980519C21816190601
:102520001A061B064CF40197A109B109EC8DFD8D2B
:10253000868F978FA0A3B1A3AB81BC812D913D91D4
:102540004D915C91EC8DFD8D6281738184819581CB
:102550000E94BF200E949C0C6B017C0120E030E0B7
:10256000A9010E94242187FF0BC025E33AEF4EE02A
:102570005DEBC701B6010E94AF2218165CF022C0C5
:1025800025E33AEF4EE05DE3C701B6010E94242146
:1025900087FF18C0E1E0F0E0AC8DBD8D5396FC9351
:1025A000EE93529754968D919C915597892B09F0F3
:1025B0003AC08FEF9FEFDC01EC8DFD8D868F978FFA
:1025C000A0A3B1A3AC8DBD8D52968D919C915397D4
:1025D000892B61F120E030E0A901C701B6010E941A
:1025E000242187FF04C0C701B601905802C0C7016B
:1025F000B60120912A0330912B0340912C03509176
:102600002D030E94AF2218168CF4F30120812F5F56
:10261000208330E080912E0390912F03821793073F
:1026200038F4AC8DBD8D1D921C9272CFF3011082D7
:10263000AC8DBD8D16962D913D914D915C91199764
:10264000C701B6010E94B3224B015C01EC8DFD8DE8
:10265000268537854089518962857385848595856E
:102660000E94B3229B01AC01C501B4010E94C020AD
:102670000E949321C2010E9498052AE037ED43EAA7
:102680005BE3C701B6010E94B3229B01AC01AC8D94
:10269000BD8D1E966D917D918D919C9151970E945B
:1026A000C020EC8DFD8D66877787808B918B4FC125
:1026B000EC8DFD8D868D978DA0A1B1A10097A10510
:1026C000B10509F040C081E090E0938B828BDF017F
:1026D00016861786108A118AEF81F885118210827A
:1026E00082E090E011969C938E935C968D919C91E4
:1026F0005D97892B59F0FD01808D918DA28DB38D51
:1027000082839383A483B583158E148EEFEFFFEF3E
:10271000AF81B885ED93FC93AC8DBD8D54968D91B2
:102720009C915597892B59F088EC90E0A0E0B0E09F
:10273000EC8DFD8D868F978FA0A3B1A308C18FEF7D
:102740009FEFDC01F5CF181619061A061B064CF48C
:102750000197A109B109EC8DFD8D868F978FA0A3FC
:10276000B1A32AE037ED43EA5BE3A985BA856D9111
:102770007D918D919C910E94B322EC8DFD8D2281E3
:102780003381448155810E94C020062F172F282FA6
:10279000392FAC8DBD8D12960D931D932D933C93C7
:1027A00015979201225031092230310508F046C0B8
:1027B0002BED3FE049EC5FEB0E94242187FF17C01F
:1027C00020E030E0A901E985FA856081718182818C
:1027D00093810E94242187FF0AC08BED9FE0A9EC22
:1027E000BFEBEC8DFD8D82839383A483B5832BEDAA
:1027F0003FE049EC5FE3AC8DBD8D12966D917D910C
:102800008D919C9115970E94AF221816BCF420E080
:1028100030E0A901E985FA85608171818281938127
:102820000E94AF22181654F48BED9FE0A9ECBFE391
:10283000EC8DFD8D82839383A483B583AB81BC81B2
:102840002D913D914D915C91EC8DFD8D6281738157
:10285000848195810E94BF200E949C0C6B017C01A9
:1028600020E030E0A9010E9424214601570187FFA2
:1028700004C0B7FAB094B7F8B09460912A0370918D
:102880002B0380912C0390912D039B01AC010E949E
:10289000C0209B01AC01C501B4010E94AF22D3014D
:1028A00018169CF42C912F5F2C9330E080912E030E
:1028B00090912F038217930708F049C0EC8DFD8D8E
:1028C00011821082158E148E23CE1C92EC8DFD8DFC
:1028D0002681378140855185C701B6010E94B32208
:1028E0004B015C01AC8DBD8D1E962D913D914D919E
:1028F0005C9151971A966D917D918D919C911D9748
:102900000E94B3229B01AC01C501B4010E94C0200A
:102910000E949321C2010E9498052AE037ED43EA04
:102920005BE3C701B6010E94B3229B01AC01EC8DB1
:10293000FD8D66857785808991890E94C020AC8D48
:10294000BD8D1E966D937D938D939C935197BFEF94
:102950004B1A5B0AE981FA81EF5BFF4FFA83E98347
:102960008C8D9D8D8F5B9F4F9D8F8C8FAD85BE8590
:10297000AF5BBF4FBE87AD87EB81FC81EF5BFF4F45
:10298000FC83EB838D819E8104969E838D83AB8532
:10299000BC85AF5BBF4FBC87AB87B1E46B0E711CCE
:1029A000EF81F885EF5BFF4FF887EF838F8598897C
:1029B0008F5B9F4F988B8F87A985BA85AF5BBF4F81
:1029C000BA87A987B1E42B0E311CE5E04E165104FD
:1029D00009F0D8CB6D960FB6F894DEBF0FBECDBF11
:1029E000DF91CF911F910F91FF90EF90DF90CF90EB
:1029F000BF90AF909F908F907F906F905F904F901F
:102A00003F902F9008957F928F929F92AF92BF92A6
:102A1000CF92DF92EF92FF920F931F93CF93DF93AA
:102A200000D000D0CDB7DEB760E170E08BE894E075
:102A30000E94901C813A69F5A12CB12C00E010E0B5
:102A400061E4962E909E6001919ED00C112488E541
:102A500092E0C80ED91EE12CF12CB7016A0D7B1D46
:102A60008BE894E00E94901CF60181936F01FFEFC8
:102A7000EF1AFF0A84E0E816F10479F70F5F1F4FA1
:102A800094E0A90EB11C04301105E1F620E030E01D
:102A900077C058E5A52E52E0B52E812C912C01E08F
:102AA00010E0C8010E94E10C6B017C01C801029793
:102AB000029760F520E030E0A901C701B6010E944D
:102AC000242187FF0DC020E030E04CE852ECC70124
:102AD000B6010E942421782E771C7724771C0DC024
:102AE0007724739420E030E04CE852E4C701B6014B
:102AF0000E94AF2218160CF0712CC982DA82EB8288
:102B0000FC82772019F00E94380CFDCFF7FAF09480
:102B1000F7F8F094C982DA82EB82FC82F501C08278
:102B2000D182E282F382CC24C394D12CCC0EDD1E60
:102B3000E12CF12CF60141916F01B701680D791D6F
:102B40008BE894E00E94931CFFEFEF1AFF0A84E0E9
:102B5000E816F10479F70F5F1F4F94E0890E911C7E
:102B6000E1E4AE0EB11C0530110509F09ACF41EA3F
:102B700060E170E08BE894E00E94931C21E030E07B
:102B8000C9010F900F900F900F90DF91CF911F917F
:102B90000F91FF90EF90DF90CF90BF90AF909F90FC
:102BA0008F907F90089510925802109259021092BF
:102BB0005A0210925B021092990210929A0210929D
:102BC0009B0210929C021092DA021092DB02109289
:102BD000DC021092DD0210921B0310921C03109273
:102BE0001D0310921E0340EA60E170E08BE894E060
:102BF0000E94931C0E94031580E090E00895AF921C
:102C0000BF92CF92DF92EF92FF920F931F93CF93D9
:102C1000DF9380913603882309F4D7C030913803BD
:102C200020913703321780F010923803ECE1F1E085
:102C300080E090E030E004C0118210820196B296EC
:102C400082179307CCF3C1C082E2389FE0011124C0
:102C5000CA5EDE4F10928A0410928904088119819D
:102C60000130110539F00230110509F45EC0012B65
:102C700051F1ABC08E819F81892B41F40E94E11CF0
:102C80006A837B838C839D831F830E830E94E11C58
:102C9000288539856901EE24D7FCE094FE2C0A8151
:102CA0001B812C813D81C00ED11EE21EF31EC61673
:102CB000D706E806F90608F088C0809138038F5FD0
:102CC0008093380382C08E819F81892B71F0E8E365
:102CD000F2E080819181892B09F477C0EF5BFF4F8F
:102CE00083E0EC33F807A9F76DC00E94E11C6A830A
:102CF0007B838C839D836E01E12CF12CEFEFEE1A28
:102D0000FE0AF601428553856485758502E91AE05D
:102D100026E83FE3C7010E942C04F4E0CF0ED11C4B
:102D200084E0E816F10451F748C08E819F81892B19
:102D300061F10E94E11C288539856901EE24D7FCE8
:102D4000E094FE2C0A811B812C813D81C00ED11E96
:102D5000E21EF31EC616D706E806F906B0F5809106
:102D600038038F5F80933803109227021092260257
:102D700010926802109267021092A9021092A802A3
:102D80001092EA021092E90220C00E94E11C6A83BC
:102D90007B838C839D83AE88BF88C88CD98CEA885E
:102DA000FB880C891D892E853F85488959896A854C
:102DB0007B858C859D850E94BE0081E090E09F838D
:102DC0008E8303C03F5F30933803DF91CF911F9113
:102DD0000F91FF90EF90DF90CF90BF90AF9008954C
:102DE0008F929F92AF92BF92CF92DF92EF92FF921B
:102DF0000F931F93CF93DF93CDB7DEB7FC01118202
:102E00001082178216821186108642875387648744
:102E1000758706871787208B318BC28AD38AE48A0D
:102E2000F58A868A978AA08EB18EDF91CF911F9105
:102E30000F91FF90EF90DF90CF90BF90AF909F9059
:102E40008F900895CF93DF93CDB7DEB7809137038E
:102E500092E2899FD0011124AA5EBE4F92E2FE0148
:102E6000359601900D929A95E1F78F5F8093370325
:102E7000DF91CF910895019721E4289FF001299FC8
:102E8000F00D1124EA5DFD4F2081318122303105A2
:102E900039F02330310551F021303105D9F406C025
:102EA00082899389892BC1F083E0089521E4289FCA
:102EB000F001299FF00D1124EA5DFD4F20E030E084
:102EC000A90160A571A582A593A50E94AF2218163D
:102ED0002CF402C080E0089581E0089582E0089516
:102EE0002F923F924F925F926F927F928F929F921A
:102EF000AF92BF92CF92DF92EF92FF920F931F9308
:102F0000CF93DF9300D000D0CDB7DEB71C01680FA0
:102F1000791F61507109DB018C918823A9F06FEF53
:102F200070E085E994E00E94AF0B63E070E085E912
:102F300094E00E94AF0B61E170E085E994E00E94AB
:102F4000AF0B2FEF3FEFA1C4F1018081823459F024
:102F500038F48233F8F0863330F08E33D9F403C07E
:102F600084548330B8F4D10112968C91843090F05F
:102F70006FEF70E085E994E00E94AF0B63E070E0D2
:102F800085E994E00E94AF0B61E170E085E994E08F
:102F90000E94AF0BF101808190E0FC01F097E832D4
:102FA000F10508F05EC4EC5CFF4F0C949E23109278
:102FB00057021092560210929802109297021092A5
:102FC000D9021092D80210921A031092190356C314
:102FD000D1011296EC91129781E48E9FF001112499
:102FE000EA5DFD4F13969C911397968B178A129664
:102FF0000C9110E0809FF001819FF00D1124EA5D9B
:10300000FD4FC0A4D1A4E2A4F3A420E030E0A901C4
:10301000C701B6010E94242187FF04C0F7FAF0948B
:10302000F7F8F09481E4809FF001819FF00D112466
:10303000EA5DFD4FC0A6D1A6E2A6F3A6F10182810A
:1030400090E001960E94D80F19C3D1011296EC911D
:10305000B1E4EB9FF0011124EA5DFD4F868901C3C5
:10306000F101C380D480E580F68022E93AE046E0B1
:1030700050E4C701B6010E94AF2218165CF022E9A5
:103080003AE046E050ECC701B6010E94242187FDDA
:103090000AC011C062E9C62E6AE0D62E66E0E62EAE
:1030A00060E4F62E08C052E9C52E5AE0D52E56E04F
:1030B000E52E50ECF52ED1011296EC91B1E4EB9F88
:1030C000F0011124EA5DFD4F86899789029721F46A
:1030D000F7FAF094F7F8F094C0A6D1A6E2A6F3A60A
:1030E000CDC2D1011296EC91B1E4EB9FF001112415
:1030F000EA5DFD4F80A591A5A2A5B3A5E1C161013F
:10310000E2E0CE0ED11C4EE4A42E42E0B42EE12C1F
:10311000F12CFFEFEF1AFF0AD5010D911D912D91B2
:103120003C91F60141915191619171916F01C701FB
:103130000E946601F1E4AF0EB11C24E0E216F10436
:1031400041F79CC2610182E0C80ED11C3EE4A32E6F
:1031500032E0B32EE12CF12CAFEFEA1AFA0AF501B6
:103160000081118122813381D6014D915D916D9154
:103170007D916D01C7010E94BD02B1E4AB0EB11C8F
:10318000E4E0EE16F10441F779C26101F2E0CF0EFE
:10319000D11C2EE4A22E22E0B22EE12CF12C2FEF36
:1031A000E21AF20AD5010D911D912D913C91F60183
:1031B00041915191619171916F01C7010E942C045D
:1031C000F1E4AF0EB11C24E0E216F10441F756C25F
:1031D00082E0280E311C00E010E00F5F1F4FD1018C
:1031E0004D915D916D917D911D01C8010E9410016D
:1031F0000430110591F742C280915202909153021E
:10320000A0915402B091550280936104909362049E
:10321000A0936304B093640480919302909194020C
:10322000A0919502B09196028093650490936604F4
:10323000A0936704B09368048091D4029091D50262
:10324000A091D602B091D7028093690490936A044A
:10325000A0936B04B0936C048091150390911603B6
:10326000A0911703B091180380936D0490936E049E
:10327000A0936F04B093700460E170E0B0C292E577
:10328000C92E92E0D92E00E010E081E6E82E84E01D
:10329000F82EE00EF11EF60164817581882777FD16
:1032A0008095982F0E94C6212BED3FE049EC50E419
:1032B0000E94B3229B01AC01D6016D917D918D914D
:1032C0009C910E94C020F701608371838283938365
:1032D000F1E4CF0ED11C0C5F1F4F00311105A9F690
:1032E000CBCF0E94E11C60936104709362048093D1
:1032F0006304909364048091520290915302A091D0
:103300005402B09155028093650490936604A09393
:103310006704B09368048091930290919402A09105
:103320009502B09196028093690490936A04A093E9
:103330006B04B0936C048091D4029091D502A0915B
:10334000D602B091D70280936D0490936E04A0933F
:103350006F04B09370048091150390911603A091AF
:103360001703B09118038093710490937204A09393
:103370007304B093740464E170E031C20E94E11CF4
:103380006093610470936204809363049093640477
:1033900012E5C12E12E0D12E04E010E0B1E6EB2ED2
:1033A000B4E0FB2EE00EF11ED60114966D917C91D7
:1033B0001597882777FD8095982F0E94C6212BEDC1
:1033C0003FE049EC50E40E94B3229B01AC01F601BE
:1033D00060817181828193810E94C020D7016D93A9
:1033E0007D938D939C931397B1E4CB0ED11C0C5F0E
:1033F0001F4F0431110591F6BECFD1011296EC9109
:103400008E2F90E0B1E4EB9FF0011124EA5DFD4FB7
:1034100000A511A522A533A5F10143815481658141
:10342000768101960E94660129C1D1011296EC9124
:103430008E2F90E0B1E4EB9FF0011124EA5DFD4F87
:1034400000A511A522A533A5F10143815481658111
:10345000768101960E94BD0211C1D1011296EC91B4
:103460008E2F90E0B1E4EB9FF0011124EA5DFD4F57
:1034700000A511A522A533A5F101438154816581E1
:10348000768101960E942C04F9C0D10113964D91CA
:103490005D916D917C91169712968C9190E00196BA
:1034A0000E941001EBC0D1011296EC91B1E4EB9FA8
:1034B000F0011124EA5DFD4F84A595A5A6A5B7A549
:1034C0008093610490936204A0936304B0936404B6
:1034D0008EC0F1010281F1E40F9F800111240A5D89
:1034E0001D4FD801D0966D917C91D197882777FD9B
:1034F0008095982F0E94C6212BED3FE049EC50E4C7
:103500000E94B3229B01AC01F80164A575A586A5B4
:1035100097A50E94C02063C00E94E11C60936104D3
:10352000709362048093630490936404D1011296B3
:10353000EC91B1E4EB9FF0011124EA5DFD4F84A50D
:1035400095A5A6A5B7A58093650490936604A0935E
:103550006704B093680468E070E041C1F1018281C2
:1035600090E001960E943B177CC082E99AE0A6E0B9
:10357000B0E4A6CFD10112968C9190E00E94220C6B
:103580002EC00E94E1072BC080912A0390912B034B
:10359000A0912C03B0912D0393CFF10182819381EF
:1035A000A481B58180932A0390932B03A0932C03CD
:1035B000B0932D0363C080912E0390912F0325E0DB
:1035C000289FB001299F700D112480E090E00E9497
:1035D000C42120E030E04AE754E40E942B216093AC
:1035E000610470936204809363049093640464E0C4
:1035F00070E0F5C020E030E04AE754E4D1011296D3
:103600006D917D918D919C9115970E94B32220E040
:1036100030E040EA50E40E942B210E9498217093F0
:103620002F0360932E032AC00E94320627C08AE52A
:1036300018C0F10182819381A481B5818093310307
:1036400090933203A0933303B09334038681809325
:10365000350314C0D10112968C91809330030EC0B3
:1036600084E08093610461E070E0B9C0F1014281BF
:1036700061E170E08BE894E00E94931C60E070E0F0
:1036800080E090E0AEC00CE312E06101F5E0CF0E07
:10369000D11CE12CF12CA5E08A2E912CA12CB12C6F
:1036A00044244A94542C3201D10112968C9190E01A
:1036B0000E2C02C0959587950A94E2F780FF35C0DD
:1036C000F60132978081F80180831182F6013197EB
:1036D0008081D8011C968C931C971D961C92F60134
:1036E0004081518162817381C701019649835A8368
:1036F0006B837C830E94D80F49815A816B817C81C6
:1037000077FF08C0D80118964D925D926D927C9219
:103710001B970BC0CB01BA01A50194010E94822323
:10372000F8012087318742875387FFEFEF1AFF0A9E
:103730000F5B1F4F26E0C20ED11C84E0E816F10497
:1037400009F0B2CF9BCF0E94E11C6093610470939B
:103750006204809363049093640402E512E0E5E759
:10376000CE2EE4E0DE2EF4E0EF2EF12C812C912C15
:10377000AFEF8A1A9A0A71E6A72E74E0B72EAE0C44
:10378000BF1CF80164817581882777FD8095982F8B
:103790000E94C6212BED3FE049EC50E40E94B32289
:1037A0009B01AC01D8016D917D918D919C910E94FE
:1037B000C020F5016083718382839383C4010E94DA
:1037C0003B17D6018D936D010F5B1F4FB4E0EB0EDD
:1037D000F11CE4E08E16910459F668E170E081E690
:1037E00094E00E94AF0F4FC0D101189680E090E0A6
:1037F00021E4FD0135973081F1014281FC01249FD4
:10380000E00DF11D1124EA5DFD4F37AB3D91F10153
:103810004281FC01249FE00DF11D1124EA5DFD4F62
:1038200034AF01968530910521F728CFE6E2F2E02A
:1038300080E090E044E050E0D10112962C9130E01D
:10384000082E02C0359527950A94E2F720FF02C0A2
:10385000518340830196EF5BFF4F8430910561F700
:103860000DCF6FEF70E085E994E00E94AF0B63E04D
:1038700070E085E994E00E94AF0B61E170E085E9BA
:1038800094E00E94AF0B20E030E0C9010F900F9050
:103890000F900F90DF91CF911F910F91FF90EF90BC
:1038A000DF90CF90BF90AF909F908F907F906F9060
:1038B0005F904F903F902F90089585E994E00E948B
:1038C000991E181619065CF585E994E00E94C81E39
:1038D00097FF05C010925B0310925A030895209140
:1038E0005A0330915B03F901E45AFC4F8083C9010C
:1038F000019690935B0380935A0382309105ECF21A
:1039000060915D0370E068177907B9F68CE593E084
:103910000E94701710925B0310925A03CECF089545
:10392000CB010C94A423CB01642F0C94AC231F92E5
:103930000F920FB60F9211242F933F938F939F9363
:10394000AF93BF9380918C0490918D04A0918E04CD
:10395000B0918F0430919404232F2D5F2D3720F4E4
:103960000196A11DB11D05C0232F2A570296A11D46
:10397000B11D2093940480938C0490938D04A093A4
:103980008E04B0938F048091900490919104A09143
:103990009204B09193040196A11DB11D80939004EF
:1039A00090939104A0939204B0939304BF91AF912C
:1039B0009F918F913F912F910F900FBE0F901F906D
:1039C00018950F931F938FB7F89400918C04109162
:1039D0008D0420918E0430918F048FBFB801C901EE
:1039E0001F910F9108950F931F939FB7F894009123
:1039F000900410919104209192043091930486B523
:103A0000A89B06C08F3F21F00F5F1F4F2F4F3F4FE6
:103A10009FBF322F212F102F0027080F111D211DAE
:103A2000311D42E0000F111F221F331F4A95D1F7AD
:103A3000B801C9011F910F910895CF92DF92EF92C3
:103A4000FF92CF93DF936B017C010E94F31CEB018B
:103A50000EC00E94F31C6C1B7D0B683E734038F057
:103A600081E0C81AD108E108F108C851DC4FC1143F
:103A7000D104E104F10469F7DF91CF91FF90EF9059
:103A8000DF90CF900895789484B5826084BD84B52A
:103A9000816084BD85B5826085BD85B5816085BD49
:103AA000EEE6F0E0808181608083E1E8F0E0108262
:103AB000808182608083808181608083E0E8F0E0A3
:103AC000808181608083E1EBF0E08081846080838D
:103AD000E0EBF0E0808181608083EAE7F0E08081C4
:103AE0008460808380818260808380818160808324
:103AF0008081806880831092C1000895833069F0CE
:103B000028F48130A1F0823011F514C08630B1F074
:103B10008730C1F08430D9F404C0809180008F7761
:103B200003C0809180008F7D80938000089584B5CC
:103B30008F7702C084B58F7D84BD08958091B000D9
:103B40008F7703C08091B0008F7D8093B00008957F
:103B5000CF93DF9390E0FC01E651FF4F4491FC01CD
:103B6000E250FF4F8491882341F190E0880F991F24
:103B7000FC01E45EFE4F25913491D9018E5E9E4F8B
:103B8000FC0185919491C82FD92F9FB7F8948C91FF
:103B9000611106C0409584238C938881842308C0DA
:103BA000623041F4242F209582238C938881842BCA
:103BB000888302C0842B8C939FBFDF91CF9108959F
:103BC0000F931F93CF93DF931F92CDB7DEB7282FAC
:103BD00030E0F901EA52FF4F8491F901E651FF4FBD
:103BE0001491F901E250FF4F04910023D1F0882392
:103BF00021F069830E947E1D6981E02FF0E0EE0FC5
:103C0000FF1FEE5EFE4F85919491DC019FB7F89403
:103C10008C91611103C01095812301C0812B8C937D
:103C20009FBF0F90DF91CF911F910F9108958E301C
:103C300008F08E5087702091000140E4249F90018D
:103C40001124822B80937C0080917A008064809381
:103C50007A0080917A0086FDFCCF20917800309127
:103C60007900932F80E0AC01422B9A01C90108959D
:103C70001F93CF93DF93182FEB0161E00E94A81DE3
:103C8000209711F460E004C0CF3FD10539F461E022
:103C9000812FDF91CF911F910C94E01DE12FF0E077
:103CA000EA52FF4FE491E330B9F028F4E13051F0EB
:103CB000E230B1F50CC0E63019F1E73049F1E430FB
:103CC00079F514C084B5806884BDC7BD2EC084B5A5
:103CD000806284BDC8BD29C08091800080688093C7
:103CE0008000D0938900C09388001FC0809180001D
:103CF000806280938000D0938B00C0938A0015C0AF
:103D00008091B00080688093B000C093B3000DC074
:103D10008091B00080628093B000C093B40005C071
:103D2000C038D1050CF0B3CFADCFDF91CF911F914B
:103D30000895FC0184859585FC01E05CFF4F20819E
:103D40003181FC01EE5BFF4F80819181281B390B93
:103D50002F733327C9010895FC0184859585FC01E3
:103D6000E05CFF4F40815181FC01EE5BFF4F208101
:103D700031814217530741F00190F081E02DE80FA7
:103D8000F91F208130E002C02FEF3FEFC9010895F5
:103D9000FC0184859585FC01E05CFF4F40815181E9
:103DA000FC01EE5BFF4F208131814217530781F008
:103DB000A081B181A80FB91F8C91208131812F5F23
:103DC0003F4F2F73332731832083282F30E002C0E9
:103DD0002FEF3FEFC9010895FC0181A1882329F04D
:103DE000A489B5898C9186FFFBCF11A20895CF934A
:103DF000DF93FC0126853785D901A05CBF4F8D91EB
:103E00009C91119701968F739927E901CE5BDF4F43
:103E10004881598184179507D9F30D90BC91A02D45
:103E2000A20FB31F6C93A685B785A05CBF4F1196F8
:103E30009C938E93A689B7892C9181E090E0078CA2
:103E400002C0880F991F0A94E2F7282B2C9381E077
:103E500081A30488F589E02D80818064808381E0DE
:103E600090E0DF91CF91089508951F920F920FB6C1
:103E70000F9211242F933F934F938F939F93EF9320
:103E8000FF938091C00082FD1CC04091C6008091CC
:103E90003B0590913C0501968F73992720913D0534
:103EA00030913E058217930771F0E0913B05F09148
:103EB0003C05E550FB4F408390933C0580933B05C8
:103EC00002C08091C600FF91EF919F918F914F9119
:103ED0003F912F910F900FBE0F901F90189585E97D
:103EE00094E00E94991E892B11F00C94341F0895C0
:103EF0001F920F920FB60F9211242F933F938F931F
:103F00009F93EF93FF932091F7043091F8048091F1
:103F1000F9049091FA042817390731F48091C1000F
:103F20008F7D8093C10014C0E091F904F091FA04F0
:103F3000E954FB4F20818091F9049091FA04019695
:103F40008F7399279093FA048093F9042093C60005
:103F5000FF91EF919F918F913F912F910F900FBE05
:103F60000F901F901895CF92DF92EF92FF92CF9310
:103F7000DF93EC016A017B01411581EE5807610571
:103F80007105F9F0EC89FD8981E090E008A002C09C
:103F9000880F991F0A94E2F7808360E079E08DE34F
:103FA00090E0A70196010E94602321503109410948
:103FB00051095695479537952795211580E1380782
:103FC00098F0EC89FD89108260E874E88EE190E059
:103FD000A70196010E94602321503109410951092E
:103FE0005695479537952795E889F9893083EA8969
:103FF000FB89208319A2EE89FF89408181E090E04E
:104000009C010C8C02C0220F331F0A94E2F7422B52
:104010004083EE89FF8940819C010D8C02C0220FF4
:10402000331F0A94E2F7422B4083EE89FF894081D7
:104030009C010E8C02C0220F331F0A94E2F7422B20
:104040004083EE89FF8920810F8C02C0880F991F61
:104050000A94E2F7809582238083DF91CF91FF90CD
:10406000EF90DF90CF9008951092980410929704EB
:1040700088EE93E0A0E0B0E08093990490939A04D6
:10408000A0939B04B0939C0485E091E090939604E8
:10409000809395048BEF94E09093A2048093A10405
:1040A00087EB94E09093A4048093A30485EC90E0C4
:1040B0009093A6048093A50484EC90E09093A804C8
:1040C0008093A70480EC90E09093AA048093A904C5
:1040D00081EC90E09093AC048093AB0482EC90E090
:1040E0009093AE048093AD0486EC90E09093B0047E
:1040F0008093AF0484E08093B10483E08093B204A2
:1041000087E08093B30485E08093B40481E08093DA
:10411000B5040895CF92DF92EF92FF920F931F9311
:10412000CF93DF936C01EB017A01E60EF71E00E0FE
:1041300010E00BC06991D601ED91FC910190F081E6
:10414000E02DC6010995080F191FCE15DF0591F75F
:10415000C801DF91CF911F910F91FF90EF90DF90F9
:10416000CF9008950E94431D0E948F06CFE6DFE1A5
:104170000E94A4072097E1F30E946F1FF9CF5058C7
:10418000BB27AA270ED0A0C169D130F06ED120F094
:1041900031F49F3F11F41EF45EC10EF4E095E7FB8D
:1041A00054C1E92FB3D180F3BA17620773078407AC
:1041B000950718F071F49EF5CBC10EF4E0950B2E27
:1041C000BA2FA02D0B01B90190010C01CA01A00169
:1041D0001124FF27591B99F0593F50F4503E68F1C4
:1041E0001A16F040A22F232F342F4427585FF3CF05
:1041F000469537952795A795F0405395C9F77EF4D6
:104200001F16BA0B620B730B840BBAF09150A1F01E
:10421000FF0FBB1F661F771F881FC2F70EC0BA0FA4
:10422000621F731F841F48F4879577956795B7952C
:10423000F7959E3F08F0B3CF9395880F08F0992724
:10424000EE0F979587950895DCD008F481E00895E6
:1042500014D1E3954AC10CD037C107D140F0FED04C
:1042600030F021F45F3F19F0F0C0511172C1F3C07A
:104270004DD198F39923C9F35523B1F3951B550BF1
:10428000BB27AA2762177307840738F09F5F5F4F29
:10429000220F331F441FAA1FA9F333D00E2E3AF06A
:1042A000E0E830D091505040E695001CCAF729D084
:1042B000FE2F27D0660F771F881FBB1F26173707D3
:1042C0004807AB07B0E809F0BB0B802DBF01FF2703
:1042D00093585F4F2AF09E3F510568F0B6C039C130
:1042E0005F3FECF3983EDCF3869577956795B7953D
:1042F000F7959F5FC9F7880F911D9695879597F958
:104300000895E1E0660F771F881FBB1F62177307D0
:104310008407BA0720F0621B730B840BBA0BEE1FE5
:1043200088F7E095089504D06894B11112C10895FA
:10433000F5D088F09F5790F0B92F9927B751A0F08A
:10434000D1F0660F771F881F991F1AF0BA95C9F729
:1043500012C0B13081F0FCD0B1E00895F9C0672FF0
:10436000782F8827B85F39F0B93FCCF386957795D9
:104370006795B395D9F73EF49095809570956195C2
:104380007F4F8F4F9F4F0895E89409C097FB3EF4ED
:1043900090958095709561957F4F8F4F9F4F992392
:1043A000A9F0F92F96E9BB279395F6958795779510
:1043B0006795B795F111F8CFFAF4BB0F11F460FFD0
:1043C0001BC06F5F7F4F8F4F9F4F16C0882311F028
:1043D00096E911C0772321F09EE8872F762F05C03C
:1043E000662371F096E8862F70E060E02AF09A95D7
:1043F000660F771F881FDAF7880F9695879597F9CC
:104400000895990F0008550FAA0BE0E8FEEF161665
:104410001706E807F907C0F012161306E407F507B8
:1044200098F0621B730B840B950B39F40A2661F02C
:10443000232B242B252B21F408950A2609F4A140CF
:10444000A6958FEF811D811D089597F99F6780E8DC
:1044500070E060E008959FEF80EC089500240A94D6
:104460001616170618060906089500240A9412164F
:104470001306140605060895EECF50D0E8F3E8942D
:10448000E0E0BB279F57F0F02AED3FE049EC06C083
:10449000EE0FBB0F661F771F881F28F0B23A620726
:1044A0007307840728F0B25A620B730B840BE395F1
:1044B0009A9572F7803830F49A95BB0F661F771F74
:1044C000881FD2F79048BAC0092E0394000C11F44B
:1044D000882352F0BB0F40F4BF2B11F460FF04C0DF
:1044E0006F5F7F4F8F4F9F4F0895EF93E0FF06C0A0
:1044F000A2EA2AED3FE049EC5FEB53DEE5DF0F90E7
:10450000039401FC9058E8EBF0E0A4C057FD9058EC
:10451000440F551F59F05F3F71F04795880F97FB87
:10452000991F61F09F3F79F0879508951216130641
:104530001406551FF2CF4695F1DF08C01616170670
:104540001806991FF1CF86957105610508940895A5
:10455000E894BB2766277727CB0197F9089551DFA9
:1045600008F48FEF08950BD0AFCF78DF28F07DDF10
:1045700018F0952309F069CF6ECF1124EACFC6DF7A
:10458000A0F3959FD1F3950F50E0551F629FF00166
:10459000729FBB27F00DB11D639FAA27F00DB11DBF
:1045A000AA1F649F6627B00DA11D661F829F222748
:1045B000B00DA11D621F739FB00DA11D621F839FCF
:1045C000A00D611D221F749F3327A00D611D231FA5
:1045D000849F600D211D822F762F6A2F11249F57F3
:1045E00050408AF0E1F088234AF0EE0FFF1FBB1F16
:1045F000661F771F881F91505040A9F79E3F5105B5
:1046000070F023CFA6CF5F3FECF3983EDCF38695A6
:1046100077956795B795F795E7959F5FC1F7FE2B5F
:10462000880F911D9695879597F908959F9325DF9B
:104630000F9007FCEE5F59CF9F3F31F0915020F46F
:10464000879577956795B795880F911D969587956E
:1046500097F908959F938F937F936F93FF93EF93B1
:104660009B01AC0180DFEF91FF9105D02F913F912D
:104670004F915F9178CFDF93CF931F930F93FF926A
:10468000EF92DF927B018C01689405C0DA2EEF0176
:1046900076DFFE01E894A5912591359145915591DC
:1046A000AEF3EF017EDDFE019701A801DA9479F700
:1046B000DF90EF90FF900F911F91CF91DF910895C0
:1046C000A1E21A2EAA1BBB1BFD010DC0AA1FBB1F16
:1046D000EE1FFF1FA217B307E407F50720F0A21B88
:1046E000B30BE40BF50B661F771F881F991F1A94F5
:1046F00069F760957095809590959B01AC01BD011F
:10470000CF010895052E97FB16F4009407D057FDAE
:104710000DD00E94602307FC09D07EF4909580950F
:10472000709561957F4F8F4F9F4F0895509540959D
:10473000309521953F4F4F4F5F4F0895EE0FFF1F6C
:104740000590F491E02D0994F999FECF92BD81BDB9
:10475000F89A992780B50895262FF999FECF1FBAA8
:1047600092BD81BD20BD0FB6F894FA9AF99A0FBE9A
:0847700001960895F894FFCFB3
:104778000100000000F71E8A20991EC81EAC1EEC1E
:024788001E0011
:00000001FF
